{"bytecode":"6001600d90815560086103a09081526727b3102837bbb2b960c11b6103c0526080908152600e6103e08181526d27b3102230b9359026b0ba3a32b960911b6104005260a05260106104209081526f27b3102a34329029b7bb32b932b4b3b760811b6104405260c0526104609283526c4f66205468652046757475726560981b6104805260e0929092526104a08281526d27b3103a3432902ab735b737bbb760911b6104c05261010052600a6104e0818152694f66204772617669747960b01b61050052610120526012610520818152714f66207468652053696e67756c617269747960701b6105405261014052600f6105608181526e4f662044697374616e742053756e7360881b610580526101605260116105a09081527013d98813995e1d08105d59db595b9d1959607a1b6105c05261018052600b6105e08181526a27b3102a34329020b2b7b760a91b610600526101a05260166106208181527f4f66204d6963726f20467261676d656e746174696f6e00000000000000000000610640526101c052601a6106609081527f4f66205669636172696f757320436f6e7363696f75736e657373000000000000610680526101e0526106a0948552694f6620566563746f727360b01b6106c05261020094909452601c6106e09081527f4f66204d657461706879736963616c204175676d656e746174696f6e00000000610700526102205260146107208181527f4f66205468652041737472616c20506c616e657300000000000000000000000061074052610240526107609485527f4f6620546865204c6976696e6720556e6976657273650000000000000000000061078052610260949094526107a09182526e4f66205468652042696f6d6563687360881b6107c052610280919091526107e09485526d4f6620546865204379626f72677360901b610800526102a09490945260176108209081527f4f66205468652053706972697475616c20506c616e6573000000000000000000610840526102c05260136108608181527f4f6620546865204e616e6f205468726561647300000000000000000000000000610880526102e052600c6108a08181526b13d988151a194814da59da5b60a21b6108c052610300526108e09081526b4f662054686520517569636b60a01b61090052610320526109209485526a13d988151a1948135a5b9960aa1b61094052610340949094526109609384527f4f662050737963686963204672616374616c730000000000000000000000000061098052610360939093526109e06040526109a09081527f4f66205468652047656e6574696320436f6465780000000000000000000000006109c05261038052620003e491906019620014a6565b50604080516109a081018252600c61096082018181526b20bab3b6b2b73a30ba34b7b760a11b610980840152825282518084018452600a8082526943796265726e6574696360b01b602083810191909152808501929092528451808601865260058082526421bcb132b960d91b8285015285870191909152855180870187526004808252634e616e6f60e01b82860152606087019190915286518088018852600980825268125b5c1b185b9d195960ba1b82870152608088019190915287518089018952600b8082526a115b9a185b98d95b595b9d60aa1b8288015260a08901919091528851808a018a52600880825267135bd91a599a595960c21b8289015260c08a01919091528951808b018b5281815267155c19dc9859195960c21b8189015260e08a01528951808b018b528181526710591d985b98d95960c21b8189018190526101008b01919091528a51808c018c5286815264243cb832b960d91b818a01526101208b01528a51808c018c52828152808901919091526101408a01528951808b018b528581526450726f746f60d81b818901526101608a01528951808b018b528381526850726f746f7479706560b81b818901526101808a01528951808b018b528681526920b230b83a30ba34b7b760b11b818901526101a08a01528951808b018b5286815269105c9d1a599a58da585b60b21b8189018190526101c08b01919091528a51808c018c528581526347656e6560e01b818a01526101e08b01528a51808c018c5260078082526647656e6574696360c81b828b01526102008c01919091528b51808d018d5260068082526521b0b93137b760d11b828c01526102208d01919091528c51808e018e52600381526242696f60e81b818c01526102408d01528c51808e018e52600d8082526c109a5bdb5958da185b9a58d85b609a1b828d01526102608e01919091528d51808f018f528a815269135958da185b9a5e995960b21b818d01526102808e01528d51808f018f52838152664d616368696e6560c81b818d01526102a08e01528d51808f018f52828152654379626f726760d01b818d01526102c08e01528d51808f018f528a8152808c01949094526102e08d01939093528c51808e018e52898152694175746f6e6f6d6f757360b01b818c01526103008d01528c51808e018e5284815267456c65637472696360c01b818c01526103208d01528c51808e018e5289815269456c656374726f6e696360b01b818c01526103408d01528c51808e018e52898152695265666c65637469766560b01b818c01526103608d01528c51808e018e52868152685265666c657869766560b81b818c01526103808d01528c51808e018e528981526953656c662d417761726560b01b818c01526103a08d01528c51808e018e528481526714d95b9d1a595b9d60c21b818c01526103c08d01528c51808e018e528381526c53656c662d4d6f727068696e6760981b818c01526103e08d01528c51808e018e52600e8082526d53656c662d4d6f64696679696e6760901b828d01526104008e01919091528d51808f018f529384526c53656c662d4c6561726e696e6760981b848c01526104208d01939093528c51808e018e52828152664f7267616e696360c81b818c01526104408d01528c51808e018e52878152634f6d6e6960e01b818c01526104608d01528c51808e018e52600f81526e4f6d6e692d50726f63657373696e6760881b818c01526104808d01528c51808e018e5286815268223cb9ba37b834b0b760b91b818c01526104a08d01528c51808e018e5284815267526561637469766560c01b818c01526104c08d01528c51808e018e5289815269526573706f6e7369766560b01b818c01526104e08d01528c51808e018e528681526813dc1d1a5b5a5e995960ba1b818c01526105008d01528c51808e018e529283526d496e646573747275637469626c6560901b838b01526105208c01929092528b51808d018d5285815268566973696f6e61727960b81b818b01526105408c01528b51808d018d528481526a486f6c6f6772617068696360a81b818b01526105608c01528b51808d018d52868152632732b7b760e11b818b01526105808c01528b51808d018d528881526914dd5c195c999b1d5a5960b21b818b01526105a08c01528b51808d018d528481526a151c985b9cdb1d58d95b9d60aa1b818b01526105c08c01528b51808d018d5285815268496e76697369626c6560b81b818b01526105e08c01528b51808d018d528a81526b496d70656e65747261626c6560a01b818b01526106008c01528b51808d018d528481526a125b98dbdc9c1bdc99585b60aa1b818b01526106208c01528b51808d018d52838152674d6f727068696e6760c01b818b01526106408c01528b51808d018d52998a526b29b430b832b9b434b33a32b960a11b8a8a01526106608b01999099528a51808c018c528181526541637469766560d01b818a01526106808b01528a51808c018c52818152654c6976696e6760d01b818a01526106a08b01528a51808c018c52878152694d7973746572696f757360b01b818a01526106c08b01528a51808c018c5282815267125b5b5bdc9d185b60c21b818a01526106e08b01528a51808c018c528381526a14994b585b9a5b585d195960aa1b818a01526107008b01528a51808c018c5286815264546f78696360d81b818a01526107208b01528a51808c018c5284815268436f72726f7369766560b81b818a01526107408b01528a51808c018c52848152684578706c6f7369766560b81b818a01526107608b01528a51808c018c5284815268466c616d6d61626c6560b81b818a01526107808b01528a51808c018c52948552635079726f60e01b858901526107a08a01949094528951808b018b529182526a436f6d6275737469626c6560a81b828801526107c08901919091528851808a018a52601081526f53656c662d446573747275637469766560801b818801526107e08901528851808a018a528281526850617261736974696360b81b818801526108008901528851808a018a5284815264159a5c985b60da1b818801526108208901528851808a018a52878152665073696f6e696360c81b818801526108408901528851808a018a52878152665073796368696360c81b818801526108608901528851808a018a5283815265417263616e6560d01b818801526108808901528851808a018a5292835265446976696e6560d01b838701526108a08801929092528751808901895293845269105b18da195b5a58d85b60b21b848601526108c08701939093528651808801885294855266546f74656d696360c81b858501526108e0860194909452855180870187529384526714d95b9d1a5b995b60c21b848401526109008501939093528451808601865290815268446566656e7369766560b81b818301526109208401528351808501909452908352642932b1b7b760d91b9083015261094081019190915262000dd890601390604b6200150a565b50604080516106208101825260046105e08201818152632732b7b760e11b610600840152825282518084018452600880825267537465616c74687960c01b602083810191909152808501929092528451808601865260068082526553656e74727960d01b8285015285870191909152855180870187526007808252664c69626572747960c81b82860152606087019190915286518088018852818152662a343ab73232b960c91b81860152608087015286518088018852600580825264088cac2e8d60db1b8287015260a08801919091528751808901895286815263151bdbdb60e21b8187015260c088015287518089018952958652634a756e6b60e01b8686015260e08701959095528651808801885285815264426c61636b60d81b81860152610100870152865180880188528581526421bcb132b960d91b818601526101208701528651808801885283815267119a5c995dd85b1b60c21b818601526101408701528651808801885285815264053686172760dc1b818601526101608701528651808801885281815266213930bbb632b960c91b8186015261018087015286518088018852828152652430b1b5b2b960d11b818601526101a087015286518088018852818152661498591a585b9d60ca1b818601526101c0870152865180880188528281526521b4b83432b960d11b818601526101e087015286518088018852828152652a3930b1b2b960d11b8186015261020087015286518088018852818152665068616e746f6d60c81b81860152610220870152865180880188528281526553617661676560d01b8186015261024087015286518088018852600a8082526914195c9cda5cdd195b9d60b21b82870152610260880191909152875180890189528381526514d95c9a585b60d21b81870152610280880152875180890189528381526513995d5c985b60d21b818701526102a08801528751808901895283815265111958d95a5d60d21b818701526102c088015287518089018952828152662630b1b8bab2b960c91b818701526102e0880152875180890189528381526529b0b83832b960d11b818701526103008801528751808901895286815264537061726b60d81b81870152610320880152875180890189528281526629b830b73732b960c91b8187015261034088015287518089018952828152665363756d62616760c81b818701526103608801528751808901895283815265546563686e6f60d01b8187015261038088015287518089018952600b81526a43796265726e657469637360a81b818701526103a08801528751808901895283815265536861646f7760d01b818701526103c088015287518089018952600c81526b151c985b9cd8d95b99195b9d60a21b818701526103e08801528751808901895290815269129d59d9d95c9b985d5d60b21b818601526104008701528651808801885285815264526574726f60d81b8186015261042087015286518088018852838152674d6574616c6c696360c01b81860152610440870152865180880188528381526710da195b5a58d85b60c21b81860152610460870152865180880188528381526714dc1958dd1c985b60c21b818601526104808701528651808801885281815266111a59da5d185b60ca1b818601526104a0870152865180880188526009808252682132b939b2b935b2b960b91b828701526104c08801919091528751808901895283815265283437ba37b760d11b818701526104e08801528751808901895282815266416e617263687960c81b81870152610500880152875180890189529283526521b0b93137b760d11b8386015261052087019290925286518088018852818152664379616e69646560c81b8186015261054087015286518088018852928352674879706e6f74696360c01b8385015261056086019290925285518087018752908152682232b1b93cb83a37b960b91b81840152610580850152845180860186529283526411da1bdcdd60da1b838301526105a08401929092528351808501909452908352660a0d0decadcd2f60cb1b908301526105c0810191909152620013c490601490602f6200155c565b50348015620013d257600080fd5b5060405180604001604052806004815260200163131bdbdd60e21b815250604051806040016040528060048152602001631313d3d560e21b815250816000908051906020019062001425929190620015ae565b5080516200143b906001906020840190620015ae565b50506001600a55506200144e3362001454565b620016f0565b600b80546001600160a01b038381166001600160a01b0319831681179093556040519116919082907f8be0079c531659141344cd1fd0a4f28419497f9722a3daafe3b4186f6b6457e090600090a35050565b828054828255906000526020600020908101928215620014f8579160200282015b82811115620014f85782518051620014e7918491602090910190620015ae565b5091602001919060010190620014c7565b506200150692915062001639565b5090565b828054828255906000526020600020908101928215620014f8579160200282015b82811115620014f857825180516200154b918491602090910190620015ae565b50916020019190600101906200152b565b828054828255906000526020600020908101928215620014f8579160200282015b82811115620014f857825180516200159d918491602090910190620015ae565b50916020019190600101906200157d565b828054620015bc90620016b3565b90600052602060002090601f016020900481019282620015e057600085556200162b565b82601f10620015fb57805160ff19168380011785556200162b565b828001600101855582156200162b579182015b828111156200162b5782518255916020019190600101906200160e565b50620015069291506200165a565b808211156200150657600062001650828262001671565b5060010162001639565b5b808211156200150657600081556001016200165b565b5080546200167f90620016b3565b6000825580601f1062001690575050565b601f016020900490600052602060002090810190620016b091906200165a565b50565b600181811c90821680620016c857607f821691505b60208210811415620016ea57634e487b7160e01b600052602260045260246000fd5b50919050565b6136fd80620017006000396000f3fe6080604052600436106101c25760003560e01c806370a08231116100f7578063b19daab211610095578063e2f8451e11610064578063e2f8451e1461050f578063e985e9c51461052f578063f2fde38b14610578578063f72a3d891461059857600080fd5b8063b19daab214610481578063b88d4fde146104af578063c87b56dd146104cf578063cf348425146104ef57600080fd5b80638da5cb5b116100d15780638da5cb5b1461041b5780639043a3741461043957806395d89b411461044c578063a22cb4651461046157600080fd5b806370a08231146103b9578063715018a6146103d95780637a955950146103ee57600080fd5b806323b872dd116101645780634e71d92d1161013e5780634e71d92d146103515780634f6ccce7146103595780636352211e1461037957806369b9321f1461039957600080fd5b806323b872dd146102f15780632f745c591461031157806342842e0e1461033157600080fd5b8063095ea7b3116101a0578063095ea7b31461025657806318160ddd146102785780631ac56992146102975780631ca5ca4e146102c457600080fd5b806301ffc9a7146101c757806306fdde03146101fc578063081812fc1461021e575b600080fd5b3480156101d357600080fd5b506101e76101e2366004612c52565b6105b8565b60405190151581526020015b60405180910390f35b34801561020857600080fd5b506102116105e3565b6040516101f39190613285565b34801561022a57600080fd5b5061023e610239366004612d2d565b610675565b6040516001600160a01b0390911681526020016101f3565b34801561026257600080fd5b50610276610271366004612c28565b61070f565b005b34801561028457600080fd5b506008545b6040519081526020016101f3565b3480156102a357600080fd5b506102896102b2366004612ae6565b60116020526000908152604090205481565b3480156102d057600080fd5b506102896102df366004612ae6565b600f6020526000908152604090205481565b3480156102fd57600080fd5b5061027661030c366004612b34565b610825565b34801561031d57600080fd5b5061028961032c366004612c28565b610856565b34801561033d57600080fd5b5061027661034c366004612b34565b6108ec565b610276610907565b34801561036557600080fd5b50610289610374366004612d2d565b610a78565b34801561038557600080fd5b5061023e610394366004612d2d565b610b0b565b3480156103a557600080fd5b506102116103b4366004612d46565b610b82565b3480156103c557600080fd5b506102896103d4366004612ae6565b610bb4565b3480156103e557600080fd5b50610276610c3b565b3480156103fa57600080fd5b50610289610409366004612d2d565b60106020526000908152604090205481565b34801561042757600080fd5b50600b546001600160a01b031661023e565b610276610447366004612c8c565b610ca1565b34801561045857600080fd5b50610211610ded565b34801561046d57600080fd5b5061027661047c366004612bec565b610dfc565b34801561048d57600080fd5b506104a161049c366004612d2d565b610ec1565b6040516101f3929190613298565b3480156104bb57600080fd5b506102766104ca366004612b70565b610f86565b3480156104db57600080fd5b506102116104ea366004612d2d565b610fbe565b3480156104fb57600080fd5b5061021161050a366004612d2d565b611475565b34801561051b57600080fd5b5061021161052a366004612d46565b6118cb565b34801561053b57600080fd5b506101e761054a366004612b01565b6001600160a01b03918216600090815260056020908152604080832093909416825291909152205460ff1690565b34801561058457600080fd5b50610276610593366004612ae6565b6118fb565b3480156105a457600080fd5b506102116105b3366004612d46565b6119c6565b60006001600160e01b0319821663780e9d6360e01b14806105dd57506105dd826119f1565b92915050565b6060600080546105f290613424565b80601f016020809104026020016040519081016040528092919081815260200182805461061e90613424565b801561066b5780601f106106405761010080835404028352916020019161066b565b820191906000526020600020905b81548152906001019060200180831161064e57829003601f168201915b5050505050905090565b6000818152600260205260408120546001600160a01b03166106f35760405162461bcd60e51b815260206004820152602c60248201527f4552433732313a20617070726f76656420717565727920666f72206e6f6e657860448201526b34b9ba32b73a103a37b5b2b760a11b60648201526084015b60405180910390fd5b506000908152600460205260409020546001600160a01b031690565b600061071a82610b0b565b9050806001600160a01b0316836001600160a01b031614156107885760405162461bcd60e51b815260206004820152602160248201527f4552433732313a20617070726f76616c20746f2063757272656e74206f776e656044820152603960f91b60648201526084016106ea565b336001600160a01b03821614806107a457506107a4813361054a565b6108165760405162461bcd60e51b815260206004820152603860248201527f4552433732313a20617070726f76652063616c6c6572206973206e6f74206f7760448201527f6e6572206e6f7220617070726f76656420666f7220616c6c000000000000000060648201526084016106ea565b6108208383611a41565b505050565b61082f3382611aaf565b61084b5760405162461bcd60e51b81526004016106ea90613314565b610820838383611ba6565b600061086183610bb4565b82106108c35760405162461bcd60e51b815260206004820152602b60248201527f455243373231456e756d657261626c653a206f776e657220696e646578206f7560448201526a74206f6620626f756e647360a81b60648201526084016106ea565b506001600160a01b03919091166000908152600660209081526040808320938352929052205490565b61082083838360405180602001604052806000815250610f86565b6002600a54141561095a5760405162461bcd60e51b815260206004820152601f60248201527f5265656e7472616e637947756172643a207265656e7472616e742063616c6c0060448201526064016106ea565b6002600a55600d54600061099461097083611d51565b6040516020016109809190612f56565b604051602081830303815290604052611e4f565b600c549091506000906109a7908361347a565b90506000600c82815481106109be576109be6134d0565b600091825260208220600460059092020101546040516001600160a01b03909116925082913480156108fc02929091818181858888f19350505050158015610a0a573d6000803e3d6000fd5b5060008481526010602090815260408083208590556001600160a01b038416835260119091528120805460019290610a43908490613396565b925050819055506001600d6000828254610a5d9190613396565b90915550610a6d90503385611e80565b50506001600a555050565b6000610a8360085490565b8210610ae65760405162461bcd60e51b815260206004820152602c60248201527f455243373231456e756d657261626c653a20676c6f62616c20696e646578206f60448201526b7574206f6620626f756e647360a01b60648201526084016106ea565b60088281548110610af957610af96134d0565b90600052602060002001549050919050565b6000818152600260205260408120546001600160a01b0316806105dd5760405162461bcd60e51b815260206004820152602960248201527f4552433732313a206f776e657220717565727920666f72206e6f6e657869737460448201526832b73a103a37b5b2b760b91b60648201526084016106ea565b6060610bad83604051806040016040528060068152602001652ba2a0a827a760d11b81525084611e9e565b9392505050565b60006001600160a01b038216610c1f5760405162461bcd60e51b815260206004820152602a60248201527f4552433732313a2062616c616e636520717565727920666f7220746865207a65604482015269726f206164647265737360b01b60648201526084016106ea565b506001600160a01b031660009081526003602052604090205490565b600b546001600160a01b03163314610c955760405162461bcd60e51b815260206004820181905260248201527f4f776e61626c653a2063616c6c6572206973206e6f7420746865206f776e657260448201526064016106ea565b610c9f6000612163565b565b610cdc6040518060a001604052806060815260200160608152602001606081526020016060815260200160006001600160a01b031681525090565b602080820185905260408083018590526060830184905286835233608084018190526000908152600f9092528120805460019290610d1b908490613396565b9091555050600c80546001810182556000919091528151805183926005027fdf6966c971051c3d54ec59162606531493a51404a002842f56009d7e5cf4a8c70191610d6b91839160200190612824565b506020828101518051610d8492600185019201906128a8565b5060408201518051610da09160028401916020909101906128a8565b5060608201518051610dbc9160038401916020909101906128a8565b5060809190910151600490910180546001600160a01b0319166001600160a01b039092169190911790555050505050565b6060600180546105f290613424565b6001600160a01b038216331415610e555760405162461bcd60e51b815260206004820152601960248201527f4552433732313a20617070726f766520746f2063616c6c65720000000000000060448201526064016106ea565b3360008181526005602090815260408083206001600160a01b03871680855290835292819020805460ff191686151590811790915590519081529192917f17307eab39ab6107e8899845ad3d59bd9653f200f220920489ca2b5937696c31910160405180910390a35050565b600c8181548110610ed157600080fd5b9060005260206000209060050201600091509050806000018054610ef490613424565b80601f0160208091040260200160405190810160405280929190818152602001828054610f2090613424565b8015610f6d5780601f10610f4257610100808354040283529160200191610f6d565b820191906000526020600020905b815481529060010190602001808311610f5057829003601f168201915b505050600490930154919250506001600160a01b031682565b610f903383611aaf565b610fac5760405162461bcd60e51b81526004016106ea90613314565b610fb8848484846121b5565b50505050565b600081815260106020526040812054600c8054606093919083908110610fe657610fe66134d0565b9060005260206000209060050201600101805480602002602001604051908101604052809291908181526020016000905b828210156110c357838290600052602060002001805461103690613424565b80601f016020809104026020016040519081016040528092919081815260200182805461106290613424565b80156110af5780601f10611084576101008083540402835291602001916110af565b820191906000526020600020905b81548152906001019060200180831161109257829003601f168201915b505050505081526020019060010190611017565b5050505090506000600c83815481106110de576110de6134d0565b9060005260206000209060050201600201805480602002602001604051908101604052809291908181526020016000905b828210156111bb57838290600052602060002001805461112e90613424565b80601f016020809104026020016040519081016040528092919081815260200182805461115a90613424565b80156111a75780601f1061117c576101008083540402835291602001916111a7565b820191906000526020600020905b81548152906001019060200180831161118a57829003601f168201915b50505050508152602001906001019061110f565b5050505090506000600c84815481106111d6576111d66134d0565b9060005260206000209060050201600301805480602002602001604051908101604052809291908181526020016000905b828210156112b357838290600052602060002001805461122690613424565b80601f016020809104026020016040519081016040528092919081815260200182805461125290613424565b801561129f5780601f106112745761010080835404028352916020019161129f565b820191906000526020600020905b81548152906001019060200180831161128257829003601f168201915b505050505081526020019060010190611207565b5050505090506112c1612901565b60405180610120016040528060fd815260200161356360fd913981526112e78785610b82565b81600160200201819052506040518060600160405280602881526020016136a060289139604082015261131a87846119c6565b60608083019190915260408051918201905260288082526135136020830139608082015261134887836118cb565b60a08201526040805160608101909152602880825261353b602083013960c082015260408051808201909152600d81526c1e17ba32bc3a1f1e17b9bb339f60991b6020820152816007602090810291909101919091528151828201516040808501516060860151608087015160a088015160c089015194516000986113d09897969101612e04565b60408051808303601f190181529082905260e08401519092506113f891839190602001612dd5565b604051602081830303815290604052905060006114456114178a611d51565b611420846121e8565b60405160200161143192919061306d565b6040516020818303038152906040526121e8565b9050806040516020016114589190613203565b60408051601f198184030181529190529998505050505050505050565b600081815260106020526040812054600c805460609391908390811061149d5761149d6134d0565b9060005260206000209060050201600101805480602002602001604051908101604052809291908181526020016000905b8282101561157a5783829060005260206000200180546114ed90613424565b80601f016020809104026020016040519081016040528092919081815260200182805461151990613424565b80156115665780601f1061153b57610100808354040283529160200191611566565b820191906000526020600020905b81548152906001019060200180831161154957829003601f168201915b5050505050815260200190600101906114ce565b5050505090506000600c8381548110611595576115956134d0565b9060005260206000209060050201600201805480602002602001604051908101604052809291908181526020016000905b828210156116725783829060005260206000200180546115e590613424565b80601f016020809104026020016040519081016040528092919081815260200182805461161190613424565b801561165e5780601f106116335761010080835404028352916020019161165e565b820191906000526020600020905b81548152906001019060200180831161164157829003601f168201915b5050505050815260200190600101906115c6565b5050505090506000600c848154811061168d5761168d6134d0565b9060005260206000209060050201600301805480602002602001604051908101604052809291908181526020016000905b8282101561176a5783829060005260206000200180546116dd90613424565b80601f016020809104026020016040519081016040528092919081815260200182805461170990613424565b80156117565780601f1061172b57610100808354040283529160200191611756565b820191906000526020600020905b81548152906001019060200180831161173957829003601f168201915b5050505050815260200190600101906116be565b505050509050611778612901565b60405180610120016040528060fd815260200161356360fd9139815261179e8785610b82565b81600160200201819052506040518060600160405280602881526020016136a06028913960408201526117d187846119c6565b6060808301919091526040805191820190526028808252613513602083013960808201526117ff87836118cb565b60a08201526040805160608101909152602880825261353b602083013960c082015260408051808201909152600d81526c1e17ba32bc3a1f1e17b9bb339f60991b6020820152816007602090810291909101919091528151828201516040808501516060860151608087015160a088015160c089015194516000986118879897969101612e04565b60408051808303601f190181529082905260e08401519092506118af91839190602001612dd5565b60408051601f1981840301815291905298975050505050505050565b6060610bad836040518060400160405280600b81526020016a4143434553534f5249455360a81b81525084611e9e565b600b546001600160a01b031633146119555760405162461bcd60e51b815260206004820181905260248201527f4f776e61626c653a2063616c6c6572206973206e6f7420746865206f776e657260448201526064016106ea565b6001600160a01b0381166119ba5760405162461bcd60e51b815260206004820152602660248201527f4f776e61626c653a206e6577206f776e657220697320746865207a65726f206160448201526564647265737360d01b60648201526084016106ea565b6119c381612163565b50565b6060610bad836040518060400160405280600681526020016541545449524560d01b81525084611e9e565b60006001600160e01b031982166380ac58cd60e01b1480611a2257506001600160e01b03198216635b5e139f60e01b145b806105dd57506301ffc9a760e01b6001600160e01b03198316146105dd565b600081815260046020526040902080546001600160a01b0319166001600160a01b0384169081179091558190611a7682610b0b565b6001600160a01b03167f8c5be1e5ebec7d5bd14f71427d1e84f3dd0314c0f7b2291e5b200ac8c7c3b92560405160405180910390a45050565b6000818152600260205260408120546001600160a01b0316611b285760405162461bcd60e51b815260206004820152602c60248201527f4552433732313a206f70657261746f7220717565727920666f72206e6f6e657860448201526b34b9ba32b73a103a37b5b2b760a11b60648201526084016106ea565b6000611b3383610b0b565b9050806001600160a01b0316846001600160a01b03161480611b6e5750836001600160a01b0316611b6384610675565b6001600160a01b0316145b80611b9e57506001600160a01b0380821660009081526005602090815260408083209388168352929052205460ff165b949350505050565b826001600160a01b0316611bb982610b0b565b6001600160a01b031614611c215760405162461bcd60e51b815260206004820152602960248201527f4552433732313a207472616e73666572206f6620746f6b656e2074686174206960448201526839903737ba1037bbb760b91b60648201526084016106ea565b6001600160a01b038216611c835760405162461bcd60e51b8152602060048201526024808201527f4552433732313a207472616e7366657220746f20746865207a65726f206164646044820152637265737360e01b60648201526084016106ea565b611c8e83838361234e565b611c99600082611a41565b6001600160a01b0383166000908152600360205260408120805460019290611cc29084906133e1565b90915550506001600160a01b0382166000908152600360205260408120805460019290611cf0908490613396565b909155505060008181526002602052604080822080546001600160a01b0319166001600160a01b0386811691821790925591518493918716917fddf252ad1be2c89b69c2b068fc378daa952ba7f163c4a11628f55a4df523b3ef91a4505050565b606081611d755750506040805180820190915260018152600360fc1b602082015290565b8160005b8115611d9f5780611d898161345f565b9150611d989050600a836133ae565b9150611d79565b60008167ffffffffffffffff811115611dba57611dba6134e6565b6040519080825280601f01601f191660200182016040528015611de4576020820181803683370190505b5090505b8415611b9e57611df96001836133e1565b9150611e06600a8661347a565b611e11906030613396565b60f81b818381518110611e2657611e266134d0565b60200101906001600160f81b031916908160001a905350611e48600a866133ae565b9450611de8565b600081604051602001611e629190612db9565b60408051601f19818403018152919052805160209091012092915050565b611e9a828260405180602001604052806000815250612406565b5050565b60606000611ec084611eaf87611d51565b604051602001610980929190612dd5565b9050600083845183611ed2919061347a565b81518110611ee257611ee26134d0565b602002602001015190506000601583611efb919061347a565b9050600e811115611f545760128054839190611f17908661347a565b81548110611f2757611f276134d0565b90600052602060002001604051602001611f42929190612e96565b60405160208183030381529060405291505b6013811061215957611f64612929565b60138054611f72908661347a565b81548110611f8257611f826134d0565b906000526020600020018054611f9790613424565b80601f0160208091040260200160405190810160405280929190818152602001828054611fc390613424565b80156120105780601f10611fe557610100808354040283529160200191612010565b820191906000526020600020905b815481529060010190602001808311611ff357829003601f168201915b505050505081600060028110612028576120286134d0565b60200201526014805461203b908661347a565b8154811061204b5761204b6134d0565b90600052602060002001805461206090613424565b80601f016020809104026020016040519081016040528092919081815260200182805461208c90613424565b80156120d95780601f106120ae576101008083540402835291602001916120d9565b820191906000526020600020905b8154815290600101906020018083116120bc57829003601f168201915b5050505050816001600281106120f1576120f16134d0565b6020020152601382141561212d5780516020808301516040516121179392879101612f81565b6040516020818303038152906040529250612157565b80516020808301516040516121459392879101612fef565b60405160208183030381529060405292505b505b5095945050505050565b600b80546001600160a01b038381166001600160a01b0319831681179093556040519116919082907f8be0079c531659141344cd1fd0a4f28419497f9722a3daafe3b4186f6b6457e090600090a35050565b6121c0848484611ba6565b6121cc84848484612439565b610fb85760405162461bcd60e51b81526004016106ea906132c2565b805160609080612208575050604080516020810190915260008152919050565b60006003612217836002613396565b61222191906133ae565b61222c9060046133c2565b9050600061223b826020613396565b67ffffffffffffffff811115612253576122536134e6565b6040519080825280601f01601f19166020018201604052801561227d576020820181803683370190505b5090506000604051806060016040528060408152602001613660604091399050600181016020830160005b86811015612309576003818a01810151603f601282901c8116860151600c83901c8216870151600684901c831688015192909316870151600891821b60ff94851601821b92841692909201901b91160160e01b8352600490920191016122a8565b506003860660018114612323576002811461233457612340565b613d3d60f01b600119830152612340565b603d60f81b6000198301525b505050918152949350505050565b6001600160a01b0383166123a9576123a481600880546000838152600960205260408120829055600182018355919091527ff3f7a9fe364faab93b216da50a3214154f22a0a2b415b23a84c8169e8b636ee30155565b6123cc565b816001600160a01b0316836001600160a01b0316146123cc576123cc8382612546565b6001600160a01b0382166123e357610820816125e3565b826001600160a01b0316826001600160a01b031614610820576108208282612692565b61241083836126d6565b61241d6000848484612439565b6108205760405162461bcd60e51b81526004016106ea906132c2565b60006001600160a01b0384163b1561253b57604051630a85bd0160e11b81526001600160a01b0385169063150b7a029061247d903390899088908890600401613248565b602060405180830381600087803b15801561249757600080fd5b505af19250505080156124c7575060408051601f3d908101601f191682019092526124c491810190612c6f565b60015b612521573d8080156124f5576040519150601f19603f3d011682016040523d82523d6000602084013e6124fa565b606091505b5080516125195760405162461bcd60e51b81526004016106ea906132c2565b805181602001fd5b6001600160e01b031916630a85bd0160e11b149050611b9e565b506001949350505050565b6000600161255384610bb4565b61255d91906133e1565b6000838152600760205260409020549091508082146125b0576001600160a01b03841660009081526006602090815260408083208584528252808320548484528184208190558352600790915290208190555b5060009182526007602090815260408084208490556001600160a01b039094168352600681528383209183525290812055565b6008546000906125f5906001906133e1565b6000838152600960205260408120546008805493945090928490811061261d5761261d6134d0565b90600052602060002001549050806008838154811061263e5761263e6134d0565b6000918252602080832090910192909255828152600990915260408082208490558582528120556008805480612676576126766134ba565b6001900381819060005260206000200160009055905550505050565b600061269d83610bb4565b6001600160a01b039093166000908152600660209081526040808320868452825280832085905593825260079052919091209190915550565b6001600160a01b03821661272c5760405162461bcd60e51b815260206004820181905260248201527f4552433732313a206d696e7420746f20746865207a65726f206164647265737360448201526064016106ea565b6000818152600260205260409020546001600160a01b0316156127915760405162461bcd60e51b815260206004820152601c60248201527f4552433732313a20746f6b656e20616c7265616479206d696e7465640000000060448201526064016106ea565b61279d6000838361234e565b6001600160a01b03821660009081526003602052604081208054600192906127c6908490613396565b909155505060008181526002602052604080822080546001600160a01b0319166001600160a01b03861690811790915590518392907fddf252ad1be2c89b69c2b068fc378daa952ba7f163c4a11628f55a4df523b3ef908290a45050565b82805461283090613424565b90600052602060002090601f0160209004810192826128525760008555612898565b82601f1061286b57805160ff1916838001178555612898565b82800160010185558215612898579182015b8281111561289857825182559160200191906001019061287d565b506128a4929150612942565b5090565b8280548282559060005260206000209081019282156128f5579160200282015b828111156128f557825180516128e5918491602090910190612824565b50916020019190600101906128c8565b506128a4929150612957565b6040518061010001604052806008905b60608152602001906001900390816129115790505090565b6040805180820190915260608152600160208201612911565b5b808211156128a45760008155600101612943565b808211156128a457600061296b8282612974565b50600101612957565b50805461298090613424565b6000825580601f10612990575050565b601f0160209004906000526020600020908101906119c39190612942565b600067ffffffffffffffff8311156129c8576129c86134e6565b6129db601f8401601f1916602001613365565b90508281528383830111156129ef57600080fd5b828260208301376000602084830101529392505050565b80356001600160a01b0381168114612a1d57600080fd5b919050565b600082601f830112612a3357600080fd5b8135602067ffffffffffffffff80831115612a5057612a506134e6565b8260051b612a5f838201613365565b8481528381019087850183890186018a1015612a7a57600080fd5b60009350835b87811015612ab757813586811115612a96578586fd5b612aa48c89838e0101612ac6565b8552509286019290860190600101612a80565b50909998505050505050505050565b600082601f830112612ad757600080fd5b610bad838335602085016129ae565b600060208284031215612af857600080fd5b610bad82612a06565b60008060408385031215612b1457600080fd5b612b1d83612a06565b9150612b2b60208401612a06565b90509250929050565b600080600060608486031215612b4957600080fd5b612b5284612a06565b9250612b6060208501612a06565b9150604084013590509250925092565b60008060008060808587031215612b8657600080fd5b612b8f85612a06565b9350612b9d60208601612a06565b925060408501359150606085013567ffffffffffffffff811115612bc057600080fd5b8501601f81018713612bd157600080fd5b612be0878235602084016129ae565b91505092959194509250565b60008060408385031215612bff57600080fd5b612c0883612a06565b915060208301358015158114612c1d57600080fd5b809150509250929050565b60008060408385031215612c3b57600080fd5b612c4483612a06565b946020939093013593505050565b600060208284031215612c6457600080fd5b8135610bad816134fc565b600060208284031215612c8157600080fd5b8151610bad816134fc565b60008060008060808587031215612ca257600080fd5b843567ffffffffffffffff80821115612cba57600080fd5b612cc688838901612ac6565b95506020870135915080821115612cdc57600080fd5b612ce888838901612a22565b94506040870135915080821115612cfe57600080fd5b612d0a88838901612a22565b93506060870135915080821115612d2057600080fd5b50612be087828801612a22565b600060208284031215612d3f57600080fd5b5035919050565b60008060408385031215612d5957600080fd5b82359150602083013567ffffffffffffffff811115612d7757600080fd5b612d8385828601612a22565b9150509250929050565b60008151808452612da58160208601602086016133f8565b601f01601f19169290920160200192915050565b60008251612dcb8184602087016133f8565b9190910192915050565b60008351612de78184602088016133f8565b835190830190612dfb8183602088016133f8565b01949350505050565b600088516020612e178285838e016133f8565b895191840191612e2a8184848e016133f8565b8951920191612e3c8184848d016133f8565b8851920191612e4e8184848c016133f8565b8751920191612e608184848b016133f8565b8651920191612e728184848a016133f8565b8551920191612e8481848489016133f8565b919091019a9950505050505050505050565b600083516020612ea982858389016133f8565b600160fd1b918401918252845460019060009080831c81841680612ece57607f821691505b858210811415612eec57634e487b7160e01b84526022600452602484fd5b808015612f005760018114612f1557612f46565b60ff1984168887015282880186019450612f46565b60008b81526020902060005b84811015612f3c5781548a8201890152908701908801612f21565b5050858389010194505b50929a9950505050505050505050565b6211d41560ea1b815260008251612f748160038501602087016133f8565b9190910160030192915050565b601160f91b81528351600090612f9e8160018501602089016133f8565b600160fd1b6001918401918201528451612fbf8160028401602089016133f8565b61011160f51b600292909101918201528351612fe28160048401602088016133f8565b0160040195945050505050565b601160f91b8152835160009061300c8160018501602089016133f8565b600160fd1b600191840191820152845161302d8160028401602089016133f8565b61011160f51b6002929091019182015283516130508160048401602088016133f8565b62202b3160e81b6004929091019182015260070195945050505050565b6e7b226e616d65223a2022426167202360881b8152825160009061309881600f8501602088016133f8565b80830190507f222c20226465736372697074696f6e223a20224c6f6f742069732072616e646f600f8201527f6d697a656420616476656e747572657220676561722067656e65726174656420602f8201527f616e642073746f726564206f6e20636861696e2e2053746174732c20696d6167604f8201527f65732c20616e64206f746865722066756e6374696f6e616c6974792061726520606f8201527f696e74656e74696f6e616c6c79206f6d697474656420666f72206f7468657273608f8201527f20746f20696e746572707265742e204665656c206672656520746f207573652060af8201527f4c6f6f7420696e20616e792077617920796f752077616e742e222c2022696d6160cf8201527f6765223a2022646174613a696d6167652f7376672b786d6c3b6261736536342c60ef82015261010f84516131e281838501602089016133f8565b6131f8828285010161227d60f01b815260020190565b979650505050505050565b7f646174613a6170706c69636174696f6e2f6a736f6e3b6261736536342c00000081526000825161323b81601d8501602087016133f8565b91909101601d0192915050565b6001600160a01b038581168252841660208201526040810183905260806060820181905260009061327b90830184612d8d565b9695505050505050565b602081526000610bad6020830184612d8d565b6040815260006132ab6040830185612d8d565b905060018060a01b03831660208301529392505050565b60208082526032908201527f4552433732313a207472616e7366657220746f206e6f6e20455243373231526560408201527131b2b4bb32b91034b6b83632b6b2b73a32b960711b606082015260800190565b60208082526031908201527f4552433732313a207472616e736665722063616c6c6572206973206e6f74206f6040820152701ddb995c881b9bdc88185c1c1c9bdd9959607a1b606082015260800190565b604051601f8201601f1916810167ffffffffffffffff8111828210171561338e5761338e6134e6565b604052919050565b600082198211156133a9576133a961348e565b500190565b6000826133bd576133bd6134a4565b500490565b60008160001904831182151516156133dc576133dc61348e565b500290565b6000828210156133f3576133f361348e565b500390565b60005b838110156134135781810151838201526020016133fb565b83811115610fb85750506000910152565b600181811c9082168061343857607f821691505b6020821081141561345957634e487b7160e01b600052602260045260246000fd5b50919050565b60006000198214156134735761347361348e565b5060010190565b600082613489576134896134a4565b500690565b634e487b7160e01b600052601160045260246000fd5b634e487b7160e01b600052601260045260246000fd5b634e487b7160e01b600052603160045260246000fd5b634e487b7160e01b600052603260045260246000fd5b634e487b7160e01b600052604160045260246000fd5b6001600160e01b0319811681146119c357600080fdfe3c2f746578743e3c7465787420783d2231302220793d2236302220636c6173733d2262617365223e3c2f746578743e3c7465787420783d2231302220793d2238302220636c6173733d2262617365223e3c73766720786d6c6e733d22687474703a2f2f7777772e77332e6f72672f323030302f73766722207072657365727665417370656374526174696f3d22784d696e594d696e206d656574222076696577426f783d223020302033353020333530223e3c7374796c653e2e62617365207b2066696c6c3a2077686974653b20666f6e742d66616d696c793a2073657269663b20666f6e742d73697a653a20313470783b207d3c2f7374796c653e3c726563742077696474683d223130302522206865696768743d2231303025222066696c6c3d22626c61636b22202f3e3c7465787420783d2231302220793d2232302220636c6173733d2262617365223e4142434445464748494a4b4c4d4e4f505152535455565758595a6162636465666768696a6b6c6d6e6f707172737475767778797a303132333435363738392b2f3c2f746578743e3c7465787420783d2231302220793d2234302220636c6173733d2262617365223ea2646970667358221220a7e77e9e0553c82f4ddec2dd152fc9dc696627827b161c9a45b37f3abf5cc8cf64736f6c63430008070033","bytecodeSha1":"4d5083f13b72c060e3d683d3402659cb7c660f01","type":"contract","abi":[{"inputs":[],"stateMutability":"nonpayable","type":"constructor","name":"constructor"},{"anonymous":false,"inputs":[{"indexed":true,"internalType":"address","name":"owner","type":"address"},{"indexed":true,"internalType":"address","name":"approved","type":"address"},{"indexed":true,"internalType":"uint256","name":"tokenId","type":"uint256"}],"name":"Approval","type":"event"},{"anonymous":false,"inputs":[{"indexed":true,"internalType":"address","name":"owner","type":"address"},{"indexed":true,"internalType":"address","name":"operator","type":"address"},{"indexed":false,"internalType":"bool","name":"approved","type":"bool"}],"name":"ApprovalForAll","type":"event"},{"anonymous":false,"inputs":[{"indexed":true,"internalType":"address","name":"previousOwner","type":"address"},{"indexed":true,"internalType":"address","name":"newOwner","type":"address"}],"name":"OwnershipTransferred","type":"event"},{"anonymous":false,"inputs":[{"indexed":true,"internalType":"address","name":"from","type":"address"},{"indexed":true,"internalType":"address","name":"to","type":"address"},{"indexed":true,"internalType":"uint256","name":"tokenId","type":"uint256"}],"name":"Transfer","type":"event"},{"inputs":[{"internalType":"string","name":"_theme","type":"string"},{"internalType":"string[]","name":"_weapons","type":"string[]"},{"internalType":"string[]","name":"_attire","type":"string[]"},{"internalType":"string[]","name":"_accessories","type":"string[]"}],"name":"addItemSet","outputs":[],"stateMutability":"payable","type":"function"},{"inputs":[{"internalType":"address","name":"to","type":"address"},{"internalType":"uint256","name":"tokenId","type":"uint256"}],"name":"approve","outputs":[],"stateMutability":"nonpayable","type":"function"},{"inputs":[{"internalType":"address","name":"owner","type":"address"}],"name":"balanceOf","outputs":[{"internalType":"uint256","name":"","type":"uint256"}],"stateMutability":"view","type":"function"},{"inputs":[],"name":"claim","outputs":[],"stateMutability":"payable","type":"function"},{"inputs":[{"internalType":"uint256","name":"tokenId","type":"uint256"},{"internalType":"string[]","name":"accessories","type":"string[]"}],"name":"getAccessories","outputs":[{"internalType":"string","name":"","type":"string"}],"stateMutability":"view","type":"function"},{"inputs":[{"internalType":"uint256","name":"tokenId","type":"uint256"}],"name":"getApproved","outputs":[{"internalType":"address","name":"","type":"address"}],"stateMutability":"view","type":"function"},{"inputs":[{"internalType":"uint256","name":"tokenId","type":"uint256"},{"internalType":"string[]","name":"attire","type":"string[]"}],"name":"getAttire","outputs":[{"internalType":"string","name":"","type":"string"}],"stateMutability":"view","type":"function"},{"inputs":[{"internalType":"uint256","name":"tokenId","type":"uint256"},{"internalType":"string[]","name":"weapons","type":"string[]"}],"name":"getWeapon","outputs":[{"internalType":"string","name":"","type":"string"}],"stateMutability":"view","type":"function"},{"inputs":[{"internalType":"address","name":"owner","type":"address"},{"internalType":"address","name":"operator","type":"address"}],"name":"isApprovedForAll","outputs":[{"internalType":"bool","name":"","type":"bool"}],"stateMutability":"view","type":"function"},{"inputs":[{"internalType":"uint256","name":"","type":"uint256"}],"name":"itemSets","outputs":[{"internalType":"string","name":"theme","type":"string"},{"internalType":"address payable","name":"creator","type":"address"}],"stateMutability":"view","type":"function"},{"inputs":[],"name":"name","outputs":[{"internalType":"string","name":"","type":"string"}],"stateMutability":"view","type":"function"},{"inputs":[{"internalType":"address","name":"","type":"address"}],"name":"numItemsSets","outputs":[{"internalType":"uint256","name":"","type":"uint256"}],"stateMutability":"view","type":"function"},{"inputs":[],"name":"owner","outputs":[{"internalType":"address","name":"","type":"address"}],"stateMutability":"view","type":"function"},{"inputs":[{"internalType":"uint256","name":"tokenId","type":"uint256"}],"name":"ownerOf","outputs":[{"internalType":"address","name":"","type":"address"}],"stateMutability":"view","type":"function"},{"inputs":[],"name":"renounceOwnership","outputs":[],"stateMutability":"nonpayable","type":"function"},{"inputs":[{"internalType":"address","name":"from","type":"address"},{"internalType":"address","name":"to","type":"address"},{"internalType":"uint256","name":"tokenId","type":"uint256"}],"name":"safeTransferFrom","outputs":[],"stateMutability":"nonpayable","type":"function"},{"inputs":[{"internalType":"address","name":"from","type":"address"},{"internalType":"address","name":"to","type":"address"},{"internalType":"uint256","name":"tokenId","type":"uint256"},{"internalType":"bytes","name":"_data","type":"bytes"}],"name":"safeTransferFrom","outputs":[],"stateMutability":"nonpayable","type":"function"},{"inputs":[{"internalType":"address","name":"operator","type":"address"},{"internalType":"bool","name":"approved","type":"bool"}],"name":"setApprovalForAll","outputs":[],"stateMutability":"nonpayable","type":"function"},{"inputs":[{"internalType":"bytes4","name":"interfaceId","type":"bytes4"}],"name":"supportsInterface","outputs":[{"internalType":"bool","name":"","type":"bool"}],"stateMutability":"view","type":"function"},{"inputs":[],"name":"symbol","outputs":[{"internalType":"string","name":"","type":"string"}],"stateMutability":"view","type":"function"},{"inputs":[{"internalType":"uint256","name":"index","type":"uint256"}],"name":"tokenByIndex","outputs":[{"internalType":"uint256","name":"","type":"uint256"}],"stateMutability":"view","type":"function"},{"inputs":[{"internalType":"uint256","name":"","type":"uint256"}],"name":"tokenIdToRand","outputs":[{"internalType":"uint256","name":"","type":"uint256"}],"stateMutability":"view","type":"function"},{"inputs":[{"internalType":"uint256","name":"tokenId","type":"uint256"}],"name":"tokenImage","outputs":[{"internalType":"string","name":"","type":"string"}],"stateMutability":"view","type":"function"},{"inputs":[{"internalType":"address","name":"owner","type":"address"},{"internalType":"uint256","name":"index","type":"uint256"}],"name":"tokenOfOwnerByIndex","outputs":[{"internalType":"uint256","name":"","type":"uint256"}],"stateMutability":"view","type":"function"},{"inputs":[{"internalType":"uint256","name":"tokenId","type":"uint256"}],"name":"tokenURI","outputs":[{"internalType":"string","name":"","type":"string"}],"stateMutability":"view","type":"function"},{"inputs":[],"name":"totalSupply","outputs":[{"internalType":"uint256","name":"","type":"uint256"}],"stateMutability":"view","type":"function"},{"inputs":[{"internalType":"address","name":"from","type":"address"},{"internalType":"address","name":"to","type":"address"},{"internalType":"uint256","name":"tokenId","type":"uint256"}],"name":"transferFrom","outputs":[],"stateMutability":"nonpayable","type":"function"},{"inputs":[{"internalType":"address","name":"newOwner","type":"address"}],"name":"transferOwnership","outputs":[],"stateMutability":"nonpayable","type":"function"},{"inputs":[{"internalType":"address","name":"","type":"address"}],"name":"userToMinted","outputs":[{"internalType":"uint256","name":"","type":"uint256"}],"stateMutability":"view","type":"function"}],"compiler":{"version":"0.8.7+commit.e28d00a7","evm_version":"istanbul","optimizer":{"enabled":true,"runs":200}},"contractName":"Master","language":"Solidity","natspec":{"methods":{"approve(address,uint256)":{"details":"See {IERC721-approve}."},"balanceOf(address)":{"details":"See {IERC721-balanceOf}."},"getApproved(uint256)":{"details":"See {IERC721-getApproved}."},"isApprovedForAll(address,address)":{"details":"See {IERC721-isApprovedForAll}."},"name()":{"details":"See {IERC721Metadata-name}."},"owner()":{"details":"Returns the address of the current owner."},"ownerOf(uint256)":{"details":"See {IERC721-ownerOf}."},"renounceOwnership()":{"details":"Leaves the contract without owner. It will not be possible to call `onlyOwner` functions anymore. Can only be called by the current owner. NOTE: Renouncing ownership will leave the contract without an owner, thereby removing any functionality that is only available to the owner."},"safeTransferFrom(address,address,uint256)":{"details":"See {IERC721-safeTransferFrom}."},"safeTransferFrom(address,address,uint256,bytes)":{"details":"See {IERC721-safeTransferFrom}."},"setApprovalForAll(address,bool)":{"details":"See {IERC721-setApprovalForAll}."},"supportsInterface(bytes4)":{"details":"See {IERC165-supportsInterface}."},"symbol()":{"details":"See {IERC721Metadata-symbol}."},"tokenByIndex(uint256)":{"details":"See {IERC721Enumerable-tokenByIndex}."},"tokenOfOwnerByIndex(address,uint256)":{"details":"See {IERC721Enumerable-tokenOfOwnerByIndex}."},"tokenURI(uint256)":{"details":"See {IERC721Metadata-tokenURI}."},"totalSupply()":{"details":"See {IERC721Enumerable-totalSupply}."},"transferFrom(address,address,uint256)":{"details":"See {IERC721-transferFrom}."},"transferOwnership(address)":{"details":"Transfers ownership of the contract to a new account (`newOwner`). Can only be called by the current owner."}},"kind":"dev","version":1},"opcodes":"PUSH1 0x80 PUSH1 0x40 MSTORE PUSH1 0x4 CALLDATASIZE LT PUSH2 0x1C2 JUMPI PUSH1 0x0 CALLDATALOAD PUSH1 0xE0 SHR DUP1 PUSH4 0x70A08231 GT PUSH2 0xF7 JUMPI DUP1 PUSH4 0xB19DAAB2 GT PUSH2 0x95 JUMPI DUP1 PUSH4 0xE2F8451E GT PUSH2 0x64 JUMPI DUP1 PUSH4 0xE2F8451E EQ PUSH2 0x50F JUMPI DUP1 PUSH4 0xE985E9C5 EQ PUSH2 0x52F JUMPI DUP1 PUSH4 0xF2FDE38B EQ PUSH2 0x578 JUMPI DUP1 PUSH4 0xF72A3D89 EQ PUSH2 0x598 JUMPI PUSH1 0x0 DUP1 REVERT JUMPDEST DUP1 PUSH4 0xB19DAAB2 EQ PUSH2 0x481 JUMPI DUP1 PUSH4 0xB88D4FDE EQ PUSH2 0x4AF JUMPI DUP1 PUSH4 0xC87B56DD EQ PUSH2 0x4CF JUMPI DUP1 PUSH4 0xCF348425 EQ PUSH2 0x4EF JUMPI PUSH1 0x0 DUP1 REVERT JUMPDEST DUP1 PUSH4 0x8DA5CB5B GT PUSH2 0xD1 JUMPI DUP1 PUSH4 0x8DA5CB5B EQ PUSH2 0x41B JUMPI DUP1 PUSH4 0x9043A374 EQ PUSH2 0x439 JUMPI DUP1 PUSH4 0x95D89B41 EQ PUSH2 0x44C JUMPI DUP1 PUSH4 0xA22CB465 EQ PUSH2 0x461 JUMPI PUSH1 0x0 DUP1 REVERT JUMPDEST DUP1 PUSH4 0x70A08231 EQ PUSH2 0x3B9 JUMPI DUP1 PUSH4 0x715018A6 EQ PUSH2 0x3D9 JUMPI DUP1 PUSH4 0x7A955950 EQ PUSH2 0x3EE JUMPI PUSH1 0x0 DUP1 REVERT JUMPDEST DUP1 PUSH4 0x23B872DD GT PUSH2 0x164 JUMPI DUP1 PUSH4 0x4E71D92D GT PUSH2 0x13E JUMPI DUP1 PUSH4 0x4E71D92D EQ PUSH2 0x351 JUMPI DUP1 PUSH4 0x4F6CCCE7 EQ PUSH2 0x359 JUMPI DUP1 PUSH4 0x6352211E EQ PUSH2 0x379 JUMPI DUP1 PUSH4 0x69B9321F EQ PUSH2 0x399 JUMPI PUSH1 0x0 DUP1 REVERT JUMPDEST DUP1 PUSH4 0x23B872DD EQ PUSH2 0x2F1 JUMPI DUP1 PUSH4 0x2F745C59 EQ PUSH2 0x311 JUMPI DUP1 PUSH4 0x42842E0E EQ PUSH2 0x331 JUMPI PUSH1 0x0 DUP1 REVERT JUMPDEST DUP1 PUSH4 0x95EA7B3 GT PUSH2 0x1A0 JUMPI DUP1 PUSH4 0x95EA7B3 EQ PUSH2 0x256 JUMPI DUP1 PUSH4 0x18160DDD EQ PUSH2 0x278 JUMPI DUP1 PUSH4 0x1AC56992 EQ PUSH2 0x297 JUMPI DUP1 PUSH4 0x1CA5CA4E EQ PUSH2 0x2C4 JUMPI PUSH1 0x0 DUP1 REVERT JUMPDEST DUP1 PUSH4 0x1FFC9A7 EQ PUSH2 0x1C7 JUMPI DUP1 PUSH4 0x6FDDE03 EQ PUSH2 0x1FC JUMPI DUP1 PUSH4 0x81812FC EQ PUSH2 0x21E JUMPI JUMPDEST PUSH1 0x0 DUP1 REVERT JUMPDEST CALLVALUE DUP1 ISZERO PUSH2 0x1D3 JUMPI PUSH1 0x0 DUP1 REVERT JUMPDEST POP PUSH2 0x1E7 PUSH2 0x1E2 CALLDATASIZE PUSH1 0x4 PUSH2 0x2C52 JUMP JUMPDEST PUSH2 0x5B8 JUMP JUMPDEST PUSH1 0x40 MLOAD SWAP1 ISZERO ISZERO DUP2 MSTORE PUSH1 0x20 ADD JUMPDEST PUSH1 0x40 MLOAD DUP1 SWAP2 SUB SWAP1 RETURN JUMPDEST CALLVALUE DUP1 ISZERO PUSH2 0x208 JUMPI PUSH1 0x0 DUP1 REVERT JUMPDEST POP PUSH2 0x211 PUSH2 0x5E3 JUMP JUMPDEST PUSH1 0x40 MLOAD PUSH2 0x1F3 SWAP2 SWAP1 PUSH2 0x3285 JUMP JUMPDEST CALLVALUE DUP1 ISZERO PUSH2 0x22A JUMPI PUSH1 0x0 DUP1 REVERT JUMPDEST POP PUSH2 0x23E PUSH2 0x239 CALLDATASIZE PUSH1 0x4 PUSH2 0x2D2D JUMP JUMPDEST PUSH2 0x675 JUMP JUMPDEST PUSH1 0x40 MLOAD PUSH1 0x1 PUSH1 0x1 PUSH1 0xA0 SHL SUB SWAP1 SWAP2 AND DUP2 MSTORE PUSH1 0x20 ADD PUSH2 0x1F3 JUMP JUMPDEST CALLVALUE DUP1 ISZERO PUSH2 0x262 JUMPI PUSH1 0x0 DUP1 REVERT JUMPDEST POP PUSH2 0x276 PUSH2 0x271 CALLDATASIZE PUSH1 0x4 PUSH2 0x2C28 JUMP JUMPDEST PUSH2 0x70F JUMP JUMPDEST STOP JUMPDEST CALLVALUE DUP1 ISZERO PUSH2 0x284 JUMPI PUSH1 0x0 DUP1 REVERT JUMPDEST POP PUSH1 0x8 SLOAD JUMPDEST PUSH1 0x40 MLOAD SWAP1 DUP2 MSTORE PUSH1 0x20 ADD PUSH2 0x1F3 JUMP JUMPDEST CALLVALUE DUP1 ISZERO PUSH2 0x2A3 JUMPI PUSH1 0x0 DUP1 REVERT JUMPDEST POP PUSH2 0x289 PUSH2 0x2B2 CALLDATASIZE PUSH1 0x4 PUSH2 0x2AE6 JUMP JUMPDEST PUSH1 0x11 PUSH1 0x20 MSTORE PUSH1 0x0 SWAP1 DUP2 MSTORE PUSH1 0x40 SWAP1 KECCAK256 SLOAD DUP2 JUMP JUMPDEST CALLVALUE DUP1 ISZERO PUSH2 0x2D0 JUMPI PUSH1 0x0 DUP1 REVERT JUMPDEST POP PUSH2 0x289 PUSH2 0x2DF CALLDATASIZE PUSH1 0x4 PUSH2 0x2AE6 JUMP JUMPDEST PUSH1 0xF PUSH1 0x20 MSTORE PUSH1 0x0 SWAP1 DUP2 MSTORE PUSH1 0x40 SWAP1 KECCAK256 SLOAD DUP2 JUMP JUMPDEST CALLVALUE DUP1 ISZERO PUSH2 0x2FD JUMPI PUSH1 0x0 DUP1 REVERT JUMPDEST POP PUSH2 0x276 PUSH2 0x30C CALLDATASIZE PUSH1 0x4 PUSH2 0x2B34 JUMP JUMPDEST PUSH2 0x825 JUMP JUMPDEST CALLVALUE DUP1 ISZERO PUSH2 0x31D JUMPI PUSH1 0x0 DUP1 REVERT JUMPDEST POP PUSH2 0x289 PUSH2 0x32C CALLDATASIZE PUSH1 0x4 PUSH2 0x2C28 JUMP JUMPDEST PUSH2 0x856 JUMP JUMPDEST CALLVALUE DUP1 ISZERO PUSH2 0x33D JUMPI PUSH1 0x0 DUP1 REVERT JUMPDEST POP PUSH2 0x276 PUSH2 0x34C CALLDATASIZE PUSH1 0x4 PUSH2 0x2B34 JUMP JUMPDEST PUSH2 0x8EC JUMP JUMPDEST PUSH2 0x276 PUSH2 0x907 JUMP JUMPDEST CALLVALUE DUP1 ISZERO PUSH2 0x365 JUMPI PUSH1 0x0 DUP1 REVERT JUMPDEST POP PUSH2 0x289 PUSH2 0x374 CALLDATASIZE PUSH1 0x4 PUSH2 0x2D2D JUMP JUMPDEST PUSH2 0xA78 JUMP JUMPDEST CALLVALUE DUP1 ISZERO PUSH2 0x385 JUMPI PUSH1 0x0 DUP1 REVERT JUMPDEST POP PUSH2 0x23E PUSH2 0x394 CALLDATASIZE PUSH1 0x4 PUSH2 0x2D2D JUMP JUMPDEST PUSH2 0xB0B JUMP JUMPDEST CALLVALUE DUP1 ISZERO PUSH2 0x3A5 JUMPI PUSH1 0x0 DUP1 REVERT JUMPDEST POP PUSH2 0x211 PUSH2 0x3B4 CALLDATASIZE PUSH1 0x4 PUSH2 0x2D46 JUMP JUMPDEST PUSH2 0xB82 JUMP JUMPDEST CALLVALUE DUP1 ISZERO PUSH2 0x3C5 JUMPI PUSH1 0x0 DUP1 REVERT JUMPDEST POP PUSH2 0x289 PUSH2 0x3D4 CALLDATASIZE PUSH1 0x4 PUSH2 0x2AE6 JUMP JUMPDEST PUSH2 0xBB4 JUMP JUMPDEST CALLVALUE DUP1 ISZERO PUSH2 0x3E5 JUMPI PUSH1 0x0 DUP1 REVERT JUMPDEST POP PUSH2 0x276 PUSH2 0xC3B JUMP JUMPDEST CALLVALUE DUP1 ISZERO PUSH2 0x3FA JUMPI PUSH1 0x0 DUP1 REVERT JUMPDEST POP PUSH2 0x289 PUSH2 0x409 CALLDATASIZE PUSH1 0x4 PUSH2 0x2D2D JUMP JUMPDEST PUSH1 0x10 PUSH1 0x20 MSTORE PUSH1 0x0 SWAP1 DUP2 MSTORE PUSH1 0x40 SWAP1 KECCAK256 SLOAD DUP2 JUMP JUMPDEST CALLVALUE DUP1 ISZERO PUSH2 0x427 JUMPI PUSH1 0x0 DUP1 REVERT JUMPDEST POP PUSH1 0xB SLOAD PUSH1 0x1 PUSH1 0x1 PUSH1 0xA0 SHL SUB AND PUSH2 0x23E JUMP JUMPDEST PUSH2 0x276 PUSH2 0x447 CALLDATASIZE PUSH1 0x4 PUSH2 0x2C8C JUMP JUMPDEST PUSH2 0xCA1 JUMP JUMPDEST CALLVALUE DUP1 ISZERO PUSH2 0x458 JUMPI PUSH1 0x0 DUP1 REVERT JUMPDEST POP PUSH2 0x211 PUSH2 0xDED JUMP JUMPDEST CALLVALUE DUP1 ISZERO PUSH2 0x46D JUMPI PUSH1 0x0 DUP1 REVERT JUMPDEST POP PUSH2 0x276 PUSH2 0x47C CALLDATASIZE PUSH1 0x4 PUSH2 0x2BEC JUMP JUMPDEST PUSH2 0xDFC JUMP JUMPDEST CALLVALUE DUP1 ISZERO PUSH2 0x48D JUMPI PUSH1 0x0 DUP1 REVERT JUMPDEST POP PUSH2 0x4A1 PUSH2 0x49C CALLDATASIZE PUSH1 0x4 PUSH2 0x2D2D JUMP JUMPDEST PUSH2 0xEC1 JUMP JUMPDEST PUSH1 0x40 MLOAD PUSH2 0x1F3 SWAP3 SWAP2 SWAP1 PUSH2 0x3298 JUMP JUMPDEST CALLVALUE DUP1 ISZERO PUSH2 0x4BB JUMPI PUSH1 0x0 DUP1 REVERT JUMPDEST POP PUSH2 0x276 PUSH2 0x4CA CALLDATASIZE PUSH1 0x4 PUSH2 0x2B70 JUMP JUMPDEST PUSH2 0xF86 JUMP JUMPDEST CALLVALUE DUP1 ISZERO PUSH2 0x4DB JUMPI PUSH1 0x0 DUP1 REVERT JUMPDEST POP PUSH2 0x211 PUSH2 0x4EA CALLDATASIZE PUSH1 0x4 PUSH2 0x2D2D JUMP JUMPDEST PUSH2 0xFBE JUMP JUMPDEST CALLVALUE DUP1 ISZERO PUSH2 0x4FB JUMPI PUSH1 0x0 DUP1 REVERT JUMPDEST POP PUSH2 0x211 PUSH2 0x50A CALLDATASIZE PUSH1 0x4 PUSH2 0x2D2D JUMP JUMPDEST PUSH2 0x1475 JUMP JUMPDEST CALLVALUE DUP1 ISZERO PUSH2 0x51B JUMPI PUSH1 0x0 DUP1 REVERT JUMPDEST POP PUSH2 0x211 PUSH2 0x52A CALLDATASIZE PUSH1 0x4 PUSH2 0x2D46 JUMP JUMPDEST PUSH2 0x18CB JUMP JUMPDEST CALLVALUE DUP1 ISZERO PUSH2 0x53B JUMPI PUSH1 0x0 DUP1 REVERT JUMPDEST POP PUSH2 0x1E7 PUSH2 0x54A CALLDATASIZE PUSH1 0x4 PUSH2 0x2B01 JUMP JUMPDEST PUSH1 0x1 PUSH1 0x1 PUSH1 0xA0 SHL SUB SWAP2 DUP3 AND PUSH1 0x0 SWAP1 DUP2 MSTORE PUSH1 0x5 PUSH1 0x20 SWAP1 DUP2 MSTORE PUSH1 0x40 DUP1 DUP4 KECCAK256 SWAP4 SWAP1 SWAP5 AND DUP3 MSTORE SWAP2 SWAP1 SWAP2 MSTORE KECCAK256 SLOAD PUSH1 0xFF AND SWAP1 JUMP JUMPDEST CALLVALUE DUP1 ISZERO PUSH2 0x584 JUMPI PUSH1 0x0 DUP1 REVERT JUMPDEST POP PUSH2 0x276 PUSH2 0x593 CALLDATASIZE PUSH1 0x4 PUSH2 0x2AE6 JUMP JUMPDEST PUSH2 0x18FB JUMP JUMPDEST CALLVALUE DUP1 ISZERO PUSH2 0x5A4 JUMPI PUSH1 0x0 DUP1 REVERT JUMPDEST POP PUSH2 0x211 PUSH2 0x5B3 CALLDATASIZE PUSH1 0x4 PUSH2 0x2D46 JUMP JUMPDEST PUSH2 0x19C6 JUMP JUMPDEST PUSH1 0x0 PUSH1 0x1 PUSH1 0x1 PUSH1 0xE0 SHL SUB NOT DUP3 AND PUSH4 0x780E9D63 PUSH1 0xE0 SHL EQ DUP1 PUSH2 0x5DD JUMPI POP PUSH2 0x5DD DUP3 PUSH2 0x19F1 JUMP JUMPDEST SWAP3 SWAP2 POP POP JUMP JUMPDEST PUSH1 0x60 PUSH1 0x0 DUP1 SLOAD PUSH2 0x5F2 SWAP1 PUSH2 0x3424 JUMP JUMPDEST DUP1 PUSH1 0x1F ADD PUSH1 0x20 DUP1 SWAP2 DIV MUL PUSH1 0x20 ADD PUSH1 0x40 MLOAD SWAP1 DUP2 ADD PUSH1 0x40 MSTORE DUP1 SWAP3 SWAP2 SWAP1 DUP2 DUP2 MSTORE PUSH1 0x20 ADD DUP3 DUP1 SLOAD PUSH2 0x61E SWAP1 PUSH2 0x3424 JUMP JUMPDEST DUP1 ISZERO PUSH2 0x66B JUMPI DUP1 PUSH1 0x1F LT PUSH2 0x640 JUMPI PUSH2 0x100 DUP1 DUP4 SLOAD DIV MUL DUP4 MSTORE SWAP2 PUSH1 0x20 ADD SWAP2 PUSH2 0x66B JUMP JUMPDEST DUP3 ADD SWAP2 SWAP1 PUSH1 0x0 MSTORE PUSH1 0x20 PUSH1 0x0 KECCAK256 SWAP1 JUMPDEST DUP2 SLOAD DUP2 MSTORE SWAP1 PUSH1 0x1 ADD SWAP1 PUSH1 0x20 ADD DUP1 DUP4 GT PUSH2 0x64E JUMPI DUP3 SWAP1 SUB PUSH1 0x1F AND DUP3 ADD SWAP2 JUMPDEST POP POP POP POP POP SWAP1 POP SWAP1 JUMP JUMPDEST PUSH1 0x0 DUP2 DUP2 MSTORE PUSH1 0x2 PUSH1 0x20 MSTORE PUSH1 0x40 DUP2 KECCAK256 SLOAD PUSH1 0x1 PUSH1 0x1 PUSH1 0xA0 SHL SUB AND PUSH2 0x6F3 JUMPI PUSH1 0x40 MLOAD PUSH3 0x461BCD PUSH1 0xE5 SHL DUP2 MSTORE PUSH1 0x20 PUSH1 0x4 DUP3 ADD MSTORE PUSH1 0x2C PUSH1 0x24 DUP3 ADD MSTORE PUSH32 0x4552433732313A20617070726F76656420717565727920666F72206E6F6E6578 PUSH1 0x44 DUP3 ADD MSTORE PUSH12 0x34B9BA32B73A103A37B5B2B7 PUSH1 0xA1 SHL PUSH1 0x64 DUP3 ADD MSTORE PUSH1 0x84 ADD JUMPDEST PUSH1 0x40 MLOAD DUP1 SWAP2 SUB SWAP1 REVERT JUMPDEST POP PUSH1 0x0 SWAP1 DUP2 MSTORE PUSH1 0x4 PUSH1 0x20 MSTORE PUSH1 0x40 SWAP1 KECCAK256 SLOAD PUSH1 0x1 PUSH1 0x1 PUSH1 0xA0 SHL SUB AND SWAP1 JUMP JUMPDEST PUSH1 0x0 PUSH2 0x71A DUP3 PUSH2 0xB0B JUMP JUMPDEST SWAP1 POP DUP1 PUSH1 0x1 PUSH1 0x1 PUSH1 0xA0 SHL SUB AND DUP4 PUSH1 0x1 PUSH1 0x1 PUSH1 0xA0 SHL SUB AND EQ ISZERO PUSH2 0x788 JUMPI PUSH1 0x40 MLOAD PUSH3 0x461BCD PUSH1 0xE5 SHL DUP2 MSTORE PUSH1 0x20 PUSH1 0x4 DUP3 ADD MSTORE PUSH1 0x21 PUSH1 0x24 DUP3 ADD MSTORE PUSH32 0x4552433732313A20617070726F76616C20746F2063757272656E74206F776E65 PUSH1 0x44 DUP3 ADD MSTORE PUSH1 0x39 PUSH1 0xF9 SHL PUSH1 0x64 DUP3 ADD MSTORE PUSH1 0x84 ADD PUSH2 0x6EA JUMP JUMPDEST CALLER PUSH1 0x1 PUSH1 0x1 PUSH1 0xA0 SHL SUB DUP3 AND EQ DUP1 PUSH2 0x7A4 JUMPI POP PUSH2 0x7A4 DUP2 CALLER PUSH2 0x54A JUMP JUMPDEST PUSH2 0x816 JUMPI PUSH1 0x40 MLOAD PUSH3 0x461BCD PUSH1 0xE5 SHL DUP2 MSTORE PUSH1 0x20 PUSH1 0x4 DUP3 ADD MSTORE PUSH1 0x38 PUSH1 0x24 DUP3 ADD MSTORE PUSH32 0x4552433732313A20617070726F76652063616C6C6572206973206E6F74206F77 PUSH1 0x44 DUP3 ADD MSTORE PUSH32 0x6E6572206E6F7220617070726F76656420666F7220616C6C0000000000000000 PUSH1 0x64 DUP3 ADD MSTORE PUSH1 0x84 ADD PUSH2 0x6EA JUMP JUMPDEST PUSH2 0x820 DUP4 DUP4 PUSH2 0x1A41 JUMP JUMPDEST POP POP POP JUMP JUMPDEST PUSH2 0x82F CALLER DUP3 PUSH2 0x1AAF JUMP JUMPDEST PUSH2 0x84B JUMPI PUSH1 0x40 MLOAD PUSH3 0x461BCD PUSH1 0xE5 SHL DUP2 MSTORE PUSH1 0x4 ADD PUSH2 0x6EA SWAP1 PUSH2 0x3314 JUMP JUMPDEST PUSH2 0x820 DUP4 DUP4 DUP4 PUSH2 0x1BA6 JUMP JUMPDEST PUSH1 0x0 PUSH2 0x861 DUP4 PUSH2 0xBB4 JUMP JUMPDEST DUP3 LT PUSH2 0x8C3 JUMPI PUSH1 0x40 MLOAD PUSH3 0x461BCD PUSH1 0xE5 SHL DUP2 MSTORE PUSH1 0x20 PUSH1 0x4 DUP3 ADD MSTORE PUSH1 0x2B PUSH1 0x24 DUP3 ADD MSTORE PUSH32 0x455243373231456E756D657261626C653A206F776E657220696E646578206F75 PUSH1 0x44 DUP3 ADD MSTORE PUSH11 0x74206F6620626F756E6473 PUSH1 0xA8 SHL PUSH1 0x64 DUP3 ADD MSTORE PUSH1 0x84 ADD PUSH2 0x6EA JUMP JUMPDEST POP PUSH1 0x1 PUSH1 0x1 PUSH1 0xA0 SHL SUB SWAP2 SWAP1 SWAP2 AND PUSH1 0x0 SWAP1 DUP2 MSTORE PUSH1 0x6 PUSH1 0x20 SWAP1 DUP2 MSTORE PUSH1 0x40 DUP1 DUP4 KECCAK256 SWAP4 DUP4 MSTORE SWAP3 SWAP1 MSTORE KECCAK256 SLOAD SWAP1 JUMP JUMPDEST PUSH2 0x820 DUP4 DUP4 DUP4 PUSH1 0x40 MLOAD DUP1 PUSH1 0x20 ADD PUSH1 0x40 MSTORE DUP1 PUSH1 0x0 DUP2 MSTORE POP PUSH2 0xF86 JUMP JUMPDEST PUSH1 0x2 PUSH1 0xA SLOAD EQ ISZERO PUSH2 0x95A JUMPI PUSH1 0x40 MLOAD PUSH3 0x461BCD PUSH1 0xE5 SHL DUP2 MSTORE PUSH1 0x20 PUSH1 0x4 DUP3 ADD MSTORE PUSH1 0x1F PUSH1 0x24 DUP3 ADD MSTORE PUSH32 0x5265656E7472616E637947756172643A207265656E7472616E742063616C6C00 PUSH1 0x44 DUP3 ADD MSTORE PUSH1 0x64 ADD PUSH2 0x6EA JUMP JUMPDEST PUSH1 0x2 PUSH1 0xA SSTORE PUSH1 0xD SLOAD PUSH1 0x0 PUSH2 0x994 PUSH2 0x970 DUP4 PUSH2 0x1D51 JUMP JUMPDEST PUSH1 0x40 MLOAD PUSH1 0x20 ADD PUSH2 0x980 SWAP2 SWAP1 PUSH2 0x2F56 JUMP JUMPDEST PUSH1 0x40 MLOAD PUSH1 0x20 DUP2 DUP4 SUB SUB DUP2 MSTORE SWAP1 PUSH1 0x40 MSTORE PUSH2 0x1E4F JUMP JUMPDEST PUSH1 0xC SLOAD SWAP1 SWAP2 POP PUSH1 0x0 SWAP1 PUSH2 0x9A7 SWAP1 DUP4 PUSH2 0x347A JUMP JUMPDEST SWAP1 POP PUSH1 0x0 PUSH1 0xC DUP3 DUP2 SLOAD DUP2 LT PUSH2 0x9BE JUMPI PUSH2 0x9BE PUSH2 0x34D0 JUMP JUMPDEST PUSH1 0x0 SWAP2 DUP3 MSTORE PUSH1 0x20 DUP3 KECCAK256 PUSH1 0x4 PUSH1 0x5 SWAP1 SWAP3 MUL ADD ADD SLOAD PUSH1 0x40 MLOAD PUSH1 0x1 PUSH1 0x1 PUSH1 0xA0 SHL SUB SWAP1 SWAP2 AND SWAP3 POP DUP3 SWAP2 CALLVALUE DUP1 ISZERO PUSH2 0x8FC MUL SWAP3 SWAP1 SWAP2 DUP2 DUP2 DUP2 DUP6 DUP9 DUP9 CALL SWAP4 POP POP POP POP ISZERO DUP1 ISZERO PUSH2 0xA0A JUMPI RETURNDATASIZE PUSH1 0x0 DUP1 RETURNDATACOPY RETURNDATASIZE PUSH1 0x0 REVERT JUMPDEST POP PUSH1 0x0 DUP5 DUP2 MSTORE PUSH1 0x10 PUSH1 0x20 SWAP1 DUP2 MSTORE PUSH1 0x40 DUP1 DUP4 KECCAK256 DUP6 SWAP1 SSTORE PUSH1 0x1 PUSH1 0x1 PUSH1 0xA0 SHL SUB DUP5 AND DUP4 MSTORE PUSH1 0x11 SWAP1 SWAP2 MSTORE DUP2 KECCAK256 DUP1 SLOAD PUSH1 0x1 SWAP3 SWAP1 PUSH2 0xA43 SWAP1 DUP5 SWAP1 PUSH2 0x3396 JUMP JUMPDEST SWAP3 POP POP DUP2 SWAP1 SSTORE POP PUSH1 0x1 PUSH1 0xD PUSH1 0x0 DUP3 DUP3 SLOAD PUSH2 0xA5D SWAP2 SWAP1 PUSH2 0x3396 JUMP JUMPDEST SWAP1 SWAP2 SSTORE POP PUSH2 0xA6D SWAP1 POP CALLER DUP6 PUSH2 0x1E80 JUMP JUMPDEST POP POP PUSH1 0x1 PUSH1 0xA SSTORE POP POP JUMP JUMPDEST PUSH1 0x0 PUSH2 0xA83 PUSH1 0x8 SLOAD SWAP1 JUMP JUMPDEST DUP3 LT PUSH2 0xAE6 JUMPI PUSH1 0x40 MLOAD PUSH3 0x461BCD PUSH1 0xE5 SHL DUP2 MSTORE PUSH1 0x20 PUSH1 0x4 DUP3 ADD MSTORE PUSH1 0x2C PUSH1 0x24 DUP3 ADD MSTORE PUSH32 0x455243373231456E756D657261626C653A20676C6F62616C20696E646578206F PUSH1 0x44 DUP3 ADD MSTORE PUSH12 0x7574206F6620626F756E6473 PUSH1 0xA0 SHL PUSH1 0x64 DUP3 ADD MSTORE PUSH1 0x84 ADD PUSH2 0x6EA JUMP JUMPDEST PUSH1 0x8 DUP3 DUP2 SLOAD DUP2 LT PUSH2 0xAF9 JUMPI PUSH2 0xAF9 PUSH2 0x34D0 JUMP JUMPDEST SWAP1 PUSH1 0x0 MSTORE PUSH1 0x20 PUSH1 0x0 KECCAK256 ADD SLOAD SWAP1 POP SWAP2 SWAP1 POP JUMP JUMPDEST PUSH1 0x0 DUP2 DUP2 MSTORE PUSH1 0x2 PUSH1 0x20 MSTORE PUSH1 0x40 DUP2 KECCAK256 SLOAD PUSH1 0x1 PUSH1 0x1 PUSH1 0xA0 SHL SUB AND DUP1 PUSH2 0x5DD JUMPI PUSH1 0x40 MLOAD PUSH3 0x461BCD PUSH1 0xE5 SHL DUP2 MSTORE PUSH1 0x20 PUSH1 0x4 DUP3 ADD MSTORE PUSH1 0x29 PUSH1 0x24 DUP3 ADD MSTORE PUSH32 0x4552433732313A206F776E657220717565727920666F72206E6F6E6578697374 PUSH1 0x44 DUP3 ADD MSTORE PUSH9 0x32B73A103A37B5B2B7 PUSH1 0xB9 SHL PUSH1 0x64 DUP3 ADD MSTORE PUSH1 0x84 ADD PUSH2 0x6EA JUMP JUMPDEST PUSH1 0x60 PUSH2 0xBAD DUP4 PUSH1 0x40 MLOAD DUP1 PUSH1 0x40 ADD PUSH1 0x40 MSTORE DUP1 PUSH1 0x6 DUP2 MSTORE PUSH1 0x20 ADD PUSH6 0x2BA2A0A827A7 PUSH1 0xD1 SHL DUP2 MSTORE POP DUP5 PUSH2 0x1E9E JUMP JUMPDEST SWAP4 SWAP3 POP POP POP JUMP JUMPDEST PUSH1 0x0 PUSH1 0x1 PUSH1 0x1 PUSH1 0xA0 SHL SUB DUP3 AND PUSH2 0xC1F JUMPI PUSH1 0x40 MLOAD PUSH3 0x461BCD PUSH1 0xE5 SHL DUP2 MSTORE PUSH1 0x20 PUSH1 0x4 DUP3 ADD MSTORE PUSH1 0x2A PUSH1 0x24 DUP3 ADD MSTORE PUSH32 0x4552433732313A2062616C616E636520717565727920666F7220746865207A65 PUSH1 0x44 DUP3 ADD MSTORE PUSH10 0x726F2061646472657373 PUSH1 0xB0 SHL PUSH1 0x64 DUP3 ADD MSTORE PUSH1 0x84 ADD PUSH2 0x6EA JUMP JUMPDEST POP PUSH1 0x1 PUSH1 0x1 PUSH1 0xA0 SHL SUB AND PUSH1 0x0 SWAP1 DUP2 MSTORE PUSH1 0x3 PUSH1 0x20 MSTORE PUSH1 0x40 SWAP1 KECCAK256 SLOAD SWAP1 JUMP JUMPDEST PUSH1 0xB SLOAD PUSH1 0x1 PUSH1 0x1 PUSH1 0xA0 SHL SUB AND CALLER EQ PUSH2 0xC95 JUMPI PUSH1 0x40 MLOAD PUSH3 0x461BCD PUSH1 0xE5 SHL DUP2 MSTORE PUSH1 0x20 PUSH1 0x4 DUP3 ADD DUP2 SWAP1 MSTORE PUSH1 0x24 DUP3 ADD MSTORE PUSH32 0x4F776E61626C653A2063616C6C6572206973206E6F7420746865206F776E6572 PUSH1 0x44 DUP3 ADD MSTORE PUSH1 0x64 ADD PUSH2 0x6EA JUMP JUMPDEST PUSH2 0xC9F PUSH1 0x0 PUSH2 0x2163 JUMP JUMPDEST JUMP JUMPDEST PUSH2 0xCDC PUSH1 0x40 MLOAD DUP1 PUSH1 0xA0 ADD PUSH1 0x40 MSTORE DUP1 PUSH1 0x60 DUP2 MSTORE PUSH1 0x20 ADD PUSH1 0x60 DUP2 MSTORE PUSH1 0x20 ADD PUSH1 0x60 DUP2 MSTORE PUSH1 0x20 ADD PUSH1 0x60 DUP2 MSTORE PUSH1 0x20 ADD PUSH1 0x0 PUSH1 0x1 PUSH1 0x1 PUSH1 0xA0 SHL SUB AND DUP2 MSTORE POP SWAP1 JUMP JUMPDEST PUSH1 0x20 DUP1 DUP3 ADD DUP6 SWAP1 MSTORE PUSH1 0x40 DUP1 DUP4 ADD DUP6 SWAP1 MSTORE PUSH1 0x60 DUP4 ADD DUP5 SWAP1 MSTORE DUP7 DUP4 MSTORE CALLER PUSH1 0x80 DUP5 ADD DUP2 SWAP1 MSTORE PUSH1 0x0 SWAP1 DUP2 MSTORE PUSH1 0xF SWAP1 SWAP3 MSTORE DUP2 KECCAK256 DUP1 SLOAD PUSH1 0x1 SWAP3 SWAP1 PUSH2 0xD1B SWAP1 DUP5 SWAP1 PUSH2 0x3396 JUMP JUMPDEST SWAP1 SWAP2 SSTORE POP POP PUSH1 0xC DUP1 SLOAD PUSH1 0x1 DUP2 ADD DUP3 SSTORE PUSH1 0x0 SWAP2 SWAP1 SWAP2 MSTORE DUP2 MLOAD DUP1 MLOAD DUP4 SWAP3 PUSH1 0x5 MUL PUSH32 0xDF6966C971051C3D54EC59162606531493A51404A002842F56009D7E5CF4A8C7 ADD SWAP2 PUSH2 0xD6B SWAP2 DUP4 SWAP2 PUSH1 0x20 ADD SWAP1 PUSH2 0x2824 JUMP JUMPDEST POP PUSH1 0x20 DUP3 DUP2 ADD MLOAD DUP1 MLOAD PUSH2 0xD84 SWAP3 PUSH1 0x1 DUP6 ADD SWAP3 ADD SWAP1 PUSH2 0x28A8 JUMP JUMPDEST POP PUSH1 0x40 DUP3 ADD MLOAD DUP1 MLOAD PUSH2 0xDA0 SWAP2 PUSH1 0x2 DUP5 ADD SWAP2 PUSH1 0x20 SWAP1 SWAP2 ADD SWAP1 PUSH2 0x28A8 JUMP JUMPDEST POP PUSH1 0x60 DUP3 ADD MLOAD DUP1 MLOAD PUSH2 0xDBC SWAP2 PUSH1 0x3 DUP5 ADD SWAP2 PUSH1 0x20 SWAP1 SWAP2 ADD SWAP1 PUSH2 0x28A8 JUMP JUMPDEST POP PUSH1 0x80 SWAP2 SWAP1 SWAP2 ADD MLOAD PUSH1 0x4 SWAP1 SWAP2 ADD DUP1 SLOAD PUSH1 0x1 PUSH1 0x1 PUSH1 0xA0 SHL SUB NOT AND PUSH1 0x1 PUSH1 0x1 PUSH1 0xA0 SHL SUB SWAP1 SWAP3 AND SWAP2 SWAP1 SWAP2 OR SWAP1 SSTORE POP POP POP POP POP JUMP JUMPDEST PUSH1 0x60 PUSH1 0x1 DUP1 SLOAD PUSH2 0x5F2 SWAP1 PUSH2 0x3424 JUMP JUMPDEST PUSH1 0x1 PUSH1 0x1 PUSH1 0xA0 SHL SUB DUP3 AND CALLER EQ ISZERO PUSH2 0xE55 JUMPI PUSH1 0x40 MLOAD PUSH3 0x461BCD PUSH1 0xE5 SHL DUP2 MSTORE PUSH1 0x20 PUSH1 0x4 DUP3 ADD MSTORE PUSH1 0x19 PUSH1 0x24 DUP3 ADD MSTORE PUSH32 0x4552433732313A20617070726F766520746F2063616C6C657200000000000000 PUSH1 0x44 DUP3 ADD MSTORE PUSH1 0x64 ADD PUSH2 0x6EA JUMP JUMPDEST CALLER PUSH1 0x0 DUP2 DUP2 MSTORE PUSH1 0x5 PUSH1 0x20 SWAP1 DUP2 MSTORE PUSH1 0x40 DUP1 DUP4 KECCAK256 PUSH1 0x1 PUSH1 0x1 PUSH1 0xA0 SHL SUB DUP8 AND DUP1 DUP6 MSTORE SWAP1 DUP4 MSTORE SWAP3 DUP2 SWAP1 KECCAK256 DUP1 SLOAD PUSH1 0xFF NOT AND DUP7 ISZERO ISZERO SWAP1 DUP2 OR SWAP1 SWAP2 SSTORE SWAP1 MLOAD SWAP1 DUP2 MSTORE SWAP2 SWAP3 SWAP2 PUSH32 0x17307EAB39AB6107E8899845AD3D59BD9653F200F220920489CA2B5937696C31 SWAP2 ADD PUSH1 0x40 MLOAD DUP1 SWAP2 SUB SWAP1 LOG3 POP POP JUMP JUMPDEST PUSH1 0xC DUP2 DUP2 SLOAD DUP2 LT PUSH2 0xED1 JUMPI PUSH1 0x0 DUP1 REVERT JUMPDEST SWAP1 PUSH1 0x0 MSTORE PUSH1 0x20 PUSH1 0x0 KECCAK256 SWAP1 PUSH1 0x5 MUL ADD PUSH1 0x0 SWAP2 POP SWAP1 POP DUP1 PUSH1 0x0 ADD DUP1 SLOAD PUSH2 0xEF4 SWAP1 PUSH2 0x3424 JUMP JUMPDEST DUP1 PUSH1 0x1F ADD PUSH1 0x20 DUP1 SWAP2 DIV MUL PUSH1 0x20 ADD PUSH1 0x40 MLOAD SWAP1 DUP2 ADD PUSH1 0x40 MSTORE DUP1 SWAP3 SWAP2 SWAP1 DUP2 DUP2 MSTORE PUSH1 0x20 ADD DUP3 DUP1 SLOAD PUSH2 0xF20 SWAP1 PUSH2 0x3424 JUMP JUMPDEST DUP1 ISZERO PUSH2 0xF6D JUMPI DUP1 PUSH1 0x1F LT PUSH2 0xF42 JUMPI PUSH2 0x100 DUP1 DUP4 SLOAD DIV MUL DUP4 MSTORE SWAP2 PUSH1 0x20 ADD SWAP2 PUSH2 0xF6D JUMP JUMPDEST DUP3 ADD SWAP2 SWAP1 PUSH1 0x0 MSTORE PUSH1 0x20 PUSH1 0x0 KECCAK256 SWAP1 JUMPDEST DUP2 SLOAD DUP2 MSTORE SWAP1 PUSH1 0x1 ADD SWAP1 PUSH1 0x20 ADD DUP1 DUP4 GT PUSH2 0xF50 JUMPI DUP3 SWAP1 SUB PUSH1 0x1F AND DUP3 ADD SWAP2 JUMPDEST POP POP POP PUSH1 0x4 SWAP1 SWAP4 ADD SLOAD SWAP2 SWAP3 POP POP PUSH1 0x1 PUSH1 0x1 PUSH1 0xA0 SHL SUB AND DUP3 JUMP JUMPDEST PUSH2 0xF90 CALLER DUP4 PUSH2 0x1AAF JUMP JUMPDEST PUSH2 0xFAC JUMPI PUSH1 0x40 MLOAD PUSH3 0x461BCD PUSH1 0xE5 SHL DUP2 MSTORE PUSH1 0x4 ADD PUSH2 0x6EA SWAP1 PUSH2 0x3314 JUMP JUMPDEST PUSH2 0xFB8 DUP5 DUP5 DUP5 DUP5 PUSH2 0x21B5 JUMP JUMPDEST POP POP POP POP JUMP JUMPDEST PUSH1 0x0 DUP2 DUP2 MSTORE PUSH1 0x10 PUSH1 0x20 MSTORE PUSH1 0x40 DUP2 KECCAK256 SLOAD PUSH1 0xC DUP1 SLOAD PUSH1 0x60 SWAP4 SWAP2 SWAP1 DUP4 SWAP1 DUP2 LT PUSH2 0xFE6 JUMPI PUSH2 0xFE6 PUSH2 0x34D0 JUMP JUMPDEST SWAP1 PUSH1 0x0 MSTORE PUSH1 0x20 PUSH1 0x0 KECCAK256 SWAP1 PUSH1 0x5 MUL ADD PUSH1 0x1 ADD DUP1 SLOAD DUP1 PUSH1 0x20 MUL PUSH1 0x20 ADD PUSH1 0x40 MLOAD SWAP1 DUP2 ADD PUSH1 0x40 MSTORE DUP1 SWAP3 SWAP2 SWAP1 DUP2 DUP2 MSTORE PUSH1 0x20 ADD PUSH1 0x0 SWAP1 JUMPDEST DUP3 DUP3 LT ISZERO PUSH2 0x10C3 JUMPI DUP4 DUP3 SWAP1 PUSH1 0x0 MSTORE PUSH1 0x20 PUSH1 0x0 KECCAK256 ADD DUP1 SLOAD PUSH2 0x1036 SWAP1 PUSH2 0x3424 JUMP JUMPDEST DUP1 PUSH1 0x1F ADD PUSH1 0x20 DUP1 SWAP2 DIV MUL PUSH1 0x20 ADD PUSH1 0x40 MLOAD SWAP1 DUP2 ADD PUSH1 0x40 MSTORE DUP1 SWAP3 SWAP2 SWAP1 DUP2 DUP2 MSTORE PUSH1 0x20 ADD DUP3 DUP1 SLOAD PUSH2 0x1062 SWAP1 PUSH2 0x3424 JUMP JUMPDEST DUP1 ISZERO PUSH2 0x10AF JUMPI DUP1 PUSH1 0x1F LT PUSH2 0x1084 JUMPI PUSH2 0x100 DUP1 DUP4 SLOAD DIV MUL DUP4 MSTORE SWAP2 PUSH1 0x20 ADD SWAP2 PUSH2 0x10AF JUMP JUMPDEST DUP3 ADD SWAP2 SWAP1 PUSH1 0x0 MSTORE PUSH1 0x20 PUSH1 0x0 KECCAK256 SWAP1 JUMPDEST DUP2 SLOAD DUP2 MSTORE SWAP1 PUSH1 0x1 ADD SWAP1 PUSH1 0x20 ADD DUP1 DUP4 GT PUSH2 0x1092 JUMPI DUP3 SWAP1 SUB PUSH1 0x1F AND DUP3 ADD SWAP2 JUMPDEST POP POP POP POP POP DUP2 MSTORE PUSH1 0x20 ADD SWAP1 PUSH1 0x1 ADD SWAP1 PUSH2 0x1017 JUMP JUMPDEST POP POP POP POP SWAP1 POP PUSH1 0x0 PUSH1 0xC DUP4 DUP2 SLOAD DUP2 LT PUSH2 0x10DE JUMPI PUSH2 0x10DE PUSH2 0x34D0 JUMP JUMPDEST SWAP1 PUSH1 0x0 MSTORE PUSH1 0x20 PUSH1 0x0 KECCAK256 SWAP1 PUSH1 0x5 MUL ADD PUSH1 0x2 ADD DUP1 SLOAD DUP1 PUSH1 0x20 MUL PUSH1 0x20 ADD PUSH1 0x40 MLOAD SWAP1 DUP2 ADD PUSH1 0x40 MSTORE DUP1 SWAP3 SWAP2 SWAP1 DUP2 DUP2 MSTORE PUSH1 0x20 ADD PUSH1 0x0 SWAP1 JUMPDEST DUP3 DUP3 LT ISZERO PUSH2 0x11BB JUMPI DUP4 DUP3 SWAP1 PUSH1 0x0 MSTORE PUSH1 0x20 PUSH1 0x0 KECCAK256 ADD DUP1 SLOAD PUSH2 0x112E SWAP1 PUSH2 0x3424 JUMP JUMPDEST DUP1 PUSH1 0x1F ADD PUSH1 0x20 DUP1 SWAP2 DIV MUL PUSH1 0x20 ADD PUSH1 0x40 MLOAD SWAP1 DUP2 ADD PUSH1 0x40 MSTORE DUP1 SWAP3 SWAP2 SWAP1 DUP2 DUP2 MSTORE PUSH1 0x20 ADD DUP3 DUP1 SLOAD PUSH2 0x115A SWAP1 PUSH2 0x3424 JUMP JUMPDEST DUP1 ISZERO PUSH2 0x11A7 JUMPI DUP1 PUSH1 0x1F LT PUSH2 0x117C JUMPI PUSH2 0x100 DUP1 DUP4 SLOAD DIV MUL DUP4 MSTORE SWAP2 PUSH1 0x20 ADD SWAP2 PUSH2 0x11A7 JUMP JUMPDEST DUP3 ADD SWAP2 SWAP1 PUSH1 0x0 MSTORE PUSH1 0x20 PUSH1 0x0 KECCAK256 SWAP1 JUMPDEST DUP2 SLOAD DUP2 MSTORE SWAP1 PUSH1 0x1 ADD SWAP1 PUSH1 0x20 ADD DUP1 DUP4 GT PUSH2 0x118A JUMPI DUP3 SWAP1 SUB PUSH1 0x1F AND DUP3 ADD SWAP2 JUMPDEST POP POP POP POP POP DUP2 MSTORE PUSH1 0x20 ADD SWAP1 PUSH1 0x1 ADD SWAP1 PUSH2 0x110F JUMP JUMPDEST POP POP POP POP SWAP1 POP PUSH1 0x0 PUSH1 0xC DUP5 DUP2 SLOAD DUP2 LT PUSH2 0x11D6 JUMPI PUSH2 0x11D6 PUSH2 0x34D0 JUMP JUMPDEST SWAP1 PUSH1 0x0 MSTORE PUSH1 0x20 PUSH1 0x0 KECCAK256 SWAP1 PUSH1 0x5 MUL ADD PUSH1 0x3 ADD DUP1 SLOAD DUP1 PUSH1 0x20 MUL PUSH1 0x20 ADD PUSH1 0x40 MLOAD SWAP1 DUP2 ADD PUSH1 0x40 MSTORE DUP1 SWAP3 SWAP2 SWAP1 DUP2 DUP2 MSTORE PUSH1 0x20 ADD PUSH1 0x0 SWAP1 JUMPDEST DUP3 DUP3 LT ISZERO PUSH2 0x12B3 JUMPI DUP4 DUP3 SWAP1 PUSH1 0x0 MSTORE PUSH1 0x20 PUSH1 0x0 KECCAK256 ADD DUP1 SLOAD PUSH2 0x1226 SWAP1 PUSH2 0x3424 JUMP JUMPDEST DUP1 PUSH1 0x1F ADD PUSH1 0x20 DUP1 SWAP2 DIV MUL PUSH1 0x20 ADD PUSH1 0x40 MLOAD SWAP1 DUP2 ADD PUSH1 0x40 MSTORE DUP1 SWAP3 SWAP2 SWAP1 DUP2 DUP2 MSTORE PUSH1 0x20 ADD DUP3 DUP1 SLOAD PUSH2 0x1252 SWAP1 PUSH2 0x3424 JUMP JUMPDEST DUP1 ISZERO PUSH2 0x129F JUMPI DUP1 PUSH1 0x1F LT PUSH2 0x1274 JUMPI PUSH2 0x100 DUP1 DUP4 SLOAD DIV MUL DUP4 MSTORE SWAP2 PUSH1 0x20 ADD SWAP2 PUSH2 0x129F JUMP JUMPDEST DUP3 ADD SWAP2 SWAP1 PUSH1 0x0 MSTORE PUSH1 0x20 PUSH1 0x0 KECCAK256 SWAP1 JUMPDEST DUP2 SLOAD DUP2 MSTORE SWAP1 PUSH1 0x1 ADD SWAP1 PUSH1 0x20 ADD DUP1 DUP4 GT PUSH2 0x1282 JUMPI DUP3 SWAP1 SUB PUSH1 0x1F AND DUP3 ADD SWAP2 JUMPDEST POP POP POP POP POP DUP2 MSTORE PUSH1 0x20 ADD SWAP1 PUSH1 0x1 ADD SWAP1 PUSH2 0x1207 JUMP JUMPDEST POP POP POP POP SWAP1 POP PUSH2 0x12C1 PUSH2 0x2901 JUMP JUMPDEST PUSH1 0x40 MLOAD DUP1 PUSH2 0x120 ADD PUSH1 0x40 MSTORE DUP1 PUSH1 0xFD DUP2 MSTORE PUSH1 0x20 ADD PUSH2 0x3563 PUSH1 0xFD SWAP2 CODECOPY DUP2 MSTORE PUSH2 0x12E7 DUP8 DUP6 PUSH2 0xB82 JUMP JUMPDEST DUP2 PUSH1 0x1 PUSH1 0x20 MUL ADD DUP2 SWAP1 MSTORE POP PUSH1 0x40 MLOAD DUP1 PUSH1 0x60 ADD PUSH1 0x40 MSTORE DUP1 PUSH1 0x28 DUP2 MSTORE PUSH1 0x20 ADD PUSH2 0x36A0 PUSH1 0x28 SWAP2 CODECOPY PUSH1 0x40 DUP3 ADD MSTORE PUSH2 0x131A DUP8 DUP5 PUSH2 0x19C6 JUMP JUMPDEST PUSH1 0x60 DUP1 DUP4 ADD SWAP2 SWAP1 SWAP2 MSTORE PUSH1 0x40 DUP1 MLOAD SWAP2 DUP3 ADD SWAP1 MSTORE PUSH1 0x28 DUP1 DUP3 MSTORE PUSH2 0x3513 PUSH1 0x20 DUP4 ADD CODECOPY PUSH1 0x80 DUP3 ADD MSTORE PUSH2 0x1348 DUP8 DUP4 PUSH2 0x18CB JUMP JUMPDEST PUSH1 0xA0 DUP3 ADD MSTORE PUSH1 0x40 DUP1 MLOAD PUSH1 0x60 DUP2 ADD SWAP1 SWAP2 MSTORE PUSH1 0x28 DUP1 DUP3 MSTORE PUSH2 0x353B PUSH1 0x20 DUP4 ADD CODECOPY PUSH1 0xC0 DUP3 ADD MSTORE PUSH1 0x40 DUP1 MLOAD DUP1 DUP3 ADD SWAP1 SWAP2 MSTORE PUSH1 0xD DUP2 MSTORE PUSH13 0x1E17BA32BC3A1F1E17B9BB339F PUSH1 0x99 SHL PUSH1 0x20 DUP3 ADD MSTORE DUP2 PUSH1 0x7 PUSH1 0x20 SWAP1 DUP2 MUL SWAP2 SWAP1 SWAP2 ADD SWAP2 SWAP1 SWAP2 MSTORE DUP2 MLOAD DUP3 DUP3 ADD MLOAD PUSH1 0x40 DUP1 DUP6 ADD MLOAD PUSH1 0x60 DUP7 ADD MLOAD PUSH1 0x80 DUP8 ADD MLOAD PUSH1 0xA0 DUP9 ADD MLOAD PUSH1 0xC0 DUP10 ADD MLOAD SWAP5 MLOAD PUSH1 0x0 SWAP9 PUSH2 0x13D0 SWAP9 SWAP8 SWAP7 SWAP2 ADD PUSH2 0x2E04 JUMP JUMPDEST PUSH1 0x40 DUP1 MLOAD DUP1 DUP4 SUB PUSH1 0x1F NOT ADD DUP2 MSTORE SWAP1 DUP3 SWAP1 MSTORE PUSH1 0xE0 DUP5 ADD MLOAD SWAP1 SWAP3 POP PUSH2 0x13F8 SWAP2 DUP4 SWAP2 SWAP1 PUSH1 0x20 ADD PUSH2 0x2DD5 JUMP JUMPDEST PUSH1 0x40 MLOAD PUSH1 0x20 DUP2 DUP4 SUB SUB DUP2 MSTORE SWAP1 PUSH1 0x40 MSTORE SWAP1 POP PUSH1 0x0 PUSH2 0x1445 PUSH2 0x1417 DUP11 PUSH2 0x1D51 JUMP JUMPDEST PUSH2 0x1420 DUP5 PUSH2 0x21E8 JUMP JUMPDEST PUSH1 0x40 MLOAD PUSH1 0x20 ADD PUSH2 0x1431 SWAP3 SWAP2 SWAP1 PUSH2 0x306D JUMP JUMPDEST PUSH1 0x40 MLOAD PUSH1 0x20 DUP2 DUP4 SUB SUB DUP2 MSTORE SWAP1 PUSH1 0x40 MSTORE PUSH2 0x21E8 JUMP JUMPDEST SWAP1 POP DUP1 PUSH1 0x40 MLOAD PUSH1 0x20 ADD PUSH2 0x1458 SWAP2 SWAP1 PUSH2 0x3203 JUMP JUMPDEST PUSH1 0x40 DUP1 MLOAD PUSH1 0x1F NOT DUP2 DUP5 SUB ADD DUP2 MSTORE SWAP2 SWAP1 MSTORE SWAP10 SWAP9 POP POP POP POP POP POP POP POP POP JUMP JUMPDEST PUSH1 0x0 DUP2 DUP2 MSTORE PUSH1 0x10 PUSH1 0x20 MSTORE PUSH1 0x40 DUP2 KECCAK256 SLOAD PUSH1 0xC DUP1 SLOAD PUSH1 0x60 SWAP4 SWAP2 SWAP1 DUP4 SWAP1 DUP2 LT PUSH2 0x149D JUMPI PUSH2 0x149D PUSH2 0x34D0 JUMP JUMPDEST SWAP1 PUSH1 0x0 MSTORE PUSH1 0x20 PUSH1 0x0 KECCAK256 SWAP1 PUSH1 0x5 MUL ADD PUSH1 0x1 ADD DUP1 SLOAD DUP1 PUSH1 0x20 MUL PUSH1 0x20 ADD PUSH1 0x40 MLOAD SWAP1 DUP2 ADD PUSH1 0x40 MSTORE DUP1 SWAP3 SWAP2 SWAP1 DUP2 DUP2 MSTORE PUSH1 0x20 ADD PUSH1 0x0 SWAP1 JUMPDEST DUP3 DUP3 LT ISZERO PUSH2 0x157A JUMPI DUP4 DUP3 SWAP1 PUSH1 0x0 MSTORE PUSH1 0x20 PUSH1 0x0 KECCAK256 ADD DUP1 SLOAD PUSH2 0x14ED SWAP1 PUSH2 0x3424 JUMP JUMPDEST DUP1 PUSH1 0x1F ADD PUSH1 0x20 DUP1 SWAP2 DIV MUL PUSH1 0x20 ADD PUSH1 0x40 MLOAD SWAP1 DUP2 ADD PUSH1 0x40 MSTORE DUP1 SWAP3 SWAP2 SWAP1 DUP2 DUP2 MSTORE PUSH1 0x20 ADD DUP3 DUP1 SLOAD PUSH2 0x1519 SWAP1 PUSH2 0x3424 JUMP JUMPDEST DUP1 ISZERO PUSH2 0x1566 JUMPI DUP1 PUSH1 0x1F LT PUSH2 0x153B JUMPI PUSH2 0x100 DUP1 DUP4 SLOAD DIV MUL DUP4 MSTORE SWAP2 PUSH1 0x20 ADD SWAP2 PUSH2 0x1566 JUMP JUMPDEST DUP3 ADD SWAP2 SWAP1 PUSH1 0x0 MSTORE PUSH1 0x20 PUSH1 0x0 KECCAK256 SWAP1 JUMPDEST DUP2 SLOAD DUP2 MSTORE SWAP1 PUSH1 0x1 ADD SWAP1 PUSH1 0x20 ADD DUP1 DUP4 GT PUSH2 0x1549 JUMPI DUP3 SWAP1 SUB PUSH1 0x1F AND DUP3 ADD SWAP2 JUMPDEST POP POP POP POP POP DUP2 MSTORE PUSH1 0x20 ADD SWAP1 PUSH1 0x1 ADD SWAP1 PUSH2 0x14CE JUMP JUMPDEST POP POP POP POP SWAP1 POP PUSH1 0x0 PUSH1 0xC DUP4 DUP2 SLOAD DUP2 LT PUSH2 0x1595 JUMPI PUSH2 0x1595 PUSH2 0x34D0 JUMP JUMPDEST SWAP1 PUSH1 0x0 MSTORE PUSH1 0x20 PUSH1 0x0 KECCAK256 SWAP1 PUSH1 0x5 MUL ADD PUSH1 0x2 ADD DUP1 SLOAD DUP1 PUSH1 0x20 MUL PUSH1 0x20 ADD PUSH1 0x40 MLOAD SWAP1 DUP2 ADD PUSH1 0x40 MSTORE DUP1 SWAP3 SWAP2 SWAP1 DUP2 DUP2 MSTORE PUSH1 0x20 ADD PUSH1 0x0 SWAP1 JUMPDEST DUP3 DUP3 LT ISZERO PUSH2 0x1672 JUMPI DUP4 DUP3 SWAP1 PUSH1 0x0 MSTORE PUSH1 0x20 PUSH1 0x0 KECCAK256 ADD DUP1 SLOAD PUSH2 0x15E5 SWAP1 PUSH2 0x3424 JUMP JUMPDEST DUP1 PUSH1 0x1F ADD PUSH1 0x20 DUP1 SWAP2 DIV MUL PUSH1 0x20 ADD PUSH1 0x40 MLOAD SWAP1 DUP2 ADD PUSH1 0x40 MSTORE DUP1 SWAP3 SWAP2 SWAP1 DUP2 DUP2 MSTORE PUSH1 0x20 ADD DUP3 DUP1 SLOAD PUSH2 0x1611 SWAP1 PUSH2 0x3424 JUMP JUMPDEST DUP1 ISZERO PUSH2 0x165E JUMPI DUP1 PUSH1 0x1F LT PUSH2 0x1633 JUMPI PUSH2 0x100 DUP1 DUP4 SLOAD DIV MUL DUP4 MSTORE SWAP2 PUSH1 0x20 ADD SWAP2 PUSH2 0x165E JUMP JUMPDEST DUP3 ADD SWAP2 SWAP1 PUSH1 0x0 MSTORE PUSH1 0x20 PUSH1 0x0 KECCAK256 SWAP1 JUMPDEST DUP2 SLOAD DUP2 MSTORE SWAP1 PUSH1 0x1 ADD SWAP1 PUSH1 0x20 ADD DUP1 DUP4 GT PUSH2 0x1641 JUMPI DUP3 SWAP1 SUB PUSH1 0x1F AND DUP3 ADD SWAP2 JUMPDEST POP POP POP POP POP DUP2 MSTORE PUSH1 0x20 ADD SWAP1 PUSH1 0x1 ADD SWAP1 PUSH2 0x15C6 JUMP JUMPDEST POP POP POP POP SWAP1 POP PUSH1 0x0 PUSH1 0xC DUP5 DUP2 SLOAD DUP2 LT PUSH2 0x168D JUMPI PUSH2 0x168D PUSH2 0x34D0 JUMP JUMPDEST SWAP1 PUSH1 0x0 MSTORE PUSH1 0x20 PUSH1 0x0 KECCAK256 SWAP1 PUSH1 0x5 MUL ADD PUSH1 0x3 ADD DUP1 SLOAD DUP1 PUSH1 0x20 MUL PUSH1 0x20 ADD PUSH1 0x40 MLOAD SWAP1 DUP2 ADD PUSH1 0x40 MSTORE DUP1 SWAP3 SWAP2 SWAP1 DUP2 DUP2 MSTORE PUSH1 0x20 ADD PUSH1 0x0 SWAP1 JUMPDEST DUP3 DUP3 LT ISZERO PUSH2 0x176A JUMPI DUP4 DUP3 SWAP1 PUSH1 0x0 MSTORE PUSH1 0x20 PUSH1 0x0 KECCAK256 ADD DUP1 SLOAD PUSH2 0x16DD SWAP1 PUSH2 0x3424 JUMP JUMPDEST DUP1 PUSH1 0x1F ADD PUSH1 0x20 DUP1 SWAP2 DIV MUL PUSH1 0x20 ADD PUSH1 0x40 MLOAD SWAP1 DUP2 ADD PUSH1 0x40 MSTORE DUP1 SWAP3 SWAP2 SWAP1 DUP2 DUP2 MSTORE PUSH1 0x20 ADD DUP3 DUP1 SLOAD PUSH2 0x1709 SWAP1 PUSH2 0x3424 JUMP JUMPDEST DUP1 ISZERO PUSH2 0x1756 JUMPI DUP1 PUSH1 0x1F LT PUSH2 0x172B JUMPI PUSH2 0x100 DUP1 DUP4 SLOAD DIV MUL DUP4 MSTORE SWAP2 PUSH1 0x20 ADD SWAP2 PUSH2 0x1756 JUMP JUMPDEST DUP3 ADD SWAP2 SWAP1 PUSH1 0x0 MSTORE PUSH1 0x20 PUSH1 0x0 KECCAK256 SWAP1 JUMPDEST DUP2 SLOAD DUP2 MSTORE SWAP1 PUSH1 0x1 ADD SWAP1 PUSH1 0x20 ADD DUP1 DUP4 GT PUSH2 0x1739 JUMPI DUP3 SWAP1 SUB PUSH1 0x1F AND DUP3 ADD SWAP2 JUMPDEST POP POP POP POP POP DUP2 MSTORE PUSH1 0x20 ADD SWAP1 PUSH1 0x1 ADD SWAP1 PUSH2 0x16BE JUMP JUMPDEST POP POP POP POP SWAP1 POP PUSH2 0x1778 PUSH2 0x2901 JUMP JUMPDEST PUSH1 0x40 MLOAD DUP1 PUSH2 0x120 ADD PUSH1 0x40 MSTORE DUP1 PUSH1 0xFD DUP2 MSTORE PUSH1 0x20 ADD PUSH2 0x3563 PUSH1 0xFD SWAP2 CODECOPY DUP2 MSTORE PUSH2 0x179E DUP8 DUP6 PUSH2 0xB82 JUMP JUMPDEST DUP2 PUSH1 0x1 PUSH1 0x20 MUL ADD DUP2 SWAP1 MSTORE POP PUSH1 0x40 MLOAD DUP1 PUSH1 0x60 ADD PUSH1 0x40 MSTORE DUP1 PUSH1 0x28 DUP2 MSTORE PUSH1 0x20 ADD PUSH2 0x36A0 PUSH1 0x28 SWAP2 CODECOPY PUSH1 0x40 DUP3 ADD MSTORE PUSH2 0x17D1 DUP8 DUP5 PUSH2 0x19C6 JUMP JUMPDEST PUSH1 0x60 DUP1 DUP4 ADD SWAP2 SWAP1 SWAP2 MSTORE PUSH1 0x40 DUP1 MLOAD SWAP2 DUP3 ADD SWAP1 MSTORE PUSH1 0x28 DUP1 DUP3 MSTORE PUSH2 0x3513 PUSH1 0x20 DUP4 ADD CODECOPY PUSH1 0x80 DUP3 ADD MSTORE PUSH2 0x17FF DUP8 DUP4 PUSH2 0x18CB JUMP JUMPDEST PUSH1 0xA0 DUP3 ADD MSTORE PUSH1 0x40 DUP1 MLOAD PUSH1 0x60 DUP2 ADD SWAP1 SWAP2 MSTORE PUSH1 0x28 DUP1 DUP3 MSTORE PUSH2 0x353B PUSH1 0x20 DUP4 ADD CODECOPY PUSH1 0xC0 DUP3 ADD MSTORE PUSH1 0x40 DUP1 MLOAD DUP1 DUP3 ADD SWAP1 SWAP2 MSTORE PUSH1 0xD DUP2 MSTORE PUSH13 0x1E17BA32BC3A1F1E17B9BB339F PUSH1 0x99 SHL PUSH1 0x20 DUP3 ADD MSTORE DUP2 PUSH1 0x7 PUSH1 0x20 SWAP1 DUP2 MUL SWAP2 SWAP1 SWAP2 ADD SWAP2 SWAP1 SWAP2 MSTORE DUP2 MLOAD DUP3 DUP3 ADD MLOAD PUSH1 0x40 DUP1 DUP6 ADD MLOAD PUSH1 0x60 DUP7 ADD MLOAD PUSH1 0x80 DUP8 ADD MLOAD PUSH1 0xA0 DUP9 ADD MLOAD PUSH1 0xC0 DUP10 ADD MLOAD SWAP5 MLOAD PUSH1 0x0 SWAP9 PUSH2 0x1887 SWAP9 SWAP8 SWAP7 SWAP2 ADD PUSH2 0x2E04 JUMP JUMPDEST PUSH1 0x40 DUP1 MLOAD DUP1 DUP4 SUB PUSH1 0x1F NOT ADD DUP2 MSTORE SWAP1 DUP3 SWAP1 MSTORE PUSH1 0xE0 DUP5 ADD MLOAD SWAP1 SWAP3 POP PUSH2 0x18AF SWAP2 DUP4 SWAP2 SWAP1 PUSH1 0x20 ADD PUSH2 0x2DD5 JUMP JUMPDEST PUSH1 0x40 DUP1 MLOAD PUSH1 0x1F NOT DUP2 DUP5 SUB ADD DUP2 MSTORE SWAP2 SWAP1 MSTORE SWAP9 SWAP8 POP POP POP POP POP POP POP POP JUMP JUMPDEST PUSH1 0x60 PUSH2 0xBAD DUP4 PUSH1 0x40 MLOAD DUP1 PUSH1 0x40 ADD PUSH1 0x40 MSTORE DUP1 PUSH1 0xB DUP2 MSTORE PUSH1 0x20 ADD PUSH11 0x4143434553534F52494553 PUSH1 0xA8 SHL DUP2 MSTORE POP DUP5 PUSH2 0x1E9E JUMP JUMPDEST PUSH1 0xB SLOAD PUSH1 0x1 PUSH1 0x1 PUSH1 0xA0 SHL SUB AND CALLER EQ PUSH2 0x1955 JUMPI PUSH1 0x40 MLOAD PUSH3 0x461BCD PUSH1 0xE5 SHL DUP2 MSTORE PUSH1 0x20 PUSH1 0x4 DUP3 ADD DUP2 SWAP1 MSTORE PUSH1 0x24 DUP3 ADD MSTORE PUSH32 0x4F776E61626C653A2063616C6C6572206973206E6F7420746865206F776E6572 PUSH1 0x44 DUP3 ADD MSTORE PUSH1 0x64 ADD PUSH2 0x6EA JUMP JUMPDEST PUSH1 0x1 PUSH1 0x1 PUSH1 0xA0 SHL SUB DUP2 AND PUSH2 0x19BA JUMPI PUSH1 0x40 MLOAD PUSH3 0x461BCD PUSH1 0xE5 SHL DUP2 MSTORE PUSH1 0x20 PUSH1 0x4 DUP3 ADD MSTORE PUSH1 0x26 PUSH1 0x24 DUP3 ADD MSTORE PUSH32 0x4F776E61626C653A206E6577206F776E657220697320746865207A65726F2061 PUSH1 0x44 DUP3 ADD MSTORE PUSH6 0x646472657373 PUSH1 0xD0 SHL PUSH1 0x64 DUP3 ADD MSTORE PUSH1 0x84 ADD PUSH2 0x6EA JUMP JUMPDEST PUSH2 0x19C3 DUP2 PUSH2 0x2163 JUMP JUMPDEST POP JUMP JUMPDEST PUSH1 0x60 PUSH2 0xBAD DUP4 PUSH1 0x40 MLOAD DUP1 PUSH1 0x40 ADD PUSH1 0x40 MSTORE DUP1 PUSH1 0x6 DUP2 MSTORE PUSH1 0x20 ADD PUSH6 0x415454495245 PUSH1 0xD0 SHL DUP2 MSTORE POP DUP5 PUSH2 0x1E9E JUMP JUMPDEST PUSH1 0x0 PUSH1 0x1 PUSH1 0x1 PUSH1 0xE0 SHL SUB NOT DUP3 AND PUSH4 0x80AC58CD PUSH1 0xE0 SHL EQ DUP1 PUSH2 0x1A22 JUMPI POP PUSH1 0x1 PUSH1 0x1 PUSH1 0xE0 SHL SUB NOT DUP3 AND PUSH4 0x5B5E139F PUSH1 0xE0 SHL EQ JUMPDEST DUP1 PUSH2 0x5DD JUMPI POP PUSH4 0x1FFC9A7 PUSH1 0xE0 SHL PUSH1 0x1 PUSH1 0x1 PUSH1 0xE0 SHL SUB NOT DUP4 AND EQ PUSH2 0x5DD JUMP JUMPDEST PUSH1 0x0 DUP2 DUP2 MSTORE PUSH1 0x4 PUSH1 0x20 MSTORE PUSH1 0x40 SWAP1 KECCAK256 DUP1 SLOAD PUSH1 0x1 PUSH1 0x1 PUSH1 0xA0 SHL SUB NOT AND PUSH1 0x1 PUSH1 0x1 PUSH1 0xA0 SHL SUB DUP5 AND SWAP1 DUP2 OR SWAP1 SWAP2 SSTORE DUP2 SWAP1 PUSH2 0x1A76 DUP3 PUSH2 0xB0B JUMP JUMPDEST PUSH1 0x1 PUSH1 0x1 PUSH1 0xA0 SHL SUB AND PUSH32 0x8C5BE1E5EBEC7D5BD14F71427D1E84F3DD0314C0F7B2291E5B200AC8C7C3B925 PUSH1 0x40 MLOAD PUSH1 0x40 MLOAD DUP1 SWAP2 SUB SWAP1 LOG4 POP POP JUMP JUMPDEST PUSH1 0x0 DUP2 DUP2 MSTORE PUSH1 0x2 PUSH1 0x20 MSTORE PUSH1 0x40 DUP2 KECCAK256 SLOAD PUSH1 0x1 PUSH1 0x1 PUSH1 0xA0 SHL SUB AND PUSH2 0x1B28 JUMPI PUSH1 0x40 MLOAD PUSH3 0x461BCD PUSH1 0xE5 SHL DUP2 MSTORE PUSH1 0x20 PUSH1 0x4 DUP3 ADD MSTORE PUSH1 0x2C PUSH1 0x24 DUP3 ADD MSTORE PUSH32 0x4552433732313A206F70657261746F7220717565727920666F72206E6F6E6578 PUSH1 0x44 DUP3 ADD MSTORE PUSH12 0x34B9BA32B73A103A37B5B2B7 PUSH1 0xA1 SHL PUSH1 0x64 DUP3 ADD MSTORE PUSH1 0x84 ADD PUSH2 0x6EA JUMP JUMPDEST PUSH1 0x0 PUSH2 0x1B33 DUP4 PUSH2 0xB0B JUMP JUMPDEST SWAP1 POP DUP1 PUSH1 0x1 PUSH1 0x1 PUSH1 0xA0 SHL SUB AND DUP5 PUSH1 0x1 PUSH1 0x1 PUSH1 0xA0 SHL SUB AND EQ DUP1 PUSH2 0x1B6E JUMPI POP DUP4 PUSH1 0x1 PUSH1 0x1 PUSH1 0xA0 SHL SUB AND PUSH2 0x1B63 DUP5 PUSH2 0x675 JUMP JUMPDEST PUSH1 0x1 PUSH1 0x1 PUSH1 0xA0 SHL SUB AND EQ JUMPDEST DUP1 PUSH2 0x1B9E JUMPI POP PUSH1 0x1 PUSH1 0x1 PUSH1 0xA0 SHL SUB DUP1 DUP3 AND PUSH1 0x0 SWAP1 DUP2 MSTORE PUSH1 0x5 PUSH1 0x20 SWAP1 DUP2 MSTORE PUSH1 0x40 DUP1 DUP4 KECCAK256 SWAP4 DUP9 AND DUP4 MSTORE SWAP3 SWAP1 MSTORE KECCAK256 SLOAD PUSH1 0xFF AND JUMPDEST SWAP5 SWAP4 POP POP POP POP JUMP JUMPDEST DUP3 PUSH1 0x1 PUSH1 0x1 PUSH1 0xA0 SHL SUB AND PUSH2 0x1BB9 DUP3 PUSH2 0xB0B JUMP JUMPDEST PUSH1 0x1 PUSH1 0x1 PUSH1 0xA0 SHL SUB AND EQ PUSH2 0x1C21 JUMPI PUSH1 0x40 MLOAD PUSH3 0x461BCD PUSH1 0xE5 SHL DUP2 MSTORE PUSH1 0x20 PUSH1 0x4 DUP3 ADD MSTORE PUSH1 0x29 PUSH1 0x24 DUP3 ADD MSTORE PUSH32 0x4552433732313A207472616E73666572206F6620746F6B656E20746861742069 PUSH1 0x44 DUP3 ADD MSTORE PUSH9 0x39903737BA1037BBB7 PUSH1 0xB9 SHL PUSH1 0x64 DUP3 ADD MSTORE PUSH1 0x84 ADD PUSH2 0x6EA JUMP JUMPDEST PUSH1 0x1 PUSH1 0x1 PUSH1 0xA0 SHL SUB DUP3 AND PUSH2 0x1C83 JUMPI PUSH1 0x40 MLOAD PUSH3 0x461BCD PUSH1 0xE5 SHL DUP2 MSTORE PUSH1 0x20 PUSH1 0x4 DUP3 ADD MSTORE PUSH1 0x24 DUP1 DUP3 ADD MSTORE PUSH32 0x4552433732313A207472616E7366657220746F20746865207A65726F20616464 PUSH1 0x44 DUP3 ADD MSTORE PUSH4 0x72657373 PUSH1 0xE0 SHL PUSH1 0x64 DUP3 ADD MSTORE PUSH1 0x84 ADD PUSH2 0x6EA JUMP JUMPDEST PUSH2 0x1C8E DUP4 DUP4 DUP4 PUSH2 0x234E JUMP JUMPDEST PUSH2 0x1C99 PUSH1 0x0 DUP3 PUSH2 0x1A41 JUMP JUMPDEST PUSH1 0x1 PUSH1 0x1 PUSH1 0xA0 SHL SUB DUP4 AND PUSH1 0x0 SWAP1 DUP2 MSTORE PUSH1 0x3 PUSH1 0x20 MSTORE PUSH1 0x40 DUP2 KECCAK256 DUP1 SLOAD PUSH1 0x1 SWAP3 SWAP1 PUSH2 0x1CC2 SWAP1 DUP5 SWAP1 PUSH2 0x33E1 JUMP JUMPDEST SWAP1 SWAP2 SSTORE POP POP PUSH1 0x1 PUSH1 0x1 PUSH1 0xA0 SHL SUB DUP3 AND PUSH1 0x0 SWAP1 DUP2 MSTORE PUSH1 0x3 PUSH1 0x20 MSTORE PUSH1 0x40 DUP2 KECCAK256 DUP1 SLOAD PUSH1 0x1 SWAP3 SWAP1 PUSH2 0x1CF0 SWAP1 DUP5 SWAP1 PUSH2 0x3396 JUMP JUMPDEST SWAP1 SWAP2 SSTORE POP POP PUSH1 0x0 DUP2 DUP2 MSTORE PUSH1 0x2 PUSH1 0x20 MSTORE PUSH1 0x40 DUP1 DUP3 KECCAK256 DUP1 SLOAD PUSH1 0x1 PUSH1 0x1 PUSH1 0xA0 SHL SUB NOT AND PUSH1 0x1 PUSH1 0x1 PUSH1 0xA0 SHL SUB DUP7 DUP2 AND SWAP2 DUP3 OR SWAP1 SWAP3 SSTORE SWAP2 MLOAD DUP5 SWAP4 SWAP2 DUP8 AND SWAP2 PUSH32 0xDDF252AD1BE2C89B69C2B068FC378DAA952BA7F163C4A11628F55A4DF523B3EF SWAP2 LOG4 POP POP POP JUMP JUMPDEST PUSH1 0x60 DUP2 PUSH2 0x1D75 JUMPI POP POP PUSH1 0x40 DUP1 MLOAD DUP1 DUP3 ADD SWAP1 SWAP2 MSTORE PUSH1 0x1 DUP2 MSTORE PUSH1 0x3 PUSH1 0xFC SHL PUSH1 0x20 DUP3 ADD MSTORE SWAP1 JUMP JUMPDEST DUP2 PUSH1 0x0 JUMPDEST DUP2 ISZERO PUSH2 0x1D9F JUMPI DUP1 PUSH2 0x1D89 DUP2 PUSH2 0x345F JUMP JUMPDEST SWAP2 POP PUSH2 0x1D98 SWAP1 POP PUSH1 0xA DUP4 PUSH2 0x33AE JUMP JUMPDEST SWAP2 POP PUSH2 0x1D79 JUMP JUMPDEST PUSH1 0x0 DUP2 PUSH8 0xFFFFFFFFFFFFFFFF DUP2 GT ISZERO PUSH2 0x1DBA JUMPI PUSH2 0x1DBA PUSH2 0x34E6 JUMP JUMPDEST PUSH1 0x40 MLOAD SWAP1 DUP1 DUP3 MSTORE DUP1 PUSH1 0x1F ADD PUSH1 0x1F NOT AND PUSH1 0x20 ADD DUP3 ADD PUSH1 0x40 MSTORE DUP1 ISZERO PUSH2 0x1DE4 JUMPI PUSH1 0x20 DUP3 ADD DUP2 DUP1 CALLDATASIZE DUP4 CALLDATACOPY ADD SWAP1 POP JUMPDEST POP SWAP1 POP JUMPDEST DUP5 ISZERO PUSH2 0x1B9E JUMPI PUSH2 0x1DF9 PUSH1 0x1 DUP4 PUSH2 0x33E1 JUMP JUMPDEST SWAP2 POP PUSH2 0x1E06 PUSH1 0xA DUP7 PUSH2 0x347A JUMP JUMPDEST PUSH2 0x1E11 SWAP1 PUSH1 0x30 PUSH2 0x3396 JUMP JUMPDEST PUSH1 0xF8 SHL DUP2 DUP4 DUP2 MLOAD DUP2 LT PUSH2 0x1E26 JUMPI PUSH2 0x1E26 PUSH2 0x34D0 JUMP JUMPDEST PUSH1 0x20 ADD ADD SWAP1 PUSH1 0x1 PUSH1 0x1 PUSH1 0xF8 SHL SUB NOT AND SWAP1 DUP2 PUSH1 0x0 BYTE SWAP1 MSTORE8 POP PUSH2 0x1E48 PUSH1 0xA DUP7 PUSH2 0x33AE JUMP JUMPDEST SWAP5 POP PUSH2 0x1DE8 JUMP JUMPDEST PUSH1 0x0 DUP2 PUSH1 0x40 MLOAD PUSH1 0x20 ADD PUSH2 0x1E62 SWAP2 SWAP1 PUSH2 0x2DB9 JUMP JUMPDEST PUSH1 0x40 DUP1 MLOAD PUSH1 0x1F NOT DUP2 DUP5 SUB ADD DUP2 MSTORE SWAP2 SWAP1 MSTORE DUP1 MLOAD PUSH1 0x20 SWAP1 SWAP2 ADD KECCAK256 SWAP3 SWAP2 POP POP JUMP JUMPDEST PUSH2 0x1E9A DUP3 DUP3 PUSH1 0x40 MLOAD DUP1 PUSH1 0x20 ADD PUSH1 0x40 MSTORE DUP1 PUSH1 0x0 DUP2 MSTORE POP PUSH2 0x2406 JUMP JUMPDEST POP POP JUMP JUMPDEST PUSH1 0x60 PUSH1 0x0 PUSH2 0x1EC0 DUP5 PUSH2 0x1EAF DUP8 PUSH2 0x1D51 JUMP JUMPDEST PUSH1 0x40 MLOAD PUSH1 0x20 ADD PUSH2 0x980 SWAP3 SWAP2 SWAP1 PUSH2 0x2DD5 JUMP JUMPDEST SWAP1 POP PUSH1 0x0 DUP4 DUP5 MLOAD DUP4 PUSH2 0x1ED2 SWAP2 SWAP1 PUSH2 0x347A JUMP JUMPDEST DUP2 MLOAD DUP2 LT PUSH2 0x1EE2 JUMPI PUSH2 0x1EE2 PUSH2 0x34D0 JUMP JUMPDEST PUSH1 0x20 MUL PUSH1 0x20 ADD ADD MLOAD SWAP1 POP PUSH1 0x0 PUSH1 0x15 DUP4 PUSH2 0x1EFB SWAP2 SWAP1 PUSH2 0x347A JUMP JUMPDEST SWAP1 POP PUSH1 0xE DUP2 GT ISZERO PUSH2 0x1F54 JUMPI PUSH1 0x12 DUP1 SLOAD DUP4 SWAP2 SWAP1 PUSH2 0x1F17 SWAP1 DUP7 PUSH2 0x347A JUMP JUMPDEST DUP2 SLOAD DUP2 LT PUSH2 0x1F27 JUMPI PUSH2 0x1F27 PUSH2 0x34D0 JUMP JUMPDEST SWAP1 PUSH1 0x0 MSTORE PUSH1 0x20 PUSH1 0x0 KECCAK256 ADD PUSH1 0x40 MLOAD PUSH1 0x20 ADD PUSH2 0x1F42 SWAP3 SWAP2 SWAP1 PUSH2 0x2E96 JUMP JUMPDEST PUSH1 0x40 MLOAD PUSH1 0x20 DUP2 DUP4 SUB SUB DUP2 MSTORE SWAP1 PUSH1 0x40 MSTORE SWAP2 POP JUMPDEST PUSH1 0x13 DUP2 LT PUSH2 0x2159 JUMPI PUSH2 0x1F64 PUSH2 0x2929 JUMP JUMPDEST PUSH1 0x13 DUP1 SLOAD PUSH2 0x1F72 SWAP1 DUP7 PUSH2 0x347A JUMP JUMPDEST DUP2 SLOAD DUP2 LT PUSH2 0x1F82 JUMPI PUSH2 0x1F82 PUSH2 0x34D0 JUMP JUMPDEST SWAP1 PUSH1 0x0 MSTORE PUSH1 0x20 PUSH1 0x0 KECCAK256 ADD DUP1 SLOAD PUSH2 0x1F97 SWAP1 PUSH2 0x3424 JUMP JUMPDEST DUP1 PUSH1 0x1F ADD PUSH1 0x20 DUP1 SWAP2 DIV MUL PUSH1 0x20 ADD PUSH1 0x40 MLOAD SWAP1 DUP2 ADD PUSH1 0x40 MSTORE DUP1 SWAP3 SWAP2 SWAP1 DUP2 DUP2 MSTORE PUSH1 0x20 ADD DUP3 DUP1 SLOAD PUSH2 0x1FC3 SWAP1 PUSH2 0x3424 JUMP JUMPDEST DUP1 ISZERO PUSH2 0x2010 JUMPI DUP1 PUSH1 0x1F LT PUSH2 0x1FE5 JUMPI PUSH2 0x100 DUP1 DUP4 SLOAD DIV MUL DUP4 MSTORE SWAP2 PUSH1 0x20 ADD SWAP2 PUSH2 0x2010 JUMP JUMPDEST DUP3 ADD SWAP2 SWAP1 PUSH1 0x0 MSTORE PUSH1 0x20 PUSH1 0x0 KECCAK256 SWAP1 JUMPDEST DUP2 SLOAD DUP2 MSTORE SWAP1 PUSH1 0x1 ADD SWAP1 PUSH1 0x20 ADD DUP1 DUP4 GT PUSH2 0x1FF3 JUMPI DUP3 SWAP1 SUB PUSH1 0x1F AND DUP3 ADD SWAP2 JUMPDEST POP POP POP POP POP DUP2 PUSH1 0x0 PUSH1 0x2 DUP2 LT PUSH2 0x2028 JUMPI PUSH2 0x2028 PUSH2 0x34D0 JUMP JUMPDEST PUSH1 0x20 MUL ADD MSTORE PUSH1 0x14 DUP1 SLOAD PUSH2 0x203B SWAP1 DUP7 PUSH2 0x347A JUMP JUMPDEST DUP2 SLOAD DUP2 LT PUSH2 0x204B JUMPI PUSH2 0x204B PUSH2 0x34D0 JUMP JUMPDEST SWAP1 PUSH1 0x0 MSTORE PUSH1 0x20 PUSH1 0x0 KECCAK256 ADD DUP1 SLOAD PUSH2 0x2060 SWAP1 PUSH2 0x3424 JUMP JUMPDEST DUP1 PUSH1 0x1F ADD PUSH1 0x20 DUP1 SWAP2 DIV MUL PUSH1 0x20 ADD PUSH1 0x40 MLOAD SWAP1 DUP2 ADD PUSH1 0x40 MSTORE DUP1 SWAP3 SWAP2 SWAP1 DUP2 DUP2 MSTORE PUSH1 0x20 ADD DUP3 DUP1 SLOAD PUSH2 0x208C SWAP1 PUSH2 0x3424 JUMP JUMPDEST DUP1 ISZERO PUSH2 0x20D9 JUMPI DUP1 PUSH1 0x1F LT PUSH2 0x20AE JUMPI PUSH2 0x100 DUP1 DUP4 SLOAD DIV MUL DUP4 MSTORE SWAP2 PUSH1 0x20 ADD SWAP2 PUSH2 0x20D9 JUMP JUMPDEST DUP3 ADD SWAP2 SWAP1 PUSH1 0x0 MSTORE PUSH1 0x20 PUSH1 0x0 KECCAK256 SWAP1 JUMPDEST DUP2 SLOAD DUP2 MSTORE SWAP1 PUSH1 0x1 ADD SWAP1 PUSH1 0x20 ADD DUP1 DUP4 GT PUSH2 0x20BC JUMPI DUP3 SWAP1 SUB PUSH1 0x1F AND DUP3 ADD SWAP2 JUMPDEST POP POP POP POP POP DUP2 PUSH1 0x1 PUSH1 0x2 DUP2 LT PUSH2 0x20F1 JUMPI PUSH2 0x20F1 PUSH2 0x34D0 JUMP JUMPDEST PUSH1 0x20 MUL ADD MSTORE PUSH1 0x13 DUP3 EQ ISZERO PUSH2 0x212D JUMPI DUP1 MLOAD PUSH1 0x20 DUP1 DUP4 ADD MLOAD PUSH1 0x40 MLOAD PUSH2 0x2117 SWAP4 SWAP3 DUP8 SWAP2 ADD PUSH2 0x2F81 JUMP JUMPDEST PUSH1 0x40 MLOAD PUSH1 0x20 DUP2 DUP4 SUB SUB DUP2 MSTORE SWAP1 PUSH1 0x40 MSTORE SWAP3 POP PUSH2 0x2157 JUMP JUMPDEST DUP1 MLOAD PUSH1 0x20 DUP1 DUP4 ADD MLOAD PUSH1 0x40 MLOAD PUSH2 0x2145 SWAP4 SWAP3 DUP8 SWAP2 ADD PUSH2 0x2FEF JUMP JUMPDEST PUSH1 0x40 MLOAD PUSH1 0x20 DUP2 DUP4 SUB SUB DUP2 MSTORE SWAP1 PUSH1 0x40 MSTORE SWAP3 POP JUMPDEST POP JUMPDEST POP SWAP6 SWAP5 POP POP POP POP POP JUMP JUMPDEST PUSH1 0xB DUP1 SLOAD PUSH1 0x1 PUSH1 0x1 PUSH1 0xA0 SHL SUB DUP4 DUP2 AND PUSH1 0x1 PUSH1 0x1 PUSH1 0xA0 SHL SUB NOT DUP4 AND DUP2 OR SWAP1 SWAP4 SSTORE PUSH1 0x40 MLOAD SWAP2 AND SWAP2 SWAP1 DUP3 SWAP1 PUSH32 0x8BE0079C531659141344CD1FD0A4F28419497F9722A3DAAFE3B4186F6B6457E0 SWAP1 PUSH1 0x0 SWAP1 LOG3 POP POP JUMP JUMPDEST PUSH2 0x21C0 DUP5 DUP5 DUP5 PUSH2 0x1BA6 JUMP JUMPDEST PUSH2 0x21CC DUP5 DUP5 DUP5 DUP5 PUSH2 0x2439 JUMP JUMPDEST PUSH2 0xFB8 JUMPI PUSH1 0x40 MLOAD PUSH3 0x461BCD PUSH1 0xE5 SHL DUP2 MSTORE PUSH1 0x4 ADD PUSH2 0x6EA SWAP1 PUSH2 0x32C2 JUMP JUMPDEST DUP1 MLOAD PUSH1 0x60 SWAP1 DUP1 PUSH2 0x2208 JUMPI POP POP PUSH1 0x40 DUP1 MLOAD PUSH1 0x20 DUP2 ADD SWAP1 SWAP2 MSTORE PUSH1 0x0 DUP2 MSTORE SWAP2 SWAP1 POP JUMP JUMPDEST PUSH1 0x0 PUSH1 0x3 PUSH2 0x2217 DUP4 PUSH1 0x2 PUSH2 0x3396 JUMP JUMPDEST PUSH2 0x2221 SWAP2 SWAP1 PUSH2 0x33AE JUMP JUMPDEST PUSH2 0x222C SWAP1 PUSH1 0x4 PUSH2 0x33C2 JUMP JUMPDEST SWAP1 POP PUSH1 0x0 PUSH2 0x223B DUP3 PUSH1 0x20 PUSH2 0x3396 JUMP JUMPDEST PUSH8 0xFFFFFFFFFFFFFFFF DUP2 GT ISZERO PUSH2 0x2253 JUMPI PUSH2 0x2253 PUSH2 0x34E6 JUMP JUMPDEST PUSH1 0x40 MLOAD SWAP1 DUP1 DUP3 MSTORE DUP1 PUSH1 0x1F ADD PUSH1 0x1F NOT AND PUSH1 0x20 ADD DUP3 ADD PUSH1 0x40 MSTORE DUP1 ISZERO PUSH2 0x227D JUMPI PUSH1 0x20 DUP3 ADD DUP2 DUP1 CALLDATASIZE DUP4 CALLDATACOPY ADD SWAP1 POP JUMPDEST POP SWAP1 POP PUSH1 0x0 PUSH1 0x40 MLOAD DUP1 PUSH1 0x60 ADD PUSH1 0x40 MSTORE DUP1 PUSH1 0x40 DUP2 MSTORE PUSH1 0x20 ADD PUSH2 0x3660 PUSH1 0x40 SWAP2 CODECOPY SWAP1 POP PUSH1 0x1 DUP2 ADD PUSH1 0x20 DUP4 ADD PUSH1 0x0 JUMPDEST DUP7 DUP2 LT ISZERO PUSH2 0x2309 JUMPI PUSH1 0x3 DUP2 DUP11 ADD DUP2 ADD MLOAD PUSH1 0x3F PUSH1 0x12 DUP3 SWAP1 SHR DUP2 AND DUP7 ADD MLOAD PUSH1 0xC DUP4 SWAP1 SHR DUP3 AND DUP8 ADD MLOAD PUSH1 0x6 DUP5 SWAP1 SHR DUP4 AND DUP9 ADD MLOAD SWAP3 SWAP1 SWAP4 AND DUP8 ADD MLOAD PUSH1 0x8 SWAP2 DUP3 SHL PUSH1 0xFF SWAP5 DUP6 AND ADD DUP3 SHL SWAP3 DUP5 AND SWAP3 SWAP1 SWAP3 ADD SWAP1 SHL SWAP2 AND ADD PUSH1 0xE0 SHL DUP4 MSTORE PUSH1 0x4 SWAP1 SWAP3 ADD SWAP2 ADD PUSH2 0x22A8 JUMP JUMPDEST POP PUSH1 0x3 DUP7 MOD PUSH1 0x1 DUP2 EQ PUSH2 0x2323 JUMPI PUSH1 0x2 DUP2 EQ PUSH2 0x2334 JUMPI PUSH2 0x2340 JUMP JUMPDEST PUSH2 0x3D3D PUSH1 0xF0 SHL PUSH1 0x1 NOT DUP4 ADD MSTORE PUSH2 0x2340 JUMP JUMPDEST PUSH1 0x3D PUSH1 0xF8 SHL PUSH1 0x0 NOT DUP4 ADD MSTORE JUMPDEST POP POP POP SWAP2 DUP2 MSTORE SWAP5 SWAP4 POP POP POP POP JUMP JUMPDEST PUSH1 0x1 PUSH1 0x1 PUSH1 0xA0 SHL SUB DUP4 AND PUSH2 0x23A9 JUMPI PUSH2 0x23A4 DUP2 PUSH1 0x8 DUP1 SLOAD PUSH1 0x0 DUP4 DUP2 MSTORE PUSH1 0x9 PUSH1 0x20 MSTORE PUSH1 0x40 DUP2 KECCAK256 DUP3 SWAP1 SSTORE PUSH1 0x1 DUP3 ADD DUP4 SSTORE SWAP2 SWAP1 SWAP2 MSTORE PUSH32 0xF3F7A9FE364FAAB93B216DA50A3214154F22A0A2B415B23A84C8169E8B636EE3 ADD SSTORE JUMP JUMPDEST PUSH2 0x23CC JUMP JUMPDEST DUP2 PUSH1 0x1 PUSH1 0x1 PUSH1 0xA0 SHL SUB AND DUP4 PUSH1 0x1 PUSH1 0x1 PUSH1 0xA0 SHL SUB AND EQ PUSH2 0x23CC JUMPI PUSH2 0x23CC DUP4 DUP3 PUSH2 0x2546 JUMP JUMPDEST PUSH1 0x1 PUSH1 0x1 PUSH1 0xA0 SHL SUB DUP3 AND PUSH2 0x23E3 JUMPI PUSH2 0x820 DUP2 PUSH2 0x25E3 JUMP JUMPDEST DUP3 PUSH1 0x1 PUSH1 0x1 PUSH1 0xA0 SHL SUB AND DUP3 PUSH1 0x1 PUSH1 0x1 PUSH1 0xA0 SHL SUB AND EQ PUSH2 0x820 JUMPI PUSH2 0x820 DUP3 DUP3 PUSH2 0x2692 JUMP JUMPDEST PUSH2 0x2410 DUP4 DUP4 PUSH2 0x26D6 JUMP JUMPDEST PUSH2 0x241D PUSH1 0x0 DUP5 DUP5 DUP5 PUSH2 0x2439 JUMP JUMPDEST PUSH2 0x820 JUMPI PUSH1 0x40 MLOAD PUSH3 0x461BCD PUSH1 0xE5 SHL DUP2 MSTORE PUSH1 0x4 ADD PUSH2 0x6EA SWAP1 PUSH2 0x32C2 JUMP JUMPDEST PUSH1 0x0 PUSH1 0x1 PUSH1 0x1 PUSH1 0xA0 SHL SUB DUP5 AND EXTCODESIZE ISZERO PUSH2 0x253B JUMPI PUSH1 0x40 MLOAD PUSH4 0xA85BD01 PUSH1 0xE1 SHL DUP2 MSTORE PUSH1 0x1 PUSH1 0x1 PUSH1 0xA0 SHL SUB DUP6 AND SWAP1 PUSH4 0x150B7A02 SWAP1 PUSH2 0x247D SWAP1 CALLER SWAP1 DUP10 SWAP1 DUP9 SWAP1 DUP9 SWAP1 PUSH1 0x4 ADD PUSH2 0x3248 JUMP JUMPDEST PUSH1 0x20 PUSH1 0x40 MLOAD DUP1 DUP4 SUB DUP2 PUSH1 0x0 DUP8 DUP1 EXTCODESIZE ISZERO DUP1 ISZERO PUSH2 0x2497 JUMPI PUSH1 0x0 DUP1 REVERT JUMPDEST POP GAS CALL SWAP3 POP POP POP DUP1 ISZERO PUSH2 0x24C7 JUMPI POP PUSH1 0x40 DUP1 MLOAD PUSH1 0x1F RETURNDATASIZE SWAP1 DUP2 ADD PUSH1 0x1F NOT AND DUP3 ADD SWAP1 SWAP3 MSTORE PUSH2 0x24C4 SWAP2 DUP2 ADD SWAP1 PUSH2 0x2C6F JUMP JUMPDEST PUSH1 0x1 JUMPDEST PUSH2 0x2521 JUMPI RETURNDATASIZE DUP1 DUP1 ISZERO PUSH2 0x24F5 JUMPI PUSH1 0x40 MLOAD SWAP2 POP PUSH1 0x1F NOT PUSH1 0x3F RETURNDATASIZE ADD AND DUP3 ADD PUSH1 0x40 MSTORE RETURNDATASIZE DUP3 MSTORE RETURNDATASIZE PUSH1 0x0 PUSH1 0x20 DUP5 ADD RETURNDATACOPY PUSH2 0x24FA JUMP JUMPDEST PUSH1 0x60 SWAP2 POP JUMPDEST POP DUP1 MLOAD PUSH2 0x2519 JUMPI PUSH1 0x40 MLOAD PUSH3 0x461BCD PUSH1 0xE5 SHL DUP2 MSTORE PUSH1 0x4 ADD PUSH2 0x6EA SWAP1 PUSH2 0x32C2 JUMP JUMPDEST DUP1 MLOAD DUP2 PUSH1 0x20 ADD REVERT JUMPDEST PUSH1 0x1 PUSH1 0x1 PUSH1 0xE0 SHL SUB NOT AND PUSH4 0xA85BD01 PUSH1 0xE1 SHL EQ SWAP1 POP PUSH2 0x1B9E JUMP JUMPDEST POP PUSH1 0x1 SWAP5 SWAP4 POP POP POP POP JUMP JUMPDEST PUSH1 0x0 PUSH1 0x1 PUSH2 0x2553 DUP5 PUSH2 0xBB4 JUMP JUMPDEST PUSH2 0x255D SWAP2 SWAP1 PUSH2 0x33E1 JUMP JUMPDEST PUSH1 0x0 DUP4 DUP2 MSTORE PUSH1 0x7 PUSH1 0x20 MSTORE PUSH1 0x40 SWAP1 KECCAK256 SLOAD SWAP1 SWAP2 POP DUP1 DUP3 EQ PUSH2 0x25B0 JUMPI PUSH1 0x1 PUSH1 0x1 PUSH1 0xA0 SHL SUB DUP5 AND PUSH1 0x0 SWAP1 DUP2 MSTORE PUSH1 0x6 PUSH1 0x20 SWAP1 DUP2 MSTORE PUSH1 0x40 DUP1 DUP4 KECCAK256 DUP6 DUP5 MSTORE DUP3 MSTORE DUP1 DUP4 KECCAK256 SLOAD DUP5 DUP5 MSTORE DUP2 DUP5 KECCAK256 DUP2 SWAP1 SSTORE DUP4 MSTORE PUSH1 0x7 SWAP1 SWAP2 MSTORE SWAP1 KECCAK256 DUP2 SWAP1 SSTORE JUMPDEST POP PUSH1 0x0 SWAP2 DUP3 MSTORE PUSH1 0x7 PUSH1 0x20 SWAP1 DUP2 MSTORE PUSH1 0x40 DUP1 DUP5 KECCAK256 DUP5 SWAP1 SSTORE PUSH1 0x1 PUSH1 0x1 PUSH1 0xA0 SHL SUB SWAP1 SWAP5 AND DUP4 MSTORE PUSH1 0x6 DUP2 MSTORE DUP4 DUP4 KECCAK256 SWAP2 DUP4 MSTORE MSTORE SWAP1 DUP2 KECCAK256 SSTORE JUMP JUMPDEST PUSH1 0x8 SLOAD PUSH1 0x0 SWAP1 PUSH2 0x25F5 SWAP1 PUSH1 0x1 SWAP1 PUSH2 0x33E1 JUMP JUMPDEST PUSH1 0x0 DUP4 DUP2 MSTORE PUSH1 0x9 PUSH1 0x20 MSTORE PUSH1 0x40 DUP2 KECCAK256 SLOAD PUSH1 0x8 DUP1 SLOAD SWAP4 SWAP5 POP SWAP1 SWAP3 DUP5 SWAP1 DUP2 LT PUSH2 0x261D JUMPI PUSH2 0x261D PUSH2 0x34D0 JUMP JUMPDEST SWAP1 PUSH1 0x0 MSTORE PUSH1 0x20 PUSH1 0x0 KECCAK256 ADD SLOAD SWAP1 POP DUP1 PUSH1 0x8 DUP4 DUP2 SLOAD DUP2 LT PUSH2 0x263E JUMPI PUSH2 0x263E PUSH2 0x34D0 JUMP JUMPDEST PUSH1 0x0 SWAP2 DUP3 MSTORE PUSH1 0x20 DUP1 DUP4 KECCAK256 SWAP1 SWAP2 ADD SWAP3 SWAP1 SWAP3 SSTORE DUP3 DUP2 MSTORE PUSH1 0x9 SWAP1 SWAP2 MSTORE PUSH1 0x40 DUP1 DUP3 KECCAK256 DUP5 SWAP1 SSTORE DUP6 DUP3 MSTORE DUP2 KECCAK256 SSTORE PUSH1 0x8 DUP1 SLOAD DUP1 PUSH2 0x2676 JUMPI PUSH2 0x2676 PUSH2 0x34BA JUMP JUMPDEST PUSH1 0x1 SWAP1 SUB DUP2 DUP2 SWAP1 PUSH1 0x0 MSTORE PUSH1 0x20 PUSH1 0x0 KECCAK256 ADD PUSH1 0x0 SWAP1 SSTORE SWAP1 SSTORE POP POP POP POP JUMP JUMPDEST PUSH1 0x0 PUSH2 0x269D DUP4 PUSH2 0xBB4 JUMP JUMPDEST PUSH1 0x1 PUSH1 0x1 PUSH1 0xA0 SHL SUB SWAP1 SWAP4 AND PUSH1 0x0 SWAP1 DUP2 MSTORE PUSH1 0x6 PUSH1 0x20 SWAP1 DUP2 MSTORE PUSH1 0x40 DUP1 DUP4 KECCAK256 DUP7 DUP5 MSTORE DUP3 MSTORE DUP1 DUP4 KECCAK256 DUP6 SWAP1 SSTORE SWAP4 DUP3 MSTORE PUSH1 0x7 SWAP1 MSTORE SWAP2 SWAP1 SWAP2 KECCAK256 SWAP2 SWAP1 SWAP2 SSTORE POP JUMP JUMPDEST PUSH1 0x1 PUSH1 0x1 PUSH1 0xA0 SHL SUB DUP3 AND PUSH2 0x272C JUMPI PUSH1 0x40 MLOAD PUSH3 0x461BCD PUSH1 0xE5 SHL DUP2 MSTORE PUSH1 0x20 PUSH1 0x4 DUP3 ADD DUP2 SWAP1 MSTORE PUSH1 0x24 DUP3 ADD MSTORE PUSH32 0x4552433732313A206D696E7420746F20746865207A65726F2061646472657373 PUSH1 0x44 DUP3 ADD MSTORE PUSH1 0x64 ADD PUSH2 0x6EA JUMP JUMPDEST PUSH1 0x0 DUP2 DUP2 MSTORE PUSH1 0x2 PUSH1 0x20 MSTORE PUSH1 0x40 SWAP1 KECCAK256 SLOAD PUSH1 0x1 PUSH1 0x1 PUSH1 0xA0 SHL SUB AND ISZERO PUSH2 0x2791 JUMPI PUSH1 0x40 MLOAD PUSH3 0x461BCD PUSH1 0xE5 SHL DUP2 MSTORE PUSH1 0x20 PUSH1 0x4 DUP3 ADD MSTORE PUSH1 0x1C PUSH1 0x24 DUP3 ADD MSTORE PUSH32 0x4552433732313A20746F6B656E20616C7265616479206D696E74656400000000 PUSH1 0x44 DUP3 ADD MSTORE PUSH1 0x64 ADD PUSH2 0x6EA JUMP JUMPDEST PUSH2 0x279D PUSH1 0x0 DUP4 DUP4 PUSH2 0x234E JUMP JUMPDEST PUSH1 0x1 PUSH1 0x1 PUSH1 0xA0 SHL SUB DUP3 AND PUSH1 0x0 SWAP1 DUP2 MSTORE PUSH1 0x3 PUSH1 0x20 MSTORE PUSH1 0x40 DUP2 KECCAK256 DUP1 SLOAD PUSH1 0x1 SWAP3 SWAP1 PUSH2 0x27C6 SWAP1 DUP5 SWAP1 PUSH2 0x3396 JUMP JUMPDEST SWAP1 SWAP2 SSTORE POP POP PUSH1 0x0 DUP2 DUP2 MSTORE PUSH1 0x2 PUSH1 0x20 MSTORE PUSH1 0x40 DUP1 DUP3 KECCAK256 DUP1 SLOAD PUSH1 0x1 PUSH1 0x1 PUSH1 0xA0 SHL SUB NOT AND PUSH1 0x1 PUSH1 0x1 PUSH1 0xA0 SHL SUB DUP7 AND SWAP1 DUP2 OR SWAP1 SWAP2 SSTORE SWAP1 MLOAD DUP4 SWAP3 SWAP1 PUSH32 0xDDF252AD1BE2C89B69C2B068FC378DAA952BA7F163C4A11628F55A4DF523B3EF SWAP1 DUP3 SWAP1 LOG4 POP POP JUMP JUMPDEST DUP3 DUP1 SLOAD PUSH2 0x2830 SWAP1 PUSH2 0x3424 JUMP JUMPDEST SWAP1 PUSH1 0x0 MSTORE PUSH1 0x20 PUSH1 0x0 KECCAK256 SWAP1 PUSH1 0x1F ADD PUSH1 0x20 SWAP1 DIV DUP2 ADD SWAP3 DUP3 PUSH2 0x2852 JUMPI PUSH1 0x0 DUP6 SSTORE PUSH2 0x2898 JUMP JUMPDEST DUP3 PUSH1 0x1F LT PUSH2 0x286B JUMPI DUP1 MLOAD PUSH1 0xFF NOT AND DUP4 DUP1 ADD OR DUP6 SSTORE PUSH2 0x2898 JUMP JUMPDEST DUP3 DUP1 ADD PUSH1 0x1 ADD DUP6 SSTORE DUP3 ISZERO PUSH2 0x2898 JUMPI SWAP2 DUP3 ADD JUMPDEST DUP3 DUP2 GT ISZERO PUSH2 0x2898 JUMPI DUP3 MLOAD DUP3 SSTORE SWAP2 PUSH1 0x20 ADD SWAP2 SWAP1 PUSH1 0x1 ADD SWAP1 PUSH2 0x287D JUMP JUMPDEST POP PUSH2 0x28A4 SWAP3 SWAP2 POP PUSH2 0x2942 JUMP JUMPDEST POP SWAP1 JUMP JUMPDEST DUP3 DUP1 SLOAD DUP3 DUP3 SSTORE SWAP1 PUSH1 0x0 MSTORE PUSH1 0x20 PUSH1 0x0 KECCAK256 SWAP1 DUP2 ADD SWAP3 DUP3 ISZERO PUSH2 0x28F5 JUMPI SWAP2 PUSH1 0x20 MUL DUP3 ADD JUMPDEST DUP3 DUP2 GT ISZERO PUSH2 0x28F5 JUMPI DUP3 MLOAD DUP1 MLOAD PUSH2 0x28E5 SWAP2 DUP5 SWAP2 PUSH1 0x20 SWAP1 SWAP2 ADD SWAP1 PUSH2 0x2824 JUMP JUMPDEST POP SWAP2 PUSH1 0x20 ADD SWAP2 SWAP1 PUSH1 0x1 ADD SWAP1 PUSH2 0x28C8 JUMP JUMPDEST POP PUSH2 0x28A4 SWAP3 SWAP2 POP PUSH2 0x2957 JUMP JUMPDEST PUSH1 0x40 MLOAD DUP1 PUSH2 0x100 ADD PUSH1 0x40 MSTORE DUP1 PUSH1 0x8 SWAP1 JUMPDEST PUSH1 0x60 DUP2 MSTORE PUSH1 0x20 ADD SWAP1 PUSH1 0x1 SWAP1 SUB SWAP1 DUP2 PUSH2 0x2911 JUMPI SWAP1 POP POP SWAP1 JUMP JUMPDEST PUSH1 0x40 DUP1 MLOAD DUP1 DUP3 ADD SWAP1 SWAP2 MSTORE PUSH1 0x60 DUP2 MSTORE PUSH1 0x1 PUSH1 0x20 DUP3 ADD PUSH2 0x2911 JUMP JUMPDEST JUMPDEST DUP1 DUP3 GT ISZERO PUSH2 0x28A4 JUMPI PUSH1 0x0 DUP2 SSTORE PUSH1 0x1 ADD PUSH2 0x2943 JUMP JUMPDEST DUP1 DUP3 GT ISZERO PUSH2 0x28A4 JUMPI PUSH1 0x0 PUSH2 0x296B DUP3 DUP3 PUSH2 0x2974 JUMP JUMPDEST POP PUSH1 0x1 ADD PUSH2 0x2957 JUMP JUMPDEST POP DUP1 SLOAD PUSH2 0x2980 SWAP1 PUSH2 0x3424 JUMP JUMPDEST PUSH1 0x0 DUP3 SSTORE DUP1 PUSH1 0x1F LT PUSH2 0x2990 JUMPI POP POP JUMP JUMPDEST PUSH1 0x1F ADD PUSH1 0x20 SWAP1 DIV SWAP1 PUSH1 0x0 MSTORE PUSH1 0x20 PUSH1 0x0 KECCAK256 SWAP1 DUP2 ADD SWAP1 PUSH2 0x19C3 SWAP2 SWAP1 PUSH2 0x2942 JUMP JUMPDEST PUSH1 0x0 PUSH8 0xFFFFFFFFFFFFFFFF DUP4 GT ISZERO PUSH2 0x29C8 JUMPI PUSH2 0x29C8 PUSH2 0x34E6 JUMP JUMPDEST PUSH2 0x29DB PUSH1 0x1F DUP5 ADD PUSH1 0x1F NOT AND PUSH1 0x20 ADD PUSH2 0x3365 JUMP JUMPDEST SWAP1 POP DUP3 DUP2 MSTORE DUP4 DUP4 DUP4 ADD GT ISZERO PUSH2 0x29EF JUMPI PUSH1 0x0 DUP1 REVERT JUMPDEST DUP3 DUP3 PUSH1 0x20 DUP4 ADD CALLDATACOPY PUSH1 0x0 PUSH1 0x20 DUP5 DUP4 ADD ADD MSTORE SWAP4 SWAP3 POP POP POP JUMP JUMPDEST DUP1 CALLDATALOAD PUSH1 0x1 PUSH1 0x1 PUSH1 0xA0 SHL SUB DUP2 AND DUP2 EQ PUSH2 0x2A1D JUMPI PUSH1 0x0 DUP1 REVERT JUMPDEST SWAP2 SWAP1 POP JUMP JUMPDEST PUSH1 0x0 DUP3 PUSH1 0x1F DUP4 ADD SLT PUSH2 0x2A33 JUMPI PUSH1 0x0 DUP1 REVERT JUMPDEST DUP2 CALLDATALOAD PUSH1 0x20 PUSH8 0xFFFFFFFFFFFFFFFF DUP1 DUP4 GT ISZERO PUSH2 0x2A50 JUMPI PUSH2 0x2A50 PUSH2 0x34E6 JUMP JUMPDEST DUP3 PUSH1 0x5 SHL PUSH2 0x2A5F DUP4 DUP3 ADD PUSH2 0x3365 JUMP JUMPDEST DUP5 DUP2 MSTORE DUP4 DUP2 ADD SWAP1 DUP8 DUP6 ADD DUP4 DUP10 ADD DUP7 ADD DUP11 LT ISZERO PUSH2 0x2A7A JUMPI PUSH1 0x0 DUP1 REVERT JUMPDEST PUSH1 0x0 SWAP4 POP DUP4 JUMPDEST DUP8 DUP2 LT ISZERO PUSH2 0x2AB7 JUMPI DUP2 CALLDATALOAD DUP7 DUP2 GT ISZERO PUSH2 0x2A96 JUMPI DUP6 DUP7 REVERT JUMPDEST PUSH2 0x2AA4 DUP13 DUP10 DUP4 DUP15 ADD ADD PUSH2 0x2AC6 JUMP JUMPDEST DUP6 MSTORE POP SWAP3 DUP7 ADD SWAP3 SWAP1 DUP7 ADD SWAP1 PUSH1 0x1 ADD PUSH2 0x2A80 JUMP JUMPDEST POP SWAP1 SWAP10 SWAP9 POP POP POP POP POP POP POP POP POP JUMP JUMPDEST PUSH1 0x0 DUP3 PUSH1 0x1F DUP4 ADD SLT PUSH2 0x2AD7 JUMPI PUSH1 0x0 DUP1 REVERT JUMPDEST PUSH2 0xBAD DUP4 DUP4 CALLDATALOAD PUSH1 0x20 DUP6 ADD PUSH2 0x29AE JUMP JUMPDEST PUSH1 0x0 PUSH1 0x20 DUP3 DUP5 SUB SLT ISZERO PUSH2 0x2AF8 JUMPI PUSH1 0x0 DUP1 REVERT JUMPDEST PUSH2 0xBAD DUP3 PUSH2 0x2A06 JUMP JUMPDEST PUSH1 0x0 DUP1 PUSH1 0x40 DUP4 DUP6 SUB SLT ISZERO PUSH2 0x2B14 JUMPI PUSH1 0x0 DUP1 REVERT JUMPDEST PUSH2 0x2B1D DUP4 PUSH2 0x2A06 JUMP JUMPDEST SWAP2 POP PUSH2 0x2B2B PUSH1 0x20 DUP5 ADD PUSH2 0x2A06 JUMP JUMPDEST SWAP1 POP SWAP3 POP SWAP3 SWAP1 POP JUMP JUMPDEST PUSH1 0x0 DUP1 PUSH1 0x0 PUSH1 0x60 DUP5 DUP7 SUB SLT ISZERO PUSH2 0x2B49 JUMPI PUSH1 0x0 DUP1 REVERT JUMPDEST PUSH2 0x2B52 DUP5 PUSH2 0x2A06 JUMP JUMPDEST SWAP3 POP PUSH2 0x2B60 PUSH1 0x20 DUP6 ADD PUSH2 0x2A06 JUMP JUMPDEST SWAP2 POP PUSH1 0x40 DUP5 ADD CALLDATALOAD SWAP1 POP SWAP3 POP SWAP3 POP SWAP3 JUMP JUMPDEST PUSH1 0x0 DUP1 PUSH1 0x0 DUP1 PUSH1 0x80 DUP6 DUP8 SUB SLT ISZERO PUSH2 0x2B86 JUMPI PUSH1 0x0 DUP1 REVERT JUMPDEST PUSH2 0x2B8F DUP6 PUSH2 0x2A06 JUMP JUMPDEST SWAP4 POP PUSH2 0x2B9D PUSH1 0x20 DUP7 ADD PUSH2 0x2A06 JUMP JUMPDEST SWAP3 POP PUSH1 0x40 DUP6 ADD CALLDATALOAD SWAP2 POP PUSH1 0x60 DUP6 ADD CALLDATALOAD PUSH8 0xFFFFFFFFFFFFFFFF DUP2 GT ISZERO PUSH2 0x2BC0 JUMPI PUSH1 0x0 DUP1 REVERT JUMPDEST DUP6 ADD PUSH1 0x1F DUP2 ADD DUP8 SGT PUSH2 0x2BD1 JUMPI PUSH1 0x0 DUP1 REVERT JUMPDEST PUSH2 0x2BE0 DUP8 DUP3 CALLDATALOAD PUSH1 0x20 DUP5 ADD PUSH2 0x29AE JUMP JUMPDEST SWAP2 POP POP SWAP3 SWAP6 SWAP2 SWAP5 POP SWAP3 POP JUMP JUMPDEST PUSH1 0x0 DUP1 PUSH1 0x40 DUP4 DUP6 SUB SLT ISZERO PUSH2 0x2BFF JUMPI PUSH1 0x0 DUP1 REVERT JUMPDEST PUSH2 0x2C08 DUP4 PUSH2 0x2A06 JUMP JUMPDEST SWAP2 POP PUSH1 0x20 DUP4 ADD CALLDATALOAD DUP1 ISZERO ISZERO DUP2 EQ PUSH2 0x2C1D JUMPI PUSH1 0x0 DUP1 REVERT JUMPDEST DUP1 SWAP2 POP POP SWAP3 POP SWAP3 SWAP1 POP JUMP JUMPDEST PUSH1 0x0 DUP1 PUSH1 0x40 DUP4 DUP6 SUB SLT ISZERO PUSH2 0x2C3B JUMPI PUSH1 0x0 DUP1 REVERT JUMPDEST PUSH2 0x2C44 DUP4 PUSH2 0x2A06 JUMP JUMPDEST SWAP5 PUSH1 0x20 SWAP4 SWAP1 SWAP4 ADD CALLDATALOAD SWAP4 POP POP POP JUMP JUMPDEST PUSH1 0x0 PUSH1 0x20 DUP3 DUP5 SUB SLT ISZERO PUSH2 0x2C64 JUMPI PUSH1 0x0 DUP1 REVERT JUMPDEST DUP2 CALLDATALOAD PUSH2 0xBAD DUP2 PUSH2 0x34FC JUMP JUMPDEST PUSH1 0x0 PUSH1 0x20 DUP3 DUP5 SUB SLT ISZERO PUSH2 0x2C81 JUMPI PUSH1 0x0 DUP1 REVERT JUMPDEST DUP2 MLOAD PUSH2 0xBAD DUP2 PUSH2 0x34FC JUMP JUMPDEST PUSH1 0x0 DUP1 PUSH1 0x0 DUP1 PUSH1 0x80 DUP6 DUP8 SUB SLT ISZERO PUSH2 0x2CA2 JUMPI PUSH1 0x0 DUP1 REVERT JUMPDEST DUP5 CALLDATALOAD PUSH8 0xFFFFFFFFFFFFFFFF DUP1 DUP3 GT ISZERO PUSH2 0x2CBA JUMPI PUSH1 0x0 DUP1 REVERT JUMPDEST PUSH2 0x2CC6 DUP9 DUP4 DUP10 ADD PUSH2 0x2AC6 JUMP JUMPDEST SWAP6 POP PUSH1 0x20 DUP8 ADD CALLDATALOAD SWAP2 POP DUP1 DUP3 GT ISZERO PUSH2 0x2CDC JUMPI PUSH1 0x0 DUP1 REVERT JUMPDEST PUSH2 0x2CE8 DUP9 DUP4 DUP10 ADD PUSH2 0x2A22 JUMP JUMPDEST SWAP5 POP PUSH1 0x40 DUP8 ADD CALLDATALOAD SWAP2 POP DUP1 DUP3 GT ISZERO PUSH2 0x2CFE JUMPI PUSH1 0x0 DUP1 REVERT JUMPDEST PUSH2 0x2D0A DUP9 DUP4 DUP10 ADD PUSH2 0x2A22 JUMP JUMPDEST SWAP4 POP PUSH1 0x60 DUP8 ADD CALLDATALOAD SWAP2 POP DUP1 DUP3 GT ISZERO PUSH2 0x2D20 JUMPI PUSH1 0x0 DUP1 REVERT JUMPDEST POP PUSH2 0x2BE0 DUP8 DUP3 DUP9 ADD PUSH2 0x2A22 JUMP JUMPDEST PUSH1 0x0 PUSH1 0x20 DUP3 DUP5 SUB SLT ISZERO PUSH2 0x2D3F JUMPI PUSH1 0x0 DUP1 REVERT JUMPDEST POP CALLDATALOAD SWAP2 SWAP1 POP JUMP JUMPDEST PUSH1 0x0 DUP1 PUSH1 0x40 DUP4 DUP6 SUB SLT ISZERO PUSH2 0x2D59 JUMPI PUSH1 0x0 DUP1 REVERT JUMPDEST DUP3 CALLDATALOAD SWAP2 POP PUSH1 0x20 DUP4 ADD CALLDATALOAD PUSH8 0xFFFFFFFFFFFFFFFF DUP2 GT ISZERO PUSH2 0x2D77 JUMPI PUSH1 0x0 DUP1 REVERT JUMPDEST PUSH2 0x2D83 DUP6 DUP3 DUP7 ADD PUSH2 0x2A22 JUMP JUMPDEST SWAP2 POP POP SWAP3 POP SWAP3 SWAP1 POP JUMP JUMPDEST PUSH1 0x0 DUP2 MLOAD DUP1 DUP5 MSTORE PUSH2 0x2DA5 DUP2 PUSH1 0x20 DUP7 ADD PUSH1 0x20 DUP7 ADD PUSH2 0x33F8 JUMP JUMPDEST PUSH1 0x1F ADD PUSH1 0x1F NOT AND SWAP3 SWAP1 SWAP3 ADD PUSH1 0x20 ADD SWAP3 SWAP2 POP POP JUMP JUMPDEST PUSH1 0x0 DUP3 MLOAD PUSH2 0x2DCB DUP2 DUP5 PUSH1 0x20 DUP8 ADD PUSH2 0x33F8 JUMP JUMPDEST SWAP2 SWAP1 SWAP2 ADD SWAP3 SWAP2 POP POP JUMP JUMPDEST PUSH1 0x0 DUP4 MLOAD PUSH2 0x2DE7 DUP2 DUP5 PUSH1 0x20 DUP9 ADD PUSH2 0x33F8 JUMP JUMPDEST DUP4 MLOAD SWAP1 DUP4 ADD SWAP1 PUSH2 0x2DFB DUP2 DUP4 PUSH1 0x20 DUP9 ADD PUSH2 0x33F8 JUMP JUMPDEST ADD SWAP5 SWAP4 POP POP POP POP JUMP JUMPDEST PUSH1 0x0 DUP9 MLOAD PUSH1 0x20 PUSH2 0x2E17 DUP3 DUP6 DUP4 DUP15 ADD PUSH2 0x33F8 JUMP JUMPDEST DUP10 MLOAD SWAP2 DUP5 ADD SWAP2 PUSH2 0x2E2A DUP2 DUP5 DUP5 DUP15 ADD PUSH2 0x33F8 JUMP JUMPDEST DUP10 MLOAD SWAP3 ADD SWAP2 PUSH2 0x2E3C DUP2 DUP5 DUP5 DUP14 ADD PUSH2 0x33F8 JUMP JUMPDEST DUP9 MLOAD SWAP3 ADD SWAP2 PUSH2 0x2E4E DUP2 DUP5 DUP5 DUP13 ADD PUSH2 0x33F8 JUMP JUMPDEST DUP8 MLOAD SWAP3 ADD SWAP2 PUSH2 0x2E60 DUP2 DUP5 DUP5 DUP12 ADD PUSH2 0x33F8 JUMP JUMPDEST DUP7 MLOAD SWAP3 ADD SWAP2 PUSH2 0x2E72 DUP2 DUP5 DUP5 DUP11 ADD PUSH2 0x33F8 JUMP JUMPDEST DUP6 MLOAD SWAP3 ADD SWAP2 PUSH2 0x2E84 DUP2 DUP5 DUP5 DUP10 ADD PUSH2 0x33F8 JUMP JUMPDEST SWAP2 SWAP1 SWAP2 ADD SWAP11 SWAP10 POP POP POP POP POP POP POP POP POP POP JUMP JUMPDEST PUSH1 0x0 DUP4 MLOAD PUSH1 0x20 PUSH2 0x2EA9 DUP3 DUP6 DUP4 DUP10 ADD PUSH2 0x33F8 JUMP JUMPDEST PUSH1 0x1 PUSH1 0xFD SHL SWAP2 DUP5 ADD SWAP2 DUP3 MSTORE DUP5 SLOAD PUSH1 0x1 SWAP1 PUSH1 0x0 SWAP1 DUP1 DUP4 SHR DUP2 DUP5 AND DUP1 PUSH2 0x2ECE JUMPI PUSH1 0x7F DUP3 AND SWAP2 POP JUMPDEST DUP6 DUP3 LT DUP2 EQ ISZERO PUSH2 0x2EEC JUMPI PUSH4 0x4E487B71 PUSH1 0xE0 SHL DUP5 MSTORE PUSH1 0x22 PUSH1 0x4 MSTORE PUSH1 0x24 DUP5 REVERT JUMPDEST DUP1 DUP1 ISZERO PUSH2 0x2F00 JUMPI PUSH1 0x1 DUP2 EQ PUSH2 0x2F15 JUMPI PUSH2 0x2F46 JUMP JUMPDEST PUSH1 0xFF NOT DUP5 AND DUP9 DUP8 ADD MSTORE DUP3 DUP9 ADD DUP7 ADD SWAP5 POP PUSH2 0x2F46 JUMP JUMPDEST PUSH1 0x0 DUP12 DUP2 MSTORE PUSH1 0x20 SWAP1 KECCAK256 PUSH1 0x0 JUMPDEST DUP5 DUP2 LT ISZERO PUSH2 0x2F3C JUMPI DUP2 SLOAD DUP11 DUP3 ADD DUP10 ADD MSTORE SWAP1 DUP8 ADD SWAP1 DUP9 ADD PUSH2 0x2F21 JUMP JUMPDEST POP POP DUP6 DUP4 DUP10 ADD ADD SWAP5 POP JUMPDEST POP SWAP3 SWAP11 SWAP10 POP POP POP POP POP POP POP POP POP POP JUMP JUMPDEST PUSH3 0x11D415 PUSH1 0xEA SHL DUP2 MSTORE PUSH1 0x0 DUP3 MLOAD PUSH2 0x2F74 DUP2 PUSH1 0x3 DUP6 ADD PUSH1 0x20 DUP8 ADD PUSH2 0x33F8 JUMP JUMPDEST SWAP2 SWAP1 SWAP2 ADD PUSH1 0x3 ADD SWAP3 SWAP2 POP POP JUMP JUMPDEST PUSH1 0x11 PUSH1 0xF9 SHL DUP2 MSTORE DUP4 MLOAD PUSH1 0x0 SWAP1 PUSH2 0x2F9E DUP2 PUSH1 0x1 DUP6 ADD PUSH1 0x20 DUP10 ADD PUSH2 0x33F8 JUMP JUMPDEST PUSH1 0x1 PUSH1 0xFD SHL PUSH1 0x1 SWAP2 DUP5 ADD SWAP2 DUP3 ADD MSTORE DUP5 MLOAD PUSH2 0x2FBF DUP2 PUSH1 0x2 DUP5 ADD PUSH1 0x20 DUP10 ADD PUSH2 0x33F8 JUMP JUMPDEST PUSH2 0x111 PUSH1 0xF5 SHL PUSH1 0x2 SWAP3 SWAP1 SWAP2 ADD SWAP2 DUP3 ADD MSTORE DUP4 MLOAD PUSH2 0x2FE2 DUP2 PUSH1 0x4 DUP5 ADD PUSH1 0x20 DUP9 ADD PUSH2 0x33F8 JUMP JUMPDEST ADD PUSH1 0x4 ADD SWAP6 SWAP5 POP POP POP POP POP JUMP JUMPDEST PUSH1 0x11 PUSH1 0xF9 SHL DUP2 MSTORE DUP4 MLOAD PUSH1 0x0 SWAP1 PUSH2 0x300C DUP2 PUSH1 0x1 DUP6 ADD PUSH1 0x20 DUP10 ADD PUSH2 0x33F8 JUMP JUMPDEST PUSH1 0x1 PUSH1 0xFD SHL PUSH1 0x1 SWAP2 DUP5 ADD SWAP2 DUP3 ADD MSTORE DUP5 MLOAD PUSH2 0x302D DUP2 PUSH1 0x2 DUP5 ADD PUSH1 0x20 DUP10 ADD PUSH2 0x33F8 JUMP JUMPDEST PUSH2 0x111 PUSH1 0xF5 SHL PUSH1 0x2 SWAP3 SWAP1 SWAP2 ADD SWAP2 DUP3 ADD MSTORE DUP4 MLOAD PUSH2 0x3050 DUP2 PUSH1 0x4 DUP5 ADD PUSH1 0x20 DUP9 ADD PUSH2 0x33F8 JUMP JUMPDEST PUSH3 0x202B31 PUSH1 0xE8 SHL PUSH1 0x4 SWAP3 SWAP1 SWAP2 ADD SWAP2 DUP3 ADD MSTORE PUSH1 0x7 ADD SWAP6 SWAP5 POP POP POP POP POP JUMP JUMPDEST PUSH15 0x7B226E616D65223A20224261672023 PUSH1 0x88 SHL DUP2 MSTORE DUP3 MLOAD PUSH1 0x0 SWAP1 PUSH2 0x3098 DUP2 PUSH1 0xF DUP6 ADD PUSH1 0x20 DUP9 ADD PUSH2 0x33F8 JUMP JUMPDEST DUP1 DUP4 ADD SWAP1 POP PUSH32 0x222C20226465736372697074696F6E223A20224C6F6F742069732072616E646F PUSH1 0xF DUP3 ADD MSTORE PUSH32 0x6D697A656420616476656E747572657220676561722067656E65726174656420 PUSH1 0x2F DUP3 ADD MSTORE PUSH32 0x616E642073746F726564206F6E20636861696E2E2053746174732C20696D6167 PUSH1 0x4F DUP3 ADD MSTORE PUSH32 0x65732C20616E64206F746865722066756E6374696F6E616C6974792061726520 PUSH1 0x6F DUP3 ADD MSTORE PUSH32 0x696E74656E74696F6E616C6C79206F6D697474656420666F72206F7468657273 PUSH1 0x8F DUP3 ADD MSTORE PUSH32 0x20746F20696E746572707265742E204665656C206672656520746F2075736520 PUSH1 0xAF DUP3 ADD MSTORE PUSH32 0x4C6F6F7420696E20616E792077617920796F752077616E742E222C2022696D61 PUSH1 0xCF DUP3 ADD MSTORE PUSH32 0x6765223A2022646174613A696D6167652F7376672B786D6C3B6261736536342C PUSH1 0xEF DUP3 ADD MSTORE PUSH2 0x10F DUP5 MLOAD PUSH2 0x31E2 DUP2 DUP4 DUP6 ADD PUSH1 0x20 DUP10 ADD PUSH2 0x33F8 JUMP JUMPDEST PUSH2 0x31F8 DUP3 DUP3 DUP6 ADD ADD PUSH2 0x227D PUSH1 0xF0 SHL DUP2 MSTORE PUSH1 0x2 ADD SWAP1 JUMP JUMPDEST SWAP8 SWAP7 POP POP POP POP POP POP POP JUMP JUMPDEST PUSH32 0x646174613A6170706C69636174696F6E2F6A736F6E3B6261736536342C000000 DUP2 MSTORE PUSH1 0x0 DUP3 MLOAD PUSH2 0x323B DUP2 PUSH1 0x1D DUP6 ADD PUSH1 0x20 DUP8 ADD PUSH2 0x33F8 JUMP JUMPDEST SWAP2 SWAP1 SWAP2 ADD PUSH1 0x1D ADD SWAP3 SWAP2 POP POP JUMP JUMPDEST PUSH1 0x1 PUSH1 0x1 PUSH1 0xA0 SHL SUB DUP6 DUP2 AND DUP3 MSTORE DUP5 AND PUSH1 0x20 DUP3 ADD MSTORE PUSH1 0x40 DUP2 ADD DUP4 SWAP1 MSTORE PUSH1 0x80 PUSH1 0x60 DUP3 ADD DUP2 SWAP1 MSTORE PUSH1 0x0 SWAP1 PUSH2 0x327B SWAP1 DUP4 ADD DUP5 PUSH2 0x2D8D JUMP JUMPDEST SWAP7 SWAP6 POP POP POP POP POP POP JUMP JUMPDEST PUSH1 0x20 DUP2 MSTORE PUSH1 0x0 PUSH2 0xBAD PUSH1 0x20 DUP4 ADD DUP5 PUSH2 0x2D8D JUMP JUMPDEST PUSH1 0x40 DUP2 MSTORE PUSH1 0x0 PUSH2 0x32AB PUSH1 0x40 DUP4 ADD DUP6 PUSH2 0x2D8D JUMP JUMPDEST SWAP1 POP PUSH1 0x1 DUP1 PUSH1 0xA0 SHL SUB DUP4 AND PUSH1 0x20 DUP4 ADD MSTORE SWAP4 SWAP3 POP POP POP JUMP JUMPDEST PUSH1 0x20 DUP1 DUP3 MSTORE PUSH1 0x32 SWAP1 DUP3 ADD MSTORE PUSH32 0x4552433732313A207472616E7366657220746F206E6F6E204552433732315265 PUSH1 0x40 DUP3 ADD MSTORE PUSH18 0x31B2B4BB32B91034B6B83632B6B2B73A32B9 PUSH1 0x71 SHL PUSH1 0x60 DUP3 ADD MSTORE PUSH1 0x80 ADD SWAP1 JUMP JUMPDEST PUSH1 0x20 DUP1 DUP3 MSTORE PUSH1 0x31 SWAP1 DUP3 ADD MSTORE PUSH32 0x4552433732313A207472616E736665722063616C6C6572206973206E6F74206F PUSH1 0x40 DUP3 ADD MSTORE PUSH17 0x1DDB995C881B9BDC88185C1C1C9BDD9959 PUSH1 0x7A SHL PUSH1 0x60 DUP3 ADD MSTORE PUSH1 0x80 ADD SWAP1 JUMP JUMPDEST PUSH1 0x40 MLOAD PUSH1 0x1F DUP3 ADD PUSH1 0x1F NOT AND DUP2 ADD PUSH8 0xFFFFFFFFFFFFFFFF DUP2 GT DUP3 DUP3 LT OR ISZERO PUSH2 0x338E JUMPI PUSH2 0x338E PUSH2 0x34E6 JUMP JUMPDEST PUSH1 0x40 MSTORE SWAP2 SWAP1 POP JUMP JUMPDEST PUSH1 0x0 DUP3 NOT DUP3 GT ISZERO PUSH2 0x33A9 JUMPI PUSH2 0x33A9 PUSH2 0x348E JUMP JUMPDEST POP ADD SWAP1 JUMP JUMPDEST PUSH1 0x0 DUP3 PUSH2 0x33BD JUMPI PUSH2 0x33BD PUSH2 0x34A4 JUMP JUMPDEST POP DIV SWAP1 JUMP JUMPDEST PUSH1 0x0 DUP2 PUSH1 0x0 NOT DIV DUP4 GT DUP3 ISZERO ISZERO AND ISZERO PUSH2 0x33DC JUMPI PUSH2 0x33DC PUSH2 0x348E JUMP JUMPDEST POP MUL SWAP1 JUMP JUMPDEST PUSH1 0x0 DUP3 DUP3 LT ISZERO PUSH2 0x33F3 JUMPI PUSH2 0x33F3 PUSH2 0x348E JUMP JUMPDEST POP SUB SWAP1 JUMP JUMPDEST PUSH1 0x0 JUMPDEST DUP4 DUP2 LT ISZERO PUSH2 0x3413 JUMPI DUP2 DUP2 ADD MLOAD DUP4 DUP3 ADD MSTORE PUSH1 0x20 ADD PUSH2 0x33FB JUMP JUMPDEST DUP4 DUP2 GT ISZERO PUSH2 0xFB8 JUMPI POP POP PUSH1 0x0 SWAP2 ADD MSTORE JUMP JUMPDEST PUSH1 0x1 DUP2 DUP2 SHR SWAP1 DUP3 AND DUP1 PUSH2 0x3438 JUMPI PUSH1 0x7F DUP3 AND SWAP2 POP JUMPDEST PUSH1 0x20 DUP3 LT DUP2 EQ ISZERO PUSH2 0x3459 JUMPI PUSH4 0x4E487B71 PUSH1 0xE0 SHL PUSH1 0x0 MSTORE PUSH1 0x22 PUSH1 0x4 MSTORE PUSH1 0x24 PUSH1 0x0 REVERT JUMPDEST POP SWAP2 SWAP1 POP JUMP JUMPDEST PUSH1 0x0 PUSH1 0x0 NOT DUP3 EQ ISZERO PUSH2 0x3473 JUMPI PUSH2 0x3473 PUSH2 0x348E JUMP JUMPDEST POP PUSH1 0x1 ADD SWAP1 JUMP JUMPDEST PUSH1 0x0 DUP3 PUSH2 0x3489 JUMPI PUSH2 0x3489 PUSH2 0x34A4 JUMP JUMPDEST POP MOD SWAP1 JUMP JUMPDEST PUSH4 0x4E487B71 PUSH1 0xE0 SHL PUSH1 0x0 MSTORE PUSH1 0x11 PUSH1 0x4 MSTORE PUSH1 0x24 PUSH1 0x0 REVERT JUMPDEST PUSH4 0x4E487B71 PUSH1 0xE0 SHL PUSH1 0x0 MSTORE PUSH1 0x12 PUSH1 0x4 MSTORE PUSH1 0x24 PUSH1 0x0 REVERT JUMPDEST PUSH4 0x4E487B71 PUSH1 0xE0 SHL PUSH1 0x0 MSTORE PUSH1 0x31 PUSH1 0x4 MSTORE PUSH1 0x24 PUSH1 0x0 REVERT JUMPDEST PUSH4 0x4E487B71 PUSH1 0xE0 SHL PUSH1 0x0 MSTORE PUSH1 0x32 PUSH1 0x4 MSTORE PUSH1 0x24 PUSH1 0x0 REVERT JUMPDEST PUSH4 0x4E487B71 PUSH1 0xE0 SHL PUSH1 0x0 MSTORE PUSH1 0x41 PUSH1 0x4 MSTORE PUSH1 0x24 PUSH1 0x0 REVERT JUMPDEST PUSH1 0x1 PUSH1 0x1 PUSH1 0xE0 SHL SUB NOT DUP2 AND DUP2 EQ PUSH2 0x19C3 JUMPI PUSH1 0x0 DUP1 REVERT INVALID EXTCODECOPY 0x2F PUSH21 0x6578743E3C7465787420783D2231302220793D2236 ADDRESS 0x22 KECCAK256 PUSH4 0x6C617373 RETURNDATASIZE 0x22 PUSH3 0x617365 0x22 RETURNDATACOPY EXTCODECOPY 0x2F PUSH21 0x6578743E3C7465787420783D2231302220793D2238 ADDRESS 0x22 KECCAK256 PUSH4 0x6C617373 RETURNDATASIZE 0x22 PUSH3 0x617365 0x22 RETURNDATACOPY EXTCODECOPY PUSH20 0x766720786D6C6E733D22687474703A2F2F777777 0x2E PUSH24 0x332E6F72672F323030302F73766722207072657365727665 COINBASE PUSH20 0x70656374526174696F3D22784D696E594D696E20 PUSH14 0x656574222076696577426F783D22 ADDRESS KECCAK256 ADDRESS KECCAK256 CALLER CALLDATALOAD ADDRESS KECCAK256 CALLER CALLDATALOAD ADDRESS 0x22 RETURNDATACOPY EXTCODECOPY PUSH20 0x74796C653E2E62617365207B2066696C6C3A2077 PUSH9 0x6974653B20666F6E74 0x2D PUSH7 0x616D696C793A20 PUSH20 0x657269663B20666F6E742D73697A653A20313470 PUSH25 0x3B207D3C2F7374796C653E3C726563742077696474683D2231 ADDRESS ADDRESS 0x25 0x22 KECCAK256 PUSH9 0x65696768743D223130 ADDRESS 0x25 0x22 KECCAK256 PUSH7 0x696C6C3D22626C PUSH2 0x636B 0x22 KECCAK256 0x2F RETURNDATACOPY EXTCODECOPY PUSH21 0x65787420783D2231302220793D2232302220636C61 PUSH20 0x733D2262617365223E4142434445464748494A4B 0x4C 0x4D 0x4E 0x4F POP MLOAD MSTORE MSTORE8 SLOAD SSTORE JUMP JUMPI PC MSIZE GAS PUSH2 0x6263 PUSH5 0x6566676869 PUSH11 0x6B6C6D6E6F707172737475 PUSH23 0x7778797A303132333435363738392B2F3C2F746578743E EXTCODECOPY PUSH21 0x65787420783D2231302220793D2234302220636C61 PUSH20 0x733D2262617365223EA2646970667358221220A7 0xE7 PUSH31 0x9E0553C82F4DDEC2DD152FC9DC696627827B161C9A45B37F3ABF5CC8CF6473 PUSH16 0x6C634300080700330000000000000000 ","sha1":"cc0426fadc5c47aba42e86646b1594755468b881","source":"//SPDX-License-Identifier: MIT\npragma solidity ^0.8.0;\n\nimport {ERC721Enumerable} from \"./NFT.sol\";\nimport {ReentrancyGuard} from \"./NFT.sol\";\nimport {Ownable} from \"./NFT.sol\";\nimport {Base64} from \"./NFT.sol\";\nimport {ERC721} from \"./NFT.sol\";\n\ncontract Master is ERC721Enumerable, ReentrancyGuard, Ownable {\n    \n    constructor() ERC721(\"Loot\", \"LOOT\") Ownable() {}\n\n    struct ItemSet {\n    string theme;\n    string[] weapons;\n    string[] attire;\n    string[] accessories;\n    address payable creator;\n  }\n\n    ItemSet[] public itemSets;\n    uint256 counter = 1;\n    mapping (address => ItemSet) userToItems;\n    mapping (address => uint256) public numItemsSets;\n    mapping (uint256 => uint256) public tokenIdToRand;\n    mapping (address => uint256) public userToMinted;\n\n    string[] private suffixes = [\"Of Power\", \"Of Dark Matter\", \"Of The Sovereign\", \"Of The Future\", \"Of the Unknown\", \"Of Gravity\", \"Of the Singularity\", \"Of Distant Suns\", \"Of Next Augmented\", \"Of The Aeon\", \"Of Micro Fragmentation\", \"Of Vicarious Consciousness\", \"Of Vectors\", \"Of Metaphysical Augmentation\", \"Of The Astral Planes\", \"Of The Living Universe\", \"Of The Biomechs\", \"Of The Cyborgs\", \"Of The Spiritual Planes\", \"Of The Nano Threads\", \"Of The Sigil\", \"Of The Quick\", \"Of The Mind\", \"Of Psychic Fractals\", \"Of The Genetic Codex\"];\n    \n    string[] private namePrefixes = [\"Augmentation\", \"Cybernetic\", \"Cyber\", \"Nano\", \"Implanted\", \"Enhancement\", \"Modified\", \"Upgraded\", \"Advanced\", \"Hyper\", \"Advanced\", \"Proto\", \"Prototype\", \"Adaptation\", \"Artificial\", \"Gene\", \"Genetic\", \"Carbon\", \"Bio\", \"Biomechanical\", \"Mechanized\", \"Machine\", \"Cyborg\", \"Artificial\", \"Autonomous\", \"Electric\", \"Electronic\", \"Reflective\", \"Reflexive\", \"Self-Aware\", \"Sentient\", \"Self-Morphing\", \"Self-Modifying\", \"Self-Learning\", \"Organic\", \"Omni\", \"Omni-Processing\", \"Dystopian\", \"Reactive\", \"Responsive\", \"Optimized\", \"Indestructible\", \"Visionary\", \"Holographic\", \"Neon\", \"Superfluid\", \"Translucent\", \"Invisible\", \"Impenetrable\", \"Incorporeal\", \"Morphing\", \"Shapeshifter\", \"Active\", \"Living\", \"Mysterious\", \"Immortal\", \"Re-animated\", \"Toxic\", \"Corrosive\", \"Explosive\", \"Flammable\", \"Pyro\", \"Combustible\", \"Self-Destructive\", \"Parasitic\", \"Viral\", \"Psionic\", \"Psychic\", \"Arcane\", \"Divine\", \"Alchemical\", \"Totemic\", \"Sentinel\", \"Defensive\", \"Recon\"];\n    \n    string[] private nameSuffixes = [\"Neon\", \"Stealthy\", \"Sentry\", \"Liberty\", \"Thunder\", \"Death\", \"Tool\", \"Junk\", \"Black\", \"Cyber\", \"Firewall\", \"Sharp\", \"Brawler\", \"Hacker\", \"Radiant\", \"Cipher\", \"Tracer\", \"Phantom\", \"Savage\", \"Persistent\", \"Serial\", \"Neural\", \"Deceit\", \"Lacquer\", \"Sapper\", \"Spark\", \"Spanner\", \"Scumbag\", \"Techno\", \"Cybernetics\", \"Shadow\", \"Transcendent\", \"Juggernaut\", \"Retro\", \"Metallic\", \"Chemical\", \"Spectral\", \"Digital\", \"Berserker\", \"Photon\", \"Anarchy\", \"Carbon\", \"Cyanide\", \"Hypnotic\", \"Decryptor\", \"Ghost\", \"Phoenix\"];\n    \n    function addItemSet(string memory _theme, string[] memory _weapons, string[] memory _attire, string[] memory _accessories) public payable {\n        // require(msg.value >= 1 * 10*10);\n        ItemSet memory newItem;\n\n        newItem.weapons = _weapons;\n        newItem.attire = _attire;\n        newItem.accessories = _accessories;\n        newItem.theme = _theme;\n        newItem.creator = payable(msg.sender);\n\n        numItemsSets[msg.sender] += 1;\n        itemSets.push(newItem);\n    }\n\n    function random(string memory input) internal pure returns (uint256) {\n        return uint256(keccak256(abi.encodePacked(input)));\n    }\n    \n    function getWeapon(uint256 tokenId, string[] memory weapons) public view returns (string memory) {\n        return pluck(tokenId, \"WEAPON\", weapons);\n    }\n    \n    function getAttire(uint256 tokenId, string[] memory attire) public view returns (string memory) {\n        return pluck(tokenId, \"ATTIRE\", attire);\n    }\n    \n    function getAccessories(uint256 tokenId, string[] memory accessories) public view returns (string memory) {\n        return pluck(tokenId, \"ACCESSORIES\", accessories);\n    }\n    \n    function pluck(uint256 tokenId, string memory keyPrefix, string[] memory sourceArray) internal view returns (string memory) {\n        uint256 rand = random(string(abi.encodePacked(keyPrefix, toString(tokenId))));\n        string memory output = sourceArray[rand % sourceArray.length];\n        uint256 greatness = rand % 21;\n        if (greatness > 14) {\n            output = string(abi.encodePacked(output, \" \", suffixes[rand % suffixes.length]));\n        }\n        if (greatness >= 19) {\n            string[2] memory name;\n            name[0] = namePrefixes[rand % namePrefixes.length];\n            name[1] = nameSuffixes[rand % nameSuffixes.length];\n            if (greatness == 19) {\n                output = string(abi.encodePacked('\"', name[0], ' ', name[1], '\" ', output));\n            } else {\n                output = string(abi.encodePacked('\"', name[0], ' ', name[1], '\" ', output, \" +1\"));\n            }\n        }\n        return output;\n    }\n\n    function tokenURI(uint256 tokenId) override public view returns (string memory) {\n        uint256 i = tokenIdToRand[tokenId];\n        string[] memory weapons = itemSets[i].weapons;\n        string[] memory attire = itemSets[i].attire;\n        string[] memory accessories = itemSets[i].accessories;\n\n        string[8] memory parts;\n        parts[0] = '<svg xmlns=\"http://www.w3.org/2000/svg\" preserveAspectRatio=\"xMinYMin meet\" viewBox=\"0 0 350 350\"><style>.base { fill: white; font-family: serif; font-size: 14px; }</style><rect width=\"100%\" height=\"100%\" fill=\"black\" /><text x=\"10\" y=\"20\" class=\"base\">';\n\n        parts[1] = getWeapon(tokenId, weapons);\n\n        parts[2] = '</text><text x=\"10\" y=\"40\" class=\"base\">';\n\n        parts[3] = getAttire(tokenId, attire);\n\n        parts[4] = '</text><text x=\"10\" y=\"60\" class=\"base\">';\n\n        parts[5] = getAccessories(tokenId, accessories);\n\n        parts[6] = '</text><text x=\"10\" y=\"80\" class=\"base\">';\n\n        parts[7] = '</text></svg>';\n\n        string memory output = string(abi.encodePacked(parts[0], parts[1], parts[2], parts[3], parts[4], parts[5], parts[6]));\n        output = string(abi.encodePacked(output, parts[7]));\n        \n        string memory json = Base64.encode(bytes(string(abi.encodePacked('{\"name\": \"Bag #', toString(tokenId), '\", \"description\": \"Loot is randomized adventurer gear generated and stored on chain. Stats, images, and other functionality are intentionally omitted for others to interpret. Feel free to use Loot in any way you want.\", \"image\": \"data:image/svg+xml;base64,', Base64.encode(bytes(output)), '\"}'))));\n        output = string(abi.encodePacked('data:application/json;base64,', json));\n\n        return output;\n    }\n\n    function tokenImage(uint256 tokenId) public view returns (string memory) {\n        uint256 i = tokenIdToRand[tokenId];\n        string[] memory weapons = itemSets[i].weapons;\n        string[] memory attire = itemSets[i].attire;\n        string[] memory accessories = itemSets[i].accessories;\n        string[8] memory parts;\n        parts[0] = '<svg xmlns=\"http://www.w3.org/2000/svg\" preserveAspectRatio=\"xMinYMin meet\" viewBox=\"0 0 350 350\"><style>.base { fill: white; font-family: serif; font-size: 14px; }</style><rect width=\"100%\" height=\"100%\" fill=\"black\" /><text x=\"10\" y=\"20\" class=\"base\">';\n\n        parts[1] = getWeapon(tokenId, weapons);\n\n        parts[2] = '</text><text x=\"10\" y=\"40\" class=\"base\">';\n\n        parts[3] = getAttire(tokenId, attire);\n\n        parts[4] = '</text><text x=\"10\" y=\"60\" class=\"base\">';\n\n        parts[5] = getAccessories(tokenId, accessories);\n\n        parts[6] = '</text><text x=\"10\" y=\"80\" class=\"base\">';\n\n        parts[7] = '</text></svg>';\n\n        string memory output = string(abi.encodePacked(parts[0], parts[1], parts[2], parts[3], parts[4], parts[5], parts[6]));\n        output = string(abi.encodePacked(output, parts[7]));\n        \n        return output;\n    }\n\n    function claim() public payable nonReentrant {\n        uint256 tokenId = counter;\n        uint256 rand = random(string(abi.encodePacked(\"GPT\", toString(tokenId))));\n        uint i = rand % itemSets.length;\n        address payable creator = itemSets[i].creator;\n        creator.transfer(msg.value);\n        tokenIdToRand[tokenId] = i;\n        userToMinted[creator] += 1;\n        counter += 1;\n        _safeMint(_msgSender(), tokenId);\n    }\n    \n\n    function toString(uint256 value) internal pure returns (string memory) {\n    // Inspired by OraclizeAPI's implementation - MIT license\n    // https://github.com/oraclize/ethereum-api/blob/b42146b063c7d6ee1358846c198246239e9360e8/oraclizeAPI_0.4.25.sol\n\n        if (value == 0) {\n            return \"0\";\n        }\n        uint256 temp = value;\n        uint256 digits;\n        while (temp != 0) {\n            digits++;\n            temp /= 10;\n        }\n        bytes memory buffer = new bytes(digits);\n        while (value != 0) {\n            digits -= 1;\n            buffer[digits] = bytes1(uint8(48 + uint256(value % 10)));\n            value /= 10;\n        }\n        return string(buffer);\n    }\n    \n}\n\n","sourcePath":"contracts/Master.sol","deployment":{"address":"0x5422343dcBD3AebDbDE6B38BC4Ab501bcBb85f76","chainid":"137","blockHeight":20000350}}