{"bytecode":"6001600e90815560086103c08181526727b3102837bbb2b960c11b6103e052608090815260106104008181526f27b3102a34329029b7bb32b932b4b3b760811b6104205260a052600d6104408181526c4f66205468652046757475726560981b6104605260c0526104809485526d27b3103a3432902ab735b737bbb760911b6104a05260e09490945260126104c0908152714f66207468652053696e67756c617269747960701b6104e05261010052600b6105008181526a27b3102a34329020b2b7b760a91b61052052610120526105408281526f27b310233930b3b6b2b73a30ba34b7b760811b61056052610140526105809182526f4f6620436f6e7363696f75736e65737360801b6105a05261016091909152600a6105c0908152694f6620566563746f727360b01b6105e05261018052600f6106008181526e27b31020bab3b6b2b73a30ba34b7b760891b610620526101a0526106408281526a4f662054686520486f6c7960a81b610660526101c0526106808281526a13d988151a19481119585960aa1b6106a0526101e0526106c08581526c4f6620546865204c6976696e6760981b6106e052610200526107009485526c13d988151a194814dc1a5c9a5d609a1b61072052610220949094526009610740908152684f6620466c616d657360b81b6107605261024052600c6107808181526b13d988151a194814da59da5b60a21b6107a052610260526107c08181526b4f662054686520517569636b60a01b6107e052610280526108008281526a13d988151a1948135a5b9960aa1b610820526102a0526108409485526e4f6620546865204672616374616c7360881b610860526102c0949094526011610880908152704f6620546865204d7973746572696f757360781b6108a0526102e05260146108c08181527f4f66205468652043727970746f677261706869630000000000000000000000006108e052610300526109009384526709ecc4088cac2e8d60c31b61092052610320939093526109408181526a4f6620566974616c69747960a81b61096052610340526007610980908152664f6620486f706560c81b6109a052610360526109c09384526b4f6620526561736f6e696e6760a01b6109e05261038093909352610a40604052610a009283526a4f6620487973746572696160a81b610a20526103a0929092526200036b91601a6200181e565b506040805161096081018252600c61092082018181526b20bab3b6b2b73a30ba34b7b760a11b610940840152825282518084018452600a8082526943796265726e6574696360b01b60208381019190915280850192909252845180860186526004808252634e616e6f60e01b828501528587019190915285518087018752600580825264053686172760dc1b82860152606087019190915286518088018852600b8082526a115b9a185b98d95b595b9d60aa1b82870152608088019190915287518089018952600880825267135bd91a599a595960c21b8288015260a08901919091528851808a018a5281815267155c19dc9859195960c21b8188015260c08901528851808a018a528181526710591d985b98d95960c21b8188015260e08901528851808a018a5283815264243cb832b960d91b818801526101008901528851808a018a52600780825266115b9cdd5c995960ca1b828901526101208a01919091528951808b018b528481526450726f746f60d81b818901526101408a01528951808b018b5260098082526850726f746f7479706560b81b828a01526101608b01919091528a51808c018c528781526920b230b83a30ba34b7b760b11b818a01526101808b01528a51808c018c5287815269105c9d1a599a58da585b60b21b818a018190526101a08c01919091528b51808d018d528381526647656e6574696360c81b818b01526101c08c01528b51808d018d5260068082526521b0b93137b760d11b828c01526101e08d01919091528c51808e018e52600381526242696f60e81b818c01526102008d01528c51808e018e52600d8082526c109a5bdb5958da185b9a58d85b609a1b828d01526102208e01919091528d51808f018f528a815269135958da185b9a5e995960b21b818d01526102408e01528d51808f018f52858152664d616368696e6560c81b818d01526102608e01528d51808f018f52828152654379626f726760d01b818d01526102808e01528d51808f018f528a8152808c01939093526102a08d01929092528c51808e018e52898152694175746f6e6f6d6f757360b01b818c01526102c08d01528c51808e018e5285815267456c65637472696360c01b818c01526102e08d01528c51808e018e5289815269456c656374726f6e696360b01b818c01526103008d01528c51808e018e52898152695265666c65637469766560b01b818c01526103208d01528c51808e018e52838152685265666c657869766560b81b818c01526103408d01528c51808e018e528981526953656c662d417761726560b01b818c01526103608d01528c51808e018e528581526714d95b9d1a595b9d60c21b818c01526103808d01528c51808e018e528281526c53656c662d4d6f727068696e6760981b818c01526103a08d01528c51808e018e52600e8082526d53656c662d4d6f64696679696e6760901b828d01526103c08e01919091528d51808f018f529283526c53656c662d4c6561726e696e6760981b838c01526103e08d01929092528c51808e018e52848152664f7267616e696360c81b818c01526104008d01528c51808e018e52888152634f6d6e6960e01b818c01526104208d01528c51808e018e52600f81526e4f6d6e692d50726f63657373696e6760881b818c01526104408d01528c51808e018e5283815268223cb9ba37b834b0b760b91b818c01526104608d01528c51808e018e5285815267526561637469766560c01b818c01526104808d01528c51808e018e5289815269526573706f6e7369766560b01b818c01526104a08d01528c51808e018e528381526813dc1d1a5b5a5e995960ba1b818c01526104c08d01528c51808e018e529182526d496e646573747275637469626c6560901b828b01526104e08c01919091528b51808d018d5282815268566973696f6e61727960b81b818b01526105008c01528b51808d018d528581526a486f6c6f6772617068696360a81b818b01526105208c01528b51808d018d52878152632732b7b760e11b818b01526105408c01528b51808d018d528881526914dd5c195c999b1d5a5960b21b818b01526105608c01528b51808d018d528581526a151c985b9cdb1d58d95b9d60aa1b818b01526105808c01528b51808d018d5282815268496e76697369626c6560b81b818b01526105a08c01528b51808d018d528a81526b496d70656e65747261626c6560a01b818b01526105c08c01528b51808d018d528581526a125b98dbdc9c1bdc99585b60aa1b818b01526105e08c01528b51808d018d52848152674d6f727068696e6760c01b818b01526106008c01528b51808d018d52998a526b29b430b832b9b434b33a32b960a11b8a8a01526106208b01999099528a51808c018c528981526541637469766560d01b818a01526106408b01528a51808c018c52898152654c6976696e6760d01b818a01526106608b01528a51808c018c52878152694d7973746572696f757360b01b818a01526106808b01528a51808c018c5283815267125b5b5bdc9d185b60c21b818a01526106a08b01528a51808c018c528481526a14994b585b9a5b585d195960aa1b818a01526106c08b01528a51808c018c5285815264546f78696360d81b818a01526106e08b01528a51808c018c5281815268436f72726f7369766560b81b818a01526107008b01528a51808c018c52818152684578706c6f7369766560b81b818a01526107208b01528a51808c018c5281815268466c616d6d61626c6560b81b818a01526107408b01528a51808c018c52958652635079726f60e01b868901526107608a01959095528951808b018b529283526a436f6d6275737469626c6560a81b838801526107808901929092528851808a018a52601081526f53656c662d446573747275637469766560801b818801526107a08901528851808a018a528481526850617261736974696360b81b818801526107c08901528851808a018a5283815264159a5c985b60da1b818801526107e08901528851808a018a52828152665073696f6e696360c81b818801526108008901528851808a018a52828152665073796368696360c81b818801526108208901528851808a018a5287815265417263616e6560d01b818801526108408901528851808a018a5296875265446976696e6560d01b878701526108608801969096528751808901895293845269105b18da195b5a58d85b60b21b848601526108808701939093528651808801885292835266546f74656d696360c81b838501526108a0860192909252855180870187529384526714d95b9d1a5b995b60c21b848401526108c08501939093528451808601865292835268446566656e7369766560b81b838301526108e08401929092528351808501909452908352642932b1b7b760d91b9083015261090081019190915262000d2890601590604962001882565b50604080516106408101825260046106008201818152632732b7b760e11b610620840152825282518084018452600880825267537465616c74687960c01b602083810191909152808501929092528451808601865260068082526553656e74727960d01b8285015285870191909152855180870187526007808252664c69626572747960c81b82860152606087019190915286518088018852818152662a343ab73232b960c91b81860152608087015286518088018852600580825264088cac2e8d60db1b8287015260a08801919091528751808901895286815263151bdbdb60e21b8187015260c088015287518089018952958652634a756e6b60e01b8686015260e08701959095528651808801885285815264426c61636b60d81b81860152610100870152865180880188528581526421bcb132b960d91b818601526101208701528651808801885283815267119a5c995dd85b1b60c21b818601526101408701528651808801885285815264053686172760dc1b818601526101608701528651808801885281815266213930bbb632b960c91b8186015261018087015286518088018852828152652430b1b5b2b960d11b818601526101a087015286518088018852818152661498591a585b9d60ca1b818601526101c0870152865180880188528281526521b4b83432b960d11b818601526101e087015286518088018852828152652a3930b1b2b960d11b8186015261020087015286518088018852818152665068616e746f6d60c81b81860152610220870152865180880188528281526553617661676560d01b8186015261024087015286518088018852600a8082526914195c9cda5cdd195b9d60b21b82870152610260880191909152875180890189528381526514d95c9a585b60d21b81870152610280880152875180890189528381526513995d5c985b60d21b818701526102a08801528751808901895283815265111958d95a5d60d21b818701526102c088015287518089018952828152662630b1b8bab2b960c91b818701526102e0880152875180890189528381526529b0b83832b960d11b818701526103008801528751808901895286815264537061726b60d81b81870152610320880152875180890189528281526629b830b73732b960c91b8187015261034088015287518089018952828152665363756d62616760c81b818701526103608801528751808901895283815265546563686e6f60d01b8187015261038088015287518089018952600b81526a43796265726e657469637360a81b818701526103a08801528751808901895283815265536861646f7760d01b818701526103c088015287518089018952600c81526b151c985b9cd8d95b99195b9d60a21b818701526103e08801528751808901895290815269129d59d9d95c9b985d5d60b21b818601526104008701528651808801885285815264526574726f60d81b8186015261042087015286518088018852838152674d6574616c6c696360c01b81860152610440870152865180880188528381526710da195b5a58d85b60c21b81860152610460870152865180880188528381526714dc1958dd1c985b60c21b818601526104808701528651808801885281815266111a59da5d185b60ca1b818601526104a0870152865180880188526009808252682132b939b2b935b2b960b91b828701526104c08801919091528751808901895283815265283437ba37b760d11b818701526104e08801528751808901895282815266416e617263687960c81b81870152610500880152875180890189529283526521b0b93137b760d11b8386015261052087019290925286518088018852908152664379616e69646560c81b8185015261054086015285518087018752918252674879706e6f74696360c01b8284015261056085019190915284518086018652908152682232b1b93cb83a37b960b91b81830152610580840152835180850185528281526411da1bdcdd60da1b818301526105a084015283518085018552828152644275726c7960d81b818301526105c08401528351808501909452908352644167696c6560d81b908301526105e08101919091526200132c906016906030620018d4565b503480156200133a57600080fd5b5060405180604001604052806004815260200163131bdbdd60e21b815250604051806040016040528060048152602001631313d3d560e21b81525081600090805190602001906200138d92919062001926565b508051620013a390600190602084019062001926565b50506001600a5550620013b633620017cc565b620013db60405180606001604052806060815260200160608152602001606081525090565b6040805180820182526003808252621c995960ea1b602080840191909152918452825180840184526006808252656f72616e676560d01b8285015285840191909152835180850185529081526579656c6c6f7760d01b8184015292840192909252600d805460018101825560009190915283518051859492909202600080516020620060f28339815191520192620014799284929091019062001926565b50602082810151805162001494926001850192019062001926565b5060408201518051620014b291600284019160209091019062001926565b505050620014da60405180606001604052806060815260200160608152602001606081525090565b604080518082018252600581526433b932b2b760d91b602080830191909152908352815180830183526004808252631d19585b60e21b82840152848301919091528251808401845290815263626c756560e01b8183015291830191909152600d80546001810182556000919091528251805184936003909302600080516020620060f283398151915201926200157592849291019062001926565b50602082810151805162001590926001850192019062001926565b5060408201518051620015ae91600284019160209091019062001926565b505050620015d660405180606001604052806060815260200160608152602001606081525090565b6040805180820182526006815265707572706c6560d01b60208083019190915290835281518083018352600f81526e6d656469756d736c617465626c756560881b8183015283820152815180830183526004815263706c756d60e01b8183015291830191909152600d80546001810182556000919091528251805184936003909302600080516020620060f283398151915201926200167a92849291019062001926565b50602082810151805162001695926001850192019062001926565b5060408201518051620016b391600284019160209091019062001926565b505050620016db60405180606001604052806060815260200160608152602001606081525090565b604080518082018252600b81526a64656570736b79626c756560a81b602080830191909152908352815180830183526009815268726f79616c626c756560b81b818301528382015281518083018352600c81526b6d69646e69676874626c756560a01b8183015291830191909152600d80546001810182556000919091528251805184936003909302600080516020620060f283398151915201926200178692849291019062001926565b506020828101518051620017a1926001850192019062001926565b5060408201518051620017bf91600284019160209091019062001926565b5050505050505062001a68565b600b80546001600160a01b038381166001600160a01b0319831681179093556040519116919082907f8be0079c531659141344cd1fd0a4f28419497f9722a3daafe3b4186f6b6457e090600090a35050565b82805482825590600052602060002090810192821562001870579160200282015b828111156200187057825180516200185f91849160209091019062001926565b50916020019190600101906200183f565b506200187e929150620019b1565b5090565b82805482825590600052602060002090810192821562001870579160200282015b82811115620018705782518051620018c391849160209091019062001926565b5091602001919060010190620018a3565b82805482825590600052602060002090810192821562001870579160200282015b828111156200187057825180516200191591849160209091019062001926565b5091602001919060010190620018f5565b828054620019349062001a2b565b90600052602060002090601f016020900481019282620019585760008555620019a3565b82601f106200197357805160ff1916838001178555620019a3565b82800160010185558215620019a3579182015b82811115620019a357825182559160200191906001019062001986565b506200187e929150620019d2565b808211156200187e576000620019c88282620019e9565b50600101620019b1565b5b808211156200187e5760008155600101620019d3565b508054620019f79062001a2b565b6000825580601f1062001a08575050565b601f01602090049060005260206000209081019062001a289190620019d2565b50565b600181811c9082168062001a4057607f821691505b6020821081141562001a6257634e487b7160e01b600052602260045260246000fd5b50919050565b61467a8062001a786000396000f3fe6080604052600436106101e35760003560e01c806370a0823111610102578063b88d4fde11610095578063e2f8451e11610064578063e2f8451e146105a2578063e985e9c5146105c2578063f2fde38b1461060b578063f72a3d891461062b57600080fd5b8063b88d4fde14610513578063c87b56dd14610533578063cf34842514610553578063dda34d161461057357600080fd5b80639043a374116100d15780639043a3741461049c57806395d89b41146104af578063a22cb465146104c4578063b19daab2146104e457600080fd5b806370a082311461041c578063715018a61461043c5780637a955950146104515780638da5cb5b1461047e57600080fd5b806323b872dd1161017a5780634e71d92d116101495780634e71d92d146103b45780634f6ccce7146103bc5780636352211e146103dc57806369b9321f146103fc57600080fd5b806323b872dd1461033f5780632f745c591461035f57806342842e0e1461037f578063476343ee1461039f57600080fd5b806318160ddd116101b657806318160ddd146102995780631ac56992146102b85780631ca5ca4e146102e55780631cead9a71461031257600080fd5b806301ffc9a7146101e857806306fdde031461021d578063081812fc1461023f578063095ea7b314610277575b600080fd5b3480156101f457600080fd5b5061020861020336600461395f565b61064b565b60405190151581526020015b60405180910390f35b34801561022957600080fd5b50610232610676565b6040516102149190614037565b34801561024b57600080fd5b5061025f61025a366004613a3a565b610708565b6040516001600160a01b039091168152602001610214565b34801561028357600080fd5b50610297610292366004613935565b6107a2565b005b3480156102a557600080fd5b506008545b604051908152602001610214565b3480156102c457600080fd5b506102aa6102d33660046137f3565b60126020526000908152604090205481565b3480156102f157600080fd5b506102aa6103003660046137f3565b60106020526000908152604090205481565b34801561031e57600080fd5b506102aa61032d3660046137f3565b60136020526000908152604090205481565b34801561034b57600080fd5b5061029761035a366004613841565b6108b8565b34801561036b57600080fd5b506102aa61037a366004613935565b6108e9565b34801561038b57600080fd5b5061029761039a366004613841565b61097f565b3480156103ab57600080fd5b5061029761099a565b6102976109f3565b3480156103c857600080fd5b506102aa6103d7366004613a3a565b610c63565b3480156103e857600080fd5b5061025f6103f7366004613a3a565b610cf6565b34801561040857600080fd5b50610232610417366004613a53565b610d6d565b34801561042857600080fd5b506102aa6104373660046137f3565b610d9f565b34801561044857600080fd5b50610297610e26565b34801561045d57600080fd5b506102aa61046c366004613a3a565b60116020526000908152604090205481565b34801561048a57600080fd5b50600b546001600160a01b031661025f565b6102976104aa366004613999565b610e5c565b3480156104bb57600080fd5b5061023261122a565b3480156104d057600080fd5b506102976104df3660046138f9565b611239565b3480156104f057600080fd5b506105046104ff366004613a3a565b6112fe565b60405161021493929190614083565b34801561051f57600080fd5b5061029761052e36600461387d565b611588565b34801561053f57600080fd5b5061023261054e366004613a3a565b6115c0565b34801561055f57600080fd5b5061023261056e366004613a3a565b611cfc565b34801561057f57600080fd5b5061059361058e366004613a3a565b6123e1565b6040516102149392919061404a565b3480156105ae57600080fd5b506102326105bd366004613a53565b6125b3565b3480156105ce57600080fd5b506102086105dd36600461380e565b6001600160a01b03918216600090815260056020908152604080832093909416825291909152205460ff1690565b34801561061757600080fd5b506102976106263660046137f3565b6125e3565b34801561063757600080fd5b50610232610646366004613a53565b61267b565b60006001600160e01b0319821663780e9d6360e01b14806106705750610670826126a6565b92915050565b60606000805461068590614296565b80601f01602080910402602001604051908101604052809291908181526020018280546106b190614296565b80156106fe5780601f106106d3576101008083540402835291602001916106fe565b820191906000526020600020905b8154815290600101906020018083116106e157829003601f168201915b5050505050905090565b6000818152600260205260408120546001600160a01b03166107865760405162461bcd60e51b815260206004820152602c60248201527f4552433732313a20617070726f76656420717565727920666f72206e6f6e657860448201526b34b9ba32b73a103a37b5b2b760a11b60648201526084015b60405180910390fd5b506000908152600460205260409020546001600160a01b031690565b60006107ad82610cf6565b9050806001600160a01b0316836001600160a01b0316141561081b5760405162461bcd60e51b815260206004820152602160248201527f4552433732313a20617070726f76616c20746f2063757272656e74206f776e656044820152603960f91b606482015260840161077d565b336001600160a01b0382161480610837575061083781336105dd565b6108a95760405162461bcd60e51b815260206004820152603860248201527f4552433732313a20617070726f76652063616c6c6572206973206e6f74206f7760448201527f6e6572206e6f7220617070726f76656420666f7220616c6c0000000000000000606482015260840161077d565b6108b383836126f6565b505050565b6108c23382612764565b6108de5760405162461bcd60e51b815260040161077d90614186565b6108b383838361285b565b60006108f483610d9f565b82106109565760405162461bcd60e51b815260206004820152602b60248201527f455243373231456e756d657261626c653a206f776e657220696e646578206f7560448201526a74206f6620626f756e647360a81b606482015260840161077d565b506001600160a01b03919091166000908152600660209081526040808320938352929052205490565b6108b383838360405180602001604052806000815250611588565b600b546001600160a01b031633146109c45760405162461bcd60e51b815260040161077d90614151565b60405133904780156108fc02916000818181858888f193505050501580156109f0573d6000803e3d6000fd5b50565b6002600a541415610a465760405162461bcd60e51b815260206004820152601f60248201527f5265656e7472616e637947756172643a207265656e7472616e742063616c6c00604482015260640161077d565b6002600a5566b1a2bc2ec50000341015610a8f5760405162461bcd60e51b815260206004820152600a60248201526946656520746f206c6f7760b01b604482015260640161077d565b600e546000610ac4610aa083612a06565b604051602001610ab09190613d08565b604051602081830303815290604052612b04565b600c54909150600090610ad790836142ec565b90506000600c8281548110610aee57610aee614342565b600091825260208220600760089092020101546001600160a01b03169150610b17600234614220565b6040519091506001600160a01b0383169082156108fc029083906000818181858888f19350505050158015610b50573d6000803e3d6000fd5b5060008581526011602090815260408083208690556001600160a01b038516835260129091528120805460019290610b89908490614208565b90915550506001600160a01b03821660009081526013602052604081208054839290610bb6908490614208565b90915550506040516001600160a01b0383169082156108fc029083906000818181858888f19350505050158015610bf1573d6000803e3d6000fd5b506001600e6000828254610c059190614208565b90915550610c1590503386612b35565b604080516001600160a01b0384168152602081018390527fc5a2b7ad6439179b1edea47d8a4bc00b2c5270a1c741c00fab7be4012caa7d0a910160405180910390a150506001600a55505050565b6000610c6e60085490565b8210610cd15760405162461bcd60e51b815260206004820152602c60248201527f455243373231456e756d657261626c653a20676c6f62616c20696e646578206f60448201526b7574206f6620626f756e647360a01b606482015260840161077d565b60088281548110610ce457610ce4614342565b90600052602060002001549050919050565b6000818152600260205260408120546001600160a01b0316806106705760405162461bcd60e51b815260206004820152602960248201527f4552433732313a206f776e657220717565727920666f72206e6f6e657869737460448201526832b73a103a37b5b2b760b91b606482015260840161077d565b6060610d9883604051806040016040528060068152602001652ba2a0a827a760d11b81525084612b53565b9392505050565b60006001600160a01b038216610e0a5760405162461bcd60e51b815260206004820152602a60248201527f4552433732313a2062616c616e636520717565727920666f7220746865207a65604482015269726f206164647265737360b01b606482015260840161077d565b506001600160a01b031660009081526003602052604090205490565b600b546001600160a01b03163314610e505760405162461bcd60e51b815260040161077d90614151565b610e5a6000612e18565b565b66b1a2bc2ec50000341015610ea15760405162461bcd60e51b815260206004820152600b60248201526a46656520746f6f206c6f7760a81b604482015260640161077d565b6000610eb785604051602001610ab09190613ac6565b600d54909150600090610eca90836142ec565b90506000600d8281548110610ee157610ee1614342565b9060005260206000209060030201604051806060016040529081600082018054610f0a90614296565b80601f0160208091040260200160405190810160405280929190818152602001828054610f3690614296565b8015610f835780601f10610f5857610100808354040283529160200191610f83565b820191906000526020600020905b815481529060010190602001808311610f6657829003601f168201915b50505050508152602001600182018054610f9c90614296565b80601f0160208091040260200160405190810160405280929190818152602001828054610fc890614296565b80156110155780601f10610fea57610100808354040283529160200191611015565b820191906000526020600020905b815481529060010190602001808311610ff857829003601f168201915b5050505050815260200160028201805461102e90614296565b80601f016020809104026020016040519081016040528092919081815260200182805461105a90614296565b80156110a75780601f1061107c576101008083540402835291602001916110a7565b820191906000526020600020905b81548152906001019060200180831161108a57829003601f168201915b50505050508152505090506110ba6134d9565b6020808201889052604080830188905260608301879052898352608083018490523360a08401819052600090815260109092528120805460019290611100908490614208565b9091555050600c80546001810182556000919091528151805183926008027fdf6966c971051c3d54ec59162606531493a51404a002842f56009d7e5cf4a8c7019161115091839160200190613531565b50602082810151805161116992600185019201906135b5565b50604082015180516111859160028401916020909101906135b5565b50606082015180516111a19160038401916020909101906135b5565b5060808201518051805160048401916111bf91839160200190613531565b5060208281015180516111d89260018501920190613531565b50604082015180516111f4916002840191602090910190613531565b50505060a09190910151600790910180546001600160a01b0319166001600160a01b039092169190911790555050505050505050565b60606001805461068590614296565b6001600160a01b0382163314156112925760405162461bcd60e51b815260206004820152601960248201527f4552433732313a20617070726f766520746f2063616c6c657200000000000000604482015260640161077d565b3360008181526005602090815260408083206001600160a01b03871680855290835292819020805460ff191686151590811790915590519081529192917f17307eab39ab6107e8899845ad3d59bd9653f200f220920489ca2b5937696c31910160405180910390a35050565b600c818154811061130e57600080fd5b906000526020600020906008020160009150905080600001805461133190614296565b80601f016020809104026020016040519081016040528092919081815260200182805461135d90614296565b80156113aa5780601f1061137f576101008083540402835291602001916113aa565b820191906000526020600020905b81548152906001019060200180831161138d57829003601f168201915b505050505090806004016040518060600160405290816000820180546113cf90614296565b80601f01602080910402602001604051908101604052809291908181526020018280546113fb90614296565b80156114485780601f1061141d57610100808354040283529160200191611448565b820191906000526020600020905b81548152906001019060200180831161142b57829003601f168201915b5050505050815260200160018201805461146190614296565b80601f016020809104026020016040519081016040528092919081815260200182805461148d90614296565b80156114da5780601f106114af576101008083540402835291602001916114da565b820191906000526020600020905b8154815290600101906020018083116114bd57829003601f168201915b505050505081526020016002820180546114f390614296565b80601f016020809104026020016040519081016040528092919081815260200182805461151f90614296565b801561156c5780601f106115415761010080835404028352916020019161156c565b820191906000526020600020905b81548152906001019060200180831161154f57829003601f168201915b505050919092525050506007909101546001600160a01b031683565b6115923383612764565b6115ae5760405162461bcd60e51b815260040161077d90614186565b6115ba84848484612e6a565b50505050565b600081815260116020526040812054600c80546060939190839081106115e8576115e8614342565b9060005260206000209060080201600101805480602002602001604051908101604052809291908181526020016000905b828210156116c557838290600052602060002001805461163890614296565b80601f016020809104026020016040519081016040528092919081815260200182805461166490614296565b80156116b15780601f10611686576101008083540402835291602001916116b1565b820191906000526020600020905b81548152906001019060200180831161169457829003601f168201915b505050505081526020019060010190611619565b5050505090506000600c83815481106116e0576116e0614342565b9060005260206000209060080201600201805480602002602001604051908101604052809291908181526020016000905b828210156117bd57838290600052602060002001805461173090614296565b80601f016020809104026020016040519081016040528092919081815260200182805461175c90614296565b80156117a95780601f1061177e576101008083540402835291602001916117a9565b820191906000526020600020905b81548152906001019060200180831161178c57829003601f168201915b505050505081526020019060010190611711565b5050505090506000600c84815481106117d8576117d8614342565b9060005260206000209060080201600301805480602002602001604051908101604052809291908181526020016000905b828210156118b557838290600052602060002001805461182890614296565b80601f016020809104026020016040519081016040528092919081815260200182805461185490614296565b80156118a15780601f10611876576101008083540402835291602001916118a1565b820191906000526020600020905b81548152906001019060200180831161188457829003601f168201915b505050505081526020019060010190611809565b5050505090506000600c85815481106118d0576118d0614342565b90600052602060002090600802016004016040518060600160405290816000820180546118fc90614296565b80601f016020809104026020016040519081016040528092919081815260200182805461192890614296565b80156119755780601f1061194a57610100808354040283529160200191611975565b820191906000526020600020905b81548152906001019060200180831161195857829003601f168201915b5050505050815260200160018201805461198e90614296565b80601f01602080910402602001604051908101604052809291908181526020018280546119ba90614296565b8015611a075780601f106119dc57610100808354040283529160200191611a07565b820191906000526020600020905b8154815290600101906020018083116119ea57829003601f168201915b50505050508152602001600282018054611a2090614296565b80601f0160208091040260200160405190810160405280929190818152602001828054611a4c90614296565b8015611a995780601f10611a6e57610100808354040283529160200191611a99565b820191906000526020600020905b815481529060010190602001808311611a7c57829003601f168201915b5050505050815250509050611aac61360e565b60405180610180016040528061014a81526020016144fb61014a9139815281516020808301919091526040805160608101909152602180825290916143f8908301396040820152602082015181600360200201819052506040518060600160405280602281526020016143ad60229139608082015260408281015160a0808401919091528151908101909152607a808252614481602083013960c0820152611b548886610d6d565b60e0820152604080516060810190915260288082526143856020830139610100820152611b81888561267b565b610120820152604080516060810190915260288082526144596020830139610140820152611baf88846125b3565b610160820152604080516060810190915260298082526143cf6020830139610180820152604080518082018252600d81526c1e17ba32bc3a1f1e17b9bb339f60991b6020808301919091526101a0840191909152825181840151838501516060860151608087015160a088015160c089015160e08a01519851600099611c3799909101613ba3565b60408051808303601f19018152908290526101008401516101208501516101408601516101608701516101808801516101a0890151959750611c7e96889690602001613b11565b60405160208183030381529060405290506000611ccb611c9d8b612a06565b611ca684612e9d565b604051602001611cb7929190613e1f565b604051602081830303815290604052612e9d565b905080604051602001611cde9190613fb5565b60408051601f198184030181529190529a9950505050505050505050565b600081815260116020526040812054600c8054606093919083908110611d2457611d24614342565b9060005260206000209060080201600101805480602002602001604051908101604052809291908181526020016000905b82821015611e01578382906000526020600020018054611d7490614296565b80601f0160208091040260200160405190810160405280929190818152602001828054611da090614296565b8015611ded5780601f10611dc257610100808354040283529160200191611ded565b820191906000526020600020905b815481529060010190602001808311611dd057829003601f168201915b505050505081526020019060010190611d55565b5050505090506000600c8381548110611e1c57611e1c614342565b9060005260206000209060080201600201805480602002602001604051908101604052809291908181526020016000905b82821015611ef9578382906000526020600020018054611e6c90614296565b80601f0160208091040260200160405190810160405280929190818152602001828054611e9890614296565b8015611ee55780601f10611eba57610100808354040283529160200191611ee5565b820191906000526020600020905b815481529060010190602001808311611ec857829003601f168201915b505050505081526020019060010190611e4d565b5050505090506000600c8481548110611f1457611f14614342565b9060005260206000209060080201600301805480602002602001604051908101604052809291908181526020016000905b82821015611ff1578382906000526020600020018054611f6490614296565b80601f0160208091040260200160405190810160405280929190818152602001828054611f9090614296565b8015611fdd5780601f10611fb257610100808354040283529160200191611fdd565b820191906000526020600020905b815481529060010190602001808311611fc057829003601f168201915b505050505081526020019060010190611f45565b5050505090506000600c858154811061200c5761200c614342565b906000526020600020906008020160040160405180606001604052908160008201805461203890614296565b80601f016020809104026020016040519081016040528092919081815260200182805461206490614296565b80156120b15780601f10612086576101008083540402835291602001916120b1565b820191906000526020600020905b81548152906001019060200180831161209457829003601f168201915b505050505081526020016001820180546120ca90614296565b80601f01602080910402602001604051908101604052809291908181526020018280546120f690614296565b80156121435780601f1061211857610100808354040283529160200191612143565b820191906000526020600020905b81548152906001019060200180831161212657829003601f168201915b5050505050815260200160028201805461215c90614296565b80601f016020809104026020016040519081016040528092919081815260200182805461218890614296565b80156121d55780601f106121aa576101008083540402835291602001916121d5565b820191906000526020600020905b8154815290600101906020018083116121b857829003601f168201915b50505050508152505090506121e861360e565b60405180610180016040528061014a81526020016144fb61014a9139815281516020808301919091526040805160608101909152602180825290916143f8908301396040820152602082015181600360200201819052506040518060600160405280602281526020016143ad60229139608082015260408281015160a0808401919091528151908101909152607a808252614481602083013960c08201526122908886610d6d565b60e08201526040805160608101909152602880825261438560208301396101008201526122bd888561267b565b6101208201526040805160608101909152602880825261445960208301396101408201526122eb88846125b3565b610160820152604080516060810190915260298082526143cf6020830139610180820152604080518082018252600d81526c1e17ba32bc3a1f1e17b9bb339f60991b6020808301919091526101a0840191909152825181840151838501516060860151608087015160a088015160c089015160e08a0151985160009961237399909101613ba3565b60408051808303601f19018152908290526101008401516101208501516101408601516101608701516101808801516101a08901519597506123ba96889690602001613b11565b60405160208183030381529060405290506123d481612e9d565b9998505050505050505050565b600d81815481106123f157600080fd5b906000526020600020906003020160009150905080600001805461241490614296565b80601f016020809104026020016040519081016040528092919081815260200182805461244090614296565b801561248d5780601f106124625761010080835404028352916020019161248d565b820191906000526020600020905b81548152906001019060200180831161247057829003601f168201915b5050505050908060010180546124a290614296565b80601f01602080910402602001604051908101604052809291908181526020018280546124ce90614296565b801561251b5780601f106124f05761010080835404028352916020019161251b565b820191906000526020600020905b8154815290600101906020018083116124fe57829003601f168201915b50505050509080600201805461253090614296565b80601f016020809104026020016040519081016040528092919081815260200182805461255c90614296565b80156125a95780601f1061257e576101008083540402835291602001916125a9565b820191906000526020600020905b81548152906001019060200180831161258c57829003601f168201915b5050505050905083565b6060610d98836040518060400160405280600b81526020016a4143434553534f5249455360a81b81525084612b53565b600b546001600160a01b0316331461260d5760405162461bcd60e51b815260040161077d90614151565b6001600160a01b0381166126725760405162461bcd60e51b815260206004820152602660248201527f4f776e61626c653a206e6577206f776e657220697320746865207a65726f206160448201526564647265737360d01b606482015260840161077d565b6109f081612e18565b6060610d98836040518060400160405280600681526020016541545449524560d01b81525084612b53565b60006001600160e01b031982166380ac58cd60e01b14806126d757506001600160e01b03198216635b5e139f60e01b145b8061067057506301ffc9a760e01b6001600160e01b0319831614610670565b600081815260046020526040902080546001600160a01b0319166001600160a01b038416908117909155819061272b82610cf6565b6001600160a01b03167f8c5be1e5ebec7d5bd14f71427d1e84f3dd0314c0f7b2291e5b200ac8c7c3b92560405160405180910390a45050565b6000818152600260205260408120546001600160a01b03166127dd5760405162461bcd60e51b815260206004820152602c60248201527f4552433732313a206f70657261746f7220717565727920666f72206e6f6e657860448201526b34b9ba32b73a103a37b5b2b760a11b606482015260840161077d565b60006127e883610cf6565b9050806001600160a01b0316846001600160a01b031614806128235750836001600160a01b031661281884610708565b6001600160a01b0316145b8061285357506001600160a01b0380821660009081526005602090815260408083209388168352929052205460ff165b949350505050565b826001600160a01b031661286e82610cf6565b6001600160a01b0316146128d65760405162461bcd60e51b815260206004820152602960248201527f4552433732313a207472616e73666572206f6620746f6b656e2074686174206960448201526839903737ba1037bbb760b91b606482015260840161077d565b6001600160a01b0382166129385760405162461bcd60e51b8152602060048201526024808201527f4552433732313a207472616e7366657220746f20746865207a65726f206164646044820152637265737360e01b606482015260840161077d565b612943838383613003565b61294e6000826126f6565b6001600160a01b0383166000908152600360205260408120805460019290612977908490614253565b90915550506001600160a01b03821660009081526003602052604081208054600192906129a5908490614208565b909155505060008181526002602052604080822080546001600160a01b0319166001600160a01b0386811691821790925591518493918716917fddf252ad1be2c89b69c2b068fc378daa952ba7f163c4a11628f55a4df523b3ef91a4505050565b606081612a2a5750506040805180820190915260018152600360fc1b602082015290565b8160005b8115612a545780612a3e816142d1565b9150612a4d9050600a83614220565b9150612a2e565b60008167ffffffffffffffff811115612a6f57612a6f614358565b6040519080825280601f01601f191660200182016040528015612a99576020820181803683370190505b5090505b841561285357612aae600183614253565b9150612abb600a866142ec565b612ac6906030614208565b60f81b818381518110612adb57612adb614342565b60200101906001600160f81b031916908160001a905350612afd600a86614220565b9450612a9d565b600081604051602001612b179190613ac6565b60408051601f19818403018152919052805160209091012092915050565b612b4f8282604051806020016040528060008152506130bb565b5050565b60606000612b7584612b6487612a06565b604051602001610ab0929190613ae2565b9050600083845183612b8791906142ec565b81518110612b9757612b97614342565b602002602001015190506000601583612bb091906142ec565b9050600e811115612c095760148054839190612bcc90866142ec565b81548110612bdc57612bdc614342565b90600052602060002001604051602001612bf7929190613c48565b60405160208183030381529060405291505b60138110612e0e57612c19613636565b60158054612c2790866142ec565b81548110612c3757612c37614342565b906000526020600020018054612c4c90614296565b80601f0160208091040260200160405190810160405280929190818152602001828054612c7890614296565b8015612cc55780601f10612c9a57610100808354040283529160200191612cc5565b820191906000526020600020905b815481529060010190602001808311612ca857829003601f168201915b505050505081600060028110612cdd57612cdd614342565b602002015260168054612cf090866142ec565b81548110612d0057612d00614342565b906000526020600020018054612d1590614296565b80601f0160208091040260200160405190810160405280929190818152602001828054612d4190614296565b8015612d8e5780601f10612d6357610100808354040283529160200191612d8e565b820191906000526020600020905b815481529060010190602001808311612d7157829003601f168201915b505050505081600160028110612da657612da6614342565b60200201526013821415612de2578051602080830151604051612dcc9392879101613d33565b6040516020818303038152906040529250612e0c565b8051602080830151604051612dfa9392879101613da1565b60405160208183030381529060405292505b505b5095945050505050565b600b80546001600160a01b038381166001600160a01b0319831681179093556040519116919082907f8be0079c531659141344cd1fd0a4f28419497f9722a3daafe3b4186f6b6457e090600090a35050565b612e7584848461285b565b612e81848484846130ee565b6115ba5760405162461bcd60e51b815260040161077d906140ff565b805160609080612ebd575050604080516020810190915260008152919050565b60006003612ecc836002614208565b612ed69190614220565b612ee1906004614234565b90506000612ef0826020614208565b67ffffffffffffffff811115612f0857612f08614358565b6040519080825280601f01601f191660200182016040528015612f32576020820181803683370190505b5090506000604051806060016040528060408152602001614419604091399050600181016020830160005b86811015612fbe576003818a01810151603f601282901c8116860151600c83901c8216870151600684901c831688015192909316870151600891821b60ff94851601821b92841692909201901b91160160e01b835260049092019101612f5d565b506003860660018114612fd85760028114612fe957612ff5565b613d3d60f01b600119830152612ff5565b603d60f81b6000198301525b505050918152949350505050565b6001600160a01b03831661305e5761305981600880546000838152600960205260408120829055600182018355919091527ff3f7a9fe364faab93b216da50a3214154f22a0a2b415b23a84c8169e8b636ee30155565b613081565b816001600160a01b0316836001600160a01b0316146130815761308183826131fb565b6001600160a01b038216613098576108b381613298565b826001600160a01b0316826001600160a01b0316146108b3576108b38282613347565b6130c5838361338b565b6130d260008484846130ee565b6108b35760405162461bcd60e51b815260040161077d906140ff565b60006001600160a01b0384163b156131f057604051630a85bd0160e11b81526001600160a01b0385169063150b7a0290613132903390899088908890600401613ffa565b602060405180830381600087803b15801561314c57600080fd5b505af192505050801561317c575060408051601f3d908101601f191682019092526131799181019061397c565b60015b6131d6573d8080156131aa576040519150601f19603f3d011682016040523d82523d6000602084013e6131af565b606091505b5080516131ce5760405162461bcd60e51b815260040161077d906140ff565b805181602001fd5b6001600160e01b031916630a85bd0160e11b149050612853565b506001949350505050565b6000600161320884610d9f565b6132129190614253565b600083815260076020526040902054909150808214613265576001600160a01b03841660009081526006602090815260408083208584528252808320548484528184208190558352600790915290208190555b5060009182526007602090815260408084208490556001600160a01b039094168352600681528383209183525290812055565b6008546000906132aa90600190614253565b600083815260096020526040812054600880549394509092849081106132d2576132d2614342565b9060005260206000200154905080600883815481106132f3576132f3614342565b600091825260208083209091019290925582815260099091526040808220849055858252812055600880548061332b5761332b61432c565b6001900381819060005260206000200160009055905550505050565b600061335283610d9f565b6001600160a01b039093166000908152600660209081526040808320868452825280832085905593825260079052919091209190915550565b6001600160a01b0382166133e15760405162461bcd60e51b815260206004820181905260248201527f4552433732313a206d696e7420746f20746865207a65726f2061646472657373604482015260640161077d565b6000818152600260205260409020546001600160a01b0316156134465760405162461bcd60e51b815260206004820152601c60248201527f4552433732313a20746f6b656e20616c7265616479206d696e74656400000000604482015260640161077d565b61345260008383613003565b6001600160a01b038216600090815260036020526040812080546001929061347b908490614208565b909155505060008181526002602052604080822080546001600160a01b0319166001600160a01b03861690811790915590518392907fddf252ad1be2c89b69c2b068fc378daa952ba7f163c4a11628f55a4df523b3ef908290a45050565b6040518060c001604052806060815260200160608152602001606081526020016060815260200161352460405180606001604052806060815260200160608152602001606081525090565b8152600060209091015290565b82805461353d90614296565b90600052602060002090601f01602090048101928261355f57600085556135a5565b82601f1061357857805160ff19168380011785556135a5565b828001600101855582156135a5579182015b828111156135a557825182559160200191906001019061358a565b506135b192915061364f565b5090565b828054828255906000526020600020908101928215613602579160200282015b8281111561360257825180516135f2918491602090910190613531565b50916020019190600101906135d5565b506135b1929150613664565b604051806101c00160405280600e905b606081526020019060019003908161361e5790505090565b604080518082019091526060815260016020820161361e565b5b808211156135b15760008155600101613650565b808211156135b15760006136788282613681565b50600101613664565b50805461368d90614296565b6000825580601f1061369d575050565b601f0160209004906000526020600020908101906109f0919061364f565b600067ffffffffffffffff8311156136d5576136d5614358565b6136e8601f8401601f19166020016141d7565b90508281528383830111156136fc57600080fd5b828260208301376000602084830101529392505050565b80356001600160a01b038116811461372a57600080fd5b919050565b600082601f83011261374057600080fd5b8135602067ffffffffffffffff8083111561375d5761375d614358565b8260051b61376c8382016141d7565b8481528381019087850183890186018a101561378757600080fd5b60009350835b878110156137c4578135868111156137a3578586fd5b6137b18c89838e01016137d3565b855250928601929086019060010161378d565b50909998505050505050505050565b600082601f8301126137e457600080fd5b610d98838335602085016136bb565b60006020828403121561380557600080fd5b610d9882613713565b6000806040838503121561382157600080fd5b61382a83613713565b915061383860208401613713565b90509250929050565b60008060006060848603121561385657600080fd5b61385f84613713565b925061386d60208501613713565b9150604084013590509250925092565b6000806000806080858703121561389357600080fd5b61389c85613713565b93506138aa60208601613713565b925060408501359150606085013567ffffffffffffffff8111156138cd57600080fd5b8501601f810187136138de57600080fd5b6138ed878235602084016136bb565b91505092959194509250565b6000806040838503121561390c57600080fd5b61391583613713565b91506020830135801515811461392a57600080fd5b809150509250929050565b6000806040838503121561394857600080fd5b61395183613713565b946020939093013593505050565b60006020828403121561397157600080fd5b8135610d988161436e565b60006020828403121561398e57600080fd5b8151610d988161436e565b600080600080608085870312156139af57600080fd5b843567ffffffffffffffff808211156139c757600080fd5b6139d3888389016137d3565b955060208701359150808211156139e957600080fd5b6139f58883890161372f565b94506040870135915080821115613a0b57600080fd5b613a178883890161372f565b93506060870135915080821115613a2d57600080fd5b506138ed8782880161372f565b600060208284031215613a4c57600080fd5b5035919050565b60008060408385031215613a6657600080fd5b82359150602083013567ffffffffffffffff811115613a8457600080fd5b613a908582860161372f565b9150509250929050565b60008151808452613ab281602086016020860161426a565b601f01601f19169290920160200192915050565b60008251613ad881846020870161426a565b9190910192915050565b60008351613af481846020880161426a565b835190830190613b0881836020880161426a565b01949350505050565b600088516020613b248285838e0161426a565b895191840191613b378184848e0161426a565b8951920191613b498184848d0161426a565b8851920191613b5b8184848c0161426a565b8751920191613b6d8184848b0161426a565b8651920191613b7f8184848a0161426a565b8551920191613b91818484890161426a565b919091019a9950505050505050505050565b600089516020613bb68285838f0161426a565b8a5191840191613bc98184848f0161426a565b8a51920191613bdb8184848e0161426a565b8951920191613bed8184848d0161426a565b8851920191613bff8184848c0161426a565b8751920191613c118184848b0161426a565b8651920191613c238184848a0161426a565b8551920191613c35818484890161426a565b919091019b9a5050505050505050505050565b600083516020613c5b828583890161426a565b600160fd1b918401918252845460019060009080831c81841680613c8057607f821691505b858210811415613c9e57634e487b7160e01b84526022600452602484fd5b808015613cb25760018114613cc757613cf8565b60ff1984168887015282880186019450613cf8565b60008b81526020902060005b84811015613cee5781548a8201890152908701908801613cd3565b5050858389010194505b50929a9950505050505050505050565b6211d41560ea1b815260008251613d2681600385016020870161426a565b9190910160030192915050565b601160f91b81528351600090613d5081600185016020890161426a565b600160fd1b6001918401918201528451613d7181600284016020890161426a565b61011160f51b600292909101918201528351613d9481600484016020880161426a565b0160040195945050505050565b601160f91b81528351600090613dbe81600185016020890161426a565b600160fd1b6001918401918201528451613ddf81600284016020890161426a565b61011160f51b600292909101918201528351613e0281600484016020880161426a565b62202b3160e81b6004929091019182015260070195945050505050565b6e7b226e616d65223a2022426167202360881b81528251600090613e4a81600f85016020880161426a565b80830190507f222c20226465736372697074696f6e223a20224c6f6f742069732072616e646f600f8201527f6d697a656420616476656e747572657220676561722067656e65726174656420602f8201527f616e642073746f726564206f6e20636861696e2e2053746174732c20696d6167604f8201527f65732c20616e64206f746865722066756e6374696f6e616c6974792061726520606f8201527f696e74656e74696f6e616c6c79206f6d697474656420666f72206f7468657273608f8201527f20746f20696e746572707265742e204665656c206672656520746f207573652060af8201527f4c6f6f7420696e20616e792077617920796f752077616e742e222c2022696d6160cf8201527f6765223a2022646174613a696d6167652f7376672b786d6c3b6261736536342c60ef82015261010f8451613f94818385016020890161426a565b613faa828285010161227d60f01b815260020190565b979650505050505050565b7f646174613a6170706c69636174696f6e2f6a736f6e3b6261736536342c000000815260008251613fed81601d85016020870161426a565b91909101601d0192915050565b6001600160a01b038581168252841660208201526040810183905260806060820181905260009061402d90830184613a9a565b9695505050505050565b602081526000610d986020830184613a9a565b60608152600061405d6060830186613a9a565b828103602084015261406f8186613a9a565b9050828103604084015261402d8185613a9a565b6060815260006140966060830186613a9a565b82810360208401528451606082526140b16060830182613a9a565b9050602086015182820360208401526140ca8282613a9a565b915050604086015182820360408401526140e48282613a9a565b935050505060018060a01b0383166040830152949350505050565b60208082526032908201527f4552433732313a207472616e7366657220746f206e6f6e20455243373231526560408201527131b2b4bb32b91034b6b83632b6b2b73a32b960711b606082015260800190565b6020808252818101527f4f776e61626c653a2063616c6c6572206973206e6f7420746865206f776e6572604082015260600190565b60208082526031908201527f4552433732313a207472616e736665722063616c6c6572206973206e6f74206f6040820152701ddb995c881b9bdc88185c1c1c9bdd9959607a1b606082015260800190565b604051601f8201601f1916810167ffffffffffffffff8111828210171561420057614200614358565b604052919050565b6000821982111561421b5761421b614300565b500190565b60008261422f5761422f614316565b500490565b600081600019048311821515161561424e5761424e614300565b500290565b60008282101561426557614265614300565b500390565b60005b8381101561428557818101518382015260200161426d565b838111156115ba5750506000910152565b600181811c908216806142aa57607f821691505b602082108114156142cb57634e487b7160e01b600052602260045260246000fd5b50919050565b60006000198214156142e5576142e5614300565b5060010190565b6000826142fb576142fb614316565b500690565b634e487b7160e01b600052601160045260246000fd5b634e487b7160e01b600052601260045260246000fd5b634e487b7160e01b600052603160045260246000fd5b634e487b7160e01b600052603260045260246000fd5b634e487b7160e01b600052604160045260246000fd5b6001600160e01b0319811681146109f057600080fdfe3c2f746578743e3c7465787420783d2231302220793d2236302220636c6173733d2262617365223e22206f66667365743d22333325222f3e3c73746f702073746f702d636f6c6f723d223c2f746578743e3c7465787420783d2231302220793d223132302220636c6173733d2262617365223e22206f66667365743d223025222f3e3c73746f702073746f702d636f6c6f723d224142434445464748494a4b4c4d4e4f505152535455565758595a6162636465666768696a6b6c6d6e6f707172737475767778797a303132333435363738392b2f3c2f746578743e3c7465787420783d2231302220793d2239302220636c6173733d2262617365223e22206f66667365743d2231303025222f3e3c2f6c696e6561724772616469656e743e3c2f646566733e3c726563742077696474683d223130302522206865696768743d2231303025222066696c6c3d22626c61636b22202f3e3c7465787420783d2231302220793d2233302220636c6173733d2262617365223e3c73766720786d6c6e733d22687474703a2f2f7777772e77332e6f72672f323030302f73766722207072657365727665417370656374526174696f3d22784d696e594d696e206d656574222076696577426f783d223020302033353020333530223e3c7374796c653e2e62617365207b2066696c6c3a2075726c28236c696e6561722d6772616469656e74293b20666f6e742d66616d696c793a20496d706163743b20666f6e742d73697a653a20313870783b20666f6e745765696768743a20626f6c643b207d3c2f7374796c653e3c646566733e3c6c696e6561724772616469656e742069643d226c696e6561722d6772616469656e74222078313d2230222078323d2230222079313d2230222079323d223130302522206772616469656e74556e6974733d227573657253706163654f6e557365223e3c73746f702073746f702d636f6c6f723d22a26469706673582212202b1c55778eba86e68ac81458f6376a3f986590699911e77c5f02aa86d0b76cd064736f6c63430008070033d7b6990105719101dabeb77144f2a3385c8033acd3af97e9423a695e81ad1eb5","bytecodeSha1":"f82872a4945185d78f7cd2a9c17d353eac89563c","type":"contract","abi":[{"inputs":[],"stateMutability":"nonpayable","type":"constructor","name":"constructor"},{"anonymous":false,"inputs":[{"indexed":true,"internalType":"address","name":"owner","type":"address"},{"indexed":true,"internalType":"address","name":"approved","type":"address"},{"indexed":true,"internalType":"uint256","name":"tokenId","type":"uint256"}],"name":"Approval","type":"event"},{"anonymous":false,"inputs":[{"indexed":true,"internalType":"address","name":"owner","type":"address"},{"indexed":true,"internalType":"address","name":"operator","type":"address"},{"indexed":false,"internalType":"bool","name":"approved","type":"bool"}],"name":"ApprovalForAll","type":"event"},{"anonymous":false,"inputs":[{"indexed":true,"internalType":"address","name":"previousOwner","type":"address"},{"indexed":true,"internalType":"address","name":"newOwner","type":"address"}],"name":"OwnershipTransferred","type":"event"},{"anonymous":false,"inputs":[{"indexed":true,"internalType":"address","name":"from","type":"address"},{"indexed":true,"internalType":"address","name":"to","type":"address"},{"indexed":true,"internalType":"uint256","name":"tokenId","type":"uint256"}],"name":"Transfer","type":"event"},{"anonymous":false,"inputs":[{"indexed":false,"internalType":"address","name":"to","type":"address"},{"indexed":false,"internalType":"uint256","name":"fee","type":"uint256"}],"name":"feeCollected","type":"event"},{"inputs":[{"internalType":"string","name":"_theme","type":"string"},{"internalType":"string[]","name":"_weapons","type":"string[]"},{"internalType":"string[]","name":"_attire","type":"string[]"},{"internalType":"string[]","name":"_accessories","type":"string[]"}],"name":"addItemSet","outputs":[],"stateMutability":"payable","type":"function"},{"inputs":[{"internalType":"address","name":"to","type":"address"},{"internalType":"uint256","name":"tokenId","type":"uint256"}],"name":"approve","outputs":[],"stateMutability":"nonpayable","type":"function"},{"inputs":[{"internalType":"address","name":"owner","type":"address"}],"name":"balanceOf","outputs":[{"internalType":"uint256","name":"","type":"uint256"}],"stateMutability":"view","type":"function"},{"inputs":[],"name":"claim","outputs":[],"stateMutability":"payable","type":"function"},{"inputs":[{"internalType":"address","name":"","type":"address"}],"name":"collectedFees","outputs":[{"internalType":"uint256","name":"","type":"uint256"}],"stateMutability":"view","type":"function"},{"inputs":[{"internalType":"uint256","name":"","type":"uint256"}],"name":"colorSets","outputs":[{"internalType":"string","name":"color1","type":"string"},{"internalType":"string","name":"color2","type":"string"},{"internalType":"string","name":"color3","type":"string"}],"stateMutability":"view","type":"function"},{"inputs":[{"internalType":"uint256","name":"tokenId","type":"uint256"},{"internalType":"string[]","name":"accessories","type":"string[]"}],"name":"getAccessories","outputs":[{"internalType":"string","name":"","type":"string"}],"stateMutability":"view","type":"function"},{"inputs":[{"internalType":"uint256","name":"tokenId","type":"uint256"}],"name":"getApproved","outputs":[{"internalType":"address","name":"","type":"address"}],"stateMutability":"view","type":"function"},{"inputs":[{"internalType":"uint256","name":"tokenId","type":"uint256"},{"internalType":"string[]","name":"attire","type":"string[]"}],"name":"getAttire","outputs":[{"internalType":"string","name":"","type":"string"}],"stateMutability":"view","type":"function"},{"inputs":[{"internalType":"uint256","name":"tokenId","type":"uint256"},{"internalType":"string[]","name":"weapons","type":"string[]"}],"name":"getWeapon","outputs":[{"internalType":"string","name":"","type":"string"}],"stateMutability":"view","type":"function"},{"inputs":[{"internalType":"address","name":"owner","type":"address"},{"internalType":"address","name":"operator","type":"address"}],"name":"isApprovedForAll","outputs":[{"internalType":"bool","name":"","type":"bool"}],"stateMutability":"view","type":"function"},{"inputs":[{"internalType":"uint256","name":"","type":"uint256"}],"name":"itemSets","outputs":[{"internalType":"string","name":"theme","type":"string"},{"components":[{"internalType":"string","name":"color1","type":"string"},{"internalType":"string","name":"color2","type":"string"},{"internalType":"string","name":"color3","type":"string"}],"internalType":"struct Master.ColorSet","name":"colorSet","type":"tuple"},{"internalType":"address payable","name":"creator","type":"address"}],"stateMutability":"view","type":"function"},{"inputs":[],"name":"name","outputs":[{"internalType":"string","name":"","type":"string"}],"stateMutability":"view","type":"function"},{"inputs":[{"internalType":"address","name":"","type":"address"}],"name":"numItemsSets","outputs":[{"internalType":"uint256","name":"","type":"uint256"}],"stateMutability":"view","type":"function"},{"inputs":[],"name":"owner","outputs":[{"internalType":"address","name":"","type":"address"}],"stateMutability":"view","type":"function"},{"inputs":[{"internalType":"uint256","name":"tokenId","type":"uint256"}],"name":"ownerOf","outputs":[{"internalType":"address","name":"","type":"address"}],"stateMutability":"view","type":"function"},{"inputs":[],"name":"renounceOwnership","outputs":[],"stateMutability":"nonpayable","type":"function"},{"inputs":[{"internalType":"address","name":"from","type":"address"},{"internalType":"address","name":"to","type":"address"},{"internalType":"uint256","name":"tokenId","type":"uint256"}],"name":"safeTransferFrom","outputs":[],"stateMutability":"nonpayable","type":"function"},{"inputs":[{"internalType":"address","name":"from","type":"address"},{"internalType":"address","name":"to","type":"address"},{"internalType":"uint256","name":"tokenId","type":"uint256"},{"internalType":"bytes","name":"_data","type":"bytes"}],"name":"safeTransferFrom","outputs":[],"stateMutability":"nonpayable","type":"function"},{"inputs":[{"internalType":"address","name":"operator","type":"address"},{"internalType":"bool","name":"approved","type":"bool"}],"name":"setApprovalForAll","outputs":[],"stateMutability":"nonpayable","type":"function"},{"inputs":[{"internalType":"bytes4","name":"interfaceId","type":"bytes4"}],"name":"supportsInterface","outputs":[{"internalType":"bool","name":"","type":"bool"}],"stateMutability":"view","type":"function"},{"inputs":[],"name":"symbol","outputs":[{"internalType":"string","name":"","type":"string"}],"stateMutability":"view","type":"function"},{"inputs":[{"internalType":"uint256","name":"index","type":"uint256"}],"name":"tokenByIndex","outputs":[{"internalType":"uint256","name":"","type":"uint256"}],"stateMutability":"view","type":"function"},{"inputs":[{"internalType":"uint256","name":"","type":"uint256"}],"name":"tokenIdToRand","outputs":[{"internalType":"uint256","name":"","type":"uint256"}],"stateMutability":"view","type":"function"},{"inputs":[{"internalType":"uint256","name":"tokenId","type":"uint256"}],"name":"tokenImage","outputs":[{"internalType":"string","name":"","type":"string"}],"stateMutability":"view","type":"function"},{"inputs":[{"internalType":"address","name":"owner","type":"address"},{"internalType":"uint256","name":"index","type":"uint256"}],"name":"tokenOfOwnerByIndex","outputs":[{"internalType":"uint256","name":"","type":"uint256"}],"stateMutability":"view","type":"function"},{"inputs":[{"internalType":"uint256","name":"tokenId","type":"uint256"}],"name":"tokenURI","outputs":[{"internalType":"string","name":"","type":"string"}],"stateMutability":"view","type":"function"},{"inputs":[],"name":"totalSupply","outputs":[{"internalType":"uint256","name":"","type":"uint256"}],"stateMutability":"view","type":"function"},{"inputs":[{"internalType":"address","name":"from","type":"address"},{"internalType":"address","name":"to","type":"address"},{"internalType":"uint256","name":"tokenId","type":"uint256"}],"name":"transferFrom","outputs":[],"stateMutability":"nonpayable","type":"function"},{"inputs":[{"internalType":"address","name":"newOwner","type":"address"}],"name":"transferOwnership","outputs":[],"stateMutability":"nonpayable","type":"function"},{"inputs":[{"internalType":"address","name":"","type":"address"}],"name":"userToMinted","outputs":[{"internalType":"uint256","name":"","type":"uint256"}],"stateMutability":"view","type":"function"},{"inputs":[],"name":"withdrawFees","outputs":[],"stateMutability":"nonpayable","type":"function"}],"compiler":{"version":"0.8.7+commit.e28d00a7","evm_version":"istanbul","optimizer":{"enabled":true,"runs":200}},"contractName":"Master","language":"Solidity","natspec":{"methods":{"approve(address,uint256)":{"details":"See {IERC721-approve}."},"balanceOf(address)":{"details":"See {IERC721-balanceOf}."},"getApproved(uint256)":{"details":"See {IERC721-getApproved}."},"isApprovedForAll(address,address)":{"details":"See {IERC721-isApprovedForAll}."},"name()":{"details":"See {IERC721Metadata-name}."},"owner()":{"details":"Returns the address of the current owner."},"ownerOf(uint256)":{"details":"See {IERC721-ownerOf}."},"renounceOwnership()":{"details":"Leaves the contract without owner. It will not be possible to call `onlyOwner` functions anymore. Can only be called by the current owner. NOTE: Renouncing ownership will leave the contract without an owner, thereby removing any functionality that is only available to the owner."},"safeTransferFrom(address,address,uint256)":{"details":"See {IERC721-safeTransferFrom}."},"safeTransferFrom(address,address,uint256,bytes)":{"details":"See {IERC721-safeTransferFrom}."},"setApprovalForAll(address,bool)":{"details":"See {IERC721-setApprovalForAll}."},"supportsInterface(bytes4)":{"details":"See {IERC165-supportsInterface}."},"symbol()":{"details":"See {IERC721Metadata-symbol}."},"tokenByIndex(uint256)":{"details":"See {IERC721Enumerable-tokenByIndex}."},"tokenOfOwnerByIndex(address,uint256)":{"details":"See {IERC721Enumerable-tokenOfOwnerByIndex}."},"tokenURI(uint256)":{"details":"See {IERC721Metadata-tokenURI}."},"totalSupply()":{"details":"See {IERC721Enumerable-totalSupply}."},"transferFrom(address,address,uint256)":{"details":"See {IERC721-transferFrom}."},"transferOwnership(address)":{"details":"Transfers ownership of the contract to a new account (`newOwner`). Can only be called by the current owner."}},"kind":"dev","version":1},"opcodes":"PUSH1 0x80 PUSH1 0x40 MSTORE PUSH1 0x4 CALLDATASIZE LT PUSH2 0x1E3 JUMPI PUSH1 0x0 CALLDATALOAD PUSH1 0xE0 SHR DUP1 PUSH4 0x70A08231 GT PUSH2 0x102 JUMPI DUP1 PUSH4 0xB88D4FDE GT PUSH2 0x95 JUMPI DUP1 PUSH4 0xE2F8451E GT PUSH2 0x64 JUMPI DUP1 PUSH4 0xE2F8451E EQ PUSH2 0x5A2 JUMPI DUP1 PUSH4 0xE985E9C5 EQ PUSH2 0x5C2 JUMPI DUP1 PUSH4 0xF2FDE38B EQ PUSH2 0x60B JUMPI DUP1 PUSH4 0xF72A3D89 EQ PUSH2 0x62B JUMPI PUSH1 0x0 DUP1 REVERT JUMPDEST DUP1 PUSH4 0xB88D4FDE EQ PUSH2 0x513 JUMPI DUP1 PUSH4 0xC87B56DD EQ PUSH2 0x533 JUMPI DUP1 PUSH4 0xCF348425 EQ PUSH2 0x553 JUMPI DUP1 PUSH4 0xDDA34D16 EQ PUSH2 0x573 JUMPI PUSH1 0x0 DUP1 REVERT JUMPDEST DUP1 PUSH4 0x9043A374 GT PUSH2 0xD1 JUMPI DUP1 PUSH4 0x9043A374 EQ PUSH2 0x49C JUMPI DUP1 PUSH4 0x95D89B41 EQ PUSH2 0x4AF JUMPI DUP1 PUSH4 0xA22CB465 EQ PUSH2 0x4C4 JUMPI DUP1 PUSH4 0xB19DAAB2 EQ PUSH2 0x4E4 JUMPI PUSH1 0x0 DUP1 REVERT JUMPDEST DUP1 PUSH4 0x70A08231 EQ PUSH2 0x41C JUMPI DUP1 PUSH4 0x715018A6 EQ PUSH2 0x43C JUMPI DUP1 PUSH4 0x7A955950 EQ PUSH2 0x451 JUMPI DUP1 PUSH4 0x8DA5CB5B EQ PUSH2 0x47E JUMPI PUSH1 0x0 DUP1 REVERT JUMPDEST DUP1 PUSH4 0x23B872DD GT PUSH2 0x17A JUMPI DUP1 PUSH4 0x4E71D92D GT PUSH2 0x149 JUMPI DUP1 PUSH4 0x4E71D92D EQ PUSH2 0x3B4 JUMPI DUP1 PUSH4 0x4F6CCCE7 EQ PUSH2 0x3BC JUMPI DUP1 PUSH4 0x6352211E EQ PUSH2 0x3DC JUMPI DUP1 PUSH4 0x69B9321F EQ PUSH2 0x3FC JUMPI PUSH1 0x0 DUP1 REVERT JUMPDEST DUP1 PUSH4 0x23B872DD EQ PUSH2 0x33F JUMPI DUP1 PUSH4 0x2F745C59 EQ PUSH2 0x35F JUMPI DUP1 PUSH4 0x42842E0E EQ PUSH2 0x37F JUMPI DUP1 PUSH4 0x476343EE EQ PUSH2 0x39F JUMPI PUSH1 0x0 DUP1 REVERT JUMPDEST DUP1 PUSH4 0x18160DDD GT PUSH2 0x1B6 JUMPI DUP1 PUSH4 0x18160DDD EQ PUSH2 0x299 JUMPI DUP1 PUSH4 0x1AC56992 EQ PUSH2 0x2B8 JUMPI DUP1 PUSH4 0x1CA5CA4E EQ PUSH2 0x2E5 JUMPI DUP1 PUSH4 0x1CEAD9A7 EQ PUSH2 0x312 JUMPI PUSH1 0x0 DUP1 REVERT JUMPDEST DUP1 PUSH4 0x1FFC9A7 EQ PUSH2 0x1E8 JUMPI DUP1 PUSH4 0x6FDDE03 EQ PUSH2 0x21D JUMPI DUP1 PUSH4 0x81812FC EQ PUSH2 0x23F JUMPI DUP1 PUSH4 0x95EA7B3 EQ PUSH2 0x277 JUMPI JUMPDEST PUSH1 0x0 DUP1 REVERT JUMPDEST CALLVALUE DUP1 ISZERO PUSH2 0x1F4 JUMPI PUSH1 0x0 DUP1 REVERT JUMPDEST POP PUSH2 0x208 PUSH2 0x203 CALLDATASIZE PUSH1 0x4 PUSH2 0x395F JUMP JUMPDEST PUSH2 0x64B JUMP JUMPDEST PUSH1 0x40 MLOAD SWAP1 ISZERO ISZERO DUP2 MSTORE PUSH1 0x20 ADD JUMPDEST PUSH1 0x40 MLOAD DUP1 SWAP2 SUB SWAP1 RETURN JUMPDEST CALLVALUE DUP1 ISZERO PUSH2 0x229 JUMPI PUSH1 0x0 DUP1 REVERT JUMPDEST POP PUSH2 0x232 PUSH2 0x676 JUMP JUMPDEST PUSH1 0x40 MLOAD PUSH2 0x214 SWAP2 SWAP1 PUSH2 0x4037 JUMP JUMPDEST CALLVALUE DUP1 ISZERO PUSH2 0x24B JUMPI PUSH1 0x0 DUP1 REVERT JUMPDEST POP PUSH2 0x25F PUSH2 0x25A CALLDATASIZE PUSH1 0x4 PUSH2 0x3A3A JUMP JUMPDEST PUSH2 0x708 JUMP JUMPDEST PUSH1 0x40 MLOAD PUSH1 0x1 PUSH1 0x1 PUSH1 0xA0 SHL SUB SWAP1 SWAP2 AND DUP2 MSTORE PUSH1 0x20 ADD PUSH2 0x214 JUMP JUMPDEST CALLVALUE DUP1 ISZERO PUSH2 0x283 JUMPI PUSH1 0x0 DUP1 REVERT JUMPDEST POP PUSH2 0x297 PUSH2 0x292 CALLDATASIZE PUSH1 0x4 PUSH2 0x3935 JUMP JUMPDEST PUSH2 0x7A2 JUMP JUMPDEST STOP JUMPDEST CALLVALUE DUP1 ISZERO PUSH2 0x2A5 JUMPI PUSH1 0x0 DUP1 REVERT JUMPDEST POP PUSH1 0x8 SLOAD JUMPDEST PUSH1 0x40 MLOAD SWAP1 DUP2 MSTORE PUSH1 0x20 ADD PUSH2 0x214 JUMP JUMPDEST CALLVALUE DUP1 ISZERO PUSH2 0x2C4 JUMPI PUSH1 0x0 DUP1 REVERT JUMPDEST POP PUSH2 0x2AA PUSH2 0x2D3 CALLDATASIZE PUSH1 0x4 PUSH2 0x37F3 JUMP JUMPDEST PUSH1 0x12 PUSH1 0x20 MSTORE PUSH1 0x0 SWAP1 DUP2 MSTORE PUSH1 0x40 SWAP1 KECCAK256 SLOAD DUP2 JUMP JUMPDEST CALLVALUE DUP1 ISZERO PUSH2 0x2F1 JUMPI PUSH1 0x0 DUP1 REVERT JUMPDEST POP PUSH2 0x2AA PUSH2 0x300 CALLDATASIZE PUSH1 0x4 PUSH2 0x37F3 JUMP JUMPDEST PUSH1 0x10 PUSH1 0x20 MSTORE PUSH1 0x0 SWAP1 DUP2 MSTORE PUSH1 0x40 SWAP1 KECCAK256 SLOAD DUP2 JUMP JUMPDEST CALLVALUE DUP1 ISZERO PUSH2 0x31E JUMPI PUSH1 0x0 DUP1 REVERT JUMPDEST POP PUSH2 0x2AA PUSH2 0x32D CALLDATASIZE PUSH1 0x4 PUSH2 0x37F3 JUMP JUMPDEST PUSH1 0x13 PUSH1 0x20 MSTORE PUSH1 0x0 SWAP1 DUP2 MSTORE PUSH1 0x40 SWAP1 KECCAK256 SLOAD DUP2 JUMP JUMPDEST CALLVALUE DUP1 ISZERO PUSH2 0x34B JUMPI PUSH1 0x0 DUP1 REVERT JUMPDEST POP PUSH2 0x297 PUSH2 0x35A CALLDATASIZE PUSH1 0x4 PUSH2 0x3841 JUMP JUMPDEST PUSH2 0x8B8 JUMP JUMPDEST CALLVALUE DUP1 ISZERO PUSH2 0x36B JUMPI PUSH1 0x0 DUP1 REVERT JUMPDEST POP PUSH2 0x2AA PUSH2 0x37A CALLDATASIZE PUSH1 0x4 PUSH2 0x3935 JUMP JUMPDEST PUSH2 0x8E9 JUMP JUMPDEST CALLVALUE DUP1 ISZERO PUSH2 0x38B JUMPI PUSH1 0x0 DUP1 REVERT JUMPDEST POP PUSH2 0x297 PUSH2 0x39A CALLDATASIZE PUSH1 0x4 PUSH2 0x3841 JUMP JUMPDEST PUSH2 0x97F JUMP JUMPDEST CALLVALUE DUP1 ISZERO PUSH2 0x3AB JUMPI PUSH1 0x0 DUP1 REVERT JUMPDEST POP PUSH2 0x297 PUSH2 0x99A JUMP JUMPDEST PUSH2 0x297 PUSH2 0x9F3 JUMP JUMPDEST CALLVALUE DUP1 ISZERO PUSH2 0x3C8 JUMPI PUSH1 0x0 DUP1 REVERT JUMPDEST POP PUSH2 0x2AA PUSH2 0x3D7 CALLDATASIZE PUSH1 0x4 PUSH2 0x3A3A JUMP JUMPDEST PUSH2 0xC63 JUMP JUMPDEST CALLVALUE DUP1 ISZERO PUSH2 0x3E8 JUMPI PUSH1 0x0 DUP1 REVERT JUMPDEST POP PUSH2 0x25F PUSH2 0x3F7 CALLDATASIZE PUSH1 0x4 PUSH2 0x3A3A JUMP JUMPDEST PUSH2 0xCF6 JUMP JUMPDEST CALLVALUE DUP1 ISZERO PUSH2 0x408 JUMPI PUSH1 0x0 DUP1 REVERT JUMPDEST POP PUSH2 0x232 PUSH2 0x417 CALLDATASIZE PUSH1 0x4 PUSH2 0x3A53 JUMP JUMPDEST PUSH2 0xD6D JUMP JUMPDEST CALLVALUE DUP1 ISZERO PUSH2 0x428 JUMPI PUSH1 0x0 DUP1 REVERT JUMPDEST POP PUSH2 0x2AA PUSH2 0x437 CALLDATASIZE PUSH1 0x4 PUSH2 0x37F3 JUMP JUMPDEST PUSH2 0xD9F JUMP JUMPDEST CALLVALUE DUP1 ISZERO PUSH2 0x448 JUMPI PUSH1 0x0 DUP1 REVERT JUMPDEST POP PUSH2 0x297 PUSH2 0xE26 JUMP JUMPDEST CALLVALUE DUP1 ISZERO PUSH2 0x45D JUMPI PUSH1 0x0 DUP1 REVERT JUMPDEST POP PUSH2 0x2AA PUSH2 0x46C CALLDATASIZE PUSH1 0x4 PUSH2 0x3A3A JUMP JUMPDEST PUSH1 0x11 PUSH1 0x20 MSTORE PUSH1 0x0 SWAP1 DUP2 MSTORE PUSH1 0x40 SWAP1 KECCAK256 SLOAD DUP2 JUMP JUMPDEST CALLVALUE DUP1 ISZERO PUSH2 0x48A JUMPI PUSH1 0x0 DUP1 REVERT JUMPDEST POP PUSH1 0xB SLOAD PUSH1 0x1 PUSH1 0x1 PUSH1 0xA0 SHL SUB AND PUSH2 0x25F JUMP JUMPDEST PUSH2 0x297 PUSH2 0x4AA CALLDATASIZE PUSH1 0x4 PUSH2 0x3999 JUMP JUMPDEST PUSH2 0xE5C JUMP JUMPDEST CALLVALUE DUP1 ISZERO PUSH2 0x4BB JUMPI PUSH1 0x0 DUP1 REVERT JUMPDEST POP PUSH2 0x232 PUSH2 0x122A JUMP JUMPDEST CALLVALUE DUP1 ISZERO PUSH2 0x4D0 JUMPI PUSH1 0x0 DUP1 REVERT JUMPDEST POP PUSH2 0x297 PUSH2 0x4DF CALLDATASIZE PUSH1 0x4 PUSH2 0x38F9 JUMP JUMPDEST PUSH2 0x1239 JUMP JUMPDEST CALLVALUE DUP1 ISZERO PUSH2 0x4F0 JUMPI PUSH1 0x0 DUP1 REVERT JUMPDEST POP PUSH2 0x504 PUSH2 0x4FF CALLDATASIZE PUSH1 0x4 PUSH2 0x3A3A JUMP JUMPDEST PUSH2 0x12FE JUMP JUMPDEST PUSH1 0x40 MLOAD PUSH2 0x214 SWAP4 SWAP3 SWAP2 SWAP1 PUSH2 0x4083 JUMP JUMPDEST CALLVALUE DUP1 ISZERO PUSH2 0x51F JUMPI PUSH1 0x0 DUP1 REVERT JUMPDEST POP PUSH2 0x297 PUSH2 0x52E CALLDATASIZE PUSH1 0x4 PUSH2 0x387D JUMP JUMPDEST PUSH2 0x1588 JUMP JUMPDEST CALLVALUE DUP1 ISZERO PUSH2 0x53F JUMPI PUSH1 0x0 DUP1 REVERT JUMPDEST POP PUSH2 0x232 PUSH2 0x54E CALLDATASIZE PUSH1 0x4 PUSH2 0x3A3A JUMP JUMPDEST PUSH2 0x15C0 JUMP JUMPDEST CALLVALUE DUP1 ISZERO PUSH2 0x55F JUMPI PUSH1 0x0 DUP1 REVERT JUMPDEST POP PUSH2 0x232 PUSH2 0x56E CALLDATASIZE PUSH1 0x4 PUSH2 0x3A3A JUMP JUMPDEST PUSH2 0x1CFC JUMP JUMPDEST CALLVALUE DUP1 ISZERO PUSH2 0x57F JUMPI PUSH1 0x0 DUP1 REVERT JUMPDEST POP PUSH2 0x593 PUSH2 0x58E CALLDATASIZE PUSH1 0x4 PUSH2 0x3A3A JUMP JUMPDEST PUSH2 0x23E1 JUMP JUMPDEST PUSH1 0x40 MLOAD PUSH2 0x214 SWAP4 SWAP3 SWAP2 SWAP1 PUSH2 0x404A JUMP JUMPDEST CALLVALUE DUP1 ISZERO PUSH2 0x5AE JUMPI PUSH1 0x0 DUP1 REVERT JUMPDEST POP PUSH2 0x232 PUSH2 0x5BD CALLDATASIZE PUSH1 0x4 PUSH2 0x3A53 JUMP JUMPDEST PUSH2 0x25B3 JUMP JUMPDEST CALLVALUE DUP1 ISZERO PUSH2 0x5CE JUMPI PUSH1 0x0 DUP1 REVERT JUMPDEST POP PUSH2 0x208 PUSH2 0x5DD CALLDATASIZE PUSH1 0x4 PUSH2 0x380E JUMP JUMPDEST PUSH1 0x1 PUSH1 0x1 PUSH1 0xA0 SHL SUB SWAP2 DUP3 AND PUSH1 0x0 SWAP1 DUP2 MSTORE PUSH1 0x5 PUSH1 0x20 SWAP1 DUP2 MSTORE PUSH1 0x40 DUP1 DUP4 KECCAK256 SWAP4 SWAP1 SWAP5 AND DUP3 MSTORE SWAP2 SWAP1 SWAP2 MSTORE KECCAK256 SLOAD PUSH1 0xFF AND SWAP1 JUMP JUMPDEST CALLVALUE DUP1 ISZERO PUSH2 0x617 JUMPI PUSH1 0x0 DUP1 REVERT JUMPDEST POP PUSH2 0x297 PUSH2 0x626 CALLDATASIZE PUSH1 0x4 PUSH2 0x37F3 JUMP JUMPDEST PUSH2 0x25E3 JUMP JUMPDEST CALLVALUE DUP1 ISZERO PUSH2 0x637 JUMPI PUSH1 0x0 DUP1 REVERT JUMPDEST POP PUSH2 0x232 PUSH2 0x646 CALLDATASIZE PUSH1 0x4 PUSH2 0x3A53 JUMP JUMPDEST PUSH2 0x267B JUMP JUMPDEST PUSH1 0x0 PUSH1 0x1 PUSH1 0x1 PUSH1 0xE0 SHL SUB NOT DUP3 AND PUSH4 0x780E9D63 PUSH1 0xE0 SHL EQ DUP1 PUSH2 0x670 JUMPI POP PUSH2 0x670 DUP3 PUSH2 0x26A6 JUMP JUMPDEST SWAP3 SWAP2 POP POP JUMP JUMPDEST PUSH1 0x60 PUSH1 0x0 DUP1 SLOAD PUSH2 0x685 SWAP1 PUSH2 0x4296 JUMP JUMPDEST DUP1 PUSH1 0x1F ADD PUSH1 0x20 DUP1 SWAP2 DIV MUL PUSH1 0x20 ADD PUSH1 0x40 MLOAD SWAP1 DUP2 ADD PUSH1 0x40 MSTORE DUP1 SWAP3 SWAP2 SWAP1 DUP2 DUP2 MSTORE PUSH1 0x20 ADD DUP3 DUP1 SLOAD PUSH2 0x6B1 SWAP1 PUSH2 0x4296 JUMP JUMPDEST DUP1 ISZERO PUSH2 0x6FE JUMPI DUP1 PUSH1 0x1F LT PUSH2 0x6D3 JUMPI PUSH2 0x100 DUP1 DUP4 SLOAD DIV MUL DUP4 MSTORE SWAP2 PUSH1 0x20 ADD SWAP2 PUSH2 0x6FE JUMP JUMPDEST DUP3 ADD SWAP2 SWAP1 PUSH1 0x0 MSTORE PUSH1 0x20 PUSH1 0x0 KECCAK256 SWAP1 JUMPDEST DUP2 SLOAD DUP2 MSTORE SWAP1 PUSH1 0x1 ADD SWAP1 PUSH1 0x20 ADD DUP1 DUP4 GT PUSH2 0x6E1 JUMPI DUP3 SWAP1 SUB PUSH1 0x1F AND DUP3 ADD SWAP2 JUMPDEST POP POP POP POP POP SWAP1 POP SWAP1 JUMP JUMPDEST PUSH1 0x0 DUP2 DUP2 MSTORE PUSH1 0x2 PUSH1 0x20 MSTORE PUSH1 0x40 DUP2 KECCAK256 SLOAD PUSH1 0x1 PUSH1 0x1 PUSH1 0xA0 SHL SUB AND PUSH2 0x786 JUMPI PUSH1 0x40 MLOAD PUSH3 0x461BCD PUSH1 0xE5 SHL DUP2 MSTORE PUSH1 0x20 PUSH1 0x4 DUP3 ADD MSTORE PUSH1 0x2C PUSH1 0x24 DUP3 ADD MSTORE PUSH32 0x4552433732313A20617070726F76656420717565727920666F72206E6F6E6578 PUSH1 0x44 DUP3 ADD MSTORE PUSH12 0x34B9BA32B73A103A37B5B2B7 PUSH1 0xA1 SHL PUSH1 0x64 DUP3 ADD MSTORE PUSH1 0x84 ADD JUMPDEST PUSH1 0x40 MLOAD DUP1 SWAP2 SUB SWAP1 REVERT JUMPDEST POP PUSH1 0x0 SWAP1 DUP2 MSTORE PUSH1 0x4 PUSH1 0x20 MSTORE PUSH1 0x40 SWAP1 KECCAK256 SLOAD PUSH1 0x1 PUSH1 0x1 PUSH1 0xA0 SHL SUB AND SWAP1 JUMP JUMPDEST PUSH1 0x0 PUSH2 0x7AD DUP3 PUSH2 0xCF6 JUMP JUMPDEST SWAP1 POP DUP1 PUSH1 0x1 PUSH1 0x1 PUSH1 0xA0 SHL SUB AND DUP4 PUSH1 0x1 PUSH1 0x1 PUSH1 0xA0 SHL SUB AND EQ ISZERO PUSH2 0x81B JUMPI PUSH1 0x40 MLOAD PUSH3 0x461BCD PUSH1 0xE5 SHL DUP2 MSTORE PUSH1 0x20 PUSH1 0x4 DUP3 ADD MSTORE PUSH1 0x21 PUSH1 0x24 DUP3 ADD MSTORE PUSH32 0x4552433732313A20617070726F76616C20746F2063757272656E74206F776E65 PUSH1 0x44 DUP3 ADD MSTORE PUSH1 0x39 PUSH1 0xF9 SHL PUSH1 0x64 DUP3 ADD MSTORE PUSH1 0x84 ADD PUSH2 0x77D JUMP JUMPDEST CALLER PUSH1 0x1 PUSH1 0x1 PUSH1 0xA0 SHL SUB DUP3 AND EQ DUP1 PUSH2 0x837 JUMPI POP PUSH2 0x837 DUP2 CALLER PUSH2 0x5DD JUMP JUMPDEST PUSH2 0x8A9 JUMPI PUSH1 0x40 MLOAD PUSH3 0x461BCD PUSH1 0xE5 SHL DUP2 MSTORE PUSH1 0x20 PUSH1 0x4 DUP3 ADD MSTORE PUSH1 0x38 PUSH1 0x24 DUP3 ADD MSTORE PUSH32 0x4552433732313A20617070726F76652063616C6C6572206973206E6F74206F77 PUSH1 0x44 DUP3 ADD MSTORE PUSH32 0x6E6572206E6F7220617070726F76656420666F7220616C6C0000000000000000 PUSH1 0x64 DUP3 ADD MSTORE PUSH1 0x84 ADD PUSH2 0x77D JUMP JUMPDEST PUSH2 0x8B3 DUP4 DUP4 PUSH2 0x26F6 JUMP JUMPDEST POP POP POP JUMP JUMPDEST PUSH2 0x8C2 CALLER DUP3 PUSH2 0x2764 JUMP JUMPDEST PUSH2 0x8DE JUMPI PUSH1 0x40 MLOAD PUSH3 0x461BCD PUSH1 0xE5 SHL DUP2 MSTORE PUSH1 0x4 ADD PUSH2 0x77D SWAP1 PUSH2 0x4186 JUMP JUMPDEST PUSH2 0x8B3 DUP4 DUP4 DUP4 PUSH2 0x285B JUMP JUMPDEST PUSH1 0x0 PUSH2 0x8F4 DUP4 PUSH2 0xD9F JUMP JUMPDEST DUP3 LT PUSH2 0x956 JUMPI PUSH1 0x40 MLOAD PUSH3 0x461BCD PUSH1 0xE5 SHL DUP2 MSTORE PUSH1 0x20 PUSH1 0x4 DUP3 ADD MSTORE PUSH1 0x2B PUSH1 0x24 DUP3 ADD MSTORE PUSH32 0x455243373231456E756D657261626C653A206F776E657220696E646578206F75 PUSH1 0x44 DUP3 ADD MSTORE PUSH11 0x74206F6620626F756E6473 PUSH1 0xA8 SHL PUSH1 0x64 DUP3 ADD MSTORE PUSH1 0x84 ADD PUSH2 0x77D JUMP JUMPDEST POP PUSH1 0x1 PUSH1 0x1 PUSH1 0xA0 SHL SUB SWAP2 SWAP1 SWAP2 AND PUSH1 0x0 SWAP1 DUP2 MSTORE PUSH1 0x6 PUSH1 0x20 SWAP1 DUP2 MSTORE PUSH1 0x40 DUP1 DUP4 KECCAK256 SWAP4 DUP4 MSTORE SWAP3 SWAP1 MSTORE KECCAK256 SLOAD SWAP1 JUMP JUMPDEST PUSH2 0x8B3 DUP4 DUP4 DUP4 PUSH1 0x40 MLOAD DUP1 PUSH1 0x20 ADD PUSH1 0x40 MSTORE DUP1 PUSH1 0x0 DUP2 MSTORE POP PUSH2 0x1588 JUMP JUMPDEST PUSH1 0xB SLOAD PUSH1 0x1 PUSH1 0x1 PUSH1 0xA0 SHL SUB AND CALLER EQ PUSH2 0x9C4 JUMPI PUSH1 0x40 MLOAD PUSH3 0x461BCD PUSH1 0xE5 SHL DUP2 MSTORE PUSH1 0x4 ADD PUSH2 0x77D SWAP1 PUSH2 0x4151 JUMP JUMPDEST PUSH1 0x40 MLOAD CALLER SWAP1 SELFBALANCE DUP1 ISZERO PUSH2 0x8FC MUL SWAP2 PUSH1 0x0 DUP2 DUP2 DUP2 DUP6 DUP9 DUP9 CALL SWAP4 POP POP POP POP ISZERO DUP1 ISZERO PUSH2 0x9F0 JUMPI RETURNDATASIZE PUSH1 0x0 DUP1 RETURNDATACOPY RETURNDATASIZE PUSH1 0x0 REVERT JUMPDEST POP JUMP JUMPDEST PUSH1 0x2 PUSH1 0xA SLOAD EQ ISZERO PUSH2 0xA46 JUMPI PUSH1 0x40 MLOAD PUSH3 0x461BCD PUSH1 0xE5 SHL DUP2 MSTORE PUSH1 0x20 PUSH1 0x4 DUP3 ADD MSTORE PUSH1 0x1F PUSH1 0x24 DUP3 ADD MSTORE PUSH32 0x5265656E7472616E637947756172643A207265656E7472616E742063616C6C00 PUSH1 0x44 DUP3 ADD MSTORE PUSH1 0x64 ADD PUSH2 0x77D JUMP JUMPDEST PUSH1 0x2 PUSH1 0xA SSTORE PUSH7 0xB1A2BC2EC50000 CALLVALUE LT ISZERO PUSH2 0xA8F JUMPI PUSH1 0x40 MLOAD PUSH3 0x461BCD PUSH1 0xE5 SHL DUP2 MSTORE PUSH1 0x20 PUSH1 0x4 DUP3 ADD MSTORE PUSH1 0xA PUSH1 0x24 DUP3 ADD MSTORE PUSH10 0x46656520746F206C6F77 PUSH1 0xB0 SHL PUSH1 0x44 DUP3 ADD MSTORE PUSH1 0x64 ADD PUSH2 0x77D JUMP JUMPDEST PUSH1 0xE SLOAD PUSH1 0x0 PUSH2 0xAC4 PUSH2 0xAA0 DUP4 PUSH2 0x2A06 JUMP JUMPDEST PUSH1 0x40 MLOAD PUSH1 0x20 ADD PUSH2 0xAB0 SWAP2 SWAP1 PUSH2 0x3D08 JUMP JUMPDEST PUSH1 0x40 MLOAD PUSH1 0x20 DUP2 DUP4 SUB SUB DUP2 MSTORE SWAP1 PUSH1 0x40 MSTORE PUSH2 0x2B04 JUMP JUMPDEST PUSH1 0xC SLOAD SWAP1 SWAP2 POP PUSH1 0x0 SWAP1 PUSH2 0xAD7 SWAP1 DUP4 PUSH2 0x42EC JUMP JUMPDEST SWAP1 POP PUSH1 0x0 PUSH1 0xC DUP3 DUP2 SLOAD DUP2 LT PUSH2 0xAEE JUMPI PUSH2 0xAEE PUSH2 0x4342 JUMP JUMPDEST PUSH1 0x0 SWAP2 DUP3 MSTORE PUSH1 0x20 DUP3 KECCAK256 PUSH1 0x7 PUSH1 0x8 SWAP1 SWAP3 MUL ADD ADD SLOAD PUSH1 0x1 PUSH1 0x1 PUSH1 0xA0 SHL SUB AND SWAP2 POP PUSH2 0xB17 PUSH1 0x2 CALLVALUE PUSH2 0x4220 JUMP JUMPDEST PUSH1 0x40 MLOAD SWAP1 SWAP2 POP PUSH1 0x1 PUSH1 0x1 PUSH1 0xA0 SHL SUB DUP4 AND SWAP1 DUP3 ISZERO PUSH2 0x8FC MUL SWAP1 DUP4 SWAP1 PUSH1 0x0 DUP2 DUP2 DUP2 DUP6 DUP9 DUP9 CALL SWAP4 POP POP POP POP ISZERO DUP1 ISZERO PUSH2 0xB50 JUMPI RETURNDATASIZE PUSH1 0x0 DUP1 RETURNDATACOPY RETURNDATASIZE PUSH1 0x0 REVERT JUMPDEST POP PUSH1 0x0 DUP6 DUP2 MSTORE PUSH1 0x11 PUSH1 0x20 SWAP1 DUP2 MSTORE PUSH1 0x40 DUP1 DUP4 KECCAK256 DUP7 SWAP1 SSTORE PUSH1 0x1 PUSH1 0x1 PUSH1 0xA0 SHL SUB DUP6 AND DUP4 MSTORE PUSH1 0x12 SWAP1 SWAP2 MSTORE DUP2 KECCAK256 DUP1 SLOAD PUSH1 0x1 SWAP3 SWAP1 PUSH2 0xB89 SWAP1 DUP5 SWAP1 PUSH2 0x4208 JUMP JUMPDEST SWAP1 SWAP2 SSTORE POP POP PUSH1 0x1 PUSH1 0x1 PUSH1 0xA0 SHL SUB DUP3 AND PUSH1 0x0 SWAP1 DUP2 MSTORE PUSH1 0x13 PUSH1 0x20 MSTORE PUSH1 0x40 DUP2 KECCAK256 DUP1 SLOAD DUP4 SWAP3 SWAP1 PUSH2 0xBB6 SWAP1 DUP5 SWAP1 PUSH2 0x4208 JUMP JUMPDEST SWAP1 SWAP2 SSTORE POP POP PUSH1 0x40 MLOAD PUSH1 0x1 PUSH1 0x1 PUSH1 0xA0 SHL SUB DUP4 AND SWAP1 DUP3 ISZERO PUSH2 0x8FC MUL SWAP1 DUP4 SWAP1 PUSH1 0x0 DUP2 DUP2 DUP2 DUP6 DUP9 DUP9 CALL SWAP4 POP POP POP POP ISZERO DUP1 ISZERO PUSH2 0xBF1 JUMPI RETURNDATASIZE PUSH1 0x0 DUP1 RETURNDATACOPY RETURNDATASIZE PUSH1 0x0 REVERT JUMPDEST POP PUSH1 0x1 PUSH1 0xE PUSH1 0x0 DUP3 DUP3 SLOAD PUSH2 0xC05 SWAP2 SWAP1 PUSH2 0x4208 JUMP JUMPDEST SWAP1 SWAP2 SSTORE POP PUSH2 0xC15 SWAP1 POP CALLER DUP7 PUSH2 0x2B35 JUMP JUMPDEST PUSH1 0x40 DUP1 MLOAD PUSH1 0x1 PUSH1 0x1 PUSH1 0xA0 SHL SUB DUP5 AND DUP2 MSTORE PUSH1 0x20 DUP2 ADD DUP4 SWAP1 MSTORE PUSH32 0xC5A2B7AD6439179B1EDEA47D8A4BC00B2C5270A1C741C00FAB7BE4012CAA7D0A SWAP2 ADD PUSH1 0x40 MLOAD DUP1 SWAP2 SUB SWAP1 LOG1 POP POP PUSH1 0x1 PUSH1 0xA SSTORE POP POP POP JUMP JUMPDEST PUSH1 0x0 PUSH2 0xC6E PUSH1 0x8 SLOAD SWAP1 JUMP JUMPDEST DUP3 LT PUSH2 0xCD1 JUMPI PUSH1 0x40 MLOAD PUSH3 0x461BCD PUSH1 0xE5 SHL DUP2 MSTORE PUSH1 0x20 PUSH1 0x4 DUP3 ADD MSTORE PUSH1 0x2C PUSH1 0x24 DUP3 ADD MSTORE PUSH32 0x455243373231456E756D657261626C653A20676C6F62616C20696E646578206F PUSH1 0x44 DUP3 ADD MSTORE PUSH12 0x7574206F6620626F756E6473 PUSH1 0xA0 SHL PUSH1 0x64 DUP3 ADD MSTORE PUSH1 0x84 ADD PUSH2 0x77D JUMP JUMPDEST PUSH1 0x8 DUP3 DUP2 SLOAD DUP2 LT PUSH2 0xCE4 JUMPI PUSH2 0xCE4 PUSH2 0x4342 JUMP JUMPDEST SWAP1 PUSH1 0x0 MSTORE PUSH1 0x20 PUSH1 0x0 KECCAK256 ADD SLOAD SWAP1 POP SWAP2 SWAP1 POP JUMP JUMPDEST PUSH1 0x0 DUP2 DUP2 MSTORE PUSH1 0x2 PUSH1 0x20 MSTORE PUSH1 0x40 DUP2 KECCAK256 SLOAD PUSH1 0x1 PUSH1 0x1 PUSH1 0xA0 SHL SUB AND DUP1 PUSH2 0x670 JUMPI PUSH1 0x40 MLOAD PUSH3 0x461BCD PUSH1 0xE5 SHL DUP2 MSTORE PUSH1 0x20 PUSH1 0x4 DUP3 ADD MSTORE PUSH1 0x29 PUSH1 0x24 DUP3 ADD MSTORE PUSH32 0x4552433732313A206F776E657220717565727920666F72206E6F6E6578697374 PUSH1 0x44 DUP3 ADD MSTORE PUSH9 0x32B73A103A37B5B2B7 PUSH1 0xB9 SHL PUSH1 0x64 DUP3 ADD MSTORE PUSH1 0x84 ADD PUSH2 0x77D JUMP JUMPDEST PUSH1 0x60 PUSH2 0xD98 DUP4 PUSH1 0x40 MLOAD DUP1 PUSH1 0x40 ADD PUSH1 0x40 MSTORE DUP1 PUSH1 0x6 DUP2 MSTORE PUSH1 0x20 ADD PUSH6 0x2BA2A0A827A7 PUSH1 0xD1 SHL DUP2 MSTORE POP DUP5 PUSH2 0x2B53 JUMP JUMPDEST SWAP4 SWAP3 POP POP POP JUMP JUMPDEST PUSH1 0x0 PUSH1 0x1 PUSH1 0x1 PUSH1 0xA0 SHL SUB DUP3 AND PUSH2 0xE0A JUMPI PUSH1 0x40 MLOAD PUSH3 0x461BCD PUSH1 0xE5 SHL DUP2 MSTORE PUSH1 0x20 PUSH1 0x4 DUP3 ADD MSTORE PUSH1 0x2A PUSH1 0x24 DUP3 ADD MSTORE PUSH32 0x4552433732313A2062616C616E636520717565727920666F7220746865207A65 PUSH1 0x44 DUP3 ADD MSTORE PUSH10 0x726F2061646472657373 PUSH1 0xB0 SHL PUSH1 0x64 DUP3 ADD MSTORE PUSH1 0x84 ADD PUSH2 0x77D JUMP JUMPDEST POP PUSH1 0x1 PUSH1 0x1 PUSH1 0xA0 SHL SUB AND PUSH1 0x0 SWAP1 DUP2 MSTORE PUSH1 0x3 PUSH1 0x20 MSTORE PUSH1 0x40 SWAP1 KECCAK256 SLOAD SWAP1 JUMP JUMPDEST PUSH1 0xB SLOAD PUSH1 0x1 PUSH1 0x1 PUSH1 0xA0 SHL SUB AND CALLER EQ PUSH2 0xE50 JUMPI PUSH1 0x40 MLOAD PUSH3 0x461BCD PUSH1 0xE5 SHL DUP2 MSTORE PUSH1 0x4 ADD PUSH2 0x77D SWAP1 PUSH2 0x4151 JUMP JUMPDEST PUSH2 0xE5A PUSH1 0x0 PUSH2 0x2E18 JUMP JUMPDEST JUMP JUMPDEST PUSH7 0xB1A2BC2EC50000 CALLVALUE LT ISZERO PUSH2 0xEA1 JUMPI PUSH1 0x40 MLOAD PUSH3 0x461BCD PUSH1 0xE5 SHL DUP2 MSTORE PUSH1 0x20 PUSH1 0x4 DUP3 ADD MSTORE PUSH1 0xB PUSH1 0x24 DUP3 ADD MSTORE PUSH11 0x46656520746F6F206C6F77 PUSH1 0xA8 SHL PUSH1 0x44 DUP3 ADD MSTORE PUSH1 0x64 ADD PUSH2 0x77D JUMP JUMPDEST PUSH1 0x0 PUSH2 0xEB7 DUP6 PUSH1 0x40 MLOAD PUSH1 0x20 ADD PUSH2 0xAB0 SWAP2 SWAP1 PUSH2 0x3AC6 JUMP JUMPDEST PUSH1 0xD SLOAD SWAP1 SWAP2 POP PUSH1 0x0 SWAP1 PUSH2 0xECA SWAP1 DUP4 PUSH2 0x42EC JUMP JUMPDEST SWAP1 POP PUSH1 0x0 PUSH1 0xD DUP3 DUP2 SLOAD DUP2 LT PUSH2 0xEE1 JUMPI PUSH2 0xEE1 PUSH2 0x4342 JUMP JUMPDEST SWAP1 PUSH1 0x0 MSTORE PUSH1 0x20 PUSH1 0x0 KECCAK256 SWAP1 PUSH1 0x3 MUL ADD PUSH1 0x40 MLOAD DUP1 PUSH1 0x60 ADD PUSH1 0x40 MSTORE SWAP1 DUP2 PUSH1 0x0 DUP3 ADD DUP1 SLOAD PUSH2 0xF0A SWAP1 PUSH2 0x4296 JUMP JUMPDEST DUP1 PUSH1 0x1F ADD PUSH1 0x20 DUP1 SWAP2 DIV MUL PUSH1 0x20 ADD PUSH1 0x40 MLOAD SWAP1 DUP2 ADD PUSH1 0x40 MSTORE DUP1 SWAP3 SWAP2 SWAP1 DUP2 DUP2 MSTORE PUSH1 0x20 ADD DUP3 DUP1 SLOAD PUSH2 0xF36 SWAP1 PUSH2 0x4296 JUMP JUMPDEST DUP1 ISZERO PUSH2 0xF83 JUMPI DUP1 PUSH1 0x1F LT PUSH2 0xF58 JUMPI PUSH2 0x100 DUP1 DUP4 SLOAD DIV MUL DUP4 MSTORE SWAP2 PUSH1 0x20 ADD SWAP2 PUSH2 0xF83 JUMP JUMPDEST DUP3 ADD SWAP2 SWAP1 PUSH1 0x0 MSTORE PUSH1 0x20 PUSH1 0x0 KECCAK256 SWAP1 JUMPDEST DUP2 SLOAD DUP2 MSTORE SWAP1 PUSH1 0x1 ADD SWAP1 PUSH1 0x20 ADD DUP1 DUP4 GT PUSH2 0xF66 JUMPI DUP3 SWAP1 SUB PUSH1 0x1F AND DUP3 ADD SWAP2 JUMPDEST POP POP POP POP POP DUP2 MSTORE PUSH1 0x20 ADD PUSH1 0x1 DUP3 ADD DUP1 SLOAD PUSH2 0xF9C SWAP1 PUSH2 0x4296 JUMP JUMPDEST DUP1 PUSH1 0x1F ADD PUSH1 0x20 DUP1 SWAP2 DIV MUL PUSH1 0x20 ADD PUSH1 0x40 MLOAD SWAP1 DUP2 ADD PUSH1 0x40 MSTORE DUP1 SWAP3 SWAP2 SWAP1 DUP2 DUP2 MSTORE PUSH1 0x20 ADD DUP3 DUP1 SLOAD PUSH2 0xFC8 SWAP1 PUSH2 0x4296 JUMP JUMPDEST DUP1 ISZERO PUSH2 0x1015 JUMPI DUP1 PUSH1 0x1F LT PUSH2 0xFEA JUMPI PUSH2 0x100 DUP1 DUP4 SLOAD DIV MUL DUP4 MSTORE SWAP2 PUSH1 0x20 ADD SWAP2 PUSH2 0x1015 JUMP JUMPDEST DUP3 ADD SWAP2 SWAP1 PUSH1 0x0 MSTORE PUSH1 0x20 PUSH1 0x0 KECCAK256 SWAP1 JUMPDEST DUP2 SLOAD DUP2 MSTORE SWAP1 PUSH1 0x1 ADD SWAP1 PUSH1 0x20 ADD DUP1 DUP4 GT PUSH2 0xFF8 JUMPI DUP3 SWAP1 SUB PUSH1 0x1F AND DUP3 ADD SWAP2 JUMPDEST POP POP POP POP POP DUP2 MSTORE PUSH1 0x20 ADD PUSH1 0x2 DUP3 ADD DUP1 SLOAD PUSH2 0x102E SWAP1 PUSH2 0x4296 JUMP JUMPDEST DUP1 PUSH1 0x1F ADD PUSH1 0x20 DUP1 SWAP2 DIV MUL PUSH1 0x20 ADD PUSH1 0x40 MLOAD SWAP1 DUP2 ADD PUSH1 0x40 MSTORE DUP1 SWAP3 SWAP2 SWAP1 DUP2 DUP2 MSTORE PUSH1 0x20 ADD DUP3 DUP1 SLOAD PUSH2 0x105A SWAP1 PUSH2 0x4296 JUMP JUMPDEST DUP1 ISZERO PUSH2 0x10A7 JUMPI DUP1 PUSH1 0x1F LT PUSH2 0x107C JUMPI PUSH2 0x100 DUP1 DUP4 SLOAD DIV MUL DUP4 MSTORE SWAP2 PUSH1 0x20 ADD SWAP2 PUSH2 0x10A7 JUMP JUMPDEST DUP3 ADD SWAP2 SWAP1 PUSH1 0x0 MSTORE PUSH1 0x20 PUSH1 0x0 KECCAK256 SWAP1 JUMPDEST DUP2 SLOAD DUP2 MSTORE SWAP1 PUSH1 0x1 ADD SWAP1 PUSH1 0x20 ADD DUP1 DUP4 GT PUSH2 0x108A JUMPI DUP3 SWAP1 SUB PUSH1 0x1F AND DUP3 ADD SWAP2 JUMPDEST POP POP POP POP POP DUP2 MSTORE POP POP SWAP1 POP PUSH2 0x10BA PUSH2 0x34D9 JUMP JUMPDEST PUSH1 0x20 DUP1 DUP3 ADD DUP9 SWAP1 MSTORE PUSH1 0x40 DUP1 DUP4 ADD DUP9 SWAP1 MSTORE PUSH1 0x60 DUP4 ADD DUP8 SWAP1 MSTORE DUP10 DUP4 MSTORE PUSH1 0x80 DUP4 ADD DUP5 SWAP1 MSTORE CALLER PUSH1 0xA0 DUP5 ADD DUP2 SWAP1 MSTORE PUSH1 0x0 SWAP1 DUP2 MSTORE PUSH1 0x10 SWAP1 SWAP3 MSTORE DUP2 KECCAK256 DUP1 SLOAD PUSH1 0x1 SWAP3 SWAP1 PUSH2 0x1100 SWAP1 DUP5 SWAP1 PUSH2 0x4208 JUMP JUMPDEST SWAP1 SWAP2 SSTORE POP POP PUSH1 0xC DUP1 SLOAD PUSH1 0x1 DUP2 ADD DUP3 SSTORE PUSH1 0x0 SWAP2 SWAP1 SWAP2 MSTORE DUP2 MLOAD DUP1 MLOAD DUP4 SWAP3 PUSH1 0x8 MUL PUSH32 0xDF6966C971051C3D54EC59162606531493A51404A002842F56009D7E5CF4A8C7 ADD SWAP2 PUSH2 0x1150 SWAP2 DUP4 SWAP2 PUSH1 0x20 ADD SWAP1 PUSH2 0x3531 JUMP JUMPDEST POP PUSH1 0x20 DUP3 DUP2 ADD MLOAD DUP1 MLOAD PUSH2 0x1169 SWAP3 PUSH1 0x1 DUP6 ADD SWAP3 ADD SWAP1 PUSH2 0x35B5 JUMP JUMPDEST POP PUSH1 0x40 DUP3 ADD MLOAD DUP1 MLOAD PUSH2 0x1185 SWAP2 PUSH1 0x2 DUP5 ADD SWAP2 PUSH1 0x20 SWAP1 SWAP2 ADD SWAP1 PUSH2 0x35B5 JUMP JUMPDEST POP PUSH1 0x60 DUP3 ADD MLOAD DUP1 MLOAD PUSH2 0x11A1 SWAP2 PUSH1 0x3 DUP5 ADD SWAP2 PUSH1 0x20 SWAP1 SWAP2 ADD SWAP1 PUSH2 0x35B5 JUMP JUMPDEST POP PUSH1 0x80 DUP3 ADD MLOAD DUP1 MLOAD DUP1 MLOAD PUSH1 0x4 DUP5 ADD SWAP2 PUSH2 0x11BF SWAP2 DUP4 SWAP2 PUSH1 0x20 ADD SWAP1 PUSH2 0x3531 JUMP JUMPDEST POP PUSH1 0x20 DUP3 DUP2 ADD MLOAD DUP1 MLOAD PUSH2 0x11D8 SWAP3 PUSH1 0x1 DUP6 ADD SWAP3 ADD SWAP1 PUSH2 0x3531 JUMP JUMPDEST POP PUSH1 0x40 DUP3 ADD MLOAD DUP1 MLOAD PUSH2 0x11F4 SWAP2 PUSH1 0x2 DUP5 ADD SWAP2 PUSH1 0x20 SWAP1 SWAP2 ADD SWAP1 PUSH2 0x3531 JUMP JUMPDEST POP POP POP PUSH1 0xA0 SWAP2 SWAP1 SWAP2 ADD MLOAD PUSH1 0x7 SWAP1 SWAP2 ADD DUP1 SLOAD PUSH1 0x1 PUSH1 0x1 PUSH1 0xA0 SHL SUB NOT AND PUSH1 0x1 PUSH1 0x1 PUSH1 0xA0 SHL SUB SWAP1 SWAP3 AND SWAP2 SWAP1 SWAP2 OR SWAP1 SSTORE POP POP POP POP POP POP POP POP JUMP JUMPDEST PUSH1 0x60 PUSH1 0x1 DUP1 SLOAD PUSH2 0x685 SWAP1 PUSH2 0x4296 JUMP JUMPDEST PUSH1 0x1 PUSH1 0x1 PUSH1 0xA0 SHL SUB DUP3 AND CALLER EQ ISZERO PUSH2 0x1292 JUMPI PUSH1 0x40 MLOAD PUSH3 0x461BCD PUSH1 0xE5 SHL DUP2 MSTORE PUSH1 0x20 PUSH1 0x4 DUP3 ADD MSTORE PUSH1 0x19 PUSH1 0x24 DUP3 ADD MSTORE PUSH32 0x4552433732313A20617070726F766520746F2063616C6C657200000000000000 PUSH1 0x44 DUP3 ADD MSTORE PUSH1 0x64 ADD PUSH2 0x77D JUMP JUMPDEST CALLER PUSH1 0x0 DUP2 DUP2 MSTORE PUSH1 0x5 PUSH1 0x20 SWAP1 DUP2 MSTORE PUSH1 0x40 DUP1 DUP4 KECCAK256 PUSH1 0x1 PUSH1 0x1 PUSH1 0xA0 SHL SUB DUP8 AND DUP1 DUP6 MSTORE SWAP1 DUP4 MSTORE SWAP3 DUP2 SWAP1 KECCAK256 DUP1 SLOAD PUSH1 0xFF NOT AND DUP7 ISZERO ISZERO SWAP1 DUP2 OR SWAP1 SWAP2 SSTORE SWAP1 MLOAD SWAP1 DUP2 MSTORE SWAP2 SWAP3 SWAP2 PUSH32 0x17307EAB39AB6107E8899845AD3D59BD9653F200F220920489CA2B5937696C31 SWAP2 ADD PUSH1 0x40 MLOAD DUP1 SWAP2 SUB SWAP1 LOG3 POP POP JUMP JUMPDEST PUSH1 0xC DUP2 DUP2 SLOAD DUP2 LT PUSH2 0x130E JUMPI PUSH1 0x0 DUP1 REVERT JUMPDEST SWAP1 PUSH1 0x0 MSTORE PUSH1 0x20 PUSH1 0x0 KECCAK256 SWAP1 PUSH1 0x8 MUL ADD PUSH1 0x0 SWAP2 POP SWAP1 POP DUP1 PUSH1 0x0 ADD DUP1 SLOAD PUSH2 0x1331 SWAP1 PUSH2 0x4296 JUMP JUMPDEST DUP1 PUSH1 0x1F ADD PUSH1 0x20 DUP1 SWAP2 DIV MUL PUSH1 0x20 ADD PUSH1 0x40 MLOAD SWAP1 DUP2 ADD PUSH1 0x40 MSTORE DUP1 SWAP3 SWAP2 SWAP1 DUP2 DUP2 MSTORE PUSH1 0x20 ADD DUP3 DUP1 SLOAD PUSH2 0x135D SWAP1 PUSH2 0x4296 JUMP JUMPDEST DUP1 ISZERO PUSH2 0x13AA JUMPI DUP1 PUSH1 0x1F LT PUSH2 0x137F JUMPI PUSH2 0x100 DUP1 DUP4 SLOAD DIV MUL DUP4 MSTORE SWAP2 PUSH1 0x20 ADD SWAP2 PUSH2 0x13AA JUMP JUMPDEST DUP3 ADD SWAP2 SWAP1 PUSH1 0x0 MSTORE PUSH1 0x20 PUSH1 0x0 KECCAK256 SWAP1 JUMPDEST DUP2 SLOAD DUP2 MSTORE SWAP1 PUSH1 0x1 ADD SWAP1 PUSH1 0x20 ADD DUP1 DUP4 GT PUSH2 0x138D JUMPI DUP3 SWAP1 SUB PUSH1 0x1F AND DUP3 ADD SWAP2 JUMPDEST POP POP POP POP POP SWAP1 DUP1 PUSH1 0x4 ADD PUSH1 0x40 MLOAD DUP1 PUSH1 0x60 ADD PUSH1 0x40 MSTORE SWAP1 DUP2 PUSH1 0x0 DUP3 ADD DUP1 SLOAD PUSH2 0x13CF SWAP1 PUSH2 0x4296 JUMP JUMPDEST DUP1 PUSH1 0x1F ADD PUSH1 0x20 DUP1 SWAP2 DIV MUL PUSH1 0x20 ADD PUSH1 0x40 MLOAD SWAP1 DUP2 ADD PUSH1 0x40 MSTORE DUP1 SWAP3 SWAP2 SWAP1 DUP2 DUP2 MSTORE PUSH1 0x20 ADD DUP3 DUP1 SLOAD PUSH2 0x13FB SWAP1 PUSH2 0x4296 JUMP JUMPDEST DUP1 ISZERO PUSH2 0x1448 JUMPI DUP1 PUSH1 0x1F LT PUSH2 0x141D JUMPI PUSH2 0x100 DUP1 DUP4 SLOAD DIV MUL DUP4 MSTORE SWAP2 PUSH1 0x20 ADD SWAP2 PUSH2 0x1448 JUMP JUMPDEST DUP3 ADD SWAP2 SWAP1 PUSH1 0x0 MSTORE PUSH1 0x20 PUSH1 0x0 KECCAK256 SWAP1 JUMPDEST DUP2 SLOAD DUP2 MSTORE SWAP1 PUSH1 0x1 ADD SWAP1 PUSH1 0x20 ADD DUP1 DUP4 GT PUSH2 0x142B JUMPI DUP3 SWAP1 SUB PUSH1 0x1F AND DUP3 ADD SWAP2 JUMPDEST POP POP POP POP POP DUP2 MSTORE PUSH1 0x20 ADD PUSH1 0x1 DUP3 ADD DUP1 SLOAD PUSH2 0x1461 SWAP1 PUSH2 0x4296 JUMP JUMPDEST DUP1 PUSH1 0x1F ADD PUSH1 0x20 DUP1 SWAP2 DIV MUL PUSH1 0x20 ADD PUSH1 0x40 MLOAD SWAP1 DUP2 ADD PUSH1 0x40 MSTORE DUP1 SWAP3 SWAP2 SWAP1 DUP2 DUP2 MSTORE PUSH1 0x20 ADD DUP3 DUP1 SLOAD PUSH2 0x148D SWAP1 PUSH2 0x4296 JUMP JUMPDEST DUP1 ISZERO PUSH2 0x14DA JUMPI DUP1 PUSH1 0x1F LT PUSH2 0x14AF JUMPI PUSH2 0x100 DUP1 DUP4 SLOAD DIV MUL DUP4 MSTORE SWAP2 PUSH1 0x20 ADD SWAP2 PUSH2 0x14DA JUMP JUMPDEST DUP3 ADD SWAP2 SWAP1 PUSH1 0x0 MSTORE PUSH1 0x20 PUSH1 0x0 KECCAK256 SWAP1 JUMPDEST DUP2 SLOAD DUP2 MSTORE SWAP1 PUSH1 0x1 ADD SWAP1 PUSH1 0x20 ADD DUP1 DUP4 GT PUSH2 0x14BD JUMPI DUP3 SWAP1 SUB PUSH1 0x1F AND DUP3 ADD SWAP2 JUMPDEST POP POP POP POP POP DUP2 MSTORE PUSH1 0x20 ADD PUSH1 0x2 DUP3 ADD DUP1 SLOAD PUSH2 0x14F3 SWAP1 PUSH2 0x4296 JUMP JUMPDEST DUP1 PUSH1 0x1F ADD PUSH1 0x20 DUP1 SWAP2 DIV MUL PUSH1 0x20 ADD PUSH1 0x40 MLOAD SWAP1 DUP2 ADD PUSH1 0x40 MSTORE DUP1 SWAP3 SWAP2 SWAP1 DUP2 DUP2 MSTORE PUSH1 0x20 ADD DUP3 DUP1 SLOAD PUSH2 0x151F SWAP1 PUSH2 0x4296 JUMP JUMPDEST DUP1 ISZERO PUSH2 0x156C JUMPI DUP1 PUSH1 0x1F LT PUSH2 0x1541 JUMPI PUSH2 0x100 DUP1 DUP4 SLOAD DIV MUL DUP4 MSTORE SWAP2 PUSH1 0x20 ADD SWAP2 PUSH2 0x156C JUMP JUMPDEST DUP3 ADD SWAP2 SWAP1 PUSH1 0x0 MSTORE PUSH1 0x20 PUSH1 0x0 KECCAK256 SWAP1 JUMPDEST DUP2 SLOAD DUP2 MSTORE SWAP1 PUSH1 0x1 ADD SWAP1 PUSH1 0x20 ADD DUP1 DUP4 GT PUSH2 0x154F JUMPI DUP3 SWAP1 SUB PUSH1 0x1F AND DUP3 ADD SWAP2 JUMPDEST POP POP POP SWAP2 SWAP1 SWAP3 MSTORE POP POP POP PUSH1 0x7 SWAP1 SWAP2 ADD SLOAD PUSH1 0x1 PUSH1 0x1 PUSH1 0xA0 SHL SUB AND DUP4 JUMP JUMPDEST PUSH2 0x1592 CALLER DUP4 PUSH2 0x2764 JUMP JUMPDEST PUSH2 0x15AE JUMPI PUSH1 0x40 MLOAD PUSH3 0x461BCD PUSH1 0xE5 SHL DUP2 MSTORE PUSH1 0x4 ADD PUSH2 0x77D SWAP1 PUSH2 0x4186 JUMP JUMPDEST PUSH2 0x15BA DUP5 DUP5 DUP5 DUP5 PUSH2 0x2E6A JUMP JUMPDEST POP POP POP POP JUMP JUMPDEST PUSH1 0x0 DUP2 DUP2 MSTORE PUSH1 0x11 PUSH1 0x20 MSTORE PUSH1 0x40 DUP2 KECCAK256 SLOAD PUSH1 0xC DUP1 SLOAD PUSH1 0x60 SWAP4 SWAP2 SWAP1 DUP4 SWAP1 DUP2 LT PUSH2 0x15E8 JUMPI PUSH2 0x15E8 PUSH2 0x4342 JUMP JUMPDEST SWAP1 PUSH1 0x0 MSTORE PUSH1 0x20 PUSH1 0x0 KECCAK256 SWAP1 PUSH1 0x8 MUL ADD PUSH1 0x1 ADD DUP1 SLOAD DUP1 PUSH1 0x20 MUL PUSH1 0x20 ADD PUSH1 0x40 MLOAD SWAP1 DUP2 ADD PUSH1 0x40 MSTORE DUP1 SWAP3 SWAP2 SWAP1 DUP2 DUP2 MSTORE PUSH1 0x20 ADD PUSH1 0x0 SWAP1 JUMPDEST DUP3 DUP3 LT ISZERO PUSH2 0x16C5 JUMPI DUP4 DUP3 SWAP1 PUSH1 0x0 MSTORE PUSH1 0x20 PUSH1 0x0 KECCAK256 ADD DUP1 SLOAD PUSH2 0x1638 SWAP1 PUSH2 0x4296 JUMP JUMPDEST DUP1 PUSH1 0x1F ADD PUSH1 0x20 DUP1 SWAP2 DIV MUL PUSH1 0x20 ADD PUSH1 0x40 MLOAD SWAP1 DUP2 ADD PUSH1 0x40 MSTORE DUP1 SWAP3 SWAP2 SWAP1 DUP2 DUP2 MSTORE PUSH1 0x20 ADD DUP3 DUP1 SLOAD PUSH2 0x1664 SWAP1 PUSH2 0x4296 JUMP JUMPDEST DUP1 ISZERO PUSH2 0x16B1 JUMPI DUP1 PUSH1 0x1F LT PUSH2 0x1686 JUMPI PUSH2 0x100 DUP1 DUP4 SLOAD DIV MUL DUP4 MSTORE SWAP2 PUSH1 0x20 ADD SWAP2 PUSH2 0x16B1 JUMP JUMPDEST DUP3 ADD SWAP2 SWAP1 PUSH1 0x0 MSTORE PUSH1 0x20 PUSH1 0x0 KECCAK256 SWAP1 JUMPDEST DUP2 SLOAD DUP2 MSTORE SWAP1 PUSH1 0x1 ADD SWAP1 PUSH1 0x20 ADD DUP1 DUP4 GT PUSH2 0x1694 JUMPI DUP3 SWAP1 SUB PUSH1 0x1F AND DUP3 ADD SWAP2 JUMPDEST POP POP POP POP POP DUP2 MSTORE PUSH1 0x20 ADD SWAP1 PUSH1 0x1 ADD SWAP1 PUSH2 0x1619 JUMP JUMPDEST POP POP POP POP SWAP1 POP PUSH1 0x0 PUSH1 0xC DUP4 DUP2 SLOAD DUP2 LT PUSH2 0x16E0 JUMPI PUSH2 0x16E0 PUSH2 0x4342 JUMP JUMPDEST SWAP1 PUSH1 0x0 MSTORE PUSH1 0x20 PUSH1 0x0 KECCAK256 SWAP1 PUSH1 0x8 MUL ADD PUSH1 0x2 ADD DUP1 SLOAD DUP1 PUSH1 0x20 MUL PUSH1 0x20 ADD PUSH1 0x40 MLOAD SWAP1 DUP2 ADD PUSH1 0x40 MSTORE DUP1 SWAP3 SWAP2 SWAP1 DUP2 DUP2 MSTORE PUSH1 0x20 ADD PUSH1 0x0 SWAP1 JUMPDEST DUP3 DUP3 LT ISZERO PUSH2 0x17BD JUMPI DUP4 DUP3 SWAP1 PUSH1 0x0 MSTORE PUSH1 0x20 PUSH1 0x0 KECCAK256 ADD DUP1 SLOAD PUSH2 0x1730 SWAP1 PUSH2 0x4296 JUMP JUMPDEST DUP1 PUSH1 0x1F ADD PUSH1 0x20 DUP1 SWAP2 DIV MUL PUSH1 0x20 ADD PUSH1 0x40 MLOAD SWAP1 DUP2 ADD PUSH1 0x40 MSTORE DUP1 SWAP3 SWAP2 SWAP1 DUP2 DUP2 MSTORE PUSH1 0x20 ADD DUP3 DUP1 SLOAD PUSH2 0x175C SWAP1 PUSH2 0x4296 JUMP JUMPDEST DUP1 ISZERO PUSH2 0x17A9 JUMPI DUP1 PUSH1 0x1F LT PUSH2 0x177E JUMPI PUSH2 0x100 DUP1 DUP4 SLOAD DIV MUL DUP4 MSTORE SWAP2 PUSH1 0x20 ADD SWAP2 PUSH2 0x17A9 JUMP JUMPDEST DUP3 ADD SWAP2 SWAP1 PUSH1 0x0 MSTORE PUSH1 0x20 PUSH1 0x0 KECCAK256 SWAP1 JUMPDEST DUP2 SLOAD DUP2 MSTORE SWAP1 PUSH1 0x1 ADD SWAP1 PUSH1 0x20 ADD DUP1 DUP4 GT PUSH2 0x178C JUMPI DUP3 SWAP1 SUB PUSH1 0x1F AND DUP3 ADD SWAP2 JUMPDEST POP POP POP POP POP DUP2 MSTORE PUSH1 0x20 ADD SWAP1 PUSH1 0x1 ADD SWAP1 PUSH2 0x1711 JUMP JUMPDEST POP POP POP POP SWAP1 POP PUSH1 0x0 PUSH1 0xC DUP5 DUP2 SLOAD DUP2 LT PUSH2 0x17D8 JUMPI PUSH2 0x17D8 PUSH2 0x4342 JUMP JUMPDEST SWAP1 PUSH1 0x0 MSTORE PUSH1 0x20 PUSH1 0x0 KECCAK256 SWAP1 PUSH1 0x8 MUL ADD PUSH1 0x3 ADD DUP1 SLOAD DUP1 PUSH1 0x20 MUL PUSH1 0x20 ADD PUSH1 0x40 MLOAD SWAP1 DUP2 ADD PUSH1 0x40 MSTORE DUP1 SWAP3 SWAP2 SWAP1 DUP2 DUP2 MSTORE PUSH1 0x20 ADD PUSH1 0x0 SWAP1 JUMPDEST DUP3 DUP3 LT ISZERO PUSH2 0x18B5 JUMPI DUP4 DUP3 SWAP1 PUSH1 0x0 MSTORE PUSH1 0x20 PUSH1 0x0 KECCAK256 ADD DUP1 SLOAD PUSH2 0x1828 SWAP1 PUSH2 0x4296 JUMP JUMPDEST DUP1 PUSH1 0x1F ADD PUSH1 0x20 DUP1 SWAP2 DIV MUL PUSH1 0x20 ADD PUSH1 0x40 MLOAD SWAP1 DUP2 ADD PUSH1 0x40 MSTORE DUP1 SWAP3 SWAP2 SWAP1 DUP2 DUP2 MSTORE PUSH1 0x20 ADD DUP3 DUP1 SLOAD PUSH2 0x1854 SWAP1 PUSH2 0x4296 JUMP JUMPDEST DUP1 ISZERO PUSH2 0x18A1 JUMPI DUP1 PUSH1 0x1F LT PUSH2 0x1876 JUMPI PUSH2 0x100 DUP1 DUP4 SLOAD DIV MUL DUP4 MSTORE SWAP2 PUSH1 0x20 ADD SWAP2 PUSH2 0x18A1 JUMP JUMPDEST DUP3 ADD SWAP2 SWAP1 PUSH1 0x0 MSTORE PUSH1 0x20 PUSH1 0x0 KECCAK256 SWAP1 JUMPDEST DUP2 SLOAD DUP2 MSTORE SWAP1 PUSH1 0x1 ADD SWAP1 PUSH1 0x20 ADD DUP1 DUP4 GT PUSH2 0x1884 JUMPI DUP3 SWAP1 SUB PUSH1 0x1F AND DUP3 ADD SWAP2 JUMPDEST POP POP POP POP POP DUP2 MSTORE PUSH1 0x20 ADD SWAP1 PUSH1 0x1 ADD SWAP1 PUSH2 0x1809 JUMP JUMPDEST POP POP POP POP SWAP1 POP PUSH1 0x0 PUSH1 0xC DUP6 DUP2 SLOAD DUP2 LT PUSH2 0x18D0 JUMPI PUSH2 0x18D0 PUSH2 0x4342 JUMP JUMPDEST SWAP1 PUSH1 0x0 MSTORE PUSH1 0x20 PUSH1 0x0 KECCAK256 SWAP1 PUSH1 0x8 MUL ADD PUSH1 0x4 ADD PUSH1 0x40 MLOAD DUP1 PUSH1 0x60 ADD PUSH1 0x40 MSTORE SWAP1 DUP2 PUSH1 0x0 DUP3 ADD DUP1 SLOAD PUSH2 0x18FC SWAP1 PUSH2 0x4296 JUMP JUMPDEST DUP1 PUSH1 0x1F ADD PUSH1 0x20 DUP1 SWAP2 DIV MUL PUSH1 0x20 ADD PUSH1 0x40 MLOAD SWAP1 DUP2 ADD PUSH1 0x40 MSTORE DUP1 SWAP3 SWAP2 SWAP1 DUP2 DUP2 MSTORE PUSH1 0x20 ADD DUP3 DUP1 SLOAD PUSH2 0x1928 SWAP1 PUSH2 0x4296 JUMP JUMPDEST DUP1 ISZERO PUSH2 0x1975 JUMPI DUP1 PUSH1 0x1F LT PUSH2 0x194A JUMPI PUSH2 0x100 DUP1 DUP4 SLOAD DIV MUL DUP4 MSTORE SWAP2 PUSH1 0x20 ADD SWAP2 PUSH2 0x1975 JUMP JUMPDEST DUP3 ADD SWAP2 SWAP1 PUSH1 0x0 MSTORE PUSH1 0x20 PUSH1 0x0 KECCAK256 SWAP1 JUMPDEST DUP2 SLOAD DUP2 MSTORE SWAP1 PUSH1 0x1 ADD SWAP1 PUSH1 0x20 ADD DUP1 DUP4 GT PUSH2 0x1958 JUMPI DUP3 SWAP1 SUB PUSH1 0x1F AND DUP3 ADD SWAP2 JUMPDEST POP POP POP POP POP DUP2 MSTORE PUSH1 0x20 ADD PUSH1 0x1 DUP3 ADD DUP1 SLOAD PUSH2 0x198E SWAP1 PUSH2 0x4296 JUMP JUMPDEST DUP1 PUSH1 0x1F ADD PUSH1 0x20 DUP1 SWAP2 DIV MUL PUSH1 0x20 ADD PUSH1 0x40 MLOAD SWAP1 DUP2 ADD PUSH1 0x40 MSTORE DUP1 SWAP3 SWAP2 SWAP1 DUP2 DUP2 MSTORE PUSH1 0x20 ADD DUP3 DUP1 SLOAD PUSH2 0x19BA SWAP1 PUSH2 0x4296 JUMP JUMPDEST DUP1 ISZERO PUSH2 0x1A07 JUMPI DUP1 PUSH1 0x1F LT PUSH2 0x19DC JUMPI PUSH2 0x100 DUP1 DUP4 SLOAD DIV MUL DUP4 MSTORE SWAP2 PUSH1 0x20 ADD SWAP2 PUSH2 0x1A07 JUMP JUMPDEST DUP3 ADD SWAP2 SWAP1 PUSH1 0x0 MSTORE PUSH1 0x20 PUSH1 0x0 KECCAK256 SWAP1 JUMPDEST DUP2 SLOAD DUP2 MSTORE SWAP1 PUSH1 0x1 ADD SWAP1 PUSH1 0x20 ADD DUP1 DUP4 GT PUSH2 0x19EA JUMPI DUP3 SWAP1 SUB PUSH1 0x1F AND DUP3 ADD SWAP2 JUMPDEST POP POP POP POP POP DUP2 MSTORE PUSH1 0x20 ADD PUSH1 0x2 DUP3 ADD DUP1 SLOAD PUSH2 0x1A20 SWAP1 PUSH2 0x4296 JUMP JUMPDEST DUP1 PUSH1 0x1F ADD PUSH1 0x20 DUP1 SWAP2 DIV MUL PUSH1 0x20 ADD PUSH1 0x40 MLOAD SWAP1 DUP2 ADD PUSH1 0x40 MSTORE DUP1 SWAP3 SWAP2 SWAP1 DUP2 DUP2 MSTORE PUSH1 0x20 ADD DUP3 DUP1 SLOAD PUSH2 0x1A4C SWAP1 PUSH2 0x4296 JUMP JUMPDEST DUP1 ISZERO PUSH2 0x1A99 JUMPI DUP1 PUSH1 0x1F LT PUSH2 0x1A6E JUMPI PUSH2 0x100 DUP1 DUP4 SLOAD DIV MUL DUP4 MSTORE SWAP2 PUSH1 0x20 ADD SWAP2 PUSH2 0x1A99 JUMP JUMPDEST DUP3 ADD SWAP2 SWAP1 PUSH1 0x0 MSTORE PUSH1 0x20 PUSH1 0x0 KECCAK256 SWAP1 JUMPDEST DUP2 SLOAD DUP2 MSTORE SWAP1 PUSH1 0x1 ADD SWAP1 PUSH1 0x20 ADD DUP1 DUP4 GT PUSH2 0x1A7C JUMPI DUP3 SWAP1 SUB PUSH1 0x1F AND DUP3 ADD SWAP2 JUMPDEST POP POP POP POP POP DUP2 MSTORE POP POP SWAP1 POP PUSH2 0x1AAC PUSH2 0x360E JUMP JUMPDEST PUSH1 0x40 MLOAD DUP1 PUSH2 0x180 ADD PUSH1 0x40 MSTORE DUP1 PUSH2 0x14A DUP2 MSTORE PUSH1 0x20 ADD PUSH2 0x44FB PUSH2 0x14A SWAP2 CODECOPY DUP2 MSTORE DUP2 MLOAD PUSH1 0x20 DUP1 DUP4 ADD SWAP2 SWAP1 SWAP2 MSTORE PUSH1 0x40 DUP1 MLOAD PUSH1 0x60 DUP2 ADD SWAP1 SWAP2 MSTORE PUSH1 0x21 DUP1 DUP3 MSTORE SWAP1 SWAP2 PUSH2 0x43F8 SWAP1 DUP4 ADD CODECOPY PUSH1 0x40 DUP3 ADD MSTORE PUSH1 0x20 DUP3 ADD MLOAD DUP2 PUSH1 0x3 PUSH1 0x20 MUL ADD DUP2 SWAP1 MSTORE POP PUSH1 0x40 MLOAD DUP1 PUSH1 0x60 ADD PUSH1 0x40 MSTORE DUP1 PUSH1 0x22 DUP2 MSTORE PUSH1 0x20 ADD PUSH2 0x43AD PUSH1 0x22 SWAP2 CODECOPY PUSH1 0x80 DUP3 ADD MSTORE PUSH1 0x40 DUP3 DUP2 ADD MLOAD PUSH1 0xA0 DUP1 DUP5 ADD SWAP2 SWAP1 SWAP2 MSTORE DUP2 MLOAD SWAP1 DUP2 ADD SWAP1 SWAP2 MSTORE PUSH1 0x7A DUP1 DUP3 MSTORE PUSH2 0x4481 PUSH1 0x20 DUP4 ADD CODECOPY PUSH1 0xC0 DUP3 ADD MSTORE PUSH2 0x1B54 DUP9 DUP7 PUSH2 0xD6D JUMP JUMPDEST PUSH1 0xE0 DUP3 ADD MSTORE PUSH1 0x40 DUP1 MLOAD PUSH1 0x60 DUP2 ADD SWAP1 SWAP2 MSTORE PUSH1 0x28 DUP1 DUP3 MSTORE PUSH2 0x4385 PUSH1 0x20 DUP4 ADD CODECOPY PUSH2 0x100 DUP3 ADD MSTORE PUSH2 0x1B81 DUP9 DUP6 PUSH2 0x267B JUMP JUMPDEST PUSH2 0x120 DUP3 ADD MSTORE PUSH1 0x40 DUP1 MLOAD PUSH1 0x60 DUP2 ADD SWAP1 SWAP2 MSTORE PUSH1 0x28 DUP1 DUP3 MSTORE PUSH2 0x4459 PUSH1 0x20 DUP4 ADD CODECOPY PUSH2 0x140 DUP3 ADD MSTORE PUSH2 0x1BAF DUP9 DUP5 PUSH2 0x25B3 JUMP JUMPDEST PUSH2 0x160 DUP3 ADD MSTORE PUSH1 0x40 DUP1 MLOAD PUSH1 0x60 DUP2 ADD SWAP1 SWAP2 MSTORE PUSH1 0x29 DUP1 DUP3 MSTORE PUSH2 0x43CF PUSH1 0x20 DUP4 ADD CODECOPY PUSH2 0x180 DUP3 ADD MSTORE PUSH1 0x40 DUP1 MLOAD DUP1 DUP3 ADD DUP3 MSTORE PUSH1 0xD DUP2 MSTORE PUSH13 0x1E17BA32BC3A1F1E17B9BB339F PUSH1 0x99 SHL PUSH1 0x20 DUP1 DUP4 ADD SWAP2 SWAP1 SWAP2 MSTORE PUSH2 0x1A0 DUP5 ADD SWAP2 SWAP1 SWAP2 MSTORE DUP3 MLOAD DUP2 DUP5 ADD MLOAD DUP4 DUP6 ADD MLOAD PUSH1 0x60 DUP7 ADD MLOAD PUSH1 0x80 DUP8 ADD MLOAD PUSH1 0xA0 DUP9 ADD MLOAD PUSH1 0xC0 DUP10 ADD MLOAD PUSH1 0xE0 DUP11 ADD MLOAD SWAP9 MLOAD PUSH1 0x0 SWAP10 PUSH2 0x1C37 SWAP10 SWAP1 SWAP2 ADD PUSH2 0x3BA3 JUMP JUMPDEST PUSH1 0x40 DUP1 MLOAD DUP1 DUP4 SUB PUSH1 0x1F NOT ADD DUP2 MSTORE SWAP1 DUP3 SWAP1 MSTORE PUSH2 0x100 DUP5 ADD MLOAD PUSH2 0x120 DUP6 ADD MLOAD PUSH2 0x140 DUP7 ADD MLOAD PUSH2 0x160 DUP8 ADD MLOAD PUSH2 0x180 DUP9 ADD MLOAD PUSH2 0x1A0 DUP10 ADD MLOAD SWAP6 SWAP8 POP PUSH2 0x1C7E SWAP7 DUP9 SWAP7 SWAP1 PUSH1 0x20 ADD PUSH2 0x3B11 JUMP JUMPDEST PUSH1 0x40 MLOAD PUSH1 0x20 DUP2 DUP4 SUB SUB DUP2 MSTORE SWAP1 PUSH1 0x40 MSTORE SWAP1 POP PUSH1 0x0 PUSH2 0x1CCB PUSH2 0x1C9D DUP12 PUSH2 0x2A06 JUMP JUMPDEST PUSH2 0x1CA6 DUP5 PUSH2 0x2E9D JUMP JUMPDEST PUSH1 0x40 MLOAD PUSH1 0x20 ADD PUSH2 0x1CB7 SWAP3 SWAP2 SWAP1 PUSH2 0x3E1F JUMP JUMPDEST PUSH1 0x40 MLOAD PUSH1 0x20 DUP2 DUP4 SUB SUB DUP2 MSTORE SWAP1 PUSH1 0x40 MSTORE PUSH2 0x2E9D JUMP JUMPDEST SWAP1 POP DUP1 PUSH1 0x40 MLOAD PUSH1 0x20 ADD PUSH2 0x1CDE SWAP2 SWAP1 PUSH2 0x3FB5 JUMP JUMPDEST PUSH1 0x40 DUP1 MLOAD PUSH1 0x1F NOT DUP2 DUP5 SUB ADD DUP2 MSTORE SWAP2 SWAP1 MSTORE SWAP11 SWAP10 POP POP POP POP POP POP POP POP POP POP JUMP JUMPDEST PUSH1 0x0 DUP2 DUP2 MSTORE PUSH1 0x11 PUSH1 0x20 MSTORE PUSH1 0x40 DUP2 KECCAK256 SLOAD PUSH1 0xC DUP1 SLOAD PUSH1 0x60 SWAP4 SWAP2 SWAP1 DUP4 SWAP1 DUP2 LT PUSH2 0x1D24 JUMPI PUSH2 0x1D24 PUSH2 0x4342 JUMP JUMPDEST SWAP1 PUSH1 0x0 MSTORE PUSH1 0x20 PUSH1 0x0 KECCAK256 SWAP1 PUSH1 0x8 MUL ADD PUSH1 0x1 ADD DUP1 SLOAD DUP1 PUSH1 0x20 MUL PUSH1 0x20 ADD PUSH1 0x40 MLOAD SWAP1 DUP2 ADD PUSH1 0x40 MSTORE DUP1 SWAP3 SWAP2 SWAP1 DUP2 DUP2 MSTORE PUSH1 0x20 ADD PUSH1 0x0 SWAP1 JUMPDEST DUP3 DUP3 LT ISZERO PUSH2 0x1E01 JUMPI DUP4 DUP3 SWAP1 PUSH1 0x0 MSTORE PUSH1 0x20 PUSH1 0x0 KECCAK256 ADD DUP1 SLOAD PUSH2 0x1D74 SWAP1 PUSH2 0x4296 JUMP JUMPDEST DUP1 PUSH1 0x1F ADD PUSH1 0x20 DUP1 SWAP2 DIV MUL PUSH1 0x20 ADD PUSH1 0x40 MLOAD SWAP1 DUP2 ADD PUSH1 0x40 MSTORE DUP1 SWAP3 SWAP2 SWAP1 DUP2 DUP2 MSTORE PUSH1 0x20 ADD DUP3 DUP1 SLOAD PUSH2 0x1DA0 SWAP1 PUSH2 0x4296 JUMP JUMPDEST DUP1 ISZERO PUSH2 0x1DED JUMPI DUP1 PUSH1 0x1F LT PUSH2 0x1DC2 JUMPI PUSH2 0x100 DUP1 DUP4 SLOAD DIV MUL DUP4 MSTORE SWAP2 PUSH1 0x20 ADD SWAP2 PUSH2 0x1DED JUMP JUMPDEST DUP3 ADD SWAP2 SWAP1 PUSH1 0x0 MSTORE PUSH1 0x20 PUSH1 0x0 KECCAK256 SWAP1 JUMPDEST DUP2 SLOAD DUP2 MSTORE SWAP1 PUSH1 0x1 ADD SWAP1 PUSH1 0x20 ADD DUP1 DUP4 GT PUSH2 0x1DD0 JUMPI DUP3 SWAP1 SUB PUSH1 0x1F AND DUP3 ADD SWAP2 JUMPDEST POP POP POP POP POP DUP2 MSTORE PUSH1 0x20 ADD SWAP1 PUSH1 0x1 ADD SWAP1 PUSH2 0x1D55 JUMP JUMPDEST POP POP POP POP SWAP1 POP PUSH1 0x0 PUSH1 0xC DUP4 DUP2 SLOAD DUP2 LT PUSH2 0x1E1C JUMPI PUSH2 0x1E1C PUSH2 0x4342 JUMP JUMPDEST SWAP1 PUSH1 0x0 MSTORE PUSH1 0x20 PUSH1 0x0 KECCAK256 SWAP1 PUSH1 0x8 MUL ADD PUSH1 0x2 ADD DUP1 SLOAD DUP1 PUSH1 0x20 MUL PUSH1 0x20 ADD PUSH1 0x40 MLOAD SWAP1 DUP2 ADD PUSH1 0x40 MSTORE DUP1 SWAP3 SWAP2 SWAP1 DUP2 DUP2 MSTORE PUSH1 0x20 ADD PUSH1 0x0 SWAP1 JUMPDEST DUP3 DUP3 LT ISZERO PUSH2 0x1EF9 JUMPI DUP4 DUP3 SWAP1 PUSH1 0x0 MSTORE PUSH1 0x20 PUSH1 0x0 KECCAK256 ADD DUP1 SLOAD PUSH2 0x1E6C SWAP1 PUSH2 0x4296 JUMP JUMPDEST DUP1 PUSH1 0x1F ADD PUSH1 0x20 DUP1 SWAP2 DIV MUL PUSH1 0x20 ADD PUSH1 0x40 MLOAD SWAP1 DUP2 ADD PUSH1 0x40 MSTORE DUP1 SWAP3 SWAP2 SWAP1 DUP2 DUP2 MSTORE PUSH1 0x20 ADD DUP3 DUP1 SLOAD PUSH2 0x1E98 SWAP1 PUSH2 0x4296 JUMP JUMPDEST DUP1 ISZERO PUSH2 0x1EE5 JUMPI DUP1 PUSH1 0x1F LT PUSH2 0x1EBA JUMPI PUSH2 0x100 DUP1 DUP4 SLOAD DIV MUL DUP4 MSTORE SWAP2 PUSH1 0x20 ADD SWAP2 PUSH2 0x1EE5 JUMP JUMPDEST DUP3 ADD SWAP2 SWAP1 PUSH1 0x0 MSTORE PUSH1 0x20 PUSH1 0x0 KECCAK256 SWAP1 JUMPDEST DUP2 SLOAD DUP2 MSTORE SWAP1 PUSH1 0x1 ADD SWAP1 PUSH1 0x20 ADD DUP1 DUP4 GT PUSH2 0x1EC8 JUMPI DUP3 SWAP1 SUB PUSH1 0x1F AND DUP3 ADD SWAP2 JUMPDEST POP POP POP POP POP DUP2 MSTORE PUSH1 0x20 ADD SWAP1 PUSH1 0x1 ADD SWAP1 PUSH2 0x1E4D JUMP JUMPDEST POP POP POP POP SWAP1 POP PUSH1 0x0 PUSH1 0xC DUP5 DUP2 SLOAD DUP2 LT PUSH2 0x1F14 JUMPI PUSH2 0x1F14 PUSH2 0x4342 JUMP JUMPDEST SWAP1 PUSH1 0x0 MSTORE PUSH1 0x20 PUSH1 0x0 KECCAK256 SWAP1 PUSH1 0x8 MUL ADD PUSH1 0x3 ADD DUP1 SLOAD DUP1 PUSH1 0x20 MUL PUSH1 0x20 ADD PUSH1 0x40 MLOAD SWAP1 DUP2 ADD PUSH1 0x40 MSTORE DUP1 SWAP3 SWAP2 SWAP1 DUP2 DUP2 MSTORE PUSH1 0x20 ADD PUSH1 0x0 SWAP1 JUMPDEST DUP3 DUP3 LT ISZERO PUSH2 0x1FF1 JUMPI DUP4 DUP3 SWAP1 PUSH1 0x0 MSTORE PUSH1 0x20 PUSH1 0x0 KECCAK256 ADD DUP1 SLOAD PUSH2 0x1F64 SWAP1 PUSH2 0x4296 JUMP JUMPDEST DUP1 PUSH1 0x1F ADD PUSH1 0x20 DUP1 SWAP2 DIV MUL PUSH1 0x20 ADD PUSH1 0x40 MLOAD SWAP1 DUP2 ADD PUSH1 0x40 MSTORE DUP1 SWAP3 SWAP2 SWAP1 DUP2 DUP2 MSTORE PUSH1 0x20 ADD DUP3 DUP1 SLOAD PUSH2 0x1F90 SWAP1 PUSH2 0x4296 JUMP JUMPDEST DUP1 ISZERO PUSH2 0x1FDD JUMPI DUP1 PUSH1 0x1F LT PUSH2 0x1FB2 JUMPI PUSH2 0x100 DUP1 DUP4 SLOAD DIV MUL DUP4 MSTORE SWAP2 PUSH1 0x20 ADD SWAP2 PUSH2 0x1FDD JUMP JUMPDEST DUP3 ADD SWAP2 SWAP1 PUSH1 0x0 MSTORE PUSH1 0x20 PUSH1 0x0 KECCAK256 SWAP1 JUMPDEST DUP2 SLOAD DUP2 MSTORE SWAP1 PUSH1 0x1 ADD SWAP1 PUSH1 0x20 ADD DUP1 DUP4 GT PUSH2 0x1FC0 JUMPI DUP3 SWAP1 SUB PUSH1 0x1F AND DUP3 ADD SWAP2 JUMPDEST POP POP POP POP POP DUP2 MSTORE PUSH1 0x20 ADD SWAP1 PUSH1 0x1 ADD SWAP1 PUSH2 0x1F45 JUMP JUMPDEST POP POP POP POP SWAP1 POP PUSH1 0x0 PUSH1 0xC DUP6 DUP2 SLOAD DUP2 LT PUSH2 0x200C JUMPI PUSH2 0x200C PUSH2 0x4342 JUMP JUMPDEST SWAP1 PUSH1 0x0 MSTORE PUSH1 0x20 PUSH1 0x0 KECCAK256 SWAP1 PUSH1 0x8 MUL ADD PUSH1 0x4 ADD PUSH1 0x40 MLOAD DUP1 PUSH1 0x60 ADD PUSH1 0x40 MSTORE SWAP1 DUP2 PUSH1 0x0 DUP3 ADD DUP1 SLOAD PUSH2 0x2038 SWAP1 PUSH2 0x4296 JUMP JUMPDEST DUP1 PUSH1 0x1F ADD PUSH1 0x20 DUP1 SWAP2 DIV MUL PUSH1 0x20 ADD PUSH1 0x40 MLOAD SWAP1 DUP2 ADD PUSH1 0x40 MSTORE DUP1 SWAP3 SWAP2 SWAP1 DUP2 DUP2 MSTORE PUSH1 0x20 ADD DUP3 DUP1 SLOAD PUSH2 0x2064 SWAP1 PUSH2 0x4296 JUMP JUMPDEST DUP1 ISZERO PUSH2 0x20B1 JUMPI DUP1 PUSH1 0x1F LT PUSH2 0x2086 JUMPI PUSH2 0x100 DUP1 DUP4 SLOAD DIV MUL DUP4 MSTORE SWAP2 PUSH1 0x20 ADD SWAP2 PUSH2 0x20B1 JUMP JUMPDEST DUP3 ADD SWAP2 SWAP1 PUSH1 0x0 MSTORE PUSH1 0x20 PUSH1 0x0 KECCAK256 SWAP1 JUMPDEST DUP2 SLOAD DUP2 MSTORE SWAP1 PUSH1 0x1 ADD SWAP1 PUSH1 0x20 ADD DUP1 DUP4 GT PUSH2 0x2094 JUMPI DUP3 SWAP1 SUB PUSH1 0x1F AND DUP3 ADD SWAP2 JUMPDEST POP POP POP POP POP DUP2 MSTORE PUSH1 0x20 ADD PUSH1 0x1 DUP3 ADD DUP1 SLOAD PUSH2 0x20CA SWAP1 PUSH2 0x4296 JUMP JUMPDEST DUP1 PUSH1 0x1F ADD PUSH1 0x20 DUP1 SWAP2 DIV MUL PUSH1 0x20 ADD PUSH1 0x40 MLOAD SWAP1 DUP2 ADD PUSH1 0x40 MSTORE DUP1 SWAP3 SWAP2 SWAP1 DUP2 DUP2 MSTORE PUSH1 0x20 ADD DUP3 DUP1 SLOAD PUSH2 0x20F6 SWAP1 PUSH2 0x4296 JUMP JUMPDEST DUP1 ISZERO PUSH2 0x2143 JUMPI DUP1 PUSH1 0x1F LT PUSH2 0x2118 JUMPI PUSH2 0x100 DUP1 DUP4 SLOAD DIV MUL DUP4 MSTORE SWAP2 PUSH1 0x20 ADD SWAP2 PUSH2 0x2143 JUMP JUMPDEST DUP3 ADD SWAP2 SWAP1 PUSH1 0x0 MSTORE PUSH1 0x20 PUSH1 0x0 KECCAK256 SWAP1 JUMPDEST DUP2 SLOAD DUP2 MSTORE SWAP1 PUSH1 0x1 ADD SWAP1 PUSH1 0x20 ADD DUP1 DUP4 GT PUSH2 0x2126 JUMPI DUP3 SWAP1 SUB PUSH1 0x1F AND DUP3 ADD SWAP2 JUMPDEST POP POP POP POP POP DUP2 MSTORE PUSH1 0x20 ADD PUSH1 0x2 DUP3 ADD DUP1 SLOAD PUSH2 0x215C SWAP1 PUSH2 0x4296 JUMP JUMPDEST DUP1 PUSH1 0x1F ADD PUSH1 0x20 DUP1 SWAP2 DIV MUL PUSH1 0x20 ADD PUSH1 0x40 MLOAD SWAP1 DUP2 ADD PUSH1 0x40 MSTORE DUP1 SWAP3 SWAP2 SWAP1 DUP2 DUP2 MSTORE PUSH1 0x20 ADD DUP3 DUP1 SLOAD PUSH2 0x2188 SWAP1 PUSH2 0x4296 JUMP JUMPDEST DUP1 ISZERO PUSH2 0x21D5 JUMPI DUP1 PUSH1 0x1F LT PUSH2 0x21AA JUMPI PUSH2 0x100 DUP1 DUP4 SLOAD DIV MUL DUP4 MSTORE SWAP2 PUSH1 0x20 ADD SWAP2 PUSH2 0x21D5 JUMP JUMPDEST DUP3 ADD SWAP2 SWAP1 PUSH1 0x0 MSTORE PUSH1 0x20 PUSH1 0x0 KECCAK256 SWAP1 JUMPDEST DUP2 SLOAD DUP2 MSTORE SWAP1 PUSH1 0x1 ADD SWAP1 PUSH1 0x20 ADD DUP1 DUP4 GT PUSH2 0x21B8 JUMPI DUP3 SWAP1 SUB PUSH1 0x1F AND DUP3 ADD SWAP2 JUMPDEST POP POP POP POP POP DUP2 MSTORE POP POP SWAP1 POP PUSH2 0x21E8 PUSH2 0x360E JUMP JUMPDEST PUSH1 0x40 MLOAD DUP1 PUSH2 0x180 ADD PUSH1 0x40 MSTORE DUP1 PUSH2 0x14A DUP2 MSTORE PUSH1 0x20 ADD PUSH2 0x44FB PUSH2 0x14A SWAP2 CODECOPY DUP2 MSTORE DUP2 MLOAD PUSH1 0x20 DUP1 DUP4 ADD SWAP2 SWAP1 SWAP2 MSTORE PUSH1 0x40 DUP1 MLOAD PUSH1 0x60 DUP2 ADD SWAP1 SWAP2 MSTORE PUSH1 0x21 DUP1 DUP3 MSTORE SWAP1 SWAP2 PUSH2 0x43F8 SWAP1 DUP4 ADD CODECOPY PUSH1 0x40 DUP3 ADD MSTORE PUSH1 0x20 DUP3 ADD MLOAD DUP2 PUSH1 0x3 PUSH1 0x20 MUL ADD DUP2 SWAP1 MSTORE POP PUSH1 0x40 MLOAD DUP1 PUSH1 0x60 ADD PUSH1 0x40 MSTORE DUP1 PUSH1 0x22 DUP2 MSTORE PUSH1 0x20 ADD PUSH2 0x43AD PUSH1 0x22 SWAP2 CODECOPY PUSH1 0x80 DUP3 ADD MSTORE PUSH1 0x40 DUP3 DUP2 ADD MLOAD PUSH1 0xA0 DUP1 DUP5 ADD SWAP2 SWAP1 SWAP2 MSTORE DUP2 MLOAD SWAP1 DUP2 ADD SWAP1 SWAP2 MSTORE PUSH1 0x7A DUP1 DUP3 MSTORE PUSH2 0x4481 PUSH1 0x20 DUP4 ADD CODECOPY PUSH1 0xC0 DUP3 ADD MSTORE PUSH2 0x2290 DUP9 DUP7 PUSH2 0xD6D JUMP JUMPDEST PUSH1 0xE0 DUP3 ADD MSTORE PUSH1 0x40 DUP1 MLOAD PUSH1 0x60 DUP2 ADD SWAP1 SWAP2 MSTORE PUSH1 0x28 DUP1 DUP3 MSTORE PUSH2 0x4385 PUSH1 0x20 DUP4 ADD CODECOPY PUSH2 0x100 DUP3 ADD MSTORE PUSH2 0x22BD DUP9 DUP6 PUSH2 0x267B JUMP JUMPDEST PUSH2 0x120 DUP3 ADD MSTORE PUSH1 0x40 DUP1 MLOAD PUSH1 0x60 DUP2 ADD SWAP1 SWAP2 MSTORE PUSH1 0x28 DUP1 DUP3 MSTORE PUSH2 0x4459 PUSH1 0x20 DUP4 ADD CODECOPY PUSH2 0x140 DUP3 ADD MSTORE PUSH2 0x22EB DUP9 DUP5 PUSH2 0x25B3 JUMP JUMPDEST PUSH2 0x160 DUP3 ADD MSTORE PUSH1 0x40 DUP1 MLOAD PUSH1 0x60 DUP2 ADD SWAP1 SWAP2 MSTORE PUSH1 0x29 DUP1 DUP3 MSTORE PUSH2 0x43CF PUSH1 0x20 DUP4 ADD CODECOPY PUSH2 0x180 DUP3 ADD MSTORE PUSH1 0x40 DUP1 MLOAD DUP1 DUP3 ADD DUP3 MSTORE PUSH1 0xD DUP2 MSTORE PUSH13 0x1E17BA32BC3A1F1E17B9BB339F PUSH1 0x99 SHL PUSH1 0x20 DUP1 DUP4 ADD SWAP2 SWAP1 SWAP2 MSTORE PUSH2 0x1A0 DUP5 ADD SWAP2 SWAP1 SWAP2 MSTORE DUP3 MLOAD DUP2 DUP5 ADD MLOAD DUP4 DUP6 ADD MLOAD PUSH1 0x60 DUP7 ADD MLOAD PUSH1 0x80 DUP8 ADD MLOAD PUSH1 0xA0 DUP9 ADD MLOAD PUSH1 0xC0 DUP10 ADD MLOAD PUSH1 0xE0 DUP11 ADD MLOAD SWAP9 MLOAD PUSH1 0x0 SWAP10 PUSH2 0x2373 SWAP10 SWAP1 SWAP2 ADD PUSH2 0x3BA3 JUMP JUMPDEST PUSH1 0x40 DUP1 MLOAD DUP1 DUP4 SUB PUSH1 0x1F NOT ADD DUP2 MSTORE SWAP1 DUP3 SWAP1 MSTORE PUSH2 0x100 DUP5 ADD MLOAD PUSH2 0x120 DUP6 ADD MLOAD PUSH2 0x140 DUP7 ADD MLOAD PUSH2 0x160 DUP8 ADD MLOAD PUSH2 0x180 DUP9 ADD MLOAD PUSH2 0x1A0 DUP10 ADD MLOAD SWAP6 SWAP8 POP PUSH2 0x23BA SWAP7 DUP9 SWAP7 SWAP1 PUSH1 0x20 ADD PUSH2 0x3B11 JUMP JUMPDEST PUSH1 0x40 MLOAD PUSH1 0x20 DUP2 DUP4 SUB SUB DUP2 MSTORE SWAP1 PUSH1 0x40 MSTORE SWAP1 POP PUSH2 0x23D4 DUP2 PUSH2 0x2E9D JUMP JUMPDEST SWAP10 SWAP9 POP POP POP POP POP POP POP POP POP JUMP JUMPDEST PUSH1 0xD DUP2 DUP2 SLOAD DUP2 LT PUSH2 0x23F1 JUMPI PUSH1 0x0 DUP1 REVERT JUMPDEST SWAP1 PUSH1 0x0 MSTORE PUSH1 0x20 PUSH1 0x0 KECCAK256 SWAP1 PUSH1 0x3 MUL ADD PUSH1 0x0 SWAP2 POP SWAP1 POP DUP1 PUSH1 0x0 ADD DUP1 SLOAD PUSH2 0x2414 SWAP1 PUSH2 0x4296 JUMP JUMPDEST DUP1 PUSH1 0x1F ADD PUSH1 0x20 DUP1 SWAP2 DIV MUL PUSH1 0x20 ADD PUSH1 0x40 MLOAD SWAP1 DUP2 ADD PUSH1 0x40 MSTORE DUP1 SWAP3 SWAP2 SWAP1 DUP2 DUP2 MSTORE PUSH1 0x20 ADD DUP3 DUP1 SLOAD PUSH2 0x2440 SWAP1 PUSH2 0x4296 JUMP JUMPDEST DUP1 ISZERO PUSH2 0x248D JUMPI DUP1 PUSH1 0x1F LT PUSH2 0x2462 JUMPI PUSH2 0x100 DUP1 DUP4 SLOAD DIV MUL DUP4 MSTORE SWAP2 PUSH1 0x20 ADD SWAP2 PUSH2 0x248D JUMP JUMPDEST DUP3 ADD SWAP2 SWAP1 PUSH1 0x0 MSTORE PUSH1 0x20 PUSH1 0x0 KECCAK256 SWAP1 JUMPDEST DUP2 SLOAD DUP2 MSTORE SWAP1 PUSH1 0x1 ADD SWAP1 PUSH1 0x20 ADD DUP1 DUP4 GT PUSH2 0x2470 JUMPI DUP3 SWAP1 SUB PUSH1 0x1F AND DUP3 ADD SWAP2 JUMPDEST POP POP POP POP POP SWAP1 DUP1 PUSH1 0x1 ADD DUP1 SLOAD PUSH2 0x24A2 SWAP1 PUSH2 0x4296 JUMP JUMPDEST DUP1 PUSH1 0x1F ADD PUSH1 0x20 DUP1 SWAP2 DIV MUL PUSH1 0x20 ADD PUSH1 0x40 MLOAD SWAP1 DUP2 ADD PUSH1 0x40 MSTORE DUP1 SWAP3 SWAP2 SWAP1 DUP2 DUP2 MSTORE PUSH1 0x20 ADD DUP3 DUP1 SLOAD PUSH2 0x24CE SWAP1 PUSH2 0x4296 JUMP JUMPDEST DUP1 ISZERO PUSH2 0x251B JUMPI DUP1 PUSH1 0x1F LT PUSH2 0x24F0 JUMPI PUSH2 0x100 DUP1 DUP4 SLOAD DIV MUL DUP4 MSTORE SWAP2 PUSH1 0x20 ADD SWAP2 PUSH2 0x251B JUMP JUMPDEST DUP3 ADD SWAP2 SWAP1 PUSH1 0x0 MSTORE PUSH1 0x20 PUSH1 0x0 KECCAK256 SWAP1 JUMPDEST DUP2 SLOAD DUP2 MSTORE SWAP1 PUSH1 0x1 ADD SWAP1 PUSH1 0x20 ADD DUP1 DUP4 GT PUSH2 0x24FE JUMPI DUP3 SWAP1 SUB PUSH1 0x1F AND DUP3 ADD SWAP2 JUMPDEST POP POP POP POP POP SWAP1 DUP1 PUSH1 0x2 ADD DUP1 SLOAD PUSH2 0x2530 SWAP1 PUSH2 0x4296 JUMP JUMPDEST DUP1 PUSH1 0x1F ADD PUSH1 0x20 DUP1 SWAP2 DIV MUL PUSH1 0x20 ADD PUSH1 0x40 MLOAD SWAP1 DUP2 ADD PUSH1 0x40 MSTORE DUP1 SWAP3 SWAP2 SWAP1 DUP2 DUP2 MSTORE PUSH1 0x20 ADD DUP3 DUP1 SLOAD PUSH2 0x255C SWAP1 PUSH2 0x4296 JUMP JUMPDEST DUP1 ISZERO PUSH2 0x25A9 JUMPI DUP1 PUSH1 0x1F LT PUSH2 0x257E JUMPI PUSH2 0x100 DUP1 DUP4 SLOAD DIV MUL DUP4 MSTORE SWAP2 PUSH1 0x20 ADD SWAP2 PUSH2 0x25A9 JUMP JUMPDEST DUP3 ADD SWAP2 SWAP1 PUSH1 0x0 MSTORE PUSH1 0x20 PUSH1 0x0 KECCAK256 SWAP1 JUMPDEST DUP2 SLOAD DUP2 MSTORE SWAP1 PUSH1 0x1 ADD SWAP1 PUSH1 0x20 ADD DUP1 DUP4 GT PUSH2 0x258C JUMPI DUP3 SWAP1 SUB PUSH1 0x1F AND DUP3 ADD SWAP2 JUMPDEST POP POP POP POP POP SWAP1 POP DUP4 JUMP JUMPDEST PUSH1 0x60 PUSH2 0xD98 DUP4 PUSH1 0x40 MLOAD DUP1 PUSH1 0x40 ADD PUSH1 0x40 MSTORE DUP1 PUSH1 0xB DUP2 MSTORE PUSH1 0x20 ADD PUSH11 0x4143434553534F52494553 PUSH1 0xA8 SHL DUP2 MSTORE POP DUP5 PUSH2 0x2B53 JUMP JUMPDEST PUSH1 0xB SLOAD PUSH1 0x1 PUSH1 0x1 PUSH1 0xA0 SHL SUB AND CALLER EQ PUSH2 0x260D JUMPI PUSH1 0x40 MLOAD PUSH3 0x461BCD PUSH1 0xE5 SHL DUP2 MSTORE PUSH1 0x4 ADD PUSH2 0x77D SWAP1 PUSH2 0x4151 JUMP JUMPDEST PUSH1 0x1 PUSH1 0x1 PUSH1 0xA0 SHL SUB DUP2 AND PUSH2 0x2672 JUMPI PUSH1 0x40 MLOAD PUSH3 0x461BCD PUSH1 0xE5 SHL DUP2 MSTORE PUSH1 0x20 PUSH1 0x4 DUP3 ADD MSTORE PUSH1 0x26 PUSH1 0x24 DUP3 ADD MSTORE PUSH32 0x4F776E61626C653A206E6577206F776E657220697320746865207A65726F2061 PUSH1 0x44 DUP3 ADD MSTORE PUSH6 0x646472657373 PUSH1 0xD0 SHL PUSH1 0x64 DUP3 ADD MSTORE PUSH1 0x84 ADD PUSH2 0x77D JUMP JUMPDEST PUSH2 0x9F0 DUP2 PUSH2 0x2E18 JUMP JUMPDEST PUSH1 0x60 PUSH2 0xD98 DUP4 PUSH1 0x40 MLOAD DUP1 PUSH1 0x40 ADD PUSH1 0x40 MSTORE DUP1 PUSH1 0x6 DUP2 MSTORE PUSH1 0x20 ADD PUSH6 0x415454495245 PUSH1 0xD0 SHL DUP2 MSTORE POP DUP5 PUSH2 0x2B53 JUMP JUMPDEST PUSH1 0x0 PUSH1 0x1 PUSH1 0x1 PUSH1 0xE0 SHL SUB NOT DUP3 AND PUSH4 0x80AC58CD PUSH1 0xE0 SHL EQ DUP1 PUSH2 0x26D7 JUMPI POP PUSH1 0x1 PUSH1 0x1 PUSH1 0xE0 SHL SUB NOT DUP3 AND PUSH4 0x5B5E139F PUSH1 0xE0 SHL EQ JUMPDEST DUP1 PUSH2 0x670 JUMPI POP PUSH4 0x1FFC9A7 PUSH1 0xE0 SHL PUSH1 0x1 PUSH1 0x1 PUSH1 0xE0 SHL SUB NOT DUP4 AND EQ PUSH2 0x670 JUMP JUMPDEST PUSH1 0x0 DUP2 DUP2 MSTORE PUSH1 0x4 PUSH1 0x20 MSTORE PUSH1 0x40 SWAP1 KECCAK256 DUP1 SLOAD PUSH1 0x1 PUSH1 0x1 PUSH1 0xA0 SHL SUB NOT AND PUSH1 0x1 PUSH1 0x1 PUSH1 0xA0 SHL SUB DUP5 AND SWAP1 DUP2 OR SWAP1 SWAP2 SSTORE DUP2 SWAP1 PUSH2 0x272B DUP3 PUSH2 0xCF6 JUMP JUMPDEST PUSH1 0x1 PUSH1 0x1 PUSH1 0xA0 SHL SUB AND PUSH32 0x8C5BE1E5EBEC7D5BD14F71427D1E84F3DD0314C0F7B2291E5B200AC8C7C3B925 PUSH1 0x40 MLOAD PUSH1 0x40 MLOAD DUP1 SWAP2 SUB SWAP1 LOG4 POP POP JUMP JUMPDEST PUSH1 0x0 DUP2 DUP2 MSTORE PUSH1 0x2 PUSH1 0x20 MSTORE PUSH1 0x40 DUP2 KECCAK256 SLOAD PUSH1 0x1 PUSH1 0x1 PUSH1 0xA0 SHL SUB AND PUSH2 0x27DD JUMPI PUSH1 0x40 MLOAD PUSH3 0x461BCD PUSH1 0xE5 SHL DUP2 MSTORE PUSH1 0x20 PUSH1 0x4 DUP3 ADD MSTORE PUSH1 0x2C PUSH1 0x24 DUP3 ADD MSTORE PUSH32 0x4552433732313A206F70657261746F7220717565727920666F72206E6F6E6578 PUSH1 0x44 DUP3 ADD MSTORE PUSH12 0x34B9BA32B73A103A37B5B2B7 PUSH1 0xA1 SHL PUSH1 0x64 DUP3 ADD MSTORE PUSH1 0x84 ADD PUSH2 0x77D JUMP JUMPDEST PUSH1 0x0 PUSH2 0x27E8 DUP4 PUSH2 0xCF6 JUMP JUMPDEST SWAP1 POP DUP1 PUSH1 0x1 PUSH1 0x1 PUSH1 0xA0 SHL SUB AND DUP5 PUSH1 0x1 PUSH1 0x1 PUSH1 0xA0 SHL SUB AND EQ DUP1 PUSH2 0x2823 JUMPI POP DUP4 PUSH1 0x1 PUSH1 0x1 PUSH1 0xA0 SHL SUB AND PUSH2 0x2818 DUP5 PUSH2 0x708 JUMP JUMPDEST PUSH1 0x1 PUSH1 0x1 PUSH1 0xA0 SHL SUB AND EQ JUMPDEST DUP1 PUSH2 0x2853 JUMPI POP PUSH1 0x1 PUSH1 0x1 PUSH1 0xA0 SHL SUB DUP1 DUP3 AND PUSH1 0x0 SWAP1 DUP2 MSTORE PUSH1 0x5 PUSH1 0x20 SWAP1 DUP2 MSTORE PUSH1 0x40 DUP1 DUP4 KECCAK256 SWAP4 DUP9 AND DUP4 MSTORE SWAP3 SWAP1 MSTORE KECCAK256 SLOAD PUSH1 0xFF AND JUMPDEST SWAP5 SWAP4 POP POP POP POP JUMP JUMPDEST DUP3 PUSH1 0x1 PUSH1 0x1 PUSH1 0xA0 SHL SUB AND PUSH2 0x286E DUP3 PUSH2 0xCF6 JUMP JUMPDEST PUSH1 0x1 PUSH1 0x1 PUSH1 0xA0 SHL SUB AND EQ PUSH2 0x28D6 JUMPI PUSH1 0x40 MLOAD PUSH3 0x461BCD PUSH1 0xE5 SHL DUP2 MSTORE PUSH1 0x20 PUSH1 0x4 DUP3 ADD MSTORE PUSH1 0x29 PUSH1 0x24 DUP3 ADD MSTORE PUSH32 0x4552433732313A207472616E73666572206F6620746F6B656E20746861742069 PUSH1 0x44 DUP3 ADD MSTORE PUSH9 0x39903737BA1037BBB7 PUSH1 0xB9 SHL PUSH1 0x64 DUP3 ADD MSTORE PUSH1 0x84 ADD PUSH2 0x77D JUMP JUMPDEST PUSH1 0x1 PUSH1 0x1 PUSH1 0xA0 SHL SUB DUP3 AND PUSH2 0x2938 JUMPI PUSH1 0x40 MLOAD PUSH3 0x461BCD PUSH1 0xE5 SHL DUP2 MSTORE PUSH1 0x20 PUSH1 0x4 DUP3 ADD MSTORE PUSH1 0x24 DUP1 DUP3 ADD MSTORE PUSH32 0x4552433732313A207472616E7366657220746F20746865207A65726F20616464 PUSH1 0x44 DUP3 ADD MSTORE PUSH4 0x72657373 PUSH1 0xE0 SHL PUSH1 0x64 DUP3 ADD MSTORE PUSH1 0x84 ADD PUSH2 0x77D JUMP JUMPDEST PUSH2 0x2943 DUP4 DUP4 DUP4 PUSH2 0x3003 JUMP JUMPDEST PUSH2 0x294E PUSH1 0x0 DUP3 PUSH2 0x26F6 JUMP JUMPDEST PUSH1 0x1 PUSH1 0x1 PUSH1 0xA0 SHL SUB DUP4 AND PUSH1 0x0 SWAP1 DUP2 MSTORE PUSH1 0x3 PUSH1 0x20 MSTORE PUSH1 0x40 DUP2 KECCAK256 DUP1 SLOAD PUSH1 0x1 SWAP3 SWAP1 PUSH2 0x2977 SWAP1 DUP5 SWAP1 PUSH2 0x4253 JUMP JUMPDEST SWAP1 SWAP2 SSTORE POP POP PUSH1 0x1 PUSH1 0x1 PUSH1 0xA0 SHL SUB DUP3 AND PUSH1 0x0 SWAP1 DUP2 MSTORE PUSH1 0x3 PUSH1 0x20 MSTORE PUSH1 0x40 DUP2 KECCAK256 DUP1 SLOAD PUSH1 0x1 SWAP3 SWAP1 PUSH2 0x29A5 SWAP1 DUP5 SWAP1 PUSH2 0x4208 JUMP JUMPDEST SWAP1 SWAP2 SSTORE POP POP PUSH1 0x0 DUP2 DUP2 MSTORE PUSH1 0x2 PUSH1 0x20 MSTORE PUSH1 0x40 DUP1 DUP3 KECCAK256 DUP1 SLOAD PUSH1 0x1 PUSH1 0x1 PUSH1 0xA0 SHL SUB NOT AND PUSH1 0x1 PUSH1 0x1 PUSH1 0xA0 SHL SUB DUP7 DUP2 AND SWAP2 DUP3 OR SWAP1 SWAP3 SSTORE SWAP2 MLOAD DUP5 SWAP4 SWAP2 DUP8 AND SWAP2 PUSH32 0xDDF252AD1BE2C89B69C2B068FC378DAA952BA7F163C4A11628F55A4DF523B3EF SWAP2 LOG4 POP POP POP JUMP JUMPDEST PUSH1 0x60 DUP2 PUSH2 0x2A2A JUMPI POP POP PUSH1 0x40 DUP1 MLOAD DUP1 DUP3 ADD SWAP1 SWAP2 MSTORE PUSH1 0x1 DUP2 MSTORE PUSH1 0x3 PUSH1 0xFC SHL PUSH1 0x20 DUP3 ADD MSTORE SWAP1 JUMP JUMPDEST DUP2 PUSH1 0x0 JUMPDEST DUP2 ISZERO PUSH2 0x2A54 JUMPI DUP1 PUSH2 0x2A3E DUP2 PUSH2 0x42D1 JUMP JUMPDEST SWAP2 POP PUSH2 0x2A4D SWAP1 POP PUSH1 0xA DUP4 PUSH2 0x4220 JUMP JUMPDEST SWAP2 POP PUSH2 0x2A2E JUMP JUMPDEST PUSH1 0x0 DUP2 PUSH8 0xFFFFFFFFFFFFFFFF DUP2 GT ISZERO PUSH2 0x2A6F JUMPI PUSH2 0x2A6F PUSH2 0x4358 JUMP JUMPDEST PUSH1 0x40 MLOAD SWAP1 DUP1 DUP3 MSTORE DUP1 PUSH1 0x1F ADD PUSH1 0x1F NOT AND PUSH1 0x20 ADD DUP3 ADD PUSH1 0x40 MSTORE DUP1 ISZERO PUSH2 0x2A99 JUMPI PUSH1 0x20 DUP3 ADD DUP2 DUP1 CALLDATASIZE DUP4 CALLDATACOPY ADD SWAP1 POP JUMPDEST POP SWAP1 POP JUMPDEST DUP5 ISZERO PUSH2 0x2853 JUMPI PUSH2 0x2AAE PUSH1 0x1 DUP4 PUSH2 0x4253 JUMP JUMPDEST SWAP2 POP PUSH2 0x2ABB PUSH1 0xA DUP7 PUSH2 0x42EC JUMP JUMPDEST PUSH2 0x2AC6 SWAP1 PUSH1 0x30 PUSH2 0x4208 JUMP JUMPDEST PUSH1 0xF8 SHL DUP2 DUP4 DUP2 MLOAD DUP2 LT PUSH2 0x2ADB JUMPI PUSH2 0x2ADB PUSH2 0x4342 JUMP JUMPDEST PUSH1 0x20 ADD ADD SWAP1 PUSH1 0x1 PUSH1 0x1 PUSH1 0xF8 SHL SUB NOT AND SWAP1 DUP2 PUSH1 0x0 BYTE SWAP1 MSTORE8 POP PUSH2 0x2AFD PUSH1 0xA DUP7 PUSH2 0x4220 JUMP JUMPDEST SWAP5 POP PUSH2 0x2A9D JUMP JUMPDEST PUSH1 0x0 DUP2 PUSH1 0x40 MLOAD PUSH1 0x20 ADD PUSH2 0x2B17 SWAP2 SWAP1 PUSH2 0x3AC6 JUMP JUMPDEST PUSH1 0x40 DUP1 MLOAD PUSH1 0x1F NOT DUP2 DUP5 SUB ADD DUP2 MSTORE SWAP2 SWAP1 MSTORE DUP1 MLOAD PUSH1 0x20 SWAP1 SWAP2 ADD KECCAK256 SWAP3 SWAP2 POP POP JUMP JUMPDEST PUSH2 0x2B4F DUP3 DUP3 PUSH1 0x40 MLOAD DUP1 PUSH1 0x20 ADD PUSH1 0x40 MSTORE DUP1 PUSH1 0x0 DUP2 MSTORE POP PUSH2 0x30BB JUMP JUMPDEST POP POP JUMP JUMPDEST PUSH1 0x60 PUSH1 0x0 PUSH2 0x2B75 DUP5 PUSH2 0x2B64 DUP8 PUSH2 0x2A06 JUMP JUMPDEST PUSH1 0x40 MLOAD PUSH1 0x20 ADD PUSH2 0xAB0 SWAP3 SWAP2 SWAP1 PUSH2 0x3AE2 JUMP JUMPDEST SWAP1 POP PUSH1 0x0 DUP4 DUP5 MLOAD DUP4 PUSH2 0x2B87 SWAP2 SWAP1 PUSH2 0x42EC JUMP JUMPDEST DUP2 MLOAD DUP2 LT PUSH2 0x2B97 JUMPI PUSH2 0x2B97 PUSH2 0x4342 JUMP JUMPDEST PUSH1 0x20 MUL PUSH1 0x20 ADD ADD MLOAD SWAP1 POP PUSH1 0x0 PUSH1 0x15 DUP4 PUSH2 0x2BB0 SWAP2 SWAP1 PUSH2 0x42EC JUMP JUMPDEST SWAP1 POP PUSH1 0xE DUP2 GT ISZERO PUSH2 0x2C09 JUMPI PUSH1 0x14 DUP1 SLOAD DUP4 SWAP2 SWAP1 PUSH2 0x2BCC SWAP1 DUP7 PUSH2 0x42EC JUMP JUMPDEST DUP2 SLOAD DUP2 LT PUSH2 0x2BDC JUMPI PUSH2 0x2BDC PUSH2 0x4342 JUMP JUMPDEST SWAP1 PUSH1 0x0 MSTORE PUSH1 0x20 PUSH1 0x0 KECCAK256 ADD PUSH1 0x40 MLOAD PUSH1 0x20 ADD PUSH2 0x2BF7 SWAP3 SWAP2 SWAP1 PUSH2 0x3C48 JUMP JUMPDEST PUSH1 0x40 MLOAD PUSH1 0x20 DUP2 DUP4 SUB SUB DUP2 MSTORE SWAP1 PUSH1 0x40 MSTORE SWAP2 POP JUMPDEST PUSH1 0x13 DUP2 LT PUSH2 0x2E0E JUMPI PUSH2 0x2C19 PUSH2 0x3636 JUMP JUMPDEST PUSH1 0x15 DUP1 SLOAD PUSH2 0x2C27 SWAP1 DUP7 PUSH2 0x42EC JUMP JUMPDEST DUP2 SLOAD DUP2 LT PUSH2 0x2C37 JUMPI PUSH2 0x2C37 PUSH2 0x4342 JUMP JUMPDEST SWAP1 PUSH1 0x0 MSTORE PUSH1 0x20 PUSH1 0x0 KECCAK256 ADD DUP1 SLOAD PUSH2 0x2C4C SWAP1 PUSH2 0x4296 JUMP JUMPDEST DUP1 PUSH1 0x1F ADD PUSH1 0x20 DUP1 SWAP2 DIV MUL PUSH1 0x20 ADD PUSH1 0x40 MLOAD SWAP1 DUP2 ADD PUSH1 0x40 MSTORE DUP1 SWAP3 SWAP2 SWAP1 DUP2 DUP2 MSTORE PUSH1 0x20 ADD DUP3 DUP1 SLOAD PUSH2 0x2C78 SWAP1 PUSH2 0x4296 JUMP JUMPDEST DUP1 ISZERO PUSH2 0x2CC5 JUMPI DUP1 PUSH1 0x1F LT PUSH2 0x2C9A JUMPI PUSH2 0x100 DUP1 DUP4 SLOAD DIV MUL DUP4 MSTORE SWAP2 PUSH1 0x20 ADD SWAP2 PUSH2 0x2CC5 JUMP JUMPDEST DUP3 ADD SWAP2 SWAP1 PUSH1 0x0 MSTORE PUSH1 0x20 PUSH1 0x0 KECCAK256 SWAP1 JUMPDEST DUP2 SLOAD DUP2 MSTORE SWAP1 PUSH1 0x1 ADD SWAP1 PUSH1 0x20 ADD DUP1 DUP4 GT PUSH2 0x2CA8 JUMPI DUP3 SWAP1 SUB PUSH1 0x1F AND DUP3 ADD SWAP2 JUMPDEST POP POP POP POP POP DUP2 PUSH1 0x0 PUSH1 0x2 DUP2 LT PUSH2 0x2CDD JUMPI PUSH2 0x2CDD PUSH2 0x4342 JUMP JUMPDEST PUSH1 0x20 MUL ADD MSTORE PUSH1 0x16 DUP1 SLOAD PUSH2 0x2CF0 SWAP1 DUP7 PUSH2 0x42EC JUMP JUMPDEST DUP2 SLOAD DUP2 LT PUSH2 0x2D00 JUMPI PUSH2 0x2D00 PUSH2 0x4342 JUMP JUMPDEST SWAP1 PUSH1 0x0 MSTORE PUSH1 0x20 PUSH1 0x0 KECCAK256 ADD DUP1 SLOAD PUSH2 0x2D15 SWAP1 PUSH2 0x4296 JUMP JUMPDEST DUP1 PUSH1 0x1F ADD PUSH1 0x20 DUP1 SWAP2 DIV MUL PUSH1 0x20 ADD PUSH1 0x40 MLOAD SWAP1 DUP2 ADD PUSH1 0x40 MSTORE DUP1 SWAP3 SWAP2 SWAP1 DUP2 DUP2 MSTORE PUSH1 0x20 ADD DUP3 DUP1 SLOAD PUSH2 0x2D41 SWAP1 PUSH2 0x4296 JUMP JUMPDEST DUP1 ISZERO PUSH2 0x2D8E JUMPI DUP1 PUSH1 0x1F LT PUSH2 0x2D63 JUMPI PUSH2 0x100 DUP1 DUP4 SLOAD DIV MUL DUP4 MSTORE SWAP2 PUSH1 0x20 ADD SWAP2 PUSH2 0x2D8E JUMP JUMPDEST DUP3 ADD SWAP2 SWAP1 PUSH1 0x0 MSTORE PUSH1 0x20 PUSH1 0x0 KECCAK256 SWAP1 JUMPDEST DUP2 SLOAD DUP2 MSTORE SWAP1 PUSH1 0x1 ADD SWAP1 PUSH1 0x20 ADD DUP1 DUP4 GT PUSH2 0x2D71 JUMPI DUP3 SWAP1 SUB PUSH1 0x1F AND DUP3 ADD SWAP2 JUMPDEST POP POP POP POP POP DUP2 PUSH1 0x1 PUSH1 0x2 DUP2 LT PUSH2 0x2DA6 JUMPI PUSH2 0x2DA6 PUSH2 0x4342 JUMP JUMPDEST PUSH1 0x20 MUL ADD MSTORE PUSH1 0x13 DUP3 EQ ISZERO PUSH2 0x2DE2 JUMPI DUP1 MLOAD PUSH1 0x20 DUP1 DUP4 ADD MLOAD PUSH1 0x40 MLOAD PUSH2 0x2DCC SWAP4 SWAP3 DUP8 SWAP2 ADD PUSH2 0x3D33 JUMP JUMPDEST PUSH1 0x40 MLOAD PUSH1 0x20 DUP2 DUP4 SUB SUB DUP2 MSTORE SWAP1 PUSH1 0x40 MSTORE SWAP3 POP PUSH2 0x2E0C JUMP JUMPDEST DUP1 MLOAD PUSH1 0x20 DUP1 DUP4 ADD MLOAD PUSH1 0x40 MLOAD PUSH2 0x2DFA SWAP4 SWAP3 DUP8 SWAP2 ADD PUSH2 0x3DA1 JUMP JUMPDEST PUSH1 0x40 MLOAD PUSH1 0x20 DUP2 DUP4 SUB SUB DUP2 MSTORE SWAP1 PUSH1 0x40 MSTORE SWAP3 POP JUMPDEST POP JUMPDEST POP SWAP6 SWAP5 POP POP POP POP POP JUMP JUMPDEST PUSH1 0xB DUP1 SLOAD PUSH1 0x1 PUSH1 0x1 PUSH1 0xA0 SHL SUB DUP4 DUP2 AND PUSH1 0x1 PUSH1 0x1 PUSH1 0xA0 SHL SUB NOT DUP4 AND DUP2 OR SWAP1 SWAP4 SSTORE PUSH1 0x40 MLOAD SWAP2 AND SWAP2 SWAP1 DUP3 SWAP1 PUSH32 0x8BE0079C531659141344CD1FD0A4F28419497F9722A3DAAFE3B4186F6B6457E0 SWAP1 PUSH1 0x0 SWAP1 LOG3 POP POP JUMP JUMPDEST PUSH2 0x2E75 DUP5 DUP5 DUP5 PUSH2 0x285B JUMP JUMPDEST PUSH2 0x2E81 DUP5 DUP5 DUP5 DUP5 PUSH2 0x30EE JUMP JUMPDEST PUSH2 0x15BA JUMPI PUSH1 0x40 MLOAD PUSH3 0x461BCD PUSH1 0xE5 SHL DUP2 MSTORE PUSH1 0x4 ADD PUSH2 0x77D SWAP1 PUSH2 0x40FF JUMP JUMPDEST DUP1 MLOAD PUSH1 0x60 SWAP1 DUP1 PUSH2 0x2EBD JUMPI POP POP PUSH1 0x40 DUP1 MLOAD PUSH1 0x20 DUP2 ADD SWAP1 SWAP2 MSTORE PUSH1 0x0 DUP2 MSTORE SWAP2 SWAP1 POP JUMP JUMPDEST PUSH1 0x0 PUSH1 0x3 PUSH2 0x2ECC DUP4 PUSH1 0x2 PUSH2 0x4208 JUMP JUMPDEST PUSH2 0x2ED6 SWAP2 SWAP1 PUSH2 0x4220 JUMP JUMPDEST PUSH2 0x2EE1 SWAP1 PUSH1 0x4 PUSH2 0x4234 JUMP JUMPDEST SWAP1 POP PUSH1 0x0 PUSH2 0x2EF0 DUP3 PUSH1 0x20 PUSH2 0x4208 JUMP JUMPDEST PUSH8 0xFFFFFFFFFFFFFFFF DUP2 GT ISZERO PUSH2 0x2F08 JUMPI PUSH2 0x2F08 PUSH2 0x4358 JUMP JUMPDEST PUSH1 0x40 MLOAD SWAP1 DUP1 DUP3 MSTORE DUP1 PUSH1 0x1F ADD PUSH1 0x1F NOT AND PUSH1 0x20 ADD DUP3 ADD PUSH1 0x40 MSTORE DUP1 ISZERO PUSH2 0x2F32 JUMPI PUSH1 0x20 DUP3 ADD DUP2 DUP1 CALLDATASIZE DUP4 CALLDATACOPY ADD SWAP1 POP JUMPDEST POP SWAP1 POP PUSH1 0x0 PUSH1 0x40 MLOAD DUP1 PUSH1 0x60 ADD PUSH1 0x40 MSTORE DUP1 PUSH1 0x40 DUP2 MSTORE PUSH1 0x20 ADD PUSH2 0x4419 PUSH1 0x40 SWAP2 CODECOPY SWAP1 POP PUSH1 0x1 DUP2 ADD PUSH1 0x20 DUP4 ADD PUSH1 0x0 JUMPDEST DUP7 DUP2 LT ISZERO PUSH2 0x2FBE JUMPI PUSH1 0x3 DUP2 DUP11 ADD DUP2 ADD MLOAD PUSH1 0x3F PUSH1 0x12 DUP3 SWAP1 SHR DUP2 AND DUP7 ADD MLOAD PUSH1 0xC DUP4 SWAP1 SHR DUP3 AND DUP8 ADD MLOAD PUSH1 0x6 DUP5 SWAP1 SHR DUP4 AND DUP9 ADD MLOAD SWAP3 SWAP1 SWAP4 AND DUP8 ADD MLOAD PUSH1 0x8 SWAP2 DUP3 SHL PUSH1 0xFF SWAP5 DUP6 AND ADD DUP3 SHL SWAP3 DUP5 AND SWAP3 SWAP1 SWAP3 ADD SWAP1 SHL SWAP2 AND ADD PUSH1 0xE0 SHL DUP4 MSTORE PUSH1 0x4 SWAP1 SWAP3 ADD SWAP2 ADD PUSH2 0x2F5D JUMP JUMPDEST POP PUSH1 0x3 DUP7 MOD PUSH1 0x1 DUP2 EQ PUSH2 0x2FD8 JUMPI PUSH1 0x2 DUP2 EQ PUSH2 0x2FE9 JUMPI PUSH2 0x2FF5 JUMP JUMPDEST PUSH2 0x3D3D PUSH1 0xF0 SHL PUSH1 0x1 NOT DUP4 ADD MSTORE PUSH2 0x2FF5 JUMP JUMPDEST PUSH1 0x3D PUSH1 0xF8 SHL PUSH1 0x0 NOT DUP4 ADD MSTORE JUMPDEST POP POP POP SWAP2 DUP2 MSTORE SWAP5 SWAP4 POP POP POP POP JUMP JUMPDEST PUSH1 0x1 PUSH1 0x1 PUSH1 0xA0 SHL SUB DUP4 AND PUSH2 0x305E JUMPI PUSH2 0x3059 DUP2 PUSH1 0x8 DUP1 SLOAD PUSH1 0x0 DUP4 DUP2 MSTORE PUSH1 0x9 PUSH1 0x20 MSTORE PUSH1 0x40 DUP2 KECCAK256 DUP3 SWAP1 SSTORE PUSH1 0x1 DUP3 ADD DUP4 SSTORE SWAP2 SWAP1 SWAP2 MSTORE PUSH32 0xF3F7A9FE364FAAB93B216DA50A3214154F22A0A2B415B23A84C8169E8B636EE3 ADD SSTORE JUMP JUMPDEST PUSH2 0x3081 JUMP JUMPDEST DUP2 PUSH1 0x1 PUSH1 0x1 PUSH1 0xA0 SHL SUB AND DUP4 PUSH1 0x1 PUSH1 0x1 PUSH1 0xA0 SHL SUB AND EQ PUSH2 0x3081 JUMPI PUSH2 0x3081 DUP4 DUP3 PUSH2 0x31FB JUMP JUMPDEST PUSH1 0x1 PUSH1 0x1 PUSH1 0xA0 SHL SUB DUP3 AND PUSH2 0x3098 JUMPI PUSH2 0x8B3 DUP2 PUSH2 0x3298 JUMP JUMPDEST DUP3 PUSH1 0x1 PUSH1 0x1 PUSH1 0xA0 SHL SUB AND DUP3 PUSH1 0x1 PUSH1 0x1 PUSH1 0xA0 SHL SUB AND EQ PUSH2 0x8B3 JUMPI PUSH2 0x8B3 DUP3 DUP3 PUSH2 0x3347 JUMP JUMPDEST PUSH2 0x30C5 DUP4 DUP4 PUSH2 0x338B JUMP JUMPDEST PUSH2 0x30D2 PUSH1 0x0 DUP5 DUP5 DUP5 PUSH2 0x30EE JUMP JUMPDEST PUSH2 0x8B3 JUMPI PUSH1 0x40 MLOAD PUSH3 0x461BCD PUSH1 0xE5 SHL DUP2 MSTORE PUSH1 0x4 ADD PUSH2 0x77D SWAP1 PUSH2 0x40FF JUMP JUMPDEST PUSH1 0x0 PUSH1 0x1 PUSH1 0x1 PUSH1 0xA0 SHL SUB DUP5 AND EXTCODESIZE ISZERO PUSH2 0x31F0 JUMPI PUSH1 0x40 MLOAD PUSH4 0xA85BD01 PUSH1 0xE1 SHL DUP2 MSTORE PUSH1 0x1 PUSH1 0x1 PUSH1 0xA0 SHL SUB DUP6 AND SWAP1 PUSH4 0x150B7A02 SWAP1 PUSH2 0x3132 SWAP1 CALLER SWAP1 DUP10 SWAP1 DUP9 SWAP1 DUP9 SWAP1 PUSH1 0x4 ADD PUSH2 0x3FFA JUMP JUMPDEST PUSH1 0x20 PUSH1 0x40 MLOAD DUP1 DUP4 SUB DUP2 PUSH1 0x0 DUP8 DUP1 EXTCODESIZE ISZERO DUP1 ISZERO PUSH2 0x314C JUMPI PUSH1 0x0 DUP1 REVERT JUMPDEST POP GAS CALL SWAP3 POP POP POP DUP1 ISZERO PUSH2 0x317C JUMPI POP PUSH1 0x40 DUP1 MLOAD PUSH1 0x1F RETURNDATASIZE SWAP1 DUP2 ADD PUSH1 0x1F NOT AND DUP3 ADD SWAP1 SWAP3 MSTORE PUSH2 0x3179 SWAP2 DUP2 ADD SWAP1 PUSH2 0x397C JUMP JUMPDEST PUSH1 0x1 JUMPDEST PUSH2 0x31D6 JUMPI RETURNDATASIZE DUP1 DUP1 ISZERO PUSH2 0x31AA JUMPI PUSH1 0x40 MLOAD SWAP2 POP PUSH1 0x1F NOT PUSH1 0x3F RETURNDATASIZE ADD AND DUP3 ADD PUSH1 0x40 MSTORE RETURNDATASIZE DUP3 MSTORE RETURNDATASIZE PUSH1 0x0 PUSH1 0x20 DUP5 ADD RETURNDATACOPY PUSH2 0x31AF JUMP JUMPDEST PUSH1 0x60 SWAP2 POP JUMPDEST POP DUP1 MLOAD PUSH2 0x31CE JUMPI PUSH1 0x40 MLOAD PUSH3 0x461BCD PUSH1 0xE5 SHL DUP2 MSTORE PUSH1 0x4 ADD PUSH2 0x77D SWAP1 PUSH2 0x40FF JUMP JUMPDEST DUP1 MLOAD DUP2 PUSH1 0x20 ADD REVERT JUMPDEST PUSH1 0x1 PUSH1 0x1 PUSH1 0xE0 SHL SUB NOT AND PUSH4 0xA85BD01 PUSH1 0xE1 SHL EQ SWAP1 POP PUSH2 0x2853 JUMP JUMPDEST POP PUSH1 0x1 SWAP5 SWAP4 POP POP POP POP JUMP JUMPDEST PUSH1 0x0 PUSH1 0x1 PUSH2 0x3208 DUP5 PUSH2 0xD9F JUMP JUMPDEST PUSH2 0x3212 SWAP2 SWAP1 PUSH2 0x4253 JUMP JUMPDEST PUSH1 0x0 DUP4 DUP2 MSTORE PUSH1 0x7 PUSH1 0x20 MSTORE PUSH1 0x40 SWAP1 KECCAK256 SLOAD SWAP1 SWAP2 POP DUP1 DUP3 EQ PUSH2 0x3265 JUMPI PUSH1 0x1 PUSH1 0x1 PUSH1 0xA0 SHL SUB DUP5 AND PUSH1 0x0 SWAP1 DUP2 MSTORE PUSH1 0x6 PUSH1 0x20 SWAP1 DUP2 MSTORE PUSH1 0x40 DUP1 DUP4 KECCAK256 DUP6 DUP5 MSTORE DUP3 MSTORE DUP1 DUP4 KECCAK256 SLOAD DUP5 DUP5 MSTORE DUP2 DUP5 KECCAK256 DUP2 SWAP1 SSTORE DUP4 MSTORE PUSH1 0x7 SWAP1 SWAP2 MSTORE SWAP1 KECCAK256 DUP2 SWAP1 SSTORE JUMPDEST POP PUSH1 0x0 SWAP2 DUP3 MSTORE PUSH1 0x7 PUSH1 0x20 SWAP1 DUP2 MSTORE PUSH1 0x40 DUP1 DUP5 KECCAK256 DUP5 SWAP1 SSTORE PUSH1 0x1 PUSH1 0x1 PUSH1 0xA0 SHL SUB SWAP1 SWAP5 AND DUP4 MSTORE PUSH1 0x6 DUP2 MSTORE DUP4 DUP4 KECCAK256 SWAP2 DUP4 MSTORE MSTORE SWAP1 DUP2 KECCAK256 SSTORE JUMP JUMPDEST PUSH1 0x8 SLOAD PUSH1 0x0 SWAP1 PUSH2 0x32AA SWAP1 PUSH1 0x1 SWAP1 PUSH2 0x4253 JUMP JUMPDEST PUSH1 0x0 DUP4 DUP2 MSTORE PUSH1 0x9 PUSH1 0x20 MSTORE PUSH1 0x40 DUP2 KECCAK256 SLOAD PUSH1 0x8 DUP1 SLOAD SWAP4 SWAP5 POP SWAP1 SWAP3 DUP5 SWAP1 DUP2 LT PUSH2 0x32D2 JUMPI PUSH2 0x32D2 PUSH2 0x4342 JUMP JUMPDEST SWAP1 PUSH1 0x0 MSTORE PUSH1 0x20 PUSH1 0x0 KECCAK256 ADD SLOAD SWAP1 POP DUP1 PUSH1 0x8 DUP4 DUP2 SLOAD DUP2 LT PUSH2 0x32F3 JUMPI PUSH2 0x32F3 PUSH2 0x4342 JUMP JUMPDEST PUSH1 0x0 SWAP2 DUP3 MSTORE PUSH1 0x20 DUP1 DUP4 KECCAK256 SWAP1 SWAP2 ADD SWAP3 SWAP1 SWAP3 SSTORE DUP3 DUP2 MSTORE PUSH1 0x9 SWAP1 SWAP2 MSTORE PUSH1 0x40 DUP1 DUP3 KECCAK256 DUP5 SWAP1 SSTORE DUP6 DUP3 MSTORE DUP2 KECCAK256 SSTORE PUSH1 0x8 DUP1 SLOAD DUP1 PUSH2 0x332B JUMPI PUSH2 0x332B PUSH2 0x432C JUMP JUMPDEST PUSH1 0x1 SWAP1 SUB DUP2 DUP2 SWAP1 PUSH1 0x0 MSTORE PUSH1 0x20 PUSH1 0x0 KECCAK256 ADD PUSH1 0x0 SWAP1 SSTORE SWAP1 SSTORE POP POP POP POP JUMP JUMPDEST PUSH1 0x0 PUSH2 0x3352 DUP4 PUSH2 0xD9F JUMP JUMPDEST PUSH1 0x1 PUSH1 0x1 PUSH1 0xA0 SHL SUB SWAP1 SWAP4 AND PUSH1 0x0 SWAP1 DUP2 MSTORE PUSH1 0x6 PUSH1 0x20 SWAP1 DUP2 MSTORE PUSH1 0x40 DUP1 DUP4 KECCAK256 DUP7 DUP5 MSTORE DUP3 MSTORE DUP1 DUP4 KECCAK256 DUP6 SWAP1 SSTORE SWAP4 DUP3 MSTORE PUSH1 0x7 SWAP1 MSTORE SWAP2 SWAP1 SWAP2 KECCAK256 SWAP2 SWAP1 SWAP2 SSTORE POP JUMP JUMPDEST PUSH1 0x1 PUSH1 0x1 PUSH1 0xA0 SHL SUB DUP3 AND PUSH2 0x33E1 JUMPI PUSH1 0x40 MLOAD PUSH3 0x461BCD PUSH1 0xE5 SHL DUP2 MSTORE PUSH1 0x20 PUSH1 0x4 DUP3 ADD DUP2 SWAP1 MSTORE PUSH1 0x24 DUP3 ADD MSTORE PUSH32 0x4552433732313A206D696E7420746F20746865207A65726F2061646472657373 PUSH1 0x44 DUP3 ADD MSTORE PUSH1 0x64 ADD PUSH2 0x77D JUMP JUMPDEST PUSH1 0x0 DUP2 DUP2 MSTORE PUSH1 0x2 PUSH1 0x20 MSTORE PUSH1 0x40 SWAP1 KECCAK256 SLOAD PUSH1 0x1 PUSH1 0x1 PUSH1 0xA0 SHL SUB AND ISZERO PUSH2 0x3446 JUMPI PUSH1 0x40 MLOAD PUSH3 0x461BCD PUSH1 0xE5 SHL DUP2 MSTORE PUSH1 0x20 PUSH1 0x4 DUP3 ADD MSTORE PUSH1 0x1C PUSH1 0x24 DUP3 ADD MSTORE PUSH32 0x4552433732313A20746F6B656E20616C7265616479206D696E74656400000000 PUSH1 0x44 DUP3 ADD MSTORE PUSH1 0x64 ADD PUSH2 0x77D JUMP JUMPDEST PUSH2 0x3452 PUSH1 0x0 DUP4 DUP4 PUSH2 0x3003 JUMP JUMPDEST PUSH1 0x1 PUSH1 0x1 PUSH1 0xA0 SHL SUB DUP3 AND PUSH1 0x0 SWAP1 DUP2 MSTORE PUSH1 0x3 PUSH1 0x20 MSTORE PUSH1 0x40 DUP2 KECCAK256 DUP1 SLOAD PUSH1 0x1 SWAP3 SWAP1 PUSH2 0x347B SWAP1 DUP5 SWAP1 PUSH2 0x4208 JUMP JUMPDEST SWAP1 SWAP2 SSTORE POP POP PUSH1 0x0 DUP2 DUP2 MSTORE PUSH1 0x2 PUSH1 0x20 MSTORE PUSH1 0x40 DUP1 DUP3 KECCAK256 DUP1 SLOAD PUSH1 0x1 PUSH1 0x1 PUSH1 0xA0 SHL SUB NOT AND PUSH1 0x1 PUSH1 0x1 PUSH1 0xA0 SHL SUB DUP7 AND SWAP1 DUP2 OR SWAP1 SWAP2 SSTORE SWAP1 MLOAD DUP4 SWAP3 SWAP1 PUSH32 0xDDF252AD1BE2C89B69C2B068FC378DAA952BA7F163C4A11628F55A4DF523B3EF SWAP1 DUP3 SWAP1 LOG4 POP POP JUMP JUMPDEST PUSH1 0x40 MLOAD DUP1 PUSH1 0xC0 ADD PUSH1 0x40 MSTORE DUP1 PUSH1 0x60 DUP2 MSTORE PUSH1 0x20 ADD PUSH1 0x60 DUP2 MSTORE PUSH1 0x20 ADD PUSH1 0x60 DUP2 MSTORE PUSH1 0x20 ADD PUSH1 0x60 DUP2 MSTORE PUSH1 0x20 ADD PUSH2 0x3524 PUSH1 0x40 MLOAD DUP1 PUSH1 0x60 ADD PUSH1 0x40 MSTORE DUP1 PUSH1 0x60 DUP2 MSTORE PUSH1 0x20 ADD PUSH1 0x60 DUP2 MSTORE PUSH1 0x20 ADD PUSH1 0x60 DUP2 MSTORE POP SWAP1 JUMP JUMPDEST DUP2 MSTORE PUSH1 0x0 PUSH1 0x20 SWAP1 SWAP2 ADD MSTORE SWAP1 JUMP JUMPDEST DUP3 DUP1 SLOAD PUSH2 0x353D SWAP1 PUSH2 0x4296 JUMP JUMPDEST SWAP1 PUSH1 0x0 MSTORE PUSH1 0x20 PUSH1 0x0 KECCAK256 SWAP1 PUSH1 0x1F ADD PUSH1 0x20 SWAP1 DIV DUP2 ADD SWAP3 DUP3 PUSH2 0x355F JUMPI PUSH1 0x0 DUP6 SSTORE PUSH2 0x35A5 JUMP JUMPDEST DUP3 PUSH1 0x1F LT PUSH2 0x3578 JUMPI DUP1 MLOAD PUSH1 0xFF NOT AND DUP4 DUP1 ADD OR DUP6 SSTORE PUSH2 0x35A5 JUMP JUMPDEST DUP3 DUP1 ADD PUSH1 0x1 ADD DUP6 SSTORE DUP3 ISZERO PUSH2 0x35A5 JUMPI SWAP2 DUP3 ADD JUMPDEST DUP3 DUP2 GT ISZERO PUSH2 0x35A5 JUMPI DUP3 MLOAD DUP3 SSTORE SWAP2 PUSH1 0x20 ADD SWAP2 SWAP1 PUSH1 0x1 ADD SWAP1 PUSH2 0x358A JUMP JUMPDEST POP PUSH2 0x35B1 SWAP3 SWAP2 POP PUSH2 0x364F JUMP JUMPDEST POP SWAP1 JUMP JUMPDEST DUP3 DUP1 SLOAD DUP3 DUP3 SSTORE SWAP1 PUSH1 0x0 MSTORE PUSH1 0x20 PUSH1 0x0 KECCAK256 SWAP1 DUP2 ADD SWAP3 DUP3 ISZERO PUSH2 0x3602 JUMPI SWAP2 PUSH1 0x20 MUL DUP3 ADD JUMPDEST DUP3 DUP2 GT ISZERO PUSH2 0x3602 JUMPI DUP3 MLOAD DUP1 MLOAD PUSH2 0x35F2 SWAP2 DUP5 SWAP2 PUSH1 0x20 SWAP1 SWAP2 ADD SWAP1 PUSH2 0x3531 JUMP JUMPDEST POP SWAP2 PUSH1 0x20 ADD SWAP2 SWAP1 PUSH1 0x1 ADD SWAP1 PUSH2 0x35D5 JUMP JUMPDEST POP PUSH2 0x35B1 SWAP3 SWAP2 POP PUSH2 0x3664 JUMP JUMPDEST PUSH1 0x40 MLOAD DUP1 PUSH2 0x1C0 ADD PUSH1 0x40 MSTORE DUP1 PUSH1 0xE SWAP1 JUMPDEST PUSH1 0x60 DUP2 MSTORE PUSH1 0x20 ADD SWAP1 PUSH1 0x1 SWAP1 SUB SWAP1 DUP2 PUSH2 0x361E JUMPI SWAP1 POP POP SWAP1 JUMP JUMPDEST PUSH1 0x40 DUP1 MLOAD DUP1 DUP3 ADD SWAP1 SWAP2 MSTORE PUSH1 0x60 DUP2 MSTORE PUSH1 0x1 PUSH1 0x20 DUP3 ADD PUSH2 0x361E JUMP JUMPDEST JUMPDEST DUP1 DUP3 GT ISZERO PUSH2 0x35B1 JUMPI PUSH1 0x0 DUP2 SSTORE PUSH1 0x1 ADD PUSH2 0x3650 JUMP JUMPDEST DUP1 DUP3 GT ISZERO PUSH2 0x35B1 JUMPI PUSH1 0x0 PUSH2 0x3678 DUP3 DUP3 PUSH2 0x3681 JUMP JUMPDEST POP PUSH1 0x1 ADD PUSH2 0x3664 JUMP JUMPDEST POP DUP1 SLOAD PUSH2 0x368D SWAP1 PUSH2 0x4296 JUMP JUMPDEST PUSH1 0x0 DUP3 SSTORE DUP1 PUSH1 0x1F LT PUSH2 0x369D JUMPI POP POP JUMP JUMPDEST PUSH1 0x1F ADD PUSH1 0x20 SWAP1 DIV SWAP1 PUSH1 0x0 MSTORE PUSH1 0x20 PUSH1 0x0 KECCAK256 SWAP1 DUP2 ADD SWAP1 PUSH2 0x9F0 SWAP2 SWAP1 PUSH2 0x364F JUMP JUMPDEST PUSH1 0x0 PUSH8 0xFFFFFFFFFFFFFFFF DUP4 GT ISZERO PUSH2 0x36D5 JUMPI PUSH2 0x36D5 PUSH2 0x4358 JUMP JUMPDEST PUSH2 0x36E8 PUSH1 0x1F DUP5 ADD PUSH1 0x1F NOT AND PUSH1 0x20 ADD PUSH2 0x41D7 JUMP JUMPDEST SWAP1 POP DUP3 DUP2 MSTORE DUP4 DUP4 DUP4 ADD GT ISZERO PUSH2 0x36FC JUMPI PUSH1 0x0 DUP1 REVERT JUMPDEST DUP3 DUP3 PUSH1 0x20 DUP4 ADD CALLDATACOPY PUSH1 0x0 PUSH1 0x20 DUP5 DUP4 ADD ADD MSTORE SWAP4 SWAP3 POP POP POP JUMP JUMPDEST DUP1 CALLDATALOAD PUSH1 0x1 PUSH1 0x1 PUSH1 0xA0 SHL SUB DUP2 AND DUP2 EQ PUSH2 0x372A JUMPI PUSH1 0x0 DUP1 REVERT JUMPDEST SWAP2 SWAP1 POP JUMP JUMPDEST PUSH1 0x0 DUP3 PUSH1 0x1F DUP4 ADD SLT PUSH2 0x3740 JUMPI PUSH1 0x0 DUP1 REVERT JUMPDEST DUP2 CALLDATALOAD PUSH1 0x20 PUSH8 0xFFFFFFFFFFFFFFFF DUP1 DUP4 GT ISZERO PUSH2 0x375D JUMPI PUSH2 0x375D PUSH2 0x4358 JUMP JUMPDEST DUP3 PUSH1 0x5 SHL PUSH2 0x376C DUP4 DUP3 ADD PUSH2 0x41D7 JUMP JUMPDEST DUP5 DUP2 MSTORE DUP4 DUP2 ADD SWAP1 DUP8 DUP6 ADD DUP4 DUP10 ADD DUP7 ADD DUP11 LT ISZERO PUSH2 0x3787 JUMPI PUSH1 0x0 DUP1 REVERT JUMPDEST PUSH1 0x0 SWAP4 POP DUP4 JUMPDEST DUP8 DUP2 LT ISZERO PUSH2 0x37C4 JUMPI DUP2 CALLDATALOAD DUP7 DUP2 GT ISZERO PUSH2 0x37A3 JUMPI DUP6 DUP7 REVERT JUMPDEST PUSH2 0x37B1 DUP13 DUP10 DUP4 DUP15 ADD ADD PUSH2 0x37D3 JUMP JUMPDEST DUP6 MSTORE POP SWAP3 DUP7 ADD SWAP3 SWAP1 DUP7 ADD SWAP1 PUSH1 0x1 ADD PUSH2 0x378D JUMP JUMPDEST POP SWAP1 SWAP10 SWAP9 POP POP POP POP POP POP POP POP POP JUMP JUMPDEST PUSH1 0x0 DUP3 PUSH1 0x1F DUP4 ADD SLT PUSH2 0x37E4 JUMPI PUSH1 0x0 DUP1 REVERT JUMPDEST PUSH2 0xD98 DUP4 DUP4 CALLDATALOAD PUSH1 0x20 DUP6 ADD PUSH2 0x36BB JUMP JUMPDEST PUSH1 0x0 PUSH1 0x20 DUP3 DUP5 SUB SLT ISZERO PUSH2 0x3805 JUMPI PUSH1 0x0 DUP1 REVERT JUMPDEST PUSH2 0xD98 DUP3 PUSH2 0x3713 JUMP JUMPDEST PUSH1 0x0 DUP1 PUSH1 0x40 DUP4 DUP6 SUB SLT ISZERO PUSH2 0x3821 JUMPI PUSH1 0x0 DUP1 REVERT JUMPDEST PUSH2 0x382A DUP4 PUSH2 0x3713 JUMP JUMPDEST SWAP2 POP PUSH2 0x3838 PUSH1 0x20 DUP5 ADD PUSH2 0x3713 JUMP JUMPDEST SWAP1 POP SWAP3 POP SWAP3 SWAP1 POP JUMP JUMPDEST PUSH1 0x0 DUP1 PUSH1 0x0 PUSH1 0x60 DUP5 DUP7 SUB SLT ISZERO PUSH2 0x3856 JUMPI PUSH1 0x0 DUP1 REVERT JUMPDEST PUSH2 0x385F DUP5 PUSH2 0x3713 JUMP JUMPDEST SWAP3 POP PUSH2 0x386D PUSH1 0x20 DUP6 ADD PUSH2 0x3713 JUMP JUMPDEST SWAP2 POP PUSH1 0x40 DUP5 ADD CALLDATALOAD SWAP1 POP SWAP3 POP SWAP3 POP SWAP3 JUMP JUMPDEST PUSH1 0x0 DUP1 PUSH1 0x0 DUP1 PUSH1 0x80 DUP6 DUP8 SUB SLT ISZERO PUSH2 0x3893 JUMPI PUSH1 0x0 DUP1 REVERT JUMPDEST PUSH2 0x389C DUP6 PUSH2 0x3713 JUMP JUMPDEST SWAP4 POP PUSH2 0x38AA PUSH1 0x20 DUP7 ADD PUSH2 0x3713 JUMP JUMPDEST SWAP3 POP PUSH1 0x40 DUP6 ADD CALLDATALOAD SWAP2 POP PUSH1 0x60 DUP6 ADD CALLDATALOAD PUSH8 0xFFFFFFFFFFFFFFFF DUP2 GT ISZERO PUSH2 0x38CD JUMPI PUSH1 0x0 DUP1 REVERT JUMPDEST DUP6 ADD PUSH1 0x1F DUP2 ADD DUP8 SGT PUSH2 0x38DE JUMPI PUSH1 0x0 DUP1 REVERT JUMPDEST PUSH2 0x38ED DUP8 DUP3 CALLDATALOAD PUSH1 0x20 DUP5 ADD PUSH2 0x36BB JUMP JUMPDEST SWAP2 POP POP SWAP3 SWAP6 SWAP2 SWAP5 POP SWAP3 POP JUMP JUMPDEST PUSH1 0x0 DUP1 PUSH1 0x40 DUP4 DUP6 SUB SLT ISZERO PUSH2 0x390C JUMPI PUSH1 0x0 DUP1 REVERT JUMPDEST PUSH2 0x3915 DUP4 PUSH2 0x3713 JUMP JUMPDEST SWAP2 POP PUSH1 0x20 DUP4 ADD CALLDATALOAD DUP1 ISZERO ISZERO DUP2 EQ PUSH2 0x392A JUMPI PUSH1 0x0 DUP1 REVERT JUMPDEST DUP1 SWAP2 POP POP SWAP3 POP SWAP3 SWAP1 POP JUMP JUMPDEST PUSH1 0x0 DUP1 PUSH1 0x40 DUP4 DUP6 SUB SLT ISZERO PUSH2 0x3948 JUMPI PUSH1 0x0 DUP1 REVERT JUMPDEST PUSH2 0x3951 DUP4 PUSH2 0x3713 JUMP JUMPDEST SWAP5 PUSH1 0x20 SWAP4 SWAP1 SWAP4 ADD CALLDATALOAD SWAP4 POP POP POP JUMP JUMPDEST PUSH1 0x0 PUSH1 0x20 DUP3 DUP5 SUB SLT ISZERO PUSH2 0x3971 JUMPI PUSH1 0x0 DUP1 REVERT JUMPDEST DUP2 CALLDATALOAD PUSH2 0xD98 DUP2 PUSH2 0x436E JUMP JUMPDEST PUSH1 0x0 PUSH1 0x20 DUP3 DUP5 SUB SLT ISZERO PUSH2 0x398E JUMPI PUSH1 0x0 DUP1 REVERT JUMPDEST DUP2 MLOAD PUSH2 0xD98 DUP2 PUSH2 0x436E JUMP JUMPDEST PUSH1 0x0 DUP1 PUSH1 0x0 DUP1 PUSH1 0x80 DUP6 DUP8 SUB SLT ISZERO PUSH2 0x39AF JUMPI PUSH1 0x0 DUP1 REVERT JUMPDEST DUP5 CALLDATALOAD PUSH8 0xFFFFFFFFFFFFFFFF DUP1 DUP3 GT ISZERO PUSH2 0x39C7 JUMPI PUSH1 0x0 DUP1 REVERT JUMPDEST PUSH2 0x39D3 DUP9 DUP4 DUP10 ADD PUSH2 0x37D3 JUMP JUMPDEST SWAP6 POP PUSH1 0x20 DUP8 ADD CALLDATALOAD SWAP2 POP DUP1 DUP3 GT ISZERO PUSH2 0x39E9 JUMPI PUSH1 0x0 DUP1 REVERT JUMPDEST PUSH2 0x39F5 DUP9 DUP4 DUP10 ADD PUSH2 0x372F JUMP JUMPDEST SWAP5 POP PUSH1 0x40 DUP8 ADD CALLDATALOAD SWAP2 POP DUP1 DUP3 GT ISZERO PUSH2 0x3A0B JUMPI PUSH1 0x0 DUP1 REVERT JUMPDEST PUSH2 0x3A17 DUP9 DUP4 DUP10 ADD PUSH2 0x372F JUMP JUMPDEST SWAP4 POP PUSH1 0x60 DUP8 ADD CALLDATALOAD SWAP2 POP DUP1 DUP3 GT ISZERO PUSH2 0x3A2D JUMPI PUSH1 0x0 DUP1 REVERT JUMPDEST POP PUSH2 0x38ED DUP8 DUP3 DUP9 ADD PUSH2 0x372F JUMP JUMPDEST PUSH1 0x0 PUSH1 0x20 DUP3 DUP5 SUB SLT ISZERO PUSH2 0x3A4C JUMPI PUSH1 0x0 DUP1 REVERT JUMPDEST POP CALLDATALOAD SWAP2 SWAP1 POP JUMP JUMPDEST PUSH1 0x0 DUP1 PUSH1 0x40 DUP4 DUP6 SUB SLT ISZERO PUSH2 0x3A66 JUMPI PUSH1 0x0 DUP1 REVERT JUMPDEST DUP3 CALLDATALOAD SWAP2 POP PUSH1 0x20 DUP4 ADD CALLDATALOAD PUSH8 0xFFFFFFFFFFFFFFFF DUP2 GT ISZERO PUSH2 0x3A84 JUMPI PUSH1 0x0 DUP1 REVERT JUMPDEST PUSH2 0x3A90 DUP6 DUP3 DUP7 ADD PUSH2 0x372F JUMP JUMPDEST SWAP2 POP POP SWAP3 POP SWAP3 SWAP1 POP JUMP JUMPDEST PUSH1 0x0 DUP2 MLOAD DUP1 DUP5 MSTORE PUSH2 0x3AB2 DUP2 PUSH1 0x20 DUP7 ADD PUSH1 0x20 DUP7 ADD PUSH2 0x426A JUMP JUMPDEST PUSH1 0x1F ADD PUSH1 0x1F NOT AND SWAP3 SWAP1 SWAP3 ADD PUSH1 0x20 ADD SWAP3 SWAP2 POP POP JUMP JUMPDEST PUSH1 0x0 DUP3 MLOAD PUSH2 0x3AD8 DUP2 DUP5 PUSH1 0x20 DUP8 ADD PUSH2 0x426A JUMP JUMPDEST SWAP2 SWAP1 SWAP2 ADD SWAP3 SWAP2 POP POP JUMP JUMPDEST PUSH1 0x0 DUP4 MLOAD PUSH2 0x3AF4 DUP2 DUP5 PUSH1 0x20 DUP9 ADD PUSH2 0x426A JUMP JUMPDEST DUP4 MLOAD SWAP1 DUP4 ADD SWAP1 PUSH2 0x3B08 DUP2 DUP4 PUSH1 0x20 DUP9 ADD PUSH2 0x426A JUMP JUMPDEST ADD SWAP5 SWAP4 POP POP POP POP JUMP JUMPDEST PUSH1 0x0 DUP9 MLOAD PUSH1 0x20 PUSH2 0x3B24 DUP3 DUP6 DUP4 DUP15 ADD PUSH2 0x426A JUMP JUMPDEST DUP10 MLOAD SWAP2 DUP5 ADD SWAP2 PUSH2 0x3B37 DUP2 DUP5 DUP5 DUP15 ADD PUSH2 0x426A JUMP JUMPDEST DUP10 MLOAD SWAP3 ADD SWAP2 PUSH2 0x3B49 DUP2 DUP5 DUP5 DUP14 ADD PUSH2 0x426A JUMP JUMPDEST DUP9 MLOAD SWAP3 ADD SWAP2 PUSH2 0x3B5B DUP2 DUP5 DUP5 DUP13 ADD PUSH2 0x426A JUMP JUMPDEST DUP8 MLOAD SWAP3 ADD SWAP2 PUSH2 0x3B6D DUP2 DUP5 DUP5 DUP12 ADD PUSH2 0x426A JUMP JUMPDEST DUP7 MLOAD SWAP3 ADD SWAP2 PUSH2 0x3B7F DUP2 DUP5 DUP5 DUP11 ADD PUSH2 0x426A JUMP JUMPDEST DUP6 MLOAD SWAP3 ADD SWAP2 PUSH2 0x3B91 DUP2 DUP5 DUP5 DUP10 ADD PUSH2 0x426A JUMP JUMPDEST SWAP2 SWAP1 SWAP2 ADD SWAP11 SWAP10 POP POP POP POP POP POP POP POP POP POP JUMP JUMPDEST PUSH1 0x0 DUP10 MLOAD PUSH1 0x20 PUSH2 0x3BB6 DUP3 DUP6 DUP4 DUP16 ADD PUSH2 0x426A JUMP JUMPDEST DUP11 MLOAD SWAP2 DUP5 ADD SWAP2 PUSH2 0x3BC9 DUP2 DUP5 DUP5 DUP16 ADD PUSH2 0x426A JUMP JUMPDEST DUP11 MLOAD SWAP3 ADD SWAP2 PUSH2 0x3BDB DUP2 DUP5 DUP5 DUP15 ADD PUSH2 0x426A JUMP JUMPDEST DUP10 MLOAD SWAP3 ADD SWAP2 PUSH2 0x3BED DUP2 DUP5 DUP5 DUP14 ADD PUSH2 0x426A JUMP JUMPDEST DUP9 MLOAD SWAP3 ADD SWAP2 PUSH2 0x3BFF DUP2 DUP5 DUP5 DUP13 ADD PUSH2 0x426A JUMP JUMPDEST DUP8 MLOAD SWAP3 ADD SWAP2 PUSH2 0x3C11 DUP2 DUP5 DUP5 DUP12 ADD PUSH2 0x426A JUMP JUMPDEST DUP7 MLOAD SWAP3 ADD SWAP2 PUSH2 0x3C23 DUP2 DUP5 DUP5 DUP11 ADD PUSH2 0x426A JUMP JUMPDEST DUP6 MLOAD SWAP3 ADD SWAP2 PUSH2 0x3C35 DUP2 DUP5 DUP5 DUP10 ADD PUSH2 0x426A JUMP JUMPDEST SWAP2 SWAP1 SWAP2 ADD SWAP12 SWAP11 POP POP POP POP POP POP POP POP POP POP POP JUMP JUMPDEST PUSH1 0x0 DUP4 MLOAD PUSH1 0x20 PUSH2 0x3C5B DUP3 DUP6 DUP4 DUP10 ADD PUSH2 0x426A JUMP JUMPDEST PUSH1 0x1 PUSH1 0xFD SHL SWAP2 DUP5 ADD SWAP2 DUP3 MSTORE DUP5 SLOAD PUSH1 0x1 SWAP1 PUSH1 0x0 SWAP1 DUP1 DUP4 SHR DUP2 DUP5 AND DUP1 PUSH2 0x3C80 JUMPI PUSH1 0x7F DUP3 AND SWAP2 POP JUMPDEST DUP6 DUP3 LT DUP2 EQ ISZERO PUSH2 0x3C9E JUMPI PUSH4 0x4E487B71 PUSH1 0xE0 SHL DUP5 MSTORE PUSH1 0x22 PUSH1 0x4 MSTORE PUSH1 0x24 DUP5 REVERT JUMPDEST DUP1 DUP1 ISZERO PUSH2 0x3CB2 JUMPI PUSH1 0x1 DUP2 EQ PUSH2 0x3CC7 JUMPI PUSH2 0x3CF8 JUMP JUMPDEST PUSH1 0xFF NOT DUP5 AND DUP9 DUP8 ADD MSTORE DUP3 DUP9 ADD DUP7 ADD SWAP5 POP PUSH2 0x3CF8 JUMP JUMPDEST PUSH1 0x0 DUP12 DUP2 MSTORE PUSH1 0x20 SWAP1 KECCAK256 PUSH1 0x0 JUMPDEST DUP5 DUP2 LT ISZERO PUSH2 0x3CEE JUMPI DUP2 SLOAD DUP11 DUP3 ADD DUP10 ADD MSTORE SWAP1 DUP8 ADD SWAP1 DUP9 ADD PUSH2 0x3CD3 JUMP JUMPDEST POP POP DUP6 DUP4 DUP10 ADD ADD SWAP5 POP JUMPDEST POP SWAP3 SWAP11 SWAP10 POP POP POP POP POP POP POP POP POP POP JUMP JUMPDEST PUSH3 0x11D415 PUSH1 0xEA SHL DUP2 MSTORE PUSH1 0x0 DUP3 MLOAD PUSH2 0x3D26 DUP2 PUSH1 0x3 DUP6 ADD PUSH1 0x20 DUP8 ADD PUSH2 0x426A JUMP JUMPDEST SWAP2 SWAP1 SWAP2 ADD PUSH1 0x3 ADD SWAP3 SWAP2 POP POP JUMP JUMPDEST PUSH1 0x11 PUSH1 0xF9 SHL DUP2 MSTORE DUP4 MLOAD PUSH1 0x0 SWAP1 PUSH2 0x3D50 DUP2 PUSH1 0x1 DUP6 ADD PUSH1 0x20 DUP10 ADD PUSH2 0x426A JUMP JUMPDEST PUSH1 0x1 PUSH1 0xFD SHL PUSH1 0x1 SWAP2 DUP5 ADD SWAP2 DUP3 ADD MSTORE DUP5 MLOAD PUSH2 0x3D71 DUP2 PUSH1 0x2 DUP5 ADD PUSH1 0x20 DUP10 ADD PUSH2 0x426A JUMP JUMPDEST PUSH2 0x111 PUSH1 0xF5 SHL PUSH1 0x2 SWAP3 SWAP1 SWAP2 ADD SWAP2 DUP3 ADD MSTORE DUP4 MLOAD PUSH2 0x3D94 DUP2 PUSH1 0x4 DUP5 ADD PUSH1 0x20 DUP9 ADD PUSH2 0x426A JUMP JUMPDEST ADD PUSH1 0x4 ADD SWAP6 SWAP5 POP POP POP POP POP JUMP JUMPDEST PUSH1 0x11 PUSH1 0xF9 SHL DUP2 MSTORE DUP4 MLOAD PUSH1 0x0 SWAP1 PUSH2 0x3DBE DUP2 PUSH1 0x1 DUP6 ADD PUSH1 0x20 DUP10 ADD PUSH2 0x426A JUMP JUMPDEST PUSH1 0x1 PUSH1 0xFD SHL PUSH1 0x1 SWAP2 DUP5 ADD SWAP2 DUP3 ADD MSTORE DUP5 MLOAD PUSH2 0x3DDF DUP2 PUSH1 0x2 DUP5 ADD PUSH1 0x20 DUP10 ADD PUSH2 0x426A JUMP JUMPDEST PUSH2 0x111 PUSH1 0xF5 SHL PUSH1 0x2 SWAP3 SWAP1 SWAP2 ADD SWAP2 DUP3 ADD MSTORE DUP4 MLOAD PUSH2 0x3E02 DUP2 PUSH1 0x4 DUP5 ADD PUSH1 0x20 DUP9 ADD PUSH2 0x426A JUMP JUMPDEST PUSH3 0x202B31 PUSH1 0xE8 SHL PUSH1 0x4 SWAP3 SWAP1 SWAP2 ADD SWAP2 DUP3 ADD MSTORE PUSH1 0x7 ADD SWAP6 SWAP5 POP POP POP POP POP JUMP JUMPDEST PUSH15 0x7B226E616D65223A20224261672023 PUSH1 0x88 SHL DUP2 MSTORE DUP3 MLOAD PUSH1 0x0 SWAP1 PUSH2 0x3E4A DUP2 PUSH1 0xF DUP6 ADD PUSH1 0x20 DUP9 ADD PUSH2 0x426A JUMP JUMPDEST DUP1 DUP4 ADD SWAP1 POP PUSH32 0x222C20226465736372697074696F6E223A20224C6F6F742069732072616E646F PUSH1 0xF DUP3 ADD MSTORE PUSH32 0x6D697A656420616476656E747572657220676561722067656E65726174656420 PUSH1 0x2F DUP3 ADD MSTORE PUSH32 0x616E642073746F726564206F6E20636861696E2E2053746174732C20696D6167 PUSH1 0x4F DUP3 ADD MSTORE PUSH32 0x65732C20616E64206F746865722066756E6374696F6E616C6974792061726520 PUSH1 0x6F DUP3 ADD MSTORE PUSH32 0x696E74656E74696F6E616C6C79206F6D697474656420666F72206F7468657273 PUSH1 0x8F DUP3 ADD MSTORE PUSH32 0x20746F20696E746572707265742E204665656C206672656520746F2075736520 PUSH1 0xAF DUP3 ADD MSTORE PUSH32 0x4C6F6F7420696E20616E792077617920796F752077616E742E222C2022696D61 PUSH1 0xCF DUP3 ADD MSTORE PUSH32 0x6765223A2022646174613A696D6167652F7376672B786D6C3B6261736536342C PUSH1 0xEF DUP3 ADD MSTORE PUSH2 0x10F DUP5 MLOAD PUSH2 0x3F94 DUP2 DUP4 DUP6 ADD PUSH1 0x20 DUP10 ADD PUSH2 0x426A JUMP JUMPDEST PUSH2 0x3FAA DUP3 DUP3 DUP6 ADD ADD PUSH2 0x227D PUSH1 0xF0 SHL DUP2 MSTORE PUSH1 0x2 ADD SWAP1 JUMP JUMPDEST SWAP8 SWAP7 POP POP POP POP POP POP POP JUMP JUMPDEST PUSH32 0x646174613A6170706C69636174696F6E2F6A736F6E3B6261736536342C000000 DUP2 MSTORE PUSH1 0x0 DUP3 MLOAD PUSH2 0x3FED DUP2 PUSH1 0x1D DUP6 ADD PUSH1 0x20 DUP8 ADD PUSH2 0x426A JUMP JUMPDEST SWAP2 SWAP1 SWAP2 ADD PUSH1 0x1D ADD SWAP3 SWAP2 POP POP JUMP JUMPDEST PUSH1 0x1 PUSH1 0x1 PUSH1 0xA0 SHL SUB DUP6 DUP2 AND DUP3 MSTORE DUP5 AND PUSH1 0x20 DUP3 ADD MSTORE PUSH1 0x40 DUP2 ADD DUP4 SWAP1 MSTORE PUSH1 0x80 PUSH1 0x60 DUP3 ADD DUP2 SWAP1 MSTORE PUSH1 0x0 SWAP1 PUSH2 0x402D SWAP1 DUP4 ADD DUP5 PUSH2 0x3A9A JUMP JUMPDEST SWAP7 SWAP6 POP POP POP POP POP POP JUMP JUMPDEST PUSH1 0x20 DUP2 MSTORE PUSH1 0x0 PUSH2 0xD98 PUSH1 0x20 DUP4 ADD DUP5 PUSH2 0x3A9A JUMP JUMPDEST PUSH1 0x60 DUP2 MSTORE PUSH1 0x0 PUSH2 0x405D PUSH1 0x60 DUP4 ADD DUP7 PUSH2 0x3A9A JUMP JUMPDEST DUP3 DUP2 SUB PUSH1 0x20 DUP5 ADD MSTORE PUSH2 0x406F DUP2 DUP7 PUSH2 0x3A9A JUMP JUMPDEST SWAP1 POP DUP3 DUP2 SUB PUSH1 0x40 DUP5 ADD MSTORE PUSH2 0x402D DUP2 DUP6 PUSH2 0x3A9A JUMP JUMPDEST PUSH1 0x60 DUP2 MSTORE PUSH1 0x0 PUSH2 0x4096 PUSH1 0x60 DUP4 ADD DUP7 PUSH2 0x3A9A JUMP JUMPDEST DUP3 DUP2 SUB PUSH1 0x20 DUP5 ADD MSTORE DUP5 MLOAD PUSH1 0x60 DUP3 MSTORE PUSH2 0x40B1 PUSH1 0x60 DUP4 ADD DUP3 PUSH2 0x3A9A JUMP JUMPDEST SWAP1 POP PUSH1 0x20 DUP7 ADD MLOAD DUP3 DUP3 SUB PUSH1 0x20 DUP5 ADD MSTORE PUSH2 0x40CA DUP3 DUP3 PUSH2 0x3A9A JUMP JUMPDEST SWAP2 POP POP PUSH1 0x40 DUP7 ADD MLOAD DUP3 DUP3 SUB PUSH1 0x40 DUP5 ADD MSTORE PUSH2 0x40E4 DUP3 DUP3 PUSH2 0x3A9A JUMP JUMPDEST SWAP4 POP POP POP POP PUSH1 0x1 DUP1 PUSH1 0xA0 SHL SUB DUP4 AND PUSH1 0x40 DUP4 ADD MSTORE SWAP5 SWAP4 POP POP POP POP JUMP JUMPDEST PUSH1 0x20 DUP1 DUP3 MSTORE PUSH1 0x32 SWAP1 DUP3 ADD MSTORE PUSH32 0x4552433732313A207472616E7366657220746F206E6F6E204552433732315265 PUSH1 0x40 DUP3 ADD MSTORE PUSH18 0x31B2B4BB32B91034B6B83632B6B2B73A32B9 PUSH1 0x71 SHL PUSH1 0x60 DUP3 ADD MSTORE PUSH1 0x80 ADD SWAP1 JUMP JUMPDEST PUSH1 0x20 DUP1 DUP3 MSTORE DUP2 DUP2 ADD MSTORE PUSH32 0x4F776E61626C653A2063616C6C6572206973206E6F7420746865206F776E6572 PUSH1 0x40 DUP3 ADD MSTORE PUSH1 0x60 ADD SWAP1 JUMP JUMPDEST PUSH1 0x20 DUP1 DUP3 MSTORE PUSH1 0x31 SWAP1 DUP3 ADD MSTORE PUSH32 0x4552433732313A207472616E736665722063616C6C6572206973206E6F74206F PUSH1 0x40 DUP3 ADD MSTORE PUSH17 0x1DDB995C881B9BDC88185C1C1C9BDD9959 PUSH1 0x7A SHL PUSH1 0x60 DUP3 ADD MSTORE PUSH1 0x80 ADD SWAP1 JUMP JUMPDEST PUSH1 0x40 MLOAD PUSH1 0x1F DUP3 ADD PUSH1 0x1F NOT AND DUP2 ADD PUSH8 0xFFFFFFFFFFFFFFFF DUP2 GT DUP3 DUP3 LT OR ISZERO PUSH2 0x4200 JUMPI PUSH2 0x4200 PUSH2 0x4358 JUMP JUMPDEST PUSH1 0x40 MSTORE SWAP2 SWAP1 POP JUMP JUMPDEST PUSH1 0x0 DUP3 NOT DUP3 GT ISZERO PUSH2 0x421B JUMPI PUSH2 0x421B PUSH2 0x4300 JUMP JUMPDEST POP ADD SWAP1 JUMP JUMPDEST PUSH1 0x0 DUP3 PUSH2 0x422F JUMPI PUSH2 0x422F PUSH2 0x4316 JUMP JUMPDEST POP DIV SWAP1 JUMP JUMPDEST PUSH1 0x0 DUP2 PUSH1 0x0 NOT DIV DUP4 GT DUP3 ISZERO ISZERO AND ISZERO PUSH2 0x424E JUMPI PUSH2 0x424E PUSH2 0x4300 JUMP JUMPDEST POP MUL SWAP1 JUMP JUMPDEST PUSH1 0x0 DUP3 DUP3 LT ISZERO PUSH2 0x4265 JUMPI PUSH2 0x4265 PUSH2 0x4300 JUMP JUMPDEST POP SUB SWAP1 JUMP JUMPDEST PUSH1 0x0 JUMPDEST DUP4 DUP2 LT ISZERO PUSH2 0x4285 JUMPI DUP2 DUP2 ADD MLOAD DUP4 DUP3 ADD MSTORE PUSH1 0x20 ADD PUSH2 0x426D JUMP JUMPDEST DUP4 DUP2 GT ISZERO PUSH2 0x15BA JUMPI POP POP PUSH1 0x0 SWAP2 ADD MSTORE JUMP JUMPDEST PUSH1 0x1 DUP2 DUP2 SHR SWAP1 DUP3 AND DUP1 PUSH2 0x42AA JUMPI PUSH1 0x7F DUP3 AND SWAP2 POP JUMPDEST PUSH1 0x20 DUP3 LT DUP2 EQ ISZERO PUSH2 0x42CB JUMPI PUSH4 0x4E487B71 PUSH1 0xE0 SHL PUSH1 0x0 MSTORE PUSH1 0x22 PUSH1 0x4 MSTORE PUSH1 0x24 PUSH1 0x0 REVERT JUMPDEST POP SWAP2 SWAP1 POP JUMP JUMPDEST PUSH1 0x0 PUSH1 0x0 NOT DUP3 EQ ISZERO PUSH2 0x42E5 JUMPI PUSH2 0x42E5 PUSH2 0x4300 JUMP JUMPDEST POP PUSH1 0x1 ADD SWAP1 JUMP JUMPDEST PUSH1 0x0 DUP3 PUSH2 0x42FB JUMPI PUSH2 0x42FB PUSH2 0x4316 JUMP JUMPDEST POP MOD SWAP1 JUMP JUMPDEST PUSH4 0x4E487B71 PUSH1 0xE0 SHL PUSH1 0x0 MSTORE PUSH1 0x11 PUSH1 0x4 MSTORE PUSH1 0x24 PUSH1 0x0 REVERT JUMPDEST PUSH4 0x4E487B71 PUSH1 0xE0 SHL PUSH1 0x0 MSTORE PUSH1 0x12 PUSH1 0x4 MSTORE PUSH1 0x24 PUSH1 0x0 REVERT JUMPDEST PUSH4 0x4E487B71 PUSH1 0xE0 SHL PUSH1 0x0 MSTORE PUSH1 0x31 PUSH1 0x4 MSTORE PUSH1 0x24 PUSH1 0x0 REVERT JUMPDEST PUSH4 0x4E487B71 PUSH1 0xE0 SHL PUSH1 0x0 MSTORE PUSH1 0x32 PUSH1 0x4 MSTORE PUSH1 0x24 PUSH1 0x0 REVERT JUMPDEST PUSH4 0x4E487B71 PUSH1 0xE0 SHL PUSH1 0x0 MSTORE PUSH1 0x41 PUSH1 0x4 MSTORE PUSH1 0x24 PUSH1 0x0 REVERT JUMPDEST PUSH1 0x1 PUSH1 0x1 PUSH1 0xE0 SHL SUB NOT DUP2 AND DUP2 EQ PUSH2 0x9F0 JUMPI PUSH1 0x0 DUP1 REVERT INVALID EXTCODECOPY 0x2F PUSH21 0x6578743E3C7465787420783D2231302220793D2236 ADDRESS 0x22 KECCAK256 PUSH4 0x6C617373 RETURNDATASIZE 0x22 PUSH3 0x617365 0x22 RETURNDATACOPY 0x22 KECCAK256 PUSH16 0x66667365743D22333325222F3E3C7374 PUSH16 0x702073746F702D636F6C6F723D223C2F PUSH21 0x6578743E3C7465787420783D2231302220793D2231 ORIGIN ADDRESS 0x22 KECCAK256 PUSH4 0x6C617373 RETURNDATASIZE 0x22 PUSH3 0x617365 0x22 RETURNDATACOPY 0x22 KECCAK256 PUSH16 0x66667365743D223025222F3E3C73746F PUSH17 0x2073746F702D636F6C6F723D2241424344 GASLIMIT CHAINID SELFBALANCE BASEFEE 0x49 0x4A 0x4B 0x4C 0x4D 0x4E 0x4F POP MLOAD MSTORE MSTORE8 SLOAD SSTORE JUMP JUMPI PC MSIZE GAS PUSH2 0x6263 PUSH5 0x6566676869 PUSH11 0x6B6C6D6E6F707172737475 PUSH23 0x7778797A303132333435363738392B2F3C2F746578743E EXTCODECOPY PUSH21 0x65787420783D2231302220793D2239302220636C61 PUSH20 0x733D2262617365223E22206F66667365743D2231 ADDRESS ADDRESS 0x25 0x22 0x2F RETURNDATACOPY EXTCODECOPY 0x2F PUSH13 0x696E6561724772616469656E74 RETURNDATACOPY EXTCODECOPY 0x2F PUSH5 0x6566733E3C PUSH19 0x6563742077696474683D223130302522206865 PUSH10 0x6768743D223130302522 KECCAK256 PUSH7 0x696C6C3D22626C PUSH2 0x636B 0x22 KECCAK256 0x2F RETURNDATACOPY EXTCODECOPY PUSH21 0x65787420783D2231302220793D2233302220636C61 PUSH20 0x733D2262617365223E3C73766720786D6C6E733D 0x22 PUSH9 0x7474703A2F2F777777 0x2E PUSH24 0x332E6F72672F323030302F73766722207072657365727665 COINBASE PUSH20 0x70656374526174696F3D22784D696E594D696E20 PUSH14 0x656574222076696577426F783D22 ADDRESS KECCAK256 ADDRESS KECCAK256 CALLER CALLDATALOAD ADDRESS KECCAK256 CALLER CALLDATALOAD ADDRESS 0x22 RETURNDATACOPY EXTCODECOPY PUSH20 0x74796C653E2E62617365207B2066696C6C3A2075 PUSH19 0x6C28236C696E6561722D6772616469656E7429 EXTCODESIZE KECCAK256 PUSH7 0x6F6E742D66616D PUSH10 0x6C793A20496D70616374 EXTCODESIZE KECCAK256 PUSH7 0x6F6E742D73697A PUSH6 0x3A2031387078 EXTCODESIZE KECCAK256 PUSH7 0x6F6E7457656967 PUSH9 0x743A20626F6C643B20 PUSH30 0x3C2F7374796C653E3C646566733E3C6C696E6561724772616469656E7420 PUSH10 0x643D226C696E6561722D PUSH8 0x72616469656E7422 KECCAK256 PUSH25 0x313D2230222078323D2230222079313D2230222079323D2231 ADDRESS ADDRESS 0x25 0x22 KECCAK256 PUSH8 0x72616469656E7455 PUSH15 0x6974733D227573657253706163654F PUSH15 0x557365223E3C73746F702073746F70 0x2D PUSH4 0x6F6C6F72 RETURNDATASIZE 0x22 LOG2 PUSH5 0x6970667358 0x22 SLT KECCAK256 0x2B SHR SSTORE PUSH24 0x8EBA86E68AC81458F6376A3F986590699911E77C5F02AA86 0xD0 0xB7 PUSH13 0xD064736F6C6343000807003300 ","sha1":"901155555b231280e3e453cb9fea6f5c798bc672","source":"//SPDX-License-Identifier: MIT\npragma solidity ^0.8.0;\n\nimport {ERC721Enumerable} from \"./NFT.sol\";\nimport {ReentrancyGuard} from \"./NFT.sol\";\nimport {Ownable} from \"./NFT.sol\";\nimport {Base64} from \"./NFT.sol\";\nimport {ERC721} from \"./NFT.sol\";\n\ncontract Master is ERC721Enumerable, ReentrancyGuard, Ownable {\n    \n     ItemSet[] public itemSets;\n    ColorSet[] public colorSets;\n    uint256 counter = 1;\n    mapping (address => ItemSet) userToItems;\n    mapping (address => uint256) public numItemsSets;\n    mapping (uint256 => uint256) public tokenIdToRand;\n    mapping (address => uint256) public userToMinted;\n    mapping (address => uint256) public collectedFees;\n\n\n    constructor() ERC721(\"Loot\", \"LOOT\") Ownable() {\n        ColorSet memory colorSet1;\n        colorSet1.color1 = \"red\";\n        colorSet1.color2 = \"orange\";\n        colorSet1.color3 = \"yellow\";\n        colorSets.push(colorSet1);\n\n        ColorSet memory colorSet2;\n        colorSet2.color1 = \"green\";\n        colorSet2.color2 = \"teal\";\n        colorSet2.color3 = \"blue\";\n        colorSets.push(colorSet2);\n\n        ColorSet memory colorSet3;\n        colorSet3.color1 = \"purple\";\n        colorSet3.color2 = \"mediumslateblue\";\n        colorSet3.color3 = \"plum\";\n        colorSets.push(colorSet3);\n\n        ColorSet memory colorSet4;\n        colorSet4.color1 = \"deepskyblue\";\n        colorSet4.color2 = \"royalblue\";\n        colorSet4.color3 = \"midnightblue\";\n        colorSets.push(colorSet4);\n    }\n\n    struct ItemSet {\n    string theme;\n    string[] weapons;\n    string[] attire;\n    string[] accessories;\n    ColorSet colorSet;\n    address payable creator;\n  }\n\n  struct ColorSet {\n      string color1;\n      string color2;\n      string color3;\n  }\n\n\n    event feeCollected(address to, uint256 fee);\n\n    string[] private suffixes = [\"Of Power\", \"Of The Sovereign\", \"Of The Future\", \"Of the Unknown\", \"Of the Singularity\", \"Of The Aeon\", \"Of Fragmentation\", \"Of Consciousness\", \"Of Vectors\", \"Of Augmentation\", \"Of The Holy\", \"Of The Dead\", \"Of The Living\", \"Of The Spirit\", \"Of Flames\", \"Of The Sigil\", \"Of The Quick\", \"Of The Mind\", \"Of The Fractals\", \"Of The Mysterious\", \"Of The Cryptographic\", \"Of Death\", \"Of Vitality\", \"Of Hope\", \"Of Reasoning\", \"Of Hysteria\"];\n    \n    string[] private namePrefixes = [\"Augmentation\", \"Cybernetic\", \"Nano\", \"Sharp\", \"Enhancement\", \"Modified\", \"Upgraded\", \"Advanced\", \"Hyper\", \"Ensured\", \"Proto\", \"Prototype\", \"Adaptation\", \"Artificial\", \"Genetic\", \"Carbon\", \"Bio\", \"Biomechanical\", \"Mechanized\", \"Machine\", \"Cyborg\", \"Artificial\", \"Autonomous\", \"Electric\", \"Electronic\", \"Reflective\", \"Reflexive\", \"Self-Aware\", \"Sentient\", \"Self-Morphing\", \"Self-Modifying\", \"Self-Learning\", \"Organic\", \"Omni\", \"Omni-Processing\", \"Dystopian\", \"Reactive\", \"Responsive\", \"Optimized\", \"Indestructible\", \"Visionary\", \"Holographic\", \"Neon\", \"Superfluid\", \"Translucent\", \"Invisible\", \"Impenetrable\", \"Incorporeal\", \"Morphing\", \"Shapeshifter\", \"Active\", \"Living\", \"Mysterious\", \"Immortal\", \"Re-animated\", \"Toxic\", \"Corrosive\", \"Explosive\", \"Flammable\", \"Pyro\", \"Combustible\", \"Self-Destructive\", \"Parasitic\", \"Viral\", \"Psionic\", \"Psychic\", \"Arcane\", \"Divine\", \"Alchemical\", \"Totemic\", \"Sentinel\", \"Defensive\", \"Recon\"];\n    \n    string[] private nameSuffixes = [\"Neon\", \"Stealthy\", \"Sentry\", \"Liberty\", \"Thunder\", \"Death\", \"Tool\", \"Junk\", \"Black\", \"Cyber\", \"Firewall\", \"Sharp\", \"Brawler\", \"Hacker\", \"Radiant\", \"Cipher\", \"Tracer\", \"Phantom\", \"Savage\", \"Persistent\", \"Serial\", \"Neural\", \"Deceit\", \"Lacquer\", \"Sapper\", \"Spark\", \"Spanner\", \"Scumbag\", \"Techno\", \"Cybernetics\", \"Shadow\", \"Transcendent\", \"Juggernaut\", \"Retro\", \"Metallic\", \"Chemical\", \"Spectral\", \"Digital\", \"Berserker\", \"Photon\", \"Anarchy\", \"Carbon\", \"Cyanide\", \"Hypnotic\", \"Decryptor\", \"Ghost\", \"Burly\", \"Agile\"];\n    \n    function addItemSet(string memory _theme, string[] memory _weapons, string[] memory _attire, string[] memory _accessories) public payable {\n        require(msg.value >= 50000000000000000, \"Fee too low\");\n        uint256 rand = random(string(abi.encodePacked(_theme)));\n        uint i = rand % colorSets.length;\n        ColorSet memory colors = colorSets[i];\n\n        ItemSet memory newItem;\n        newItem.weapons = _weapons;\n        newItem.attire = _attire;\n        newItem.accessories = _accessories;\n        newItem.theme = _theme;\n        newItem.colorSet = colors;\n        newItem.creator = payable(msg.sender);\n\n        numItemsSets[msg.sender] += 1;\n        itemSets.push(newItem);\n    }\n\n    function random(string memory input) internal pure returns (uint256) {\n        return uint256(keccak256(abi.encodePacked(input)));\n    }\n    \n    function getWeapon(uint256 tokenId, string[] memory weapons) public view returns (string memory) {\n        return pluck(tokenId, \"WEAPON\", weapons);\n    }\n    \n    function getAttire(uint256 tokenId, string[] memory attire) public view returns (string memory) {\n        return pluck(tokenId, \"ATTIRE\", attire);\n    }\n    \n    function getAccessories(uint256 tokenId, string[] memory accessories) public view returns (string memory) {\n        return pluck(tokenId, \"ACCESSORIES\", accessories);\n    }\n    \n    function pluck(uint256 tokenId, string memory keyPrefix, string[] memory sourceArray) internal view returns (string memory) {\n        uint256 rand = random(string(abi.encodePacked(keyPrefix, toString(tokenId))));\n        string memory output = sourceArray[rand % sourceArray.length];\n        uint256 greatness = rand % 21;\n        if (greatness > 14) {\n            output = string(abi.encodePacked(output, \" \", suffixes[rand % suffixes.length]));\n        }\n        if (greatness >= 19) {\n            string[2] memory name;\n            name[0] = namePrefixes[rand % namePrefixes.length];\n            name[1] = nameSuffixes[rand % nameSuffixes.length];\n            if (greatness == 19) {\n                output = string(abi.encodePacked('\"', name[0], ' ', name[1], '\" ', output));\n            } else {\n                output = string(abi.encodePacked('\"', name[0], ' ', name[1], '\" ', output, \" +1\"));\n            }\n        }\n        return output;\n    }\n\n    function tokenURI(uint256 tokenId) override public view returns (string memory) {\n        uint256 i = tokenIdToRand[tokenId];\n        string[] memory weapons = itemSets[i].weapons;\n        string[] memory attire = itemSets[i].attire;\n        string[] memory accessories = itemSets[i].accessories;\n        ColorSet memory colorSet = itemSets[i].colorSet;\n\n        string[14] memory parts;\n\n        parts[0] = '<svg xmlns=\"http://www.w3.org/2000/svg\" preserveAspectRatio=\"xMinYMin meet\" viewBox=\"0 0 350 350\"><style>.base { fill: url(#linear-gradient); font-family: Impact; font-size: 18px; fontWeight: bold; }</style><defs><linearGradient id=\"linear-gradient\" x1=\"0\" x2=\"0\" y1=\"0\" y2=\"100%\" gradientUnits=\"userSpaceOnUse\"><stop stop-color=\"';\n        parts[1] = colorSet.color1;\n    \n        parts[2] = '\" offset=\"0%\"/><stop stop-color=\"';\n        \n        parts[3] = colorSet.color2;\n        \n        parts[4] = '\" offset=\"33%\"/><stop stop-color=\"';\n        \n        parts[5] = colorSet.color3;\n        \n        parts[6] = '\" offset=\"100%\"/></linearGradient></defs><rect width=\"100%\" height=\"100%\" fill=\"black\" /><text x=\"10\" y=\"30\" class=\"base\">';\n      \n        parts[7] = getWeapon(tokenId, weapons);\n\n        parts[8] = '</text><text x=\"10\" y=\"60\" class=\"base\">';\n\n        parts[9] = getAttire(tokenId, attire);\n\n        parts[10] = '</text><text x=\"10\" y=\"90\" class=\"base\">';\n\n        parts[11] = getAccessories(tokenId, accessories);\n\n        parts[12] = '</text><text x=\"10\" y=\"120\" class=\"base\">';\n\n        parts[13] = '</text></svg>';\n\n        string memory output = string(abi.encodePacked(parts[0], parts[1], parts[2], parts[3], parts[4], parts[5], parts[6], parts[7]));\n        output = string(abi.encodePacked(output, parts[8], parts[9], parts[10], parts[11], parts[12], parts[13]));\n        \n        \n        string memory json = Base64.encode(bytes(string(abi.encodePacked('{\"name\": \"Bag #', toString(tokenId), '\", \"description\": \"Loot is randomized adventurer gear generated and stored on chain. Stats, images, and other functionality are intentionally omitted for others to interpret. Feel free to use Loot in any way you want.\", \"image\": \"data:image/svg+xml;base64,', Base64.encode(bytes(output)), '\"}'))));\n        output = string(abi.encodePacked('data:application/json;base64,', json));\n\n        return output;\n    }\n\n    function tokenImage(uint256 tokenId) public view returns (string memory) {\n        uint256 i = tokenIdToRand[tokenId];\n        string[] memory weapons = itemSets[i].weapons;\n        string[] memory attire = itemSets[i].attire;\n        string[] memory accessories = itemSets[i].accessories;\n        ColorSet memory colorSet = itemSets[i].colorSet;\n        string[14] memory parts;\n\n        parts[0] = '<svg xmlns=\"http://www.w3.org/2000/svg\" preserveAspectRatio=\"xMinYMin meet\" viewBox=\"0 0 350 350\"><style>.base { fill: url(#linear-gradient); font-family: Impact; font-size: 18px; fontWeight: bold; }</style><defs><linearGradient id=\"linear-gradient\" x1=\"0\" x2=\"0\" y1=\"0\" y2=\"100%\" gradientUnits=\"userSpaceOnUse\"><stop stop-color=\"';\n        parts[1] = colorSet.color1;\n    \n        parts[2] = '\" offset=\"0%\"/><stop stop-color=\"';\n        \n        parts[3] = colorSet.color2;\n        \n        parts[4] = '\" offset=\"33%\"/><stop stop-color=\"';\n        \n        parts[5] = colorSet.color3;\n        \n        parts[6] = '\" offset=\"100%\"/></linearGradient></defs><rect width=\"100%\" height=\"100%\" fill=\"black\" /><text x=\"10\" y=\"30\" class=\"base\">';\n      \n        parts[7] = getWeapon(tokenId, weapons);\n\n        parts[8] = '</text><text x=\"10\" y=\"60\" class=\"base\">';\n\n        parts[9] = getAttire(tokenId, attire);\n\n        parts[10] = '</text><text x=\"10\" y=\"90\" class=\"base\">';\n\n        parts[11] = getAccessories(tokenId, accessories);\n\n        parts[12] = '</text><text x=\"10\" y=\"120\" class=\"base\">';\n\n        parts[13] = '</text></svg>';\n\n        string memory output = string(abi.encodePacked(parts[0], parts[1], parts[2], parts[3], parts[4], parts[5], parts[6], parts[7]));\n        output = string(abi.encodePacked(output, parts[8], parts[9], parts[10], parts[11], parts[12], parts[13]));\n        output = Base64.encode(bytes(output));\n        return output;\n    }\n\n    function claim() public payable nonReentrant {\n        require(msg.value >= 50000000000000000, \"Fee to low\");\n        uint256 tokenId = counter;\n        uint256 rand = random(string(abi.encodePacked(\"GPT\", toString(tokenId))));\n        uint i = rand % itemSets.length;\n        address payable creator = itemSets[i].creator;\n        uint256 creatorFee = msg.value / 2;\n        creator.transfer(creatorFee);\n        tokenIdToRand[tokenId] = i;\n        userToMinted[creator] += 1;\n        collectedFees[creator] += creatorFee;\n        creator.transfer(creatorFee);\n        counter += 1;\n        _safeMint(_msgSender(), tokenId);\n        emit feeCollected(creator, creatorFee);\n    }\n\n    function withdrawFees() public onlyOwner {\n\n      payable(msg.sender).transfer(address(this).balance);\n  }\n    \n\n    function toString(uint256 value) internal pure returns (string memory) {\n    // Inspired by OraclizeAPI's implementation - MIT license\n    // https://github.com/oraclize/ethereum-api/blob/b42146b063c7d6ee1358846c198246239e9360e8/oraclizeAPI_0.4.25.sol\n\n        if (value == 0) {\n            return \"0\";\n        }\n        uint256 temp = value;\n        uint256 digits;\n        while (temp != 0) {\n            digits++;\n            temp /= 10;\n        }\n        bytes memory buffer = new bytes(digits);\n        while (value != 0) {\n            digits -= 1;\n            buffer[digits] = bytes1(uint8(48 + uint256(value % 10)));\n            value /= 10;\n        }\n        return string(buffer);\n    }\n    \n}\n\n","sourcePath":"contracts/Master.sol","deployment":{"address":"0xA82B3db1c1a5591269070EfF28a9B0fb4Cc1007c","chainid":"137","blockHeight":20047767}}