{"bytecode":"6001600d90815560086103a09081526727b3102837bbb2b960c11b6103c0526080908152600e6103e08181526d27b3102230b9359026b0ba3a32b960911b6104005260a05260106104209081526f27b3102a34329029b7bb32b932b4b3b760811b6104405260c0526104609283526c4f66205468652046757475726560981b6104805260e0929092526104a08281526d27b3103a3432902ab735b737bbb760911b6104c05261010052600a6104e0818152694f66204772617669747960b01b61050052610120526012610520908152714f66207468652053696e67756c617269747960701b6105405261014052600f6105608181526e4f662044697374616e742053756e7360881b610580526101605260116105a09081527013d98813995e1d08105d59db595b9d1959607a1b6105c05261018052600b6105e08181526a27b3102a34329020b2b7b760a91b610600526101a05260166106208181527f4f66204d6963726f20467261676d656e746174696f6e00000000000000000000610640526101c052601a6106609081527f4f66205669636172696f757320436f6e7363696f75736e657373000000000000610680526101e0526106a0938452694f6620566563746f727360b01b6106c05261020093909352601c6106e09081527f4f66204d657461706879736963616c204175676d656e746174696f6e00000000610700526102205260146107208181527f4f66205468652041737472616c20506c616e657300000000000000000000000061074052610240526107609384527f4f6620546865204c6976696e6720556e6976657273650000000000000000000061078052610260939093526107a09182526e4f66205468652042696f6d6563687360881b6107c052610280919091526107e09384526d4f6620546865204379626f72677360901b610800526102a09390935260176108209081527f4f66205468652053706972697475616c20506c616e6573000000000000000000610840526102c05260136108608181527f4f6620546865204e616e6f205468726561647300000000000000000000000000610880526102e052600c6108a08181526b13d988151a194814da59da5b60a21b6108c052610300526108e09081526b4f662054686520517569636b60a01b61090052610320526109209384526a13d988151a1948135a5b9960aa1b61094052610340939093526109608381527f4f662050737963686963204672616374616c730000000000000000000000000061098052610360526109e06040526109a09081527f4f66205468652047656e6574696320436f6465780000000000000000000000006109c05261038052620003e191906019620014a3565b50604080516109a081018252600c61096082018181526b20bab3b6b2b73a30ba34b7b760a11b610980840152825282518084018452600a8082526943796265726e6574696360b01b602083810191909152808501929092528451808601865260058082526421bcb132b960d91b8285015285870191909152855180870187526004808252634e616e6f60e01b82860152606087019190915286518088018852600980825268125b5c1b185b9d195960ba1b82870152608088019190915287518089018952600b8082526a115b9a185b98d95b595b9d60aa1b8288015260a08901919091528851808a018a52600880825267135bd91a599a595960c21b8289015260c08a01919091528951808b018b5281815267155c19dc9859195960c21b8189015260e08a01528951808b018b528181526710591d985b98d95960c21b8189018190526101008b01919091528a51808c018c5286815264243cb832b960d91b818a01526101208b01528a51808c018c52828152808901919091526101408a01528951808b018b528581526450726f746f60d81b818901526101608a01528951808b018b528381526850726f746f7479706560b81b818901526101808a01528951808b018b528681526920b230b83a30ba34b7b760b11b818901526101a08a01528951808b018b5286815269105c9d1a599a58da585b60b21b8189018190526101c08b01919091528a51808c018c528581526347656e6560e01b818a01526101e08b01528a51808c018c5260078082526647656e6574696360c81b828b01526102008c01919091528b51808d018d5260068082526521b0b93137b760d11b828c01526102208d01919091528c51808e018e52600381526242696f60e81b818c01526102408d01528c51808e018e52600d8082526c109a5bdb5958da185b9a58d85b609a1b828d01526102608e01919091528d51808f018f528a815269135958da185b9a5e995960b21b818d01526102808e01528d51808f018f52838152664d616368696e6560c81b818d01526102a08e01528d51808f018f52828152654379626f726760d01b818d01526102c08e01528d51808f018f528a8152808c01949094526102e08d01939093528c51808e018e52898152694175746f6e6f6d6f757360b01b818c01526103008d01528c51808e018e5284815267456c65637472696360c01b818c01526103208d01528c51808e018e5289815269456c656374726f6e696360b01b818c01526103408d01528c51808e018e52898152695265666c65637469766560b01b818c01526103608d01528c51808e018e52868152685265666c657869766560b81b818c01526103808d01528c51808e018e528981526953656c662d417761726560b01b818c01526103a08d01528c51808e018e528481526714d95b9d1a595b9d60c21b818c01526103c08d01528c51808e018e528381526c53656c662d4d6f727068696e6760981b818c01526103e08d01528c51808e018e52600e8082526d53656c662d4d6f64696679696e6760901b828d01526104008e01919091528d51808f018f529384526c53656c662d4c6561726e696e6760981b848c01526104208d01939093528c51808e018e52828152664f7267616e696360c81b818c01526104408d01528c51808e018e52878152634f6d6e6960e01b818c01526104608d01528c51808e018e52600f81526e4f6d6e692d50726f63657373696e6760881b818c01526104808d01528c51808e018e5286815268223cb9ba37b834b0b760b91b818c01526104a08d01528c51808e018e5284815267526561637469766560c01b818c01526104c08d01528c51808e018e5289815269526573706f6e7369766560b01b818c01526104e08d01528c51808e018e528681526813dc1d1a5b5a5e995960ba1b818c01526105008d01528c51808e018e529283526d496e646573747275637469626c6560901b838b01526105208c01929092528b51808d018d5285815268566973696f6e61727960b81b818b01526105408c01528b51808d018d528481526a486f6c6f6772617068696360a81b818b01526105608c01528b51808d018d52868152632732b7b760e11b818b01526105808c01528b51808d018d528881526914dd5c195c999b1d5a5960b21b818b01526105a08c01528b51808d018d528481526a151c985b9cdb1d58d95b9d60aa1b818b01526105c08c01528b51808d018d5285815268496e76697369626c6560b81b818b01526105e08c01528b51808d018d528a81526b496d70656e65747261626c6560a01b818b01526106008c01528b51808d018d528481526a125b98dbdc9c1bdc99585b60aa1b818b01526106208c01528b51808d018d52838152674d6f727068696e6760c01b818b01526106408c01528b51808d018d52998a526b29b430b832b9b434b33a32b960a11b8a8a01526106608b01999099528a51808c018c528181526541637469766560d01b818a01526106808b01528a51808c018c52818152654c6976696e6760d01b818a01526106a08b01528a51808c018c52878152694d7973746572696f757360b01b818a01526106c08b01528a51808c018c5282815267125b5b5bdc9d185b60c21b818a01526106e08b01528a51808c018c528381526a14994b585b9a5b585d195960aa1b818a01526107008b01528a51808c018c5286815264546f78696360d81b818a01526107208b01528a51808c018c5284815268436f72726f7369766560b81b818a01526107408b01528a51808c018c52848152684578706c6f7369766560b81b818a01526107608b01528a51808c018c5284815268466c616d6d61626c6560b81b818a01526107808b01528a51808c018c52948552635079726f60e01b858901526107a08a01949094528951808b018b529182526a436f6d6275737469626c6560a81b828801526107c08901919091528851808a018a52601081526f53656c662d446573747275637469766560801b818801526107e08901528851808a018a528281526850617261736974696360b81b818801526108008901528851808a018a5284815264159a5c985b60da1b818801526108208901528851808a018a52878152665073696f6e696360c81b818801526108408901528851808a018a52878152665073796368696360c81b818801526108608901528851808a018a5283815265417263616e6560d01b818801526108808901528851808a018a5292835265446976696e6560d01b838701526108a08801929092528751808901895293845269105b18da195b5a58d85b60b21b848601526108c08701939093528651808801885294855266546f74656d696360c81b858501526108e0860194909452855180870187529384526714d95b9d1a5b995b60c21b848401526109008501939093528451808601865290815268446566656e7369766560b81b818301526109208401528351808501909452908352642932b1b7b760d91b9083015261094081019190915262000dd590601490604b62001507565b50604080516106208101825260046105e08201818152632732b7b760e11b610600840152825282518084018452600880825267537465616c74687960c01b602083810191909152808501929092528451808601865260068082526553656e74727960d01b8285015285870191909152855180870187526007808252664c69626572747960c81b82860152606087019190915286518088018852818152662a343ab73232b960c91b81860152608087015286518088018852600580825264088cac2e8d60db1b8287015260a08801919091528751808901895286815263151bdbdb60e21b8187015260c088015287518089018952958652634a756e6b60e01b8686015260e08701959095528651808801885285815264426c61636b60d81b81860152610100870152865180880188528581526421bcb132b960d91b818601526101208701528651808801885283815267119a5c995dd85b1b60c21b818601526101408701528651808801885285815264053686172760dc1b818601526101608701528651808801885281815266213930bbb632b960c91b8186015261018087015286518088018852828152652430b1b5b2b960d11b818601526101a087015286518088018852818152661498591a585b9d60ca1b818601526101c0870152865180880188528281526521b4b83432b960d11b818601526101e087015286518088018852828152652a3930b1b2b960d11b8186015261020087015286518088018852818152665068616e746f6d60c81b81860152610220870152865180880188528281526553617661676560d01b8186015261024087015286518088018852600a8082526914195c9cda5cdd195b9d60b21b82870152610260880191909152875180890189528381526514d95c9a585b60d21b81870152610280880152875180890189528381526513995d5c985b60d21b818701526102a08801528751808901895283815265111958d95a5d60d21b818701526102c088015287518089018952828152662630b1b8bab2b960c91b818701526102e0880152875180890189528381526529b0b83832b960d11b818701526103008801528751808901895286815264537061726b60d81b81870152610320880152875180890189528281526629b830b73732b960c91b8187015261034088015287518089018952828152665363756d62616760c81b818701526103608801528751808901895283815265546563686e6f60d01b8187015261038088015287518089018952600b81526a43796265726e657469637360a81b818701526103a08801528751808901895283815265536861646f7760d01b818701526103c088015287518089018952600c81526b151c985b9cd8d95b99195b9d60a21b818701526103e08801528751808901895290815269129d59d9d95c9b985d5d60b21b818601526104008701528651808801885285815264526574726f60d81b8186015261042087015286518088018852838152674d6574616c6c696360c01b81860152610440870152865180880188528381526710da195b5a58d85b60c21b81860152610460870152865180880188528381526714dc1958dd1c985b60c21b818601526104808701528651808801885281815266111a59da5d185b60ca1b818601526104a0870152865180880188526009808252682132b939b2b935b2b960b91b828701526104c08801919091528751808901895283815265283437ba37b760d11b818701526104e08801528751808901895282815266416e617263687960c81b81870152610500880152875180890189529283526521b0b93137b760d11b8386015261052087019290925286518088018852818152664379616e69646560c81b8186015261054087015286518088018852928352674879706e6f74696360c01b8385015261056086019290925285518087018752908152682232b1b93cb83a37b960b91b81840152610580850152845180860186529283526411da1bdcdd60da1b838301526105a08401929092528351808501909452908352660a0d0decadcd2f60cb1b908301526105c0810191909152620013c190601590602f62001559565b50348015620013cf57600080fd5b5060405180604001604052806004815260200163131bdbdd60e21b815250604051806040016040528060048152602001631313d3d560e21b815250816000908051906020019062001422929190620015ab565b50805162001438906001906020840190620015ab565b50506001600a55506200144b3362001451565b620016ed565b600b80546001600160a01b038381166001600160a01b0319831681179093556040519116919082907f8be0079c531659141344cd1fd0a4f28419497f9722a3daafe3b4186f6b6457e090600090a35050565b828054828255906000526020600020908101928215620014f5579160200282015b82811115620014f55782518051620014e4918491602090910190620015ab565b5091602001919060010190620014c4565b506200150392915062001636565b5090565b828054828255906000526020600020908101928215620014f5579160200282015b82811115620014f5578251805162001548918491602090910190620015ab565b509160200191906001019062001528565b828054828255906000526020600020908101928215620014f5579160200282015b82811115620014f557825180516200159a918491602090910190620015ab565b50916020019190600101906200157a565b828054620015b990620016b0565b90600052602060002090601f016020900481019282620015dd576000855562001628565b82601f10620015f857805160ff191683800117855562001628565b8280016001018555821562001628579182015b82811115620016285782518255916020019190600101906200160b565b506200150392915062001657565b80821115620015035760006200164d82826200166e565b5060010162001636565b5b8082111562001503576000815560010162001658565b5080546200167c90620016b0565b6000825580601f106200168d575050565b601f016020900490600052602060002090810190620016ad919062001657565b50565b600181811c90821680620016c557607f821691505b60208210811415620016e757634e487b7160e01b600052602260045260246000fd5b50919050565b61387680620016fd6000396000f3fe6080604052600436106101cd5760003560e01c806370a08231116100f7578063b19daab211610095578063e2f8451e11610064578063e2f8451e14610547578063e985e9c514610567578063f2fde38b146105b0578063f72a3d89146105d057600080fd5b8063b19daab2146104b9578063b88d4fde146104e7578063c87b56dd14610507578063cf3484251461052757600080fd5b80638da5cb5b116100d15780638da5cb5b146104535780639043a3741461047157806395d89b4114610484578063a22cb4651461049957600080fd5b806370a08231146103f1578063715018a6146104115780637a9559501461042657600080fd5b80631cead9a71161016f5780634e71d92d1161013e5780634e71d92d146103895780634f6ccce7146103915780636352211e146103b157806369b9321f146103d157600080fd5b80631cead9a7146102fc57806323b872dd146103295780632f745c591461034957806342842e0e1461036957600080fd5b8063095ea7b3116101ab578063095ea7b31461026157806318160ddd146102835780631ac56992146102a25780631ca5ca4e146102cf57600080fd5b806301ffc9a7146101d257806306fdde0314610207578063081812fc14610229575b600080fd5b3480156101de57600080fd5b506101f26101ed366004612dcb565b6105f0565b60405190151581526020015b60405180910390f35b34801561021357600080fd5b5061021c61061b565b6040516101fe91906133fe565b34801561023557600080fd5b50610249610244366004612ea6565b6106ad565b6040516001600160a01b0390911681526020016101fe565b34801561026d57600080fd5b5061028161027c366004612da1565b610747565b005b34801561028f57600080fd5b506008545b6040519081526020016101fe565b3480156102ae57600080fd5b506102946102bd366004612c5f565b60116020526000908152604090205481565b3480156102db57600080fd5b506102946102ea366004612c5f565b600f6020526000908152604090205481565b34801561030857600080fd5b50610294610317366004612c5f565b60126020526000908152604090205481565b34801561033557600080fd5b50610281610344366004612cad565b61085d565b34801561035557600080fd5b50610294610364366004612da1565b61088e565b34801561037557600080fd5b50610281610384366004612cad565b610924565b61028161093f565b34801561039d57600080fd5b506102946103ac366004612ea6565b610bac565b3480156103bd57600080fd5b506102496103cc366004612ea6565b610c3f565b3480156103dd57600080fd5b5061021c6103ec366004612ebf565b610cb6565b3480156103fd57600080fd5b5061029461040c366004612c5f565b610ce8565b34801561041d57600080fd5b50610281610d6f565b34801561043257600080fd5b50610294610441366004612ea6565b60106020526000908152604090205481565b34801561045f57600080fd5b50600b546001600160a01b0316610249565b61028161047f366004612e05565b610dd5565b34801561049057600080fd5b5061021c610f66565b3480156104a557600080fd5b506102816104b4366004612d65565b610f75565b3480156104c557600080fd5b506104d96104d4366004612ea6565b61103a565b6040516101fe929190613411565b3480156104f357600080fd5b50610281610502366004612ce9565b6110ff565b34801561051357600080fd5b5061021c610522366004612ea6565b611137565b34801561053357600080fd5b5061021c610542366004612ea6565b6115ee565b34801561055357600080fd5b5061021c610562366004612ebf565b611a44565b34801561057357600080fd5b506101f2610582366004612c7a565b6001600160a01b03918216600090815260056020908152604080832093909416825291909152205460ff1690565b3480156105bc57600080fd5b506102816105cb366004612c5f565b611a74565b3480156105dc57600080fd5b5061021c6105eb366004612ebf565b611b3f565b60006001600160e01b0319821663780e9d6360e01b1480610615575061061582611b6a565b92915050565b60606000805461062a9061359d565b80601f01602080910402602001604051908101604052809291908181526020018280546106569061359d565b80156106a35780601f10610678576101008083540402835291602001916106a3565b820191906000526020600020905b81548152906001019060200180831161068657829003601f168201915b5050505050905090565b6000818152600260205260408120546001600160a01b031661072b5760405162461bcd60e51b815260206004820152602c60248201527f4552433732313a20617070726f76656420717565727920666f72206e6f6e657860448201526b34b9ba32b73a103a37b5b2b760a11b60648201526084015b60405180910390fd5b506000908152600460205260409020546001600160a01b031690565b600061075282610c3f565b9050806001600160a01b0316836001600160a01b031614156107c05760405162461bcd60e51b815260206004820152602160248201527f4552433732313a20617070726f76616c20746f2063757272656e74206f776e656044820152603960f91b6064820152608401610722565b336001600160a01b03821614806107dc57506107dc8133610582565b61084e5760405162461bcd60e51b815260206004820152603860248201527f4552433732313a20617070726f76652063616c6c6572206973206e6f74206f7760448201527f6e6572206e6f7220617070726f76656420666f7220616c6c00000000000000006064820152608401610722565b6108588383611bba565b505050565b6108673382611c28565b6108835760405162461bcd60e51b81526004016107229061348d565b610858838383611d1f565b600061089983610ce8565b82106108fb5760405162461bcd60e51b815260206004820152602b60248201527f455243373231456e756d657261626c653a206f776e657220696e646578206f7560448201526a74206f6620626f756e647360a81b6064820152608401610722565b506001600160a01b03919091166000908152600660209081526040808320938352929052205490565b610858838383604051806020016040528060008152506110ff565b6002600a5414156109925760405162461bcd60e51b815260206004820152601f60248201527f5265656e7472616e637947756172643a207265656e7472616e742063616c6c006044820152606401610722565b6002600a5566b1a2bc2ec500003410156109db5760405162461bcd60e51b815260206004820152600a60248201526946656520746f206c6f7760b01b6044820152606401610722565b600d546000610a106109ec83611eca565b6040516020016109fc91906130cf565b604051602081830303815290604052611fc8565b600c54909150600090610a2390836135f3565b90506000600c8281548110610a3a57610a3a613649565b600091825260208220600460059092020101546040516001600160a01b03909116925082913480156108fc02929091818181858888f19350505050158015610a86573d6000803e3d6000fd5b5060008481526010602090815260408083208590556001600160a01b038416835260119091528120805460019290610abf90849061350f565b9091555060009050610ad2600234613527565b6001600160a01b038316600090815260126020526040812080549293508392909190610aff90849061350f565b90915550506040516001600160a01b0383169082156108fc029083906000818181858888f19350505050158015610b3a573d6000803e3d6000fd5b506001600d6000828254610b4e919061350f565b90915550610b5e90503386611ff9565b604080516001600160a01b0384168152602081018390527fc5a2b7ad6439179b1edea47d8a4bc00b2c5270a1c741c00fab7be4012caa7d0a910160405180910390a150506001600a55505050565b6000610bb760085490565b8210610c1a5760405162461bcd60e51b815260206004820152602c60248201527f455243373231456e756d657261626c653a20676c6f62616c20696e646578206f60448201526b7574206f6620626f756e647360a01b6064820152608401610722565b60088281548110610c2d57610c2d613649565b90600052602060002001549050919050565b6000818152600260205260408120546001600160a01b0316806106155760405162461bcd60e51b815260206004820152602960248201527f4552433732313a206f776e657220717565727920666f72206e6f6e657869737460448201526832b73a103a37b5b2b760b91b6064820152608401610722565b6060610ce183604051806040016040528060068152602001652ba2a0a827a760d11b81525084612017565b9392505050565b60006001600160a01b038216610d535760405162461bcd60e51b815260206004820152602a60248201527f4552433732313a2062616c616e636520717565727920666f7220746865207a65604482015269726f206164647265737360b01b6064820152608401610722565b506001600160a01b031660009081526003602052604090205490565b600b546001600160a01b03163314610dc95760405162461bcd60e51b815260206004820181905260248201527f4f776e61626c653a2063616c6c6572206973206e6f7420746865206f776e65726044820152606401610722565b610dd360006122dc565b565b66b1a2bc2ec50000341015610e1a5760405162461bcd60e51b815260206004820152600b60248201526a46656520746f6f206c6f7760a81b6044820152606401610722565b610e556040518060a001604052806060815260200160608152602001606081526020016060815260200160006001600160a01b031681525090565b602080820185905260408083018590526060830184905286835233608084018190526000908152600f9092528120805460019290610e9490849061350f565b9091555050600c80546001810182556000919091528151805183926005027fdf6966c971051c3d54ec59162606531493a51404a002842f56009d7e5cf4a8c70191610ee49183916020019061299d565b506020828101518051610efd9260018501920190612a21565b5060408201518051610f19916002840191602090910190612a21565b5060608201518051610f35916003840191602090910190612a21565b5060809190910151600490910180546001600160a01b0319166001600160a01b039092169190911790555050505050565b60606001805461062a9061359d565b6001600160a01b038216331415610fce5760405162461bcd60e51b815260206004820152601960248201527f4552433732313a20617070726f766520746f2063616c6c6572000000000000006044820152606401610722565b3360008181526005602090815260408083206001600160a01b03871680855290835292819020805460ff191686151590811790915590519081529192917f17307eab39ab6107e8899845ad3d59bd9653f200f220920489ca2b5937696c31910160405180910390a35050565b600c818154811061104a57600080fd5b906000526020600020906005020160009150905080600001805461106d9061359d565b80601f01602080910402602001604051908101604052809291908181526020018280546110999061359d565b80156110e65780601f106110bb576101008083540402835291602001916110e6565b820191906000526020600020905b8154815290600101906020018083116110c957829003601f168201915b505050600490930154919250506001600160a01b031682565b6111093383611c28565b6111255760405162461bcd60e51b81526004016107229061348d565b6111318484848461232e565b50505050565b600081815260106020526040812054600c805460609391908390811061115f5761115f613649565b9060005260206000209060050201600101805480602002602001604051908101604052809291908181526020016000905b8282101561123c5783829060005260206000200180546111af9061359d565b80601f01602080910402602001604051908101604052809291908181526020018280546111db9061359d565b80156112285780601f106111fd57610100808354040283529160200191611228565b820191906000526020600020905b81548152906001019060200180831161120b57829003601f168201915b505050505081526020019060010190611190565b5050505090506000600c838154811061125757611257613649565b9060005260206000209060050201600201805480602002602001604051908101604052809291908181526020016000905b828210156113345783829060005260206000200180546112a79061359d565b80601f01602080910402602001604051908101604052809291908181526020018280546112d39061359d565b80156113205780601f106112f557610100808354040283529160200191611320565b820191906000526020600020905b81548152906001019060200180831161130357829003601f168201915b505050505081526020019060010190611288565b5050505090506000600c848154811061134f5761134f613649565b9060005260206000209060050201600301805480602002602001604051908101604052809291908181526020016000905b8282101561142c57838290600052602060002001805461139f9061359d565b80601f01602080910402602001604051908101604052809291908181526020018280546113cb9061359d565b80156114185780601f106113ed57610100808354040283529160200191611418565b820191906000526020600020905b8154815290600101906020018083116113fb57829003601f168201915b505050505081526020019060010190611380565b50505050905061143a612a7a565b60405180610120016040528060fd81526020016136dc60fd913981526114608785610cb6565b81600160200201819052506040518060600160405280602881526020016138196028913960408201526114938784611b3f565b606080830191909152604080519182019052602880825261368c602083013960808201526114c18783611a44565b60a0820152604080516060810190915260288082526136b4602083013960c082015260408051808201909152600d81526c1e17ba32bc3a1f1e17b9bb339f60991b6020820152816007602090810291909101919091528151828201516040808501516060860151608087015160a088015160c089015194516000986115499897969101612f7d565b60408051808303601f190181529082905260e084015190925061157191839190602001612f4e565b604051602081830303815290604052905060006115be6115908a611eca565b61159984612361565b6040516020016115aa9291906131e6565b604051602081830303815290604052612361565b9050806040516020016115d1919061337c565b60408051601f198184030181529190529998505050505050505050565b600081815260106020526040812054600c805460609391908390811061161657611616613649565b9060005260206000209060050201600101805480602002602001604051908101604052809291908181526020016000905b828210156116f35783829060005260206000200180546116669061359d565b80601f01602080910402602001604051908101604052809291908181526020018280546116929061359d565b80156116df5780601f106116b4576101008083540402835291602001916116df565b820191906000526020600020905b8154815290600101906020018083116116c257829003601f168201915b505050505081526020019060010190611647565b5050505090506000600c838154811061170e5761170e613649565b9060005260206000209060050201600201805480602002602001604051908101604052809291908181526020016000905b828210156117eb57838290600052602060002001805461175e9061359d565b80601f016020809104026020016040519081016040528092919081815260200182805461178a9061359d565b80156117d75780601f106117ac576101008083540402835291602001916117d7565b820191906000526020600020905b8154815290600101906020018083116117ba57829003601f168201915b50505050508152602001906001019061173f565b5050505090506000600c848154811061180657611806613649565b9060005260206000209060050201600301805480602002602001604051908101604052809291908181526020016000905b828210156118e35783829060005260206000200180546118569061359d565b80601f01602080910402602001604051908101604052809291908181526020018280546118829061359d565b80156118cf5780601f106118a4576101008083540402835291602001916118cf565b820191906000526020600020905b8154815290600101906020018083116118b257829003601f168201915b505050505081526020019060010190611837565b5050505090506118f1612a7a565b60405180610120016040528060fd81526020016136dc60fd913981526119178785610cb6565b816001602002018190525060405180606001604052806028815260200161381960289139604082015261194a8784611b3f565b606080830191909152604080519182019052602880825261368c602083013960808201526119788783611a44565b60a0820152604080516060810190915260288082526136b4602083013960c082015260408051808201909152600d81526c1e17ba32bc3a1f1e17b9bb339f60991b6020820152816007602090810291909101919091528151828201516040808501516060860151608087015160a088015160c08901519451600098611a009897969101612f7d565b60408051808303601f190181529082905260e0840151909250611a2891839190602001612f4e565b60408051601f1981840301815291905298975050505050505050565b6060610ce1836040518060400160405280600b81526020016a4143434553534f5249455360a81b81525084612017565b600b546001600160a01b03163314611ace5760405162461bcd60e51b815260206004820181905260248201527f4f776e61626c653a2063616c6c6572206973206e6f7420746865206f776e65726044820152606401610722565b6001600160a01b038116611b335760405162461bcd60e51b815260206004820152602660248201527f4f776e61626c653a206e6577206f776e657220697320746865207a65726f206160448201526564647265737360d01b6064820152608401610722565b611b3c816122dc565b50565b6060610ce1836040518060400160405280600681526020016541545449524560d01b81525084612017565b60006001600160e01b031982166380ac58cd60e01b1480611b9b57506001600160e01b03198216635b5e139f60e01b145b8061061557506301ffc9a760e01b6001600160e01b0319831614610615565b600081815260046020526040902080546001600160a01b0319166001600160a01b0384169081179091558190611bef82610c3f565b6001600160a01b03167f8c5be1e5ebec7d5bd14f71427d1e84f3dd0314c0f7b2291e5b200ac8c7c3b92560405160405180910390a45050565b6000818152600260205260408120546001600160a01b0316611ca15760405162461bcd60e51b815260206004820152602c60248201527f4552433732313a206f70657261746f7220717565727920666f72206e6f6e657860448201526b34b9ba32b73a103a37b5b2b760a11b6064820152608401610722565b6000611cac83610c3f565b9050806001600160a01b0316846001600160a01b03161480611ce75750836001600160a01b0316611cdc846106ad565b6001600160a01b0316145b80611d1757506001600160a01b0380821660009081526005602090815260408083209388168352929052205460ff165b949350505050565b826001600160a01b0316611d3282610c3f565b6001600160a01b031614611d9a5760405162461bcd60e51b815260206004820152602960248201527f4552433732313a207472616e73666572206f6620746f6b656e2074686174206960448201526839903737ba1037bbb760b91b6064820152608401610722565b6001600160a01b038216611dfc5760405162461bcd60e51b8152602060048201526024808201527f4552433732313a207472616e7366657220746f20746865207a65726f206164646044820152637265737360e01b6064820152608401610722565b611e078383836124c7565b611e12600082611bba565b6001600160a01b0383166000908152600360205260408120805460019290611e3b90849061355a565b90915550506001600160a01b0382166000908152600360205260408120805460019290611e6990849061350f565b909155505060008181526002602052604080822080546001600160a01b0319166001600160a01b0386811691821790925591518493918716917fddf252ad1be2c89b69c2b068fc378daa952ba7f163c4a11628f55a4df523b3ef91a4505050565b606081611eee5750506040805180820190915260018152600360fc1b602082015290565b8160005b8115611f185780611f02816135d8565b9150611f119050600a83613527565b9150611ef2565b60008167ffffffffffffffff811115611f3357611f3361365f565b6040519080825280601f01601f191660200182016040528015611f5d576020820181803683370190505b5090505b8415611d1757611f7260018361355a565b9150611f7f600a866135f3565b611f8a90603061350f565b60f81b818381518110611f9f57611f9f613649565b60200101906001600160f81b031916908160001a905350611fc1600a86613527565b9450611f61565b600081604051602001611fdb9190612f32565b60408051601f19818403018152919052805160209091012092915050565b61201382826040518060200160405280600081525061257f565b5050565b606060006120398461202887611eca565b6040516020016109fc929190612f4e565b905060008384518361204b91906135f3565b8151811061205b5761205b613649565b60200260200101519050600060158361207491906135f3565b9050600e8111156120cd576013805483919061209090866135f3565b815481106120a0576120a0613649565b906000526020600020016040516020016120bb92919061300f565b60405160208183030381529060405291505b601381106122d2576120dd612aa2565b601480546120eb90866135f3565b815481106120fb576120fb613649565b9060005260206000200180546121109061359d565b80601f016020809104026020016040519081016040528092919081815260200182805461213c9061359d565b80156121895780601f1061215e57610100808354040283529160200191612189565b820191906000526020600020905b81548152906001019060200180831161216c57829003601f168201915b5050505050816000600281106121a1576121a1613649565b6020020152601580546121b490866135f3565b815481106121c4576121c4613649565b9060005260206000200180546121d99061359d565b80601f01602080910402602001604051908101604052809291908181526020018280546122059061359d565b80156122525780601f1061222757610100808354040283529160200191612252565b820191906000526020600020905b81548152906001019060200180831161223557829003601f168201915b50505050508160016002811061226a5761226a613649565b602002015260138214156122a657805160208083015160405161229093928791016130fa565b60405160208183030381529060405292506122d0565b80516020808301516040516122be9392879101613168565b60405160208183030381529060405292505b505b5095945050505050565b600b80546001600160a01b038381166001600160a01b0319831681179093556040519116919082907f8be0079c531659141344cd1fd0a4f28419497f9722a3daafe3b4186f6b6457e090600090a35050565b612339848484611d1f565b612345848484846125b2565b6111315760405162461bcd60e51b81526004016107229061343b565b805160609080612381575050604080516020810190915260008152919050565b6000600361239083600261350f565b61239a9190613527565b6123a590600461353b565b905060006123b482602061350f565b67ffffffffffffffff8111156123cc576123cc61365f565b6040519080825280601f01601f1916602001820160405280156123f6576020820181803683370190505b50905060006040518060600160405280604081526020016137d9604091399050600181016020830160005b86811015612482576003818a01810151603f601282901c8116860151600c83901c8216870151600684901c831688015192909316870151600891821b60ff94851601821b92841692909201901b91160160e01b835260049092019101612421565b50600386066001811461249c57600281146124ad576124b9565b613d3d60f01b6001198301526124b9565b603d60f81b6000198301525b505050918152949350505050565b6001600160a01b0383166125225761251d81600880546000838152600960205260408120829055600182018355919091527ff3f7a9fe364faab93b216da50a3214154f22a0a2b415b23a84c8169e8b636ee30155565b612545565b816001600160a01b0316836001600160a01b0316146125455761254583826126bf565b6001600160a01b03821661255c576108588161275c565b826001600160a01b0316826001600160a01b03161461085857610858828261280b565b612589838361284f565b61259660008484846125b2565b6108585760405162461bcd60e51b81526004016107229061343b565b60006001600160a01b0384163b156126b457604051630a85bd0160e11b81526001600160a01b0385169063150b7a02906125f69033908990889088906004016133c1565b602060405180830381600087803b15801561261057600080fd5b505af1925050508015612640575060408051601f3d908101601f1916820190925261263d91810190612de8565b60015b61269a573d80801561266e576040519150601f19603f3d011682016040523d82523d6000602084013e612673565b606091505b5080516126925760405162461bcd60e51b81526004016107229061343b565b805181602001fd5b6001600160e01b031916630a85bd0160e11b149050611d17565b506001949350505050565b600060016126cc84610ce8565b6126d6919061355a565b600083815260076020526040902054909150808214612729576001600160a01b03841660009081526006602090815260408083208584528252808320548484528184208190558352600790915290208190555b5060009182526007602090815260408084208490556001600160a01b039094168352600681528383209183525290812055565b60085460009061276e9060019061355a565b6000838152600960205260408120546008805493945090928490811061279657612796613649565b9060005260206000200154905080600883815481106127b7576127b7613649565b60009182526020808320909101929092558281526009909152604080822084905585825281205560088054806127ef576127ef613633565b6001900381819060005260206000200160009055905550505050565b600061281683610ce8565b6001600160a01b039093166000908152600660209081526040808320868452825280832085905593825260079052919091209190915550565b6001600160a01b0382166128a55760405162461bcd60e51b815260206004820181905260248201527f4552433732313a206d696e7420746f20746865207a65726f20616464726573736044820152606401610722565b6000818152600260205260409020546001600160a01b03161561290a5760405162461bcd60e51b815260206004820152601c60248201527f4552433732313a20746f6b656e20616c7265616479206d696e746564000000006044820152606401610722565b612916600083836124c7565b6001600160a01b038216600090815260036020526040812080546001929061293f90849061350f565b909155505060008181526002602052604080822080546001600160a01b0319166001600160a01b03861690811790915590518392907fddf252ad1be2c89b69c2b068fc378daa952ba7f163c4a11628f55a4df523b3ef908290a45050565b8280546129a99061359d565b90600052602060002090601f0160209004810192826129cb5760008555612a11565b82601f106129e457805160ff1916838001178555612a11565b82800160010185558215612a11579182015b82811115612a115782518255916020019190600101906129f6565b50612a1d929150612abb565b5090565b828054828255906000526020600020908101928215612a6e579160200282015b82811115612a6e5782518051612a5e91849160209091019061299d565b5091602001919060010190612a41565b50612a1d929150612ad0565b6040518061010001604052806008905b6060815260200190600190039081612a8a5790505090565b6040805180820190915260608152600160208201612a8a565b5b80821115612a1d5760008155600101612abc565b80821115612a1d576000612ae48282612aed565b50600101612ad0565b508054612af99061359d565b6000825580601f10612b09575050565b601f016020900490600052602060002090810190611b3c9190612abb565b600067ffffffffffffffff831115612b4157612b4161365f565b612b54601f8401601f19166020016134de565b9050828152838383011115612b6857600080fd5b828260208301376000602084830101529392505050565b80356001600160a01b0381168114612b9657600080fd5b919050565b600082601f830112612bac57600080fd5b8135602067ffffffffffffffff80831115612bc957612bc961365f565b8260051b612bd88382016134de565b8481528381019087850183890186018a1015612bf357600080fd5b60009350835b87811015612c3057813586811115612c0f578586fd5b612c1d8c89838e0101612c3f565b8552509286019290860190600101612bf9565b50909998505050505050505050565b600082601f830112612c5057600080fd5b610ce183833560208501612b27565b600060208284031215612c7157600080fd5b610ce182612b7f565b60008060408385031215612c8d57600080fd5b612c9683612b7f565b9150612ca460208401612b7f565b90509250929050565b600080600060608486031215612cc257600080fd5b612ccb84612b7f565b9250612cd960208501612b7f565b9150604084013590509250925092565b60008060008060808587031215612cff57600080fd5b612d0885612b7f565b9350612d1660208601612b7f565b925060408501359150606085013567ffffffffffffffff811115612d3957600080fd5b8501601f81018713612d4a57600080fd5b612d5987823560208401612b27565b91505092959194509250565b60008060408385031215612d7857600080fd5b612d8183612b7f565b915060208301358015158114612d9657600080fd5b809150509250929050565b60008060408385031215612db457600080fd5b612dbd83612b7f565b946020939093013593505050565b600060208284031215612ddd57600080fd5b8135610ce181613675565b600060208284031215612dfa57600080fd5b8151610ce181613675565b60008060008060808587031215612e1b57600080fd5b843567ffffffffffffffff80821115612e3357600080fd5b612e3f88838901612c3f565b95506020870135915080821115612e5557600080fd5b612e6188838901612b9b565b94506040870135915080821115612e7757600080fd5b612e8388838901612b9b565b93506060870135915080821115612e9957600080fd5b50612d5987828801612b9b565b600060208284031215612eb857600080fd5b5035919050565b60008060408385031215612ed257600080fd5b82359150602083013567ffffffffffffffff811115612ef057600080fd5b612efc85828601612b9b565b9150509250929050565b60008151808452612f1e816020860160208601613571565b601f01601f19169290920160200192915050565b60008251612f44818460208701613571565b9190910192915050565b60008351612f60818460208801613571565b835190830190612f74818360208801613571565b01949350505050565b600088516020612f908285838e01613571565b895191840191612fa38184848e01613571565b8951920191612fb58184848d01613571565b8851920191612fc78184848c01613571565b8751920191612fd98184848b01613571565b8651920191612feb8184848a01613571565b8551920191612ffd8184848901613571565b919091019a9950505050505050505050565b6000835160206130228285838901613571565b600160fd1b918401918252845460019060009080831c8184168061304757607f821691505b85821081141561306557634e487b7160e01b84526022600452602484fd5b808015613079576001811461308e576130bf565b60ff19841688870152828801860194506130bf565b60008b81526020902060005b848110156130b55781548a820189015290870190880161309a565b5050858389010194505b50929a9950505050505050505050565b6211d41560ea1b8152600082516130ed816003850160208701613571565b9190910160030192915050565b601160f91b81528351600090613117816001850160208901613571565b600160fd1b6001918401918201528451613138816002840160208901613571565b61011160f51b60029290910191820152835161315b816004840160208801613571565b0160040195945050505050565b601160f91b81528351600090613185816001850160208901613571565b600160fd1b60019184019182015284516131a6816002840160208901613571565b61011160f51b6002929091019182015283516131c9816004840160208801613571565b62202b3160e81b6004929091019182015260070195945050505050565b6e7b226e616d65223a2022426167202360881b8152825160009061321181600f850160208801613571565b80830190507f222c20226465736372697074696f6e223a20224c6f6f742069732072616e646f600f8201527f6d697a656420616476656e747572657220676561722067656e65726174656420602f8201527f616e642073746f726564206f6e20636861696e2e2053746174732c20696d6167604f8201527f65732c20616e64206f746865722066756e6374696f6e616c6974792061726520606f8201527f696e74656e74696f6e616c6c79206f6d697474656420666f72206f7468657273608f8201527f20746f20696e746572707265742e204665656c206672656520746f207573652060af8201527f4c6f6f7420696e20616e792077617920796f752077616e742e222c2022696d6160cf8201527f6765223a2022646174613a696d6167652f7376672b786d6c3b6261736536342c60ef82015261010f845161335b8183850160208901613571565b613371828285010161227d60f01b815260020190565b979650505050505050565b7f646174613a6170706c69636174696f6e2f6a736f6e3b6261736536342c0000008152600082516133b481601d850160208701613571565b91909101601d0192915050565b6001600160a01b03858116825284166020820152604081018390526080606082018190526000906133f490830184612f06565b9695505050505050565b602081526000610ce16020830184612f06565b6040815260006134246040830185612f06565b905060018060a01b03831660208301529392505050565b60208082526032908201527f4552433732313a207472616e7366657220746f206e6f6e20455243373231526560408201527131b2b4bb32b91034b6b83632b6b2b73a32b960711b606082015260800190565b60208082526031908201527f4552433732313a207472616e736665722063616c6c6572206973206e6f74206f6040820152701ddb995c881b9bdc88185c1c1c9bdd9959607a1b606082015260800190565b604051601f8201601f1916810167ffffffffffffffff811182821017156135075761350761365f565b604052919050565b6000821982111561352257613522613607565b500190565b6000826135365761353661361d565b500490565b600081600019048311821515161561355557613555613607565b500290565b60008282101561356c5761356c613607565b500390565b60005b8381101561358c578181015183820152602001613574565b838111156111315750506000910152565b600181811c908216806135b157607f821691505b602082108114156135d257634e487b7160e01b600052602260045260246000fd5b50919050565b60006000198214156135ec576135ec613607565b5060010190565b6000826136025761360261361d565b500690565b634e487b7160e01b600052601160045260246000fd5b634e487b7160e01b600052601260045260246000fd5b634e487b7160e01b600052603160045260246000fd5b634e487b7160e01b600052603260045260246000fd5b634e487b7160e01b600052604160045260246000fd5b6001600160e01b031981168114611b3c57600080fdfe3c2f746578743e3c7465787420783d2231302220793d2236302220636c6173733d2262617365223e3c2f746578743e3c7465787420783d2231302220793d2238302220636c6173733d2262617365223e3c73766720786d6c6e733d22687474703a2f2f7777772e77332e6f72672f323030302f73766722207072657365727665417370656374526174696f3d22784d696e594d696e206d656574222076696577426f783d223020302033353020333530223e3c7374796c653e2e62617365207b2066696c6c3a2077686974653b20666f6e742d66616d696c793a2073657269663b20666f6e742d73697a653a20313470783b207d3c2f7374796c653e3c726563742077696474683d223130302522206865696768743d2231303025222066696c6c3d22626c61636b22202f3e3c7465787420783d2231302220793d2232302220636c6173733d2262617365223e4142434445464748494a4b4c4d4e4f505152535455565758595a6162636465666768696a6b6c6d6e6f707172737475767778797a303132333435363738392b2f3c2f746578743e3c7465787420783d2231302220793d2234302220636c6173733d2262617365223ea2646970667358221220250b7a9f04d7e865a6b5e02a94d695b9a345940588a860f4e81108d9bb7a7ec064736f6c63430008070033","bytecodeSha1":"6aae4016f22e9c8ec6d94d2b3829cf0d546d6d85","type":"contract","abi":[{"inputs":[],"stateMutability":"nonpayable","type":"constructor","name":"constructor"},{"anonymous":false,"inputs":[{"indexed":true,"internalType":"address","name":"owner","type":"address"},{"indexed":true,"internalType":"address","name":"approved","type":"address"},{"indexed":true,"internalType":"uint256","name":"tokenId","type":"uint256"}],"name":"Approval","type":"event"},{"anonymous":false,"inputs":[{"indexed":true,"internalType":"address","name":"owner","type":"address"},{"indexed":true,"internalType":"address","name":"operator","type":"address"},{"indexed":false,"internalType":"bool","name":"approved","type":"bool"}],"name":"ApprovalForAll","type":"event"},{"anonymous":false,"inputs":[{"indexed":true,"internalType":"address","name":"previousOwner","type":"address"},{"indexed":true,"internalType":"address","name":"newOwner","type":"address"}],"name":"OwnershipTransferred","type":"event"},{"anonymous":false,"inputs":[{"indexed":true,"internalType":"address","name":"from","type":"address"},{"indexed":true,"internalType":"address","name":"to","type":"address"},{"indexed":true,"internalType":"uint256","name":"tokenId","type":"uint256"}],"name":"Transfer","type":"event"},{"anonymous":false,"inputs":[{"indexed":false,"internalType":"address","name":"to","type":"address"},{"indexed":false,"internalType":"uint256","name":"fee","type":"uint256"}],"name":"feeCollected","type":"event"},{"inputs":[{"internalType":"string","name":"_theme","type":"string"},{"internalType":"string[]","name":"_weapons","type":"string[]"},{"internalType":"string[]","name":"_attire","type":"string[]"},{"internalType":"string[]","name":"_accessories","type":"string[]"}],"name":"addItemSet","outputs":[],"stateMutability":"payable","type":"function"},{"inputs":[{"internalType":"address","name":"to","type":"address"},{"internalType":"uint256","name":"tokenId","type":"uint256"}],"name":"approve","outputs":[],"stateMutability":"nonpayable","type":"function"},{"inputs":[{"internalType":"address","name":"owner","type":"address"}],"name":"balanceOf","outputs":[{"internalType":"uint256","name":"","type":"uint256"}],"stateMutability":"view","type":"function"},{"inputs":[],"name":"claim","outputs":[],"stateMutability":"payable","type":"function"},{"inputs":[{"internalType":"address","name":"","type":"address"}],"name":"collectedFees","outputs":[{"internalType":"uint256","name":"","type":"uint256"}],"stateMutability":"view","type":"function"},{"inputs":[{"internalType":"uint256","name":"tokenId","type":"uint256"},{"internalType":"string[]","name":"accessories","type":"string[]"}],"name":"getAccessories","outputs":[{"internalType":"string","name":"","type":"string"}],"stateMutability":"view","type":"function"},{"inputs":[{"internalType":"uint256","name":"tokenId","type":"uint256"}],"name":"getApproved","outputs":[{"internalType":"address","name":"","type":"address"}],"stateMutability":"view","type":"function"},{"inputs":[{"internalType":"uint256","name":"tokenId","type":"uint256"},{"internalType":"string[]","name":"attire","type":"string[]"}],"name":"getAttire","outputs":[{"internalType":"string","name":"","type":"string"}],"stateMutability":"view","type":"function"},{"inputs":[{"internalType":"uint256","name":"tokenId","type":"uint256"},{"internalType":"string[]","name":"weapons","type":"string[]"}],"name":"getWeapon","outputs":[{"internalType":"string","name":"","type":"string"}],"stateMutability":"view","type":"function"},{"inputs":[{"internalType":"address","name":"owner","type":"address"},{"internalType":"address","name":"operator","type":"address"}],"name":"isApprovedForAll","outputs":[{"internalType":"bool","name":"","type":"bool"}],"stateMutability":"view","type":"function"},{"inputs":[{"internalType":"uint256","name":"","type":"uint256"}],"name":"itemSets","outputs":[{"internalType":"string","name":"theme","type":"string"},{"internalType":"address payable","name":"creator","type":"address"}],"stateMutability":"view","type":"function"},{"inputs":[],"name":"name","outputs":[{"internalType":"string","name":"","type":"string"}],"stateMutability":"view","type":"function"},{"inputs":[{"internalType":"address","name":"","type":"address"}],"name":"numItemsSets","outputs":[{"internalType":"uint256","name":"","type":"uint256"}],"stateMutability":"view","type":"function"},{"inputs":[],"name":"owner","outputs":[{"internalType":"address","name":"","type":"address"}],"stateMutability":"view","type":"function"},{"inputs":[{"internalType":"uint256","name":"tokenId","type":"uint256"}],"name":"ownerOf","outputs":[{"internalType":"address","name":"","type":"address"}],"stateMutability":"view","type":"function"},{"inputs":[],"name":"renounceOwnership","outputs":[],"stateMutability":"nonpayable","type":"function"},{"inputs":[{"internalType":"address","name":"from","type":"address"},{"internalType":"address","name":"to","type":"address"},{"internalType":"uint256","name":"tokenId","type":"uint256"}],"name":"safeTransferFrom","outputs":[],"stateMutability":"nonpayable","type":"function"},{"inputs":[{"internalType":"address","name":"from","type":"address"},{"internalType":"address","name":"to","type":"address"},{"internalType":"uint256","name":"tokenId","type":"uint256"},{"internalType":"bytes","name":"_data","type":"bytes"}],"name":"safeTransferFrom","outputs":[],"stateMutability":"nonpayable","type":"function"},{"inputs":[{"internalType":"address","name":"operator","type":"address"},{"internalType":"bool","name":"approved","type":"bool"}],"name":"setApprovalForAll","outputs":[],"stateMutability":"nonpayable","type":"function"},{"inputs":[{"internalType":"bytes4","name":"interfaceId","type":"bytes4"}],"name":"supportsInterface","outputs":[{"internalType":"bool","name":"","type":"bool"}],"stateMutability":"view","type":"function"},{"inputs":[],"name":"symbol","outputs":[{"internalType":"string","name":"","type":"string"}],"stateMutability":"view","type":"function"},{"inputs":[{"internalType":"uint256","name":"index","type":"uint256"}],"name":"tokenByIndex","outputs":[{"internalType":"uint256","name":"","type":"uint256"}],"stateMutability":"view","type":"function"},{"inputs":[{"internalType":"uint256","name":"","type":"uint256"}],"name":"tokenIdToRand","outputs":[{"internalType":"uint256","name":"","type":"uint256"}],"stateMutability":"view","type":"function"},{"inputs":[{"internalType":"uint256","name":"tokenId","type":"uint256"}],"name":"tokenImage","outputs":[{"internalType":"string","name":"","type":"string"}],"stateMutability":"view","type":"function"},{"inputs":[{"internalType":"address","name":"owner","type":"address"},{"internalType":"uint256","name":"index","type":"uint256"}],"name":"tokenOfOwnerByIndex","outputs":[{"internalType":"uint256","name":"","type":"uint256"}],"stateMutability":"view","type":"function"},{"inputs":[{"internalType":"uint256","name":"tokenId","type":"uint256"}],"name":"tokenURI","outputs":[{"internalType":"string","name":"","type":"string"}],"stateMutability":"view","type":"function"},{"inputs":[],"name":"totalSupply","outputs":[{"internalType":"uint256","name":"","type":"uint256"}],"stateMutability":"view","type":"function"},{"inputs":[{"internalType":"address","name":"from","type":"address"},{"internalType":"address","name":"to","type":"address"},{"internalType":"uint256","name":"tokenId","type":"uint256"}],"name":"transferFrom","outputs":[],"stateMutability":"nonpayable","type":"function"},{"inputs":[{"internalType":"address","name":"newOwner","type":"address"}],"name":"transferOwnership","outputs":[],"stateMutability":"nonpayable","type":"function"},{"inputs":[{"internalType":"address","name":"","type":"address"}],"name":"userToMinted","outputs":[{"internalType":"uint256","name":"","type":"uint256"}],"stateMutability":"view","type":"function"}],"compiler":{"version":"0.8.7+commit.e28d00a7","evm_version":"istanbul","optimizer":{"enabled":true,"runs":200}},"contractName":"Master","language":"Solidity","natspec":{"methods":{"approve(address,uint256)":{"details":"See {IERC721-approve}."},"balanceOf(address)":{"details":"See {IERC721-balanceOf}."},"getApproved(uint256)":{"details":"See {IERC721-getApproved}."},"isApprovedForAll(address,address)":{"details":"See {IERC721-isApprovedForAll}."},"name()":{"details":"See {IERC721Metadata-name}."},"owner()":{"details":"Returns the address of the current owner."},"ownerOf(uint256)":{"details":"See {IERC721-ownerOf}."},"renounceOwnership()":{"details":"Leaves the contract without owner. It will not be possible to call `onlyOwner` functions anymore. Can only be called by the current owner. NOTE: Renouncing ownership will leave the contract without an owner, thereby removing any functionality that is only available to the owner."},"safeTransferFrom(address,address,uint256)":{"details":"See {IERC721-safeTransferFrom}."},"safeTransferFrom(address,address,uint256,bytes)":{"details":"See {IERC721-safeTransferFrom}."},"setApprovalForAll(address,bool)":{"details":"See {IERC721-setApprovalForAll}."},"supportsInterface(bytes4)":{"details":"See {IERC165-supportsInterface}."},"symbol()":{"details":"See {IERC721Metadata-symbol}."},"tokenByIndex(uint256)":{"details":"See {IERC721Enumerable-tokenByIndex}."},"tokenOfOwnerByIndex(address,uint256)":{"details":"See {IERC721Enumerable-tokenOfOwnerByIndex}."},"tokenURI(uint256)":{"details":"See {IERC721Metadata-tokenURI}."},"totalSupply()":{"details":"See {IERC721Enumerable-totalSupply}."},"transferFrom(address,address,uint256)":{"details":"See {IERC721-transferFrom}."},"transferOwnership(address)":{"details":"Transfers ownership of the contract to a new account (`newOwner`). Can only be called by the current owner."}},"kind":"dev","version":1},"opcodes":"PUSH1 0x80 PUSH1 0x40 MSTORE PUSH1 0x4 CALLDATASIZE LT PUSH2 0x1CD JUMPI PUSH1 0x0 CALLDATALOAD PUSH1 0xE0 SHR DUP1 PUSH4 0x70A08231 GT PUSH2 0xF7 JUMPI DUP1 PUSH4 0xB19DAAB2 GT PUSH2 0x95 JUMPI DUP1 PUSH4 0xE2F8451E GT PUSH2 0x64 JUMPI DUP1 PUSH4 0xE2F8451E EQ PUSH2 0x547 JUMPI DUP1 PUSH4 0xE985E9C5 EQ PUSH2 0x567 JUMPI DUP1 PUSH4 0xF2FDE38B EQ PUSH2 0x5B0 JUMPI DUP1 PUSH4 0xF72A3D89 EQ PUSH2 0x5D0 JUMPI PUSH1 0x0 DUP1 REVERT JUMPDEST DUP1 PUSH4 0xB19DAAB2 EQ PUSH2 0x4B9 JUMPI DUP1 PUSH4 0xB88D4FDE EQ PUSH2 0x4E7 JUMPI DUP1 PUSH4 0xC87B56DD EQ PUSH2 0x507 JUMPI DUP1 PUSH4 0xCF348425 EQ PUSH2 0x527 JUMPI PUSH1 0x0 DUP1 REVERT JUMPDEST DUP1 PUSH4 0x8DA5CB5B GT PUSH2 0xD1 JUMPI DUP1 PUSH4 0x8DA5CB5B EQ PUSH2 0x453 JUMPI DUP1 PUSH4 0x9043A374 EQ PUSH2 0x471 JUMPI DUP1 PUSH4 0x95D89B41 EQ PUSH2 0x484 JUMPI DUP1 PUSH4 0xA22CB465 EQ PUSH2 0x499 JUMPI PUSH1 0x0 DUP1 REVERT JUMPDEST DUP1 PUSH4 0x70A08231 EQ PUSH2 0x3F1 JUMPI DUP1 PUSH4 0x715018A6 EQ PUSH2 0x411 JUMPI DUP1 PUSH4 0x7A955950 EQ PUSH2 0x426 JUMPI PUSH1 0x0 DUP1 REVERT JUMPDEST DUP1 PUSH4 0x1CEAD9A7 GT PUSH2 0x16F JUMPI DUP1 PUSH4 0x4E71D92D GT PUSH2 0x13E JUMPI DUP1 PUSH4 0x4E71D92D EQ PUSH2 0x389 JUMPI DUP1 PUSH4 0x4F6CCCE7 EQ PUSH2 0x391 JUMPI DUP1 PUSH4 0x6352211E EQ PUSH2 0x3B1 JUMPI DUP1 PUSH4 0x69B9321F EQ PUSH2 0x3D1 JUMPI PUSH1 0x0 DUP1 REVERT JUMPDEST DUP1 PUSH4 0x1CEAD9A7 EQ PUSH2 0x2FC JUMPI DUP1 PUSH4 0x23B872DD EQ PUSH2 0x329 JUMPI DUP1 PUSH4 0x2F745C59 EQ PUSH2 0x349 JUMPI DUP1 PUSH4 0x42842E0E EQ PUSH2 0x369 JUMPI PUSH1 0x0 DUP1 REVERT JUMPDEST DUP1 PUSH4 0x95EA7B3 GT PUSH2 0x1AB JUMPI DUP1 PUSH4 0x95EA7B3 EQ PUSH2 0x261 JUMPI DUP1 PUSH4 0x18160DDD EQ PUSH2 0x283 JUMPI DUP1 PUSH4 0x1AC56992 EQ PUSH2 0x2A2 JUMPI DUP1 PUSH4 0x1CA5CA4E EQ PUSH2 0x2CF JUMPI PUSH1 0x0 DUP1 REVERT JUMPDEST DUP1 PUSH4 0x1FFC9A7 EQ PUSH2 0x1D2 JUMPI DUP1 PUSH4 0x6FDDE03 EQ PUSH2 0x207 JUMPI DUP1 PUSH4 0x81812FC EQ PUSH2 0x229 JUMPI JUMPDEST PUSH1 0x0 DUP1 REVERT JUMPDEST CALLVALUE DUP1 ISZERO PUSH2 0x1DE JUMPI PUSH1 0x0 DUP1 REVERT JUMPDEST POP PUSH2 0x1F2 PUSH2 0x1ED CALLDATASIZE PUSH1 0x4 PUSH2 0x2DCB JUMP JUMPDEST PUSH2 0x5F0 JUMP JUMPDEST PUSH1 0x40 MLOAD SWAP1 ISZERO ISZERO DUP2 MSTORE PUSH1 0x20 ADD JUMPDEST PUSH1 0x40 MLOAD DUP1 SWAP2 SUB SWAP1 RETURN JUMPDEST CALLVALUE DUP1 ISZERO PUSH2 0x213 JUMPI PUSH1 0x0 DUP1 REVERT JUMPDEST POP PUSH2 0x21C PUSH2 0x61B JUMP JUMPDEST PUSH1 0x40 MLOAD PUSH2 0x1FE SWAP2 SWAP1 PUSH2 0x33FE JUMP JUMPDEST CALLVALUE DUP1 ISZERO PUSH2 0x235 JUMPI PUSH1 0x0 DUP1 REVERT JUMPDEST POP PUSH2 0x249 PUSH2 0x244 CALLDATASIZE PUSH1 0x4 PUSH2 0x2EA6 JUMP JUMPDEST PUSH2 0x6AD JUMP JUMPDEST PUSH1 0x40 MLOAD PUSH1 0x1 PUSH1 0x1 PUSH1 0xA0 SHL SUB SWAP1 SWAP2 AND DUP2 MSTORE PUSH1 0x20 ADD PUSH2 0x1FE JUMP JUMPDEST CALLVALUE DUP1 ISZERO PUSH2 0x26D JUMPI PUSH1 0x0 DUP1 REVERT JUMPDEST POP PUSH2 0x281 PUSH2 0x27C CALLDATASIZE PUSH1 0x4 PUSH2 0x2DA1 JUMP JUMPDEST PUSH2 0x747 JUMP JUMPDEST STOP JUMPDEST CALLVALUE DUP1 ISZERO PUSH2 0x28F JUMPI PUSH1 0x0 DUP1 REVERT JUMPDEST POP PUSH1 0x8 SLOAD JUMPDEST PUSH1 0x40 MLOAD SWAP1 DUP2 MSTORE PUSH1 0x20 ADD PUSH2 0x1FE JUMP JUMPDEST CALLVALUE DUP1 ISZERO PUSH2 0x2AE JUMPI PUSH1 0x0 DUP1 REVERT JUMPDEST POP PUSH2 0x294 PUSH2 0x2BD CALLDATASIZE PUSH1 0x4 PUSH2 0x2C5F JUMP JUMPDEST PUSH1 0x11 PUSH1 0x20 MSTORE PUSH1 0x0 SWAP1 DUP2 MSTORE PUSH1 0x40 SWAP1 KECCAK256 SLOAD DUP2 JUMP JUMPDEST CALLVALUE DUP1 ISZERO PUSH2 0x2DB JUMPI PUSH1 0x0 DUP1 REVERT JUMPDEST POP PUSH2 0x294 PUSH2 0x2EA CALLDATASIZE PUSH1 0x4 PUSH2 0x2C5F JUMP JUMPDEST PUSH1 0xF PUSH1 0x20 MSTORE PUSH1 0x0 SWAP1 DUP2 MSTORE PUSH1 0x40 SWAP1 KECCAK256 SLOAD DUP2 JUMP JUMPDEST CALLVALUE DUP1 ISZERO PUSH2 0x308 JUMPI PUSH1 0x0 DUP1 REVERT JUMPDEST POP PUSH2 0x294 PUSH2 0x317 CALLDATASIZE PUSH1 0x4 PUSH2 0x2C5F JUMP JUMPDEST PUSH1 0x12 PUSH1 0x20 MSTORE PUSH1 0x0 SWAP1 DUP2 MSTORE PUSH1 0x40 SWAP1 KECCAK256 SLOAD DUP2 JUMP JUMPDEST CALLVALUE DUP1 ISZERO PUSH2 0x335 JUMPI PUSH1 0x0 DUP1 REVERT JUMPDEST POP PUSH2 0x281 PUSH2 0x344 CALLDATASIZE PUSH1 0x4 PUSH2 0x2CAD JUMP JUMPDEST PUSH2 0x85D JUMP JUMPDEST CALLVALUE DUP1 ISZERO PUSH2 0x355 JUMPI PUSH1 0x0 DUP1 REVERT JUMPDEST POP PUSH2 0x294 PUSH2 0x364 CALLDATASIZE PUSH1 0x4 PUSH2 0x2DA1 JUMP JUMPDEST PUSH2 0x88E JUMP JUMPDEST CALLVALUE DUP1 ISZERO PUSH2 0x375 JUMPI PUSH1 0x0 DUP1 REVERT JUMPDEST POP PUSH2 0x281 PUSH2 0x384 CALLDATASIZE PUSH1 0x4 PUSH2 0x2CAD JUMP JUMPDEST PUSH2 0x924 JUMP JUMPDEST PUSH2 0x281 PUSH2 0x93F JUMP JUMPDEST CALLVALUE DUP1 ISZERO PUSH2 0x39D JUMPI PUSH1 0x0 DUP1 REVERT JUMPDEST POP PUSH2 0x294 PUSH2 0x3AC CALLDATASIZE PUSH1 0x4 PUSH2 0x2EA6 JUMP JUMPDEST PUSH2 0xBAC JUMP JUMPDEST CALLVALUE DUP1 ISZERO PUSH2 0x3BD JUMPI PUSH1 0x0 DUP1 REVERT JUMPDEST POP PUSH2 0x249 PUSH2 0x3CC CALLDATASIZE PUSH1 0x4 PUSH2 0x2EA6 JUMP JUMPDEST PUSH2 0xC3F JUMP JUMPDEST CALLVALUE DUP1 ISZERO PUSH2 0x3DD JUMPI PUSH1 0x0 DUP1 REVERT JUMPDEST POP PUSH2 0x21C PUSH2 0x3EC CALLDATASIZE PUSH1 0x4 PUSH2 0x2EBF JUMP JUMPDEST PUSH2 0xCB6 JUMP JUMPDEST CALLVALUE DUP1 ISZERO PUSH2 0x3FD JUMPI PUSH1 0x0 DUP1 REVERT JUMPDEST POP PUSH2 0x294 PUSH2 0x40C CALLDATASIZE PUSH1 0x4 PUSH2 0x2C5F JUMP JUMPDEST PUSH2 0xCE8 JUMP JUMPDEST CALLVALUE DUP1 ISZERO PUSH2 0x41D JUMPI PUSH1 0x0 DUP1 REVERT JUMPDEST POP PUSH2 0x281 PUSH2 0xD6F JUMP JUMPDEST CALLVALUE DUP1 ISZERO PUSH2 0x432 JUMPI PUSH1 0x0 DUP1 REVERT JUMPDEST POP PUSH2 0x294 PUSH2 0x441 CALLDATASIZE PUSH1 0x4 PUSH2 0x2EA6 JUMP JUMPDEST PUSH1 0x10 PUSH1 0x20 MSTORE PUSH1 0x0 SWAP1 DUP2 MSTORE PUSH1 0x40 SWAP1 KECCAK256 SLOAD DUP2 JUMP JUMPDEST CALLVALUE DUP1 ISZERO PUSH2 0x45F JUMPI PUSH1 0x0 DUP1 REVERT JUMPDEST POP PUSH1 0xB SLOAD PUSH1 0x1 PUSH1 0x1 PUSH1 0xA0 SHL SUB AND PUSH2 0x249 JUMP JUMPDEST PUSH2 0x281 PUSH2 0x47F CALLDATASIZE PUSH1 0x4 PUSH2 0x2E05 JUMP JUMPDEST PUSH2 0xDD5 JUMP JUMPDEST CALLVALUE DUP1 ISZERO PUSH2 0x490 JUMPI PUSH1 0x0 DUP1 REVERT JUMPDEST POP PUSH2 0x21C PUSH2 0xF66 JUMP JUMPDEST CALLVALUE DUP1 ISZERO PUSH2 0x4A5 JUMPI PUSH1 0x0 DUP1 REVERT JUMPDEST POP PUSH2 0x281 PUSH2 0x4B4 CALLDATASIZE PUSH1 0x4 PUSH2 0x2D65 JUMP JUMPDEST PUSH2 0xF75 JUMP JUMPDEST CALLVALUE DUP1 ISZERO PUSH2 0x4C5 JUMPI PUSH1 0x0 DUP1 REVERT JUMPDEST POP PUSH2 0x4D9 PUSH2 0x4D4 CALLDATASIZE PUSH1 0x4 PUSH2 0x2EA6 JUMP JUMPDEST PUSH2 0x103A JUMP JUMPDEST PUSH1 0x40 MLOAD PUSH2 0x1FE SWAP3 SWAP2 SWAP1 PUSH2 0x3411 JUMP JUMPDEST CALLVALUE DUP1 ISZERO PUSH2 0x4F3 JUMPI PUSH1 0x0 DUP1 REVERT JUMPDEST POP PUSH2 0x281 PUSH2 0x502 CALLDATASIZE PUSH1 0x4 PUSH2 0x2CE9 JUMP JUMPDEST PUSH2 0x10FF JUMP JUMPDEST CALLVALUE DUP1 ISZERO PUSH2 0x513 JUMPI PUSH1 0x0 DUP1 REVERT JUMPDEST POP PUSH2 0x21C PUSH2 0x522 CALLDATASIZE PUSH1 0x4 PUSH2 0x2EA6 JUMP JUMPDEST PUSH2 0x1137 JUMP JUMPDEST CALLVALUE DUP1 ISZERO PUSH2 0x533 JUMPI PUSH1 0x0 DUP1 REVERT JUMPDEST POP PUSH2 0x21C PUSH2 0x542 CALLDATASIZE PUSH1 0x4 PUSH2 0x2EA6 JUMP JUMPDEST PUSH2 0x15EE JUMP JUMPDEST CALLVALUE DUP1 ISZERO PUSH2 0x553 JUMPI PUSH1 0x0 DUP1 REVERT JUMPDEST POP PUSH2 0x21C PUSH2 0x562 CALLDATASIZE PUSH1 0x4 PUSH2 0x2EBF JUMP JUMPDEST PUSH2 0x1A44 JUMP JUMPDEST CALLVALUE DUP1 ISZERO PUSH2 0x573 JUMPI PUSH1 0x0 DUP1 REVERT JUMPDEST POP PUSH2 0x1F2 PUSH2 0x582 CALLDATASIZE PUSH1 0x4 PUSH2 0x2C7A JUMP JUMPDEST PUSH1 0x1 PUSH1 0x1 PUSH1 0xA0 SHL SUB SWAP2 DUP3 AND PUSH1 0x0 SWAP1 DUP2 MSTORE PUSH1 0x5 PUSH1 0x20 SWAP1 DUP2 MSTORE PUSH1 0x40 DUP1 DUP4 KECCAK256 SWAP4 SWAP1 SWAP5 AND DUP3 MSTORE SWAP2 SWAP1 SWAP2 MSTORE KECCAK256 SLOAD PUSH1 0xFF AND SWAP1 JUMP JUMPDEST CALLVALUE DUP1 ISZERO PUSH2 0x5BC JUMPI PUSH1 0x0 DUP1 REVERT JUMPDEST POP PUSH2 0x281 PUSH2 0x5CB CALLDATASIZE PUSH1 0x4 PUSH2 0x2C5F JUMP JUMPDEST PUSH2 0x1A74 JUMP JUMPDEST CALLVALUE DUP1 ISZERO PUSH2 0x5DC JUMPI PUSH1 0x0 DUP1 REVERT JUMPDEST POP PUSH2 0x21C PUSH2 0x5EB CALLDATASIZE PUSH1 0x4 PUSH2 0x2EBF JUMP JUMPDEST PUSH2 0x1B3F JUMP JUMPDEST PUSH1 0x0 PUSH1 0x1 PUSH1 0x1 PUSH1 0xE0 SHL SUB NOT DUP3 AND PUSH4 0x780E9D63 PUSH1 0xE0 SHL EQ DUP1 PUSH2 0x615 JUMPI POP PUSH2 0x615 DUP3 PUSH2 0x1B6A JUMP JUMPDEST SWAP3 SWAP2 POP POP JUMP JUMPDEST PUSH1 0x60 PUSH1 0x0 DUP1 SLOAD PUSH2 0x62A SWAP1 PUSH2 0x359D JUMP JUMPDEST DUP1 PUSH1 0x1F ADD PUSH1 0x20 DUP1 SWAP2 DIV MUL PUSH1 0x20 ADD PUSH1 0x40 MLOAD SWAP1 DUP2 ADD PUSH1 0x40 MSTORE DUP1 SWAP3 SWAP2 SWAP1 DUP2 DUP2 MSTORE PUSH1 0x20 ADD DUP3 DUP1 SLOAD PUSH2 0x656 SWAP1 PUSH2 0x359D JUMP JUMPDEST DUP1 ISZERO PUSH2 0x6A3 JUMPI DUP1 PUSH1 0x1F LT PUSH2 0x678 JUMPI PUSH2 0x100 DUP1 DUP4 SLOAD DIV MUL DUP4 MSTORE SWAP2 PUSH1 0x20 ADD SWAP2 PUSH2 0x6A3 JUMP JUMPDEST DUP3 ADD SWAP2 SWAP1 PUSH1 0x0 MSTORE PUSH1 0x20 PUSH1 0x0 KECCAK256 SWAP1 JUMPDEST DUP2 SLOAD DUP2 MSTORE SWAP1 PUSH1 0x1 ADD SWAP1 PUSH1 0x20 ADD DUP1 DUP4 GT PUSH2 0x686 JUMPI DUP3 SWAP1 SUB PUSH1 0x1F AND DUP3 ADD SWAP2 JUMPDEST POP POP POP POP POP SWAP1 POP SWAP1 JUMP JUMPDEST PUSH1 0x0 DUP2 DUP2 MSTORE PUSH1 0x2 PUSH1 0x20 MSTORE PUSH1 0x40 DUP2 KECCAK256 SLOAD PUSH1 0x1 PUSH1 0x1 PUSH1 0xA0 SHL SUB AND PUSH2 0x72B JUMPI PUSH1 0x40 MLOAD PUSH3 0x461BCD PUSH1 0xE5 SHL DUP2 MSTORE PUSH1 0x20 PUSH1 0x4 DUP3 ADD MSTORE PUSH1 0x2C PUSH1 0x24 DUP3 ADD MSTORE PUSH32 0x4552433732313A20617070726F76656420717565727920666F72206E6F6E6578 PUSH1 0x44 DUP3 ADD MSTORE PUSH12 0x34B9BA32B73A103A37B5B2B7 PUSH1 0xA1 SHL PUSH1 0x64 DUP3 ADD MSTORE PUSH1 0x84 ADD JUMPDEST PUSH1 0x40 MLOAD DUP1 SWAP2 SUB SWAP1 REVERT JUMPDEST POP PUSH1 0x0 SWAP1 DUP2 MSTORE PUSH1 0x4 PUSH1 0x20 MSTORE PUSH1 0x40 SWAP1 KECCAK256 SLOAD PUSH1 0x1 PUSH1 0x1 PUSH1 0xA0 SHL SUB AND SWAP1 JUMP JUMPDEST PUSH1 0x0 PUSH2 0x752 DUP3 PUSH2 0xC3F JUMP JUMPDEST SWAP1 POP DUP1 PUSH1 0x1 PUSH1 0x1 PUSH1 0xA0 SHL SUB AND DUP4 PUSH1 0x1 PUSH1 0x1 PUSH1 0xA0 SHL SUB AND EQ ISZERO PUSH2 0x7C0 JUMPI PUSH1 0x40 MLOAD PUSH3 0x461BCD PUSH1 0xE5 SHL DUP2 MSTORE PUSH1 0x20 PUSH1 0x4 DUP3 ADD MSTORE PUSH1 0x21 PUSH1 0x24 DUP3 ADD MSTORE PUSH32 0x4552433732313A20617070726F76616C20746F2063757272656E74206F776E65 PUSH1 0x44 DUP3 ADD MSTORE PUSH1 0x39 PUSH1 0xF9 SHL PUSH1 0x64 DUP3 ADD MSTORE PUSH1 0x84 ADD PUSH2 0x722 JUMP JUMPDEST CALLER PUSH1 0x1 PUSH1 0x1 PUSH1 0xA0 SHL SUB DUP3 AND EQ DUP1 PUSH2 0x7DC JUMPI POP PUSH2 0x7DC DUP2 CALLER PUSH2 0x582 JUMP JUMPDEST PUSH2 0x84E JUMPI PUSH1 0x40 MLOAD PUSH3 0x461BCD PUSH1 0xE5 SHL DUP2 MSTORE PUSH1 0x20 PUSH1 0x4 DUP3 ADD MSTORE PUSH1 0x38 PUSH1 0x24 DUP3 ADD MSTORE PUSH32 0x4552433732313A20617070726F76652063616C6C6572206973206E6F74206F77 PUSH1 0x44 DUP3 ADD MSTORE PUSH32 0x6E6572206E6F7220617070726F76656420666F7220616C6C0000000000000000 PUSH1 0x64 DUP3 ADD MSTORE PUSH1 0x84 ADD PUSH2 0x722 JUMP JUMPDEST PUSH2 0x858 DUP4 DUP4 PUSH2 0x1BBA JUMP JUMPDEST POP POP POP JUMP JUMPDEST PUSH2 0x867 CALLER DUP3 PUSH2 0x1C28 JUMP JUMPDEST PUSH2 0x883 JUMPI PUSH1 0x40 MLOAD PUSH3 0x461BCD PUSH1 0xE5 SHL DUP2 MSTORE PUSH1 0x4 ADD PUSH2 0x722 SWAP1 PUSH2 0x348D JUMP JUMPDEST PUSH2 0x858 DUP4 DUP4 DUP4 PUSH2 0x1D1F JUMP JUMPDEST PUSH1 0x0 PUSH2 0x899 DUP4 PUSH2 0xCE8 JUMP JUMPDEST DUP3 LT PUSH2 0x8FB JUMPI PUSH1 0x40 MLOAD PUSH3 0x461BCD PUSH1 0xE5 SHL DUP2 MSTORE PUSH1 0x20 PUSH1 0x4 DUP3 ADD MSTORE PUSH1 0x2B PUSH1 0x24 DUP3 ADD MSTORE PUSH32 0x455243373231456E756D657261626C653A206F776E657220696E646578206F75 PUSH1 0x44 DUP3 ADD MSTORE PUSH11 0x74206F6620626F756E6473 PUSH1 0xA8 SHL PUSH1 0x64 DUP3 ADD MSTORE PUSH1 0x84 ADD PUSH2 0x722 JUMP JUMPDEST POP PUSH1 0x1 PUSH1 0x1 PUSH1 0xA0 SHL SUB SWAP2 SWAP1 SWAP2 AND PUSH1 0x0 SWAP1 DUP2 MSTORE PUSH1 0x6 PUSH1 0x20 SWAP1 DUP2 MSTORE PUSH1 0x40 DUP1 DUP4 KECCAK256 SWAP4 DUP4 MSTORE SWAP3 SWAP1 MSTORE KECCAK256 SLOAD SWAP1 JUMP JUMPDEST PUSH2 0x858 DUP4 DUP4 DUP4 PUSH1 0x40 MLOAD DUP1 PUSH1 0x20 ADD PUSH1 0x40 MSTORE DUP1 PUSH1 0x0 DUP2 MSTORE POP PUSH2 0x10FF JUMP JUMPDEST PUSH1 0x2 PUSH1 0xA SLOAD EQ ISZERO PUSH2 0x992 JUMPI PUSH1 0x40 MLOAD PUSH3 0x461BCD PUSH1 0xE5 SHL DUP2 MSTORE PUSH1 0x20 PUSH1 0x4 DUP3 ADD MSTORE PUSH1 0x1F PUSH1 0x24 DUP3 ADD MSTORE PUSH32 0x5265656E7472616E637947756172643A207265656E7472616E742063616C6C00 PUSH1 0x44 DUP3 ADD MSTORE PUSH1 0x64 ADD PUSH2 0x722 JUMP JUMPDEST PUSH1 0x2 PUSH1 0xA SSTORE PUSH7 0xB1A2BC2EC50000 CALLVALUE LT ISZERO PUSH2 0x9DB JUMPI PUSH1 0x40 MLOAD PUSH3 0x461BCD PUSH1 0xE5 SHL DUP2 MSTORE PUSH1 0x20 PUSH1 0x4 DUP3 ADD MSTORE PUSH1 0xA PUSH1 0x24 DUP3 ADD MSTORE PUSH10 0x46656520746F206C6F77 PUSH1 0xB0 SHL PUSH1 0x44 DUP3 ADD MSTORE PUSH1 0x64 ADD PUSH2 0x722 JUMP JUMPDEST PUSH1 0xD SLOAD PUSH1 0x0 PUSH2 0xA10 PUSH2 0x9EC DUP4 PUSH2 0x1ECA JUMP JUMPDEST PUSH1 0x40 MLOAD PUSH1 0x20 ADD PUSH2 0x9FC SWAP2 SWAP1 PUSH2 0x30CF JUMP JUMPDEST PUSH1 0x40 MLOAD PUSH1 0x20 DUP2 DUP4 SUB SUB DUP2 MSTORE SWAP1 PUSH1 0x40 MSTORE PUSH2 0x1FC8 JUMP JUMPDEST PUSH1 0xC SLOAD SWAP1 SWAP2 POP PUSH1 0x0 SWAP1 PUSH2 0xA23 SWAP1 DUP4 PUSH2 0x35F3 JUMP JUMPDEST SWAP1 POP PUSH1 0x0 PUSH1 0xC DUP3 DUP2 SLOAD DUP2 LT PUSH2 0xA3A JUMPI PUSH2 0xA3A PUSH2 0x3649 JUMP JUMPDEST PUSH1 0x0 SWAP2 DUP3 MSTORE PUSH1 0x20 DUP3 KECCAK256 PUSH1 0x4 PUSH1 0x5 SWAP1 SWAP3 MUL ADD ADD SLOAD PUSH1 0x40 MLOAD PUSH1 0x1 PUSH1 0x1 PUSH1 0xA0 SHL SUB SWAP1 SWAP2 AND SWAP3 POP DUP3 SWAP2 CALLVALUE DUP1 ISZERO PUSH2 0x8FC MUL SWAP3 SWAP1 SWAP2 DUP2 DUP2 DUP2 DUP6 DUP9 DUP9 CALL SWAP4 POP POP POP POP ISZERO DUP1 ISZERO PUSH2 0xA86 JUMPI RETURNDATASIZE PUSH1 0x0 DUP1 RETURNDATACOPY RETURNDATASIZE PUSH1 0x0 REVERT JUMPDEST POP PUSH1 0x0 DUP5 DUP2 MSTORE PUSH1 0x10 PUSH1 0x20 SWAP1 DUP2 MSTORE PUSH1 0x40 DUP1 DUP4 KECCAK256 DUP6 SWAP1 SSTORE PUSH1 0x1 PUSH1 0x1 PUSH1 0xA0 SHL SUB DUP5 AND DUP4 MSTORE PUSH1 0x11 SWAP1 SWAP2 MSTORE DUP2 KECCAK256 DUP1 SLOAD PUSH1 0x1 SWAP3 SWAP1 PUSH2 0xABF SWAP1 DUP5 SWAP1 PUSH2 0x350F JUMP JUMPDEST SWAP1 SWAP2 SSTORE POP PUSH1 0x0 SWAP1 POP PUSH2 0xAD2 PUSH1 0x2 CALLVALUE PUSH2 0x3527 JUMP JUMPDEST PUSH1 0x1 PUSH1 0x1 PUSH1 0xA0 SHL SUB DUP4 AND PUSH1 0x0 SWAP1 DUP2 MSTORE PUSH1 0x12 PUSH1 0x20 MSTORE PUSH1 0x40 DUP2 KECCAK256 DUP1 SLOAD SWAP3 SWAP4 POP DUP4 SWAP3 SWAP1 SWAP2 SWAP1 PUSH2 0xAFF SWAP1 DUP5 SWAP1 PUSH2 0x350F JUMP JUMPDEST SWAP1 SWAP2 SSTORE POP POP PUSH1 0x40 MLOAD PUSH1 0x1 PUSH1 0x1 PUSH1 0xA0 SHL SUB DUP4 AND SWAP1 DUP3 ISZERO PUSH2 0x8FC MUL SWAP1 DUP4 SWAP1 PUSH1 0x0 DUP2 DUP2 DUP2 DUP6 DUP9 DUP9 CALL SWAP4 POP POP POP POP ISZERO DUP1 ISZERO PUSH2 0xB3A JUMPI RETURNDATASIZE PUSH1 0x0 DUP1 RETURNDATACOPY RETURNDATASIZE PUSH1 0x0 REVERT JUMPDEST POP PUSH1 0x1 PUSH1 0xD PUSH1 0x0 DUP3 DUP3 SLOAD PUSH2 0xB4E SWAP2 SWAP1 PUSH2 0x350F JUMP JUMPDEST SWAP1 SWAP2 SSTORE POP PUSH2 0xB5E SWAP1 POP CALLER DUP7 PUSH2 0x1FF9 JUMP JUMPDEST PUSH1 0x40 DUP1 MLOAD PUSH1 0x1 PUSH1 0x1 PUSH1 0xA0 SHL SUB DUP5 AND DUP2 MSTORE PUSH1 0x20 DUP2 ADD DUP4 SWAP1 MSTORE PUSH32 0xC5A2B7AD6439179B1EDEA47D8A4BC00B2C5270A1C741C00FAB7BE4012CAA7D0A SWAP2 ADD PUSH1 0x40 MLOAD DUP1 SWAP2 SUB SWAP1 LOG1 POP POP PUSH1 0x1 PUSH1 0xA SSTORE POP POP POP JUMP JUMPDEST PUSH1 0x0 PUSH2 0xBB7 PUSH1 0x8 SLOAD SWAP1 JUMP JUMPDEST DUP3 LT PUSH2 0xC1A JUMPI PUSH1 0x40 MLOAD PUSH3 0x461BCD PUSH1 0xE5 SHL DUP2 MSTORE PUSH1 0x20 PUSH1 0x4 DUP3 ADD MSTORE PUSH1 0x2C PUSH1 0x24 DUP3 ADD MSTORE PUSH32 0x455243373231456E756D657261626C653A20676C6F62616C20696E646578206F PUSH1 0x44 DUP3 ADD MSTORE PUSH12 0x7574206F6620626F756E6473 PUSH1 0xA0 SHL PUSH1 0x64 DUP3 ADD MSTORE PUSH1 0x84 ADD PUSH2 0x722 JUMP JUMPDEST PUSH1 0x8 DUP3 DUP2 SLOAD DUP2 LT PUSH2 0xC2D JUMPI PUSH2 0xC2D PUSH2 0x3649 JUMP JUMPDEST SWAP1 PUSH1 0x0 MSTORE PUSH1 0x20 PUSH1 0x0 KECCAK256 ADD SLOAD SWAP1 POP SWAP2 SWAP1 POP JUMP JUMPDEST PUSH1 0x0 DUP2 DUP2 MSTORE PUSH1 0x2 PUSH1 0x20 MSTORE PUSH1 0x40 DUP2 KECCAK256 SLOAD PUSH1 0x1 PUSH1 0x1 PUSH1 0xA0 SHL SUB AND DUP1 PUSH2 0x615 JUMPI PUSH1 0x40 MLOAD PUSH3 0x461BCD PUSH1 0xE5 SHL DUP2 MSTORE PUSH1 0x20 PUSH1 0x4 DUP3 ADD MSTORE PUSH1 0x29 PUSH1 0x24 DUP3 ADD MSTORE PUSH32 0x4552433732313A206F776E657220717565727920666F72206E6F6E6578697374 PUSH1 0x44 DUP3 ADD MSTORE PUSH9 0x32B73A103A37B5B2B7 PUSH1 0xB9 SHL PUSH1 0x64 DUP3 ADD MSTORE PUSH1 0x84 ADD PUSH2 0x722 JUMP JUMPDEST PUSH1 0x60 PUSH2 0xCE1 DUP4 PUSH1 0x40 MLOAD DUP1 PUSH1 0x40 ADD PUSH1 0x40 MSTORE DUP1 PUSH1 0x6 DUP2 MSTORE PUSH1 0x20 ADD PUSH6 0x2BA2A0A827A7 PUSH1 0xD1 SHL DUP2 MSTORE POP DUP5 PUSH2 0x2017 JUMP JUMPDEST SWAP4 SWAP3 POP POP POP JUMP JUMPDEST PUSH1 0x0 PUSH1 0x1 PUSH1 0x1 PUSH1 0xA0 SHL SUB DUP3 AND PUSH2 0xD53 JUMPI PUSH1 0x40 MLOAD PUSH3 0x461BCD PUSH1 0xE5 SHL DUP2 MSTORE PUSH1 0x20 PUSH1 0x4 DUP3 ADD MSTORE PUSH1 0x2A PUSH1 0x24 DUP3 ADD MSTORE PUSH32 0x4552433732313A2062616C616E636520717565727920666F7220746865207A65 PUSH1 0x44 DUP3 ADD MSTORE PUSH10 0x726F2061646472657373 PUSH1 0xB0 SHL PUSH1 0x64 DUP3 ADD MSTORE PUSH1 0x84 ADD PUSH2 0x722 JUMP JUMPDEST POP PUSH1 0x1 PUSH1 0x1 PUSH1 0xA0 SHL SUB AND PUSH1 0x0 SWAP1 DUP2 MSTORE PUSH1 0x3 PUSH1 0x20 MSTORE PUSH1 0x40 SWAP1 KECCAK256 SLOAD SWAP1 JUMP JUMPDEST PUSH1 0xB SLOAD PUSH1 0x1 PUSH1 0x1 PUSH1 0xA0 SHL SUB AND CALLER EQ PUSH2 0xDC9 JUMPI PUSH1 0x40 MLOAD PUSH3 0x461BCD PUSH1 0xE5 SHL DUP2 MSTORE PUSH1 0x20 PUSH1 0x4 DUP3 ADD DUP2 SWAP1 MSTORE PUSH1 0x24 DUP3 ADD MSTORE PUSH32 0x4F776E61626C653A2063616C6C6572206973206E6F7420746865206F776E6572 PUSH1 0x44 DUP3 ADD MSTORE PUSH1 0x64 ADD PUSH2 0x722 JUMP JUMPDEST PUSH2 0xDD3 PUSH1 0x0 PUSH2 0x22DC JUMP JUMPDEST JUMP JUMPDEST PUSH7 0xB1A2BC2EC50000 CALLVALUE LT ISZERO PUSH2 0xE1A JUMPI PUSH1 0x40 MLOAD PUSH3 0x461BCD PUSH1 0xE5 SHL DUP2 MSTORE PUSH1 0x20 PUSH1 0x4 DUP3 ADD MSTORE PUSH1 0xB PUSH1 0x24 DUP3 ADD MSTORE PUSH11 0x46656520746F6F206C6F77 PUSH1 0xA8 SHL PUSH1 0x44 DUP3 ADD MSTORE PUSH1 0x64 ADD PUSH2 0x722 JUMP JUMPDEST PUSH2 0xE55 PUSH1 0x40 MLOAD DUP1 PUSH1 0xA0 ADD PUSH1 0x40 MSTORE DUP1 PUSH1 0x60 DUP2 MSTORE PUSH1 0x20 ADD PUSH1 0x60 DUP2 MSTORE PUSH1 0x20 ADD PUSH1 0x60 DUP2 MSTORE PUSH1 0x20 ADD PUSH1 0x60 DUP2 MSTORE PUSH1 0x20 ADD PUSH1 0x0 PUSH1 0x1 PUSH1 0x1 PUSH1 0xA0 SHL SUB AND DUP2 MSTORE POP SWAP1 JUMP JUMPDEST PUSH1 0x20 DUP1 DUP3 ADD DUP6 SWAP1 MSTORE PUSH1 0x40 DUP1 DUP4 ADD DUP6 SWAP1 MSTORE PUSH1 0x60 DUP4 ADD DUP5 SWAP1 MSTORE DUP7 DUP4 MSTORE CALLER PUSH1 0x80 DUP5 ADD DUP2 SWAP1 MSTORE PUSH1 0x0 SWAP1 DUP2 MSTORE PUSH1 0xF SWAP1 SWAP3 MSTORE DUP2 KECCAK256 DUP1 SLOAD PUSH1 0x1 SWAP3 SWAP1 PUSH2 0xE94 SWAP1 DUP5 SWAP1 PUSH2 0x350F JUMP JUMPDEST SWAP1 SWAP2 SSTORE POP POP PUSH1 0xC DUP1 SLOAD PUSH1 0x1 DUP2 ADD DUP3 SSTORE PUSH1 0x0 SWAP2 SWAP1 SWAP2 MSTORE DUP2 MLOAD DUP1 MLOAD DUP4 SWAP3 PUSH1 0x5 MUL PUSH32 0xDF6966C971051C3D54EC59162606531493A51404A002842F56009D7E5CF4A8C7 ADD SWAP2 PUSH2 0xEE4 SWAP2 DUP4 SWAP2 PUSH1 0x20 ADD SWAP1 PUSH2 0x299D JUMP JUMPDEST POP PUSH1 0x20 DUP3 DUP2 ADD MLOAD DUP1 MLOAD PUSH2 0xEFD SWAP3 PUSH1 0x1 DUP6 ADD SWAP3 ADD SWAP1 PUSH2 0x2A21 JUMP JUMPDEST POP PUSH1 0x40 DUP3 ADD MLOAD DUP1 MLOAD PUSH2 0xF19 SWAP2 PUSH1 0x2 DUP5 ADD SWAP2 PUSH1 0x20 SWAP1 SWAP2 ADD SWAP1 PUSH2 0x2A21 JUMP JUMPDEST POP PUSH1 0x60 DUP3 ADD MLOAD DUP1 MLOAD PUSH2 0xF35 SWAP2 PUSH1 0x3 DUP5 ADD SWAP2 PUSH1 0x20 SWAP1 SWAP2 ADD SWAP1 PUSH2 0x2A21 JUMP JUMPDEST POP PUSH1 0x80 SWAP2 SWAP1 SWAP2 ADD MLOAD PUSH1 0x4 SWAP1 SWAP2 ADD DUP1 SLOAD PUSH1 0x1 PUSH1 0x1 PUSH1 0xA0 SHL SUB NOT AND PUSH1 0x1 PUSH1 0x1 PUSH1 0xA0 SHL SUB SWAP1 SWAP3 AND SWAP2 SWAP1 SWAP2 OR SWAP1 SSTORE POP POP POP POP POP JUMP JUMPDEST PUSH1 0x60 PUSH1 0x1 DUP1 SLOAD PUSH2 0x62A SWAP1 PUSH2 0x359D JUMP JUMPDEST PUSH1 0x1 PUSH1 0x1 PUSH1 0xA0 SHL SUB DUP3 AND CALLER EQ ISZERO PUSH2 0xFCE JUMPI PUSH1 0x40 MLOAD PUSH3 0x461BCD PUSH1 0xE5 SHL DUP2 MSTORE PUSH1 0x20 PUSH1 0x4 DUP3 ADD MSTORE PUSH1 0x19 PUSH1 0x24 DUP3 ADD MSTORE PUSH32 0x4552433732313A20617070726F766520746F2063616C6C657200000000000000 PUSH1 0x44 DUP3 ADD MSTORE PUSH1 0x64 ADD PUSH2 0x722 JUMP JUMPDEST CALLER PUSH1 0x0 DUP2 DUP2 MSTORE PUSH1 0x5 PUSH1 0x20 SWAP1 DUP2 MSTORE PUSH1 0x40 DUP1 DUP4 KECCAK256 PUSH1 0x1 PUSH1 0x1 PUSH1 0xA0 SHL SUB DUP8 AND DUP1 DUP6 MSTORE SWAP1 DUP4 MSTORE SWAP3 DUP2 SWAP1 KECCAK256 DUP1 SLOAD PUSH1 0xFF NOT AND DUP7 ISZERO ISZERO SWAP1 DUP2 OR SWAP1 SWAP2 SSTORE SWAP1 MLOAD SWAP1 DUP2 MSTORE SWAP2 SWAP3 SWAP2 PUSH32 0x17307EAB39AB6107E8899845AD3D59BD9653F200F220920489CA2B5937696C31 SWAP2 ADD PUSH1 0x40 MLOAD DUP1 SWAP2 SUB SWAP1 LOG3 POP POP JUMP JUMPDEST PUSH1 0xC DUP2 DUP2 SLOAD DUP2 LT PUSH2 0x104A JUMPI PUSH1 0x0 DUP1 REVERT JUMPDEST SWAP1 PUSH1 0x0 MSTORE PUSH1 0x20 PUSH1 0x0 KECCAK256 SWAP1 PUSH1 0x5 MUL ADD PUSH1 0x0 SWAP2 POP SWAP1 POP DUP1 PUSH1 0x0 ADD DUP1 SLOAD PUSH2 0x106D SWAP1 PUSH2 0x359D JUMP JUMPDEST DUP1 PUSH1 0x1F ADD PUSH1 0x20 DUP1 SWAP2 DIV MUL PUSH1 0x20 ADD PUSH1 0x40 MLOAD SWAP1 DUP2 ADD PUSH1 0x40 MSTORE DUP1 SWAP3 SWAP2 SWAP1 DUP2 DUP2 MSTORE PUSH1 0x20 ADD DUP3 DUP1 SLOAD PUSH2 0x1099 SWAP1 PUSH2 0x359D JUMP JUMPDEST DUP1 ISZERO PUSH2 0x10E6 JUMPI DUP1 PUSH1 0x1F LT PUSH2 0x10BB JUMPI PUSH2 0x100 DUP1 DUP4 SLOAD DIV MUL DUP4 MSTORE SWAP2 PUSH1 0x20 ADD SWAP2 PUSH2 0x10E6 JUMP JUMPDEST DUP3 ADD SWAP2 SWAP1 PUSH1 0x0 MSTORE PUSH1 0x20 PUSH1 0x0 KECCAK256 SWAP1 JUMPDEST DUP2 SLOAD DUP2 MSTORE SWAP1 PUSH1 0x1 ADD SWAP1 PUSH1 0x20 ADD DUP1 DUP4 GT PUSH2 0x10C9 JUMPI DUP3 SWAP1 SUB PUSH1 0x1F AND DUP3 ADD SWAP2 JUMPDEST POP POP POP PUSH1 0x4 SWAP1 SWAP4 ADD SLOAD SWAP2 SWAP3 POP POP PUSH1 0x1 PUSH1 0x1 PUSH1 0xA0 SHL SUB AND DUP3 JUMP JUMPDEST PUSH2 0x1109 CALLER DUP4 PUSH2 0x1C28 JUMP JUMPDEST PUSH2 0x1125 JUMPI PUSH1 0x40 MLOAD PUSH3 0x461BCD PUSH1 0xE5 SHL DUP2 MSTORE PUSH1 0x4 ADD PUSH2 0x722 SWAP1 PUSH2 0x348D JUMP JUMPDEST PUSH2 0x1131 DUP5 DUP5 DUP5 DUP5 PUSH2 0x232E JUMP JUMPDEST POP POP POP POP JUMP JUMPDEST PUSH1 0x0 DUP2 DUP2 MSTORE PUSH1 0x10 PUSH1 0x20 MSTORE PUSH1 0x40 DUP2 KECCAK256 SLOAD PUSH1 0xC DUP1 SLOAD PUSH1 0x60 SWAP4 SWAP2 SWAP1 DUP4 SWAP1 DUP2 LT PUSH2 0x115F JUMPI PUSH2 0x115F PUSH2 0x3649 JUMP JUMPDEST SWAP1 PUSH1 0x0 MSTORE PUSH1 0x20 PUSH1 0x0 KECCAK256 SWAP1 PUSH1 0x5 MUL ADD PUSH1 0x1 ADD DUP1 SLOAD DUP1 PUSH1 0x20 MUL PUSH1 0x20 ADD PUSH1 0x40 MLOAD SWAP1 DUP2 ADD PUSH1 0x40 MSTORE DUP1 SWAP3 SWAP2 SWAP1 DUP2 DUP2 MSTORE PUSH1 0x20 ADD PUSH1 0x0 SWAP1 JUMPDEST DUP3 DUP3 LT ISZERO PUSH2 0x123C JUMPI DUP4 DUP3 SWAP1 PUSH1 0x0 MSTORE PUSH1 0x20 PUSH1 0x0 KECCAK256 ADD DUP1 SLOAD PUSH2 0x11AF SWAP1 PUSH2 0x359D JUMP JUMPDEST DUP1 PUSH1 0x1F ADD PUSH1 0x20 DUP1 SWAP2 DIV MUL PUSH1 0x20 ADD PUSH1 0x40 MLOAD SWAP1 DUP2 ADD PUSH1 0x40 MSTORE DUP1 SWAP3 SWAP2 SWAP1 DUP2 DUP2 MSTORE PUSH1 0x20 ADD DUP3 DUP1 SLOAD PUSH2 0x11DB SWAP1 PUSH2 0x359D JUMP JUMPDEST DUP1 ISZERO PUSH2 0x1228 JUMPI DUP1 PUSH1 0x1F LT PUSH2 0x11FD JUMPI PUSH2 0x100 DUP1 DUP4 SLOAD DIV MUL DUP4 MSTORE SWAP2 PUSH1 0x20 ADD SWAP2 PUSH2 0x1228 JUMP JUMPDEST DUP3 ADD SWAP2 SWAP1 PUSH1 0x0 MSTORE PUSH1 0x20 PUSH1 0x0 KECCAK256 SWAP1 JUMPDEST DUP2 SLOAD DUP2 MSTORE SWAP1 PUSH1 0x1 ADD SWAP1 PUSH1 0x20 ADD DUP1 DUP4 GT PUSH2 0x120B JUMPI DUP3 SWAP1 SUB PUSH1 0x1F AND DUP3 ADD SWAP2 JUMPDEST POP POP POP POP POP DUP2 MSTORE PUSH1 0x20 ADD SWAP1 PUSH1 0x1 ADD SWAP1 PUSH2 0x1190 JUMP JUMPDEST POP POP POP POP SWAP1 POP PUSH1 0x0 PUSH1 0xC DUP4 DUP2 SLOAD DUP2 LT PUSH2 0x1257 JUMPI PUSH2 0x1257 PUSH2 0x3649 JUMP JUMPDEST SWAP1 PUSH1 0x0 MSTORE PUSH1 0x20 PUSH1 0x0 KECCAK256 SWAP1 PUSH1 0x5 MUL ADD PUSH1 0x2 ADD DUP1 SLOAD DUP1 PUSH1 0x20 MUL PUSH1 0x20 ADD PUSH1 0x40 MLOAD SWAP1 DUP2 ADD PUSH1 0x40 MSTORE DUP1 SWAP3 SWAP2 SWAP1 DUP2 DUP2 MSTORE PUSH1 0x20 ADD PUSH1 0x0 SWAP1 JUMPDEST DUP3 DUP3 LT ISZERO PUSH2 0x1334 JUMPI DUP4 DUP3 SWAP1 PUSH1 0x0 MSTORE PUSH1 0x20 PUSH1 0x0 KECCAK256 ADD DUP1 SLOAD PUSH2 0x12A7 SWAP1 PUSH2 0x359D JUMP JUMPDEST DUP1 PUSH1 0x1F ADD PUSH1 0x20 DUP1 SWAP2 DIV MUL PUSH1 0x20 ADD PUSH1 0x40 MLOAD SWAP1 DUP2 ADD PUSH1 0x40 MSTORE DUP1 SWAP3 SWAP2 SWAP1 DUP2 DUP2 MSTORE PUSH1 0x20 ADD DUP3 DUP1 SLOAD PUSH2 0x12D3 SWAP1 PUSH2 0x359D JUMP JUMPDEST DUP1 ISZERO PUSH2 0x1320 JUMPI DUP1 PUSH1 0x1F LT PUSH2 0x12F5 JUMPI PUSH2 0x100 DUP1 DUP4 SLOAD DIV MUL DUP4 MSTORE SWAP2 PUSH1 0x20 ADD SWAP2 PUSH2 0x1320 JUMP JUMPDEST DUP3 ADD SWAP2 SWAP1 PUSH1 0x0 MSTORE PUSH1 0x20 PUSH1 0x0 KECCAK256 SWAP1 JUMPDEST DUP2 SLOAD DUP2 MSTORE SWAP1 PUSH1 0x1 ADD SWAP1 PUSH1 0x20 ADD DUP1 DUP4 GT PUSH2 0x1303 JUMPI DUP3 SWAP1 SUB PUSH1 0x1F AND DUP3 ADD SWAP2 JUMPDEST POP POP POP POP POP DUP2 MSTORE PUSH1 0x20 ADD SWAP1 PUSH1 0x1 ADD SWAP1 PUSH2 0x1288 JUMP JUMPDEST POP POP POP POP SWAP1 POP PUSH1 0x0 PUSH1 0xC DUP5 DUP2 SLOAD DUP2 LT PUSH2 0x134F JUMPI PUSH2 0x134F PUSH2 0x3649 JUMP JUMPDEST SWAP1 PUSH1 0x0 MSTORE PUSH1 0x20 PUSH1 0x0 KECCAK256 SWAP1 PUSH1 0x5 MUL ADD PUSH1 0x3 ADD DUP1 SLOAD DUP1 PUSH1 0x20 MUL PUSH1 0x20 ADD PUSH1 0x40 MLOAD SWAP1 DUP2 ADD PUSH1 0x40 MSTORE DUP1 SWAP3 SWAP2 SWAP1 DUP2 DUP2 MSTORE PUSH1 0x20 ADD PUSH1 0x0 SWAP1 JUMPDEST DUP3 DUP3 LT ISZERO PUSH2 0x142C JUMPI DUP4 DUP3 SWAP1 PUSH1 0x0 MSTORE PUSH1 0x20 PUSH1 0x0 KECCAK256 ADD DUP1 SLOAD PUSH2 0x139F SWAP1 PUSH2 0x359D JUMP JUMPDEST DUP1 PUSH1 0x1F ADD PUSH1 0x20 DUP1 SWAP2 DIV MUL PUSH1 0x20 ADD PUSH1 0x40 MLOAD SWAP1 DUP2 ADD PUSH1 0x40 MSTORE DUP1 SWAP3 SWAP2 SWAP1 DUP2 DUP2 MSTORE PUSH1 0x20 ADD DUP3 DUP1 SLOAD PUSH2 0x13CB SWAP1 PUSH2 0x359D JUMP JUMPDEST DUP1 ISZERO PUSH2 0x1418 JUMPI DUP1 PUSH1 0x1F LT PUSH2 0x13ED JUMPI PUSH2 0x100 DUP1 DUP4 SLOAD DIV MUL DUP4 MSTORE SWAP2 PUSH1 0x20 ADD SWAP2 PUSH2 0x1418 JUMP JUMPDEST DUP3 ADD SWAP2 SWAP1 PUSH1 0x0 MSTORE PUSH1 0x20 PUSH1 0x0 KECCAK256 SWAP1 JUMPDEST DUP2 SLOAD DUP2 MSTORE SWAP1 PUSH1 0x1 ADD SWAP1 PUSH1 0x20 ADD DUP1 DUP4 GT PUSH2 0x13FB JUMPI DUP3 SWAP1 SUB PUSH1 0x1F AND DUP3 ADD SWAP2 JUMPDEST POP POP POP POP POP DUP2 MSTORE PUSH1 0x20 ADD SWAP1 PUSH1 0x1 ADD SWAP1 PUSH2 0x1380 JUMP JUMPDEST POP POP POP POP SWAP1 POP PUSH2 0x143A PUSH2 0x2A7A JUMP JUMPDEST PUSH1 0x40 MLOAD DUP1 PUSH2 0x120 ADD PUSH1 0x40 MSTORE DUP1 PUSH1 0xFD DUP2 MSTORE PUSH1 0x20 ADD PUSH2 0x36DC PUSH1 0xFD SWAP2 CODECOPY DUP2 MSTORE PUSH2 0x1460 DUP8 DUP6 PUSH2 0xCB6 JUMP JUMPDEST DUP2 PUSH1 0x1 PUSH1 0x20 MUL ADD DUP2 SWAP1 MSTORE POP PUSH1 0x40 MLOAD DUP1 PUSH1 0x60 ADD PUSH1 0x40 MSTORE DUP1 PUSH1 0x28 DUP2 MSTORE PUSH1 0x20 ADD PUSH2 0x3819 PUSH1 0x28 SWAP2 CODECOPY PUSH1 0x40 DUP3 ADD MSTORE PUSH2 0x1493 DUP8 DUP5 PUSH2 0x1B3F JUMP JUMPDEST PUSH1 0x60 DUP1 DUP4 ADD SWAP2 SWAP1 SWAP2 MSTORE PUSH1 0x40 DUP1 MLOAD SWAP2 DUP3 ADD SWAP1 MSTORE PUSH1 0x28 DUP1 DUP3 MSTORE PUSH2 0x368C PUSH1 0x20 DUP4 ADD CODECOPY PUSH1 0x80 DUP3 ADD MSTORE PUSH2 0x14C1 DUP8 DUP4 PUSH2 0x1A44 JUMP JUMPDEST PUSH1 0xA0 DUP3 ADD MSTORE PUSH1 0x40 DUP1 MLOAD PUSH1 0x60 DUP2 ADD SWAP1 SWAP2 MSTORE PUSH1 0x28 DUP1 DUP3 MSTORE PUSH2 0x36B4 PUSH1 0x20 DUP4 ADD CODECOPY PUSH1 0xC0 DUP3 ADD MSTORE PUSH1 0x40 DUP1 MLOAD DUP1 DUP3 ADD SWAP1 SWAP2 MSTORE PUSH1 0xD DUP2 MSTORE PUSH13 0x1E17BA32BC3A1F1E17B9BB339F PUSH1 0x99 SHL PUSH1 0x20 DUP3 ADD MSTORE DUP2 PUSH1 0x7 PUSH1 0x20 SWAP1 DUP2 MUL SWAP2 SWAP1 SWAP2 ADD SWAP2 SWAP1 SWAP2 MSTORE DUP2 MLOAD DUP3 DUP3 ADD MLOAD PUSH1 0x40 DUP1 DUP6 ADD MLOAD PUSH1 0x60 DUP7 ADD MLOAD PUSH1 0x80 DUP8 ADD MLOAD PUSH1 0xA0 DUP9 ADD MLOAD PUSH1 0xC0 DUP10 ADD MLOAD SWAP5 MLOAD PUSH1 0x0 SWAP9 PUSH2 0x1549 SWAP9 SWAP8 SWAP7 SWAP2 ADD PUSH2 0x2F7D JUMP JUMPDEST PUSH1 0x40 DUP1 MLOAD DUP1 DUP4 SUB PUSH1 0x1F NOT ADD DUP2 MSTORE SWAP1 DUP3 SWAP1 MSTORE PUSH1 0xE0 DUP5 ADD MLOAD SWAP1 SWAP3 POP PUSH2 0x1571 SWAP2 DUP4 SWAP2 SWAP1 PUSH1 0x20 ADD PUSH2 0x2F4E JUMP JUMPDEST PUSH1 0x40 MLOAD PUSH1 0x20 DUP2 DUP4 SUB SUB DUP2 MSTORE SWAP1 PUSH1 0x40 MSTORE SWAP1 POP PUSH1 0x0 PUSH2 0x15BE PUSH2 0x1590 DUP11 PUSH2 0x1ECA JUMP JUMPDEST PUSH2 0x1599 DUP5 PUSH2 0x2361 JUMP JUMPDEST PUSH1 0x40 MLOAD PUSH1 0x20 ADD PUSH2 0x15AA SWAP3 SWAP2 SWAP1 PUSH2 0x31E6 JUMP JUMPDEST PUSH1 0x40 MLOAD PUSH1 0x20 DUP2 DUP4 SUB SUB DUP2 MSTORE SWAP1 PUSH1 0x40 MSTORE PUSH2 0x2361 JUMP JUMPDEST SWAP1 POP DUP1 PUSH1 0x40 MLOAD PUSH1 0x20 ADD PUSH2 0x15D1 SWAP2 SWAP1 PUSH2 0x337C JUMP JUMPDEST PUSH1 0x40 DUP1 MLOAD PUSH1 0x1F NOT DUP2 DUP5 SUB ADD DUP2 MSTORE SWAP2 SWAP1 MSTORE SWAP10 SWAP9 POP POP POP POP POP POP POP POP POP JUMP JUMPDEST PUSH1 0x0 DUP2 DUP2 MSTORE PUSH1 0x10 PUSH1 0x20 MSTORE PUSH1 0x40 DUP2 KECCAK256 SLOAD PUSH1 0xC DUP1 SLOAD PUSH1 0x60 SWAP4 SWAP2 SWAP1 DUP4 SWAP1 DUP2 LT PUSH2 0x1616 JUMPI PUSH2 0x1616 PUSH2 0x3649 JUMP JUMPDEST SWAP1 PUSH1 0x0 MSTORE PUSH1 0x20 PUSH1 0x0 KECCAK256 SWAP1 PUSH1 0x5 MUL ADD PUSH1 0x1 ADD DUP1 SLOAD DUP1 PUSH1 0x20 MUL PUSH1 0x20 ADD PUSH1 0x40 MLOAD SWAP1 DUP2 ADD PUSH1 0x40 MSTORE DUP1 SWAP3 SWAP2 SWAP1 DUP2 DUP2 MSTORE PUSH1 0x20 ADD PUSH1 0x0 SWAP1 JUMPDEST DUP3 DUP3 LT ISZERO PUSH2 0x16F3 JUMPI DUP4 DUP3 SWAP1 PUSH1 0x0 MSTORE PUSH1 0x20 PUSH1 0x0 KECCAK256 ADD DUP1 SLOAD PUSH2 0x1666 SWAP1 PUSH2 0x359D JUMP JUMPDEST DUP1 PUSH1 0x1F ADD PUSH1 0x20 DUP1 SWAP2 DIV MUL PUSH1 0x20 ADD PUSH1 0x40 MLOAD SWAP1 DUP2 ADD PUSH1 0x40 MSTORE DUP1 SWAP3 SWAP2 SWAP1 DUP2 DUP2 MSTORE PUSH1 0x20 ADD DUP3 DUP1 SLOAD PUSH2 0x1692 SWAP1 PUSH2 0x359D JUMP JUMPDEST DUP1 ISZERO PUSH2 0x16DF JUMPI DUP1 PUSH1 0x1F LT PUSH2 0x16B4 JUMPI PUSH2 0x100 DUP1 DUP4 SLOAD DIV MUL DUP4 MSTORE SWAP2 PUSH1 0x20 ADD SWAP2 PUSH2 0x16DF JUMP JUMPDEST DUP3 ADD SWAP2 SWAP1 PUSH1 0x0 MSTORE PUSH1 0x20 PUSH1 0x0 KECCAK256 SWAP1 JUMPDEST DUP2 SLOAD DUP2 MSTORE SWAP1 PUSH1 0x1 ADD SWAP1 PUSH1 0x20 ADD DUP1 DUP4 GT PUSH2 0x16C2 JUMPI DUP3 SWAP1 SUB PUSH1 0x1F AND DUP3 ADD SWAP2 JUMPDEST POP POP POP POP POP DUP2 MSTORE PUSH1 0x20 ADD SWAP1 PUSH1 0x1 ADD SWAP1 PUSH2 0x1647 JUMP JUMPDEST POP POP POP POP SWAP1 POP PUSH1 0x0 PUSH1 0xC DUP4 DUP2 SLOAD DUP2 LT PUSH2 0x170E JUMPI PUSH2 0x170E PUSH2 0x3649 JUMP JUMPDEST SWAP1 PUSH1 0x0 MSTORE PUSH1 0x20 PUSH1 0x0 KECCAK256 SWAP1 PUSH1 0x5 MUL ADD PUSH1 0x2 ADD DUP1 SLOAD DUP1 PUSH1 0x20 MUL PUSH1 0x20 ADD PUSH1 0x40 MLOAD SWAP1 DUP2 ADD PUSH1 0x40 MSTORE DUP1 SWAP3 SWAP2 SWAP1 DUP2 DUP2 MSTORE PUSH1 0x20 ADD PUSH1 0x0 SWAP1 JUMPDEST DUP3 DUP3 LT ISZERO PUSH2 0x17EB JUMPI DUP4 DUP3 SWAP1 PUSH1 0x0 MSTORE PUSH1 0x20 PUSH1 0x0 KECCAK256 ADD DUP1 SLOAD PUSH2 0x175E SWAP1 PUSH2 0x359D JUMP JUMPDEST DUP1 PUSH1 0x1F ADD PUSH1 0x20 DUP1 SWAP2 DIV MUL PUSH1 0x20 ADD PUSH1 0x40 MLOAD SWAP1 DUP2 ADD PUSH1 0x40 MSTORE DUP1 SWAP3 SWAP2 SWAP1 DUP2 DUP2 MSTORE PUSH1 0x20 ADD DUP3 DUP1 SLOAD PUSH2 0x178A SWAP1 PUSH2 0x359D JUMP JUMPDEST DUP1 ISZERO PUSH2 0x17D7 JUMPI DUP1 PUSH1 0x1F LT PUSH2 0x17AC JUMPI PUSH2 0x100 DUP1 DUP4 SLOAD DIV MUL DUP4 MSTORE SWAP2 PUSH1 0x20 ADD SWAP2 PUSH2 0x17D7 JUMP JUMPDEST DUP3 ADD SWAP2 SWAP1 PUSH1 0x0 MSTORE PUSH1 0x20 PUSH1 0x0 KECCAK256 SWAP1 JUMPDEST DUP2 SLOAD DUP2 MSTORE SWAP1 PUSH1 0x1 ADD SWAP1 PUSH1 0x20 ADD DUP1 DUP4 GT PUSH2 0x17BA JUMPI DUP3 SWAP1 SUB PUSH1 0x1F AND DUP3 ADD SWAP2 JUMPDEST POP POP POP POP POP DUP2 MSTORE PUSH1 0x20 ADD SWAP1 PUSH1 0x1 ADD SWAP1 PUSH2 0x173F JUMP JUMPDEST POP POP POP POP SWAP1 POP PUSH1 0x0 PUSH1 0xC DUP5 DUP2 SLOAD DUP2 LT PUSH2 0x1806 JUMPI PUSH2 0x1806 PUSH2 0x3649 JUMP JUMPDEST SWAP1 PUSH1 0x0 MSTORE PUSH1 0x20 PUSH1 0x0 KECCAK256 SWAP1 PUSH1 0x5 MUL ADD PUSH1 0x3 ADD DUP1 SLOAD DUP1 PUSH1 0x20 MUL PUSH1 0x20 ADD PUSH1 0x40 MLOAD SWAP1 DUP2 ADD PUSH1 0x40 MSTORE DUP1 SWAP3 SWAP2 SWAP1 DUP2 DUP2 MSTORE PUSH1 0x20 ADD PUSH1 0x0 SWAP1 JUMPDEST DUP3 DUP3 LT ISZERO PUSH2 0x18E3 JUMPI DUP4 DUP3 SWAP1 PUSH1 0x0 MSTORE PUSH1 0x20 PUSH1 0x0 KECCAK256 ADD DUP1 SLOAD PUSH2 0x1856 SWAP1 PUSH2 0x359D JUMP JUMPDEST DUP1 PUSH1 0x1F ADD PUSH1 0x20 DUP1 SWAP2 DIV MUL PUSH1 0x20 ADD PUSH1 0x40 MLOAD SWAP1 DUP2 ADD PUSH1 0x40 MSTORE DUP1 SWAP3 SWAP2 SWAP1 DUP2 DUP2 MSTORE PUSH1 0x20 ADD DUP3 DUP1 SLOAD PUSH2 0x1882 SWAP1 PUSH2 0x359D JUMP JUMPDEST DUP1 ISZERO PUSH2 0x18CF JUMPI DUP1 PUSH1 0x1F LT PUSH2 0x18A4 JUMPI PUSH2 0x100 DUP1 DUP4 SLOAD DIV MUL DUP4 MSTORE SWAP2 PUSH1 0x20 ADD SWAP2 PUSH2 0x18CF JUMP JUMPDEST DUP3 ADD SWAP2 SWAP1 PUSH1 0x0 MSTORE PUSH1 0x20 PUSH1 0x0 KECCAK256 SWAP1 JUMPDEST DUP2 SLOAD DUP2 MSTORE SWAP1 PUSH1 0x1 ADD SWAP1 PUSH1 0x20 ADD DUP1 DUP4 GT PUSH2 0x18B2 JUMPI DUP3 SWAP1 SUB PUSH1 0x1F AND DUP3 ADD SWAP2 JUMPDEST POP POP POP POP POP DUP2 MSTORE PUSH1 0x20 ADD SWAP1 PUSH1 0x1 ADD SWAP1 PUSH2 0x1837 JUMP JUMPDEST POP POP POP POP SWAP1 POP PUSH2 0x18F1 PUSH2 0x2A7A JUMP JUMPDEST PUSH1 0x40 MLOAD DUP1 PUSH2 0x120 ADD PUSH1 0x40 MSTORE DUP1 PUSH1 0xFD DUP2 MSTORE PUSH1 0x20 ADD PUSH2 0x36DC PUSH1 0xFD SWAP2 CODECOPY DUP2 MSTORE PUSH2 0x1917 DUP8 DUP6 PUSH2 0xCB6 JUMP JUMPDEST DUP2 PUSH1 0x1 PUSH1 0x20 MUL ADD DUP2 SWAP1 MSTORE POP PUSH1 0x40 MLOAD DUP1 PUSH1 0x60 ADD PUSH1 0x40 MSTORE DUP1 PUSH1 0x28 DUP2 MSTORE PUSH1 0x20 ADD PUSH2 0x3819 PUSH1 0x28 SWAP2 CODECOPY PUSH1 0x40 DUP3 ADD MSTORE PUSH2 0x194A DUP8 DUP5 PUSH2 0x1B3F JUMP JUMPDEST PUSH1 0x60 DUP1 DUP4 ADD SWAP2 SWAP1 SWAP2 MSTORE PUSH1 0x40 DUP1 MLOAD SWAP2 DUP3 ADD SWAP1 MSTORE PUSH1 0x28 DUP1 DUP3 MSTORE PUSH2 0x368C PUSH1 0x20 DUP4 ADD CODECOPY PUSH1 0x80 DUP3 ADD MSTORE PUSH2 0x1978 DUP8 DUP4 PUSH2 0x1A44 JUMP JUMPDEST PUSH1 0xA0 DUP3 ADD MSTORE PUSH1 0x40 DUP1 MLOAD PUSH1 0x60 DUP2 ADD SWAP1 SWAP2 MSTORE PUSH1 0x28 DUP1 DUP3 MSTORE PUSH2 0x36B4 PUSH1 0x20 DUP4 ADD CODECOPY PUSH1 0xC0 DUP3 ADD MSTORE PUSH1 0x40 DUP1 MLOAD DUP1 DUP3 ADD SWAP1 SWAP2 MSTORE PUSH1 0xD DUP2 MSTORE PUSH13 0x1E17BA32BC3A1F1E17B9BB339F PUSH1 0x99 SHL PUSH1 0x20 DUP3 ADD MSTORE DUP2 PUSH1 0x7 PUSH1 0x20 SWAP1 DUP2 MUL SWAP2 SWAP1 SWAP2 ADD SWAP2 SWAP1 SWAP2 MSTORE DUP2 MLOAD DUP3 DUP3 ADD MLOAD PUSH1 0x40 DUP1 DUP6 ADD MLOAD PUSH1 0x60 DUP7 ADD MLOAD PUSH1 0x80 DUP8 ADD MLOAD PUSH1 0xA0 DUP9 ADD MLOAD PUSH1 0xC0 DUP10 ADD MLOAD SWAP5 MLOAD PUSH1 0x0 SWAP9 PUSH2 0x1A00 SWAP9 SWAP8 SWAP7 SWAP2 ADD PUSH2 0x2F7D JUMP JUMPDEST PUSH1 0x40 DUP1 MLOAD DUP1 DUP4 SUB PUSH1 0x1F NOT ADD DUP2 MSTORE SWAP1 DUP3 SWAP1 MSTORE PUSH1 0xE0 DUP5 ADD MLOAD SWAP1 SWAP3 POP PUSH2 0x1A28 SWAP2 DUP4 SWAP2 SWAP1 PUSH1 0x20 ADD PUSH2 0x2F4E JUMP JUMPDEST PUSH1 0x40 DUP1 MLOAD PUSH1 0x1F NOT DUP2 DUP5 SUB ADD DUP2 MSTORE SWAP2 SWAP1 MSTORE SWAP9 SWAP8 POP POP POP POP POP POP POP POP JUMP JUMPDEST PUSH1 0x60 PUSH2 0xCE1 DUP4 PUSH1 0x40 MLOAD DUP1 PUSH1 0x40 ADD PUSH1 0x40 MSTORE DUP1 PUSH1 0xB DUP2 MSTORE PUSH1 0x20 ADD PUSH11 0x4143434553534F52494553 PUSH1 0xA8 SHL DUP2 MSTORE POP DUP5 PUSH2 0x2017 JUMP JUMPDEST PUSH1 0xB SLOAD PUSH1 0x1 PUSH1 0x1 PUSH1 0xA0 SHL SUB AND CALLER EQ PUSH2 0x1ACE JUMPI PUSH1 0x40 MLOAD PUSH3 0x461BCD PUSH1 0xE5 SHL DUP2 MSTORE PUSH1 0x20 PUSH1 0x4 DUP3 ADD DUP2 SWAP1 MSTORE PUSH1 0x24 DUP3 ADD MSTORE PUSH32 0x4F776E61626C653A2063616C6C6572206973206E6F7420746865206F776E6572 PUSH1 0x44 DUP3 ADD MSTORE PUSH1 0x64 ADD PUSH2 0x722 JUMP JUMPDEST PUSH1 0x1 PUSH1 0x1 PUSH1 0xA0 SHL SUB DUP2 AND PUSH2 0x1B33 JUMPI PUSH1 0x40 MLOAD PUSH3 0x461BCD PUSH1 0xE5 SHL DUP2 MSTORE PUSH1 0x20 PUSH1 0x4 DUP3 ADD MSTORE PUSH1 0x26 PUSH1 0x24 DUP3 ADD MSTORE PUSH32 0x4F776E61626C653A206E6577206F776E657220697320746865207A65726F2061 PUSH1 0x44 DUP3 ADD MSTORE PUSH6 0x646472657373 PUSH1 0xD0 SHL PUSH1 0x64 DUP3 ADD MSTORE PUSH1 0x84 ADD PUSH2 0x722 JUMP JUMPDEST PUSH2 0x1B3C DUP2 PUSH2 0x22DC JUMP JUMPDEST POP JUMP JUMPDEST PUSH1 0x60 PUSH2 0xCE1 DUP4 PUSH1 0x40 MLOAD DUP1 PUSH1 0x40 ADD PUSH1 0x40 MSTORE DUP1 PUSH1 0x6 DUP2 MSTORE PUSH1 0x20 ADD PUSH6 0x415454495245 PUSH1 0xD0 SHL DUP2 MSTORE POP DUP5 PUSH2 0x2017 JUMP JUMPDEST PUSH1 0x0 PUSH1 0x1 PUSH1 0x1 PUSH1 0xE0 SHL SUB NOT DUP3 AND PUSH4 0x80AC58CD PUSH1 0xE0 SHL EQ DUP1 PUSH2 0x1B9B JUMPI POP PUSH1 0x1 PUSH1 0x1 PUSH1 0xE0 SHL SUB NOT DUP3 AND PUSH4 0x5B5E139F PUSH1 0xE0 SHL EQ JUMPDEST DUP1 PUSH2 0x615 JUMPI POP PUSH4 0x1FFC9A7 PUSH1 0xE0 SHL PUSH1 0x1 PUSH1 0x1 PUSH1 0xE0 SHL SUB NOT DUP4 AND EQ PUSH2 0x615 JUMP JUMPDEST PUSH1 0x0 DUP2 DUP2 MSTORE PUSH1 0x4 PUSH1 0x20 MSTORE PUSH1 0x40 SWAP1 KECCAK256 DUP1 SLOAD PUSH1 0x1 PUSH1 0x1 PUSH1 0xA0 SHL SUB NOT AND PUSH1 0x1 PUSH1 0x1 PUSH1 0xA0 SHL SUB DUP5 AND SWAP1 DUP2 OR SWAP1 SWAP2 SSTORE DUP2 SWAP1 PUSH2 0x1BEF DUP3 PUSH2 0xC3F JUMP JUMPDEST PUSH1 0x1 PUSH1 0x1 PUSH1 0xA0 SHL SUB AND PUSH32 0x8C5BE1E5EBEC7D5BD14F71427D1E84F3DD0314C0F7B2291E5B200AC8C7C3B925 PUSH1 0x40 MLOAD PUSH1 0x40 MLOAD DUP1 SWAP2 SUB SWAP1 LOG4 POP POP JUMP JUMPDEST PUSH1 0x0 DUP2 DUP2 MSTORE PUSH1 0x2 PUSH1 0x20 MSTORE PUSH1 0x40 DUP2 KECCAK256 SLOAD PUSH1 0x1 PUSH1 0x1 PUSH1 0xA0 SHL SUB AND PUSH2 0x1CA1 JUMPI PUSH1 0x40 MLOAD PUSH3 0x461BCD PUSH1 0xE5 SHL DUP2 MSTORE PUSH1 0x20 PUSH1 0x4 DUP3 ADD MSTORE PUSH1 0x2C PUSH1 0x24 DUP3 ADD MSTORE PUSH32 0x4552433732313A206F70657261746F7220717565727920666F72206E6F6E6578 PUSH1 0x44 DUP3 ADD MSTORE PUSH12 0x34B9BA32B73A103A37B5B2B7 PUSH1 0xA1 SHL PUSH1 0x64 DUP3 ADD MSTORE PUSH1 0x84 ADD PUSH2 0x722 JUMP JUMPDEST PUSH1 0x0 PUSH2 0x1CAC DUP4 PUSH2 0xC3F JUMP JUMPDEST SWAP1 POP DUP1 PUSH1 0x1 PUSH1 0x1 PUSH1 0xA0 SHL SUB AND DUP5 PUSH1 0x1 PUSH1 0x1 PUSH1 0xA0 SHL SUB AND EQ DUP1 PUSH2 0x1CE7 JUMPI POP DUP4 PUSH1 0x1 PUSH1 0x1 PUSH1 0xA0 SHL SUB AND PUSH2 0x1CDC DUP5 PUSH2 0x6AD JUMP JUMPDEST PUSH1 0x1 PUSH1 0x1 PUSH1 0xA0 SHL SUB AND EQ JUMPDEST DUP1 PUSH2 0x1D17 JUMPI POP PUSH1 0x1 PUSH1 0x1 PUSH1 0xA0 SHL SUB DUP1 DUP3 AND PUSH1 0x0 SWAP1 DUP2 MSTORE PUSH1 0x5 PUSH1 0x20 SWAP1 DUP2 MSTORE PUSH1 0x40 DUP1 DUP4 KECCAK256 SWAP4 DUP9 AND DUP4 MSTORE SWAP3 SWAP1 MSTORE KECCAK256 SLOAD PUSH1 0xFF AND JUMPDEST SWAP5 SWAP4 POP POP POP POP JUMP JUMPDEST DUP3 PUSH1 0x1 PUSH1 0x1 PUSH1 0xA0 SHL SUB AND PUSH2 0x1D32 DUP3 PUSH2 0xC3F JUMP JUMPDEST PUSH1 0x1 PUSH1 0x1 PUSH1 0xA0 SHL SUB AND EQ PUSH2 0x1D9A JUMPI PUSH1 0x40 MLOAD PUSH3 0x461BCD PUSH1 0xE5 SHL DUP2 MSTORE PUSH1 0x20 PUSH1 0x4 DUP3 ADD MSTORE PUSH1 0x29 PUSH1 0x24 DUP3 ADD MSTORE PUSH32 0x4552433732313A207472616E73666572206F6620746F6B656E20746861742069 PUSH1 0x44 DUP3 ADD MSTORE PUSH9 0x39903737BA1037BBB7 PUSH1 0xB9 SHL PUSH1 0x64 DUP3 ADD MSTORE PUSH1 0x84 ADD PUSH2 0x722 JUMP JUMPDEST PUSH1 0x1 PUSH1 0x1 PUSH1 0xA0 SHL SUB DUP3 AND PUSH2 0x1DFC JUMPI PUSH1 0x40 MLOAD PUSH3 0x461BCD PUSH1 0xE5 SHL DUP2 MSTORE PUSH1 0x20 PUSH1 0x4 DUP3 ADD MSTORE PUSH1 0x24 DUP1 DUP3 ADD MSTORE PUSH32 0x4552433732313A207472616E7366657220746F20746865207A65726F20616464 PUSH1 0x44 DUP3 ADD MSTORE PUSH4 0x72657373 PUSH1 0xE0 SHL PUSH1 0x64 DUP3 ADD MSTORE PUSH1 0x84 ADD PUSH2 0x722 JUMP JUMPDEST PUSH2 0x1E07 DUP4 DUP4 DUP4 PUSH2 0x24C7 JUMP JUMPDEST PUSH2 0x1E12 PUSH1 0x0 DUP3 PUSH2 0x1BBA JUMP JUMPDEST PUSH1 0x1 PUSH1 0x1 PUSH1 0xA0 SHL SUB DUP4 AND PUSH1 0x0 SWAP1 DUP2 MSTORE PUSH1 0x3 PUSH1 0x20 MSTORE PUSH1 0x40 DUP2 KECCAK256 DUP1 SLOAD PUSH1 0x1 SWAP3 SWAP1 PUSH2 0x1E3B SWAP1 DUP5 SWAP1 PUSH2 0x355A JUMP JUMPDEST SWAP1 SWAP2 SSTORE POP POP PUSH1 0x1 PUSH1 0x1 PUSH1 0xA0 SHL SUB DUP3 AND PUSH1 0x0 SWAP1 DUP2 MSTORE PUSH1 0x3 PUSH1 0x20 MSTORE PUSH1 0x40 DUP2 KECCAK256 DUP1 SLOAD PUSH1 0x1 SWAP3 SWAP1 PUSH2 0x1E69 SWAP1 DUP5 SWAP1 PUSH2 0x350F JUMP JUMPDEST SWAP1 SWAP2 SSTORE POP POP PUSH1 0x0 DUP2 DUP2 MSTORE PUSH1 0x2 PUSH1 0x20 MSTORE PUSH1 0x40 DUP1 DUP3 KECCAK256 DUP1 SLOAD PUSH1 0x1 PUSH1 0x1 PUSH1 0xA0 SHL SUB NOT AND PUSH1 0x1 PUSH1 0x1 PUSH1 0xA0 SHL SUB DUP7 DUP2 AND SWAP2 DUP3 OR SWAP1 SWAP3 SSTORE SWAP2 MLOAD DUP5 SWAP4 SWAP2 DUP8 AND SWAP2 PUSH32 0xDDF252AD1BE2C89B69C2B068FC378DAA952BA7F163C4A11628F55A4DF523B3EF SWAP2 LOG4 POP POP POP JUMP JUMPDEST PUSH1 0x60 DUP2 PUSH2 0x1EEE JUMPI POP POP PUSH1 0x40 DUP1 MLOAD DUP1 DUP3 ADD SWAP1 SWAP2 MSTORE PUSH1 0x1 DUP2 MSTORE PUSH1 0x3 PUSH1 0xFC SHL PUSH1 0x20 DUP3 ADD MSTORE SWAP1 JUMP JUMPDEST DUP2 PUSH1 0x0 JUMPDEST DUP2 ISZERO PUSH2 0x1F18 JUMPI DUP1 PUSH2 0x1F02 DUP2 PUSH2 0x35D8 JUMP JUMPDEST SWAP2 POP PUSH2 0x1F11 SWAP1 POP PUSH1 0xA DUP4 PUSH2 0x3527 JUMP JUMPDEST SWAP2 POP PUSH2 0x1EF2 JUMP JUMPDEST PUSH1 0x0 DUP2 PUSH8 0xFFFFFFFFFFFFFFFF DUP2 GT ISZERO PUSH2 0x1F33 JUMPI PUSH2 0x1F33 PUSH2 0x365F JUMP JUMPDEST PUSH1 0x40 MLOAD SWAP1 DUP1 DUP3 MSTORE DUP1 PUSH1 0x1F ADD PUSH1 0x1F NOT AND PUSH1 0x20 ADD DUP3 ADD PUSH1 0x40 MSTORE DUP1 ISZERO PUSH2 0x1F5D JUMPI PUSH1 0x20 DUP3 ADD DUP2 DUP1 CALLDATASIZE DUP4 CALLDATACOPY ADD SWAP1 POP JUMPDEST POP SWAP1 POP JUMPDEST DUP5 ISZERO PUSH2 0x1D17 JUMPI PUSH2 0x1F72 PUSH1 0x1 DUP4 PUSH2 0x355A JUMP JUMPDEST SWAP2 POP PUSH2 0x1F7F PUSH1 0xA DUP7 PUSH2 0x35F3 JUMP JUMPDEST PUSH2 0x1F8A SWAP1 PUSH1 0x30 PUSH2 0x350F JUMP JUMPDEST PUSH1 0xF8 SHL DUP2 DUP4 DUP2 MLOAD DUP2 LT PUSH2 0x1F9F JUMPI PUSH2 0x1F9F PUSH2 0x3649 JUMP JUMPDEST PUSH1 0x20 ADD ADD SWAP1 PUSH1 0x1 PUSH1 0x1 PUSH1 0xF8 SHL SUB NOT AND SWAP1 DUP2 PUSH1 0x0 BYTE SWAP1 MSTORE8 POP PUSH2 0x1FC1 PUSH1 0xA DUP7 PUSH2 0x3527 JUMP JUMPDEST SWAP5 POP PUSH2 0x1F61 JUMP JUMPDEST PUSH1 0x0 DUP2 PUSH1 0x40 MLOAD PUSH1 0x20 ADD PUSH2 0x1FDB SWAP2 SWAP1 PUSH2 0x2F32 JUMP JUMPDEST PUSH1 0x40 DUP1 MLOAD PUSH1 0x1F NOT DUP2 DUP5 SUB ADD DUP2 MSTORE SWAP2 SWAP1 MSTORE DUP1 MLOAD PUSH1 0x20 SWAP1 SWAP2 ADD KECCAK256 SWAP3 SWAP2 POP POP JUMP JUMPDEST PUSH2 0x2013 DUP3 DUP3 PUSH1 0x40 MLOAD DUP1 PUSH1 0x20 ADD PUSH1 0x40 MSTORE DUP1 PUSH1 0x0 DUP2 MSTORE POP PUSH2 0x257F JUMP JUMPDEST POP POP JUMP JUMPDEST PUSH1 0x60 PUSH1 0x0 PUSH2 0x2039 DUP5 PUSH2 0x2028 DUP8 PUSH2 0x1ECA JUMP JUMPDEST PUSH1 0x40 MLOAD PUSH1 0x20 ADD PUSH2 0x9FC SWAP3 SWAP2 SWAP1 PUSH2 0x2F4E JUMP JUMPDEST SWAP1 POP PUSH1 0x0 DUP4 DUP5 MLOAD DUP4 PUSH2 0x204B SWAP2 SWAP1 PUSH2 0x35F3 JUMP JUMPDEST DUP2 MLOAD DUP2 LT PUSH2 0x205B JUMPI PUSH2 0x205B PUSH2 0x3649 JUMP JUMPDEST PUSH1 0x20 MUL PUSH1 0x20 ADD ADD MLOAD SWAP1 POP PUSH1 0x0 PUSH1 0x15 DUP4 PUSH2 0x2074 SWAP2 SWAP1 PUSH2 0x35F3 JUMP JUMPDEST SWAP1 POP PUSH1 0xE DUP2 GT ISZERO PUSH2 0x20CD JUMPI PUSH1 0x13 DUP1 SLOAD DUP4 SWAP2 SWAP1 PUSH2 0x2090 SWAP1 DUP7 PUSH2 0x35F3 JUMP JUMPDEST DUP2 SLOAD DUP2 LT PUSH2 0x20A0 JUMPI PUSH2 0x20A0 PUSH2 0x3649 JUMP JUMPDEST SWAP1 PUSH1 0x0 MSTORE PUSH1 0x20 PUSH1 0x0 KECCAK256 ADD PUSH1 0x40 MLOAD PUSH1 0x20 ADD PUSH2 0x20BB SWAP3 SWAP2 SWAP1 PUSH2 0x300F JUMP JUMPDEST PUSH1 0x40 MLOAD PUSH1 0x20 DUP2 DUP4 SUB SUB DUP2 MSTORE SWAP1 PUSH1 0x40 MSTORE SWAP2 POP JUMPDEST PUSH1 0x13 DUP2 LT PUSH2 0x22D2 JUMPI PUSH2 0x20DD PUSH2 0x2AA2 JUMP JUMPDEST PUSH1 0x14 DUP1 SLOAD PUSH2 0x20EB SWAP1 DUP7 PUSH2 0x35F3 JUMP JUMPDEST DUP2 SLOAD DUP2 LT PUSH2 0x20FB JUMPI PUSH2 0x20FB PUSH2 0x3649 JUMP JUMPDEST SWAP1 PUSH1 0x0 MSTORE PUSH1 0x20 PUSH1 0x0 KECCAK256 ADD DUP1 SLOAD PUSH2 0x2110 SWAP1 PUSH2 0x359D JUMP JUMPDEST DUP1 PUSH1 0x1F ADD PUSH1 0x20 DUP1 SWAP2 DIV MUL PUSH1 0x20 ADD PUSH1 0x40 MLOAD SWAP1 DUP2 ADD PUSH1 0x40 MSTORE DUP1 SWAP3 SWAP2 SWAP1 DUP2 DUP2 MSTORE PUSH1 0x20 ADD DUP3 DUP1 SLOAD PUSH2 0x213C SWAP1 PUSH2 0x359D JUMP JUMPDEST DUP1 ISZERO PUSH2 0x2189 JUMPI DUP1 PUSH1 0x1F LT PUSH2 0x215E JUMPI PUSH2 0x100 DUP1 DUP4 SLOAD DIV MUL DUP4 MSTORE SWAP2 PUSH1 0x20 ADD SWAP2 PUSH2 0x2189 JUMP JUMPDEST DUP3 ADD SWAP2 SWAP1 PUSH1 0x0 MSTORE PUSH1 0x20 PUSH1 0x0 KECCAK256 SWAP1 JUMPDEST DUP2 SLOAD DUP2 MSTORE SWAP1 PUSH1 0x1 ADD SWAP1 PUSH1 0x20 ADD DUP1 DUP4 GT PUSH2 0x216C JUMPI DUP3 SWAP1 SUB PUSH1 0x1F AND DUP3 ADD SWAP2 JUMPDEST POP POP POP POP POP DUP2 PUSH1 0x0 PUSH1 0x2 DUP2 LT PUSH2 0x21A1 JUMPI PUSH2 0x21A1 PUSH2 0x3649 JUMP JUMPDEST PUSH1 0x20 MUL ADD MSTORE PUSH1 0x15 DUP1 SLOAD PUSH2 0x21B4 SWAP1 DUP7 PUSH2 0x35F3 JUMP JUMPDEST DUP2 SLOAD DUP2 LT PUSH2 0x21C4 JUMPI PUSH2 0x21C4 PUSH2 0x3649 JUMP JUMPDEST SWAP1 PUSH1 0x0 MSTORE PUSH1 0x20 PUSH1 0x0 KECCAK256 ADD DUP1 SLOAD PUSH2 0x21D9 SWAP1 PUSH2 0x359D JUMP JUMPDEST DUP1 PUSH1 0x1F ADD PUSH1 0x20 DUP1 SWAP2 DIV MUL PUSH1 0x20 ADD PUSH1 0x40 MLOAD SWAP1 DUP2 ADD PUSH1 0x40 MSTORE DUP1 SWAP3 SWAP2 SWAP1 DUP2 DUP2 MSTORE PUSH1 0x20 ADD DUP3 DUP1 SLOAD PUSH2 0x2205 SWAP1 PUSH2 0x359D JUMP JUMPDEST DUP1 ISZERO PUSH2 0x2252 JUMPI DUP1 PUSH1 0x1F LT PUSH2 0x2227 JUMPI PUSH2 0x100 DUP1 DUP4 SLOAD DIV MUL DUP4 MSTORE SWAP2 PUSH1 0x20 ADD SWAP2 PUSH2 0x2252 JUMP JUMPDEST DUP3 ADD SWAP2 SWAP1 PUSH1 0x0 MSTORE PUSH1 0x20 PUSH1 0x0 KECCAK256 SWAP1 JUMPDEST DUP2 SLOAD DUP2 MSTORE SWAP1 PUSH1 0x1 ADD SWAP1 PUSH1 0x20 ADD DUP1 DUP4 GT PUSH2 0x2235 JUMPI DUP3 SWAP1 SUB PUSH1 0x1F AND DUP3 ADD SWAP2 JUMPDEST POP POP POP POP POP DUP2 PUSH1 0x1 PUSH1 0x2 DUP2 LT PUSH2 0x226A JUMPI PUSH2 0x226A PUSH2 0x3649 JUMP JUMPDEST PUSH1 0x20 MUL ADD MSTORE PUSH1 0x13 DUP3 EQ ISZERO PUSH2 0x22A6 JUMPI DUP1 MLOAD PUSH1 0x20 DUP1 DUP4 ADD MLOAD PUSH1 0x40 MLOAD PUSH2 0x2290 SWAP4 SWAP3 DUP8 SWAP2 ADD PUSH2 0x30FA JUMP JUMPDEST PUSH1 0x40 MLOAD PUSH1 0x20 DUP2 DUP4 SUB SUB DUP2 MSTORE SWAP1 PUSH1 0x40 MSTORE SWAP3 POP PUSH2 0x22D0 JUMP JUMPDEST DUP1 MLOAD PUSH1 0x20 DUP1 DUP4 ADD MLOAD PUSH1 0x40 MLOAD PUSH2 0x22BE SWAP4 SWAP3 DUP8 SWAP2 ADD PUSH2 0x3168 JUMP JUMPDEST PUSH1 0x40 MLOAD PUSH1 0x20 DUP2 DUP4 SUB SUB DUP2 MSTORE SWAP1 PUSH1 0x40 MSTORE SWAP3 POP JUMPDEST POP JUMPDEST POP SWAP6 SWAP5 POP POP POP POP POP JUMP JUMPDEST PUSH1 0xB DUP1 SLOAD PUSH1 0x1 PUSH1 0x1 PUSH1 0xA0 SHL SUB DUP4 DUP2 AND PUSH1 0x1 PUSH1 0x1 PUSH1 0xA0 SHL SUB NOT DUP4 AND DUP2 OR SWAP1 SWAP4 SSTORE PUSH1 0x40 MLOAD SWAP2 AND SWAP2 SWAP1 DUP3 SWAP1 PUSH32 0x8BE0079C531659141344CD1FD0A4F28419497F9722A3DAAFE3B4186F6B6457E0 SWAP1 PUSH1 0x0 SWAP1 LOG3 POP POP JUMP JUMPDEST PUSH2 0x2339 DUP5 DUP5 DUP5 PUSH2 0x1D1F JUMP JUMPDEST PUSH2 0x2345 DUP5 DUP5 DUP5 DUP5 PUSH2 0x25B2 JUMP JUMPDEST PUSH2 0x1131 JUMPI PUSH1 0x40 MLOAD PUSH3 0x461BCD PUSH1 0xE5 SHL DUP2 MSTORE PUSH1 0x4 ADD PUSH2 0x722 SWAP1 PUSH2 0x343B JUMP JUMPDEST DUP1 MLOAD PUSH1 0x60 SWAP1 DUP1 PUSH2 0x2381 JUMPI POP POP PUSH1 0x40 DUP1 MLOAD PUSH1 0x20 DUP2 ADD SWAP1 SWAP2 MSTORE PUSH1 0x0 DUP2 MSTORE SWAP2 SWAP1 POP JUMP JUMPDEST PUSH1 0x0 PUSH1 0x3 PUSH2 0x2390 DUP4 PUSH1 0x2 PUSH2 0x350F JUMP JUMPDEST PUSH2 0x239A SWAP2 SWAP1 PUSH2 0x3527 JUMP JUMPDEST PUSH2 0x23A5 SWAP1 PUSH1 0x4 PUSH2 0x353B JUMP JUMPDEST SWAP1 POP PUSH1 0x0 PUSH2 0x23B4 DUP3 PUSH1 0x20 PUSH2 0x350F JUMP JUMPDEST PUSH8 0xFFFFFFFFFFFFFFFF DUP2 GT ISZERO PUSH2 0x23CC JUMPI PUSH2 0x23CC PUSH2 0x365F JUMP JUMPDEST PUSH1 0x40 MLOAD SWAP1 DUP1 DUP3 MSTORE DUP1 PUSH1 0x1F ADD PUSH1 0x1F NOT AND PUSH1 0x20 ADD DUP3 ADD PUSH1 0x40 MSTORE DUP1 ISZERO PUSH2 0x23F6 JUMPI PUSH1 0x20 DUP3 ADD DUP2 DUP1 CALLDATASIZE DUP4 CALLDATACOPY ADD SWAP1 POP JUMPDEST POP SWAP1 POP PUSH1 0x0 PUSH1 0x40 MLOAD DUP1 PUSH1 0x60 ADD PUSH1 0x40 MSTORE DUP1 PUSH1 0x40 DUP2 MSTORE PUSH1 0x20 ADD PUSH2 0x37D9 PUSH1 0x40 SWAP2 CODECOPY SWAP1 POP PUSH1 0x1 DUP2 ADD PUSH1 0x20 DUP4 ADD PUSH1 0x0 JUMPDEST DUP7 DUP2 LT ISZERO PUSH2 0x2482 JUMPI PUSH1 0x3 DUP2 DUP11 ADD DUP2 ADD MLOAD PUSH1 0x3F PUSH1 0x12 DUP3 SWAP1 SHR DUP2 AND DUP7 ADD MLOAD PUSH1 0xC DUP4 SWAP1 SHR DUP3 AND DUP8 ADD MLOAD PUSH1 0x6 DUP5 SWAP1 SHR DUP4 AND DUP9 ADD MLOAD SWAP3 SWAP1 SWAP4 AND DUP8 ADD MLOAD PUSH1 0x8 SWAP2 DUP3 SHL PUSH1 0xFF SWAP5 DUP6 AND ADD DUP3 SHL SWAP3 DUP5 AND SWAP3 SWAP1 SWAP3 ADD SWAP1 SHL SWAP2 AND ADD PUSH1 0xE0 SHL DUP4 MSTORE PUSH1 0x4 SWAP1 SWAP3 ADD SWAP2 ADD PUSH2 0x2421 JUMP JUMPDEST POP PUSH1 0x3 DUP7 MOD PUSH1 0x1 DUP2 EQ PUSH2 0x249C JUMPI PUSH1 0x2 DUP2 EQ PUSH2 0x24AD JUMPI PUSH2 0x24B9 JUMP JUMPDEST PUSH2 0x3D3D PUSH1 0xF0 SHL PUSH1 0x1 NOT DUP4 ADD MSTORE PUSH2 0x24B9 JUMP JUMPDEST PUSH1 0x3D PUSH1 0xF8 SHL PUSH1 0x0 NOT DUP4 ADD MSTORE JUMPDEST POP POP POP SWAP2 DUP2 MSTORE SWAP5 SWAP4 POP POP POP POP JUMP JUMPDEST PUSH1 0x1 PUSH1 0x1 PUSH1 0xA0 SHL SUB DUP4 AND PUSH2 0x2522 JUMPI PUSH2 0x251D DUP2 PUSH1 0x8 DUP1 SLOAD PUSH1 0x0 DUP4 DUP2 MSTORE PUSH1 0x9 PUSH1 0x20 MSTORE PUSH1 0x40 DUP2 KECCAK256 DUP3 SWAP1 SSTORE PUSH1 0x1 DUP3 ADD DUP4 SSTORE SWAP2 SWAP1 SWAP2 MSTORE PUSH32 0xF3F7A9FE364FAAB93B216DA50A3214154F22A0A2B415B23A84C8169E8B636EE3 ADD SSTORE JUMP JUMPDEST PUSH2 0x2545 JUMP JUMPDEST DUP2 PUSH1 0x1 PUSH1 0x1 PUSH1 0xA0 SHL SUB AND DUP4 PUSH1 0x1 PUSH1 0x1 PUSH1 0xA0 SHL SUB AND EQ PUSH2 0x2545 JUMPI PUSH2 0x2545 DUP4 DUP3 PUSH2 0x26BF JUMP JUMPDEST PUSH1 0x1 PUSH1 0x1 PUSH1 0xA0 SHL SUB DUP3 AND PUSH2 0x255C JUMPI PUSH2 0x858 DUP2 PUSH2 0x275C JUMP JUMPDEST DUP3 PUSH1 0x1 PUSH1 0x1 PUSH1 0xA0 SHL SUB AND DUP3 PUSH1 0x1 PUSH1 0x1 PUSH1 0xA0 SHL SUB AND EQ PUSH2 0x858 JUMPI PUSH2 0x858 DUP3 DUP3 PUSH2 0x280B JUMP JUMPDEST PUSH2 0x2589 DUP4 DUP4 PUSH2 0x284F JUMP JUMPDEST PUSH2 0x2596 PUSH1 0x0 DUP5 DUP5 DUP5 PUSH2 0x25B2 JUMP JUMPDEST PUSH2 0x858 JUMPI PUSH1 0x40 MLOAD PUSH3 0x461BCD PUSH1 0xE5 SHL DUP2 MSTORE PUSH1 0x4 ADD PUSH2 0x722 SWAP1 PUSH2 0x343B JUMP JUMPDEST PUSH1 0x0 PUSH1 0x1 PUSH1 0x1 PUSH1 0xA0 SHL SUB DUP5 AND EXTCODESIZE ISZERO PUSH2 0x26B4 JUMPI PUSH1 0x40 MLOAD PUSH4 0xA85BD01 PUSH1 0xE1 SHL DUP2 MSTORE PUSH1 0x1 PUSH1 0x1 PUSH1 0xA0 SHL SUB DUP6 AND SWAP1 PUSH4 0x150B7A02 SWAP1 PUSH2 0x25F6 SWAP1 CALLER SWAP1 DUP10 SWAP1 DUP9 SWAP1 DUP9 SWAP1 PUSH1 0x4 ADD PUSH2 0x33C1 JUMP JUMPDEST PUSH1 0x20 PUSH1 0x40 MLOAD DUP1 DUP4 SUB DUP2 PUSH1 0x0 DUP8 DUP1 EXTCODESIZE ISZERO DUP1 ISZERO PUSH2 0x2610 JUMPI PUSH1 0x0 DUP1 REVERT JUMPDEST POP GAS CALL SWAP3 POP POP POP DUP1 ISZERO PUSH2 0x2640 JUMPI POP PUSH1 0x40 DUP1 MLOAD PUSH1 0x1F RETURNDATASIZE SWAP1 DUP2 ADD PUSH1 0x1F NOT AND DUP3 ADD SWAP1 SWAP3 MSTORE PUSH2 0x263D SWAP2 DUP2 ADD SWAP1 PUSH2 0x2DE8 JUMP JUMPDEST PUSH1 0x1 JUMPDEST PUSH2 0x269A JUMPI RETURNDATASIZE DUP1 DUP1 ISZERO PUSH2 0x266E JUMPI PUSH1 0x40 MLOAD SWAP2 POP PUSH1 0x1F NOT PUSH1 0x3F RETURNDATASIZE ADD AND DUP3 ADD PUSH1 0x40 MSTORE RETURNDATASIZE DUP3 MSTORE RETURNDATASIZE PUSH1 0x0 PUSH1 0x20 DUP5 ADD RETURNDATACOPY PUSH2 0x2673 JUMP JUMPDEST PUSH1 0x60 SWAP2 POP JUMPDEST POP DUP1 MLOAD PUSH2 0x2692 JUMPI PUSH1 0x40 MLOAD PUSH3 0x461BCD PUSH1 0xE5 SHL DUP2 MSTORE PUSH1 0x4 ADD PUSH2 0x722 SWAP1 PUSH2 0x343B JUMP JUMPDEST DUP1 MLOAD DUP2 PUSH1 0x20 ADD REVERT JUMPDEST PUSH1 0x1 PUSH1 0x1 PUSH1 0xE0 SHL SUB NOT AND PUSH4 0xA85BD01 PUSH1 0xE1 SHL EQ SWAP1 POP PUSH2 0x1D17 JUMP JUMPDEST POP PUSH1 0x1 SWAP5 SWAP4 POP POP POP POP JUMP JUMPDEST PUSH1 0x0 PUSH1 0x1 PUSH2 0x26CC DUP5 PUSH2 0xCE8 JUMP JUMPDEST PUSH2 0x26D6 SWAP2 SWAP1 PUSH2 0x355A JUMP JUMPDEST PUSH1 0x0 DUP4 DUP2 MSTORE PUSH1 0x7 PUSH1 0x20 MSTORE PUSH1 0x40 SWAP1 KECCAK256 SLOAD SWAP1 SWAP2 POP DUP1 DUP3 EQ PUSH2 0x2729 JUMPI PUSH1 0x1 PUSH1 0x1 PUSH1 0xA0 SHL SUB DUP5 AND PUSH1 0x0 SWAP1 DUP2 MSTORE PUSH1 0x6 PUSH1 0x20 SWAP1 DUP2 MSTORE PUSH1 0x40 DUP1 DUP4 KECCAK256 DUP6 DUP5 MSTORE DUP3 MSTORE DUP1 DUP4 KECCAK256 SLOAD DUP5 DUP5 MSTORE DUP2 DUP5 KECCAK256 DUP2 SWAP1 SSTORE DUP4 MSTORE PUSH1 0x7 SWAP1 SWAP2 MSTORE SWAP1 KECCAK256 DUP2 SWAP1 SSTORE JUMPDEST POP PUSH1 0x0 SWAP2 DUP3 MSTORE PUSH1 0x7 PUSH1 0x20 SWAP1 DUP2 MSTORE PUSH1 0x40 DUP1 DUP5 KECCAK256 DUP5 SWAP1 SSTORE PUSH1 0x1 PUSH1 0x1 PUSH1 0xA0 SHL SUB SWAP1 SWAP5 AND DUP4 MSTORE PUSH1 0x6 DUP2 MSTORE DUP4 DUP4 KECCAK256 SWAP2 DUP4 MSTORE MSTORE SWAP1 DUP2 KECCAK256 SSTORE JUMP JUMPDEST PUSH1 0x8 SLOAD PUSH1 0x0 SWAP1 PUSH2 0x276E SWAP1 PUSH1 0x1 SWAP1 PUSH2 0x355A JUMP JUMPDEST PUSH1 0x0 DUP4 DUP2 MSTORE PUSH1 0x9 PUSH1 0x20 MSTORE PUSH1 0x40 DUP2 KECCAK256 SLOAD PUSH1 0x8 DUP1 SLOAD SWAP4 SWAP5 POP SWAP1 SWAP3 DUP5 SWAP1 DUP2 LT PUSH2 0x2796 JUMPI PUSH2 0x2796 PUSH2 0x3649 JUMP JUMPDEST SWAP1 PUSH1 0x0 MSTORE PUSH1 0x20 PUSH1 0x0 KECCAK256 ADD SLOAD SWAP1 POP DUP1 PUSH1 0x8 DUP4 DUP2 SLOAD DUP2 LT PUSH2 0x27B7 JUMPI PUSH2 0x27B7 PUSH2 0x3649 JUMP JUMPDEST PUSH1 0x0 SWAP2 DUP3 MSTORE PUSH1 0x20 DUP1 DUP4 KECCAK256 SWAP1 SWAP2 ADD SWAP3 SWAP1 SWAP3 SSTORE DUP3 DUP2 MSTORE PUSH1 0x9 SWAP1 SWAP2 MSTORE PUSH1 0x40 DUP1 DUP3 KECCAK256 DUP5 SWAP1 SSTORE DUP6 DUP3 MSTORE DUP2 KECCAK256 SSTORE PUSH1 0x8 DUP1 SLOAD DUP1 PUSH2 0x27EF JUMPI PUSH2 0x27EF PUSH2 0x3633 JUMP JUMPDEST PUSH1 0x1 SWAP1 SUB DUP2 DUP2 SWAP1 PUSH1 0x0 MSTORE PUSH1 0x20 PUSH1 0x0 KECCAK256 ADD PUSH1 0x0 SWAP1 SSTORE SWAP1 SSTORE POP POP POP POP JUMP JUMPDEST PUSH1 0x0 PUSH2 0x2816 DUP4 PUSH2 0xCE8 JUMP JUMPDEST PUSH1 0x1 PUSH1 0x1 PUSH1 0xA0 SHL SUB SWAP1 SWAP4 AND PUSH1 0x0 SWAP1 DUP2 MSTORE PUSH1 0x6 PUSH1 0x20 SWAP1 DUP2 MSTORE PUSH1 0x40 DUP1 DUP4 KECCAK256 DUP7 DUP5 MSTORE DUP3 MSTORE DUP1 DUP4 KECCAK256 DUP6 SWAP1 SSTORE SWAP4 DUP3 MSTORE PUSH1 0x7 SWAP1 MSTORE SWAP2 SWAP1 SWAP2 KECCAK256 SWAP2 SWAP1 SWAP2 SSTORE POP JUMP JUMPDEST PUSH1 0x1 PUSH1 0x1 PUSH1 0xA0 SHL SUB DUP3 AND PUSH2 0x28A5 JUMPI PUSH1 0x40 MLOAD PUSH3 0x461BCD PUSH1 0xE5 SHL DUP2 MSTORE PUSH1 0x20 PUSH1 0x4 DUP3 ADD DUP2 SWAP1 MSTORE PUSH1 0x24 DUP3 ADD MSTORE PUSH32 0x4552433732313A206D696E7420746F20746865207A65726F2061646472657373 PUSH1 0x44 DUP3 ADD MSTORE PUSH1 0x64 ADD PUSH2 0x722 JUMP JUMPDEST PUSH1 0x0 DUP2 DUP2 MSTORE PUSH1 0x2 PUSH1 0x20 MSTORE PUSH1 0x40 SWAP1 KECCAK256 SLOAD PUSH1 0x1 PUSH1 0x1 PUSH1 0xA0 SHL SUB AND ISZERO PUSH2 0x290A JUMPI PUSH1 0x40 MLOAD PUSH3 0x461BCD PUSH1 0xE5 SHL DUP2 MSTORE PUSH1 0x20 PUSH1 0x4 DUP3 ADD MSTORE PUSH1 0x1C PUSH1 0x24 DUP3 ADD MSTORE PUSH32 0x4552433732313A20746F6B656E20616C7265616479206D696E74656400000000 PUSH1 0x44 DUP3 ADD MSTORE PUSH1 0x64 ADD PUSH2 0x722 JUMP JUMPDEST PUSH2 0x2916 PUSH1 0x0 DUP4 DUP4 PUSH2 0x24C7 JUMP JUMPDEST PUSH1 0x1 PUSH1 0x1 PUSH1 0xA0 SHL SUB DUP3 AND PUSH1 0x0 SWAP1 DUP2 MSTORE PUSH1 0x3 PUSH1 0x20 MSTORE PUSH1 0x40 DUP2 KECCAK256 DUP1 SLOAD PUSH1 0x1 SWAP3 SWAP1 PUSH2 0x293F SWAP1 DUP5 SWAP1 PUSH2 0x350F JUMP JUMPDEST SWAP1 SWAP2 SSTORE POP POP PUSH1 0x0 DUP2 DUP2 MSTORE PUSH1 0x2 PUSH1 0x20 MSTORE PUSH1 0x40 DUP1 DUP3 KECCAK256 DUP1 SLOAD PUSH1 0x1 PUSH1 0x1 PUSH1 0xA0 SHL SUB NOT AND PUSH1 0x1 PUSH1 0x1 PUSH1 0xA0 SHL SUB DUP7 AND SWAP1 DUP2 OR SWAP1 SWAP2 SSTORE SWAP1 MLOAD DUP4 SWAP3 SWAP1 PUSH32 0xDDF252AD1BE2C89B69C2B068FC378DAA952BA7F163C4A11628F55A4DF523B3EF SWAP1 DUP3 SWAP1 LOG4 POP POP JUMP JUMPDEST DUP3 DUP1 SLOAD PUSH2 0x29A9 SWAP1 PUSH2 0x359D JUMP JUMPDEST SWAP1 PUSH1 0x0 MSTORE PUSH1 0x20 PUSH1 0x0 KECCAK256 SWAP1 PUSH1 0x1F ADD PUSH1 0x20 SWAP1 DIV DUP2 ADD SWAP3 DUP3 PUSH2 0x29CB JUMPI PUSH1 0x0 DUP6 SSTORE PUSH2 0x2A11 JUMP JUMPDEST DUP3 PUSH1 0x1F LT PUSH2 0x29E4 JUMPI DUP1 MLOAD PUSH1 0xFF NOT AND DUP4 DUP1 ADD OR DUP6 SSTORE PUSH2 0x2A11 JUMP JUMPDEST DUP3 DUP1 ADD PUSH1 0x1 ADD DUP6 SSTORE DUP3 ISZERO PUSH2 0x2A11 JUMPI SWAP2 DUP3 ADD JUMPDEST DUP3 DUP2 GT ISZERO PUSH2 0x2A11 JUMPI DUP3 MLOAD DUP3 SSTORE SWAP2 PUSH1 0x20 ADD SWAP2 SWAP1 PUSH1 0x1 ADD SWAP1 PUSH2 0x29F6 JUMP JUMPDEST POP PUSH2 0x2A1D SWAP3 SWAP2 POP PUSH2 0x2ABB JUMP JUMPDEST POP SWAP1 JUMP JUMPDEST DUP3 DUP1 SLOAD DUP3 DUP3 SSTORE SWAP1 PUSH1 0x0 MSTORE PUSH1 0x20 PUSH1 0x0 KECCAK256 SWAP1 DUP2 ADD SWAP3 DUP3 ISZERO PUSH2 0x2A6E JUMPI SWAP2 PUSH1 0x20 MUL DUP3 ADD JUMPDEST DUP3 DUP2 GT ISZERO PUSH2 0x2A6E JUMPI DUP3 MLOAD DUP1 MLOAD PUSH2 0x2A5E SWAP2 DUP5 SWAP2 PUSH1 0x20 SWAP1 SWAP2 ADD SWAP1 PUSH2 0x299D JUMP JUMPDEST POP SWAP2 PUSH1 0x20 ADD SWAP2 SWAP1 PUSH1 0x1 ADD SWAP1 PUSH2 0x2A41 JUMP JUMPDEST POP PUSH2 0x2A1D SWAP3 SWAP2 POP PUSH2 0x2AD0 JUMP JUMPDEST PUSH1 0x40 MLOAD DUP1 PUSH2 0x100 ADD PUSH1 0x40 MSTORE DUP1 PUSH1 0x8 SWAP1 JUMPDEST PUSH1 0x60 DUP2 MSTORE PUSH1 0x20 ADD SWAP1 PUSH1 0x1 SWAP1 SUB SWAP1 DUP2 PUSH2 0x2A8A JUMPI SWAP1 POP POP SWAP1 JUMP JUMPDEST PUSH1 0x40 DUP1 MLOAD DUP1 DUP3 ADD SWAP1 SWAP2 MSTORE PUSH1 0x60 DUP2 MSTORE PUSH1 0x1 PUSH1 0x20 DUP3 ADD PUSH2 0x2A8A JUMP JUMPDEST JUMPDEST DUP1 DUP3 GT ISZERO PUSH2 0x2A1D JUMPI PUSH1 0x0 DUP2 SSTORE PUSH1 0x1 ADD PUSH2 0x2ABC JUMP JUMPDEST DUP1 DUP3 GT ISZERO PUSH2 0x2A1D JUMPI PUSH1 0x0 PUSH2 0x2AE4 DUP3 DUP3 PUSH2 0x2AED JUMP JUMPDEST POP PUSH1 0x1 ADD PUSH2 0x2AD0 JUMP JUMPDEST POP DUP1 SLOAD PUSH2 0x2AF9 SWAP1 PUSH2 0x359D JUMP JUMPDEST PUSH1 0x0 DUP3 SSTORE DUP1 PUSH1 0x1F LT PUSH2 0x2B09 JUMPI POP POP JUMP JUMPDEST PUSH1 0x1F ADD PUSH1 0x20 SWAP1 DIV SWAP1 PUSH1 0x0 MSTORE PUSH1 0x20 PUSH1 0x0 KECCAK256 SWAP1 DUP2 ADD SWAP1 PUSH2 0x1B3C SWAP2 SWAP1 PUSH2 0x2ABB JUMP JUMPDEST PUSH1 0x0 PUSH8 0xFFFFFFFFFFFFFFFF DUP4 GT ISZERO PUSH2 0x2B41 JUMPI PUSH2 0x2B41 PUSH2 0x365F JUMP JUMPDEST PUSH2 0x2B54 PUSH1 0x1F DUP5 ADD PUSH1 0x1F NOT AND PUSH1 0x20 ADD PUSH2 0x34DE JUMP JUMPDEST SWAP1 POP DUP3 DUP2 MSTORE DUP4 DUP4 DUP4 ADD GT ISZERO PUSH2 0x2B68 JUMPI PUSH1 0x0 DUP1 REVERT JUMPDEST DUP3 DUP3 PUSH1 0x20 DUP4 ADD CALLDATACOPY PUSH1 0x0 PUSH1 0x20 DUP5 DUP4 ADD ADD MSTORE SWAP4 SWAP3 POP POP POP JUMP JUMPDEST DUP1 CALLDATALOAD PUSH1 0x1 PUSH1 0x1 PUSH1 0xA0 SHL SUB DUP2 AND DUP2 EQ PUSH2 0x2B96 JUMPI PUSH1 0x0 DUP1 REVERT JUMPDEST SWAP2 SWAP1 POP JUMP JUMPDEST PUSH1 0x0 DUP3 PUSH1 0x1F DUP4 ADD SLT PUSH2 0x2BAC JUMPI PUSH1 0x0 DUP1 REVERT JUMPDEST DUP2 CALLDATALOAD PUSH1 0x20 PUSH8 0xFFFFFFFFFFFFFFFF DUP1 DUP4 GT ISZERO PUSH2 0x2BC9 JUMPI PUSH2 0x2BC9 PUSH2 0x365F JUMP JUMPDEST DUP3 PUSH1 0x5 SHL PUSH2 0x2BD8 DUP4 DUP3 ADD PUSH2 0x34DE JUMP JUMPDEST DUP5 DUP2 MSTORE DUP4 DUP2 ADD SWAP1 DUP8 DUP6 ADD DUP4 DUP10 ADD DUP7 ADD DUP11 LT ISZERO PUSH2 0x2BF3 JUMPI PUSH1 0x0 DUP1 REVERT JUMPDEST PUSH1 0x0 SWAP4 POP DUP4 JUMPDEST DUP8 DUP2 LT ISZERO PUSH2 0x2C30 JUMPI DUP2 CALLDATALOAD DUP7 DUP2 GT ISZERO PUSH2 0x2C0F JUMPI DUP6 DUP7 REVERT JUMPDEST PUSH2 0x2C1D DUP13 DUP10 DUP4 DUP15 ADD ADD PUSH2 0x2C3F JUMP JUMPDEST DUP6 MSTORE POP SWAP3 DUP7 ADD SWAP3 SWAP1 DUP7 ADD SWAP1 PUSH1 0x1 ADD PUSH2 0x2BF9 JUMP JUMPDEST POP SWAP1 SWAP10 SWAP9 POP POP POP POP POP POP POP POP POP JUMP JUMPDEST PUSH1 0x0 DUP3 PUSH1 0x1F DUP4 ADD SLT PUSH2 0x2C50 JUMPI PUSH1 0x0 DUP1 REVERT JUMPDEST PUSH2 0xCE1 DUP4 DUP4 CALLDATALOAD PUSH1 0x20 DUP6 ADD PUSH2 0x2B27 JUMP JUMPDEST PUSH1 0x0 PUSH1 0x20 DUP3 DUP5 SUB SLT ISZERO PUSH2 0x2C71 JUMPI PUSH1 0x0 DUP1 REVERT JUMPDEST PUSH2 0xCE1 DUP3 PUSH2 0x2B7F JUMP JUMPDEST PUSH1 0x0 DUP1 PUSH1 0x40 DUP4 DUP6 SUB SLT ISZERO PUSH2 0x2C8D JUMPI PUSH1 0x0 DUP1 REVERT JUMPDEST PUSH2 0x2C96 DUP4 PUSH2 0x2B7F JUMP JUMPDEST SWAP2 POP PUSH2 0x2CA4 PUSH1 0x20 DUP5 ADD PUSH2 0x2B7F JUMP JUMPDEST SWAP1 POP SWAP3 POP SWAP3 SWAP1 POP JUMP JUMPDEST PUSH1 0x0 DUP1 PUSH1 0x0 PUSH1 0x60 DUP5 DUP7 SUB SLT ISZERO PUSH2 0x2CC2 JUMPI PUSH1 0x0 DUP1 REVERT JUMPDEST PUSH2 0x2CCB DUP5 PUSH2 0x2B7F JUMP JUMPDEST SWAP3 POP PUSH2 0x2CD9 PUSH1 0x20 DUP6 ADD PUSH2 0x2B7F JUMP JUMPDEST SWAP2 POP PUSH1 0x40 DUP5 ADD CALLDATALOAD SWAP1 POP SWAP3 POP SWAP3 POP SWAP3 JUMP JUMPDEST PUSH1 0x0 DUP1 PUSH1 0x0 DUP1 PUSH1 0x80 DUP6 DUP8 SUB SLT ISZERO PUSH2 0x2CFF JUMPI PUSH1 0x0 DUP1 REVERT JUMPDEST PUSH2 0x2D08 DUP6 PUSH2 0x2B7F JUMP JUMPDEST SWAP4 POP PUSH2 0x2D16 PUSH1 0x20 DUP7 ADD PUSH2 0x2B7F JUMP JUMPDEST SWAP3 POP PUSH1 0x40 DUP6 ADD CALLDATALOAD SWAP2 POP PUSH1 0x60 DUP6 ADD CALLDATALOAD PUSH8 0xFFFFFFFFFFFFFFFF DUP2 GT ISZERO PUSH2 0x2D39 JUMPI PUSH1 0x0 DUP1 REVERT JUMPDEST DUP6 ADD PUSH1 0x1F DUP2 ADD DUP8 SGT PUSH2 0x2D4A JUMPI PUSH1 0x0 DUP1 REVERT JUMPDEST PUSH2 0x2D59 DUP8 DUP3 CALLDATALOAD PUSH1 0x20 DUP5 ADD PUSH2 0x2B27 JUMP JUMPDEST SWAP2 POP POP SWAP3 SWAP6 SWAP2 SWAP5 POP SWAP3 POP JUMP JUMPDEST PUSH1 0x0 DUP1 PUSH1 0x40 DUP4 DUP6 SUB SLT ISZERO PUSH2 0x2D78 JUMPI PUSH1 0x0 DUP1 REVERT JUMPDEST PUSH2 0x2D81 DUP4 PUSH2 0x2B7F JUMP JUMPDEST SWAP2 POP PUSH1 0x20 DUP4 ADD CALLDATALOAD DUP1 ISZERO ISZERO DUP2 EQ PUSH2 0x2D96 JUMPI PUSH1 0x0 DUP1 REVERT JUMPDEST DUP1 SWAP2 POP POP SWAP3 POP SWAP3 SWAP1 POP JUMP JUMPDEST PUSH1 0x0 DUP1 PUSH1 0x40 DUP4 DUP6 SUB SLT ISZERO PUSH2 0x2DB4 JUMPI PUSH1 0x0 DUP1 REVERT JUMPDEST PUSH2 0x2DBD DUP4 PUSH2 0x2B7F JUMP JUMPDEST SWAP5 PUSH1 0x20 SWAP4 SWAP1 SWAP4 ADD CALLDATALOAD SWAP4 POP POP POP JUMP JUMPDEST PUSH1 0x0 PUSH1 0x20 DUP3 DUP5 SUB SLT ISZERO PUSH2 0x2DDD JUMPI PUSH1 0x0 DUP1 REVERT JUMPDEST DUP2 CALLDATALOAD PUSH2 0xCE1 DUP2 PUSH2 0x3675 JUMP JUMPDEST PUSH1 0x0 PUSH1 0x20 DUP3 DUP5 SUB SLT ISZERO PUSH2 0x2DFA JUMPI PUSH1 0x0 DUP1 REVERT JUMPDEST DUP2 MLOAD PUSH2 0xCE1 DUP2 PUSH2 0x3675 JUMP JUMPDEST PUSH1 0x0 DUP1 PUSH1 0x0 DUP1 PUSH1 0x80 DUP6 DUP8 SUB SLT ISZERO PUSH2 0x2E1B JUMPI PUSH1 0x0 DUP1 REVERT JUMPDEST DUP5 CALLDATALOAD PUSH8 0xFFFFFFFFFFFFFFFF DUP1 DUP3 GT ISZERO PUSH2 0x2E33 JUMPI PUSH1 0x0 DUP1 REVERT JUMPDEST PUSH2 0x2E3F DUP9 DUP4 DUP10 ADD PUSH2 0x2C3F JUMP JUMPDEST SWAP6 POP PUSH1 0x20 DUP8 ADD CALLDATALOAD SWAP2 POP DUP1 DUP3 GT ISZERO PUSH2 0x2E55 JUMPI PUSH1 0x0 DUP1 REVERT JUMPDEST PUSH2 0x2E61 DUP9 DUP4 DUP10 ADD PUSH2 0x2B9B JUMP JUMPDEST SWAP5 POP PUSH1 0x40 DUP8 ADD CALLDATALOAD SWAP2 POP DUP1 DUP3 GT ISZERO PUSH2 0x2E77 JUMPI PUSH1 0x0 DUP1 REVERT JUMPDEST PUSH2 0x2E83 DUP9 DUP4 DUP10 ADD PUSH2 0x2B9B JUMP JUMPDEST SWAP4 POP PUSH1 0x60 DUP8 ADD CALLDATALOAD SWAP2 POP DUP1 DUP3 GT ISZERO PUSH2 0x2E99 JUMPI PUSH1 0x0 DUP1 REVERT JUMPDEST POP PUSH2 0x2D59 DUP8 DUP3 DUP9 ADD PUSH2 0x2B9B JUMP JUMPDEST PUSH1 0x0 PUSH1 0x20 DUP3 DUP5 SUB SLT ISZERO PUSH2 0x2EB8 JUMPI PUSH1 0x0 DUP1 REVERT JUMPDEST POP CALLDATALOAD SWAP2 SWAP1 POP JUMP JUMPDEST PUSH1 0x0 DUP1 PUSH1 0x40 DUP4 DUP6 SUB SLT ISZERO PUSH2 0x2ED2 JUMPI PUSH1 0x0 DUP1 REVERT JUMPDEST DUP3 CALLDATALOAD SWAP2 POP PUSH1 0x20 DUP4 ADD CALLDATALOAD PUSH8 0xFFFFFFFFFFFFFFFF DUP2 GT ISZERO PUSH2 0x2EF0 JUMPI PUSH1 0x0 DUP1 REVERT JUMPDEST PUSH2 0x2EFC DUP6 DUP3 DUP7 ADD PUSH2 0x2B9B JUMP JUMPDEST SWAP2 POP POP SWAP3 POP SWAP3 SWAP1 POP JUMP JUMPDEST PUSH1 0x0 DUP2 MLOAD DUP1 DUP5 MSTORE PUSH2 0x2F1E DUP2 PUSH1 0x20 DUP7 ADD PUSH1 0x20 DUP7 ADD PUSH2 0x3571 JUMP JUMPDEST PUSH1 0x1F ADD PUSH1 0x1F NOT AND SWAP3 SWAP1 SWAP3 ADD PUSH1 0x20 ADD SWAP3 SWAP2 POP POP JUMP JUMPDEST PUSH1 0x0 DUP3 MLOAD PUSH2 0x2F44 DUP2 DUP5 PUSH1 0x20 DUP8 ADD PUSH2 0x3571 JUMP JUMPDEST SWAP2 SWAP1 SWAP2 ADD SWAP3 SWAP2 POP POP JUMP JUMPDEST PUSH1 0x0 DUP4 MLOAD PUSH2 0x2F60 DUP2 DUP5 PUSH1 0x20 DUP9 ADD PUSH2 0x3571 JUMP JUMPDEST DUP4 MLOAD SWAP1 DUP4 ADD SWAP1 PUSH2 0x2F74 DUP2 DUP4 PUSH1 0x20 DUP9 ADD PUSH2 0x3571 JUMP JUMPDEST ADD SWAP5 SWAP4 POP POP POP POP JUMP JUMPDEST PUSH1 0x0 DUP9 MLOAD PUSH1 0x20 PUSH2 0x2F90 DUP3 DUP6 DUP4 DUP15 ADD PUSH2 0x3571 JUMP JUMPDEST DUP10 MLOAD SWAP2 DUP5 ADD SWAP2 PUSH2 0x2FA3 DUP2 DUP5 DUP5 DUP15 ADD PUSH2 0x3571 JUMP JUMPDEST DUP10 MLOAD SWAP3 ADD SWAP2 PUSH2 0x2FB5 DUP2 DUP5 DUP5 DUP14 ADD PUSH2 0x3571 JUMP JUMPDEST DUP9 MLOAD SWAP3 ADD SWAP2 PUSH2 0x2FC7 DUP2 DUP5 DUP5 DUP13 ADD PUSH2 0x3571 JUMP JUMPDEST DUP8 MLOAD SWAP3 ADD SWAP2 PUSH2 0x2FD9 DUP2 DUP5 DUP5 DUP12 ADD PUSH2 0x3571 JUMP JUMPDEST DUP7 MLOAD SWAP3 ADD SWAP2 PUSH2 0x2FEB DUP2 DUP5 DUP5 DUP11 ADD PUSH2 0x3571 JUMP JUMPDEST DUP6 MLOAD SWAP3 ADD SWAP2 PUSH2 0x2FFD DUP2 DUP5 DUP5 DUP10 ADD PUSH2 0x3571 JUMP JUMPDEST SWAP2 SWAP1 SWAP2 ADD SWAP11 SWAP10 POP POP POP POP POP POP POP POP POP POP JUMP JUMPDEST PUSH1 0x0 DUP4 MLOAD PUSH1 0x20 PUSH2 0x3022 DUP3 DUP6 DUP4 DUP10 ADD PUSH2 0x3571 JUMP JUMPDEST PUSH1 0x1 PUSH1 0xFD SHL SWAP2 DUP5 ADD SWAP2 DUP3 MSTORE DUP5 SLOAD PUSH1 0x1 SWAP1 PUSH1 0x0 SWAP1 DUP1 DUP4 SHR DUP2 DUP5 AND DUP1 PUSH2 0x3047 JUMPI PUSH1 0x7F DUP3 AND SWAP2 POP JUMPDEST DUP6 DUP3 LT DUP2 EQ ISZERO PUSH2 0x3065 JUMPI PUSH4 0x4E487B71 PUSH1 0xE0 SHL DUP5 MSTORE PUSH1 0x22 PUSH1 0x4 MSTORE PUSH1 0x24 DUP5 REVERT JUMPDEST DUP1 DUP1 ISZERO PUSH2 0x3079 JUMPI PUSH1 0x1 DUP2 EQ PUSH2 0x308E JUMPI PUSH2 0x30BF JUMP JUMPDEST PUSH1 0xFF NOT DUP5 AND DUP9 DUP8 ADD MSTORE DUP3 DUP9 ADD DUP7 ADD SWAP5 POP PUSH2 0x30BF JUMP JUMPDEST PUSH1 0x0 DUP12 DUP2 MSTORE PUSH1 0x20 SWAP1 KECCAK256 PUSH1 0x0 JUMPDEST DUP5 DUP2 LT ISZERO PUSH2 0x30B5 JUMPI DUP2 SLOAD DUP11 DUP3 ADD DUP10 ADD MSTORE SWAP1 DUP8 ADD SWAP1 DUP9 ADD PUSH2 0x309A JUMP JUMPDEST POP POP DUP6 DUP4 DUP10 ADD ADD SWAP5 POP JUMPDEST POP SWAP3 SWAP11 SWAP10 POP POP POP POP POP POP POP POP POP POP JUMP JUMPDEST PUSH3 0x11D415 PUSH1 0xEA SHL DUP2 MSTORE PUSH1 0x0 DUP3 MLOAD PUSH2 0x30ED DUP2 PUSH1 0x3 DUP6 ADD PUSH1 0x20 DUP8 ADD PUSH2 0x3571 JUMP JUMPDEST SWAP2 SWAP1 SWAP2 ADD PUSH1 0x3 ADD SWAP3 SWAP2 POP POP JUMP JUMPDEST PUSH1 0x11 PUSH1 0xF9 SHL DUP2 MSTORE DUP4 MLOAD PUSH1 0x0 SWAP1 PUSH2 0x3117 DUP2 PUSH1 0x1 DUP6 ADD PUSH1 0x20 DUP10 ADD PUSH2 0x3571 JUMP JUMPDEST PUSH1 0x1 PUSH1 0xFD SHL PUSH1 0x1 SWAP2 DUP5 ADD SWAP2 DUP3 ADD MSTORE DUP5 MLOAD PUSH2 0x3138 DUP2 PUSH1 0x2 DUP5 ADD PUSH1 0x20 DUP10 ADD PUSH2 0x3571 JUMP JUMPDEST PUSH2 0x111 PUSH1 0xF5 SHL PUSH1 0x2 SWAP3 SWAP1 SWAP2 ADD SWAP2 DUP3 ADD MSTORE DUP4 MLOAD PUSH2 0x315B DUP2 PUSH1 0x4 DUP5 ADD PUSH1 0x20 DUP9 ADD PUSH2 0x3571 JUMP JUMPDEST ADD PUSH1 0x4 ADD SWAP6 SWAP5 POP POP POP POP POP JUMP JUMPDEST PUSH1 0x11 PUSH1 0xF9 SHL DUP2 MSTORE DUP4 MLOAD PUSH1 0x0 SWAP1 PUSH2 0x3185 DUP2 PUSH1 0x1 DUP6 ADD PUSH1 0x20 DUP10 ADD PUSH2 0x3571 JUMP JUMPDEST PUSH1 0x1 PUSH1 0xFD SHL PUSH1 0x1 SWAP2 DUP5 ADD SWAP2 DUP3 ADD MSTORE DUP5 MLOAD PUSH2 0x31A6 DUP2 PUSH1 0x2 DUP5 ADD PUSH1 0x20 DUP10 ADD PUSH2 0x3571 JUMP JUMPDEST PUSH2 0x111 PUSH1 0xF5 SHL PUSH1 0x2 SWAP3 SWAP1 SWAP2 ADD SWAP2 DUP3 ADD MSTORE DUP4 MLOAD PUSH2 0x31C9 DUP2 PUSH1 0x4 DUP5 ADD PUSH1 0x20 DUP9 ADD PUSH2 0x3571 JUMP JUMPDEST PUSH3 0x202B31 PUSH1 0xE8 SHL PUSH1 0x4 SWAP3 SWAP1 SWAP2 ADD SWAP2 DUP3 ADD MSTORE PUSH1 0x7 ADD SWAP6 SWAP5 POP POP POP POP POP JUMP JUMPDEST PUSH15 0x7B226E616D65223A20224261672023 PUSH1 0x88 SHL DUP2 MSTORE DUP3 MLOAD PUSH1 0x0 SWAP1 PUSH2 0x3211 DUP2 PUSH1 0xF DUP6 ADD PUSH1 0x20 DUP9 ADD PUSH2 0x3571 JUMP JUMPDEST DUP1 DUP4 ADD SWAP1 POP PUSH32 0x222C20226465736372697074696F6E223A20224C6F6F742069732072616E646F PUSH1 0xF DUP3 ADD MSTORE PUSH32 0x6D697A656420616476656E747572657220676561722067656E65726174656420 PUSH1 0x2F DUP3 ADD MSTORE PUSH32 0x616E642073746F726564206F6E20636861696E2E2053746174732C20696D6167 PUSH1 0x4F DUP3 ADD MSTORE PUSH32 0x65732C20616E64206F746865722066756E6374696F6E616C6974792061726520 PUSH1 0x6F DUP3 ADD MSTORE PUSH32 0x696E74656E74696F6E616C6C79206F6D697474656420666F72206F7468657273 PUSH1 0x8F DUP3 ADD MSTORE PUSH32 0x20746F20696E746572707265742E204665656C206672656520746F2075736520 PUSH1 0xAF DUP3 ADD MSTORE PUSH32 0x4C6F6F7420696E20616E792077617920796F752077616E742E222C2022696D61 PUSH1 0xCF DUP3 ADD MSTORE PUSH32 0x6765223A2022646174613A696D6167652F7376672B786D6C3B6261736536342C PUSH1 0xEF DUP3 ADD MSTORE PUSH2 0x10F DUP5 MLOAD PUSH2 0x335B DUP2 DUP4 DUP6 ADD PUSH1 0x20 DUP10 ADD PUSH2 0x3571 JUMP JUMPDEST PUSH2 0x3371 DUP3 DUP3 DUP6 ADD ADD PUSH2 0x227D PUSH1 0xF0 SHL DUP2 MSTORE PUSH1 0x2 ADD SWAP1 JUMP JUMPDEST SWAP8 SWAP7 POP POP POP POP POP POP POP JUMP JUMPDEST PUSH32 0x646174613A6170706C69636174696F6E2F6A736F6E3B6261736536342C000000 DUP2 MSTORE PUSH1 0x0 DUP3 MLOAD PUSH2 0x33B4 DUP2 PUSH1 0x1D DUP6 ADD PUSH1 0x20 DUP8 ADD PUSH2 0x3571 JUMP JUMPDEST SWAP2 SWAP1 SWAP2 ADD PUSH1 0x1D ADD SWAP3 SWAP2 POP POP JUMP JUMPDEST PUSH1 0x1 PUSH1 0x1 PUSH1 0xA0 SHL SUB DUP6 DUP2 AND DUP3 MSTORE DUP5 AND PUSH1 0x20 DUP3 ADD MSTORE PUSH1 0x40 DUP2 ADD DUP4 SWAP1 MSTORE PUSH1 0x80 PUSH1 0x60 DUP3 ADD DUP2 SWAP1 MSTORE PUSH1 0x0 SWAP1 PUSH2 0x33F4 SWAP1 DUP4 ADD DUP5 PUSH2 0x2F06 JUMP JUMPDEST SWAP7 SWAP6 POP POP POP POP POP POP JUMP JUMPDEST PUSH1 0x20 DUP2 MSTORE PUSH1 0x0 PUSH2 0xCE1 PUSH1 0x20 DUP4 ADD DUP5 PUSH2 0x2F06 JUMP JUMPDEST PUSH1 0x40 DUP2 MSTORE PUSH1 0x0 PUSH2 0x3424 PUSH1 0x40 DUP4 ADD DUP6 PUSH2 0x2F06 JUMP JUMPDEST SWAP1 POP PUSH1 0x1 DUP1 PUSH1 0xA0 SHL SUB DUP4 AND PUSH1 0x20 DUP4 ADD MSTORE SWAP4 SWAP3 POP POP POP JUMP JUMPDEST PUSH1 0x20 DUP1 DUP3 MSTORE PUSH1 0x32 SWAP1 DUP3 ADD MSTORE PUSH32 0x4552433732313A207472616E7366657220746F206E6F6E204552433732315265 PUSH1 0x40 DUP3 ADD MSTORE PUSH18 0x31B2B4BB32B91034B6B83632B6B2B73A32B9 PUSH1 0x71 SHL PUSH1 0x60 DUP3 ADD MSTORE PUSH1 0x80 ADD SWAP1 JUMP JUMPDEST PUSH1 0x20 DUP1 DUP3 MSTORE PUSH1 0x31 SWAP1 DUP3 ADD MSTORE PUSH32 0x4552433732313A207472616E736665722063616C6C6572206973206E6F74206F PUSH1 0x40 DUP3 ADD MSTORE PUSH17 0x1DDB995C881B9BDC88185C1C1C9BDD9959 PUSH1 0x7A SHL PUSH1 0x60 DUP3 ADD MSTORE PUSH1 0x80 ADD SWAP1 JUMP JUMPDEST PUSH1 0x40 MLOAD PUSH1 0x1F DUP3 ADD PUSH1 0x1F NOT AND DUP2 ADD PUSH8 0xFFFFFFFFFFFFFFFF DUP2 GT DUP3 DUP3 LT OR ISZERO PUSH2 0x3507 JUMPI PUSH2 0x3507 PUSH2 0x365F JUMP JUMPDEST PUSH1 0x40 MSTORE SWAP2 SWAP1 POP JUMP JUMPDEST PUSH1 0x0 DUP3 NOT DUP3 GT ISZERO PUSH2 0x3522 JUMPI PUSH2 0x3522 PUSH2 0x3607 JUMP JUMPDEST POP ADD SWAP1 JUMP JUMPDEST PUSH1 0x0 DUP3 PUSH2 0x3536 JUMPI PUSH2 0x3536 PUSH2 0x361D JUMP JUMPDEST POP DIV SWAP1 JUMP JUMPDEST PUSH1 0x0 DUP2 PUSH1 0x0 NOT DIV DUP4 GT DUP3 ISZERO ISZERO AND ISZERO PUSH2 0x3555 JUMPI PUSH2 0x3555 PUSH2 0x3607 JUMP JUMPDEST POP MUL SWAP1 JUMP JUMPDEST PUSH1 0x0 DUP3 DUP3 LT ISZERO PUSH2 0x356C JUMPI PUSH2 0x356C PUSH2 0x3607 JUMP JUMPDEST POP SUB SWAP1 JUMP JUMPDEST PUSH1 0x0 JUMPDEST DUP4 DUP2 LT ISZERO PUSH2 0x358C JUMPI DUP2 DUP2 ADD MLOAD DUP4 DUP3 ADD MSTORE PUSH1 0x20 ADD PUSH2 0x3574 JUMP JUMPDEST DUP4 DUP2 GT ISZERO PUSH2 0x1131 JUMPI POP POP PUSH1 0x0 SWAP2 ADD MSTORE JUMP JUMPDEST PUSH1 0x1 DUP2 DUP2 SHR SWAP1 DUP3 AND DUP1 PUSH2 0x35B1 JUMPI PUSH1 0x7F DUP3 AND SWAP2 POP JUMPDEST PUSH1 0x20 DUP3 LT DUP2 EQ ISZERO PUSH2 0x35D2 JUMPI PUSH4 0x4E487B71 PUSH1 0xE0 SHL PUSH1 0x0 MSTORE PUSH1 0x22 PUSH1 0x4 MSTORE PUSH1 0x24 PUSH1 0x0 REVERT JUMPDEST POP SWAP2 SWAP1 POP JUMP JUMPDEST PUSH1 0x0 PUSH1 0x0 NOT DUP3 EQ ISZERO PUSH2 0x35EC JUMPI PUSH2 0x35EC PUSH2 0x3607 JUMP JUMPDEST POP PUSH1 0x1 ADD SWAP1 JUMP JUMPDEST PUSH1 0x0 DUP3 PUSH2 0x3602 JUMPI PUSH2 0x3602 PUSH2 0x361D JUMP JUMPDEST POP MOD SWAP1 JUMP JUMPDEST PUSH4 0x4E487B71 PUSH1 0xE0 SHL PUSH1 0x0 MSTORE PUSH1 0x11 PUSH1 0x4 MSTORE PUSH1 0x24 PUSH1 0x0 REVERT JUMPDEST PUSH4 0x4E487B71 PUSH1 0xE0 SHL PUSH1 0x0 MSTORE PUSH1 0x12 PUSH1 0x4 MSTORE PUSH1 0x24 PUSH1 0x0 REVERT JUMPDEST PUSH4 0x4E487B71 PUSH1 0xE0 SHL PUSH1 0x0 MSTORE PUSH1 0x31 PUSH1 0x4 MSTORE PUSH1 0x24 PUSH1 0x0 REVERT JUMPDEST PUSH4 0x4E487B71 PUSH1 0xE0 SHL PUSH1 0x0 MSTORE PUSH1 0x32 PUSH1 0x4 MSTORE PUSH1 0x24 PUSH1 0x0 REVERT JUMPDEST PUSH4 0x4E487B71 PUSH1 0xE0 SHL PUSH1 0x0 MSTORE PUSH1 0x41 PUSH1 0x4 MSTORE PUSH1 0x24 PUSH1 0x0 REVERT JUMPDEST PUSH1 0x1 PUSH1 0x1 PUSH1 0xE0 SHL SUB NOT DUP2 AND DUP2 EQ PUSH2 0x1B3C JUMPI PUSH1 0x0 DUP1 REVERT INVALID EXTCODECOPY 0x2F PUSH21 0x6578743E3C7465787420783D2231302220793D2236 ADDRESS 0x22 KECCAK256 PUSH4 0x6C617373 RETURNDATASIZE 0x22 PUSH3 0x617365 0x22 RETURNDATACOPY EXTCODECOPY 0x2F PUSH21 0x6578743E3C7465787420783D2231302220793D2238 ADDRESS 0x22 KECCAK256 PUSH4 0x6C617373 RETURNDATASIZE 0x22 PUSH3 0x617365 0x22 RETURNDATACOPY EXTCODECOPY PUSH20 0x766720786D6C6E733D22687474703A2F2F777777 0x2E PUSH24 0x332E6F72672F323030302F73766722207072657365727665 COINBASE PUSH20 0x70656374526174696F3D22784D696E594D696E20 PUSH14 0x656574222076696577426F783D22 ADDRESS KECCAK256 ADDRESS KECCAK256 CALLER CALLDATALOAD ADDRESS KECCAK256 CALLER CALLDATALOAD ADDRESS 0x22 RETURNDATACOPY EXTCODECOPY PUSH20 0x74796C653E2E62617365207B2066696C6C3A2077 PUSH9 0x6974653B20666F6E74 0x2D PUSH7 0x616D696C793A20 PUSH20 0x657269663B20666F6E742D73697A653A20313470 PUSH25 0x3B207D3C2F7374796C653E3C726563742077696474683D2231 ADDRESS ADDRESS 0x25 0x22 KECCAK256 PUSH9 0x65696768743D223130 ADDRESS 0x25 0x22 KECCAK256 PUSH7 0x696C6C3D22626C PUSH2 0x636B 0x22 KECCAK256 0x2F RETURNDATACOPY EXTCODECOPY PUSH21 0x65787420783D2231302220793D2232302220636C61 PUSH20 0x733D2262617365223E4142434445464748494A4B 0x4C 0x4D 0x4E 0x4F POP MLOAD MSTORE MSTORE8 SLOAD SSTORE JUMP JUMPI PC MSIZE GAS PUSH2 0x6263 PUSH5 0x6566676869 PUSH11 0x6B6C6D6E6F707172737475 PUSH23 0x7778797A303132333435363738392B2F3C2F746578743E EXTCODECOPY PUSH21 0x65787420783D2231302220793D2234302220636C61 PUSH20 0x733D2262617365223EA264697066735822122025 SIGNEXTEND PUSH27 0x9F04D7E865A6B5E02A94D695B9A345940588A860F4E81108D9BB7A PUSH31 0xC064736F6C6343000807003300000000000000000000000000000000000000 ","sha1":"c749f2ab89b3e0866173c9f64161412bb0a5fa75","source":"//SPDX-License-Identifier: MIT\npragma solidity ^0.8.0;\n\nimport {ERC721Enumerable} from \"./NFT.sol\";\nimport {ReentrancyGuard} from \"./NFT.sol\";\nimport {Ownable} from \"./NFT.sol\";\nimport {Base64} from \"./NFT.sol\";\nimport {ERC721} from \"./NFT.sol\";\n\ncontract Master is ERC721Enumerable, ReentrancyGuard, Ownable {\n    \n    constructor() ERC721(\"Loot\", \"LOOT\") Ownable() {}\n\n    struct ItemSet {\n    string theme;\n    string[] weapons;\n    string[] attire;\n    string[] accessories;\n    address payable creator;\n  }\n\n    ItemSet[] public itemSets;\n    uint256 counter = 1;\n    mapping (address => ItemSet) userToItems;\n    mapping (address => uint256) public numItemsSets;\n    mapping (uint256 => uint256) public tokenIdToRand;\n    mapping (address => uint256) public userToMinted;\n    mapping (address => uint256) public collectedFees;\n\n    event feeCollected(address to, uint256 fee);\n\n    string[] private suffixes = [\"Of Power\", \"Of Dark Matter\", \"Of The Sovereign\", \"Of The Future\", \"Of the Unknown\", \"Of Gravity\", \"Of the Singularity\", \"Of Distant Suns\", \"Of Next Augmented\", \"Of The Aeon\", \"Of Micro Fragmentation\", \"Of Vicarious Consciousness\", \"Of Vectors\", \"Of Metaphysical Augmentation\", \"Of The Astral Planes\", \"Of The Living Universe\", \"Of The Biomechs\", \"Of The Cyborgs\", \"Of The Spiritual Planes\", \"Of The Nano Threads\", \"Of The Sigil\", \"Of The Quick\", \"Of The Mind\", \"Of Psychic Fractals\", \"Of The Genetic Codex\"];\n    \n    string[] private namePrefixes = [\"Augmentation\", \"Cybernetic\", \"Cyber\", \"Nano\", \"Implanted\", \"Enhancement\", \"Modified\", \"Upgraded\", \"Advanced\", \"Hyper\", \"Advanced\", \"Proto\", \"Prototype\", \"Adaptation\", \"Artificial\", \"Gene\", \"Genetic\", \"Carbon\", \"Bio\", \"Biomechanical\", \"Mechanized\", \"Machine\", \"Cyborg\", \"Artificial\", \"Autonomous\", \"Electric\", \"Electronic\", \"Reflective\", \"Reflexive\", \"Self-Aware\", \"Sentient\", \"Self-Morphing\", \"Self-Modifying\", \"Self-Learning\", \"Organic\", \"Omni\", \"Omni-Processing\", \"Dystopian\", \"Reactive\", \"Responsive\", \"Optimized\", \"Indestructible\", \"Visionary\", \"Holographic\", \"Neon\", \"Superfluid\", \"Translucent\", \"Invisible\", \"Impenetrable\", \"Incorporeal\", \"Morphing\", \"Shapeshifter\", \"Active\", \"Living\", \"Mysterious\", \"Immortal\", \"Re-animated\", \"Toxic\", \"Corrosive\", \"Explosive\", \"Flammable\", \"Pyro\", \"Combustible\", \"Self-Destructive\", \"Parasitic\", \"Viral\", \"Psionic\", \"Psychic\", \"Arcane\", \"Divine\", \"Alchemical\", \"Totemic\", \"Sentinel\", \"Defensive\", \"Recon\"];\n    \n    string[] private nameSuffixes = [\"Neon\", \"Stealthy\", \"Sentry\", \"Liberty\", \"Thunder\", \"Death\", \"Tool\", \"Junk\", \"Black\", \"Cyber\", \"Firewall\", \"Sharp\", \"Brawler\", \"Hacker\", \"Radiant\", \"Cipher\", \"Tracer\", \"Phantom\", \"Savage\", \"Persistent\", \"Serial\", \"Neural\", \"Deceit\", \"Lacquer\", \"Sapper\", \"Spark\", \"Spanner\", \"Scumbag\", \"Techno\", \"Cybernetics\", \"Shadow\", \"Transcendent\", \"Juggernaut\", \"Retro\", \"Metallic\", \"Chemical\", \"Spectral\", \"Digital\", \"Berserker\", \"Photon\", \"Anarchy\", \"Carbon\", \"Cyanide\", \"Hypnotic\", \"Decryptor\", \"Ghost\", \"Phoenix\"];\n    \n    function addItemSet(string memory _theme, string[] memory _weapons, string[] memory _attire, string[] memory _accessories) public payable {\n        require(msg.value >= 50000000000000000, \"Fee too low\");\n        ItemSet memory newItem;\n\n        newItem.weapons = _weapons;\n        newItem.attire = _attire;\n        newItem.accessories = _accessories;\n        newItem.theme = _theme;\n        newItem.creator = payable(msg.sender);\n\n        numItemsSets[msg.sender] += 1;\n        itemSets.push(newItem);\n    }\n\n    function random(string memory input) internal pure returns (uint256) {\n        return uint256(keccak256(abi.encodePacked(input)));\n    }\n    \n    function getWeapon(uint256 tokenId, string[] memory weapons) public view returns (string memory) {\n        return pluck(tokenId, \"WEAPON\", weapons);\n    }\n    \n    function getAttire(uint256 tokenId, string[] memory attire) public view returns (string memory) {\n        return pluck(tokenId, \"ATTIRE\", attire);\n    }\n    \n    function getAccessories(uint256 tokenId, string[] memory accessories) public view returns (string memory) {\n        return pluck(tokenId, \"ACCESSORIES\", accessories);\n    }\n    \n    function pluck(uint256 tokenId, string memory keyPrefix, string[] memory sourceArray) internal view returns (string memory) {\n        uint256 rand = random(string(abi.encodePacked(keyPrefix, toString(tokenId))));\n        string memory output = sourceArray[rand % sourceArray.length];\n        uint256 greatness = rand % 21;\n        if (greatness > 14) {\n            output = string(abi.encodePacked(output, \" \", suffixes[rand % suffixes.length]));\n        }\n        if (greatness >= 19) {\n            string[2] memory name;\n            name[0] = namePrefixes[rand % namePrefixes.length];\n            name[1] = nameSuffixes[rand % nameSuffixes.length];\n            if (greatness == 19) {\n                output = string(abi.encodePacked('\"', name[0], ' ', name[1], '\" ', output));\n            } else {\n                output = string(abi.encodePacked('\"', name[0], ' ', name[1], '\" ', output, \" +1\"));\n            }\n        }\n        return output;\n    }\n\n    function tokenURI(uint256 tokenId) override public view returns (string memory) {\n        uint256 i = tokenIdToRand[tokenId];\n        string[] memory weapons = itemSets[i].weapons;\n        string[] memory attire = itemSets[i].attire;\n        string[] memory accessories = itemSets[i].accessories;\n\n        string[8] memory parts;\n        parts[0] = '<svg xmlns=\"http://www.w3.org/2000/svg\" preserveAspectRatio=\"xMinYMin meet\" viewBox=\"0 0 350 350\"><style>.base { fill: white; font-family: serif; font-size: 14px; }</style><rect width=\"100%\" height=\"100%\" fill=\"black\" /><text x=\"10\" y=\"20\" class=\"base\">';\n\n        parts[1] = getWeapon(tokenId, weapons);\n\n        parts[2] = '</text><text x=\"10\" y=\"40\" class=\"base\">';\n\n        parts[3] = getAttire(tokenId, attire);\n\n        parts[4] = '</text><text x=\"10\" y=\"60\" class=\"base\">';\n\n        parts[5] = getAccessories(tokenId, accessories);\n\n        parts[6] = '</text><text x=\"10\" y=\"80\" class=\"base\">';\n\n        parts[7] = '</text></svg>';\n\n        string memory output = string(abi.encodePacked(parts[0], parts[1], parts[2], parts[3], parts[4], parts[5], parts[6]));\n        output = string(abi.encodePacked(output, parts[7]));\n        \n        string memory json = Base64.encode(bytes(string(abi.encodePacked('{\"name\": \"Bag #', toString(tokenId), '\", \"description\": \"Loot is randomized adventurer gear generated and stored on chain. Stats, images, and other functionality are intentionally omitted for others to interpret. Feel free to use Loot in any way you want.\", \"image\": \"data:image/svg+xml;base64,', Base64.encode(bytes(output)), '\"}'))));\n        output = string(abi.encodePacked('data:application/json;base64,', json));\n\n        return output;\n    }\n\n    function tokenImage(uint256 tokenId) public view returns (string memory) {\n        uint256 i = tokenIdToRand[tokenId];\n        string[] memory weapons = itemSets[i].weapons;\n        string[] memory attire = itemSets[i].attire;\n        string[] memory accessories = itemSets[i].accessories;\n        string[8] memory parts;\n        parts[0] = '<svg xmlns=\"http://www.w3.org/2000/svg\" preserveAspectRatio=\"xMinYMin meet\" viewBox=\"0 0 350 350\"><style>.base { fill: white; font-family: serif; font-size: 14px; }</style><rect width=\"100%\" height=\"100%\" fill=\"black\" /><text x=\"10\" y=\"20\" class=\"base\">';\n\n        parts[1] = getWeapon(tokenId, weapons);\n\n        parts[2] = '</text><text x=\"10\" y=\"40\" class=\"base\">';\n\n        parts[3] = getAttire(tokenId, attire);\n\n        parts[4] = '</text><text x=\"10\" y=\"60\" class=\"base\">';\n\n        parts[5] = getAccessories(tokenId, accessories);\n\n        parts[6] = '</text><text x=\"10\" y=\"80\" class=\"base\">';\n\n        parts[7] = '</text></svg>';\n\n        string memory output = string(abi.encodePacked(parts[0], parts[1], parts[2], parts[3], parts[4], parts[5], parts[6]));\n        output = string(abi.encodePacked(output, parts[7]));\n        \n        return output;\n    }\n\n    function claim() public payable nonReentrant {\n        require(msg.value >= 50000000000000000, \"Fee to low\");\n        uint256 tokenId = counter;\n        uint256 rand = random(string(abi.encodePacked(\"GPT\", toString(tokenId))));\n        uint i = rand % itemSets.length;\n        address payable creator = itemSets[i].creator;\n        creator.transfer(msg.value);\n        tokenIdToRand[tokenId] = i;\n        userToMinted[creator] += 1;\n        uint256 creatorFee = msg.value / 2;\n        collectedFees[creator] += creatorFee;\n        creator.transfer(creatorFee);\n        counter += 1;\n        _safeMint(_msgSender(), tokenId);\n        emit feeCollected(creator, creatorFee);\n    }\n    \n\n    function toString(uint256 value) internal pure returns (string memory) {\n    // Inspired by OraclizeAPI's implementation - MIT license\n    // https://github.com/oraclize/ethereum-api/blob/b42146b063c7d6ee1358846c198246239e9360e8/oraclizeAPI_0.4.25.sol\n\n        if (value == 0) {\n            return \"0\";\n        }\n        uint256 temp = value;\n        uint256 digits;\n        while (temp != 0) {\n            digits++;\n            temp /= 10;\n        }\n        bytes memory buffer = new bytes(digits);\n        while (value != 0) {\n            digits -= 1;\n            buffer[digits] = bytes1(uint8(48 + uint256(value % 10)));\n            value /= 10;\n        }\n        return string(buffer);\n    }\n    \n}\n\n","sourcePath":"contracts/Master.sol","deployment":{"address":"0xC862E14Ee25aAf5D1A9F22ECA78E426712edfD7C","chainid":"137","blockHeight":20008720}}