{"bytecode":"608060405260016004556103e8600a5534801561001b57600080fd5b50600280546001600160a01b03191673a36085f69e2889c224210f603d836748e7dc0088179055600380546001600160a01b0319167345fd8df7e9348b14afc145599f719dbe27977fd9179055611257806100776000396000f3fe60806040526004361061007f5760003560e01c80638dc654a21161004e5780638dc654a214610102578063ddca3f4314610117578063e3a7fd751461013b578063f5094c9d1461015057600080fd5b806324b67cff1461008b57806341a4a101146100b657806373d4a13a146100d85780637a7f01a7146100ed57600080fd5b3661008657005b600080fd5b34801561009757600080fd5b506100a0610170565b6040516100ad9190611052565b60405180910390f35b3480156100c257600080fd5b506100d66100d1366004610ea7565b6101fe565b005b3480156100e457600080fd5b506100a0610377565b3480156100f957600080fd5b506100a0610384565b34801561010e57600080fd5b506100d6610391565b34801561012357600080fd5b5061012d600a5481565b6040519081526020016100ad565b34801561014757600080fd5b506100a06104a8565b34801561015c57600080fd5b506100d661016b366004610f14565b6104b5565b6009805461017d9061119e565b80601f01602080910402602001604051908101604052809291908181526020018280546101a99061119e565b80156101f65780601f106101cb576101008083540402835291602001916101f6565b820191906000526020600020905b8154815290600101906020018083116101d957829003601f168201915b505050505081565b60008381526005602052604090205483906001600160a01b0316331461027c5760405162461bcd60e51b815260206004820152602860248201527f536f75726365206d75737420626520746865206f7261636c65206f6620746865604482015267081c995c5d595cdd60c21b60648201526084015b60405180910390fd5b60008181526005602052604080822080546001600160a01b03191690555182917f7cc135e0cebb02c3480ae5d74d377283180a2601f8f644edf7987b009316c63a91a26040517f9f64ba467cbf095201d0115c72c87d416c1a55928c0862a6bb0f4d05420397e390600090a182516102fb906006906020860190610c99565b50815161030f906007906020850190610c99565b50600660089080546103209061119e565b61032b929190610d1d565b506007600990805461033c9061119e565b610347929190610d1d565b506040517f9f64ba467cbf095201d0115c72c87d416c1a55928c0862a6bb0f4d05420397e390600090a150505050565b6006805461017d9061119e565b6008805461017d9061119e565b6040516370a0823160e01b815230600482015260009073a36085f69e2889c224210f603d836748e7dc0088906370a082319060240160206040518083038186803b1580156103de57600080fd5b505afa1580156103f2573d6000803e3d6000fd5b505050506040513d601f19601f820116820180604052508101906104169190610f5d565b60405163a9059cbb60e01b81523360048201526024810182905290915073a36085f69e2889c224210f603d836748e7dc00889063a9059cbb90604401602060405180830381600087803b15801561046c57600080fd5b505af1158015610480573d6000803e3d6000fd5b505050506040513d601f19601f820116820180604052508101906104a49190610e7e565b5050565b6007805461017d9061119e565b6040516370a0823160e01b81523060048201527f623631623464373139616230343139393838326336613861633363353138363190655af3107a400090819073a36085f69e2889c224210f603d836748e7dc0088906370a082319060240160206040518083038186803b15801561052b57600080fd5b505afa15801561053f573d6000803e3d6000fd5b505050506040513d601f19601f820116820180604052508101906105639190610f5d565b10156105a35760405162461bcd60e51b815260206004820152600f60248201526e4e6f7420656e6f756768206c696e6b60881b6044820152606401610273565b60006105b783306341a4a10160e01b6105f4565b6040805180820190915260068152651c1c9bdb5c1d60d21b60208201529091506105e390829086610619565b6105ed818361063c565b5050505050565b6105fc610d98565b610604610d98565b6106108186868661065f565b95945050505050565b6080830151610628908361069c565b6080830151610637908261069c565b505050565b600354600090610656906001600160a01b031684846106b3565b90505b92915050565b610667610d98565b61067785608001516101006106d2565b50509183526001600160a01b031660208301526001600160e01b031916604082015290565b6106a98260038351610737565b610637828261080b565b60006106ca84848460026336f43ceb60e11b610832565b949350505050565b6040805180820190915260608152600060208201526106f26020836111d3565b1561071a576107026020836111d3565b61070d906020611187565b6107179083611065565b91505b506020828101829052604080518085526000815290920101905290565b60178111610758576107528360e0600585901b168317610a3e565b50505050565b60ff811161078257610775836018611fe0600586901b1617610a3e565b5061075283826001610a63565b61ffff81116107ad576107a0836019611fe0600586901b1617610a3e565b5061075283826002610a63565b63ffffffff81116107da576107cd83601a611fe0600586901b1617610a3e565b5061075283826004610a63565b67ffffffffffffffff8111610637576107fe83601b611fe0600586901b1617610a3e565b5061075283826008610a63565b60408051808201909152606081526000602082015261065683846000015151848551610a89565b6004546040516bffffffffffffffffffffffff193060601b166020820152603481019190915260009060540160408051808303601f19018152918152815160209283012060045460608901526000818152600590935281832080546001600160a01b0319166001600160a01b038b16179055905190925082917fb5e6e01e79f91267dc17b4e6314d5d4d03593d2ceee0fbb452b750bd70ea5af991a2600082600080886000015189602001518a604001518b606001518a8d6080015160000151604051602401610909989796959493929190610fc3565b60408051601f198184030181529181526020820180516001600160e01b03166001600160e01b0319909416939093179092526002549151630200057560e51b81529092506001600160a01b0390911690634000aea090610971908a908990869060040161102b565b602060405180830381600087803b15801561098b57600080fd5b505af115801561099f573d6000803e3d6000fd5b505050506040513d601f19601f820116820180604052508101906109c39190610e7e565b610a1b5760405162461bcd60e51b815260206004820152602360248201527f756e61626c6520746f207472616e73666572416e6443616c6c20746f206f7261604482015262636c6560e81b6064820152608401610273565b600160046000828254610a2e9190611065565b9091555091979650505050505050565b6040805180820190915260608152600060208201526106568384600001515184610b8e565b6040805180820190915260608152600060208201526106ca848560000151518585610bea565b6040805180820190915260608152600060208201528251821115610aac57600080fd5b6020850151610abb8386611065565b1115610aee57610aee85610ade87602001518786610ad99190611065565b610c6b565b610ae9906002611168565b610c82565b600080865180518760208301019350808887011115610b0d5787860182525b505050602084015b60208410610b4d5780518252610b2c602083611065565b9150610b39602082611065565b9050610b46602085611187565b9350610b15565b60006001610b5c866020611187565b610b68906101006110c0565b610b729190611187565b9151835183169219169190911790915250849050949350505050565b60408051808201909152606081526000602082015283602001518310610bc357610bc38485602001516002610ae99190611168565b835180516020858301018481535080851415610be0576001810182525b5093949350505050565b6040805180820190915260608152600060208201526020850151610c0e8584611065565b1115610c2257610c2285610ade8685611065565b60006001610c32846101006110c0565b610c3c9190611187565b9050855183868201018583198251161781525080518487011115610c605783860181525b509495945050505050565b600081831115610c7c575081610659565b50919050565b8151610c8e83836106d2565b50610752838261080b565b828054610ca59061119e565b90600052602060002090601f016020900481019282610cc75760008555610d0d565b82601f10610ce057805160ff1916838001178555610d0d565b82800160010185558215610d0d579182015b82811115610d0d578251825591602001919060010190610cf2565b50610d19929150610dd3565b5090565b828054610d299061119e565b90600052602060002090601f016020900481019282610d4b5760008555610d0d565b82601f10610d5c5780548555610d0d565b82800160010185558215610d0d57600052602060002091601f016020900482015b82811115610d0d578254825591600101919060010190610d7d565b6040805160a0810182526000808252602080830182905282840182905260608084018390528451808601909552845283015290608082015290565b5b80821115610d195760008155600101610dd4565b600067ffffffffffffffff80841115610e0357610e0361120b565b604051601f8501601f19908116603f01168101908282118183101715610e2b57610e2b61120b565b81604052809350858152868686011115610e4457600080fd5b858560208301376000602087830101525050509392505050565b600082601f830112610e6f57600080fd5b61065683833560208501610de8565b600060208284031215610e9057600080fd5b81518015158114610ea057600080fd5b9392505050565b600080600060608486031215610ebc57600080fd5b83359250602084013567ffffffffffffffff80821115610edb57600080fd5b610ee787838801610e5e565b93506040860135915080821115610efd57600080fd5b50610f0a86828701610e5e565b9150509250925092565b600060208284031215610f2657600080fd5b813567ffffffffffffffff811115610f3d57600080fd5b8201601f81018413610f4e57600080fd5b6106ca84823560208401610de8565b600060208284031215610f6f57600080fd5b5051919050565b6000815180845260005b81811015610f9c57602081850181015186830182015201610f80565b81811115610fae576000602083870101525b50601f01601f19169290920160200192915050565b6001600160a01b0389811682526020820189905260408201889052861660608201526001600160e01b03198516608082015260a0810184905260c0810183905261010060e0820181905260009061101c83820185610f76565b9b9a5050505050505050505050565b60018060a01b03841681528260208201526060604082015260006106106060830184610f76565b6020815260006106566020830184610f76565b60008219821115611078576110786111f5565b500190565b600181815b808511156110b857816000190482111561109e5761109e6111f5565b808516156110ab57918102915b93841c9390800290611082565b509250929050565b600061065683836000826110d657506001610659565b816110e357506000610659565b81600181146110f957600281146111035761111f565b6001915050610659565b60ff841115611114576111146111f5565b50506001821b610659565b5060208310610133831016604e8410600b8410161715611142575081810a610659565b61114c838361107d565b8060001904821115611160576111606111f5565b029392505050565b6000816000190483118215151615611182576111826111f5565b500290565b600082821015611199576111996111f5565b500390565b600181811c908216806111b257607f821691505b60208210811415610c7c57634e487b7160e01b600052602260045260246000fd5b6000826111f057634e487b7160e01b600052601260045260246000fd5b500690565b634e487b7160e01b600052601160045260246000fd5b634e487b7160e01b600052604160045260246000fdfea2646970667358221220a8424ddae0287b1c5282ac9135891364abe0b37ce1dc58696a6a80273809993c64736f6c63430008070033","bytecodeSha1":"4f1dc95f27f0b983ebdf28e80f54f2527014d962","type":"contract","abi":[{"inputs":[],"stateMutability":"nonpayable","type":"constructor","name":"constructor"},{"anonymous":false,"inputs":[{"indexed":true,"internalType":"bytes32","name":"id","type":"bytes32"}],"name":"ChainlinkCancelled","type":"event"},{"anonymous":false,"inputs":[{"indexed":true,"internalType":"bytes32","name":"id","type":"bytes32"}],"name":"ChainlinkFulfilled","type":"event"},{"anonymous":false,"inputs":[{"indexed":true,"internalType":"bytes32","name":"id","type":"bytes32"}],"name":"ChainlinkRequested","type":"event"},{"anonymous":false,"inputs":[{"indexed":true,"internalType":"bytes32","name":"requestId","type":"bytes32"},{"indexed":true,"internalType":"bytes","name":"data","type":"bytes"}],"name":"RequestFulfilled","type":"event"},{"anonymous":false,"inputs":[],"name":"doSomethingPLEASE","type":"event"},{"inputs":[],"name":"data","outputs":[{"internalType":"bytes","name":"","type":"bytes"}],"stateMutability":"view","type":"function"},{"inputs":[],"name":"data2","outputs":[{"internalType":"bytes","name":"","type":"bytes"}],"stateMutability":"view","type":"function"},{"inputs":[],"name":"fee","outputs":[{"internalType":"uint256","name":"","type":"uint256"}],"stateMutability":"view","type":"function"},{"inputs":[{"internalType":"bytes32","name":"requestId","type":"bytes32"},{"internalType":"bytes","name":"bytesData","type":"bytes"},{"internalType":"bytes","name":"bytesData2","type":"bytes"}],"name":"fulfillBytes","outputs":[],"stateMutability":"nonpayable","type":"function"},{"inputs":[{"internalType":"string","name":"_prompt","type":"string"}],"name":"requestBytes","outputs":[],"stateMutability":"nonpayable","type":"function"},{"inputs":[],"name":"response","outputs":[{"internalType":"string","name":"","type":"string"}],"stateMutability":"view","type":"function"},{"inputs":[],"name":"response2","outputs":[{"internalType":"string","name":"","type":"string"}],"stateMutability":"view","type":"function"},{"inputs":[],"name":"withdrawLink","outputs":[],"stateMutability":"nonpayable","type":"function"},{"stateMutability":"payable","type":"receive"}],"compiler":{"version":"0.8.7+commit.e28d00a7","evm_version":"istanbul","optimizer":{"enabled":true,"runs":200}},"contractName":"Consumer","language":"Solidity","natspec":{"methods":{},"kind":"dev","version":1},"opcodes":"PUSH1 0x80 PUSH1 0x40 MSTORE PUSH1 0x4 CALLDATASIZE LT PUSH2 0x7F JUMPI PUSH1 0x0 CALLDATALOAD PUSH1 0xE0 SHR DUP1 PUSH4 0x8DC654A2 GT PUSH2 0x4E JUMPI DUP1 PUSH4 0x8DC654A2 EQ PUSH2 0x102 JUMPI DUP1 PUSH4 0xDDCA3F43 EQ PUSH2 0x117 JUMPI DUP1 PUSH4 0xE3A7FD75 EQ PUSH2 0x13B JUMPI DUP1 PUSH4 0xF5094C9D EQ PUSH2 0x150 JUMPI PUSH1 0x0 DUP1 REVERT JUMPDEST DUP1 PUSH4 0x24B67CFF EQ PUSH2 0x8B JUMPI DUP1 PUSH4 0x41A4A101 EQ PUSH2 0xB6 JUMPI DUP1 PUSH4 0x73D4A13A EQ PUSH2 0xD8 JUMPI DUP1 PUSH4 0x7A7F01A7 EQ PUSH2 0xED JUMPI PUSH1 0x0 DUP1 REVERT JUMPDEST CALLDATASIZE PUSH2 0x86 JUMPI STOP JUMPDEST PUSH1 0x0 DUP1 REVERT JUMPDEST CALLVALUE DUP1 ISZERO PUSH2 0x97 JUMPI PUSH1 0x0 DUP1 REVERT JUMPDEST POP PUSH2 0xA0 PUSH2 0x170 JUMP JUMPDEST PUSH1 0x40 MLOAD PUSH2 0xAD SWAP2 SWAP1 PUSH2 0x1052 JUMP JUMPDEST PUSH1 0x40 MLOAD DUP1 SWAP2 SUB SWAP1 RETURN JUMPDEST CALLVALUE DUP1 ISZERO PUSH2 0xC2 JUMPI PUSH1 0x0 DUP1 REVERT JUMPDEST POP PUSH2 0xD6 PUSH2 0xD1 CALLDATASIZE PUSH1 0x4 PUSH2 0xEA7 JUMP JUMPDEST PUSH2 0x1FE JUMP JUMPDEST STOP JUMPDEST CALLVALUE DUP1 ISZERO PUSH2 0xE4 JUMPI PUSH1 0x0 DUP1 REVERT JUMPDEST POP PUSH2 0xA0 PUSH2 0x377 JUMP JUMPDEST CALLVALUE DUP1 ISZERO PUSH2 0xF9 JUMPI PUSH1 0x0 DUP1 REVERT JUMPDEST POP PUSH2 0xA0 PUSH2 0x384 JUMP JUMPDEST CALLVALUE DUP1 ISZERO PUSH2 0x10E JUMPI PUSH1 0x0 DUP1 REVERT JUMPDEST POP PUSH2 0xD6 PUSH2 0x391 JUMP JUMPDEST CALLVALUE DUP1 ISZERO PUSH2 0x123 JUMPI PUSH1 0x0 DUP1 REVERT JUMPDEST POP PUSH2 0x12D PUSH1 0xA SLOAD DUP2 JUMP JUMPDEST PUSH1 0x40 MLOAD SWAP1 DUP2 MSTORE PUSH1 0x20 ADD PUSH2 0xAD JUMP JUMPDEST CALLVALUE DUP1 ISZERO PUSH2 0x147 JUMPI PUSH1 0x0 DUP1 REVERT JUMPDEST POP PUSH2 0xA0 PUSH2 0x4A8 JUMP JUMPDEST CALLVALUE DUP1 ISZERO PUSH2 0x15C JUMPI PUSH1 0x0 DUP1 REVERT JUMPDEST POP PUSH2 0xD6 PUSH2 0x16B CALLDATASIZE PUSH1 0x4 PUSH2 0xF14 JUMP JUMPDEST PUSH2 0x4B5 JUMP JUMPDEST PUSH1 0x9 DUP1 SLOAD PUSH2 0x17D SWAP1 PUSH2 0x119E JUMP JUMPDEST DUP1 PUSH1 0x1F ADD PUSH1 0x20 DUP1 SWAP2 DIV MUL PUSH1 0x20 ADD PUSH1 0x40 MLOAD SWAP1 DUP2 ADD PUSH1 0x40 MSTORE DUP1 SWAP3 SWAP2 SWAP1 DUP2 DUP2 MSTORE PUSH1 0x20 ADD DUP3 DUP1 SLOAD PUSH2 0x1A9 SWAP1 PUSH2 0x119E JUMP JUMPDEST DUP1 ISZERO PUSH2 0x1F6 JUMPI DUP1 PUSH1 0x1F LT PUSH2 0x1CB JUMPI PUSH2 0x100 DUP1 DUP4 SLOAD DIV MUL DUP4 MSTORE SWAP2 PUSH1 0x20 ADD SWAP2 PUSH2 0x1F6 JUMP JUMPDEST DUP3 ADD SWAP2 SWAP1 PUSH1 0x0 MSTORE PUSH1 0x20 PUSH1 0x0 KECCAK256 SWAP1 JUMPDEST DUP2 SLOAD DUP2 MSTORE SWAP1 PUSH1 0x1 ADD SWAP1 PUSH1 0x20 ADD DUP1 DUP4 GT PUSH2 0x1D9 JUMPI DUP3 SWAP1 SUB PUSH1 0x1F AND DUP3 ADD SWAP2 JUMPDEST POP POP POP POP POP DUP2 JUMP JUMPDEST PUSH1 0x0 DUP4 DUP2 MSTORE PUSH1 0x5 PUSH1 0x20 MSTORE PUSH1 0x40 SWAP1 KECCAK256 SLOAD DUP4 SWAP1 PUSH1 0x1 PUSH1 0x1 PUSH1 0xA0 SHL SUB AND CALLER EQ PUSH2 0x27C JUMPI PUSH1 0x40 MLOAD PUSH3 0x461BCD PUSH1 0xE5 SHL DUP2 MSTORE PUSH1 0x20 PUSH1 0x4 DUP3 ADD MSTORE PUSH1 0x28 PUSH1 0x24 DUP3 ADD MSTORE PUSH32 0x536F75726365206D75737420626520746865206F7261636C65206F6620746865 PUSH1 0x44 DUP3 ADD MSTORE PUSH8 0x81C995C5D595CDD PUSH1 0xC2 SHL PUSH1 0x64 DUP3 ADD MSTORE PUSH1 0x84 ADD JUMPDEST PUSH1 0x40 MLOAD DUP1 SWAP2 SUB SWAP1 REVERT JUMPDEST PUSH1 0x0 DUP2 DUP2 MSTORE PUSH1 0x5 PUSH1 0x20 MSTORE PUSH1 0x40 DUP1 DUP3 KECCAK256 DUP1 SLOAD PUSH1 0x1 PUSH1 0x1 PUSH1 0xA0 SHL SUB NOT AND SWAP1 SSTORE MLOAD DUP3 SWAP2 PUSH32 0x7CC135E0CEBB02C3480AE5D74D377283180A2601F8F644EDF7987B009316C63A SWAP2 LOG2 PUSH1 0x40 MLOAD PUSH32 0x9F64BA467CBF095201D0115C72C87D416C1A55928C0862A6BB0F4D05420397E3 SWAP1 PUSH1 0x0 SWAP1 LOG1 DUP3 MLOAD PUSH2 0x2FB SWAP1 PUSH1 0x6 SWAP1 PUSH1 0x20 DUP7 ADD SWAP1 PUSH2 0xC99 JUMP JUMPDEST POP DUP2 MLOAD PUSH2 0x30F SWAP1 PUSH1 0x7 SWAP1 PUSH1 0x20 DUP6 ADD SWAP1 PUSH2 0xC99 JUMP JUMPDEST POP PUSH1 0x6 PUSH1 0x8 SWAP1 DUP1 SLOAD PUSH2 0x320 SWAP1 PUSH2 0x119E JUMP JUMPDEST PUSH2 0x32B SWAP3 SWAP2 SWAP1 PUSH2 0xD1D JUMP JUMPDEST POP PUSH1 0x7 PUSH1 0x9 SWAP1 DUP1 SLOAD PUSH2 0x33C SWAP1 PUSH2 0x119E JUMP JUMPDEST PUSH2 0x347 SWAP3 SWAP2 SWAP1 PUSH2 0xD1D JUMP JUMPDEST POP PUSH1 0x40 MLOAD PUSH32 0x9F64BA467CBF095201D0115C72C87D416C1A55928C0862A6BB0F4D05420397E3 SWAP1 PUSH1 0x0 SWAP1 LOG1 POP POP POP POP JUMP JUMPDEST PUSH1 0x6 DUP1 SLOAD PUSH2 0x17D SWAP1 PUSH2 0x119E JUMP JUMPDEST PUSH1 0x8 DUP1 SLOAD PUSH2 0x17D SWAP1 PUSH2 0x119E JUMP JUMPDEST PUSH1 0x40 MLOAD PUSH4 0x70A08231 PUSH1 0xE0 SHL DUP2 MSTORE ADDRESS PUSH1 0x4 DUP3 ADD MSTORE PUSH1 0x0 SWAP1 PUSH20 0xA36085F69E2889C224210F603D836748E7DC0088 SWAP1 PUSH4 0x70A08231 SWAP1 PUSH1 0x24 ADD PUSH1 0x20 PUSH1 0x40 MLOAD DUP1 DUP4 SUB DUP2 DUP7 DUP1 EXTCODESIZE ISZERO DUP1 ISZERO PUSH2 0x3DE JUMPI PUSH1 0x0 DUP1 REVERT JUMPDEST POP GAS STATICCALL ISZERO DUP1 ISZERO PUSH2 0x3F2 JUMPI RETURNDATASIZE PUSH1 0x0 DUP1 RETURNDATACOPY RETURNDATASIZE PUSH1 0x0 REVERT JUMPDEST POP POP POP POP PUSH1 0x40 MLOAD RETURNDATASIZE PUSH1 0x1F NOT PUSH1 0x1F DUP3 ADD AND DUP3 ADD DUP1 PUSH1 0x40 MSTORE POP DUP2 ADD SWAP1 PUSH2 0x416 SWAP2 SWAP1 PUSH2 0xF5D JUMP JUMPDEST PUSH1 0x40 MLOAD PUSH4 0xA9059CBB PUSH1 0xE0 SHL DUP2 MSTORE CALLER PUSH1 0x4 DUP3 ADD MSTORE PUSH1 0x24 DUP2 ADD DUP3 SWAP1 MSTORE SWAP1 SWAP2 POP PUSH20 0xA36085F69E2889C224210F603D836748E7DC0088 SWAP1 PUSH4 0xA9059CBB SWAP1 PUSH1 0x44 ADD PUSH1 0x20 PUSH1 0x40 MLOAD DUP1 DUP4 SUB DUP2 PUSH1 0x0 DUP8 DUP1 EXTCODESIZE ISZERO DUP1 ISZERO PUSH2 0x46C JUMPI PUSH1 0x0 DUP1 REVERT JUMPDEST POP GAS CALL ISZERO DUP1 ISZERO PUSH2 0x480 JUMPI RETURNDATASIZE PUSH1 0x0 DUP1 RETURNDATACOPY RETURNDATASIZE PUSH1 0x0 REVERT JUMPDEST POP POP POP POP PUSH1 0x40 MLOAD RETURNDATASIZE PUSH1 0x1F NOT PUSH1 0x1F DUP3 ADD AND DUP3 ADD DUP1 PUSH1 0x40 MSTORE POP DUP2 ADD SWAP1 PUSH2 0x4A4 SWAP2 SWAP1 PUSH2 0xE7E JUMP JUMPDEST POP POP JUMP JUMPDEST PUSH1 0x7 DUP1 SLOAD PUSH2 0x17D SWAP1 PUSH2 0x119E JUMP JUMPDEST PUSH1 0x40 MLOAD PUSH4 0x70A08231 PUSH1 0xE0 SHL DUP2 MSTORE ADDRESS PUSH1 0x4 DUP3 ADD MSTORE PUSH32 0x6236316234643731396162303431393938383263366138616333633531383631 SWAP1 PUSH6 0x5AF3107A4000 SWAP1 DUP2 SWAP1 PUSH20 0xA36085F69E2889C224210F603D836748E7DC0088 SWAP1 PUSH4 0x70A08231 SWAP1 PUSH1 0x24 ADD PUSH1 0x20 PUSH1 0x40 MLOAD DUP1 DUP4 SUB DUP2 DUP7 DUP1 EXTCODESIZE ISZERO DUP1 ISZERO PUSH2 0x52B JUMPI PUSH1 0x0 DUP1 REVERT JUMPDEST POP GAS STATICCALL ISZERO DUP1 ISZERO PUSH2 0x53F JUMPI RETURNDATASIZE PUSH1 0x0 DUP1 RETURNDATACOPY RETURNDATASIZE PUSH1 0x0 REVERT JUMPDEST POP POP POP POP PUSH1 0x40 MLOAD RETURNDATASIZE PUSH1 0x1F NOT PUSH1 0x1F DUP3 ADD AND DUP3 ADD DUP1 PUSH1 0x40 MSTORE POP DUP2 ADD SWAP1 PUSH2 0x563 SWAP2 SWAP1 PUSH2 0xF5D JUMP JUMPDEST LT ISZERO PUSH2 0x5A3 JUMPI PUSH1 0x40 MLOAD PUSH3 0x461BCD PUSH1 0xE5 SHL DUP2 MSTORE PUSH1 0x20 PUSH1 0x4 DUP3 ADD MSTORE PUSH1 0xF PUSH1 0x24 DUP3 ADD MSTORE PUSH15 0x4E6F7420656E6F756768206C696E6B PUSH1 0x88 SHL PUSH1 0x44 DUP3 ADD MSTORE PUSH1 0x64 ADD PUSH2 0x273 JUMP JUMPDEST PUSH1 0x0 PUSH2 0x5B7 DUP4 ADDRESS PUSH4 0x41A4A101 PUSH1 0xE0 SHL PUSH2 0x5F4 JUMP JUMPDEST PUSH1 0x40 DUP1 MLOAD DUP1 DUP3 ADD SWAP1 SWAP2 MSTORE PUSH1 0x6 DUP2 MSTORE PUSH6 0x1C1C9BDB5C1D PUSH1 0xD2 SHL PUSH1 0x20 DUP3 ADD MSTORE SWAP1 SWAP2 POP PUSH2 0x5E3 SWAP1 DUP3 SWAP1 DUP7 PUSH2 0x619 JUMP JUMPDEST PUSH2 0x5ED DUP2 DUP4 PUSH2 0x63C JUMP JUMPDEST POP POP POP POP POP JUMP JUMPDEST PUSH2 0x5FC PUSH2 0xD98 JUMP JUMPDEST PUSH2 0x604 PUSH2 0xD98 JUMP JUMPDEST PUSH2 0x610 DUP2 DUP7 DUP7 DUP7 PUSH2 0x65F JUMP JUMPDEST SWAP6 SWAP5 POP POP POP POP POP JUMP JUMPDEST PUSH1 0x80 DUP4 ADD MLOAD PUSH2 0x628 SWAP1 DUP4 PUSH2 0x69C JUMP JUMPDEST PUSH1 0x80 DUP4 ADD MLOAD PUSH2 0x637 SWAP1 DUP3 PUSH2 0x69C JUMP JUMPDEST POP POP POP JUMP JUMPDEST PUSH1 0x3 SLOAD PUSH1 0x0 SWAP1 PUSH2 0x656 SWAP1 PUSH1 0x1 PUSH1 0x1 PUSH1 0xA0 SHL SUB AND DUP5 DUP5 PUSH2 0x6B3 JUMP JUMPDEST SWAP1 POP JUMPDEST SWAP3 SWAP2 POP POP JUMP JUMPDEST PUSH2 0x667 PUSH2 0xD98 JUMP JUMPDEST PUSH2 0x677 DUP6 PUSH1 0x80 ADD MLOAD PUSH2 0x100 PUSH2 0x6D2 JUMP JUMPDEST POP POP SWAP2 DUP4 MSTORE PUSH1 0x1 PUSH1 0x1 PUSH1 0xA0 SHL SUB AND PUSH1 0x20 DUP4 ADD MSTORE PUSH1 0x1 PUSH1 0x1 PUSH1 0xE0 SHL SUB NOT AND PUSH1 0x40 DUP3 ADD MSTORE SWAP1 JUMP JUMPDEST PUSH2 0x6A9 DUP3 PUSH1 0x3 DUP4 MLOAD PUSH2 0x737 JUMP JUMPDEST PUSH2 0x637 DUP3 DUP3 PUSH2 0x80B JUMP JUMPDEST PUSH1 0x0 PUSH2 0x6CA DUP5 DUP5 DUP5 PUSH1 0x2 PUSH4 0x36F43CEB PUSH1 0xE1 SHL PUSH2 0x832 JUMP JUMPDEST SWAP5 SWAP4 POP POP POP POP JUMP JUMPDEST PUSH1 0x40 DUP1 MLOAD DUP1 DUP3 ADD SWAP1 SWAP2 MSTORE PUSH1 0x60 DUP2 MSTORE PUSH1 0x0 PUSH1 0x20 DUP3 ADD MSTORE PUSH2 0x6F2 PUSH1 0x20 DUP4 PUSH2 0x11D3 JUMP JUMPDEST ISZERO PUSH2 0x71A JUMPI PUSH2 0x702 PUSH1 0x20 DUP4 PUSH2 0x11D3 JUMP JUMPDEST PUSH2 0x70D SWAP1 PUSH1 0x20 PUSH2 0x1187 JUMP JUMPDEST PUSH2 0x717 SWAP1 DUP4 PUSH2 0x1065 JUMP JUMPDEST SWAP2 POP JUMPDEST POP PUSH1 0x20 DUP3 DUP2 ADD DUP3 SWAP1 MSTORE PUSH1 0x40 DUP1 MLOAD DUP1 DUP6 MSTORE PUSH1 0x0 DUP2 MSTORE SWAP1 SWAP3 ADD ADD SWAP1 MSTORE SWAP1 JUMP JUMPDEST PUSH1 0x17 DUP2 GT PUSH2 0x758 JUMPI PUSH2 0x752 DUP4 PUSH1 0xE0 PUSH1 0x5 DUP6 SWAP1 SHL AND DUP4 OR PUSH2 0xA3E JUMP JUMPDEST POP POP POP POP JUMP JUMPDEST PUSH1 0xFF DUP2 GT PUSH2 0x782 JUMPI PUSH2 0x775 DUP4 PUSH1 0x18 PUSH2 0x1FE0 PUSH1 0x5 DUP7 SWAP1 SHL AND OR PUSH2 0xA3E JUMP JUMPDEST POP PUSH2 0x752 DUP4 DUP3 PUSH1 0x1 PUSH2 0xA63 JUMP JUMPDEST PUSH2 0xFFFF DUP2 GT PUSH2 0x7AD JUMPI PUSH2 0x7A0 DUP4 PUSH1 0x19 PUSH2 0x1FE0 PUSH1 0x5 DUP7 SWAP1 SHL AND OR PUSH2 0xA3E JUMP JUMPDEST POP PUSH2 0x752 DUP4 DUP3 PUSH1 0x2 PUSH2 0xA63 JUMP JUMPDEST PUSH4 0xFFFFFFFF DUP2 GT PUSH2 0x7DA JUMPI PUSH2 0x7CD DUP4 PUSH1 0x1A PUSH2 0x1FE0 PUSH1 0x5 DUP7 SWAP1 SHL AND OR PUSH2 0xA3E JUMP JUMPDEST POP PUSH2 0x752 DUP4 DUP3 PUSH1 0x4 PUSH2 0xA63 JUMP JUMPDEST PUSH8 0xFFFFFFFFFFFFFFFF DUP2 GT PUSH2 0x637 JUMPI PUSH2 0x7FE DUP4 PUSH1 0x1B PUSH2 0x1FE0 PUSH1 0x5 DUP7 SWAP1 SHL AND OR PUSH2 0xA3E JUMP JUMPDEST POP PUSH2 0x752 DUP4 DUP3 PUSH1 0x8 PUSH2 0xA63 JUMP JUMPDEST PUSH1 0x40 DUP1 MLOAD DUP1 DUP3 ADD SWAP1 SWAP2 MSTORE PUSH1 0x60 DUP2 MSTORE PUSH1 0x0 PUSH1 0x20 DUP3 ADD MSTORE PUSH2 0x656 DUP4 DUP5 PUSH1 0x0 ADD MLOAD MLOAD DUP5 DUP6 MLOAD PUSH2 0xA89 JUMP JUMPDEST PUSH1 0x4 SLOAD PUSH1 0x40 MLOAD PUSH12 0xFFFFFFFFFFFFFFFFFFFFFFFF NOT ADDRESS PUSH1 0x60 SHL AND PUSH1 0x20 DUP3 ADD MSTORE PUSH1 0x34 DUP2 ADD SWAP2 SWAP1 SWAP2 MSTORE PUSH1 0x0 SWAP1 PUSH1 0x54 ADD PUSH1 0x40 DUP1 MLOAD DUP1 DUP4 SUB PUSH1 0x1F NOT ADD DUP2 MSTORE SWAP2 DUP2 MSTORE DUP2 MLOAD PUSH1 0x20 SWAP3 DUP4 ADD KECCAK256 PUSH1 0x4 SLOAD PUSH1 0x60 DUP10 ADD MSTORE PUSH1 0x0 DUP2 DUP2 MSTORE PUSH1 0x5 SWAP1 SWAP4 MSTORE DUP2 DUP4 KECCAK256 DUP1 SLOAD PUSH1 0x1 PUSH1 0x1 PUSH1 0xA0 SHL SUB NOT AND PUSH1 0x1 PUSH1 0x1 PUSH1 0xA0 SHL SUB DUP12 AND OR SWAP1 SSTORE SWAP1 MLOAD SWAP1 SWAP3 POP DUP3 SWAP2 PUSH32 0xB5E6E01E79F91267DC17B4E6314D5D4D03593D2CEEE0FBB452B750BD70EA5AF9 SWAP2 LOG2 PUSH1 0x0 DUP3 PUSH1 0x0 DUP1 DUP9 PUSH1 0x0 ADD MLOAD DUP10 PUSH1 0x20 ADD MLOAD DUP11 PUSH1 0x40 ADD MLOAD DUP12 PUSH1 0x60 ADD MLOAD DUP11 DUP14 PUSH1 0x80 ADD MLOAD PUSH1 0x0 ADD MLOAD PUSH1 0x40 MLOAD PUSH1 0x24 ADD PUSH2 0x909 SWAP9 SWAP8 SWAP7 SWAP6 SWAP5 SWAP4 SWAP3 SWAP2 SWAP1 PUSH2 0xFC3 JUMP JUMPDEST PUSH1 0x40 DUP1 MLOAD PUSH1 0x1F NOT DUP2 DUP5 SUB ADD DUP2 MSTORE SWAP2 DUP2 MSTORE PUSH1 0x20 DUP3 ADD DUP1 MLOAD PUSH1 0x1 PUSH1 0x1 PUSH1 0xE0 SHL SUB AND PUSH1 0x1 PUSH1 0x1 PUSH1 0xE0 SHL SUB NOT SWAP1 SWAP5 AND SWAP4 SWAP1 SWAP4 OR SWAP1 SWAP3 MSTORE PUSH1 0x2 SLOAD SWAP2 MLOAD PUSH4 0x2000575 PUSH1 0xE5 SHL DUP2 MSTORE SWAP1 SWAP3 POP PUSH1 0x1 PUSH1 0x1 PUSH1 0xA0 SHL SUB SWAP1 SWAP2 AND SWAP1 PUSH4 0x4000AEA0 SWAP1 PUSH2 0x971 SWAP1 DUP11 SWAP1 DUP10 SWAP1 DUP7 SWAP1 PUSH1 0x4 ADD PUSH2 0x102B JUMP JUMPDEST PUSH1 0x20 PUSH1 0x40 MLOAD DUP1 DUP4 SUB DUP2 PUSH1 0x0 DUP8 DUP1 EXTCODESIZE ISZERO DUP1 ISZERO PUSH2 0x98B JUMPI PUSH1 0x0 DUP1 REVERT JUMPDEST POP GAS CALL ISZERO DUP1 ISZERO PUSH2 0x99F JUMPI RETURNDATASIZE PUSH1 0x0 DUP1 RETURNDATACOPY RETURNDATASIZE PUSH1 0x0 REVERT JUMPDEST POP POP POP POP PUSH1 0x40 MLOAD RETURNDATASIZE PUSH1 0x1F NOT PUSH1 0x1F DUP3 ADD AND DUP3 ADD DUP1 PUSH1 0x40 MSTORE POP DUP2 ADD SWAP1 PUSH2 0x9C3 SWAP2 SWAP1 PUSH2 0xE7E JUMP JUMPDEST PUSH2 0xA1B JUMPI PUSH1 0x40 MLOAD PUSH3 0x461BCD PUSH1 0xE5 SHL DUP2 MSTORE PUSH1 0x20 PUSH1 0x4 DUP3 ADD MSTORE PUSH1 0x23 PUSH1 0x24 DUP3 ADD MSTORE PUSH32 0x756E61626C6520746F207472616E73666572416E6443616C6C20746F206F7261 PUSH1 0x44 DUP3 ADD MSTORE PUSH3 0x636C65 PUSH1 0xE8 SHL PUSH1 0x64 DUP3 ADD MSTORE PUSH1 0x84 ADD PUSH2 0x273 JUMP JUMPDEST PUSH1 0x1 PUSH1 0x4 PUSH1 0x0 DUP3 DUP3 SLOAD PUSH2 0xA2E SWAP2 SWAP1 PUSH2 0x1065 JUMP JUMPDEST SWAP1 SWAP2 SSTORE POP SWAP2 SWAP8 SWAP7 POP POP POP POP POP POP POP JUMP JUMPDEST PUSH1 0x40 DUP1 MLOAD DUP1 DUP3 ADD SWAP1 SWAP2 MSTORE PUSH1 0x60 DUP2 MSTORE PUSH1 0x0 PUSH1 0x20 DUP3 ADD MSTORE PUSH2 0x656 DUP4 DUP5 PUSH1 0x0 ADD MLOAD MLOAD DUP5 PUSH2 0xB8E JUMP JUMPDEST PUSH1 0x40 DUP1 MLOAD DUP1 DUP3 ADD SWAP1 SWAP2 MSTORE PUSH1 0x60 DUP2 MSTORE PUSH1 0x0 PUSH1 0x20 DUP3 ADD MSTORE PUSH2 0x6CA DUP5 DUP6 PUSH1 0x0 ADD MLOAD MLOAD DUP6 DUP6 PUSH2 0xBEA JUMP JUMPDEST PUSH1 0x40 DUP1 MLOAD DUP1 DUP3 ADD SWAP1 SWAP2 MSTORE PUSH1 0x60 DUP2 MSTORE PUSH1 0x0 PUSH1 0x20 DUP3 ADD MSTORE DUP3 MLOAD DUP3 GT ISZERO PUSH2 0xAAC JUMPI PUSH1 0x0 DUP1 REVERT JUMPDEST PUSH1 0x20 DUP6 ADD MLOAD PUSH2 0xABB DUP4 DUP7 PUSH2 0x1065 JUMP JUMPDEST GT ISZERO PUSH2 0xAEE JUMPI PUSH2 0xAEE DUP6 PUSH2 0xADE DUP8 PUSH1 0x20 ADD MLOAD DUP8 DUP7 PUSH2 0xAD9 SWAP2 SWAP1 PUSH2 0x1065 JUMP JUMPDEST PUSH2 0xC6B JUMP JUMPDEST PUSH2 0xAE9 SWAP1 PUSH1 0x2 PUSH2 0x1168 JUMP JUMPDEST PUSH2 0xC82 JUMP JUMPDEST PUSH1 0x0 DUP1 DUP7 MLOAD DUP1 MLOAD DUP8 PUSH1 0x20 DUP4 ADD ADD SWAP4 POP DUP1 DUP9 DUP8 ADD GT ISZERO PUSH2 0xB0D JUMPI DUP8 DUP7 ADD DUP3 MSTORE JUMPDEST POP POP POP PUSH1 0x20 DUP5 ADD JUMPDEST PUSH1 0x20 DUP5 LT PUSH2 0xB4D JUMPI DUP1 MLOAD DUP3 MSTORE PUSH2 0xB2C PUSH1 0x20 DUP4 PUSH2 0x1065 JUMP JUMPDEST SWAP2 POP PUSH2 0xB39 PUSH1 0x20 DUP3 PUSH2 0x1065 JUMP JUMPDEST SWAP1 POP PUSH2 0xB46 PUSH1 0x20 DUP6 PUSH2 0x1187 JUMP JUMPDEST SWAP4 POP PUSH2 0xB15 JUMP JUMPDEST PUSH1 0x0 PUSH1 0x1 PUSH2 0xB5C DUP7 PUSH1 0x20 PUSH2 0x1187 JUMP JUMPDEST PUSH2 0xB68 SWAP1 PUSH2 0x100 PUSH2 0x10C0 JUMP JUMPDEST PUSH2 0xB72 SWAP2 SWAP1 PUSH2 0x1187 JUMP JUMPDEST SWAP2 MLOAD DUP4 MLOAD DUP4 AND SWAP3 NOT AND SWAP2 SWAP1 SWAP2 OR SWAP1 SWAP2 MSTORE POP DUP5 SWAP1 POP SWAP5 SWAP4 POP POP POP POP JUMP JUMPDEST PUSH1 0x40 DUP1 MLOAD DUP1 DUP3 ADD SWAP1 SWAP2 MSTORE PUSH1 0x60 DUP2 MSTORE PUSH1 0x0 PUSH1 0x20 DUP3 ADD MSTORE DUP4 PUSH1 0x20 ADD MLOAD DUP4 LT PUSH2 0xBC3 JUMPI PUSH2 0xBC3 DUP5 DUP6 PUSH1 0x20 ADD MLOAD PUSH1 0x2 PUSH2 0xAE9 SWAP2 SWAP1 PUSH2 0x1168 JUMP JUMPDEST DUP4 MLOAD DUP1 MLOAD PUSH1 0x20 DUP6 DUP4 ADD ADD DUP5 DUP2 MSTORE8 POP DUP1 DUP6 EQ ISZERO PUSH2 0xBE0 JUMPI PUSH1 0x1 DUP2 ADD DUP3 MSTORE JUMPDEST POP SWAP4 SWAP5 SWAP4 POP POP POP POP JUMP JUMPDEST PUSH1 0x40 DUP1 MLOAD DUP1 DUP3 ADD SWAP1 SWAP2 MSTORE PUSH1 0x60 DUP2 MSTORE PUSH1 0x0 PUSH1 0x20 DUP3 ADD MSTORE PUSH1 0x20 DUP6 ADD MLOAD PUSH2 0xC0E DUP6 DUP5 PUSH2 0x1065 JUMP JUMPDEST GT ISZERO PUSH2 0xC22 JUMPI PUSH2 0xC22 DUP6 PUSH2 0xADE DUP7 DUP6 PUSH2 0x1065 JUMP JUMPDEST PUSH1 0x0 PUSH1 0x1 PUSH2 0xC32 DUP5 PUSH2 0x100 PUSH2 0x10C0 JUMP JUMPDEST PUSH2 0xC3C SWAP2 SWAP1 PUSH2 0x1187 JUMP JUMPDEST SWAP1 POP DUP6 MLOAD DUP4 DUP7 DUP3 ADD ADD DUP6 DUP4 NOT DUP3 MLOAD AND OR DUP2 MSTORE POP DUP1 MLOAD DUP5 DUP8 ADD GT ISZERO PUSH2 0xC60 JUMPI DUP4 DUP7 ADD DUP2 MSTORE JUMPDEST POP SWAP5 SWAP6 SWAP5 POP POP POP POP POP JUMP JUMPDEST PUSH1 0x0 DUP2 DUP4 GT ISZERO PUSH2 0xC7C JUMPI POP DUP2 PUSH2 0x659 JUMP JUMPDEST POP SWAP2 SWAP1 POP JUMP JUMPDEST DUP2 MLOAD PUSH2 0xC8E DUP4 DUP4 PUSH2 0x6D2 JUMP JUMPDEST POP PUSH2 0x752 DUP4 DUP3 PUSH2 0x80B JUMP JUMPDEST DUP3 DUP1 SLOAD PUSH2 0xCA5 SWAP1 PUSH2 0x119E JUMP JUMPDEST SWAP1 PUSH1 0x0 MSTORE PUSH1 0x20 PUSH1 0x0 KECCAK256 SWAP1 PUSH1 0x1F ADD PUSH1 0x20 SWAP1 DIV DUP2 ADD SWAP3 DUP3 PUSH2 0xCC7 JUMPI PUSH1 0x0 DUP6 SSTORE PUSH2 0xD0D JUMP JUMPDEST DUP3 PUSH1 0x1F LT PUSH2 0xCE0 JUMPI DUP1 MLOAD PUSH1 0xFF NOT AND DUP4 DUP1 ADD OR DUP6 SSTORE PUSH2 0xD0D JUMP JUMPDEST DUP3 DUP1 ADD PUSH1 0x1 ADD DUP6 SSTORE DUP3 ISZERO PUSH2 0xD0D JUMPI SWAP2 DUP3 ADD JUMPDEST DUP3 DUP2 GT ISZERO PUSH2 0xD0D JUMPI DUP3 MLOAD DUP3 SSTORE SWAP2 PUSH1 0x20 ADD SWAP2 SWAP1 PUSH1 0x1 ADD SWAP1 PUSH2 0xCF2 JUMP JUMPDEST POP PUSH2 0xD19 SWAP3 SWAP2 POP PUSH2 0xDD3 JUMP JUMPDEST POP SWAP1 JUMP JUMPDEST DUP3 DUP1 SLOAD PUSH2 0xD29 SWAP1 PUSH2 0x119E JUMP JUMPDEST SWAP1 PUSH1 0x0 MSTORE PUSH1 0x20 PUSH1 0x0 KECCAK256 SWAP1 PUSH1 0x1F ADD PUSH1 0x20 SWAP1 DIV DUP2 ADD SWAP3 DUP3 PUSH2 0xD4B JUMPI PUSH1 0x0 DUP6 SSTORE PUSH2 0xD0D JUMP JUMPDEST DUP3 PUSH1 0x1F LT PUSH2 0xD5C JUMPI DUP1 SLOAD DUP6 SSTORE PUSH2 0xD0D JUMP JUMPDEST DUP3 DUP1 ADD PUSH1 0x1 ADD DUP6 SSTORE DUP3 ISZERO PUSH2 0xD0D JUMPI PUSH1 0x0 MSTORE PUSH1 0x20 PUSH1 0x0 KECCAK256 SWAP2 PUSH1 0x1F ADD PUSH1 0x20 SWAP1 DIV DUP3 ADD JUMPDEST DUP3 DUP2 GT ISZERO PUSH2 0xD0D JUMPI DUP3 SLOAD DUP3 SSTORE SWAP2 PUSH1 0x1 ADD SWAP2 SWAP1 PUSH1 0x1 ADD SWAP1 PUSH2 0xD7D JUMP JUMPDEST PUSH1 0x40 DUP1 MLOAD PUSH1 0xA0 DUP2 ADD DUP3 MSTORE PUSH1 0x0 DUP1 DUP3 MSTORE PUSH1 0x20 DUP1 DUP4 ADD DUP3 SWAP1 MSTORE DUP3 DUP5 ADD DUP3 SWAP1 MSTORE PUSH1 0x60 DUP1 DUP5 ADD DUP4 SWAP1 MSTORE DUP5 MLOAD DUP1 DUP7 ADD SWAP1 SWAP6 MSTORE DUP5 MSTORE DUP4 ADD MSTORE SWAP1 PUSH1 0x80 DUP3 ADD MSTORE SWAP1 JUMP JUMPDEST JUMPDEST DUP1 DUP3 GT ISZERO PUSH2 0xD19 JUMPI PUSH1 0x0 DUP2 SSTORE PUSH1 0x1 ADD PUSH2 0xDD4 JUMP JUMPDEST PUSH1 0x0 PUSH8 0xFFFFFFFFFFFFFFFF DUP1 DUP5 GT ISZERO PUSH2 0xE03 JUMPI PUSH2 0xE03 PUSH2 0x120B JUMP JUMPDEST PUSH1 0x40 MLOAD PUSH1 0x1F DUP6 ADD PUSH1 0x1F NOT SWAP1 DUP2 AND PUSH1 0x3F ADD AND DUP2 ADD SWAP1 DUP3 DUP3 GT DUP2 DUP4 LT OR ISZERO PUSH2 0xE2B JUMPI PUSH2 0xE2B PUSH2 0x120B JUMP JUMPDEST DUP2 PUSH1 0x40 MSTORE DUP1 SWAP4 POP DUP6 DUP2 MSTORE DUP7 DUP7 DUP7 ADD GT ISZERO PUSH2 0xE44 JUMPI PUSH1 0x0 DUP1 REVERT JUMPDEST DUP6 DUP6 PUSH1 0x20 DUP4 ADD CALLDATACOPY PUSH1 0x0 PUSH1 0x20 DUP8 DUP4 ADD ADD MSTORE POP POP POP SWAP4 SWAP3 POP POP POP JUMP JUMPDEST PUSH1 0x0 DUP3 PUSH1 0x1F DUP4 ADD SLT PUSH2 0xE6F JUMPI PUSH1 0x0 DUP1 REVERT JUMPDEST PUSH2 0x656 DUP4 DUP4 CALLDATALOAD PUSH1 0x20 DUP6 ADD PUSH2 0xDE8 JUMP JUMPDEST PUSH1 0x0 PUSH1 0x20 DUP3 DUP5 SUB SLT ISZERO PUSH2 0xE90 JUMPI PUSH1 0x0 DUP1 REVERT JUMPDEST DUP2 MLOAD DUP1 ISZERO ISZERO DUP2 EQ PUSH2 0xEA0 JUMPI PUSH1 0x0 DUP1 REVERT JUMPDEST SWAP4 SWAP3 POP POP POP JUMP JUMPDEST PUSH1 0x0 DUP1 PUSH1 0x0 PUSH1 0x60 DUP5 DUP7 SUB SLT ISZERO PUSH2 0xEBC JUMPI PUSH1 0x0 DUP1 REVERT JUMPDEST DUP4 CALLDATALOAD SWAP3 POP PUSH1 0x20 DUP5 ADD CALLDATALOAD PUSH8 0xFFFFFFFFFFFFFFFF DUP1 DUP3 GT ISZERO PUSH2 0xEDB JUMPI PUSH1 0x0 DUP1 REVERT JUMPDEST PUSH2 0xEE7 DUP8 DUP4 DUP9 ADD PUSH2 0xE5E JUMP JUMPDEST SWAP4 POP PUSH1 0x40 DUP7 ADD CALLDATALOAD SWAP2 POP DUP1 DUP3 GT ISZERO PUSH2 0xEFD JUMPI PUSH1 0x0 DUP1 REVERT JUMPDEST POP PUSH2 0xF0A DUP7 DUP3 DUP8 ADD PUSH2 0xE5E JUMP JUMPDEST SWAP2 POP POP SWAP3 POP SWAP3 POP SWAP3 JUMP JUMPDEST PUSH1 0x0 PUSH1 0x20 DUP3 DUP5 SUB SLT ISZERO PUSH2 0xF26 JUMPI PUSH1 0x0 DUP1 REVERT JUMPDEST DUP2 CALLDATALOAD PUSH8 0xFFFFFFFFFFFFFFFF DUP2 GT ISZERO PUSH2 0xF3D JUMPI PUSH1 0x0 DUP1 REVERT JUMPDEST DUP3 ADD PUSH1 0x1F DUP2 ADD DUP5 SGT PUSH2 0xF4E JUMPI PUSH1 0x0 DUP1 REVERT JUMPDEST PUSH2 0x6CA DUP5 DUP3 CALLDATALOAD PUSH1 0x20 DUP5 ADD PUSH2 0xDE8 JUMP JUMPDEST PUSH1 0x0 PUSH1 0x20 DUP3 DUP5 SUB SLT ISZERO PUSH2 0xF6F JUMPI PUSH1 0x0 DUP1 REVERT JUMPDEST POP MLOAD SWAP2 SWAP1 POP JUMP JUMPDEST PUSH1 0x0 DUP2 MLOAD DUP1 DUP5 MSTORE PUSH1 0x0 JUMPDEST DUP2 DUP2 LT ISZERO PUSH2 0xF9C JUMPI PUSH1 0x20 DUP2 DUP6 ADD DUP2 ADD MLOAD DUP7 DUP4 ADD DUP3 ADD MSTORE ADD PUSH2 0xF80 JUMP JUMPDEST DUP2 DUP2 GT ISZERO PUSH2 0xFAE JUMPI PUSH1 0x0 PUSH1 0x20 DUP4 DUP8 ADD ADD MSTORE JUMPDEST POP PUSH1 0x1F ADD PUSH1 0x1F NOT AND SWAP3 SWAP1 SWAP3 ADD PUSH1 0x20 ADD SWAP3 SWAP2 POP POP JUMP JUMPDEST PUSH1 0x1 PUSH1 0x1 PUSH1 0xA0 SHL SUB DUP10 DUP2 AND DUP3 MSTORE PUSH1 0x20 DUP3 ADD DUP10 SWAP1 MSTORE PUSH1 0x40 DUP3 ADD DUP9 SWAP1 MSTORE DUP7 AND PUSH1 0x60 DUP3 ADD MSTORE PUSH1 0x1 PUSH1 0x1 PUSH1 0xE0 SHL SUB NOT DUP6 AND PUSH1 0x80 DUP3 ADD MSTORE PUSH1 0xA0 DUP2 ADD DUP5 SWAP1 MSTORE PUSH1 0xC0 DUP2 ADD DUP4 SWAP1 MSTORE PUSH2 0x100 PUSH1 0xE0 DUP3 ADD DUP2 SWAP1 MSTORE PUSH1 0x0 SWAP1 PUSH2 0x101C DUP4 DUP3 ADD DUP6 PUSH2 0xF76 JUMP JUMPDEST SWAP12 SWAP11 POP POP POP POP POP POP POP POP POP POP POP JUMP JUMPDEST PUSH1 0x1 DUP1 PUSH1 0xA0 SHL SUB DUP5 AND DUP2 MSTORE DUP3 PUSH1 0x20 DUP3 ADD MSTORE PUSH1 0x60 PUSH1 0x40 DUP3 ADD MSTORE PUSH1 0x0 PUSH2 0x610 PUSH1 0x60 DUP4 ADD DUP5 PUSH2 0xF76 JUMP JUMPDEST PUSH1 0x20 DUP2 MSTORE PUSH1 0x0 PUSH2 0x656 PUSH1 0x20 DUP4 ADD DUP5 PUSH2 0xF76 JUMP JUMPDEST PUSH1 0x0 DUP3 NOT DUP3 GT ISZERO PUSH2 0x1078 JUMPI PUSH2 0x1078 PUSH2 0x11F5 JUMP JUMPDEST POP ADD SWAP1 JUMP JUMPDEST PUSH1 0x1 DUP2 DUP2 JUMPDEST DUP1 DUP6 GT ISZERO PUSH2 0x10B8 JUMPI DUP2 PUSH1 0x0 NOT DIV DUP3 GT ISZERO PUSH2 0x109E JUMPI PUSH2 0x109E PUSH2 0x11F5 JUMP JUMPDEST DUP1 DUP6 AND ISZERO PUSH2 0x10AB JUMPI SWAP2 DUP2 MUL SWAP2 JUMPDEST SWAP4 DUP5 SHR SWAP4 SWAP1 DUP1 MUL SWAP1 PUSH2 0x1082 JUMP JUMPDEST POP SWAP3 POP SWAP3 SWAP1 POP JUMP JUMPDEST PUSH1 0x0 PUSH2 0x656 DUP4 DUP4 PUSH1 0x0 DUP3 PUSH2 0x10D6 JUMPI POP PUSH1 0x1 PUSH2 0x659 JUMP JUMPDEST DUP2 PUSH2 0x10E3 JUMPI POP PUSH1 0x0 PUSH2 0x659 JUMP JUMPDEST DUP2 PUSH1 0x1 DUP2 EQ PUSH2 0x10F9 JUMPI PUSH1 0x2 DUP2 EQ PUSH2 0x1103 JUMPI PUSH2 0x111F JUMP JUMPDEST PUSH1 0x1 SWAP2 POP POP PUSH2 0x659 JUMP JUMPDEST PUSH1 0xFF DUP5 GT ISZERO PUSH2 0x1114 JUMPI PUSH2 0x1114 PUSH2 0x11F5 JUMP JUMPDEST POP POP PUSH1 0x1 DUP3 SHL PUSH2 0x659 JUMP JUMPDEST POP PUSH1 0x20 DUP4 LT PUSH2 0x133 DUP4 LT AND PUSH1 0x4E DUP5 LT PUSH1 0xB DUP5 LT AND OR ISZERO PUSH2 0x1142 JUMPI POP DUP2 DUP2 EXP PUSH2 0x659 JUMP JUMPDEST PUSH2 0x114C DUP4 DUP4 PUSH2 0x107D JUMP JUMPDEST DUP1 PUSH1 0x0 NOT DIV DUP3 GT ISZERO PUSH2 0x1160 JUMPI PUSH2 0x1160 PUSH2 0x11F5 JUMP JUMPDEST MUL SWAP4 SWAP3 POP POP POP JUMP JUMPDEST PUSH1 0x0 DUP2 PUSH1 0x0 NOT DIV DUP4 GT DUP3 ISZERO ISZERO AND ISZERO PUSH2 0x1182 JUMPI PUSH2 0x1182 PUSH2 0x11F5 JUMP JUMPDEST POP MUL SWAP1 JUMP JUMPDEST PUSH1 0x0 DUP3 DUP3 LT ISZERO PUSH2 0x1199 JUMPI PUSH2 0x1199 PUSH2 0x11F5 JUMP JUMPDEST POP SUB SWAP1 JUMP JUMPDEST PUSH1 0x1 DUP2 DUP2 SHR SWAP1 DUP3 AND DUP1 PUSH2 0x11B2 JUMPI PUSH1 0x7F DUP3 AND SWAP2 POP JUMPDEST PUSH1 0x20 DUP3 LT DUP2 EQ ISZERO PUSH2 0xC7C JUMPI PUSH4 0x4E487B71 PUSH1 0xE0 SHL PUSH1 0x0 MSTORE PUSH1 0x22 PUSH1 0x4 MSTORE PUSH1 0x24 PUSH1 0x0 REVERT JUMPDEST PUSH1 0x0 DUP3 PUSH2 0x11F0 JUMPI PUSH4 0x4E487B71 PUSH1 0xE0 SHL PUSH1 0x0 MSTORE PUSH1 0x12 PUSH1 0x4 MSTORE PUSH1 0x24 PUSH1 0x0 REVERT JUMPDEST POP MOD SWAP1 JUMP JUMPDEST PUSH4 0x4E487B71 PUSH1 0xE0 SHL PUSH1 0x0 MSTORE PUSH1 0x11 PUSH1 0x4 MSTORE PUSH1 0x24 PUSH1 0x0 REVERT JUMPDEST PUSH4 0x4E487B71 PUSH1 0xE0 SHL PUSH1 0x0 MSTORE PUSH1 0x41 PUSH1 0x4 MSTORE PUSH1 0x24 PUSH1 0x0 REVERT INVALID LOG2 PUSH5 0x6970667358 0x22 SLT KECCAK256 0xA8 TIMESTAMP 0x4D 0xDA 0xE0 0x28 PUSH28 0x1C5282AC9135891364ABE0B37CE1DC58696A6A80273809993C64736F PUSH13 0x63430008070033000000000000 ","sha1":"0f0c3983c0f8da642eb6003cdadcdd59fa7ec96e","source":"//SPDX-License-Identifier: MIT\npragma solidity ^0.8.0;\n\nimport \"@chainlink/contracts/src/v0.8/ChainlinkClient.sol\";\nimport \"../interfaces/IERC20.sol\";\n\ncontract Consumer is ChainlinkClient {\n  using Chainlink for Chainlink.Request;\n\n  bytes public data;\n  bytes public data2;\n  string public response;\n  string public response2;\n  uint public fee = 1000;\n\n  struct ItemSet {\n    string[] weapons;\n    string[] armor;\n  }\n  mapping (address => ItemSet) userToItems;\n\n  constructor(\n  ) {\n    setChainlinkToken(0xa36085F69e2889c224210F603D836748e7dC0088);\n    setChainlinkOracle(0x45Fd8dF7E9348b14AfC145599F719DbE27977Fd9);\n    \n  }\n\n  function requestBytes(string memory _prompt\n  )\n    public\n  {\n    // require(msg.value >= fee, \"Include fee in transaction\");\n    bytes32 specId = \"b61b4d719ab04199882c6a8ac3c51861\";\n    uint256 payment = 100000000000000;\n    require(IERC20(0xa36085F69e2889c224210F603D836748e7dC0088).balanceOf(address(this)) >= payment, \"Not enough link\");\n    Chainlink.Request memory req = buildChainlinkRequest(specId, address(this), this.fulfillBytes.selector);\n    req.add(\"prompt\", _prompt);\n    requestOracleData(req, payment);\n    \n  }\n\n  event RequestFulfilled(\n    bytes32 indexed requestId,\n    bytes indexed data\n  );\n\n  event doSomethingPLEASE();\n\n  \n  function fulfillBytes(\n    bytes32 requestId,\n    bytes memory bytesData,\n    bytes memory bytesData2\n  )\n    public\n    recordChainlinkFulfillment(requestId)\n  {\n    emit doSomethingPLEASE();\n    data = bytesData;\n    data2 = bytesData2;\n    response = string(data);\n    response2 = string(data2);\n    emit doSomethingPLEASE();\n  }\n \n  \n  function withdrawLink() public {\n    uint256 bal = IERC20(0xa36085F69e2889c224210F603D836748e7dC0088).balanceOf(address(this));\n    IERC20(0xa36085F69e2889c224210F603D836748e7dC0088).transfer(msg.sender, bal);\n  }\n  \n  receive() external payable {}\n\n}\n","sourcePath":"contracts/Consumer.sol","deployment":{"address":"0x08F7d56B359a000d1FC4CCF988fb3C9F19336A5a","chainid":"42","blockHeight":27423567}}