{"bytecode":"608060405260016004556103e8600955655af3107a4000600d557f6236316234643731396162303431393938383263366138616333633531383631600e5534801561004957600080fd5b50600280546001600160a01b03191673a36085f69e2889c224210f603d836748e7dc0088179055600380546001600160a01b0319167345fd8df7e9348b14afc145599f719dbe27977fd91790556115ff806100a56000396000f3fe6080604052600436106100955760003560e01c8063b7e1cd8611610059578063b7e1cd8614610176578063caedd3141461018b578063ddca3f43146101ab578063dec104d9146101cf578063f5094c9d146101ef57600080fd5b8063510a4972146100a157806360f6998b146100da5780638dc654a2146100fc578063a9aa558414610113578063aacbd09e1461012857600080fd5b3661009c57005b600080fd5b3480156100ad57600080fd5b506100c16100bc366004611199565b61020f565b6040516100d19493929190611395565b60405180910390f35b3480156100e657600080fd5b506100ef610457565b6040516100d19190611382565b34801561010857600080fd5b506101116104e5565b005b34801561011f57600080fd5b506100ef6105fc565b34801561013457600080fd5b5061015e610143366004611199565b600a602052600090815260409020546001600160a01b031681565b6040516001600160a01b0390911681526020016100d1565b34801561018257600080fd5b506100ef610609565b34801561019757600080fd5b506100c16101a6366004611147565b610616565b3480156101b757600080fd5b506101c160095481565b6040519081526020016100d1565b3480156101db57600080fd5b506101116101ea3660046111b2565b610631565b3480156101fb57600080fd5b506101c161020a366004611244565b6108bc565b600b6020526000908152604090208054819061022a90611526565b80601f016020809104026020016040519081016040528092919081815260200182805461025690611526565b80156102a35780601f10610278576101008083540402835291602001916102a3565b820191906000526020600020905b81548152906001019060200180831161028657829003601f168201915b5050505050908060010180546102b890611526565b80601f01602080910402602001604051908101604052809291908181526020018280546102e490611526565b80156103315780601f1061030657610100808354040283529160200191610331565b820191906000526020600020905b81548152906001019060200180831161031457829003601f168201915b50505050509080600201805461034690611526565b80601f016020809104026020016040519081016040528092919081815260200182805461037290611526565b80156103bf5780601f10610394576101008083540402835291602001916103bf565b820191906000526020600020905b8154815290600101906020018083116103a257829003601f168201915b5050505050908060030180546103d490611526565b80601f016020809104026020016040519081016040528092919081815260200182805461040090611526565b801561044d5780601f106104225761010080835404028352916020019161044d565b820191906000526020600020905b81548152906001019060200180831161043057829003601f168201915b5050505050905084565b6007805461046490611526565b80601f016020809104026020016040519081016040528092919081815260200182805461049090611526565b80156104dd5780601f106104b2576101008083540402835291602001916104dd565b820191906000526020600020905b8154815290600101906020018083116104c057829003601f168201915b505050505081565b6040516370a0823160e01b815230600482015260009073a36085f69e2889c224210f603d836748e7dc0088906370a082319060240160206040518083038186803b15801561053257600080fd5b505afa158015610546573d6000803e3d6000fd5b505050506040513d601f19601f8201168201806040525081019061056a919061128d565b60405163a9059cbb60e01b81523360048201526024810182905290915073a36085f69e2889c224210f603d836748e7dc00889063a9059cbb90604401602060405180830381600087803b1580156105c057600080fd5b505af11580156105d4573d6000803e3d6000fd5b505050506040513d601f19601f820116820180604052508101906105f89190611177565b5050565b6008805461046490611526565b6006805461046490611526565b600c6020526000908152604090208054819061022a90611526565b60008481526005602052604090205484906001600160a01b031633146106af5760405162461bcd60e51b815260206004820152602860248201527f536f75726365206d75737420626520746865206f7261636c65206f6620746865604482015267081c995c5d595cdd60c21b60648201526084015b60405180910390fd5b60008181526005602052604080822080546001600160a01b03191690555182917f7cc135e0cebb02c3480ae5d74d377283180a2601f8f644edf7987b009316c63a91a26040518581526000805160206115aa8339815191529060200160405180910390a18351610726906006906020870190610fdd565b50825161073a906007906020860190610fdd565b50815161074e906008906020850190610fdd565b506040518581526000805160206115aa8339815191529060200160405180910390a161079b6040518060800160405280606081526020016060815260200160608152602001606081525090565b60408051602081018252600081528252516000805160206115aa833981519152906107c99088815260200190565b60405180910390a160208082018690526040808301869052606083018590526000888152600a8352818120546001600160a01b0316808252600c8452919020835180519293859361081d9284920190610fdd565b5060208281015180516108369260018501920190610fdd565b5060408201518051610852916002840191602090910190610fdd565b506060820151805161086e916003840191602090910190610fdd565b50506040518881526000805160206115aa833981519152915060200160405180910390a16040518781526000805160206115aa8339815191529060200160405180910390a150505050505050565b6000806108d3600e543063dec104d960e01b61090e565b6040805180820190915260068152651c1c9bdb5c1d60d21b60208201529091506108ff90829085610933565b61090881610956565b50919050565b610916611061565b61091e611061565b61092a81868686610986565b95945050505050565b608083015161094290836109c3565b608083015161095190826109c3565b505050565b600061096482600d546109da565b6000908152600a6020526040902080546001600160a01b031916331790555050565b61098e611061565b61099e85608001516101006109fd565b50509183526001600160a01b031660208301526001600160e01b031916604082015290565b6109d08260038351610a62565b6109518282610b36565b6003546000906109f4906001600160a01b03168484610b5d565b90505b92915050565b604080518082019091526060815260006020820152610a1d60208361155b565b15610a4557610a2d60208361155b565b610a3890602061150f565b610a4290836113ed565b91505b506020828101829052604080518085526000815290920101905290565b60178111610a8357610a7d8360e0600585901b168317610b7c565b50505050565b60ff8111610aad57610aa0836018611fe0600586901b1617610b7c565b50610a7d83826001610ba1565b61ffff8111610ad857610acb836019611fe0600586901b1617610b7c565b50610a7d83826002610ba1565b63ffffffff8111610b0557610af883601a611fe0600586901b1617610b7c565b50610a7d83826004610ba1565b67ffffffffffffffff811161095157610b2983601b611fe0600586901b1617610b7c565b50610a7d83826008610ba1565b6040805180820190915260608152600060208201526109f483846000015151848551610bc7565b6000610b7484848460026336f43ceb60e11b610ccc565b949350505050565b6040805180820190915260608152600060208201526109f48384600001515184610ed8565b604080518082019091526060815260006020820152610b74848560000151518585610f34565b6040805180820190915260608152600060208201528251821115610bea57600080fd5b6020850151610bf983866113ed565b1115610c2c57610c2c85610c1c87602001518786610c1791906113ed565b610fb5565b610c279060026114f0565b610fc6565b600080865180518760208301019350808887011115610c4b5787860182525b505050602084015b60208410610c8b5780518252610c6a6020836113ed565b9150610c776020826113ed565b9050610c8460208561150f565b9350610c53565b60006001610c9a86602061150f565b610ca690610100611448565b610cb0919061150f565b9151835183169219169190911790915250849050949350505050565b6004546040516bffffffffffffffffffffffff193060601b166020820152603481019190915260009060540160408051808303601f19018152918152815160209283012060045460608901526000818152600590935281832080546001600160a01b0319166001600160a01b038b16179055905190925082917fb5e6e01e79f91267dc17b4e6314d5d4d03593d2ceee0fbb452b750bd70ea5af991a2600082600080886000015189602001518a604001518b606001518a8d6080015160000151604051602401610da39897969594939291906112f3565b60408051601f198184030181529181526020820180516001600160e01b03166001600160e01b0319909416939093179092526002549151630200057560e51b81529092506001600160a01b0390911690634000aea090610e0b908a908990869060040161135b565b602060405180830381600087803b158015610e2557600080fd5b505af1158015610e39573d6000803e3d6000fd5b505050506040513d601f19601f82011682018060405250810190610e5d9190611177565b610eb55760405162461bcd60e51b815260206004820152602360248201527f756e61626c6520746f207472616e73666572416e6443616c6c20746f206f7261604482015262636c6560e81b60648201526084016106a6565b600160046000828254610ec891906113ed565b9091555091979650505050505050565b60408051808201909152606081526000602082015283602001518310610f0d57610f0d8485602001516002610c2791906114f0565b835180516020858301018481535080851415610f2a576001810182525b5093949350505050565b6040805180820190915260608152600060208201526020850151610f5885846113ed565b1115610f6c57610f6c85610c1c86856113ed565b60006001610f7c84610100611448565b610f86919061150f565b9050855183868201018583198251161781525080518487011115610faa5783860181525b509495945050505050565b6000818311156109085750816109f7565b8151610fd283836109fd565b50610a7d8382610b36565b828054610fe990611526565b90600052602060002090601f01602090048101928261100b5760008555611051565b82601f1061102457805160ff1916838001178555611051565b82800160010185558215611051579182015b82811115611051578251825591602001919060010190611036565b5061105d92915061109c565b5090565b6040805160a0810182526000808252602080830182905282840182905260608084018390528451808601909552845283015290608082015290565b5b8082111561105d576000815560010161109d565b600067ffffffffffffffff808411156110cc576110cc611593565b604051601f8501601f19908116603f011681019082821181831017156110f4576110f4611593565b8160405280935085815286868601111561110d57600080fd5b858560208301376000602087830101525050509392505050565b600082601f83011261113857600080fd5b6109f4838335602085016110b1565b60006020828403121561115957600080fd5b81356001600160a01b038116811461117057600080fd5b9392505050565b60006020828403121561118957600080fd5b8151801515811461117057600080fd5b6000602082840312156111ab57600080fd5b5035919050565b600080600080608085870312156111c857600080fd5b84359350602085013567ffffffffffffffff808211156111e757600080fd5b6111f388838901611127565b9450604087013591508082111561120957600080fd5b61121588838901611127565b9350606087013591508082111561122b57600080fd5b5061123887828801611127565b91505092959194509250565b60006020828403121561125657600080fd5b813567ffffffffffffffff81111561126d57600080fd5b8201601f8101841361127e57600080fd5b610b74848235602084016110b1565b60006020828403121561129f57600080fd5b5051919050565b6000815180845260005b818110156112cc576020818501810151868301820152016112b0565b818111156112de576000602083870101525b50601f01601f19169290920160200192915050565b6001600160a01b0389811682526020820189905260408201889052861660608201526001600160e01b03198516608082015260a0810184905260c0810183905261010060e0820181905260009061134c838201856112a6565b9b9a5050505050505050505050565b60018060a01b038416815282602082015260606040820152600061092a60608301846112a6565b6020815260006109f460208301846112a6565b6080815260006113a860808301876112a6565b82810360208401526113ba81876112a6565b905082810360408401526113ce81866112a6565b905082810360608401526113e281856112a6565b979650505050505050565b600082198211156114005761140061157d565b500190565b600181815b808511156114405781600019048211156114265761142661157d565b8085161561143357918102915b93841c939080029061140a565b509250929050565b60006109f4838360008261145e575060016109f7565b8161146b575060006109f7565b8160018114611481576002811461148b576114a7565b60019150506109f7565b60ff84111561149c5761149c61157d565b50506001821b6109f7565b5060208310610133831016604e8410600b84101617156114ca575081810a6109f7565b6114d48383611405565b80600019048211156114e8576114e861157d565b029392505050565b600081600019048311821515161561150a5761150a61157d565b500290565b6000828210156115215761152161157d565b500390565b600181811c9082168061153a57607f821691505b6020821081141561090857634e487b7160e01b600052602260045260246000fd5b60008261157857634e487b7160e01b600052601260045260246000fd5b500690565b634e487b7160e01b600052601160045260246000fd5b634e487b7160e01b600052604160045260246000fdfe54836a2905a4c5bcfba367bf7fb2aa840da1503609eb6120754142dc098a16b3a264697066735822122085d9dcde97c2a2608e3bfd7a1422b9d727c32d88181aaa7e7b8bb2df2a4f184664736f6c63430008070033","bytecodeSha1":"af4629eaf50d40b9090564a9dd555bef7a4f1ca2","type":"contract","abi":[{"inputs":[],"stateMutability":"nonpayable","type":"constructor","name":"constructor"},{"anonymous":false,"inputs":[{"indexed":true,"internalType":"bytes32","name":"id","type":"bytes32"}],"name":"ChainlinkCancelled","type":"event"},{"anonymous":false,"inputs":[{"indexed":true,"internalType":"bytes32","name":"id","type":"bytes32"}],"name":"ChainlinkFulfilled","type":"event"},{"anonymous":false,"inputs":[{"indexed":true,"internalType":"bytes32","name":"id","type":"bytes32"}],"name":"ChainlinkRequested","type":"event"},{"anonymous":false,"inputs":[{"indexed":false,"internalType":"bytes32","name":"Id","type":"bytes32"}],"name":"doSomethingPLEASE","type":"event"},{"inputs":[{"internalType":"bytes32","name":"requestId","type":"bytes32"},{"internalType":"bytes","name":"_weapons","type":"bytes"},{"internalType":"bytes","name":"_attire","type":"bytes"},{"internalType":"bytes","name":"_accessories","type":"bytes"}],"name":"DOSOMETHINGHOLYFUCK","outputs":[],"stateMutability":"nonpayable","type":"function"},{"inputs":[],"name":"accessories","outputs":[{"internalType":"string","name":"","type":"string"}],"stateMutability":"view","type":"function"},{"inputs":[],"name":"attire","outputs":[{"internalType":"string","name":"","type":"string"}],"stateMutability":"view","type":"function"},{"inputs":[],"name":"fee","outputs":[{"internalType":"uint256","name":"","type":"uint256"}],"stateMutability":"view","type":"function"},{"inputs":[{"internalType":"bytes32","name":"","type":"bytes32"}],"name":"idToItemSet","outputs":[{"internalType":"string","name":"theme","type":"string"},{"internalType":"string","name":"weapons","type":"string"},{"internalType":"string","name":"armor","type":"string"},{"internalType":"string","name":"accessories","type":"string"}],"stateMutability":"view","type":"function"},{"inputs":[{"internalType":"bytes32","name":"","type":"bytes32"}],"name":"idToUser","outputs":[{"internalType":"address","name":"","type":"address"}],"stateMutability":"view","type":"function"},{"inputs":[{"internalType":"string","name":"_prompt","type":"string"}],"name":"requestBytes","outputs":[{"internalType":"bytes32","name":"","type":"bytes32"}],"stateMutability":"nonpayable","type":"function"},{"inputs":[{"internalType":"address","name":"","type":"address"}],"name":"userToItems","outputs":[{"internalType":"string","name":"theme","type":"string"},{"internalType":"string","name":"weapons","type":"string"},{"internalType":"string","name":"armor","type":"string"},{"internalType":"string","name":"accessories","type":"string"}],"stateMutability":"view","type":"function"},{"inputs":[],"name":"weapons","outputs":[{"internalType":"string","name":"","type":"string"}],"stateMutability":"view","type":"function"},{"inputs":[],"name":"withdrawLink","outputs":[],"stateMutability":"nonpayable","type":"function"},{"stateMutability":"payable","type":"receive"}],"compiler":{"version":"0.8.7+commit.e28d00a7","evm_version":"istanbul","optimizer":{"enabled":true,"runs":200}},"contractName":"Consumer","language":"Solidity","natspec":{"methods":{},"kind":"dev","version":1},"opcodes":"PUSH1 0x80 PUSH1 0x40 MSTORE PUSH1 0x4 CALLDATASIZE LT PUSH2 0x95 JUMPI PUSH1 0x0 CALLDATALOAD PUSH1 0xE0 SHR DUP1 PUSH4 0xB7E1CD86 GT PUSH2 0x59 JUMPI DUP1 PUSH4 0xB7E1CD86 EQ PUSH2 0x176 JUMPI DUP1 PUSH4 0xCAEDD314 EQ PUSH2 0x18B JUMPI DUP1 PUSH4 0xDDCA3F43 EQ PUSH2 0x1AB JUMPI DUP1 PUSH4 0xDEC104D9 EQ PUSH2 0x1CF JUMPI DUP1 PUSH4 0xF5094C9D EQ PUSH2 0x1EF JUMPI PUSH1 0x0 DUP1 REVERT JUMPDEST DUP1 PUSH4 0x510A4972 EQ PUSH2 0xA1 JUMPI DUP1 PUSH4 0x60F6998B EQ PUSH2 0xDA JUMPI DUP1 PUSH4 0x8DC654A2 EQ PUSH2 0xFC JUMPI DUP1 PUSH4 0xA9AA5584 EQ PUSH2 0x113 JUMPI DUP1 PUSH4 0xAACBD09E EQ PUSH2 0x128 JUMPI PUSH1 0x0 DUP1 REVERT JUMPDEST CALLDATASIZE PUSH2 0x9C JUMPI STOP JUMPDEST PUSH1 0x0 DUP1 REVERT JUMPDEST CALLVALUE DUP1 ISZERO PUSH2 0xAD JUMPI PUSH1 0x0 DUP1 REVERT JUMPDEST POP PUSH2 0xC1 PUSH2 0xBC CALLDATASIZE PUSH1 0x4 PUSH2 0x1199 JUMP JUMPDEST PUSH2 0x20F JUMP JUMPDEST PUSH1 0x40 MLOAD PUSH2 0xD1 SWAP5 SWAP4 SWAP3 SWAP2 SWAP1 PUSH2 0x1395 JUMP JUMPDEST PUSH1 0x40 MLOAD DUP1 SWAP2 SUB SWAP1 RETURN JUMPDEST CALLVALUE DUP1 ISZERO PUSH2 0xE6 JUMPI PUSH1 0x0 DUP1 REVERT JUMPDEST POP PUSH2 0xEF PUSH2 0x457 JUMP JUMPDEST PUSH1 0x40 MLOAD PUSH2 0xD1 SWAP2 SWAP1 PUSH2 0x1382 JUMP JUMPDEST CALLVALUE DUP1 ISZERO PUSH2 0x108 JUMPI PUSH1 0x0 DUP1 REVERT JUMPDEST POP PUSH2 0x111 PUSH2 0x4E5 JUMP JUMPDEST STOP JUMPDEST CALLVALUE DUP1 ISZERO PUSH2 0x11F JUMPI PUSH1 0x0 DUP1 REVERT JUMPDEST POP PUSH2 0xEF PUSH2 0x5FC JUMP JUMPDEST CALLVALUE DUP1 ISZERO PUSH2 0x134 JUMPI PUSH1 0x0 DUP1 REVERT JUMPDEST POP PUSH2 0x15E PUSH2 0x143 CALLDATASIZE PUSH1 0x4 PUSH2 0x1199 JUMP JUMPDEST PUSH1 0xA PUSH1 0x20 MSTORE PUSH1 0x0 SWAP1 DUP2 MSTORE PUSH1 0x40 SWAP1 KECCAK256 SLOAD PUSH1 0x1 PUSH1 0x1 PUSH1 0xA0 SHL SUB AND DUP2 JUMP JUMPDEST PUSH1 0x40 MLOAD PUSH1 0x1 PUSH1 0x1 PUSH1 0xA0 SHL SUB SWAP1 SWAP2 AND DUP2 MSTORE PUSH1 0x20 ADD PUSH2 0xD1 JUMP JUMPDEST CALLVALUE DUP1 ISZERO PUSH2 0x182 JUMPI PUSH1 0x0 DUP1 REVERT JUMPDEST POP PUSH2 0xEF PUSH2 0x609 JUMP JUMPDEST CALLVALUE DUP1 ISZERO PUSH2 0x197 JUMPI PUSH1 0x0 DUP1 REVERT JUMPDEST POP PUSH2 0xC1 PUSH2 0x1A6 CALLDATASIZE PUSH1 0x4 PUSH2 0x1147 JUMP JUMPDEST PUSH2 0x616 JUMP JUMPDEST CALLVALUE DUP1 ISZERO PUSH2 0x1B7 JUMPI PUSH1 0x0 DUP1 REVERT JUMPDEST POP PUSH2 0x1C1 PUSH1 0x9 SLOAD DUP2 JUMP JUMPDEST PUSH1 0x40 MLOAD SWAP1 DUP2 MSTORE PUSH1 0x20 ADD PUSH2 0xD1 JUMP JUMPDEST CALLVALUE DUP1 ISZERO PUSH2 0x1DB JUMPI PUSH1 0x0 DUP1 REVERT JUMPDEST POP PUSH2 0x111 PUSH2 0x1EA CALLDATASIZE PUSH1 0x4 PUSH2 0x11B2 JUMP JUMPDEST PUSH2 0x631 JUMP JUMPDEST CALLVALUE DUP1 ISZERO PUSH2 0x1FB JUMPI PUSH1 0x0 DUP1 REVERT JUMPDEST POP PUSH2 0x1C1 PUSH2 0x20A CALLDATASIZE PUSH1 0x4 PUSH2 0x1244 JUMP JUMPDEST PUSH2 0x8BC JUMP JUMPDEST PUSH1 0xB PUSH1 0x20 MSTORE PUSH1 0x0 SWAP1 DUP2 MSTORE PUSH1 0x40 SWAP1 KECCAK256 DUP1 SLOAD DUP2 SWAP1 PUSH2 0x22A SWAP1 PUSH2 0x1526 JUMP JUMPDEST DUP1 PUSH1 0x1F ADD PUSH1 0x20 DUP1 SWAP2 DIV MUL PUSH1 0x20 ADD PUSH1 0x40 MLOAD SWAP1 DUP2 ADD PUSH1 0x40 MSTORE DUP1 SWAP3 SWAP2 SWAP1 DUP2 DUP2 MSTORE PUSH1 0x20 ADD DUP3 DUP1 SLOAD PUSH2 0x256 SWAP1 PUSH2 0x1526 JUMP JUMPDEST DUP1 ISZERO PUSH2 0x2A3 JUMPI DUP1 PUSH1 0x1F LT PUSH2 0x278 JUMPI PUSH2 0x100 DUP1 DUP4 SLOAD DIV MUL DUP4 MSTORE SWAP2 PUSH1 0x20 ADD SWAP2 PUSH2 0x2A3 JUMP JUMPDEST DUP3 ADD SWAP2 SWAP1 PUSH1 0x0 MSTORE PUSH1 0x20 PUSH1 0x0 KECCAK256 SWAP1 JUMPDEST DUP2 SLOAD DUP2 MSTORE SWAP1 PUSH1 0x1 ADD SWAP1 PUSH1 0x20 ADD DUP1 DUP4 GT PUSH2 0x286 JUMPI DUP3 SWAP1 SUB PUSH1 0x1F AND DUP3 ADD SWAP2 JUMPDEST POP POP POP POP POP SWAP1 DUP1 PUSH1 0x1 ADD DUP1 SLOAD PUSH2 0x2B8 SWAP1 PUSH2 0x1526 JUMP JUMPDEST DUP1 PUSH1 0x1F ADD PUSH1 0x20 DUP1 SWAP2 DIV MUL PUSH1 0x20 ADD PUSH1 0x40 MLOAD SWAP1 DUP2 ADD PUSH1 0x40 MSTORE DUP1 SWAP3 SWAP2 SWAP1 DUP2 DUP2 MSTORE PUSH1 0x20 ADD DUP3 DUP1 SLOAD PUSH2 0x2E4 SWAP1 PUSH2 0x1526 JUMP JUMPDEST DUP1 ISZERO PUSH2 0x331 JUMPI DUP1 PUSH1 0x1F LT PUSH2 0x306 JUMPI PUSH2 0x100 DUP1 DUP4 SLOAD DIV MUL DUP4 MSTORE SWAP2 PUSH1 0x20 ADD SWAP2 PUSH2 0x331 JUMP JUMPDEST DUP3 ADD SWAP2 SWAP1 PUSH1 0x0 MSTORE PUSH1 0x20 PUSH1 0x0 KECCAK256 SWAP1 JUMPDEST DUP2 SLOAD DUP2 MSTORE SWAP1 PUSH1 0x1 ADD SWAP1 PUSH1 0x20 ADD DUP1 DUP4 GT PUSH2 0x314 JUMPI DUP3 SWAP1 SUB PUSH1 0x1F AND DUP3 ADD SWAP2 JUMPDEST POP POP POP POP POP SWAP1 DUP1 PUSH1 0x2 ADD DUP1 SLOAD PUSH2 0x346 SWAP1 PUSH2 0x1526 JUMP JUMPDEST DUP1 PUSH1 0x1F ADD PUSH1 0x20 DUP1 SWAP2 DIV MUL PUSH1 0x20 ADD PUSH1 0x40 MLOAD SWAP1 DUP2 ADD PUSH1 0x40 MSTORE DUP1 SWAP3 SWAP2 SWAP1 DUP2 DUP2 MSTORE PUSH1 0x20 ADD DUP3 DUP1 SLOAD PUSH2 0x372 SWAP1 PUSH2 0x1526 JUMP JUMPDEST DUP1 ISZERO PUSH2 0x3BF JUMPI DUP1 PUSH1 0x1F LT PUSH2 0x394 JUMPI PUSH2 0x100 DUP1 DUP4 SLOAD DIV MUL DUP4 MSTORE SWAP2 PUSH1 0x20 ADD SWAP2 PUSH2 0x3BF JUMP JUMPDEST DUP3 ADD SWAP2 SWAP1 PUSH1 0x0 MSTORE PUSH1 0x20 PUSH1 0x0 KECCAK256 SWAP1 JUMPDEST DUP2 SLOAD DUP2 MSTORE SWAP1 PUSH1 0x1 ADD SWAP1 PUSH1 0x20 ADD DUP1 DUP4 GT PUSH2 0x3A2 JUMPI DUP3 SWAP1 SUB PUSH1 0x1F AND DUP3 ADD SWAP2 JUMPDEST POP POP POP POP POP SWAP1 DUP1 PUSH1 0x3 ADD DUP1 SLOAD PUSH2 0x3D4 SWAP1 PUSH2 0x1526 JUMP JUMPDEST DUP1 PUSH1 0x1F ADD PUSH1 0x20 DUP1 SWAP2 DIV MUL PUSH1 0x20 ADD PUSH1 0x40 MLOAD SWAP1 DUP2 ADD PUSH1 0x40 MSTORE DUP1 SWAP3 SWAP2 SWAP1 DUP2 DUP2 MSTORE PUSH1 0x20 ADD DUP3 DUP1 SLOAD PUSH2 0x400 SWAP1 PUSH2 0x1526 JUMP JUMPDEST DUP1 ISZERO PUSH2 0x44D JUMPI DUP1 PUSH1 0x1F LT PUSH2 0x422 JUMPI PUSH2 0x100 DUP1 DUP4 SLOAD DIV MUL DUP4 MSTORE SWAP2 PUSH1 0x20 ADD SWAP2 PUSH2 0x44D JUMP JUMPDEST DUP3 ADD SWAP2 SWAP1 PUSH1 0x0 MSTORE PUSH1 0x20 PUSH1 0x0 KECCAK256 SWAP1 JUMPDEST DUP2 SLOAD DUP2 MSTORE SWAP1 PUSH1 0x1 ADD SWAP1 PUSH1 0x20 ADD DUP1 DUP4 GT PUSH2 0x430 JUMPI DUP3 SWAP1 SUB PUSH1 0x1F AND DUP3 ADD SWAP2 JUMPDEST POP POP POP POP POP SWAP1 POP DUP5 JUMP JUMPDEST PUSH1 0x7 DUP1 SLOAD PUSH2 0x464 SWAP1 PUSH2 0x1526 JUMP JUMPDEST DUP1 PUSH1 0x1F ADD PUSH1 0x20 DUP1 SWAP2 DIV MUL PUSH1 0x20 ADD PUSH1 0x40 MLOAD SWAP1 DUP2 ADD PUSH1 0x40 MSTORE DUP1 SWAP3 SWAP2 SWAP1 DUP2 DUP2 MSTORE PUSH1 0x20 ADD DUP3 DUP1 SLOAD PUSH2 0x490 SWAP1 PUSH2 0x1526 JUMP JUMPDEST DUP1 ISZERO PUSH2 0x4DD JUMPI DUP1 PUSH1 0x1F LT PUSH2 0x4B2 JUMPI PUSH2 0x100 DUP1 DUP4 SLOAD DIV MUL DUP4 MSTORE SWAP2 PUSH1 0x20 ADD SWAP2 PUSH2 0x4DD JUMP JUMPDEST DUP3 ADD SWAP2 SWAP1 PUSH1 0x0 MSTORE PUSH1 0x20 PUSH1 0x0 KECCAK256 SWAP1 JUMPDEST DUP2 SLOAD DUP2 MSTORE SWAP1 PUSH1 0x1 ADD SWAP1 PUSH1 0x20 ADD DUP1 DUP4 GT PUSH2 0x4C0 JUMPI DUP3 SWAP1 SUB PUSH1 0x1F AND DUP3 ADD SWAP2 JUMPDEST POP POP POP POP POP DUP2 JUMP JUMPDEST PUSH1 0x40 MLOAD PUSH4 0x70A08231 PUSH1 0xE0 SHL DUP2 MSTORE ADDRESS PUSH1 0x4 DUP3 ADD MSTORE PUSH1 0x0 SWAP1 PUSH20 0xA36085F69E2889C224210F603D836748E7DC0088 SWAP1 PUSH4 0x70A08231 SWAP1 PUSH1 0x24 ADD PUSH1 0x20 PUSH1 0x40 MLOAD DUP1 DUP4 SUB DUP2 DUP7 DUP1 EXTCODESIZE ISZERO DUP1 ISZERO PUSH2 0x532 JUMPI PUSH1 0x0 DUP1 REVERT JUMPDEST POP GAS STATICCALL ISZERO DUP1 ISZERO PUSH2 0x546 JUMPI RETURNDATASIZE PUSH1 0x0 DUP1 RETURNDATACOPY RETURNDATASIZE PUSH1 0x0 REVERT JUMPDEST POP POP POP POP PUSH1 0x40 MLOAD RETURNDATASIZE PUSH1 0x1F NOT PUSH1 0x1F DUP3 ADD AND DUP3 ADD DUP1 PUSH1 0x40 MSTORE POP DUP2 ADD SWAP1 PUSH2 0x56A SWAP2 SWAP1 PUSH2 0x128D JUMP JUMPDEST PUSH1 0x40 MLOAD PUSH4 0xA9059CBB PUSH1 0xE0 SHL DUP2 MSTORE CALLER PUSH1 0x4 DUP3 ADD MSTORE PUSH1 0x24 DUP2 ADD DUP3 SWAP1 MSTORE SWAP1 SWAP2 POP PUSH20 0xA36085F69E2889C224210F603D836748E7DC0088 SWAP1 PUSH4 0xA9059CBB SWAP1 PUSH1 0x44 ADD PUSH1 0x20 PUSH1 0x40 MLOAD DUP1 DUP4 SUB DUP2 PUSH1 0x0 DUP8 DUP1 EXTCODESIZE ISZERO DUP1 ISZERO PUSH2 0x5C0 JUMPI PUSH1 0x0 DUP1 REVERT JUMPDEST POP GAS CALL ISZERO DUP1 ISZERO PUSH2 0x5D4 JUMPI RETURNDATASIZE PUSH1 0x0 DUP1 RETURNDATACOPY RETURNDATASIZE PUSH1 0x0 REVERT JUMPDEST POP POP POP POP PUSH1 0x40 MLOAD RETURNDATASIZE PUSH1 0x1F NOT PUSH1 0x1F DUP3 ADD AND DUP3 ADD DUP1 PUSH1 0x40 MSTORE POP DUP2 ADD SWAP1 PUSH2 0x5F8 SWAP2 SWAP1 PUSH2 0x1177 JUMP JUMPDEST POP POP JUMP JUMPDEST PUSH1 0x8 DUP1 SLOAD PUSH2 0x464 SWAP1 PUSH2 0x1526 JUMP JUMPDEST PUSH1 0x6 DUP1 SLOAD PUSH2 0x464 SWAP1 PUSH2 0x1526 JUMP JUMPDEST PUSH1 0xC PUSH1 0x20 MSTORE PUSH1 0x0 SWAP1 DUP2 MSTORE PUSH1 0x40 SWAP1 KECCAK256 DUP1 SLOAD DUP2 SWAP1 PUSH2 0x22A SWAP1 PUSH2 0x1526 JUMP JUMPDEST PUSH1 0x0 DUP5 DUP2 MSTORE PUSH1 0x5 PUSH1 0x20 MSTORE PUSH1 0x40 SWAP1 KECCAK256 SLOAD DUP5 SWAP1 PUSH1 0x1 PUSH1 0x1 PUSH1 0xA0 SHL SUB AND CALLER EQ PUSH2 0x6AF JUMPI PUSH1 0x40 MLOAD PUSH3 0x461BCD PUSH1 0xE5 SHL DUP2 MSTORE PUSH1 0x20 PUSH1 0x4 DUP3 ADD MSTORE PUSH1 0x28 PUSH1 0x24 DUP3 ADD MSTORE PUSH32 0x536F75726365206D75737420626520746865206F7261636C65206F6620746865 PUSH1 0x44 DUP3 ADD MSTORE PUSH8 0x81C995C5D595CDD PUSH1 0xC2 SHL PUSH1 0x64 DUP3 ADD MSTORE PUSH1 0x84 ADD JUMPDEST PUSH1 0x40 MLOAD DUP1 SWAP2 SUB SWAP1 REVERT JUMPDEST PUSH1 0x0 DUP2 DUP2 MSTORE PUSH1 0x5 PUSH1 0x20 MSTORE PUSH1 0x40 DUP1 DUP3 KECCAK256 DUP1 SLOAD PUSH1 0x1 PUSH1 0x1 PUSH1 0xA0 SHL SUB NOT AND SWAP1 SSTORE MLOAD DUP3 SWAP2 PUSH32 0x7CC135E0CEBB02C3480AE5D74D377283180A2601F8F644EDF7987B009316C63A SWAP2 LOG2 PUSH1 0x40 MLOAD DUP6 DUP2 MSTORE PUSH1 0x0 DUP1 MLOAD PUSH1 0x20 PUSH2 0x15AA DUP4 CODECOPY DUP2 MLOAD SWAP2 MSTORE SWAP1 PUSH1 0x20 ADD PUSH1 0x40 MLOAD DUP1 SWAP2 SUB SWAP1 LOG1 DUP4 MLOAD PUSH2 0x726 SWAP1 PUSH1 0x6 SWAP1 PUSH1 0x20 DUP8 ADD SWAP1 PUSH2 0xFDD JUMP JUMPDEST POP DUP3 MLOAD PUSH2 0x73A SWAP1 PUSH1 0x7 SWAP1 PUSH1 0x20 DUP7 ADD SWAP1 PUSH2 0xFDD JUMP JUMPDEST POP DUP2 MLOAD PUSH2 0x74E SWAP1 PUSH1 0x8 SWAP1 PUSH1 0x20 DUP6 ADD SWAP1 PUSH2 0xFDD JUMP JUMPDEST POP PUSH1 0x40 MLOAD DUP6 DUP2 MSTORE PUSH1 0x0 DUP1 MLOAD PUSH1 0x20 PUSH2 0x15AA DUP4 CODECOPY DUP2 MLOAD SWAP2 MSTORE SWAP1 PUSH1 0x20 ADD PUSH1 0x40 MLOAD DUP1 SWAP2 SUB SWAP1 LOG1 PUSH2 0x79B PUSH1 0x40 MLOAD DUP1 PUSH1 0x80 ADD PUSH1 0x40 MSTORE DUP1 PUSH1 0x60 DUP2 MSTORE PUSH1 0x20 ADD PUSH1 0x60 DUP2 MSTORE PUSH1 0x20 ADD PUSH1 0x60 DUP2 MSTORE PUSH1 0x20 ADD PUSH1 0x60 DUP2 MSTORE POP SWAP1 JUMP JUMPDEST PUSH1 0x40 DUP1 MLOAD PUSH1 0x20 DUP2 ADD DUP3 MSTORE PUSH1 0x0 DUP2 MSTORE DUP3 MSTORE MLOAD PUSH1 0x0 DUP1 MLOAD PUSH1 0x20 PUSH2 0x15AA DUP4 CODECOPY DUP2 MLOAD SWAP2 MSTORE SWAP1 PUSH2 0x7C9 SWAP1 DUP9 DUP2 MSTORE PUSH1 0x20 ADD SWAP1 JUMP JUMPDEST PUSH1 0x40 MLOAD DUP1 SWAP2 SUB SWAP1 LOG1 PUSH1 0x20 DUP1 DUP3 ADD DUP7 SWAP1 MSTORE PUSH1 0x40 DUP1 DUP4 ADD DUP7 SWAP1 MSTORE PUSH1 0x60 DUP4 ADD DUP6 SWAP1 MSTORE PUSH1 0x0 DUP9 DUP2 MSTORE PUSH1 0xA DUP4 MSTORE DUP2 DUP2 KECCAK256 SLOAD PUSH1 0x1 PUSH1 0x1 PUSH1 0xA0 SHL SUB AND DUP1 DUP3 MSTORE PUSH1 0xC DUP5 MSTORE SWAP2 SWAP1 KECCAK256 DUP4 MLOAD DUP1 MLOAD SWAP3 SWAP4 DUP6 SWAP4 PUSH2 0x81D SWAP3 DUP5 SWAP3 ADD SWAP1 PUSH2 0xFDD JUMP JUMPDEST POP PUSH1 0x20 DUP3 DUP2 ADD MLOAD DUP1 MLOAD PUSH2 0x836 SWAP3 PUSH1 0x1 DUP6 ADD SWAP3 ADD SWAP1 PUSH2 0xFDD JUMP JUMPDEST POP PUSH1 0x40 DUP3 ADD MLOAD DUP1 MLOAD PUSH2 0x852 SWAP2 PUSH1 0x2 DUP5 ADD SWAP2 PUSH1 0x20 SWAP1 SWAP2 ADD SWAP1 PUSH2 0xFDD JUMP JUMPDEST POP PUSH1 0x60 DUP3 ADD MLOAD DUP1 MLOAD PUSH2 0x86E SWAP2 PUSH1 0x3 DUP5 ADD SWAP2 PUSH1 0x20 SWAP1 SWAP2 ADD SWAP1 PUSH2 0xFDD JUMP JUMPDEST POP POP PUSH1 0x40 MLOAD DUP9 DUP2 MSTORE PUSH1 0x0 DUP1 MLOAD PUSH1 0x20 PUSH2 0x15AA DUP4 CODECOPY DUP2 MLOAD SWAP2 MSTORE SWAP2 POP PUSH1 0x20 ADD PUSH1 0x40 MLOAD DUP1 SWAP2 SUB SWAP1 LOG1 PUSH1 0x40 MLOAD DUP8 DUP2 MSTORE PUSH1 0x0 DUP1 MLOAD PUSH1 0x20 PUSH2 0x15AA DUP4 CODECOPY DUP2 MLOAD SWAP2 MSTORE SWAP1 PUSH1 0x20 ADD PUSH1 0x40 MLOAD DUP1 SWAP2 SUB SWAP1 LOG1 POP POP POP POP POP POP POP JUMP JUMPDEST PUSH1 0x0 DUP1 PUSH2 0x8D3 PUSH1 0xE SLOAD ADDRESS PUSH4 0xDEC104D9 PUSH1 0xE0 SHL PUSH2 0x90E JUMP JUMPDEST PUSH1 0x40 DUP1 MLOAD DUP1 DUP3 ADD SWAP1 SWAP2 MSTORE PUSH1 0x6 DUP2 MSTORE PUSH6 0x1C1C9BDB5C1D PUSH1 0xD2 SHL PUSH1 0x20 DUP3 ADD MSTORE SWAP1 SWAP2 POP PUSH2 0x8FF SWAP1 DUP3 SWAP1 DUP6 PUSH2 0x933 JUMP JUMPDEST PUSH2 0x908 DUP2 PUSH2 0x956 JUMP JUMPDEST POP SWAP2 SWAP1 POP JUMP JUMPDEST PUSH2 0x916 PUSH2 0x1061 JUMP JUMPDEST PUSH2 0x91E PUSH2 0x1061 JUMP JUMPDEST PUSH2 0x92A DUP2 DUP7 DUP7 DUP7 PUSH2 0x986 JUMP JUMPDEST SWAP6 SWAP5 POP POP POP POP POP JUMP JUMPDEST PUSH1 0x80 DUP4 ADD MLOAD PUSH2 0x942 SWAP1 DUP4 PUSH2 0x9C3 JUMP JUMPDEST PUSH1 0x80 DUP4 ADD MLOAD PUSH2 0x951 SWAP1 DUP3 PUSH2 0x9C3 JUMP JUMPDEST POP POP POP JUMP JUMPDEST PUSH1 0x0 PUSH2 0x964 DUP3 PUSH1 0xD SLOAD PUSH2 0x9DA JUMP JUMPDEST PUSH1 0x0 SWAP1 DUP2 MSTORE PUSH1 0xA PUSH1 0x20 MSTORE PUSH1 0x40 SWAP1 KECCAK256 DUP1 SLOAD PUSH1 0x1 PUSH1 0x1 PUSH1 0xA0 SHL SUB NOT AND CALLER OR SWAP1 SSTORE POP POP JUMP JUMPDEST PUSH2 0x98E PUSH2 0x1061 JUMP JUMPDEST PUSH2 0x99E DUP6 PUSH1 0x80 ADD MLOAD PUSH2 0x100 PUSH2 0x9FD JUMP JUMPDEST POP POP SWAP2 DUP4 MSTORE PUSH1 0x1 PUSH1 0x1 PUSH1 0xA0 SHL SUB AND PUSH1 0x20 DUP4 ADD MSTORE PUSH1 0x1 PUSH1 0x1 PUSH1 0xE0 SHL SUB NOT AND PUSH1 0x40 DUP3 ADD MSTORE SWAP1 JUMP JUMPDEST PUSH2 0x9D0 DUP3 PUSH1 0x3 DUP4 MLOAD PUSH2 0xA62 JUMP JUMPDEST PUSH2 0x951 DUP3 DUP3 PUSH2 0xB36 JUMP JUMPDEST PUSH1 0x3 SLOAD PUSH1 0x0 SWAP1 PUSH2 0x9F4 SWAP1 PUSH1 0x1 PUSH1 0x1 PUSH1 0xA0 SHL SUB AND DUP5 DUP5 PUSH2 0xB5D JUMP JUMPDEST SWAP1 POP JUMPDEST SWAP3 SWAP2 POP POP JUMP JUMPDEST PUSH1 0x40 DUP1 MLOAD DUP1 DUP3 ADD SWAP1 SWAP2 MSTORE PUSH1 0x60 DUP2 MSTORE PUSH1 0x0 PUSH1 0x20 DUP3 ADD MSTORE PUSH2 0xA1D PUSH1 0x20 DUP4 PUSH2 0x155B JUMP JUMPDEST ISZERO PUSH2 0xA45 JUMPI PUSH2 0xA2D PUSH1 0x20 DUP4 PUSH2 0x155B JUMP JUMPDEST PUSH2 0xA38 SWAP1 PUSH1 0x20 PUSH2 0x150F JUMP JUMPDEST PUSH2 0xA42 SWAP1 DUP4 PUSH2 0x13ED JUMP JUMPDEST SWAP2 POP JUMPDEST POP PUSH1 0x20 DUP3 DUP2 ADD DUP3 SWAP1 MSTORE PUSH1 0x40 DUP1 MLOAD DUP1 DUP6 MSTORE PUSH1 0x0 DUP2 MSTORE SWAP1 SWAP3 ADD ADD SWAP1 MSTORE SWAP1 JUMP JUMPDEST PUSH1 0x17 DUP2 GT PUSH2 0xA83 JUMPI PUSH2 0xA7D DUP4 PUSH1 0xE0 PUSH1 0x5 DUP6 SWAP1 SHL AND DUP4 OR PUSH2 0xB7C JUMP JUMPDEST POP POP POP POP JUMP JUMPDEST PUSH1 0xFF DUP2 GT PUSH2 0xAAD JUMPI PUSH2 0xAA0 DUP4 PUSH1 0x18 PUSH2 0x1FE0 PUSH1 0x5 DUP7 SWAP1 SHL AND OR PUSH2 0xB7C JUMP JUMPDEST POP PUSH2 0xA7D DUP4 DUP3 PUSH1 0x1 PUSH2 0xBA1 JUMP JUMPDEST PUSH2 0xFFFF DUP2 GT PUSH2 0xAD8 JUMPI PUSH2 0xACB DUP4 PUSH1 0x19 PUSH2 0x1FE0 PUSH1 0x5 DUP7 SWAP1 SHL AND OR PUSH2 0xB7C JUMP JUMPDEST POP PUSH2 0xA7D DUP4 DUP3 PUSH1 0x2 PUSH2 0xBA1 JUMP JUMPDEST PUSH4 0xFFFFFFFF DUP2 GT PUSH2 0xB05 JUMPI PUSH2 0xAF8 DUP4 PUSH1 0x1A PUSH2 0x1FE0 PUSH1 0x5 DUP7 SWAP1 SHL AND OR PUSH2 0xB7C JUMP JUMPDEST POP PUSH2 0xA7D DUP4 DUP3 PUSH1 0x4 PUSH2 0xBA1 JUMP JUMPDEST PUSH8 0xFFFFFFFFFFFFFFFF DUP2 GT PUSH2 0x951 JUMPI PUSH2 0xB29 DUP4 PUSH1 0x1B PUSH2 0x1FE0 PUSH1 0x5 DUP7 SWAP1 SHL AND OR PUSH2 0xB7C JUMP JUMPDEST POP PUSH2 0xA7D DUP4 DUP3 PUSH1 0x8 PUSH2 0xBA1 JUMP JUMPDEST PUSH1 0x40 DUP1 MLOAD DUP1 DUP3 ADD SWAP1 SWAP2 MSTORE PUSH1 0x60 DUP2 MSTORE PUSH1 0x0 PUSH1 0x20 DUP3 ADD MSTORE PUSH2 0x9F4 DUP4 DUP5 PUSH1 0x0 ADD MLOAD MLOAD DUP5 DUP6 MLOAD PUSH2 0xBC7 JUMP JUMPDEST PUSH1 0x0 PUSH2 0xB74 DUP5 DUP5 DUP5 PUSH1 0x2 PUSH4 0x36F43CEB PUSH1 0xE1 SHL PUSH2 0xCCC JUMP JUMPDEST SWAP5 SWAP4 POP POP POP POP JUMP JUMPDEST PUSH1 0x40 DUP1 MLOAD DUP1 DUP3 ADD SWAP1 SWAP2 MSTORE PUSH1 0x60 DUP2 MSTORE PUSH1 0x0 PUSH1 0x20 DUP3 ADD MSTORE PUSH2 0x9F4 DUP4 DUP5 PUSH1 0x0 ADD MLOAD MLOAD DUP5 PUSH2 0xED8 JUMP JUMPDEST PUSH1 0x40 DUP1 MLOAD DUP1 DUP3 ADD SWAP1 SWAP2 MSTORE PUSH1 0x60 DUP2 MSTORE PUSH1 0x0 PUSH1 0x20 DUP3 ADD MSTORE PUSH2 0xB74 DUP5 DUP6 PUSH1 0x0 ADD MLOAD MLOAD DUP6 DUP6 PUSH2 0xF34 JUMP JUMPDEST PUSH1 0x40 DUP1 MLOAD DUP1 DUP3 ADD SWAP1 SWAP2 MSTORE PUSH1 0x60 DUP2 MSTORE PUSH1 0x0 PUSH1 0x20 DUP3 ADD MSTORE DUP3 MLOAD DUP3 GT ISZERO PUSH2 0xBEA JUMPI PUSH1 0x0 DUP1 REVERT JUMPDEST PUSH1 0x20 DUP6 ADD MLOAD PUSH2 0xBF9 DUP4 DUP7 PUSH2 0x13ED JUMP JUMPDEST GT ISZERO PUSH2 0xC2C JUMPI PUSH2 0xC2C DUP6 PUSH2 0xC1C DUP8 PUSH1 0x20 ADD MLOAD DUP8 DUP7 PUSH2 0xC17 SWAP2 SWAP1 PUSH2 0x13ED JUMP JUMPDEST PUSH2 0xFB5 JUMP JUMPDEST PUSH2 0xC27 SWAP1 PUSH1 0x2 PUSH2 0x14F0 JUMP JUMPDEST PUSH2 0xFC6 JUMP JUMPDEST PUSH1 0x0 DUP1 DUP7 MLOAD DUP1 MLOAD DUP8 PUSH1 0x20 DUP4 ADD ADD SWAP4 POP DUP1 DUP9 DUP8 ADD GT ISZERO PUSH2 0xC4B JUMPI DUP8 DUP7 ADD DUP3 MSTORE JUMPDEST POP POP POP PUSH1 0x20 DUP5 ADD JUMPDEST PUSH1 0x20 DUP5 LT PUSH2 0xC8B JUMPI DUP1 MLOAD DUP3 MSTORE PUSH2 0xC6A PUSH1 0x20 DUP4 PUSH2 0x13ED JUMP JUMPDEST SWAP2 POP PUSH2 0xC77 PUSH1 0x20 DUP3 PUSH2 0x13ED JUMP JUMPDEST SWAP1 POP PUSH2 0xC84 PUSH1 0x20 DUP6 PUSH2 0x150F JUMP JUMPDEST SWAP4 POP PUSH2 0xC53 JUMP JUMPDEST PUSH1 0x0 PUSH1 0x1 PUSH2 0xC9A DUP7 PUSH1 0x20 PUSH2 0x150F JUMP JUMPDEST PUSH2 0xCA6 SWAP1 PUSH2 0x100 PUSH2 0x1448 JUMP JUMPDEST PUSH2 0xCB0 SWAP2 SWAP1 PUSH2 0x150F JUMP JUMPDEST SWAP2 MLOAD DUP4 MLOAD DUP4 AND SWAP3 NOT AND SWAP2 SWAP1 SWAP2 OR SWAP1 SWAP2 MSTORE POP DUP5 SWAP1 POP SWAP5 SWAP4 POP POP POP POP JUMP JUMPDEST PUSH1 0x4 SLOAD PUSH1 0x40 MLOAD PUSH12 0xFFFFFFFFFFFFFFFFFFFFFFFF NOT ADDRESS PUSH1 0x60 SHL AND PUSH1 0x20 DUP3 ADD MSTORE PUSH1 0x34 DUP2 ADD SWAP2 SWAP1 SWAP2 MSTORE PUSH1 0x0 SWAP1 PUSH1 0x54 ADD PUSH1 0x40 DUP1 MLOAD DUP1 DUP4 SUB PUSH1 0x1F NOT ADD DUP2 MSTORE SWAP2 DUP2 MSTORE DUP2 MLOAD PUSH1 0x20 SWAP3 DUP4 ADD KECCAK256 PUSH1 0x4 SLOAD PUSH1 0x60 DUP10 ADD MSTORE PUSH1 0x0 DUP2 DUP2 MSTORE PUSH1 0x5 SWAP1 SWAP4 MSTORE DUP2 DUP4 KECCAK256 DUP1 SLOAD PUSH1 0x1 PUSH1 0x1 PUSH1 0xA0 SHL SUB NOT AND PUSH1 0x1 PUSH1 0x1 PUSH1 0xA0 SHL SUB DUP12 AND OR SWAP1 SSTORE SWAP1 MLOAD SWAP1 SWAP3 POP DUP3 SWAP2 PUSH32 0xB5E6E01E79F91267DC17B4E6314D5D4D03593D2CEEE0FBB452B750BD70EA5AF9 SWAP2 LOG2 PUSH1 0x0 DUP3 PUSH1 0x0 DUP1 DUP9 PUSH1 0x0 ADD MLOAD DUP10 PUSH1 0x20 ADD MLOAD DUP11 PUSH1 0x40 ADD MLOAD DUP12 PUSH1 0x60 ADD MLOAD DUP11 DUP14 PUSH1 0x80 ADD MLOAD PUSH1 0x0 ADD MLOAD PUSH1 0x40 MLOAD PUSH1 0x24 ADD PUSH2 0xDA3 SWAP9 SWAP8 SWAP7 SWAP6 SWAP5 SWAP4 SWAP3 SWAP2 SWAP1 PUSH2 0x12F3 JUMP JUMPDEST PUSH1 0x40 DUP1 MLOAD PUSH1 0x1F NOT DUP2 DUP5 SUB ADD DUP2 MSTORE SWAP2 DUP2 MSTORE PUSH1 0x20 DUP3 ADD DUP1 MLOAD PUSH1 0x1 PUSH1 0x1 PUSH1 0xE0 SHL SUB AND PUSH1 0x1 PUSH1 0x1 PUSH1 0xE0 SHL SUB NOT SWAP1 SWAP5 AND SWAP4 SWAP1 SWAP4 OR SWAP1 SWAP3 MSTORE PUSH1 0x2 SLOAD SWAP2 MLOAD PUSH4 0x2000575 PUSH1 0xE5 SHL DUP2 MSTORE SWAP1 SWAP3 POP PUSH1 0x1 PUSH1 0x1 PUSH1 0xA0 SHL SUB SWAP1 SWAP2 AND SWAP1 PUSH4 0x4000AEA0 SWAP1 PUSH2 0xE0B SWAP1 DUP11 SWAP1 DUP10 SWAP1 DUP7 SWAP1 PUSH1 0x4 ADD PUSH2 0x135B JUMP JUMPDEST PUSH1 0x20 PUSH1 0x40 MLOAD DUP1 DUP4 SUB DUP2 PUSH1 0x0 DUP8 DUP1 EXTCODESIZE ISZERO DUP1 ISZERO PUSH2 0xE25 JUMPI PUSH1 0x0 DUP1 REVERT JUMPDEST POP GAS CALL ISZERO DUP1 ISZERO PUSH2 0xE39 JUMPI RETURNDATASIZE PUSH1 0x0 DUP1 RETURNDATACOPY RETURNDATASIZE PUSH1 0x0 REVERT JUMPDEST POP POP POP POP PUSH1 0x40 MLOAD RETURNDATASIZE PUSH1 0x1F NOT PUSH1 0x1F DUP3 ADD AND DUP3 ADD DUP1 PUSH1 0x40 MSTORE POP DUP2 ADD SWAP1 PUSH2 0xE5D SWAP2 SWAP1 PUSH2 0x1177 JUMP JUMPDEST PUSH2 0xEB5 JUMPI PUSH1 0x40 MLOAD PUSH3 0x461BCD PUSH1 0xE5 SHL DUP2 MSTORE PUSH1 0x20 PUSH1 0x4 DUP3 ADD MSTORE PUSH1 0x23 PUSH1 0x24 DUP3 ADD MSTORE PUSH32 0x756E61626C6520746F207472616E73666572416E6443616C6C20746F206F7261 PUSH1 0x44 DUP3 ADD MSTORE PUSH3 0x636C65 PUSH1 0xE8 SHL PUSH1 0x64 DUP3 ADD MSTORE PUSH1 0x84 ADD PUSH2 0x6A6 JUMP JUMPDEST PUSH1 0x1 PUSH1 0x4 PUSH1 0x0 DUP3 DUP3 SLOAD PUSH2 0xEC8 SWAP2 SWAP1 PUSH2 0x13ED JUMP JUMPDEST SWAP1 SWAP2 SSTORE POP SWAP2 SWAP8 SWAP7 POP POP POP POP POP POP POP JUMP JUMPDEST PUSH1 0x40 DUP1 MLOAD DUP1 DUP3 ADD SWAP1 SWAP2 MSTORE PUSH1 0x60 DUP2 MSTORE PUSH1 0x0 PUSH1 0x20 DUP3 ADD MSTORE DUP4 PUSH1 0x20 ADD MLOAD DUP4 LT PUSH2 0xF0D JUMPI PUSH2 0xF0D DUP5 DUP6 PUSH1 0x20 ADD MLOAD PUSH1 0x2 PUSH2 0xC27 SWAP2 SWAP1 PUSH2 0x14F0 JUMP JUMPDEST DUP4 MLOAD DUP1 MLOAD PUSH1 0x20 DUP6 DUP4 ADD ADD DUP5 DUP2 MSTORE8 POP DUP1 DUP6 EQ ISZERO PUSH2 0xF2A JUMPI PUSH1 0x1 DUP2 ADD DUP3 MSTORE JUMPDEST POP SWAP4 SWAP5 SWAP4 POP POP POP POP JUMP JUMPDEST PUSH1 0x40 DUP1 MLOAD DUP1 DUP3 ADD SWAP1 SWAP2 MSTORE PUSH1 0x60 DUP2 MSTORE PUSH1 0x0 PUSH1 0x20 DUP3 ADD MSTORE PUSH1 0x20 DUP6 ADD MLOAD PUSH2 0xF58 DUP6 DUP5 PUSH2 0x13ED JUMP JUMPDEST GT ISZERO PUSH2 0xF6C JUMPI PUSH2 0xF6C DUP6 PUSH2 0xC1C DUP7 DUP6 PUSH2 0x13ED JUMP JUMPDEST PUSH1 0x0 PUSH1 0x1 PUSH2 0xF7C DUP5 PUSH2 0x100 PUSH2 0x1448 JUMP JUMPDEST PUSH2 0xF86 SWAP2 SWAP1 PUSH2 0x150F JUMP JUMPDEST SWAP1 POP DUP6 MLOAD DUP4 DUP7 DUP3 ADD ADD DUP6 DUP4 NOT DUP3 MLOAD AND OR DUP2 MSTORE POP DUP1 MLOAD DUP5 DUP8 ADD GT ISZERO PUSH2 0xFAA JUMPI DUP4 DUP7 ADD DUP2 MSTORE JUMPDEST POP SWAP5 SWAP6 SWAP5 POP POP POP POP POP JUMP JUMPDEST PUSH1 0x0 DUP2 DUP4 GT ISZERO PUSH2 0x908 JUMPI POP DUP2 PUSH2 0x9F7 JUMP JUMPDEST DUP2 MLOAD PUSH2 0xFD2 DUP4 DUP4 PUSH2 0x9FD JUMP JUMPDEST POP PUSH2 0xA7D DUP4 DUP3 PUSH2 0xB36 JUMP JUMPDEST DUP3 DUP1 SLOAD PUSH2 0xFE9 SWAP1 PUSH2 0x1526 JUMP JUMPDEST SWAP1 PUSH1 0x0 MSTORE PUSH1 0x20 PUSH1 0x0 KECCAK256 SWAP1 PUSH1 0x1F ADD PUSH1 0x20 SWAP1 DIV DUP2 ADD SWAP3 DUP3 PUSH2 0x100B JUMPI PUSH1 0x0 DUP6 SSTORE PUSH2 0x1051 JUMP JUMPDEST DUP3 PUSH1 0x1F LT PUSH2 0x1024 JUMPI DUP1 MLOAD PUSH1 0xFF NOT AND DUP4 DUP1 ADD OR DUP6 SSTORE PUSH2 0x1051 JUMP JUMPDEST DUP3 DUP1 ADD PUSH1 0x1 ADD DUP6 SSTORE DUP3 ISZERO PUSH2 0x1051 JUMPI SWAP2 DUP3 ADD JUMPDEST DUP3 DUP2 GT ISZERO PUSH2 0x1051 JUMPI DUP3 MLOAD DUP3 SSTORE SWAP2 PUSH1 0x20 ADD SWAP2 SWAP1 PUSH1 0x1 ADD SWAP1 PUSH2 0x1036 JUMP JUMPDEST POP PUSH2 0x105D SWAP3 SWAP2 POP PUSH2 0x109C JUMP JUMPDEST POP SWAP1 JUMP JUMPDEST PUSH1 0x40 DUP1 MLOAD PUSH1 0xA0 DUP2 ADD DUP3 MSTORE PUSH1 0x0 DUP1 DUP3 MSTORE PUSH1 0x20 DUP1 DUP4 ADD DUP3 SWAP1 MSTORE DUP3 DUP5 ADD DUP3 SWAP1 MSTORE PUSH1 0x60 DUP1 DUP5 ADD DUP4 SWAP1 MSTORE DUP5 MLOAD DUP1 DUP7 ADD SWAP1 SWAP6 MSTORE DUP5 MSTORE DUP4 ADD MSTORE SWAP1 PUSH1 0x80 DUP3 ADD MSTORE SWAP1 JUMP JUMPDEST JUMPDEST DUP1 DUP3 GT ISZERO PUSH2 0x105D JUMPI PUSH1 0x0 DUP2 SSTORE PUSH1 0x1 ADD PUSH2 0x109D JUMP JUMPDEST PUSH1 0x0 PUSH8 0xFFFFFFFFFFFFFFFF DUP1 DUP5 GT ISZERO PUSH2 0x10CC JUMPI PUSH2 0x10CC PUSH2 0x1593 JUMP JUMPDEST PUSH1 0x40 MLOAD PUSH1 0x1F DUP6 ADD PUSH1 0x1F NOT SWAP1 DUP2 AND PUSH1 0x3F ADD AND DUP2 ADD SWAP1 DUP3 DUP3 GT DUP2 DUP4 LT OR ISZERO PUSH2 0x10F4 JUMPI PUSH2 0x10F4 PUSH2 0x1593 JUMP JUMPDEST DUP2 PUSH1 0x40 MSTORE DUP1 SWAP4 POP DUP6 DUP2 MSTORE DUP7 DUP7 DUP7 ADD GT ISZERO PUSH2 0x110D JUMPI PUSH1 0x0 DUP1 REVERT JUMPDEST DUP6 DUP6 PUSH1 0x20 DUP4 ADD CALLDATACOPY PUSH1 0x0 PUSH1 0x20 DUP8 DUP4 ADD ADD MSTORE POP POP POP SWAP4 SWAP3 POP POP POP JUMP JUMPDEST PUSH1 0x0 DUP3 PUSH1 0x1F DUP4 ADD SLT PUSH2 0x1138 JUMPI PUSH1 0x0 DUP1 REVERT JUMPDEST PUSH2 0x9F4 DUP4 DUP4 CALLDATALOAD PUSH1 0x20 DUP6 ADD PUSH2 0x10B1 JUMP JUMPDEST PUSH1 0x0 PUSH1 0x20 DUP3 DUP5 SUB SLT ISZERO PUSH2 0x1159 JUMPI PUSH1 0x0 DUP1 REVERT JUMPDEST DUP2 CALLDATALOAD PUSH1 0x1 PUSH1 0x1 PUSH1 0xA0 SHL SUB DUP2 AND DUP2 EQ PUSH2 0x1170 JUMPI PUSH1 0x0 DUP1 REVERT JUMPDEST SWAP4 SWAP3 POP POP POP JUMP JUMPDEST PUSH1 0x0 PUSH1 0x20 DUP3 DUP5 SUB SLT ISZERO PUSH2 0x1189 JUMPI PUSH1 0x0 DUP1 REVERT JUMPDEST DUP2 MLOAD DUP1 ISZERO ISZERO DUP2 EQ PUSH2 0x1170 JUMPI PUSH1 0x0 DUP1 REVERT JUMPDEST PUSH1 0x0 PUSH1 0x20 DUP3 DUP5 SUB SLT ISZERO PUSH2 0x11AB JUMPI PUSH1 0x0 DUP1 REVERT JUMPDEST POP CALLDATALOAD SWAP2 SWAP1 POP JUMP JUMPDEST PUSH1 0x0 DUP1 PUSH1 0x0 DUP1 PUSH1 0x80 DUP6 DUP8 SUB SLT ISZERO PUSH2 0x11C8 JUMPI PUSH1 0x0 DUP1 REVERT JUMPDEST DUP5 CALLDATALOAD SWAP4 POP PUSH1 0x20 DUP6 ADD CALLDATALOAD PUSH8 0xFFFFFFFFFFFFFFFF DUP1 DUP3 GT ISZERO PUSH2 0x11E7 JUMPI PUSH1 0x0 DUP1 REVERT JUMPDEST PUSH2 0x11F3 DUP9 DUP4 DUP10 ADD PUSH2 0x1127 JUMP JUMPDEST SWAP5 POP PUSH1 0x40 DUP8 ADD CALLDATALOAD SWAP2 POP DUP1 DUP3 GT ISZERO PUSH2 0x1209 JUMPI PUSH1 0x0 DUP1 REVERT JUMPDEST PUSH2 0x1215 DUP9 DUP4 DUP10 ADD PUSH2 0x1127 JUMP JUMPDEST SWAP4 POP PUSH1 0x60 DUP8 ADD CALLDATALOAD SWAP2 POP DUP1 DUP3 GT ISZERO PUSH2 0x122B JUMPI PUSH1 0x0 DUP1 REVERT JUMPDEST POP PUSH2 0x1238 DUP8 DUP3 DUP9 ADD PUSH2 0x1127 JUMP JUMPDEST SWAP2 POP POP SWAP3 SWAP6 SWAP2 SWAP5 POP SWAP3 POP JUMP JUMPDEST PUSH1 0x0 PUSH1 0x20 DUP3 DUP5 SUB SLT ISZERO PUSH2 0x1256 JUMPI PUSH1 0x0 DUP1 REVERT JUMPDEST DUP2 CALLDATALOAD PUSH8 0xFFFFFFFFFFFFFFFF DUP2 GT ISZERO PUSH2 0x126D JUMPI PUSH1 0x0 DUP1 REVERT JUMPDEST DUP3 ADD PUSH1 0x1F DUP2 ADD DUP5 SGT PUSH2 0x127E JUMPI PUSH1 0x0 DUP1 REVERT JUMPDEST PUSH2 0xB74 DUP5 DUP3 CALLDATALOAD PUSH1 0x20 DUP5 ADD PUSH2 0x10B1 JUMP JUMPDEST PUSH1 0x0 PUSH1 0x20 DUP3 DUP5 SUB SLT ISZERO PUSH2 0x129F JUMPI PUSH1 0x0 DUP1 REVERT JUMPDEST POP MLOAD SWAP2 SWAP1 POP JUMP JUMPDEST PUSH1 0x0 DUP2 MLOAD DUP1 DUP5 MSTORE PUSH1 0x0 JUMPDEST DUP2 DUP2 LT ISZERO PUSH2 0x12CC JUMPI PUSH1 0x20 DUP2 DUP6 ADD DUP2 ADD MLOAD DUP7 DUP4 ADD DUP3 ADD MSTORE ADD PUSH2 0x12B0 JUMP JUMPDEST DUP2 DUP2 GT ISZERO PUSH2 0x12DE JUMPI PUSH1 0x0 PUSH1 0x20 DUP4 DUP8 ADD ADD MSTORE JUMPDEST POP PUSH1 0x1F ADD PUSH1 0x1F NOT AND SWAP3 SWAP1 SWAP3 ADD PUSH1 0x20 ADD SWAP3 SWAP2 POP POP JUMP JUMPDEST PUSH1 0x1 PUSH1 0x1 PUSH1 0xA0 SHL SUB DUP10 DUP2 AND DUP3 MSTORE PUSH1 0x20 DUP3 ADD DUP10 SWAP1 MSTORE PUSH1 0x40 DUP3 ADD DUP9 SWAP1 MSTORE DUP7 AND PUSH1 0x60 DUP3 ADD MSTORE PUSH1 0x1 PUSH1 0x1 PUSH1 0xE0 SHL SUB NOT DUP6 AND PUSH1 0x80 DUP3 ADD MSTORE PUSH1 0xA0 DUP2 ADD DUP5 SWAP1 MSTORE PUSH1 0xC0 DUP2 ADD DUP4 SWAP1 MSTORE PUSH2 0x100 PUSH1 0xE0 DUP3 ADD DUP2 SWAP1 MSTORE PUSH1 0x0 SWAP1 PUSH2 0x134C DUP4 DUP3 ADD DUP6 PUSH2 0x12A6 JUMP JUMPDEST SWAP12 SWAP11 POP POP POP POP POP POP POP POP POP POP POP JUMP JUMPDEST PUSH1 0x1 DUP1 PUSH1 0xA0 SHL SUB DUP5 AND DUP2 MSTORE DUP3 PUSH1 0x20 DUP3 ADD MSTORE PUSH1 0x60 PUSH1 0x40 DUP3 ADD MSTORE PUSH1 0x0 PUSH2 0x92A PUSH1 0x60 DUP4 ADD DUP5 PUSH2 0x12A6 JUMP JUMPDEST PUSH1 0x20 DUP2 MSTORE PUSH1 0x0 PUSH2 0x9F4 PUSH1 0x20 DUP4 ADD DUP5 PUSH2 0x12A6 JUMP JUMPDEST PUSH1 0x80 DUP2 MSTORE PUSH1 0x0 PUSH2 0x13A8 PUSH1 0x80 DUP4 ADD DUP8 PUSH2 0x12A6 JUMP JUMPDEST DUP3 DUP2 SUB PUSH1 0x20 DUP5 ADD MSTORE PUSH2 0x13BA DUP2 DUP8 PUSH2 0x12A6 JUMP JUMPDEST SWAP1 POP DUP3 DUP2 SUB PUSH1 0x40 DUP5 ADD MSTORE PUSH2 0x13CE DUP2 DUP7 PUSH2 0x12A6 JUMP JUMPDEST SWAP1 POP DUP3 DUP2 SUB PUSH1 0x60 DUP5 ADD MSTORE PUSH2 0x13E2 DUP2 DUP6 PUSH2 0x12A6 JUMP JUMPDEST SWAP8 SWAP7 POP POP POP POP POP POP POP JUMP JUMPDEST PUSH1 0x0 DUP3 NOT DUP3 GT ISZERO PUSH2 0x1400 JUMPI PUSH2 0x1400 PUSH2 0x157D JUMP JUMPDEST POP ADD SWAP1 JUMP JUMPDEST PUSH1 0x1 DUP2 DUP2 JUMPDEST DUP1 DUP6 GT ISZERO PUSH2 0x1440 JUMPI DUP2 PUSH1 0x0 NOT DIV DUP3 GT ISZERO PUSH2 0x1426 JUMPI PUSH2 0x1426 PUSH2 0x157D JUMP JUMPDEST DUP1 DUP6 AND ISZERO PUSH2 0x1433 JUMPI SWAP2 DUP2 MUL SWAP2 JUMPDEST SWAP4 DUP5 SHR SWAP4 SWAP1 DUP1 MUL SWAP1 PUSH2 0x140A JUMP JUMPDEST POP SWAP3 POP SWAP3 SWAP1 POP JUMP JUMPDEST PUSH1 0x0 PUSH2 0x9F4 DUP4 DUP4 PUSH1 0x0 DUP3 PUSH2 0x145E JUMPI POP PUSH1 0x1 PUSH2 0x9F7 JUMP JUMPDEST DUP2 PUSH2 0x146B JUMPI POP PUSH1 0x0 PUSH2 0x9F7 JUMP JUMPDEST DUP2 PUSH1 0x1 DUP2 EQ PUSH2 0x1481 JUMPI PUSH1 0x2 DUP2 EQ PUSH2 0x148B JUMPI PUSH2 0x14A7 JUMP JUMPDEST PUSH1 0x1 SWAP2 POP POP PUSH2 0x9F7 JUMP JUMPDEST PUSH1 0xFF DUP5 GT ISZERO PUSH2 0x149C JUMPI PUSH2 0x149C PUSH2 0x157D JUMP JUMPDEST POP POP PUSH1 0x1 DUP3 SHL PUSH2 0x9F7 JUMP JUMPDEST POP PUSH1 0x20 DUP4 LT PUSH2 0x133 DUP4 LT AND PUSH1 0x4E DUP5 LT PUSH1 0xB DUP5 LT AND OR ISZERO PUSH2 0x14CA JUMPI POP DUP2 DUP2 EXP PUSH2 0x9F7 JUMP JUMPDEST PUSH2 0x14D4 DUP4 DUP4 PUSH2 0x1405 JUMP JUMPDEST DUP1 PUSH1 0x0 NOT DIV DUP3 GT ISZERO PUSH2 0x14E8 JUMPI PUSH2 0x14E8 PUSH2 0x157D JUMP JUMPDEST MUL SWAP4 SWAP3 POP POP POP JUMP JUMPDEST PUSH1 0x0 DUP2 PUSH1 0x0 NOT DIV DUP4 GT DUP3 ISZERO ISZERO AND ISZERO PUSH2 0x150A JUMPI PUSH2 0x150A PUSH2 0x157D JUMP JUMPDEST POP MUL SWAP1 JUMP JUMPDEST PUSH1 0x0 DUP3 DUP3 LT ISZERO PUSH2 0x1521 JUMPI PUSH2 0x1521 PUSH2 0x157D JUMP JUMPDEST POP SUB SWAP1 JUMP JUMPDEST PUSH1 0x1 DUP2 DUP2 SHR SWAP1 DUP3 AND DUP1 PUSH2 0x153A JUMPI PUSH1 0x7F DUP3 AND SWAP2 POP JUMPDEST PUSH1 0x20 DUP3 LT DUP2 EQ ISZERO PUSH2 0x908 JUMPI PUSH4 0x4E487B71 PUSH1 0xE0 SHL PUSH1 0x0 MSTORE PUSH1 0x22 PUSH1 0x4 MSTORE PUSH1 0x24 PUSH1 0x0 REVERT JUMPDEST PUSH1 0x0 DUP3 PUSH2 0x1578 JUMPI PUSH4 0x4E487B71 PUSH1 0xE0 SHL PUSH1 0x0 MSTORE PUSH1 0x12 PUSH1 0x4 MSTORE PUSH1 0x24 PUSH1 0x0 REVERT JUMPDEST POP MOD SWAP1 JUMP JUMPDEST PUSH4 0x4E487B71 PUSH1 0xE0 SHL PUSH1 0x0 MSTORE PUSH1 0x11 PUSH1 0x4 MSTORE PUSH1 0x24 PUSH1 0x0 REVERT JUMPDEST PUSH4 0x4E487B71 PUSH1 0xE0 SHL PUSH1 0x0 MSTORE PUSH1 0x41 PUSH1 0x4 MSTORE PUSH1 0x24 PUSH1 0x0 REVERT INVALID SLOAD DUP4 PUSH11 0x2905A4C5BCFBA367BF7FB2 0xAA DUP5 0xD LOG1 POP CALLDATASIZE MULMOD 0xEB PUSH2 0x2075 COINBASE TIMESTAMP 0xDC MULMOD DUP11 AND 0xB3 LOG2 PUSH5 0x6970667358 0x22 SLT KECCAK256 DUP6 0xD9 0xDC 0xDE SWAP8 0xC2 LOG2 PUSH1 0x8E EXTCODESIZE REVERT PUSH27 0x1422B9D727C32D88181AAA7E7B8BB2DF2A4F184664736F6C634300 ADDMOD SMOD STOP CALLER ","sha1":"cb298b49cfd44af515427a42adaeeeab16f634cd","source":"//SPDX-License-Identifier: MIT\npragma solidity ^0.8.0;\n\nimport \"@chainlink/contracts/src/v0.8/ChainlinkClient.sol\";\nimport \"../interfaces/IERC20.sol\";\n\ncontract Consumer is ChainlinkClient {\n  using Chainlink for Chainlink.Request;\n\n  string public weapons;\n  string public attire;\n  string public accessories;\n  uint public fee = 1000;\n  mapping  (bytes32 => address) public idToUser;\n  mapping  (bytes32 => ItemSet) public idToItemSet;\n  mapping (address => ItemSet) public userToItems;\n  uint256 payment = 100000000000000;\n  bytes32 specId = \"b61b4d719ab04199882c6a8ac3c51861\";\n\n  struct ItemSet {\n    string theme;\n    string weapons;\n    string armor;\n    string accessories;\n  }\n\n  constructor(\n  ) {\n    setChainlinkToken(0xa36085F69e2889c224210F603D836748e7dC0088);\n    setChainlinkOracle(0x45Fd8dF7E9348b14AfC145599F719DbE27977Fd9);\n    \n  }\n\n  function requestBytes(string memory _prompt\n  )\n    public\n    returns (bytes32)\n  {\n    // require(msg.value >= fee, \"Include fee in transaction\");\n    // require(IERC20(0xa36085F69e2889c224210F603D836748e7dC0088).balanceOf(address(this)) >= payment, \"Not enough link\");\n    Chainlink.Request memory req = buildChainlinkRequest(specId, address(this), this.DOSOMETHINGHOLYFUCK.selector);\n    req.add(\"prompt\", _prompt);\n\n    // bytes32 reqId = sendChainlinkRequestTo(0x45Fd8dF7E9348b14AfC145599F719DbE27977Fd9, req, payment);\n    // idToUser[reqId] = msg.sender;\n    // requestOracleData(req, payment);\n    PLEASEWORK(req);\n  }\n\n  function PLEASEWORK(Chainlink.Request memory req) internal {\n    bytes32 reqId = requestOracleData(req, payment);\n    idToUser[reqId] = msg.sender;\n  }\n\n\n  event doSomethingPLEASE(bytes32 Id);\n\n  \n  function DOSOMETHINGHOLYFUCK(\n    bytes32 requestId,\n    bytes memory _weapons,\n    bytes memory _attire,\n    bytes memory _accessories\n  )\n    public\n    recordChainlinkFulfillment(requestId)\n  {\n    emit doSomethingPLEASE(requestId);\n    weapons = string(_weapons);\n    attire = string(_attire);\n    accessories = string(_accessories);\n    emit doSomethingPLEASE(requestId);\n    ItemSet memory items;\n    items.theme = \"\";\n    emit doSomethingPLEASE(requestId);\n    items.weapons = string(_weapons);\n    items.armor = string(_attire);\n    items.accessories = string(_accessories);\n    address requester = idToUser[requestId];\n    userToItems[requester] = items;\n    emit doSomethingPLEASE(requestId);\n    emit doSomethingPLEASE(requestId);\n\n  }\n \n  \n  function withdrawLink() public {\n    uint256 bal = IERC20(0xa36085F69e2889c224210F603D836748e7dC0088).balanceOf(address(this));\n    IERC20(0xa36085F69e2889c224210F603D836748e7dC0088).transfer(msg.sender, bal);\n  }\n  \n  receive() external payable {}\n\n}\n","sourcePath":"contracts/Consumer.sol","deployment":{"address":"0x5214CaF439c04404cE7Ac75D79ff27920D4CaCc4","chainid":"42","blockHeight":27485498}}