{"bytecode":"608060405260016004556103e8600a5534801561001b57600080fd5b50600280546001600160a01b03191673a36085f69e2889c224210f603d836748e7dc0088179055600380546001600160a01b0319167345fd8df7e9348b14afc145599f719dbe27977fd917905561126f806100776000396000f3fe60806040526004361061007f5760003560e01c80638dc654a21161004e5780638dc654a214610102578063ddca3f4314610117578063e3a7fd751461013b578063f5094c9d1461015057600080fd5b806324b67cff1461008b57806341a4a101146100b657806373d4a13a146100d85780637a7f01a7146100ed57600080fd5b3661008657005b600080fd5b34801561009757600080fd5b506100a0610170565b6040516100ad919061103e565b60405180910390f35b3480156100c257600080fd5b506100d66100d1366004610e98565b6101fe565b005b3480156100e457600080fd5b506100a0610365565b3480156100f957600080fd5b506100a0610372565b34801561010e57600080fd5b506100d661037f565b34801561012357600080fd5b5061012d600a5481565b6040519081526020016100ad565b34801561014757600080fd5b506100a0610496565b34801561015c57600080fd5b506100d661016b366004610f05565b6104a3565b6009805461017d906111b6565b80601f01602080910402602001604051908101604052809291908181526020018280546101a9906111b6565b80156101f65780601f106101cb576101008083540402835291602001916101f6565b820191906000526020600020905b8154815290600101906020018083116101d957829003601f168201915b505050505081565b60008381526005602052604090205483906001600160a01b0316331461027c5760405162461bcd60e51b815260206004820152602860248201527f536f75726365206d75737420626520746865206f7261636c65206f6620746865604482015267081c995c5d595cdd60c21b60648201526084015b60405180910390fd5b60008181526005602052604080822080546001600160a01b03191690555182917f7cc135e0cebb02c3480ae5d74d377283180a2601f8f644edf7987b009316c63a91a2826040516102cd9190610f93565b6040519081900381209085907f1a111c5dcf9a71088bd5e1797fdfaf399fec2afbb24aca247e4e3e9f4b61df9190600090a38251610312906006906020860190610c8a565b508151610326906007906020850190610c8a565b5060066008908054610337906111b6565b610342929190610d0e565b5060076009908054610353906111b6565b61035e929190610d0e565b5050505050565b6006805461017d906111b6565b6008805461017d906111b6565b6040516370a0823160e01b815230600482015260009073a36085f69e2889c224210f603d836748e7dc0088906370a082319060240160206040518083038186803b1580156103cc57600080fd5b505afa1580156103e0573d6000803e3d6000fd5b505050506040513d601f19601f820116820180604052508101906104049190610f4e565b60405163a9059cbb60e01b81523360048201526024810182905290915073a36085f69e2889c224210f603d836748e7dc00889063a9059cbb90604401602060405180830381600087803b15801561045a57600080fd5b505af115801561046e573d6000803e3d6000fd5b505050506040513d601f19601f820116820180604052508101906104929190610e6f565b5050565b6007805461017d906111b6565b6040516370a0823160e01b81523060048201527f633466373138376436303461343537343961383164626636373432316131646590655af3107a400090819073a36085f69e2889c224210f603d836748e7dc0088906370a082319060240160206040518083038186803b15801561051957600080fd5b505afa15801561052d573d6000803e3d6000fd5b505050506040513d601f19601f820116820180604052508101906105519190610f4e565b10156105915760405162461bcd60e51b815260206004820152600f60248201526e4e6f7420656e6f756768206c696e6b60881b6044820152606401610273565b60006105a583306341a4a10160e01b6105e5565b6040805180820190915260068152651c1c9bdb5c1d60d21b60208201529091506105d19082908661060a565b60006105dd828461062d565b505050505050565b6105ed610d89565b6105f5610d89565b61060181868686610650565b95945050505050565b6080830151610619908361068d565b6080830151610628908261068d565b505050565b600354600090610647906001600160a01b031684846106a4565b90505b92915050565b610658610d89565b61066885608001516101006106c3565b50509183526001600160a01b031660208301526001600160e01b031916604082015290565b61069a8260038351610728565b61062882826107fc565b60006106bb84848460026336f43ceb60e11b610823565b949350505050565b6040805180820190915260608152600060208201526106e36020836111eb565b1561070b576106f36020836111eb565b6106fe906020611173565b6107089083611051565b91505b506020828101829052604080518085526000815290920101905290565b60178111610749576107438360e0600585901b168317610a2f565b50505050565b60ff811161077357610766836018611fe0600586901b1617610a2f565b5061074383826001610a54565b61ffff811161079e57610791836019611fe0600586901b1617610a2f565b5061074383826002610a54565b63ffffffff81116107cb576107be83601a611fe0600586901b1617610a2f565b5061074383826004610a54565b67ffffffffffffffff8111610628576107ef83601b611fe0600586901b1617610a2f565b5061074383826008610a54565b60408051808201909152606081526000602082015261064783846000015151848551610a7a565b6004546040516bffffffffffffffffffffffff193060601b166020820152603481019190915260009060540160408051808303601f19018152918152815160209283012060045460608901526000818152600590935281832080546001600160a01b0319166001600160a01b038b16179055905190925082917fb5e6e01e79f91267dc17b4e6314d5d4d03593d2ceee0fbb452b750bd70ea5af991a2600082600080886000015189602001518a604001518b606001518a8d60800151600001516040516024016108fa989796959493929190610faf565b60408051601f198184030181529181526020820180516001600160e01b03166001600160e01b0319909416939093179092526002549151630200057560e51b81529092506001600160a01b0390911690634000aea090610962908a9089908690600401611017565b602060405180830381600087803b15801561097c57600080fd5b505af1158015610990573d6000803e3d6000fd5b505050506040513d601f19601f820116820180604052508101906109b49190610e6f565b610a0c5760405162461bcd60e51b815260206004820152602360248201527f756e61626c6520746f207472616e73666572416e6443616c6c20746f206f7261604482015262636c6560e81b6064820152608401610273565b600160046000828254610a1f9190611051565b9091555091979650505050505050565b6040805180820190915260608152600060208201526106478384600001515184610b7f565b6040805180820190915260608152600060208201526106bb848560000151518585610bdb565b6040805180820190915260608152600060208201528251821115610a9d57600080fd5b6020850151610aac8386611051565b1115610adf57610adf85610acf87602001518786610aca9190611051565b610c5c565b610ada906002611154565b610c73565b600080865180518760208301019350808887011115610afe5787860182525b505050602084015b60208410610b3e5780518252610b1d602083611051565b9150610b2a602082611051565b9050610b37602085611173565b9350610b06565b60006001610b4d866020611173565b610b59906101006110ac565b610b639190611173565b9151835183169219169190911790915250849050949350505050565b60408051808201909152606081526000602082015283602001518310610bb457610bb48485602001516002610ada9190611154565b835180516020858301018481535080851415610bd1576001810182525b5093949350505050565b6040805180820190915260608152600060208201526020850151610bff8584611051565b1115610c1357610c1385610acf8685611051565b60006001610c23846101006110ac565b610c2d9190611173565b9050855183868201018583198251161781525080518487011115610c515783860181525b509495945050505050565b600081831115610c6d57508161064a565b50919050565b8151610c7f83836106c3565b5061074383826107fc565b828054610c96906111b6565b90600052602060002090601f016020900481019282610cb85760008555610cfe565b82601f10610cd157805160ff1916838001178555610cfe565b82800160010185558215610cfe579182015b82811115610cfe578251825591602001919060010190610ce3565b50610d0a929150610dc4565b5090565b828054610d1a906111b6565b90600052602060002090601f016020900481019282610d3c5760008555610cfe565b82601f10610d4d5780548555610cfe565b82800160010185558215610cfe57600052602060002091601f016020900482015b82811115610cfe578254825591600101919060010190610d6e565b6040805160a0810182526000808252602080830182905282840182905260608084018390528451808601909552845283015290608082015290565b5b80821115610d0a5760008155600101610dc5565b600067ffffffffffffffff80841115610df457610df4611223565b604051601f8501601f19908116603f01168101908282118183101715610e1c57610e1c611223565b81604052809350858152868686011115610e3557600080fd5b858560208301376000602087830101525050509392505050565b600082601f830112610e6057600080fd5b61064783833560208501610dd9565b600060208284031215610e8157600080fd5b81518015158114610e9157600080fd5b9392505050565b600080600060608486031215610ead57600080fd5b83359250602084013567ffffffffffffffff80821115610ecc57600080fd5b610ed887838801610e4f565b93506040860135915080821115610eee57600080fd5b50610efb86828701610e4f565b9150509250925092565b600060208284031215610f1757600080fd5b813567ffffffffffffffff811115610f2e57600080fd5b8201601f81018413610f3f57600080fd5b6106bb84823560208401610dd9565b600060208284031215610f6057600080fd5b5051919050565b60008151808452610f7f81602086016020860161118a565b601f01601f19169290920160200192915050565b60008251610fa581846020870161118a565b9190910192915050565b6001600160a01b0389811682526020820189905260408201889052861660608201526001600160e01b03198516608082015260a0810184905260c0810183905261010060e0820181905260009061100883820185610f67565b9b9a5050505050505050505050565b60018060a01b03841681528260208201526060604082015260006106016060830184610f67565b6020815260006106476020830184610f67565b600082198211156110645761106461120d565b500190565b600181815b808511156110a457816000190482111561108a5761108a61120d565b8085161561109757918102915b93841c939080029061106e565b509250929050565b600061064783836000826110c25750600161064a565b816110cf5750600061064a565b81600181146110e557600281146110ef5761110b565b600191505061064a565b60ff8411156111005761110061120d565b50506001821b61064a565b5060208310610133831016604e8410600b841016171561112e575081810a61064a565b6111388383611069565b806000190482111561114c5761114c61120d565b029392505050565b600081600019048311821515161561116e5761116e61120d565b500290565b6000828210156111855761118561120d565b500390565b60005b838110156111a557818101518382015260200161118d565b838111156107435750506000910152565b600181811c908216806111ca57607f821691505b60208210811415610c6d57634e487b7160e01b600052602260045260246000fd5b60008261120857634e487b7160e01b600052601260045260246000fd5b500690565b634e487b7160e01b600052601160045260246000fd5b634e487b7160e01b600052604160045260246000fdfea2646970667358221220402c84add4fad0aa707d9962e6b2e0ec5bceda64859e5435634152ddd57c18ab64736f6c63430008070033","bytecodeSha1":"210cfd8005a2e71e2543445c51a10621da57609e","type":"contract","abi":[{"inputs":[],"stateMutability":"nonpayable","type":"constructor","name":"constructor"},{"anonymous":false,"inputs":[{"indexed":true,"internalType":"bytes32","name":"id","type":"bytes32"}],"name":"ChainlinkCancelled","type":"event"},{"anonymous":false,"inputs":[{"indexed":true,"internalType":"bytes32","name":"id","type":"bytes32"}],"name":"ChainlinkFulfilled","type":"event"},{"anonymous":false,"inputs":[{"indexed":true,"internalType":"bytes32","name":"id","type":"bytes32"}],"name":"ChainlinkRequested","type":"event"},{"anonymous":false,"inputs":[{"indexed":true,"internalType":"bytes32","name":"requestId","type":"bytes32"},{"indexed":true,"internalType":"bytes","name":"data","type":"bytes"}],"name":"RequestFulfilled","type":"event"},{"inputs":[],"name":"data","outputs":[{"internalType":"bytes","name":"","type":"bytes"}],"stateMutability":"view","type":"function"},{"inputs":[],"name":"data2","outputs":[{"internalType":"bytes","name":"","type":"bytes"}],"stateMutability":"view","type":"function"},{"inputs":[],"name":"fee","outputs":[{"internalType":"uint256","name":"","type":"uint256"}],"stateMutability":"view","type":"function"},{"inputs":[{"internalType":"bytes32","name":"requestId","type":"bytes32"},{"internalType":"bytes","name":"bytesData","type":"bytes"},{"internalType":"bytes","name":"bytesData2","type":"bytes"}],"name":"fulfillBytes","outputs":[],"stateMutability":"nonpayable","type":"function"},{"inputs":[{"internalType":"string","name":"_prompt","type":"string"}],"name":"requestBytes","outputs":[],"stateMutability":"nonpayable","type":"function"},{"inputs":[],"name":"response","outputs":[{"internalType":"string","name":"","type":"string"}],"stateMutability":"view","type":"function"},{"inputs":[],"name":"response2","outputs":[{"internalType":"string","name":"","type":"string"}],"stateMutability":"view","type":"function"},{"inputs":[],"name":"withdrawLink","outputs":[],"stateMutability":"nonpayable","type":"function"},{"stateMutability":"payable","type":"receive"}],"compiler":{"version":"0.8.7+commit.e28d00a7","evm_version":"istanbul","optimizer":{"enabled":true,"runs":200}},"contractName":"Consumer","language":"Solidity","natspec":{"methods":{"constructor":{"notice":"Initialize the link token and target oracle","details":"The oracle address must be an Operator contract for multiword response Kovan Testnet details:  Link Token: 0xa36085F69e2889c224210F603D836748e7dC0088 Oracle: "},"requestBytes(string)":{"notice":"Request variable bytes from the oracle"}},"kind":"dev","notice":"DO NOT USE THIS CODE IN PRODUCTION. This is an example contract. ","version":1},"opcodes":"PUSH1 0x80 PUSH1 0x40 MSTORE PUSH1 0x4 CALLDATASIZE LT PUSH2 0x7F JUMPI PUSH1 0x0 CALLDATALOAD PUSH1 0xE0 SHR DUP1 PUSH4 0x8DC654A2 GT PUSH2 0x4E JUMPI DUP1 PUSH4 0x8DC654A2 EQ PUSH2 0x102 JUMPI DUP1 PUSH4 0xDDCA3F43 EQ PUSH2 0x117 JUMPI DUP1 PUSH4 0xE3A7FD75 EQ PUSH2 0x13B JUMPI DUP1 PUSH4 0xF5094C9D EQ PUSH2 0x150 JUMPI PUSH1 0x0 DUP1 REVERT JUMPDEST DUP1 PUSH4 0x24B67CFF EQ PUSH2 0x8B JUMPI DUP1 PUSH4 0x41A4A101 EQ PUSH2 0xB6 JUMPI DUP1 PUSH4 0x73D4A13A EQ PUSH2 0xD8 JUMPI DUP1 PUSH4 0x7A7F01A7 EQ PUSH2 0xED JUMPI PUSH1 0x0 DUP1 REVERT JUMPDEST CALLDATASIZE PUSH2 0x86 JUMPI STOP JUMPDEST PUSH1 0x0 DUP1 REVERT JUMPDEST CALLVALUE DUP1 ISZERO PUSH2 0x97 JUMPI PUSH1 0x0 DUP1 REVERT JUMPDEST POP PUSH2 0xA0 PUSH2 0x170 JUMP JUMPDEST PUSH1 0x40 MLOAD PUSH2 0xAD SWAP2 SWAP1 PUSH2 0x103E JUMP JUMPDEST PUSH1 0x40 MLOAD DUP1 SWAP2 SUB SWAP1 RETURN JUMPDEST CALLVALUE DUP1 ISZERO PUSH2 0xC2 JUMPI PUSH1 0x0 DUP1 REVERT JUMPDEST POP PUSH2 0xD6 PUSH2 0xD1 CALLDATASIZE PUSH1 0x4 PUSH2 0xE98 JUMP JUMPDEST PUSH2 0x1FE JUMP JUMPDEST STOP JUMPDEST CALLVALUE DUP1 ISZERO PUSH2 0xE4 JUMPI PUSH1 0x0 DUP1 REVERT JUMPDEST POP PUSH2 0xA0 PUSH2 0x365 JUMP JUMPDEST CALLVALUE DUP1 ISZERO PUSH2 0xF9 JUMPI PUSH1 0x0 DUP1 REVERT JUMPDEST POP PUSH2 0xA0 PUSH2 0x372 JUMP JUMPDEST CALLVALUE DUP1 ISZERO PUSH2 0x10E JUMPI PUSH1 0x0 DUP1 REVERT JUMPDEST POP PUSH2 0xD6 PUSH2 0x37F JUMP JUMPDEST CALLVALUE DUP1 ISZERO PUSH2 0x123 JUMPI PUSH1 0x0 DUP1 REVERT JUMPDEST POP PUSH2 0x12D PUSH1 0xA SLOAD DUP2 JUMP JUMPDEST PUSH1 0x40 MLOAD SWAP1 DUP2 MSTORE PUSH1 0x20 ADD PUSH2 0xAD JUMP JUMPDEST CALLVALUE DUP1 ISZERO PUSH2 0x147 JUMPI PUSH1 0x0 DUP1 REVERT JUMPDEST POP PUSH2 0xA0 PUSH2 0x496 JUMP JUMPDEST CALLVALUE DUP1 ISZERO PUSH2 0x15C JUMPI PUSH1 0x0 DUP1 REVERT JUMPDEST POP PUSH2 0xD6 PUSH2 0x16B CALLDATASIZE PUSH1 0x4 PUSH2 0xF05 JUMP JUMPDEST PUSH2 0x4A3 JUMP JUMPDEST PUSH1 0x9 DUP1 SLOAD PUSH2 0x17D SWAP1 PUSH2 0x11B6 JUMP JUMPDEST DUP1 PUSH1 0x1F ADD PUSH1 0x20 DUP1 SWAP2 DIV MUL PUSH1 0x20 ADD PUSH1 0x40 MLOAD SWAP1 DUP2 ADD PUSH1 0x40 MSTORE DUP1 SWAP3 SWAP2 SWAP1 DUP2 DUP2 MSTORE PUSH1 0x20 ADD DUP3 DUP1 SLOAD PUSH2 0x1A9 SWAP1 PUSH2 0x11B6 JUMP JUMPDEST DUP1 ISZERO PUSH2 0x1F6 JUMPI DUP1 PUSH1 0x1F LT PUSH2 0x1CB JUMPI PUSH2 0x100 DUP1 DUP4 SLOAD DIV MUL DUP4 MSTORE SWAP2 PUSH1 0x20 ADD SWAP2 PUSH2 0x1F6 JUMP JUMPDEST DUP3 ADD SWAP2 SWAP1 PUSH1 0x0 MSTORE PUSH1 0x20 PUSH1 0x0 KECCAK256 SWAP1 JUMPDEST DUP2 SLOAD DUP2 MSTORE SWAP1 PUSH1 0x1 ADD SWAP1 PUSH1 0x20 ADD DUP1 DUP4 GT PUSH2 0x1D9 JUMPI DUP3 SWAP1 SUB PUSH1 0x1F AND DUP3 ADD SWAP2 JUMPDEST POP POP POP POP POP DUP2 JUMP JUMPDEST PUSH1 0x0 DUP4 DUP2 MSTORE PUSH1 0x5 PUSH1 0x20 MSTORE PUSH1 0x40 SWAP1 KECCAK256 SLOAD DUP4 SWAP1 PUSH1 0x1 PUSH1 0x1 PUSH1 0xA0 SHL SUB AND CALLER EQ PUSH2 0x27C JUMPI PUSH1 0x40 MLOAD PUSH3 0x461BCD PUSH1 0xE5 SHL DUP2 MSTORE PUSH1 0x20 PUSH1 0x4 DUP3 ADD MSTORE PUSH1 0x28 PUSH1 0x24 DUP3 ADD MSTORE PUSH32 0x536F75726365206D75737420626520746865206F7261636C65206F6620746865 PUSH1 0x44 DUP3 ADD MSTORE PUSH8 0x81C995C5D595CDD PUSH1 0xC2 SHL PUSH1 0x64 DUP3 ADD MSTORE PUSH1 0x84 ADD JUMPDEST PUSH1 0x40 MLOAD DUP1 SWAP2 SUB SWAP1 REVERT JUMPDEST PUSH1 0x0 DUP2 DUP2 MSTORE PUSH1 0x5 PUSH1 0x20 MSTORE PUSH1 0x40 DUP1 DUP3 KECCAK256 DUP1 SLOAD PUSH1 0x1 PUSH1 0x1 PUSH1 0xA0 SHL SUB NOT AND SWAP1 SSTORE MLOAD DUP3 SWAP2 PUSH32 0x7CC135E0CEBB02C3480AE5D74D377283180A2601F8F644EDF7987B009316C63A SWAP2 LOG2 DUP3 PUSH1 0x40 MLOAD PUSH2 0x2CD SWAP2 SWAP1 PUSH2 0xF93 JUMP JUMPDEST PUSH1 0x40 MLOAD SWAP1 DUP2 SWAP1 SUB DUP2 KECCAK256 SWAP1 DUP6 SWAP1 PUSH32 0x1A111C5DCF9A71088BD5E1797FDFAF399FEC2AFBB24ACA247E4E3E9F4B61DF91 SWAP1 PUSH1 0x0 SWAP1 LOG3 DUP3 MLOAD PUSH2 0x312 SWAP1 PUSH1 0x6 SWAP1 PUSH1 0x20 DUP7 ADD SWAP1 PUSH2 0xC8A JUMP JUMPDEST POP DUP2 MLOAD PUSH2 0x326 SWAP1 PUSH1 0x7 SWAP1 PUSH1 0x20 DUP6 ADD SWAP1 PUSH2 0xC8A JUMP JUMPDEST POP PUSH1 0x6 PUSH1 0x8 SWAP1 DUP1 SLOAD PUSH2 0x337 SWAP1 PUSH2 0x11B6 JUMP JUMPDEST PUSH2 0x342 SWAP3 SWAP2 SWAP1 PUSH2 0xD0E JUMP JUMPDEST POP PUSH1 0x7 PUSH1 0x9 SWAP1 DUP1 SLOAD PUSH2 0x353 SWAP1 PUSH2 0x11B6 JUMP JUMPDEST PUSH2 0x35E SWAP3 SWAP2 SWAP1 PUSH2 0xD0E JUMP JUMPDEST POP POP POP POP POP JUMP JUMPDEST PUSH1 0x6 DUP1 SLOAD PUSH2 0x17D SWAP1 PUSH2 0x11B6 JUMP JUMPDEST PUSH1 0x8 DUP1 SLOAD PUSH2 0x17D SWAP1 PUSH2 0x11B6 JUMP JUMPDEST PUSH1 0x40 MLOAD PUSH4 0x70A08231 PUSH1 0xE0 SHL DUP2 MSTORE ADDRESS PUSH1 0x4 DUP3 ADD MSTORE PUSH1 0x0 SWAP1 PUSH20 0xA36085F69E2889C224210F603D836748E7DC0088 SWAP1 PUSH4 0x70A08231 SWAP1 PUSH1 0x24 ADD PUSH1 0x20 PUSH1 0x40 MLOAD DUP1 DUP4 SUB DUP2 DUP7 DUP1 EXTCODESIZE ISZERO DUP1 ISZERO PUSH2 0x3CC JUMPI PUSH1 0x0 DUP1 REVERT JUMPDEST POP GAS STATICCALL ISZERO DUP1 ISZERO PUSH2 0x3E0 JUMPI RETURNDATASIZE PUSH1 0x0 DUP1 RETURNDATACOPY RETURNDATASIZE PUSH1 0x0 REVERT JUMPDEST POP POP POP POP PUSH1 0x40 MLOAD RETURNDATASIZE PUSH1 0x1F NOT PUSH1 0x1F DUP3 ADD AND DUP3 ADD DUP1 PUSH1 0x40 MSTORE POP DUP2 ADD SWAP1 PUSH2 0x404 SWAP2 SWAP1 PUSH2 0xF4E JUMP JUMPDEST PUSH1 0x40 MLOAD PUSH4 0xA9059CBB PUSH1 0xE0 SHL DUP2 MSTORE CALLER PUSH1 0x4 DUP3 ADD MSTORE PUSH1 0x24 DUP2 ADD DUP3 SWAP1 MSTORE SWAP1 SWAP2 POP PUSH20 0xA36085F69E2889C224210F603D836748E7DC0088 SWAP1 PUSH4 0xA9059CBB SWAP1 PUSH1 0x44 ADD PUSH1 0x20 PUSH1 0x40 MLOAD DUP1 DUP4 SUB DUP2 PUSH1 0x0 DUP8 DUP1 EXTCODESIZE ISZERO DUP1 ISZERO PUSH2 0x45A JUMPI PUSH1 0x0 DUP1 REVERT JUMPDEST POP GAS CALL ISZERO DUP1 ISZERO PUSH2 0x46E JUMPI RETURNDATASIZE PUSH1 0x0 DUP1 RETURNDATACOPY RETURNDATASIZE PUSH1 0x0 REVERT JUMPDEST POP POP POP POP PUSH1 0x40 MLOAD RETURNDATASIZE PUSH1 0x1F NOT PUSH1 0x1F DUP3 ADD AND DUP3 ADD DUP1 PUSH1 0x40 MSTORE POP DUP2 ADD SWAP1 PUSH2 0x492 SWAP2 SWAP1 PUSH2 0xE6F JUMP JUMPDEST POP POP JUMP JUMPDEST PUSH1 0x7 DUP1 SLOAD PUSH2 0x17D SWAP1 PUSH2 0x11B6 JUMP JUMPDEST PUSH1 0x40 MLOAD PUSH4 0x70A08231 PUSH1 0xE0 SHL DUP2 MSTORE ADDRESS PUSH1 0x4 DUP3 ADD MSTORE PUSH32 0x6334663731383764363034613435373439613831646266363734323161316465 SWAP1 PUSH6 0x5AF3107A4000 SWAP1 DUP2 SWAP1 PUSH20 0xA36085F69E2889C224210F603D836748E7DC0088 SWAP1 PUSH4 0x70A08231 SWAP1 PUSH1 0x24 ADD PUSH1 0x20 PUSH1 0x40 MLOAD DUP1 DUP4 SUB DUP2 DUP7 DUP1 EXTCODESIZE ISZERO DUP1 ISZERO PUSH2 0x519 JUMPI PUSH1 0x0 DUP1 REVERT JUMPDEST POP GAS STATICCALL ISZERO DUP1 ISZERO PUSH2 0x52D JUMPI RETURNDATASIZE PUSH1 0x0 DUP1 RETURNDATACOPY RETURNDATASIZE PUSH1 0x0 REVERT JUMPDEST POP POP POP POP PUSH1 0x40 MLOAD RETURNDATASIZE PUSH1 0x1F NOT PUSH1 0x1F DUP3 ADD AND DUP3 ADD DUP1 PUSH1 0x40 MSTORE POP DUP2 ADD SWAP1 PUSH2 0x551 SWAP2 SWAP1 PUSH2 0xF4E JUMP JUMPDEST LT ISZERO PUSH2 0x591 JUMPI PUSH1 0x40 MLOAD PUSH3 0x461BCD PUSH1 0xE5 SHL DUP2 MSTORE PUSH1 0x20 PUSH1 0x4 DUP3 ADD MSTORE PUSH1 0xF PUSH1 0x24 DUP3 ADD MSTORE PUSH15 0x4E6F7420656E6F756768206C696E6B PUSH1 0x88 SHL PUSH1 0x44 DUP3 ADD MSTORE PUSH1 0x64 ADD PUSH2 0x273 JUMP JUMPDEST PUSH1 0x0 PUSH2 0x5A5 DUP4 ADDRESS PUSH4 0x41A4A101 PUSH1 0xE0 SHL PUSH2 0x5E5 JUMP JUMPDEST PUSH1 0x40 DUP1 MLOAD DUP1 DUP3 ADD SWAP1 SWAP2 MSTORE PUSH1 0x6 DUP2 MSTORE PUSH6 0x1C1C9BDB5C1D PUSH1 0xD2 SHL PUSH1 0x20 DUP3 ADD MSTORE SWAP1 SWAP2 POP PUSH2 0x5D1 SWAP1 DUP3 SWAP1 DUP7 PUSH2 0x60A JUMP JUMPDEST PUSH1 0x0 PUSH2 0x5DD DUP3 DUP5 PUSH2 0x62D JUMP JUMPDEST POP POP POP POP POP POP JUMP JUMPDEST PUSH2 0x5ED PUSH2 0xD89 JUMP JUMPDEST PUSH2 0x5F5 PUSH2 0xD89 JUMP JUMPDEST PUSH2 0x601 DUP2 DUP7 DUP7 DUP7 PUSH2 0x650 JUMP JUMPDEST SWAP6 SWAP5 POP POP POP POP POP JUMP JUMPDEST PUSH1 0x80 DUP4 ADD MLOAD PUSH2 0x619 SWAP1 DUP4 PUSH2 0x68D JUMP JUMPDEST PUSH1 0x80 DUP4 ADD MLOAD PUSH2 0x628 SWAP1 DUP3 PUSH2 0x68D JUMP JUMPDEST POP POP POP JUMP JUMPDEST PUSH1 0x3 SLOAD PUSH1 0x0 SWAP1 PUSH2 0x647 SWAP1 PUSH1 0x1 PUSH1 0x1 PUSH1 0xA0 SHL SUB AND DUP5 DUP5 PUSH2 0x6A4 JUMP JUMPDEST SWAP1 POP JUMPDEST SWAP3 SWAP2 POP POP JUMP JUMPDEST PUSH2 0x658 PUSH2 0xD89 JUMP JUMPDEST PUSH2 0x668 DUP6 PUSH1 0x80 ADD MLOAD PUSH2 0x100 PUSH2 0x6C3 JUMP JUMPDEST POP POP SWAP2 DUP4 MSTORE PUSH1 0x1 PUSH1 0x1 PUSH1 0xA0 SHL SUB AND PUSH1 0x20 DUP4 ADD MSTORE PUSH1 0x1 PUSH1 0x1 PUSH1 0xE0 SHL SUB NOT AND PUSH1 0x40 DUP3 ADD MSTORE SWAP1 JUMP JUMPDEST PUSH2 0x69A DUP3 PUSH1 0x3 DUP4 MLOAD PUSH2 0x728 JUMP JUMPDEST PUSH2 0x628 DUP3 DUP3 PUSH2 0x7FC JUMP JUMPDEST PUSH1 0x0 PUSH2 0x6BB DUP5 DUP5 DUP5 PUSH1 0x2 PUSH4 0x36F43CEB PUSH1 0xE1 SHL PUSH2 0x823 JUMP JUMPDEST SWAP5 SWAP4 POP POP POP POP JUMP JUMPDEST PUSH1 0x40 DUP1 MLOAD DUP1 DUP3 ADD SWAP1 SWAP2 MSTORE PUSH1 0x60 DUP2 MSTORE PUSH1 0x0 PUSH1 0x20 DUP3 ADD MSTORE PUSH2 0x6E3 PUSH1 0x20 DUP4 PUSH2 0x11EB JUMP JUMPDEST ISZERO PUSH2 0x70B JUMPI PUSH2 0x6F3 PUSH1 0x20 DUP4 PUSH2 0x11EB JUMP JUMPDEST PUSH2 0x6FE SWAP1 PUSH1 0x20 PUSH2 0x1173 JUMP JUMPDEST PUSH2 0x708 SWAP1 DUP4 PUSH2 0x1051 JUMP JUMPDEST SWAP2 POP JUMPDEST POP PUSH1 0x20 DUP3 DUP2 ADD DUP3 SWAP1 MSTORE PUSH1 0x40 DUP1 MLOAD DUP1 DUP6 MSTORE PUSH1 0x0 DUP2 MSTORE SWAP1 SWAP3 ADD ADD SWAP1 MSTORE SWAP1 JUMP JUMPDEST PUSH1 0x17 DUP2 GT PUSH2 0x749 JUMPI PUSH2 0x743 DUP4 PUSH1 0xE0 PUSH1 0x5 DUP6 SWAP1 SHL AND DUP4 OR PUSH2 0xA2F JUMP JUMPDEST POP POP POP POP JUMP JUMPDEST PUSH1 0xFF DUP2 GT PUSH2 0x773 JUMPI PUSH2 0x766 DUP4 PUSH1 0x18 PUSH2 0x1FE0 PUSH1 0x5 DUP7 SWAP1 SHL AND OR PUSH2 0xA2F JUMP JUMPDEST POP PUSH2 0x743 DUP4 DUP3 PUSH1 0x1 PUSH2 0xA54 JUMP JUMPDEST PUSH2 0xFFFF DUP2 GT PUSH2 0x79E JUMPI PUSH2 0x791 DUP4 PUSH1 0x19 PUSH2 0x1FE0 PUSH1 0x5 DUP7 SWAP1 SHL AND OR PUSH2 0xA2F JUMP JUMPDEST POP PUSH2 0x743 DUP4 DUP3 PUSH1 0x2 PUSH2 0xA54 JUMP JUMPDEST PUSH4 0xFFFFFFFF DUP2 GT PUSH2 0x7CB JUMPI PUSH2 0x7BE DUP4 PUSH1 0x1A PUSH2 0x1FE0 PUSH1 0x5 DUP7 SWAP1 SHL AND OR PUSH2 0xA2F JUMP JUMPDEST POP PUSH2 0x743 DUP4 DUP3 PUSH1 0x4 PUSH2 0xA54 JUMP JUMPDEST PUSH8 0xFFFFFFFFFFFFFFFF DUP2 GT PUSH2 0x628 JUMPI PUSH2 0x7EF DUP4 PUSH1 0x1B PUSH2 0x1FE0 PUSH1 0x5 DUP7 SWAP1 SHL AND OR PUSH2 0xA2F JUMP JUMPDEST POP PUSH2 0x743 DUP4 DUP3 PUSH1 0x8 PUSH2 0xA54 JUMP JUMPDEST PUSH1 0x40 DUP1 MLOAD DUP1 DUP3 ADD SWAP1 SWAP2 MSTORE PUSH1 0x60 DUP2 MSTORE PUSH1 0x0 PUSH1 0x20 DUP3 ADD MSTORE PUSH2 0x647 DUP4 DUP5 PUSH1 0x0 ADD MLOAD MLOAD DUP5 DUP6 MLOAD PUSH2 0xA7A JUMP JUMPDEST PUSH1 0x4 SLOAD PUSH1 0x40 MLOAD PUSH12 0xFFFFFFFFFFFFFFFFFFFFFFFF NOT ADDRESS PUSH1 0x60 SHL AND PUSH1 0x20 DUP3 ADD MSTORE PUSH1 0x34 DUP2 ADD SWAP2 SWAP1 SWAP2 MSTORE PUSH1 0x0 SWAP1 PUSH1 0x54 ADD PUSH1 0x40 DUP1 MLOAD DUP1 DUP4 SUB PUSH1 0x1F NOT ADD DUP2 MSTORE SWAP2 DUP2 MSTORE DUP2 MLOAD PUSH1 0x20 SWAP3 DUP4 ADD KECCAK256 PUSH1 0x4 SLOAD PUSH1 0x60 DUP10 ADD MSTORE PUSH1 0x0 DUP2 DUP2 MSTORE PUSH1 0x5 SWAP1 SWAP4 MSTORE DUP2 DUP4 KECCAK256 DUP1 SLOAD PUSH1 0x1 PUSH1 0x1 PUSH1 0xA0 SHL SUB NOT AND PUSH1 0x1 PUSH1 0x1 PUSH1 0xA0 SHL SUB DUP12 AND OR SWAP1 SSTORE SWAP1 MLOAD SWAP1 SWAP3 POP DUP3 SWAP2 PUSH32 0xB5E6E01E79F91267DC17B4E6314D5D4D03593D2CEEE0FBB452B750BD70EA5AF9 SWAP2 LOG2 PUSH1 0x0 DUP3 PUSH1 0x0 DUP1 DUP9 PUSH1 0x0 ADD MLOAD DUP10 PUSH1 0x20 ADD MLOAD DUP11 PUSH1 0x40 ADD MLOAD DUP12 PUSH1 0x60 ADD MLOAD DUP11 DUP14 PUSH1 0x80 ADD MLOAD PUSH1 0x0 ADD MLOAD PUSH1 0x40 MLOAD PUSH1 0x24 ADD PUSH2 0x8FA SWAP9 SWAP8 SWAP7 SWAP6 SWAP5 SWAP4 SWAP3 SWAP2 SWAP1 PUSH2 0xFAF JUMP JUMPDEST PUSH1 0x40 DUP1 MLOAD PUSH1 0x1F NOT DUP2 DUP5 SUB ADD DUP2 MSTORE SWAP2 DUP2 MSTORE PUSH1 0x20 DUP3 ADD DUP1 MLOAD PUSH1 0x1 PUSH1 0x1 PUSH1 0xE0 SHL SUB AND PUSH1 0x1 PUSH1 0x1 PUSH1 0xE0 SHL SUB NOT SWAP1 SWAP5 AND SWAP4 SWAP1 SWAP4 OR SWAP1 SWAP3 MSTORE PUSH1 0x2 SLOAD SWAP2 MLOAD PUSH4 0x2000575 PUSH1 0xE5 SHL DUP2 MSTORE SWAP1 SWAP3 POP PUSH1 0x1 PUSH1 0x1 PUSH1 0xA0 SHL SUB SWAP1 SWAP2 AND SWAP1 PUSH4 0x4000AEA0 SWAP1 PUSH2 0x962 SWAP1 DUP11 SWAP1 DUP10 SWAP1 DUP7 SWAP1 PUSH1 0x4 ADD PUSH2 0x1017 JUMP JUMPDEST PUSH1 0x20 PUSH1 0x40 MLOAD DUP1 DUP4 SUB DUP2 PUSH1 0x0 DUP8 DUP1 EXTCODESIZE ISZERO DUP1 ISZERO PUSH2 0x97C JUMPI PUSH1 0x0 DUP1 REVERT JUMPDEST POP GAS CALL ISZERO DUP1 ISZERO PUSH2 0x990 JUMPI RETURNDATASIZE PUSH1 0x0 DUP1 RETURNDATACOPY RETURNDATASIZE PUSH1 0x0 REVERT JUMPDEST POP POP POP POP PUSH1 0x40 MLOAD RETURNDATASIZE PUSH1 0x1F NOT PUSH1 0x1F DUP3 ADD AND DUP3 ADD DUP1 PUSH1 0x40 MSTORE POP DUP2 ADD SWAP1 PUSH2 0x9B4 SWAP2 SWAP1 PUSH2 0xE6F JUMP JUMPDEST PUSH2 0xA0C JUMPI PUSH1 0x40 MLOAD PUSH3 0x461BCD PUSH1 0xE5 SHL DUP2 MSTORE PUSH1 0x20 PUSH1 0x4 DUP3 ADD MSTORE PUSH1 0x23 PUSH1 0x24 DUP3 ADD MSTORE PUSH32 0x756E61626C6520746F207472616E73666572416E6443616C6C20746F206F7261 PUSH1 0x44 DUP3 ADD MSTORE PUSH3 0x636C65 PUSH1 0xE8 SHL PUSH1 0x64 DUP3 ADD MSTORE PUSH1 0x84 ADD PUSH2 0x273 JUMP JUMPDEST PUSH1 0x1 PUSH1 0x4 PUSH1 0x0 DUP3 DUP3 SLOAD PUSH2 0xA1F SWAP2 SWAP1 PUSH2 0x1051 JUMP JUMPDEST SWAP1 SWAP2 SSTORE POP SWAP2 SWAP8 SWAP7 POP POP POP POP POP POP POP JUMP JUMPDEST PUSH1 0x40 DUP1 MLOAD DUP1 DUP3 ADD SWAP1 SWAP2 MSTORE PUSH1 0x60 DUP2 MSTORE PUSH1 0x0 PUSH1 0x20 DUP3 ADD MSTORE PUSH2 0x647 DUP4 DUP5 PUSH1 0x0 ADD MLOAD MLOAD DUP5 PUSH2 0xB7F JUMP JUMPDEST PUSH1 0x40 DUP1 MLOAD DUP1 DUP3 ADD SWAP1 SWAP2 MSTORE PUSH1 0x60 DUP2 MSTORE PUSH1 0x0 PUSH1 0x20 DUP3 ADD MSTORE PUSH2 0x6BB DUP5 DUP6 PUSH1 0x0 ADD MLOAD MLOAD DUP6 DUP6 PUSH2 0xBDB JUMP JUMPDEST PUSH1 0x40 DUP1 MLOAD DUP1 DUP3 ADD SWAP1 SWAP2 MSTORE PUSH1 0x60 DUP2 MSTORE PUSH1 0x0 PUSH1 0x20 DUP3 ADD MSTORE DUP3 MLOAD DUP3 GT ISZERO PUSH2 0xA9D JUMPI PUSH1 0x0 DUP1 REVERT JUMPDEST PUSH1 0x20 DUP6 ADD MLOAD PUSH2 0xAAC DUP4 DUP7 PUSH2 0x1051 JUMP JUMPDEST GT ISZERO PUSH2 0xADF JUMPI PUSH2 0xADF DUP6 PUSH2 0xACF DUP8 PUSH1 0x20 ADD MLOAD DUP8 DUP7 PUSH2 0xACA SWAP2 SWAP1 PUSH2 0x1051 JUMP JUMPDEST PUSH2 0xC5C JUMP JUMPDEST PUSH2 0xADA SWAP1 PUSH1 0x2 PUSH2 0x1154 JUMP JUMPDEST PUSH2 0xC73 JUMP JUMPDEST PUSH1 0x0 DUP1 DUP7 MLOAD DUP1 MLOAD DUP8 PUSH1 0x20 DUP4 ADD ADD SWAP4 POP DUP1 DUP9 DUP8 ADD GT ISZERO PUSH2 0xAFE JUMPI DUP8 DUP7 ADD DUP3 MSTORE JUMPDEST POP POP POP PUSH1 0x20 DUP5 ADD JUMPDEST PUSH1 0x20 DUP5 LT PUSH2 0xB3E JUMPI DUP1 MLOAD DUP3 MSTORE PUSH2 0xB1D PUSH1 0x20 DUP4 PUSH2 0x1051 JUMP JUMPDEST SWAP2 POP PUSH2 0xB2A PUSH1 0x20 DUP3 PUSH2 0x1051 JUMP JUMPDEST SWAP1 POP PUSH2 0xB37 PUSH1 0x20 DUP6 PUSH2 0x1173 JUMP JUMPDEST SWAP4 POP PUSH2 0xB06 JUMP JUMPDEST PUSH1 0x0 PUSH1 0x1 PUSH2 0xB4D DUP7 PUSH1 0x20 PUSH2 0x1173 JUMP JUMPDEST PUSH2 0xB59 SWAP1 PUSH2 0x100 PUSH2 0x10AC JUMP JUMPDEST PUSH2 0xB63 SWAP2 SWAP1 PUSH2 0x1173 JUMP JUMPDEST SWAP2 MLOAD DUP4 MLOAD DUP4 AND SWAP3 NOT AND SWAP2 SWAP1 SWAP2 OR SWAP1 SWAP2 MSTORE POP DUP5 SWAP1 POP SWAP5 SWAP4 POP POP POP POP JUMP JUMPDEST PUSH1 0x40 DUP1 MLOAD DUP1 DUP3 ADD SWAP1 SWAP2 MSTORE PUSH1 0x60 DUP2 MSTORE PUSH1 0x0 PUSH1 0x20 DUP3 ADD MSTORE DUP4 PUSH1 0x20 ADD MLOAD DUP4 LT PUSH2 0xBB4 JUMPI PUSH2 0xBB4 DUP5 DUP6 PUSH1 0x20 ADD MLOAD PUSH1 0x2 PUSH2 0xADA SWAP2 SWAP1 PUSH2 0x1154 JUMP JUMPDEST DUP4 MLOAD DUP1 MLOAD PUSH1 0x20 DUP6 DUP4 ADD ADD DUP5 DUP2 MSTORE8 POP DUP1 DUP6 EQ ISZERO PUSH2 0xBD1 JUMPI PUSH1 0x1 DUP2 ADD DUP3 MSTORE JUMPDEST POP SWAP4 SWAP5 SWAP4 POP POP POP POP JUMP JUMPDEST PUSH1 0x40 DUP1 MLOAD DUP1 DUP3 ADD SWAP1 SWAP2 MSTORE PUSH1 0x60 DUP2 MSTORE PUSH1 0x0 PUSH1 0x20 DUP3 ADD MSTORE PUSH1 0x20 DUP6 ADD MLOAD PUSH2 0xBFF DUP6 DUP5 PUSH2 0x1051 JUMP JUMPDEST GT ISZERO PUSH2 0xC13 JUMPI PUSH2 0xC13 DUP6 PUSH2 0xACF DUP7 DUP6 PUSH2 0x1051 JUMP JUMPDEST PUSH1 0x0 PUSH1 0x1 PUSH2 0xC23 DUP5 PUSH2 0x100 PUSH2 0x10AC JUMP JUMPDEST PUSH2 0xC2D SWAP2 SWAP1 PUSH2 0x1173 JUMP JUMPDEST SWAP1 POP DUP6 MLOAD DUP4 DUP7 DUP3 ADD ADD DUP6 DUP4 NOT DUP3 MLOAD AND OR DUP2 MSTORE POP DUP1 MLOAD DUP5 DUP8 ADD GT ISZERO PUSH2 0xC51 JUMPI DUP4 DUP7 ADD DUP2 MSTORE JUMPDEST POP SWAP5 SWAP6 SWAP5 POP POP POP POP POP JUMP JUMPDEST PUSH1 0x0 DUP2 DUP4 GT ISZERO PUSH2 0xC6D JUMPI POP DUP2 PUSH2 0x64A JUMP JUMPDEST POP SWAP2 SWAP1 POP JUMP JUMPDEST DUP2 MLOAD PUSH2 0xC7F DUP4 DUP4 PUSH2 0x6C3 JUMP JUMPDEST POP PUSH2 0x743 DUP4 DUP3 PUSH2 0x7FC JUMP JUMPDEST DUP3 DUP1 SLOAD PUSH2 0xC96 SWAP1 PUSH2 0x11B6 JUMP JUMPDEST SWAP1 PUSH1 0x0 MSTORE PUSH1 0x20 PUSH1 0x0 KECCAK256 SWAP1 PUSH1 0x1F ADD PUSH1 0x20 SWAP1 DIV DUP2 ADD SWAP3 DUP3 PUSH2 0xCB8 JUMPI PUSH1 0x0 DUP6 SSTORE PUSH2 0xCFE JUMP JUMPDEST DUP3 PUSH1 0x1F LT PUSH2 0xCD1 JUMPI DUP1 MLOAD PUSH1 0xFF NOT AND DUP4 DUP1 ADD OR DUP6 SSTORE PUSH2 0xCFE JUMP JUMPDEST DUP3 DUP1 ADD PUSH1 0x1 ADD DUP6 SSTORE DUP3 ISZERO PUSH2 0xCFE JUMPI SWAP2 DUP3 ADD JUMPDEST DUP3 DUP2 GT ISZERO PUSH2 0xCFE JUMPI DUP3 MLOAD DUP3 SSTORE SWAP2 PUSH1 0x20 ADD SWAP2 SWAP1 PUSH1 0x1 ADD SWAP1 PUSH2 0xCE3 JUMP JUMPDEST POP PUSH2 0xD0A SWAP3 SWAP2 POP PUSH2 0xDC4 JUMP JUMPDEST POP SWAP1 JUMP JUMPDEST DUP3 DUP1 SLOAD PUSH2 0xD1A SWAP1 PUSH2 0x11B6 JUMP JUMPDEST SWAP1 PUSH1 0x0 MSTORE PUSH1 0x20 PUSH1 0x0 KECCAK256 SWAP1 PUSH1 0x1F ADD PUSH1 0x20 SWAP1 DIV DUP2 ADD SWAP3 DUP3 PUSH2 0xD3C JUMPI PUSH1 0x0 DUP6 SSTORE PUSH2 0xCFE JUMP JUMPDEST DUP3 PUSH1 0x1F LT PUSH2 0xD4D JUMPI DUP1 SLOAD DUP6 SSTORE PUSH2 0xCFE JUMP JUMPDEST DUP3 DUP1 ADD PUSH1 0x1 ADD DUP6 SSTORE DUP3 ISZERO PUSH2 0xCFE JUMPI PUSH1 0x0 MSTORE PUSH1 0x20 PUSH1 0x0 KECCAK256 SWAP2 PUSH1 0x1F ADD PUSH1 0x20 SWAP1 DIV DUP3 ADD JUMPDEST DUP3 DUP2 GT ISZERO PUSH2 0xCFE JUMPI DUP3 SLOAD DUP3 SSTORE SWAP2 PUSH1 0x1 ADD SWAP2 SWAP1 PUSH1 0x1 ADD SWAP1 PUSH2 0xD6E JUMP JUMPDEST PUSH1 0x40 DUP1 MLOAD PUSH1 0xA0 DUP2 ADD DUP3 MSTORE PUSH1 0x0 DUP1 DUP3 MSTORE PUSH1 0x20 DUP1 DUP4 ADD DUP3 SWAP1 MSTORE DUP3 DUP5 ADD DUP3 SWAP1 MSTORE PUSH1 0x60 DUP1 DUP5 ADD DUP4 SWAP1 MSTORE DUP5 MLOAD DUP1 DUP7 ADD SWAP1 SWAP6 MSTORE DUP5 MSTORE DUP4 ADD MSTORE SWAP1 PUSH1 0x80 DUP3 ADD MSTORE SWAP1 JUMP JUMPDEST JUMPDEST DUP1 DUP3 GT ISZERO PUSH2 0xD0A JUMPI PUSH1 0x0 DUP2 SSTORE PUSH1 0x1 ADD PUSH2 0xDC5 JUMP JUMPDEST PUSH1 0x0 PUSH8 0xFFFFFFFFFFFFFFFF DUP1 DUP5 GT ISZERO PUSH2 0xDF4 JUMPI PUSH2 0xDF4 PUSH2 0x1223 JUMP JUMPDEST PUSH1 0x40 MLOAD PUSH1 0x1F DUP6 ADD PUSH1 0x1F NOT SWAP1 DUP2 AND PUSH1 0x3F ADD AND DUP2 ADD SWAP1 DUP3 DUP3 GT DUP2 DUP4 LT OR ISZERO PUSH2 0xE1C JUMPI PUSH2 0xE1C PUSH2 0x1223 JUMP JUMPDEST DUP2 PUSH1 0x40 MSTORE DUP1 SWAP4 POP DUP6 DUP2 MSTORE DUP7 DUP7 DUP7 ADD GT ISZERO PUSH2 0xE35 JUMPI PUSH1 0x0 DUP1 REVERT JUMPDEST DUP6 DUP6 PUSH1 0x20 DUP4 ADD CALLDATACOPY PUSH1 0x0 PUSH1 0x20 DUP8 DUP4 ADD ADD MSTORE POP POP POP SWAP4 SWAP3 POP POP POP JUMP JUMPDEST PUSH1 0x0 DUP3 PUSH1 0x1F DUP4 ADD SLT PUSH2 0xE60 JUMPI PUSH1 0x0 DUP1 REVERT JUMPDEST PUSH2 0x647 DUP4 DUP4 CALLDATALOAD PUSH1 0x20 DUP6 ADD PUSH2 0xDD9 JUMP JUMPDEST PUSH1 0x0 PUSH1 0x20 DUP3 DUP5 SUB SLT ISZERO PUSH2 0xE81 JUMPI PUSH1 0x0 DUP1 REVERT JUMPDEST DUP2 MLOAD DUP1 ISZERO ISZERO DUP2 EQ PUSH2 0xE91 JUMPI PUSH1 0x0 DUP1 REVERT JUMPDEST SWAP4 SWAP3 POP POP POP JUMP JUMPDEST PUSH1 0x0 DUP1 PUSH1 0x0 PUSH1 0x60 DUP5 DUP7 SUB SLT ISZERO PUSH2 0xEAD JUMPI PUSH1 0x0 DUP1 REVERT JUMPDEST DUP4 CALLDATALOAD SWAP3 POP PUSH1 0x20 DUP5 ADD CALLDATALOAD PUSH8 0xFFFFFFFFFFFFFFFF DUP1 DUP3 GT ISZERO PUSH2 0xECC JUMPI PUSH1 0x0 DUP1 REVERT JUMPDEST PUSH2 0xED8 DUP8 DUP4 DUP9 ADD PUSH2 0xE4F JUMP JUMPDEST SWAP4 POP PUSH1 0x40 DUP7 ADD CALLDATALOAD SWAP2 POP DUP1 DUP3 GT ISZERO PUSH2 0xEEE JUMPI PUSH1 0x0 DUP1 REVERT JUMPDEST POP PUSH2 0xEFB DUP7 DUP3 DUP8 ADD PUSH2 0xE4F JUMP JUMPDEST SWAP2 POP POP SWAP3 POP SWAP3 POP SWAP3 JUMP JUMPDEST PUSH1 0x0 PUSH1 0x20 DUP3 DUP5 SUB SLT ISZERO PUSH2 0xF17 JUMPI PUSH1 0x0 DUP1 REVERT JUMPDEST DUP2 CALLDATALOAD PUSH8 0xFFFFFFFFFFFFFFFF DUP2 GT ISZERO PUSH2 0xF2E JUMPI PUSH1 0x0 DUP1 REVERT JUMPDEST DUP3 ADD PUSH1 0x1F DUP2 ADD DUP5 SGT PUSH2 0xF3F JUMPI PUSH1 0x0 DUP1 REVERT JUMPDEST PUSH2 0x6BB DUP5 DUP3 CALLDATALOAD PUSH1 0x20 DUP5 ADD PUSH2 0xDD9 JUMP JUMPDEST PUSH1 0x0 PUSH1 0x20 DUP3 DUP5 SUB SLT ISZERO PUSH2 0xF60 JUMPI PUSH1 0x0 DUP1 REVERT JUMPDEST POP MLOAD SWAP2 SWAP1 POP JUMP JUMPDEST PUSH1 0x0 DUP2 MLOAD DUP1 DUP5 MSTORE PUSH2 0xF7F DUP2 PUSH1 0x20 DUP7 ADD PUSH1 0x20 DUP7 ADD PUSH2 0x118A JUMP JUMPDEST PUSH1 0x1F ADD PUSH1 0x1F NOT AND SWAP3 SWAP1 SWAP3 ADD PUSH1 0x20 ADD SWAP3 SWAP2 POP POP JUMP JUMPDEST PUSH1 0x0 DUP3 MLOAD PUSH2 0xFA5 DUP2 DUP5 PUSH1 0x20 DUP8 ADD PUSH2 0x118A JUMP JUMPDEST SWAP2 SWAP1 SWAP2 ADD SWAP3 SWAP2 POP POP JUMP JUMPDEST PUSH1 0x1 PUSH1 0x1 PUSH1 0xA0 SHL SUB DUP10 DUP2 AND DUP3 MSTORE PUSH1 0x20 DUP3 ADD DUP10 SWAP1 MSTORE PUSH1 0x40 DUP3 ADD DUP9 SWAP1 MSTORE DUP7 AND PUSH1 0x60 DUP3 ADD MSTORE PUSH1 0x1 PUSH1 0x1 PUSH1 0xE0 SHL SUB NOT DUP6 AND PUSH1 0x80 DUP3 ADD MSTORE PUSH1 0xA0 DUP2 ADD DUP5 SWAP1 MSTORE PUSH1 0xC0 DUP2 ADD DUP4 SWAP1 MSTORE PUSH2 0x100 PUSH1 0xE0 DUP3 ADD DUP2 SWAP1 MSTORE PUSH1 0x0 SWAP1 PUSH2 0x1008 DUP4 DUP3 ADD DUP6 PUSH2 0xF67 JUMP JUMPDEST SWAP12 SWAP11 POP POP POP POP POP POP POP POP POP POP POP JUMP JUMPDEST PUSH1 0x1 DUP1 PUSH1 0xA0 SHL SUB DUP5 AND DUP2 MSTORE DUP3 PUSH1 0x20 DUP3 ADD MSTORE PUSH1 0x60 PUSH1 0x40 DUP3 ADD MSTORE PUSH1 0x0 PUSH2 0x601 PUSH1 0x60 DUP4 ADD DUP5 PUSH2 0xF67 JUMP JUMPDEST PUSH1 0x20 DUP2 MSTORE PUSH1 0x0 PUSH2 0x647 PUSH1 0x20 DUP4 ADD DUP5 PUSH2 0xF67 JUMP JUMPDEST PUSH1 0x0 DUP3 NOT DUP3 GT ISZERO PUSH2 0x1064 JUMPI PUSH2 0x1064 PUSH2 0x120D JUMP JUMPDEST POP ADD SWAP1 JUMP JUMPDEST PUSH1 0x1 DUP2 DUP2 JUMPDEST DUP1 DUP6 GT ISZERO PUSH2 0x10A4 JUMPI DUP2 PUSH1 0x0 NOT DIV DUP3 GT ISZERO PUSH2 0x108A JUMPI PUSH2 0x108A PUSH2 0x120D JUMP JUMPDEST DUP1 DUP6 AND ISZERO PUSH2 0x1097 JUMPI SWAP2 DUP2 MUL SWAP2 JUMPDEST SWAP4 DUP5 SHR SWAP4 SWAP1 DUP1 MUL SWAP1 PUSH2 0x106E JUMP JUMPDEST POP SWAP3 POP SWAP3 SWAP1 POP JUMP JUMPDEST PUSH1 0x0 PUSH2 0x647 DUP4 DUP4 PUSH1 0x0 DUP3 PUSH2 0x10C2 JUMPI POP PUSH1 0x1 PUSH2 0x64A JUMP JUMPDEST DUP2 PUSH2 0x10CF JUMPI POP PUSH1 0x0 PUSH2 0x64A JUMP JUMPDEST DUP2 PUSH1 0x1 DUP2 EQ PUSH2 0x10E5 JUMPI PUSH1 0x2 DUP2 EQ PUSH2 0x10EF JUMPI PUSH2 0x110B JUMP JUMPDEST PUSH1 0x1 SWAP2 POP POP PUSH2 0x64A JUMP JUMPDEST PUSH1 0xFF DUP5 GT ISZERO PUSH2 0x1100 JUMPI PUSH2 0x1100 PUSH2 0x120D JUMP JUMPDEST POP POP PUSH1 0x1 DUP3 SHL PUSH2 0x64A JUMP JUMPDEST POP PUSH1 0x20 DUP4 LT PUSH2 0x133 DUP4 LT AND PUSH1 0x4E DUP5 LT PUSH1 0xB DUP5 LT AND OR ISZERO PUSH2 0x112E JUMPI POP DUP2 DUP2 EXP PUSH2 0x64A JUMP JUMPDEST PUSH2 0x1138 DUP4 DUP4 PUSH2 0x1069 JUMP JUMPDEST DUP1 PUSH1 0x0 NOT DIV DUP3 GT ISZERO PUSH2 0x114C JUMPI PUSH2 0x114C PUSH2 0x120D JUMP JUMPDEST MUL SWAP4 SWAP3 POP POP POP JUMP JUMPDEST PUSH1 0x0 DUP2 PUSH1 0x0 NOT DIV DUP4 GT DUP3 ISZERO ISZERO AND ISZERO PUSH2 0x116E JUMPI PUSH2 0x116E PUSH2 0x120D JUMP JUMPDEST POP MUL SWAP1 JUMP JUMPDEST PUSH1 0x0 DUP3 DUP3 LT ISZERO PUSH2 0x1185 JUMPI PUSH2 0x1185 PUSH2 0x120D JUMP JUMPDEST POP SUB SWAP1 JUMP JUMPDEST PUSH1 0x0 JUMPDEST DUP4 DUP2 LT ISZERO PUSH2 0x11A5 JUMPI DUP2 DUP2 ADD MLOAD DUP4 DUP3 ADD MSTORE PUSH1 0x20 ADD PUSH2 0x118D JUMP JUMPDEST DUP4 DUP2 GT ISZERO PUSH2 0x743 JUMPI POP POP PUSH1 0x0 SWAP2 ADD MSTORE JUMP JUMPDEST PUSH1 0x1 DUP2 DUP2 SHR SWAP1 DUP3 AND DUP1 PUSH2 0x11CA JUMPI PUSH1 0x7F DUP3 AND SWAP2 POP JUMPDEST PUSH1 0x20 DUP3 LT DUP2 EQ ISZERO PUSH2 0xC6D JUMPI PUSH4 0x4E487B71 PUSH1 0xE0 SHL PUSH1 0x0 MSTORE PUSH1 0x22 PUSH1 0x4 MSTORE PUSH1 0x24 PUSH1 0x0 REVERT JUMPDEST PUSH1 0x0 DUP3 PUSH2 0x1208 JUMPI PUSH4 0x4E487B71 PUSH1 0xE0 SHL PUSH1 0x0 MSTORE PUSH1 0x12 PUSH1 0x4 MSTORE PUSH1 0x24 PUSH1 0x0 REVERT JUMPDEST POP MOD SWAP1 JUMP JUMPDEST PUSH4 0x4E487B71 PUSH1 0xE0 SHL PUSH1 0x0 MSTORE PUSH1 0x11 PUSH1 0x4 MSTORE PUSH1 0x24 PUSH1 0x0 REVERT JUMPDEST PUSH4 0x4E487B71 PUSH1 0xE0 SHL PUSH1 0x0 MSTORE PUSH1 0x41 PUSH1 0x4 MSTORE PUSH1 0x24 PUSH1 0x0 REVERT INVALID LOG2 PUSH5 0x6970667358 0x22 SLT KECCAK256 BLOCKHASH 0x2C DUP5 0xAD 0xD4 STATICCALL 0xD0 0xAA PUSH17 0x7D9962E6B2E0EC5BCEDA64859E54356341 MSTORE 0xDD 0xD5 PUSH29 0x18AB64736F6C6343000807003300000000000000000000000000000000 ","sha1":"3f82ba299941a4ea99180342f0aa9dba690d11a9","source":"//SPDX-License-Identifier: MIT\npragma solidity ^0.8.0;\n\nimport \"@chainlink/contracts/src/v0.8/ChainlinkClient.sol\";\nimport \"../interfaces/IERC20.sol\";\n/**\n * @notice DO NOT USE THIS CODE IN PRODUCTION. This is an example contract. \n */\ncontract Consumer is ChainlinkClient {\n  using Chainlink for Chainlink.Request;\n\n  // variable bytes returned in a signle oracle response\n  bytes public data;\n  bytes public data2;\n  string public response;\n  string public response2;\n  uint public fee = 1000;\n\n\n  /**\n   * @notice Initialize the link token and target oracle\n   * @dev The oracle address must be an Operator contract for multiword response\n   *\n   *\n   * Kovan Testnet details: \n   * Link Token: 0xa36085F69e2889c224210F603D836748e7dC0088\n   * Oracle: \n   */\n  constructor(\n  ) {\n    setChainlinkToken(0xa36085F69e2889c224210F603D836748e7dC0088);\n    setChainlinkOracle(0x45Fd8dF7E9348b14AfC145599F719DbE27977Fd9);\n    \n  }\n  /**\n   * @notice Request variable bytes from the oracle\n   */\n  function requestBytes(string memory _prompt\n  )\n    public\n  {\n    // require(msg.value >= fee, \"Include fee in transaction\");\n    bytes32 specId = \"c4f7187d604a45749a81dbf67421a1de\";\n    uint256 payment = 100000000000000;\n    require(IERC20(0xa36085F69e2889c224210F603D836748e7dC0088).balanceOf(address(this)) >= payment, \"Not enough link\");\n    Chainlink.Request memory req = buildChainlinkRequest(specId, address(this), this.fulfillBytes.selector);\n    req.add(\"prompt\", _prompt);\n    // req.add(\"itemType\", \"Weapons\");\n    bytes32 id = requestOracleData(req, payment);\n    \n  }\n\n  event RequestFulfilled(\n    bytes32 indexed requestId,\n    bytes indexed data\n  );\n\n  \n  function fulfillBytes(\n    bytes32 requestId,\n    bytes memory bytesData,\n    bytes memory bytesData2\n  )\n    public\n    recordChainlinkFulfillment(requestId)\n  {\n    emit RequestFulfilled(requestId, bytesData);\n    data = bytesData;\n    data2 = bytesData2;\n    response = string(data);\n    response2 = string(data2);\n  }\n \n  \n  function withdrawLink() public {\n    uint256 bal = IERC20(0xa36085F69e2889c224210F603D836748e7dC0088).balanceOf(address(this));\n    IERC20(0xa36085F69e2889c224210F603D836748e7dC0088).transfer(msg.sender, bal);\n  }\n  \n  receive() external payable {}\n\n}\n","sourcePath":"contracts/Consumer.sol","deployment":{"address":"0x7eEb0Fc0a8Ce6e039A3DEe1Af5C674A163e7aEfb","chainid":"42","blockHeight":27420179}}