{"bytecode":"608060405260016004556103e8600a5534801561001b57600080fd5b50600280546001600160a01b03191673a36085f69e2889c224210f603d836748e7dc0088179055600380546001600160a01b0319167345fd8df7e9348b14afc145599f719dbe27977fd9179055611589806100776000396000f3fe6080604052600436106100955760003560e01c80638dc654a2116100595780638dc654a214610138578063a1e6f45d1461014d578063ddca3f431461016d578063e3a7fd7514610191578063f5094c9d146101a657600080fd5b806324b67cff146100a157806341a4a101146100cc5780636db99122146100ee57806373d4a13a1461010e5780637a7f01a71461012357600080fd5b3661009c57005b600080fd5b3480156100ad57600080fd5b506100b66101c6565b6040516100c39190611327565b60405180910390f35b3480156100d857600080fd5b506100ec6100e736600461117c565b610254565b005b3480156100fa57600080fd5b506100b661010936600461121e565b6104b6565b34801561011a57600080fd5b506100b66104e1565b34801561012f57600080fd5b506100b66104ee565b34801561014457600080fd5b506100ec6104fb565b34801561015957600080fd5b506100ec61016836600461108b565b610612565b34801561017957600080fd5b50610183600a5481565b6040519081526020016100c3565b34801561019d57600080fd5b506100b6610625565b3480156101b257600080fd5b506100ec6101c13660046111e9565b610632565b600980546101d3906114d0565b80601f01602080910402602001604051908101604052809291908181526020018280546101ff906114d0565b801561024c5780601f106102215761010080835404028352916020019161024c565b820191906000526020600020905b81548152906001019060200180831161022f57829003601f168201915b505050505081565b60008381526005602052604090205483906001600160a01b031633146102d25760405162461bcd60e51b815260206004820152602860248201527f536f75726365206d75737420626520746865206f7261636c65206f6620746865604482015267081c995c5d595cdd60c21b60648201526084015b60405180910390fd5b60008181526005602052604080822080546001600160a01b03191690555182917f7cc135e0cebb02c3480ae5d74d377283180a2601f8f644edf7987b009316c63a91a26040517f9f64ba467cbf095201d0115c72c87d416c1a55928c0862a6bb0f4d05420397e390600090a18260405161034c919061127c565b6040519081900381209085907f1a111c5dcf9a71088bd5e1797fdfaf399fec2afbb24aca247e4e3e9f4b61df9190600090a38251610391906006906020860190610e19565b5081516103a5906007906020850190610e19565b50826040516103b4919061127c565b6040519081900381209085907f1a111c5dcf9a71088bd5e1797fdfaf399fec2afbb24aca247e4e3e9f4b61df9190600090a3600660089080546103f6906114d0565b610401929190610e9d565b5060076009908054610412906114d0565b61041d929190610e9d565b508260405161042c919061127c565b6040519081900381209085907f1a111c5dcf9a71088bd5e1797fdfaf399fec2afbb24aca247e4e3e9f4b61df9190600090a36040517f9f64ba467cbf095201d0115c72c87d416c1a55928c0862a6bb0f4d05420397e390600090a16040517f9f64ba467cbf095201d0115c72c87d416c1a55928c0862a6bb0f4d05420397e390600090a150505050565b600b81815481106104c657600080fd5b9060005260206000200160009150905080546101d3906114d0565b600680546101d3906114d0565b600880546101d3906114d0565b6040516370a0823160e01b815230600482015260009073a36085f69e2889c224210f603d836748e7dc0088906370a082319060240160206040518083038186803b15801561054857600080fd5b505afa15801561055c573d6000803e3d6000fd5b505050506040513d601f19601f820116820180604052508101906105809190611237565b60405163a9059cbb60e01b81523360048201526024810182905290915073a36085f69e2889c224210f603d836748e7dc00889063a9059cbb90604401602060405180830381600087803b1580156105d657600080fd5b505af11580156105ea573d6000803e3d6000fd5b505050506040513d601f19601f8201168201806040525081019061060e9190611153565b5050565b805161060e90600b906020840190610f18565b600780546101d3906114d0565b6040516370a0823160e01b81523060048201527f633466373138376436303461343537343961383164626636373432316131646590655af3107a400090819073a36085f69e2889c224210f603d836748e7dc0088906370a082319060240160206040518083038186803b1580156106a857600080fd5b505afa1580156106bc573d6000803e3d6000fd5b505050506040513d601f19601f820116820180604052508101906106e09190611237565b10156107205760405162461bcd60e51b815260206004820152600f60248201526e4e6f7420656e6f756768206c696e6b60881b60448201526064016102c9565b600061073483306341a4a10160e01b610774565b6040805180820190915260068152651c1c9bdb5c1d60d21b602082015290915061076090829086610799565b600061076c82846107bc565b505050505050565b61077c610f71565b610784610f71565b610790818686866107df565b95945050505050565b60808301516107a8908361081c565b60808301516107b7908261081c565b505050565b6003546000906107d6906001600160a01b03168484610833565b90505b92915050565b6107e7610f71565b6107f78560800151610100610852565b50509183526001600160a01b031660208301526001600160e01b031916604082015290565b61082982600383516108b7565b6107b7828261098b565b600061084a84848460026336f43ceb60e11b6109b2565b949350505050565b604080518082019091526060815260006020820152610872602083611505565b1561089a57610882602083611505565b61088d90602061148d565b610897908361136b565b91505b506020828101829052604080518085526000815290920101905290565b601781116108d8576108d28360e0600585901b168317610bbe565b50505050565b60ff8111610902576108f5836018611fe0600586901b1617610bbe565b506108d283826001610be3565b61ffff811161092d57610920836019611fe0600586901b1617610bbe565b506108d283826002610be3565b63ffffffff811161095a5761094d83601a611fe0600586901b1617610bbe565b506108d283826004610be3565b67ffffffffffffffff81116107b75761097e83601b611fe0600586901b1617610bbe565b506108d283826008610be3565b6040805180820190915260608152600060208201526107d683846000015151848551610c09565b6004546040516bffffffffffffffffffffffff193060601b166020820152603481019190915260009060540160408051808303601f19018152918152815160209283012060045460608901526000818152600590935281832080546001600160a01b0319166001600160a01b038b16179055905190925082917fb5e6e01e79f91267dc17b4e6314d5d4d03593d2ceee0fbb452b750bd70ea5af991a2600082600080886000015189602001518a604001518b606001518a8d6080015160000151604051602401610a89989796959493929190611298565b60408051601f198184030181529181526020820180516001600160e01b03166001600160e01b0319909416939093179092526002549151630200057560e51b81529092506001600160a01b0390911690634000aea090610af1908a9089908690600401611300565b602060405180830381600087803b158015610b0b57600080fd5b505af1158015610b1f573d6000803e3d6000fd5b505050506040513d601f19601f82011682018060405250810190610b439190611153565b610b9b5760405162461bcd60e51b815260206004820152602360248201527f756e61626c6520746f207472616e73666572416e6443616c6c20746f206f7261604482015262636c6560e81b60648201526084016102c9565b600160046000828254610bae919061136b565b9091555091979650505050505050565b6040805180820190915260608152600060208201526107d68384600001515184610d0e565b60408051808201909152606081526000602082015261084a848560000151518585610d6a565b6040805180820190915260608152600060208201528251821115610c2c57600080fd5b6020850151610c3b838661136b565b1115610c6e57610c6e85610c5e87602001518786610c59919061136b565b610deb565b610c6990600261146e565b610e02565b600080865180518760208301019350808887011115610c8d5787860182525b505050602084015b60208410610ccd5780518252610cac60208361136b565b9150610cb960208261136b565b9050610cc660208561148d565b9350610c95565b60006001610cdc86602061148d565b610ce8906101006113c6565b610cf2919061148d565b9151835183169219169190911790915250849050949350505050565b60408051808201909152606081526000602082015283602001518310610d4357610d438485602001516002610c69919061146e565b835180516020858301018481535080851415610d60576001810182525b5093949350505050565b6040805180820190915260608152600060208201526020850151610d8e858461136b565b1115610da257610da285610c5e868561136b565b60006001610db2846101006113c6565b610dbc919061148d565b9050855183868201018583198251161781525080518487011115610de05783860181525b509495945050505050565b600081831115610dfc5750816107d9565b50919050565b8151610e0e8383610852565b506108d2838261098b565b828054610e25906114d0565b90600052602060002090601f016020900481019282610e475760008555610e8d565b82601f10610e6057805160ff1916838001178555610e8d565b82800160010185558215610e8d579182015b82811115610e8d578251825591602001919060010190610e72565b50610e99929150610fac565b5090565b828054610ea9906114d0565b90600052602060002090601f016020900481019282610ecb5760008555610e8d565b82601f10610edc5780548555610e8d565b82800160010185558215610e8d57600052602060002091601f016020900482015b82811115610e8d578254825591600101919060010190610efd565b828054828255906000526020600020908101928215610f65579160200282015b82811115610f655782518051610f55918491602090910190610e19565b5091602001919060010190610f38565b50610e99929150610fc1565b6040805160a0810182526000808252602080830182905282840182905260608084018390528451808601909552845283015290608082015290565b5b80821115610e995760008155600101610fad565b80821115610e99576000610fd58282610fde565b50600101610fc1565b508054610fea906114d0565b6000825580601f10610ffa575050565b601f0160209004906000526020600020908101906110189190610fac565b50565b600082601f83011261102c57600080fd5b813567ffffffffffffffff8111156110465761104661153d565b611059601f8201601f191660200161133a565b81815284602083860101111561106e57600080fd5b816020850160208301376000918101602001919091529392505050565b6000602080838503121561109e57600080fd5b823567ffffffffffffffff808211156110b657600080fd5b818501915085601f8301126110ca57600080fd5b8135818111156110dc576110dc61153d565b8060051b6110eb85820161133a565b8281528581019085870183870188018b101561110657600080fd5b60009350835b8581101561114357813587811115611122578586fd5b6111308d8b838c010161101b565b855250928801929088019060010161110c565b50909a9950505050505050505050565b60006020828403121561116557600080fd5b8151801515811461117557600080fd5b9392505050565b60008060006060848603121561119157600080fd5b83359250602084013567ffffffffffffffff808211156111b057600080fd5b6111bc8783880161101b565b935060408601359150808211156111d257600080fd5b506111df8682870161101b565b9150509250925092565b6000602082840312156111fb57600080fd5b813567ffffffffffffffff81111561121257600080fd5b61084a8482850161101b565b60006020828403121561123057600080fd5b5035919050565b60006020828403121561124957600080fd5b5051919050565b600081518084526112688160208601602086016114a4565b601f01601f19169290920160200192915050565b6000825161128e8184602087016114a4565b9190910192915050565b6001600160a01b0389811682526020820189905260408201889052861660608201526001600160e01b03198516608082015260a0810184905260c0810183905261010060e082018190526000906112f183820185611250565b9b9a5050505050505050505050565b60018060a01b03841681528260208201526060604082015260006107906060830184611250565b6020815260006107d66020830184611250565b604051601f8201601f1916810167ffffffffffffffff811182821017156113635761136361153d565b604052919050565b6000821982111561137e5761137e611527565b500190565b600181815b808511156113be5781600019048211156113a4576113a4611527565b808516156113b157918102915b93841c9390800290611388565b509250929050565b60006107d683836000826113dc575060016107d9565b816113e9575060006107d9565b81600181146113ff576002811461140957611425565b60019150506107d9565b60ff84111561141a5761141a611527565b50506001821b6107d9565b5060208310610133831016604e8410600b8410161715611448575081810a6107d9565b6114528383611383565b806000190482111561146657611466611527565b029392505050565b600081600019048311821515161561148857611488611527565b500290565b60008282101561149f5761149f611527565b500390565b60005b838110156114bf5781810151838201526020016114a7565b838111156108d25750506000910152565b600181811c908216806114e457607f821691505b60208210811415610dfc57634e487b7160e01b600052602260045260246000fd5b60008261152257634e487b7160e01b600052601260045260246000fd5b500690565b634e487b7160e01b600052601160045260246000fd5b634e487b7160e01b600052604160045260246000fdfea2646970667358221220194c2b51418eb9518a361457a7d56c166de3f2c1f3b8d7166f9aee28971cfc3a64736f6c63430008070033","bytecodeSha1":"b14cff34f71067dd9e6755703ff4a9cda66e71aa","type":"contract","abi":[{"inputs":[],"stateMutability":"nonpayable","type":"constructor","name":"constructor"},{"anonymous":false,"inputs":[{"indexed":true,"internalType":"bytes32","name":"id","type":"bytes32"}],"name":"ChainlinkCancelled","type":"event"},{"anonymous":false,"inputs":[{"indexed":true,"internalType":"bytes32","name":"id","type":"bytes32"}],"name":"ChainlinkFulfilled","type":"event"},{"anonymous":false,"inputs":[{"indexed":true,"internalType":"bytes32","name":"id","type":"bytes32"}],"name":"ChainlinkRequested","type":"event"},{"anonymous":false,"inputs":[{"indexed":true,"internalType":"bytes32","name":"requestId","type":"bytes32"},{"indexed":true,"internalType":"bytes","name":"data","type":"bytes"}],"name":"RequestFulfilled","type":"event"},{"anonymous":false,"inputs":[],"name":"doSomethingPLEASE","type":"event"},{"inputs":[],"name":"data","outputs":[{"internalType":"bytes","name":"","type":"bytes"}],"stateMutability":"view","type":"function"},{"inputs":[],"name":"data2","outputs":[{"internalType":"bytes","name":"","type":"bytes"}],"stateMutability":"view","type":"function"},{"inputs":[],"name":"fee","outputs":[{"internalType":"uint256","name":"","type":"uint256"}],"stateMutability":"view","type":"function"},{"inputs":[{"internalType":"bytes32","name":"requestId","type":"bytes32"},{"internalType":"bytes","name":"bytesData","type":"bytes"},{"internalType":"bytes","name":"bytesData2","type":"bytes"}],"name":"fulfillBytes","outputs":[],"stateMutability":"nonpayable","type":"function"},{"inputs":[{"internalType":"string[]","name":"items","type":"string[]"}],"name":"getList","outputs":[],"stateMutability":"nonpayable","type":"function"},{"inputs":[{"internalType":"string","name":"_prompt","type":"string"}],"name":"requestBytes","outputs":[],"stateMutability":"nonpayable","type":"function"},{"inputs":[],"name":"response","outputs":[{"internalType":"string","name":"","type":"string"}],"stateMutability":"view","type":"function"},{"inputs":[],"name":"response2","outputs":[{"internalType":"string","name":"","type":"string"}],"stateMutability":"view","type":"function"},{"inputs":[{"internalType":"uint256","name":"","type":"uint256"}],"name":"weaponsList","outputs":[{"internalType":"string","name":"","type":"string"}],"stateMutability":"view","type":"function"},{"inputs":[],"name":"withdrawLink","outputs":[],"stateMutability":"nonpayable","type":"function"},{"stateMutability":"payable","type":"receive"}],"compiler":{"version":"0.8.7+commit.e28d00a7","evm_version":"istanbul","optimizer":{"enabled":true,"runs":200}},"contractName":"Consumer","language":"Solidity","natspec":{"methods":{"constructor":{"notice":"Initialize the link token and target oracle","details":"The oracle address must be an Operator contract for multiword response Kovan Testnet details:  Link Token: 0xa36085F69e2889c224210F603D836748e7dC0088 Oracle: "},"requestBytes(string)":{"notice":"Request variable bytes from the oracle"}},"kind":"dev","notice":"DO NOT USE THIS CODE IN PRODUCTION. This is an example contract. ","version":1},"opcodes":"PUSH1 0x80 PUSH1 0x40 MSTORE PUSH1 0x4 CALLDATASIZE LT PUSH2 0x95 JUMPI PUSH1 0x0 CALLDATALOAD PUSH1 0xE0 SHR DUP1 PUSH4 0x8DC654A2 GT PUSH2 0x59 JUMPI DUP1 PUSH4 0x8DC654A2 EQ PUSH2 0x138 JUMPI DUP1 PUSH4 0xA1E6F45D EQ PUSH2 0x14D JUMPI DUP1 PUSH4 0xDDCA3F43 EQ PUSH2 0x16D JUMPI DUP1 PUSH4 0xE3A7FD75 EQ PUSH2 0x191 JUMPI DUP1 PUSH4 0xF5094C9D EQ PUSH2 0x1A6 JUMPI PUSH1 0x0 DUP1 REVERT JUMPDEST DUP1 PUSH4 0x24B67CFF EQ PUSH2 0xA1 JUMPI DUP1 PUSH4 0x41A4A101 EQ PUSH2 0xCC JUMPI DUP1 PUSH4 0x6DB99122 EQ PUSH2 0xEE JUMPI DUP1 PUSH4 0x73D4A13A EQ PUSH2 0x10E JUMPI DUP1 PUSH4 0x7A7F01A7 EQ PUSH2 0x123 JUMPI PUSH1 0x0 DUP1 REVERT JUMPDEST CALLDATASIZE PUSH2 0x9C JUMPI STOP JUMPDEST PUSH1 0x0 DUP1 REVERT JUMPDEST CALLVALUE DUP1 ISZERO PUSH2 0xAD JUMPI PUSH1 0x0 DUP1 REVERT JUMPDEST POP PUSH2 0xB6 PUSH2 0x1C6 JUMP JUMPDEST PUSH1 0x40 MLOAD PUSH2 0xC3 SWAP2 SWAP1 PUSH2 0x1327 JUMP JUMPDEST PUSH1 0x40 MLOAD DUP1 SWAP2 SUB SWAP1 RETURN JUMPDEST CALLVALUE DUP1 ISZERO PUSH2 0xD8 JUMPI PUSH1 0x0 DUP1 REVERT JUMPDEST POP PUSH2 0xEC PUSH2 0xE7 CALLDATASIZE PUSH1 0x4 PUSH2 0x117C JUMP JUMPDEST PUSH2 0x254 JUMP JUMPDEST STOP JUMPDEST CALLVALUE DUP1 ISZERO PUSH2 0xFA JUMPI PUSH1 0x0 DUP1 REVERT JUMPDEST POP PUSH2 0xB6 PUSH2 0x109 CALLDATASIZE PUSH1 0x4 PUSH2 0x121E JUMP JUMPDEST PUSH2 0x4B6 JUMP JUMPDEST CALLVALUE DUP1 ISZERO PUSH2 0x11A JUMPI PUSH1 0x0 DUP1 REVERT JUMPDEST POP PUSH2 0xB6 PUSH2 0x4E1 JUMP JUMPDEST CALLVALUE DUP1 ISZERO PUSH2 0x12F JUMPI PUSH1 0x0 DUP1 REVERT JUMPDEST POP PUSH2 0xB6 PUSH2 0x4EE JUMP JUMPDEST CALLVALUE DUP1 ISZERO PUSH2 0x144 JUMPI PUSH1 0x0 DUP1 REVERT JUMPDEST POP PUSH2 0xEC PUSH2 0x4FB JUMP JUMPDEST CALLVALUE DUP1 ISZERO PUSH2 0x159 JUMPI PUSH1 0x0 DUP1 REVERT JUMPDEST POP PUSH2 0xEC PUSH2 0x168 CALLDATASIZE PUSH1 0x4 PUSH2 0x108B JUMP JUMPDEST PUSH2 0x612 JUMP JUMPDEST CALLVALUE DUP1 ISZERO PUSH2 0x179 JUMPI PUSH1 0x0 DUP1 REVERT JUMPDEST POP PUSH2 0x183 PUSH1 0xA SLOAD DUP2 JUMP JUMPDEST PUSH1 0x40 MLOAD SWAP1 DUP2 MSTORE PUSH1 0x20 ADD PUSH2 0xC3 JUMP JUMPDEST CALLVALUE DUP1 ISZERO PUSH2 0x19D JUMPI PUSH1 0x0 DUP1 REVERT JUMPDEST POP PUSH2 0xB6 PUSH2 0x625 JUMP JUMPDEST CALLVALUE DUP1 ISZERO PUSH2 0x1B2 JUMPI PUSH1 0x0 DUP1 REVERT JUMPDEST POP PUSH2 0xEC PUSH2 0x1C1 CALLDATASIZE PUSH1 0x4 PUSH2 0x11E9 JUMP JUMPDEST PUSH2 0x632 JUMP JUMPDEST PUSH1 0x9 DUP1 SLOAD PUSH2 0x1D3 SWAP1 PUSH2 0x14D0 JUMP JUMPDEST DUP1 PUSH1 0x1F ADD PUSH1 0x20 DUP1 SWAP2 DIV MUL PUSH1 0x20 ADD PUSH1 0x40 MLOAD SWAP1 DUP2 ADD PUSH1 0x40 MSTORE DUP1 SWAP3 SWAP2 SWAP1 DUP2 DUP2 MSTORE PUSH1 0x20 ADD DUP3 DUP1 SLOAD PUSH2 0x1FF SWAP1 PUSH2 0x14D0 JUMP JUMPDEST DUP1 ISZERO PUSH2 0x24C JUMPI DUP1 PUSH1 0x1F LT PUSH2 0x221 JUMPI PUSH2 0x100 DUP1 DUP4 SLOAD DIV MUL DUP4 MSTORE SWAP2 PUSH1 0x20 ADD SWAP2 PUSH2 0x24C JUMP JUMPDEST DUP3 ADD SWAP2 SWAP1 PUSH1 0x0 MSTORE PUSH1 0x20 PUSH1 0x0 KECCAK256 SWAP1 JUMPDEST DUP2 SLOAD DUP2 MSTORE SWAP1 PUSH1 0x1 ADD SWAP1 PUSH1 0x20 ADD DUP1 DUP4 GT PUSH2 0x22F JUMPI DUP3 SWAP1 SUB PUSH1 0x1F AND DUP3 ADD SWAP2 JUMPDEST POP POP POP POP POP DUP2 JUMP JUMPDEST PUSH1 0x0 DUP4 DUP2 MSTORE PUSH1 0x5 PUSH1 0x20 MSTORE PUSH1 0x40 SWAP1 KECCAK256 SLOAD DUP4 SWAP1 PUSH1 0x1 PUSH1 0x1 PUSH1 0xA0 SHL SUB AND CALLER EQ PUSH2 0x2D2 JUMPI PUSH1 0x40 MLOAD PUSH3 0x461BCD PUSH1 0xE5 SHL DUP2 MSTORE PUSH1 0x20 PUSH1 0x4 DUP3 ADD MSTORE PUSH1 0x28 PUSH1 0x24 DUP3 ADD MSTORE PUSH32 0x536F75726365206D75737420626520746865206F7261636C65206F6620746865 PUSH1 0x44 DUP3 ADD MSTORE PUSH8 0x81C995C5D595CDD PUSH1 0xC2 SHL PUSH1 0x64 DUP3 ADD MSTORE PUSH1 0x84 ADD JUMPDEST PUSH1 0x40 MLOAD DUP1 SWAP2 SUB SWAP1 REVERT JUMPDEST PUSH1 0x0 DUP2 DUP2 MSTORE PUSH1 0x5 PUSH1 0x20 MSTORE PUSH1 0x40 DUP1 DUP3 KECCAK256 DUP1 SLOAD PUSH1 0x1 PUSH1 0x1 PUSH1 0xA0 SHL SUB NOT AND SWAP1 SSTORE MLOAD DUP3 SWAP2 PUSH32 0x7CC135E0CEBB02C3480AE5D74D377283180A2601F8F644EDF7987B009316C63A SWAP2 LOG2 PUSH1 0x40 MLOAD PUSH32 0x9F64BA467CBF095201D0115C72C87D416C1A55928C0862A6BB0F4D05420397E3 SWAP1 PUSH1 0x0 SWAP1 LOG1 DUP3 PUSH1 0x40 MLOAD PUSH2 0x34C SWAP2 SWAP1 PUSH2 0x127C JUMP JUMPDEST PUSH1 0x40 MLOAD SWAP1 DUP2 SWAP1 SUB DUP2 KECCAK256 SWAP1 DUP6 SWAP1 PUSH32 0x1A111C5DCF9A71088BD5E1797FDFAF399FEC2AFBB24ACA247E4E3E9F4B61DF91 SWAP1 PUSH1 0x0 SWAP1 LOG3 DUP3 MLOAD PUSH2 0x391 SWAP1 PUSH1 0x6 SWAP1 PUSH1 0x20 DUP7 ADD SWAP1 PUSH2 0xE19 JUMP JUMPDEST POP DUP2 MLOAD PUSH2 0x3A5 SWAP1 PUSH1 0x7 SWAP1 PUSH1 0x20 DUP6 ADD SWAP1 PUSH2 0xE19 JUMP JUMPDEST POP DUP3 PUSH1 0x40 MLOAD PUSH2 0x3B4 SWAP2 SWAP1 PUSH2 0x127C JUMP JUMPDEST PUSH1 0x40 MLOAD SWAP1 DUP2 SWAP1 SUB DUP2 KECCAK256 SWAP1 DUP6 SWAP1 PUSH32 0x1A111C5DCF9A71088BD5E1797FDFAF399FEC2AFBB24ACA247E4E3E9F4B61DF91 SWAP1 PUSH1 0x0 SWAP1 LOG3 PUSH1 0x6 PUSH1 0x8 SWAP1 DUP1 SLOAD PUSH2 0x3F6 SWAP1 PUSH2 0x14D0 JUMP JUMPDEST PUSH2 0x401 SWAP3 SWAP2 SWAP1 PUSH2 0xE9D JUMP JUMPDEST POP PUSH1 0x7 PUSH1 0x9 SWAP1 DUP1 SLOAD PUSH2 0x412 SWAP1 PUSH2 0x14D0 JUMP JUMPDEST PUSH2 0x41D SWAP3 SWAP2 SWAP1 PUSH2 0xE9D JUMP JUMPDEST POP DUP3 PUSH1 0x40 MLOAD PUSH2 0x42C SWAP2 SWAP1 PUSH2 0x127C JUMP JUMPDEST PUSH1 0x40 MLOAD SWAP1 DUP2 SWAP1 SUB DUP2 KECCAK256 SWAP1 DUP6 SWAP1 PUSH32 0x1A111C5DCF9A71088BD5E1797FDFAF399FEC2AFBB24ACA247E4E3E9F4B61DF91 SWAP1 PUSH1 0x0 SWAP1 LOG3 PUSH1 0x40 MLOAD PUSH32 0x9F64BA467CBF095201D0115C72C87D416C1A55928C0862A6BB0F4D05420397E3 SWAP1 PUSH1 0x0 SWAP1 LOG1 PUSH1 0x40 MLOAD PUSH32 0x9F64BA467CBF095201D0115C72C87D416C1A55928C0862A6BB0F4D05420397E3 SWAP1 PUSH1 0x0 SWAP1 LOG1 POP POP POP POP JUMP JUMPDEST PUSH1 0xB DUP2 DUP2 SLOAD DUP2 LT PUSH2 0x4C6 JUMPI PUSH1 0x0 DUP1 REVERT JUMPDEST SWAP1 PUSH1 0x0 MSTORE PUSH1 0x20 PUSH1 0x0 KECCAK256 ADD PUSH1 0x0 SWAP2 POP SWAP1 POP DUP1 SLOAD PUSH2 0x1D3 SWAP1 PUSH2 0x14D0 JUMP JUMPDEST PUSH1 0x6 DUP1 SLOAD PUSH2 0x1D3 SWAP1 PUSH2 0x14D0 JUMP JUMPDEST PUSH1 0x8 DUP1 SLOAD PUSH2 0x1D3 SWAP1 PUSH2 0x14D0 JUMP JUMPDEST PUSH1 0x40 MLOAD PUSH4 0x70A08231 PUSH1 0xE0 SHL DUP2 MSTORE ADDRESS PUSH1 0x4 DUP3 ADD MSTORE PUSH1 0x0 SWAP1 PUSH20 0xA36085F69E2889C224210F603D836748E7DC0088 SWAP1 PUSH4 0x70A08231 SWAP1 PUSH1 0x24 ADD PUSH1 0x20 PUSH1 0x40 MLOAD DUP1 DUP4 SUB DUP2 DUP7 DUP1 EXTCODESIZE ISZERO DUP1 ISZERO PUSH2 0x548 JUMPI PUSH1 0x0 DUP1 REVERT JUMPDEST POP GAS STATICCALL ISZERO DUP1 ISZERO PUSH2 0x55C JUMPI RETURNDATASIZE PUSH1 0x0 DUP1 RETURNDATACOPY RETURNDATASIZE PUSH1 0x0 REVERT JUMPDEST POP POP POP POP PUSH1 0x40 MLOAD RETURNDATASIZE PUSH1 0x1F NOT PUSH1 0x1F DUP3 ADD AND DUP3 ADD DUP1 PUSH1 0x40 MSTORE POP DUP2 ADD SWAP1 PUSH2 0x580 SWAP2 SWAP1 PUSH2 0x1237 JUMP JUMPDEST PUSH1 0x40 MLOAD PUSH4 0xA9059CBB PUSH1 0xE0 SHL DUP2 MSTORE CALLER PUSH1 0x4 DUP3 ADD MSTORE PUSH1 0x24 DUP2 ADD DUP3 SWAP1 MSTORE SWAP1 SWAP2 POP PUSH20 0xA36085F69E2889C224210F603D836748E7DC0088 SWAP1 PUSH4 0xA9059CBB SWAP1 PUSH1 0x44 ADD PUSH1 0x20 PUSH1 0x40 MLOAD DUP1 DUP4 SUB DUP2 PUSH1 0x0 DUP8 DUP1 EXTCODESIZE ISZERO DUP1 ISZERO PUSH2 0x5D6 JUMPI PUSH1 0x0 DUP1 REVERT JUMPDEST POP GAS CALL ISZERO DUP1 ISZERO PUSH2 0x5EA JUMPI RETURNDATASIZE PUSH1 0x0 DUP1 RETURNDATACOPY RETURNDATASIZE PUSH1 0x0 REVERT JUMPDEST POP POP POP POP PUSH1 0x40 MLOAD RETURNDATASIZE PUSH1 0x1F NOT PUSH1 0x1F DUP3 ADD AND DUP3 ADD DUP1 PUSH1 0x40 MSTORE POP DUP2 ADD SWAP1 PUSH2 0x60E SWAP2 SWAP1 PUSH2 0x1153 JUMP JUMPDEST POP POP JUMP JUMPDEST DUP1 MLOAD PUSH2 0x60E SWAP1 PUSH1 0xB SWAP1 PUSH1 0x20 DUP5 ADD SWAP1 PUSH2 0xF18 JUMP JUMPDEST PUSH1 0x7 DUP1 SLOAD PUSH2 0x1D3 SWAP1 PUSH2 0x14D0 JUMP JUMPDEST PUSH1 0x40 MLOAD PUSH4 0x70A08231 PUSH1 0xE0 SHL DUP2 MSTORE ADDRESS PUSH1 0x4 DUP3 ADD MSTORE PUSH32 0x6334663731383764363034613435373439613831646266363734323161316465 SWAP1 PUSH6 0x5AF3107A4000 SWAP1 DUP2 SWAP1 PUSH20 0xA36085F69E2889C224210F603D836748E7DC0088 SWAP1 PUSH4 0x70A08231 SWAP1 PUSH1 0x24 ADD PUSH1 0x20 PUSH1 0x40 MLOAD DUP1 DUP4 SUB DUP2 DUP7 DUP1 EXTCODESIZE ISZERO DUP1 ISZERO PUSH2 0x6A8 JUMPI PUSH1 0x0 DUP1 REVERT JUMPDEST POP GAS STATICCALL ISZERO DUP1 ISZERO PUSH2 0x6BC JUMPI RETURNDATASIZE PUSH1 0x0 DUP1 RETURNDATACOPY RETURNDATASIZE PUSH1 0x0 REVERT JUMPDEST POP POP POP POP PUSH1 0x40 MLOAD RETURNDATASIZE PUSH1 0x1F NOT PUSH1 0x1F DUP3 ADD AND DUP3 ADD DUP1 PUSH1 0x40 MSTORE POP DUP2 ADD SWAP1 PUSH2 0x6E0 SWAP2 SWAP1 PUSH2 0x1237 JUMP JUMPDEST LT ISZERO PUSH2 0x720 JUMPI PUSH1 0x40 MLOAD PUSH3 0x461BCD PUSH1 0xE5 SHL DUP2 MSTORE PUSH1 0x20 PUSH1 0x4 DUP3 ADD MSTORE PUSH1 0xF PUSH1 0x24 DUP3 ADD MSTORE PUSH15 0x4E6F7420656E6F756768206C696E6B PUSH1 0x88 SHL PUSH1 0x44 DUP3 ADD MSTORE PUSH1 0x64 ADD PUSH2 0x2C9 JUMP JUMPDEST PUSH1 0x0 PUSH2 0x734 DUP4 ADDRESS PUSH4 0x41A4A101 PUSH1 0xE0 SHL PUSH2 0x774 JUMP JUMPDEST PUSH1 0x40 DUP1 MLOAD DUP1 DUP3 ADD SWAP1 SWAP2 MSTORE PUSH1 0x6 DUP2 MSTORE PUSH6 0x1C1C9BDB5C1D PUSH1 0xD2 SHL PUSH1 0x20 DUP3 ADD MSTORE SWAP1 SWAP2 POP PUSH2 0x760 SWAP1 DUP3 SWAP1 DUP7 PUSH2 0x799 JUMP JUMPDEST PUSH1 0x0 PUSH2 0x76C DUP3 DUP5 PUSH2 0x7BC JUMP JUMPDEST POP POP POP POP POP POP JUMP JUMPDEST PUSH2 0x77C PUSH2 0xF71 JUMP JUMPDEST PUSH2 0x784 PUSH2 0xF71 JUMP JUMPDEST PUSH2 0x790 DUP2 DUP7 DUP7 DUP7 PUSH2 0x7DF JUMP JUMPDEST SWAP6 SWAP5 POP POP POP POP POP JUMP JUMPDEST PUSH1 0x80 DUP4 ADD MLOAD PUSH2 0x7A8 SWAP1 DUP4 PUSH2 0x81C JUMP JUMPDEST PUSH1 0x80 DUP4 ADD MLOAD PUSH2 0x7B7 SWAP1 DUP3 PUSH2 0x81C JUMP JUMPDEST POP POP POP JUMP JUMPDEST PUSH1 0x3 SLOAD PUSH1 0x0 SWAP1 PUSH2 0x7D6 SWAP1 PUSH1 0x1 PUSH1 0x1 PUSH1 0xA0 SHL SUB AND DUP5 DUP5 PUSH2 0x833 JUMP JUMPDEST SWAP1 POP JUMPDEST SWAP3 SWAP2 POP POP JUMP JUMPDEST PUSH2 0x7E7 PUSH2 0xF71 JUMP JUMPDEST PUSH2 0x7F7 DUP6 PUSH1 0x80 ADD MLOAD PUSH2 0x100 PUSH2 0x852 JUMP JUMPDEST POP POP SWAP2 DUP4 MSTORE PUSH1 0x1 PUSH1 0x1 PUSH1 0xA0 SHL SUB AND PUSH1 0x20 DUP4 ADD MSTORE PUSH1 0x1 PUSH1 0x1 PUSH1 0xE0 SHL SUB NOT AND PUSH1 0x40 DUP3 ADD MSTORE SWAP1 JUMP JUMPDEST PUSH2 0x829 DUP3 PUSH1 0x3 DUP4 MLOAD PUSH2 0x8B7 JUMP JUMPDEST PUSH2 0x7B7 DUP3 DUP3 PUSH2 0x98B JUMP JUMPDEST PUSH1 0x0 PUSH2 0x84A DUP5 DUP5 DUP5 PUSH1 0x2 PUSH4 0x36F43CEB PUSH1 0xE1 SHL PUSH2 0x9B2 JUMP JUMPDEST SWAP5 SWAP4 POP POP POP POP JUMP JUMPDEST PUSH1 0x40 DUP1 MLOAD DUP1 DUP3 ADD SWAP1 SWAP2 MSTORE PUSH1 0x60 DUP2 MSTORE PUSH1 0x0 PUSH1 0x20 DUP3 ADD MSTORE PUSH2 0x872 PUSH1 0x20 DUP4 PUSH2 0x1505 JUMP JUMPDEST ISZERO PUSH2 0x89A JUMPI PUSH2 0x882 PUSH1 0x20 DUP4 PUSH2 0x1505 JUMP JUMPDEST PUSH2 0x88D SWAP1 PUSH1 0x20 PUSH2 0x148D JUMP JUMPDEST PUSH2 0x897 SWAP1 DUP4 PUSH2 0x136B JUMP JUMPDEST SWAP2 POP JUMPDEST POP PUSH1 0x20 DUP3 DUP2 ADD DUP3 SWAP1 MSTORE PUSH1 0x40 DUP1 MLOAD DUP1 DUP6 MSTORE PUSH1 0x0 DUP2 MSTORE SWAP1 SWAP3 ADD ADD SWAP1 MSTORE SWAP1 JUMP JUMPDEST PUSH1 0x17 DUP2 GT PUSH2 0x8D8 JUMPI PUSH2 0x8D2 DUP4 PUSH1 0xE0 PUSH1 0x5 DUP6 SWAP1 SHL AND DUP4 OR PUSH2 0xBBE JUMP JUMPDEST POP POP POP POP JUMP JUMPDEST PUSH1 0xFF DUP2 GT PUSH2 0x902 JUMPI PUSH2 0x8F5 DUP4 PUSH1 0x18 PUSH2 0x1FE0 PUSH1 0x5 DUP7 SWAP1 SHL AND OR PUSH2 0xBBE JUMP JUMPDEST POP PUSH2 0x8D2 DUP4 DUP3 PUSH1 0x1 PUSH2 0xBE3 JUMP JUMPDEST PUSH2 0xFFFF DUP2 GT PUSH2 0x92D JUMPI PUSH2 0x920 DUP4 PUSH1 0x19 PUSH2 0x1FE0 PUSH1 0x5 DUP7 SWAP1 SHL AND OR PUSH2 0xBBE JUMP JUMPDEST POP PUSH2 0x8D2 DUP4 DUP3 PUSH1 0x2 PUSH2 0xBE3 JUMP JUMPDEST PUSH4 0xFFFFFFFF DUP2 GT PUSH2 0x95A JUMPI PUSH2 0x94D DUP4 PUSH1 0x1A PUSH2 0x1FE0 PUSH1 0x5 DUP7 SWAP1 SHL AND OR PUSH2 0xBBE JUMP JUMPDEST POP PUSH2 0x8D2 DUP4 DUP3 PUSH1 0x4 PUSH2 0xBE3 JUMP JUMPDEST PUSH8 0xFFFFFFFFFFFFFFFF DUP2 GT PUSH2 0x7B7 JUMPI PUSH2 0x97E DUP4 PUSH1 0x1B PUSH2 0x1FE0 PUSH1 0x5 DUP7 SWAP1 SHL AND OR PUSH2 0xBBE JUMP JUMPDEST POP PUSH2 0x8D2 DUP4 DUP3 PUSH1 0x8 PUSH2 0xBE3 JUMP JUMPDEST PUSH1 0x40 DUP1 MLOAD DUP1 DUP3 ADD SWAP1 SWAP2 MSTORE PUSH1 0x60 DUP2 MSTORE PUSH1 0x0 PUSH1 0x20 DUP3 ADD MSTORE PUSH2 0x7D6 DUP4 DUP5 PUSH1 0x0 ADD MLOAD MLOAD DUP5 DUP6 MLOAD PUSH2 0xC09 JUMP JUMPDEST PUSH1 0x4 SLOAD PUSH1 0x40 MLOAD PUSH12 0xFFFFFFFFFFFFFFFFFFFFFFFF NOT ADDRESS PUSH1 0x60 SHL AND PUSH1 0x20 DUP3 ADD MSTORE PUSH1 0x34 DUP2 ADD SWAP2 SWAP1 SWAP2 MSTORE PUSH1 0x0 SWAP1 PUSH1 0x54 ADD PUSH1 0x40 DUP1 MLOAD DUP1 DUP4 SUB PUSH1 0x1F NOT ADD DUP2 MSTORE SWAP2 DUP2 MSTORE DUP2 MLOAD PUSH1 0x20 SWAP3 DUP4 ADD KECCAK256 PUSH1 0x4 SLOAD PUSH1 0x60 DUP10 ADD MSTORE PUSH1 0x0 DUP2 DUP2 MSTORE PUSH1 0x5 SWAP1 SWAP4 MSTORE DUP2 DUP4 KECCAK256 DUP1 SLOAD PUSH1 0x1 PUSH1 0x1 PUSH1 0xA0 SHL SUB NOT AND PUSH1 0x1 PUSH1 0x1 PUSH1 0xA0 SHL SUB DUP12 AND OR SWAP1 SSTORE SWAP1 MLOAD SWAP1 SWAP3 POP DUP3 SWAP2 PUSH32 0xB5E6E01E79F91267DC17B4E6314D5D4D03593D2CEEE0FBB452B750BD70EA5AF9 SWAP2 LOG2 PUSH1 0x0 DUP3 PUSH1 0x0 DUP1 DUP9 PUSH1 0x0 ADD MLOAD DUP10 PUSH1 0x20 ADD MLOAD DUP11 PUSH1 0x40 ADD MLOAD DUP12 PUSH1 0x60 ADD MLOAD DUP11 DUP14 PUSH1 0x80 ADD MLOAD PUSH1 0x0 ADD MLOAD PUSH1 0x40 MLOAD PUSH1 0x24 ADD PUSH2 0xA89 SWAP9 SWAP8 SWAP7 SWAP6 SWAP5 SWAP4 SWAP3 SWAP2 SWAP1 PUSH2 0x1298 JUMP JUMPDEST PUSH1 0x40 DUP1 MLOAD PUSH1 0x1F NOT DUP2 DUP5 SUB ADD DUP2 MSTORE SWAP2 DUP2 MSTORE PUSH1 0x20 DUP3 ADD DUP1 MLOAD PUSH1 0x1 PUSH1 0x1 PUSH1 0xE0 SHL SUB AND PUSH1 0x1 PUSH1 0x1 PUSH1 0xE0 SHL SUB NOT SWAP1 SWAP5 AND SWAP4 SWAP1 SWAP4 OR SWAP1 SWAP3 MSTORE PUSH1 0x2 SLOAD SWAP2 MLOAD PUSH4 0x2000575 PUSH1 0xE5 SHL DUP2 MSTORE SWAP1 SWAP3 POP PUSH1 0x1 PUSH1 0x1 PUSH1 0xA0 SHL SUB SWAP1 SWAP2 AND SWAP1 PUSH4 0x4000AEA0 SWAP1 PUSH2 0xAF1 SWAP1 DUP11 SWAP1 DUP10 SWAP1 DUP7 SWAP1 PUSH1 0x4 ADD PUSH2 0x1300 JUMP JUMPDEST PUSH1 0x20 PUSH1 0x40 MLOAD DUP1 DUP4 SUB DUP2 PUSH1 0x0 DUP8 DUP1 EXTCODESIZE ISZERO DUP1 ISZERO PUSH2 0xB0B JUMPI PUSH1 0x0 DUP1 REVERT JUMPDEST POP GAS CALL ISZERO DUP1 ISZERO PUSH2 0xB1F JUMPI RETURNDATASIZE PUSH1 0x0 DUP1 RETURNDATACOPY RETURNDATASIZE PUSH1 0x0 REVERT JUMPDEST POP POP POP POP PUSH1 0x40 MLOAD RETURNDATASIZE PUSH1 0x1F NOT PUSH1 0x1F DUP3 ADD AND DUP3 ADD DUP1 PUSH1 0x40 MSTORE POP DUP2 ADD SWAP1 PUSH2 0xB43 SWAP2 SWAP1 PUSH2 0x1153 JUMP JUMPDEST PUSH2 0xB9B JUMPI PUSH1 0x40 MLOAD PUSH3 0x461BCD PUSH1 0xE5 SHL DUP2 MSTORE PUSH1 0x20 PUSH1 0x4 DUP3 ADD MSTORE PUSH1 0x23 PUSH1 0x24 DUP3 ADD MSTORE PUSH32 0x756E61626C6520746F207472616E73666572416E6443616C6C20746F206F7261 PUSH1 0x44 DUP3 ADD MSTORE PUSH3 0x636C65 PUSH1 0xE8 SHL PUSH1 0x64 DUP3 ADD MSTORE PUSH1 0x84 ADD PUSH2 0x2C9 JUMP JUMPDEST PUSH1 0x1 PUSH1 0x4 PUSH1 0x0 DUP3 DUP3 SLOAD PUSH2 0xBAE SWAP2 SWAP1 PUSH2 0x136B JUMP JUMPDEST SWAP1 SWAP2 SSTORE POP SWAP2 SWAP8 SWAP7 POP POP POP POP POP POP POP JUMP JUMPDEST PUSH1 0x40 DUP1 MLOAD DUP1 DUP3 ADD SWAP1 SWAP2 MSTORE PUSH1 0x60 DUP2 MSTORE PUSH1 0x0 PUSH1 0x20 DUP3 ADD MSTORE PUSH2 0x7D6 DUP4 DUP5 PUSH1 0x0 ADD MLOAD MLOAD DUP5 PUSH2 0xD0E JUMP JUMPDEST PUSH1 0x40 DUP1 MLOAD DUP1 DUP3 ADD SWAP1 SWAP2 MSTORE PUSH1 0x60 DUP2 MSTORE PUSH1 0x0 PUSH1 0x20 DUP3 ADD MSTORE PUSH2 0x84A DUP5 DUP6 PUSH1 0x0 ADD MLOAD MLOAD DUP6 DUP6 PUSH2 0xD6A JUMP JUMPDEST PUSH1 0x40 DUP1 MLOAD DUP1 DUP3 ADD SWAP1 SWAP2 MSTORE PUSH1 0x60 DUP2 MSTORE PUSH1 0x0 PUSH1 0x20 DUP3 ADD MSTORE DUP3 MLOAD DUP3 GT ISZERO PUSH2 0xC2C JUMPI PUSH1 0x0 DUP1 REVERT JUMPDEST PUSH1 0x20 DUP6 ADD MLOAD PUSH2 0xC3B DUP4 DUP7 PUSH2 0x136B JUMP JUMPDEST GT ISZERO PUSH2 0xC6E JUMPI PUSH2 0xC6E DUP6 PUSH2 0xC5E DUP8 PUSH1 0x20 ADD MLOAD DUP8 DUP7 PUSH2 0xC59 SWAP2 SWAP1 PUSH2 0x136B JUMP JUMPDEST PUSH2 0xDEB JUMP JUMPDEST PUSH2 0xC69 SWAP1 PUSH1 0x2 PUSH2 0x146E JUMP JUMPDEST PUSH2 0xE02 JUMP JUMPDEST PUSH1 0x0 DUP1 DUP7 MLOAD DUP1 MLOAD DUP8 PUSH1 0x20 DUP4 ADD ADD SWAP4 POP DUP1 DUP9 DUP8 ADD GT ISZERO PUSH2 0xC8D JUMPI DUP8 DUP7 ADD DUP3 MSTORE JUMPDEST POP POP POP PUSH1 0x20 DUP5 ADD JUMPDEST PUSH1 0x20 DUP5 LT PUSH2 0xCCD JUMPI DUP1 MLOAD DUP3 MSTORE PUSH2 0xCAC PUSH1 0x20 DUP4 PUSH2 0x136B JUMP JUMPDEST SWAP2 POP PUSH2 0xCB9 PUSH1 0x20 DUP3 PUSH2 0x136B JUMP JUMPDEST SWAP1 POP PUSH2 0xCC6 PUSH1 0x20 DUP6 PUSH2 0x148D JUMP JUMPDEST SWAP4 POP PUSH2 0xC95 JUMP JUMPDEST PUSH1 0x0 PUSH1 0x1 PUSH2 0xCDC DUP7 PUSH1 0x20 PUSH2 0x148D JUMP JUMPDEST PUSH2 0xCE8 SWAP1 PUSH2 0x100 PUSH2 0x13C6 JUMP JUMPDEST PUSH2 0xCF2 SWAP2 SWAP1 PUSH2 0x148D JUMP JUMPDEST SWAP2 MLOAD DUP4 MLOAD DUP4 AND SWAP3 NOT AND SWAP2 SWAP1 SWAP2 OR SWAP1 SWAP2 MSTORE POP DUP5 SWAP1 POP SWAP5 SWAP4 POP POP POP POP JUMP JUMPDEST PUSH1 0x40 DUP1 MLOAD DUP1 DUP3 ADD SWAP1 SWAP2 MSTORE PUSH1 0x60 DUP2 MSTORE PUSH1 0x0 PUSH1 0x20 DUP3 ADD MSTORE DUP4 PUSH1 0x20 ADD MLOAD DUP4 LT PUSH2 0xD43 JUMPI PUSH2 0xD43 DUP5 DUP6 PUSH1 0x20 ADD MLOAD PUSH1 0x2 PUSH2 0xC69 SWAP2 SWAP1 PUSH2 0x146E JUMP JUMPDEST DUP4 MLOAD DUP1 MLOAD PUSH1 0x20 DUP6 DUP4 ADD ADD DUP5 DUP2 MSTORE8 POP DUP1 DUP6 EQ ISZERO PUSH2 0xD60 JUMPI PUSH1 0x1 DUP2 ADD DUP3 MSTORE JUMPDEST POP SWAP4 SWAP5 SWAP4 POP POP POP POP JUMP JUMPDEST PUSH1 0x40 DUP1 MLOAD DUP1 DUP3 ADD SWAP1 SWAP2 MSTORE PUSH1 0x60 DUP2 MSTORE PUSH1 0x0 PUSH1 0x20 DUP3 ADD MSTORE PUSH1 0x20 DUP6 ADD MLOAD PUSH2 0xD8E DUP6 DUP5 PUSH2 0x136B JUMP JUMPDEST GT ISZERO PUSH2 0xDA2 JUMPI PUSH2 0xDA2 DUP6 PUSH2 0xC5E DUP7 DUP6 PUSH2 0x136B JUMP JUMPDEST PUSH1 0x0 PUSH1 0x1 PUSH2 0xDB2 DUP5 PUSH2 0x100 PUSH2 0x13C6 JUMP JUMPDEST PUSH2 0xDBC SWAP2 SWAP1 PUSH2 0x148D JUMP JUMPDEST SWAP1 POP DUP6 MLOAD DUP4 DUP7 DUP3 ADD ADD DUP6 DUP4 NOT DUP3 MLOAD AND OR DUP2 MSTORE POP DUP1 MLOAD DUP5 DUP8 ADD GT ISZERO PUSH2 0xDE0 JUMPI DUP4 DUP7 ADD DUP2 MSTORE JUMPDEST POP SWAP5 SWAP6 SWAP5 POP POP POP POP POP JUMP JUMPDEST PUSH1 0x0 DUP2 DUP4 GT ISZERO PUSH2 0xDFC JUMPI POP DUP2 PUSH2 0x7D9 JUMP JUMPDEST POP SWAP2 SWAP1 POP JUMP JUMPDEST DUP2 MLOAD PUSH2 0xE0E DUP4 DUP4 PUSH2 0x852 JUMP JUMPDEST POP PUSH2 0x8D2 DUP4 DUP3 PUSH2 0x98B JUMP JUMPDEST DUP3 DUP1 SLOAD PUSH2 0xE25 SWAP1 PUSH2 0x14D0 JUMP JUMPDEST SWAP1 PUSH1 0x0 MSTORE PUSH1 0x20 PUSH1 0x0 KECCAK256 SWAP1 PUSH1 0x1F ADD PUSH1 0x20 SWAP1 DIV DUP2 ADD SWAP3 DUP3 PUSH2 0xE47 JUMPI PUSH1 0x0 DUP6 SSTORE PUSH2 0xE8D JUMP JUMPDEST DUP3 PUSH1 0x1F LT PUSH2 0xE60 JUMPI DUP1 MLOAD PUSH1 0xFF NOT AND DUP4 DUP1 ADD OR DUP6 SSTORE PUSH2 0xE8D JUMP JUMPDEST DUP3 DUP1 ADD PUSH1 0x1 ADD DUP6 SSTORE DUP3 ISZERO PUSH2 0xE8D JUMPI SWAP2 DUP3 ADD JUMPDEST DUP3 DUP2 GT ISZERO PUSH2 0xE8D JUMPI DUP3 MLOAD DUP3 SSTORE SWAP2 PUSH1 0x20 ADD SWAP2 SWAP1 PUSH1 0x1 ADD SWAP1 PUSH2 0xE72 JUMP JUMPDEST POP PUSH2 0xE99 SWAP3 SWAP2 POP PUSH2 0xFAC JUMP JUMPDEST POP SWAP1 JUMP JUMPDEST DUP3 DUP1 SLOAD PUSH2 0xEA9 SWAP1 PUSH2 0x14D0 JUMP JUMPDEST SWAP1 PUSH1 0x0 MSTORE PUSH1 0x20 PUSH1 0x0 KECCAK256 SWAP1 PUSH1 0x1F ADD PUSH1 0x20 SWAP1 DIV DUP2 ADD SWAP3 DUP3 PUSH2 0xECB JUMPI PUSH1 0x0 DUP6 SSTORE PUSH2 0xE8D JUMP JUMPDEST DUP3 PUSH1 0x1F LT PUSH2 0xEDC JUMPI DUP1 SLOAD DUP6 SSTORE PUSH2 0xE8D JUMP JUMPDEST DUP3 DUP1 ADD PUSH1 0x1 ADD DUP6 SSTORE DUP3 ISZERO PUSH2 0xE8D JUMPI PUSH1 0x0 MSTORE PUSH1 0x20 PUSH1 0x0 KECCAK256 SWAP2 PUSH1 0x1F ADD PUSH1 0x20 SWAP1 DIV DUP3 ADD JUMPDEST DUP3 DUP2 GT ISZERO PUSH2 0xE8D JUMPI DUP3 SLOAD DUP3 SSTORE SWAP2 PUSH1 0x1 ADD SWAP2 SWAP1 PUSH1 0x1 ADD SWAP1 PUSH2 0xEFD JUMP JUMPDEST DUP3 DUP1 SLOAD DUP3 DUP3 SSTORE SWAP1 PUSH1 0x0 MSTORE PUSH1 0x20 PUSH1 0x0 KECCAK256 SWAP1 DUP2 ADD SWAP3 DUP3 ISZERO PUSH2 0xF65 JUMPI SWAP2 PUSH1 0x20 MUL DUP3 ADD JUMPDEST DUP3 DUP2 GT ISZERO PUSH2 0xF65 JUMPI DUP3 MLOAD DUP1 MLOAD PUSH2 0xF55 SWAP2 DUP5 SWAP2 PUSH1 0x20 SWAP1 SWAP2 ADD SWAP1 PUSH2 0xE19 JUMP JUMPDEST POP SWAP2 PUSH1 0x20 ADD SWAP2 SWAP1 PUSH1 0x1 ADD SWAP1 PUSH2 0xF38 JUMP JUMPDEST POP PUSH2 0xE99 SWAP3 SWAP2 POP PUSH2 0xFC1 JUMP JUMPDEST PUSH1 0x40 DUP1 MLOAD PUSH1 0xA0 DUP2 ADD DUP3 MSTORE PUSH1 0x0 DUP1 DUP3 MSTORE PUSH1 0x20 DUP1 DUP4 ADD DUP3 SWAP1 MSTORE DUP3 DUP5 ADD DUP3 SWAP1 MSTORE PUSH1 0x60 DUP1 DUP5 ADD DUP4 SWAP1 MSTORE DUP5 MLOAD DUP1 DUP7 ADD SWAP1 SWAP6 MSTORE DUP5 MSTORE DUP4 ADD MSTORE SWAP1 PUSH1 0x80 DUP3 ADD MSTORE SWAP1 JUMP JUMPDEST JUMPDEST DUP1 DUP3 GT ISZERO PUSH2 0xE99 JUMPI PUSH1 0x0 DUP2 SSTORE PUSH1 0x1 ADD PUSH2 0xFAD JUMP JUMPDEST DUP1 DUP3 GT ISZERO PUSH2 0xE99 JUMPI PUSH1 0x0 PUSH2 0xFD5 DUP3 DUP3 PUSH2 0xFDE JUMP JUMPDEST POP PUSH1 0x1 ADD PUSH2 0xFC1 JUMP JUMPDEST POP DUP1 SLOAD PUSH2 0xFEA SWAP1 PUSH2 0x14D0 JUMP JUMPDEST PUSH1 0x0 DUP3 SSTORE DUP1 PUSH1 0x1F LT PUSH2 0xFFA JUMPI POP POP JUMP JUMPDEST PUSH1 0x1F ADD PUSH1 0x20 SWAP1 DIV SWAP1 PUSH1 0x0 MSTORE PUSH1 0x20 PUSH1 0x0 KECCAK256 SWAP1 DUP2 ADD SWAP1 PUSH2 0x1018 SWAP2 SWAP1 PUSH2 0xFAC JUMP JUMPDEST POP JUMP JUMPDEST PUSH1 0x0 DUP3 PUSH1 0x1F DUP4 ADD SLT PUSH2 0x102C JUMPI PUSH1 0x0 DUP1 REVERT JUMPDEST DUP2 CALLDATALOAD PUSH8 0xFFFFFFFFFFFFFFFF DUP2 GT ISZERO PUSH2 0x1046 JUMPI PUSH2 0x1046 PUSH2 0x153D JUMP JUMPDEST PUSH2 0x1059 PUSH1 0x1F DUP3 ADD PUSH1 0x1F NOT AND PUSH1 0x20 ADD PUSH2 0x133A JUMP JUMPDEST DUP2 DUP2 MSTORE DUP5 PUSH1 0x20 DUP4 DUP7 ADD ADD GT ISZERO PUSH2 0x106E JUMPI PUSH1 0x0 DUP1 REVERT JUMPDEST DUP2 PUSH1 0x20 DUP6 ADD PUSH1 0x20 DUP4 ADD CALLDATACOPY PUSH1 0x0 SWAP2 DUP2 ADD PUSH1 0x20 ADD SWAP2 SWAP1 SWAP2 MSTORE SWAP4 SWAP3 POP POP POP JUMP JUMPDEST PUSH1 0x0 PUSH1 0x20 DUP1 DUP4 DUP6 SUB SLT ISZERO PUSH2 0x109E JUMPI PUSH1 0x0 DUP1 REVERT JUMPDEST DUP3 CALLDATALOAD PUSH8 0xFFFFFFFFFFFFFFFF DUP1 DUP3 GT ISZERO PUSH2 0x10B6 JUMPI PUSH1 0x0 DUP1 REVERT JUMPDEST DUP2 DUP6 ADD SWAP2 POP DUP6 PUSH1 0x1F DUP4 ADD SLT PUSH2 0x10CA JUMPI PUSH1 0x0 DUP1 REVERT JUMPDEST DUP2 CALLDATALOAD DUP2 DUP2 GT ISZERO PUSH2 0x10DC JUMPI PUSH2 0x10DC PUSH2 0x153D JUMP JUMPDEST DUP1 PUSH1 0x5 SHL PUSH2 0x10EB DUP6 DUP3 ADD PUSH2 0x133A JUMP JUMPDEST DUP3 DUP2 MSTORE DUP6 DUP2 ADD SWAP1 DUP6 DUP8 ADD DUP4 DUP8 ADD DUP9 ADD DUP12 LT ISZERO PUSH2 0x1106 JUMPI PUSH1 0x0 DUP1 REVERT JUMPDEST PUSH1 0x0 SWAP4 POP DUP4 JUMPDEST DUP6 DUP2 LT ISZERO PUSH2 0x1143 JUMPI DUP2 CALLDATALOAD DUP8 DUP2 GT ISZERO PUSH2 0x1122 JUMPI DUP6 DUP7 REVERT JUMPDEST PUSH2 0x1130 DUP14 DUP12 DUP4 DUP13 ADD ADD PUSH2 0x101B JUMP JUMPDEST DUP6 MSTORE POP SWAP3 DUP9 ADD SWAP3 SWAP1 DUP9 ADD SWAP1 PUSH1 0x1 ADD PUSH2 0x110C JUMP JUMPDEST POP SWAP1 SWAP11 SWAP10 POP POP POP POP POP POP POP POP POP POP JUMP JUMPDEST PUSH1 0x0 PUSH1 0x20 DUP3 DUP5 SUB SLT ISZERO PUSH2 0x1165 JUMPI PUSH1 0x0 DUP1 REVERT JUMPDEST DUP2 MLOAD DUP1 ISZERO ISZERO DUP2 EQ PUSH2 0x1175 JUMPI PUSH1 0x0 DUP1 REVERT JUMPDEST SWAP4 SWAP3 POP POP POP JUMP JUMPDEST PUSH1 0x0 DUP1 PUSH1 0x0 PUSH1 0x60 DUP5 DUP7 SUB SLT ISZERO PUSH2 0x1191 JUMPI PUSH1 0x0 DUP1 REVERT JUMPDEST DUP4 CALLDATALOAD SWAP3 POP PUSH1 0x20 DUP5 ADD CALLDATALOAD PUSH8 0xFFFFFFFFFFFFFFFF DUP1 DUP3 GT ISZERO PUSH2 0x11B0 JUMPI PUSH1 0x0 DUP1 REVERT JUMPDEST PUSH2 0x11BC DUP8 DUP4 DUP9 ADD PUSH2 0x101B JUMP JUMPDEST SWAP4 POP PUSH1 0x40 DUP7 ADD CALLDATALOAD SWAP2 POP DUP1 DUP3 GT ISZERO PUSH2 0x11D2 JUMPI PUSH1 0x0 DUP1 REVERT JUMPDEST POP PUSH2 0x11DF DUP7 DUP3 DUP8 ADD PUSH2 0x101B JUMP JUMPDEST SWAP2 POP POP SWAP3 POP SWAP3 POP SWAP3 JUMP JUMPDEST PUSH1 0x0 PUSH1 0x20 DUP3 DUP5 SUB SLT ISZERO PUSH2 0x11FB JUMPI PUSH1 0x0 DUP1 REVERT JUMPDEST DUP2 CALLDATALOAD PUSH8 0xFFFFFFFFFFFFFFFF DUP2 GT ISZERO PUSH2 0x1212 JUMPI PUSH1 0x0 DUP1 REVERT JUMPDEST PUSH2 0x84A DUP5 DUP3 DUP6 ADD PUSH2 0x101B JUMP JUMPDEST PUSH1 0x0 PUSH1 0x20 DUP3 DUP5 SUB SLT ISZERO PUSH2 0x1230 JUMPI PUSH1 0x0 DUP1 REVERT JUMPDEST POP CALLDATALOAD SWAP2 SWAP1 POP JUMP JUMPDEST PUSH1 0x0 PUSH1 0x20 DUP3 DUP5 SUB SLT ISZERO PUSH2 0x1249 JUMPI PUSH1 0x0 DUP1 REVERT JUMPDEST POP MLOAD SWAP2 SWAP1 POP JUMP JUMPDEST PUSH1 0x0 DUP2 MLOAD DUP1 DUP5 MSTORE PUSH2 0x1268 DUP2 PUSH1 0x20 DUP7 ADD PUSH1 0x20 DUP7 ADD PUSH2 0x14A4 JUMP JUMPDEST PUSH1 0x1F ADD PUSH1 0x1F NOT AND SWAP3 SWAP1 SWAP3 ADD PUSH1 0x20 ADD SWAP3 SWAP2 POP POP JUMP JUMPDEST PUSH1 0x0 DUP3 MLOAD PUSH2 0x128E DUP2 DUP5 PUSH1 0x20 DUP8 ADD PUSH2 0x14A4 JUMP JUMPDEST SWAP2 SWAP1 SWAP2 ADD SWAP3 SWAP2 POP POP JUMP JUMPDEST PUSH1 0x1 PUSH1 0x1 PUSH1 0xA0 SHL SUB DUP10 DUP2 AND DUP3 MSTORE PUSH1 0x20 DUP3 ADD DUP10 SWAP1 MSTORE PUSH1 0x40 DUP3 ADD DUP9 SWAP1 MSTORE DUP7 AND PUSH1 0x60 DUP3 ADD MSTORE PUSH1 0x1 PUSH1 0x1 PUSH1 0xE0 SHL SUB NOT DUP6 AND PUSH1 0x80 DUP3 ADD MSTORE PUSH1 0xA0 DUP2 ADD DUP5 SWAP1 MSTORE PUSH1 0xC0 DUP2 ADD DUP4 SWAP1 MSTORE PUSH2 0x100 PUSH1 0xE0 DUP3 ADD DUP2 SWAP1 MSTORE PUSH1 0x0 SWAP1 PUSH2 0x12F1 DUP4 DUP3 ADD DUP6 PUSH2 0x1250 JUMP JUMPDEST SWAP12 SWAP11 POP POP POP POP POP POP POP POP POP POP POP JUMP JUMPDEST PUSH1 0x1 DUP1 PUSH1 0xA0 SHL SUB DUP5 AND DUP2 MSTORE DUP3 PUSH1 0x20 DUP3 ADD MSTORE PUSH1 0x60 PUSH1 0x40 DUP3 ADD MSTORE PUSH1 0x0 PUSH2 0x790 PUSH1 0x60 DUP4 ADD DUP5 PUSH2 0x1250 JUMP JUMPDEST PUSH1 0x20 DUP2 MSTORE PUSH1 0x0 PUSH2 0x7D6 PUSH1 0x20 DUP4 ADD DUP5 PUSH2 0x1250 JUMP JUMPDEST PUSH1 0x40 MLOAD PUSH1 0x1F DUP3 ADD PUSH1 0x1F NOT AND DUP2 ADD PUSH8 0xFFFFFFFFFFFFFFFF DUP2 GT DUP3 DUP3 LT OR ISZERO PUSH2 0x1363 JUMPI PUSH2 0x1363 PUSH2 0x153D JUMP JUMPDEST PUSH1 0x40 MSTORE SWAP2 SWAP1 POP JUMP JUMPDEST PUSH1 0x0 DUP3 NOT DUP3 GT ISZERO PUSH2 0x137E JUMPI PUSH2 0x137E PUSH2 0x1527 JUMP JUMPDEST POP ADD SWAP1 JUMP JUMPDEST PUSH1 0x1 DUP2 DUP2 JUMPDEST DUP1 DUP6 GT ISZERO PUSH2 0x13BE JUMPI DUP2 PUSH1 0x0 NOT DIV DUP3 GT ISZERO PUSH2 0x13A4 JUMPI PUSH2 0x13A4 PUSH2 0x1527 JUMP JUMPDEST DUP1 DUP6 AND ISZERO PUSH2 0x13B1 JUMPI SWAP2 DUP2 MUL SWAP2 JUMPDEST SWAP4 DUP5 SHR SWAP4 SWAP1 DUP1 MUL SWAP1 PUSH2 0x1388 JUMP JUMPDEST POP SWAP3 POP SWAP3 SWAP1 POP JUMP JUMPDEST PUSH1 0x0 PUSH2 0x7D6 DUP4 DUP4 PUSH1 0x0 DUP3 PUSH2 0x13DC JUMPI POP PUSH1 0x1 PUSH2 0x7D9 JUMP JUMPDEST DUP2 PUSH2 0x13E9 JUMPI POP PUSH1 0x0 PUSH2 0x7D9 JUMP JUMPDEST DUP2 PUSH1 0x1 DUP2 EQ PUSH2 0x13FF JUMPI PUSH1 0x2 DUP2 EQ PUSH2 0x1409 JUMPI PUSH2 0x1425 JUMP JUMPDEST PUSH1 0x1 SWAP2 POP POP PUSH2 0x7D9 JUMP JUMPDEST PUSH1 0xFF DUP5 GT ISZERO PUSH2 0x141A JUMPI PUSH2 0x141A PUSH2 0x1527 JUMP JUMPDEST POP POP PUSH1 0x1 DUP3 SHL PUSH2 0x7D9 JUMP JUMPDEST POP PUSH1 0x20 DUP4 LT PUSH2 0x133 DUP4 LT AND PUSH1 0x4E DUP5 LT PUSH1 0xB DUP5 LT AND OR ISZERO PUSH2 0x1448 JUMPI POP DUP2 DUP2 EXP PUSH2 0x7D9 JUMP JUMPDEST PUSH2 0x1452 DUP4 DUP4 PUSH2 0x1383 JUMP JUMPDEST DUP1 PUSH1 0x0 NOT DIV DUP3 GT ISZERO PUSH2 0x1466 JUMPI PUSH2 0x1466 PUSH2 0x1527 JUMP JUMPDEST MUL SWAP4 SWAP3 POP POP POP JUMP JUMPDEST PUSH1 0x0 DUP2 PUSH1 0x0 NOT DIV DUP4 GT DUP3 ISZERO ISZERO AND ISZERO PUSH2 0x1488 JUMPI PUSH2 0x1488 PUSH2 0x1527 JUMP JUMPDEST POP MUL SWAP1 JUMP JUMPDEST PUSH1 0x0 DUP3 DUP3 LT ISZERO PUSH2 0x149F JUMPI PUSH2 0x149F PUSH2 0x1527 JUMP JUMPDEST POP SUB SWAP1 JUMP JUMPDEST PUSH1 0x0 JUMPDEST DUP4 DUP2 LT ISZERO PUSH2 0x14BF JUMPI DUP2 DUP2 ADD MLOAD DUP4 DUP3 ADD MSTORE PUSH1 0x20 ADD PUSH2 0x14A7 JUMP JUMPDEST DUP4 DUP2 GT ISZERO PUSH2 0x8D2 JUMPI POP POP PUSH1 0x0 SWAP2 ADD MSTORE JUMP JUMPDEST PUSH1 0x1 DUP2 DUP2 SHR SWAP1 DUP3 AND DUP1 PUSH2 0x14E4 JUMPI PUSH1 0x7F DUP3 AND SWAP2 POP JUMPDEST PUSH1 0x20 DUP3 LT DUP2 EQ ISZERO PUSH2 0xDFC JUMPI PUSH4 0x4E487B71 PUSH1 0xE0 SHL PUSH1 0x0 MSTORE PUSH1 0x22 PUSH1 0x4 MSTORE PUSH1 0x24 PUSH1 0x0 REVERT JUMPDEST PUSH1 0x0 DUP3 PUSH2 0x1522 JUMPI PUSH4 0x4E487B71 PUSH1 0xE0 SHL PUSH1 0x0 MSTORE PUSH1 0x12 PUSH1 0x4 MSTORE PUSH1 0x24 PUSH1 0x0 REVERT JUMPDEST POP MOD SWAP1 JUMP JUMPDEST PUSH4 0x4E487B71 PUSH1 0xE0 SHL PUSH1 0x0 MSTORE PUSH1 0x11 PUSH1 0x4 MSTORE PUSH1 0x24 PUSH1 0x0 REVERT JUMPDEST PUSH4 0x4E487B71 PUSH1 0xE0 SHL PUSH1 0x0 MSTORE PUSH1 0x41 PUSH1 0x4 MSTORE PUSH1 0x24 PUSH1 0x0 REVERT INVALID LOG2 PUSH5 0x6970667358 0x22 SLT KECCAK256 NOT 0x4C 0x2B MLOAD COINBASE DUP15 0xB9 MLOAD DUP11 CALLDATASIZE EQ JUMPI 0xA7 0xD5 PUSH13 0x166DE3F2C1F3B8D7166F9AEE28 SWAP8 SHR 0xFC GASPRICE PUSH5 0x736F6C6343 STOP ADDMOD SMOD STOP CALLER ","sha1":"d31634d846ff83d4e7c5acee3c2f2fd76f3b1fd1","source":"//SPDX-License-Identifier: MIT\npragma solidity ^0.8.0;\n\nimport \"@chainlink/contracts/src/v0.8/ChainlinkClient.sol\";\nimport \"../interfaces/IERC20.sol\";\n/**\n * @notice DO NOT USE THIS CODE IN PRODUCTION. This is an example contract. \n */\ncontract Consumer is ChainlinkClient {\n  using Chainlink for Chainlink.Request;\n\n  // variable bytes returned in a signle oracle response\n  bytes public data;\n  bytes public data2;\n  string public response;\n  string public response2;\n  uint public fee = 1000;\n  string[] public weaponsList;\n\n\n  /**\n   * @notice Initialize the link token and target oracle\n   * @dev The oracle address must be an Operator contract for multiword response\n   *\n   *\n   * Kovan Testnet details: \n   * Link Token: 0xa36085F69e2889c224210F603D836748e7dC0088\n   * Oracle: \n   */\n  constructor(\n  ) {\n    setChainlinkToken(0xa36085F69e2889c224210F603D836748e7dC0088);\n    setChainlinkOracle(0x45Fd8dF7E9348b14AfC145599F719DbE27977Fd9);\n    \n  }\n  /**\n   * @notice Request variable bytes from the oracle\n   */\n  function requestBytes(string memory _prompt\n  )\n    public\n  {\n    // require(msg.value >= fee, \"Include fee in transaction\");\n    bytes32 specId = \"c4f7187d604a45749a81dbf67421a1de\";\n    uint256 payment = 100000000000000;\n    require(IERC20(0xa36085F69e2889c224210F603D836748e7dC0088).balanceOf(address(this)) >= payment, \"Not enough link\");\n    Chainlink.Request memory req = buildChainlinkRequest(specId, address(this), this.fulfillBytes.selector);\n    req.add(\"prompt\", _prompt);\n    // req.add(\"itemType\", \"Weapons\");\n    bytes32 id = requestOracleData(req, payment);\n    \n  }\n\n  event RequestFulfilled(\n    bytes32 indexed requestId,\n    bytes indexed data\n  );\n\n  event doSomethingPLEASE();\n\n  \n  function fulfillBytes(\n    bytes32 requestId,\n    bytes memory bytesData,\n    bytes memory bytesData2\n  )\n    public\n    recordChainlinkFulfillment(requestId)\n  {\n    emit doSomethingPLEASE();\n    emit RequestFulfilled(requestId, bytesData);\n    data = bytesData;\n    data2 = bytesData2;\n    emit RequestFulfilled(requestId, bytesData);\n    response = string(data);\n    response2 = string(data2);\n    emit RequestFulfilled(requestId, bytesData);\n    emit doSomethingPLEASE();\n    emit doSomethingPLEASE();\n  }\n \n  \n  function withdrawLink() public {\n    uint256 bal = IERC20(0xa36085F69e2889c224210F603D836748e7dC0088).balanceOf(address(this));\n    IERC20(0xa36085F69e2889c224210F603D836748e7dC0088).transfer(msg.sender, bal);\n  }\n\n  function getList(string[] memory items) public {\n    weaponsList = items;\n  }\n  \n  receive() external payable {}\n\n}\n","sourcePath":"contracts/Consumer.sol","deployment":{"address":"0x80578581B8Ff73046503eD6e72Fb99FeE420D5C4","chainid":"42","blockHeight":27420679}}