{"abi":[{"inputs":[],"stateMutability":"nonpayable","type":"constructor","name":"constructor"},{"anonymous":false,"inputs":[{"indexed":true,"internalType":"bytes32","name":"id","type":"bytes32"}],"name":"ChainlinkCancelled","type":"event"},{"anonymous":false,"inputs":[{"indexed":true,"internalType":"bytes32","name":"id","type":"bytes32"}],"name":"ChainlinkFulfilled","type":"event"},{"anonymous":false,"inputs":[{"indexed":true,"internalType":"bytes32","name":"id","type":"bytes32"}],"name":"ChainlinkRequested","type":"event"},{"anonymous":false,"inputs":[{"indexed":true,"internalType":"bytes32","name":"requestId","type":"bytes32"},{"indexed":true,"internalType":"bytes","name":"data","type":"bytes"}],"name":"RequestFulfilled","type":"event"},{"inputs":[],"name":"data","outputs":[{"internalType":"bytes","name":"","type":"bytes"}],"stateMutability":"view","type":"function"},{"inputs":[],"name":"fee","outputs":[{"internalType":"uint256","name":"","type":"uint256"}],"stateMutability":"view","type":"function"},{"inputs":[{"internalType":"bytes32","name":"requestId","type":"bytes32"},{"internalType":"bytes","name":"answer","type":"bytes"}],"name":"fulfillBytes","outputs":[],"stateMutability":"nonpayable","type":"function"},{"inputs":[{"internalType":"string","name":"_prompt","type":"string"}],"name":"requestBytes","outputs":[],"stateMutability":"nonpayable","type":"function"},{"inputs":[],"name":"response","outputs":[{"internalType":"string","name":"","type":"string"}],"stateMutability":"view","type":"function"},{"inputs":[],"name":"withdrawLink","outputs":[],"stateMutability":"nonpayable","type":"function"},{"stateMutability":"payable","type":"receive"}],"bytecode":"608060405260016004556103e860085534801561001b57600080fd5b50600280546001600160a01b03191673a36085f69e2889c224210f603d836748e7dc0088179055600380546001600160a01b03191673e19d46ccdbde706ca48e5ac3ec44aff97cace2a0179055610b2d806100776000396000f3fe6080604052600436106100595760003560e01c806373d4a13a146100655780637a7f01a7146100905780638dc654a2146100a5578063c2fb8523146100bc578063ddca3f43146100dc578063f5094c9d1461010057600080fd5b3661006057005b600080fd5b34801561007157600080fd5b5061007a610120565b6040516100879190610a2c565b60405180910390f35b34801561009c57600080fd5b5061007a6101ae565b3480156100b157600080fd5b506100ba6101bb565b005b3480156100c857600080fd5b506100ba6100d7366004610893565b6102d2565b3480156100e857600080fd5b506100f260085481565b604051908152602001610087565b34801561010c57600080fd5b506100ba61011b3660046108ee565b610398565b6006805461012d90610a6e565b80601f016020809104026020016040519081016040528092919081815260200182805461015990610a6e565b80156101a65780601f1061017b576101008083540402835291602001916101a6565b820191906000526020600020905b81548152906001019060200180831161018957829003601f168201915b505050505081565b6007805461012d90610a6e565b6040516370a0823160e01b815230600482015260009073a36085f69e2889c224210f603d836748e7dc0088906370a082319060240160206040518083038186803b15801561020857600080fd5b505afa15801561021c573d6000803e3d6000fd5b505050506040513d601f19601f820116820180604052508101906102409190610937565b60405163a9059cbb60e01b81523360048201526024810182905290915073a36085f69e2889c224210f603d836748e7dc00889063a9059cbb90604401602060405180830381600087803b15801561029657600080fd5b505af11580156102aa573d6000803e3d6000fd5b505050506040513d601f19601f820116820180604052508101906102ce9190610871565b5050565b60008281526005602052604090205482906001600160a01b031633146103505760405162461bcd60e51b815260206004820152602860248201527f536f75726365206d75737420626520746865206f7261636c65206f6620746865604482015267081c995c5d595cdd60c21b60648201526084015b60405180910390fd5b60008181526005602052604080822080546001600160a01b03191690555182917f7cc135e0cebb02c3480ae5d74d377283180a2601f8f644edf7987b009316c63a91a2505050565b6040516370a0823160e01b81523060048201527f306565633765316464306432343736636231613837326466623636333366303490655af3107a400090819073a36085f69e2889c224210f603d836748e7dc0088906370a082319060240160206040518083038186803b15801561040e57600080fd5b505afa158015610422573d6000803e3d6000fd5b505050506040513d601f19601f820116820180604052508101906104469190610937565b10156104865760405162461bcd60e51b815260206004820152600f60248201526e4e6f7420656e6f756768206c696e6b60881b6044820152606401610347565b600061049a833063c2fb852360e01b6104ad565b90506104a681836104d2565b5050505050565b6104b56107c0565b6104bd6107c0565b6104c9818686866104f3565b95945050505050565b6003546000906104ec906001600160a01b03168484610530565b9392505050565b6104fb6107c0565b61050b856080015161010061054f565b50509183526001600160a01b031660208301526001600160e01b031916604082015290565b600061054784848460026336f43ceb60e11b6105b4565b949350505050565b60408051808201909152606081526000602082015261056f602083610aa9565b156105975761057f602083610aa9565b61058a906020610a57565b6105949083610a3f565b91505b506020828101829052604080518085526000815290920101905290565b6004546040516bffffffffffffffffffffffff193060601b166020820152603481019190915260009060540160408051808303601f19018152918152815160209283012060045460608901526000818152600590935281832080546001600160a01b0319166001600160a01b038b16179055905190925082917fb5e6e01e79f91267dc17b4e6314d5d4d03593d2ceee0fbb452b750bd70ea5af991a2600082600080886000015189602001518a604001518b606001518a8d608001516000015160405160240161068b98979695949392919061099d565b60408051601f198184030181529181526020820180516001600160e01b03166001600160e01b0319909416939093179092526002549151630200057560e51b81529092506001600160a01b0390911690634000aea0906106f3908a9089908690600401610a05565b602060405180830381600087803b15801561070d57600080fd5b505af1158015610721573d6000803e3d6000fd5b505050506040513d601f19601f820116820180604052508101906107459190610871565b61079d5760405162461bcd60e51b815260206004820152602360248201527f756e61626c6520746f207472616e73666572416e6443616c6c20746f206f7261604482015262636c6560e81b6064820152608401610347565b6001600460008282546107b09190610a3f565b9091555091979650505050505050565b6040805160a0810182526000808252602080830182905282840182905260608084018390528451808601909552845283015290608082015290565b600067ffffffffffffffff8084111561081657610816610ae1565b604051601f8501601f19908116603f0116810190828211818310171561083e5761083e610ae1565b8160405280935085815286868601111561085757600080fd5b858560208301376000602087830101525050509392505050565b60006020828403121561088357600080fd5b815180151581146104ec57600080fd5b600080604083850312156108a657600080fd5b82359150602083013567ffffffffffffffff8111156108c457600080fd5b8301601f810185136108d557600080fd5b6108e4858235602084016107fb565b9150509250929050565b60006020828403121561090057600080fd5b813567ffffffffffffffff81111561091757600080fd5b8201601f8101841361092857600080fd5b610547848235602084016107fb565b60006020828403121561094957600080fd5b5051919050565b6000815180845260005b818110156109765760208185018101518683018201520161095a565b81811115610988576000602083870101525b50601f01601f19169290920160200192915050565b6001600160a01b0389811682526020820189905260408201889052861660608201526001600160e01b03198516608082015260a0810184905260c0810183905261010060e082018190526000906109f683820185610950565b9b9a5050505050505050505050565b60018060a01b03841681528260208201526060604082015260006104c96060830184610950565b6020815260006104ec6020830184610950565b60008219821115610a5257610a52610acb565b500190565b600082821015610a6957610a69610acb565b500390565b600181811c90821680610a8257607f821691505b60208210811415610aa357634e487b7160e01b600052602260045260246000fd5b50919050565b600082610ac657634e487b7160e01b600052601260045260246000fd5b500690565b634e487b7160e01b600052601160045260246000fd5b634e487b7160e01b600052604160045260246000fdfea2646970667358221220d39001064ff60ebbc71c07d148b4c9c300ffbf6b577ffad30515bc6f45d2631a64736f6c63430008070033","bytecodeSha1":"37a29073bd24f01e96eda3a1c3d2120e66f254c0","compiler":{"evm_version":"istanbul","optimizer":{"enabled":true,"runs":200},"version":"0.8.7+commit.e28d00a7"},"contractName":"Consumer","language":"Solidity","natspec":{"kind":"dev","methods":{"constructor":{"details":"The oracle address must be an Operator contract for multiword response Kovan Testnet details:  Link Token: 0xa36085F69e2889c224210F603D836748e7dC0088 Oracle: ","notice":"Initialize the link token and target oracle"},"fulfillBytes(bytes32,bytes)":{"details":"This is called by the oracle. recordChainlinkFulfillment must be used.","notice":"Fulfillment function for variable bytes"},"requestBytes(string)":{"notice":"Request variable bytes from the oracle"}},"notice":"DO NOT USE THIS CODE IN PRODUCTION. This is an example contract. ","version":1},"opcodes":"PUSH1 0x80 PUSH1 0x40 MSTORE PUSH1 0x4 CALLDATASIZE LT PUSH2 0x59 JUMPI PUSH1 0x0 CALLDATALOAD PUSH1 0xE0 SHR DUP1 PUSH4 0x73D4A13A EQ PUSH2 0x65 JUMPI DUP1 PUSH4 0x7A7F01A7 EQ PUSH2 0x90 JUMPI DUP1 PUSH4 0x8DC654A2 EQ PUSH2 0xA5 JUMPI DUP1 PUSH4 0xC2FB8523 EQ PUSH2 0xBC JUMPI DUP1 PUSH4 0xDDCA3F43 EQ PUSH2 0xDC JUMPI DUP1 PUSH4 0xF5094C9D EQ PUSH2 0x100 JUMPI PUSH1 0x0 DUP1 REVERT JUMPDEST CALLDATASIZE PUSH2 0x60 JUMPI STOP JUMPDEST PUSH1 0x0 DUP1 REVERT JUMPDEST CALLVALUE DUP1 ISZERO PUSH2 0x71 JUMPI PUSH1 0x0 DUP1 REVERT JUMPDEST POP PUSH2 0x7A PUSH2 0x120 JUMP JUMPDEST PUSH1 0x40 MLOAD PUSH2 0x87 SWAP2 SWAP1 PUSH2 0xA2C JUMP JUMPDEST PUSH1 0x40 MLOAD DUP1 SWAP2 SUB SWAP1 RETURN JUMPDEST CALLVALUE DUP1 ISZERO PUSH2 0x9C JUMPI PUSH1 0x0 DUP1 REVERT JUMPDEST POP PUSH2 0x7A PUSH2 0x1AE JUMP JUMPDEST CALLVALUE DUP1 ISZERO PUSH2 0xB1 JUMPI PUSH1 0x0 DUP1 REVERT JUMPDEST POP PUSH2 0xBA PUSH2 0x1BB JUMP JUMPDEST STOP JUMPDEST CALLVALUE DUP1 ISZERO PUSH2 0xC8 JUMPI PUSH1 0x0 DUP1 REVERT JUMPDEST POP PUSH2 0xBA PUSH2 0xD7 CALLDATASIZE PUSH1 0x4 PUSH2 0x893 JUMP JUMPDEST PUSH2 0x2D2 JUMP JUMPDEST CALLVALUE DUP1 ISZERO PUSH2 0xE8 JUMPI PUSH1 0x0 DUP1 REVERT JUMPDEST POP PUSH2 0xF2 PUSH1 0x8 SLOAD DUP2 JUMP JUMPDEST PUSH1 0x40 MLOAD SWAP1 DUP2 MSTORE PUSH1 0x20 ADD PUSH2 0x87 JUMP JUMPDEST CALLVALUE DUP1 ISZERO PUSH2 0x10C JUMPI PUSH1 0x0 DUP1 REVERT JUMPDEST POP PUSH2 0xBA PUSH2 0x11B CALLDATASIZE PUSH1 0x4 PUSH2 0x8EE JUMP JUMPDEST PUSH2 0x398 JUMP JUMPDEST PUSH1 0x6 DUP1 SLOAD PUSH2 0x12D SWAP1 PUSH2 0xA6E JUMP JUMPDEST DUP1 PUSH1 0x1F ADD PUSH1 0x20 DUP1 SWAP2 DIV MUL PUSH1 0x20 ADD PUSH1 0x40 MLOAD SWAP1 DUP2 ADD PUSH1 0x40 MSTORE DUP1 SWAP3 SWAP2 SWAP1 DUP2 DUP2 MSTORE PUSH1 0x20 ADD DUP3 DUP1 SLOAD PUSH2 0x159 SWAP1 PUSH2 0xA6E JUMP JUMPDEST DUP1 ISZERO PUSH2 0x1A6 JUMPI DUP1 PUSH1 0x1F LT PUSH2 0x17B JUMPI PUSH2 0x100 DUP1 DUP4 SLOAD DIV MUL DUP4 MSTORE SWAP2 PUSH1 0x20 ADD SWAP2 PUSH2 0x1A6 JUMP JUMPDEST DUP3 ADD SWAP2 SWAP1 PUSH1 0x0 MSTORE PUSH1 0x20 PUSH1 0x0 KECCAK256 SWAP1 JUMPDEST DUP2 SLOAD DUP2 MSTORE SWAP1 PUSH1 0x1 ADD SWAP1 PUSH1 0x20 ADD DUP1 DUP4 GT PUSH2 0x189 JUMPI DUP3 SWAP1 SUB PUSH1 0x1F AND DUP3 ADD SWAP2 JUMPDEST POP POP POP POP POP DUP2 JUMP JUMPDEST PUSH1 0x7 DUP1 SLOAD PUSH2 0x12D SWAP1 PUSH2 0xA6E JUMP JUMPDEST PUSH1 0x40 MLOAD PUSH4 0x70A08231 PUSH1 0xE0 SHL DUP2 MSTORE ADDRESS PUSH1 0x4 DUP3 ADD MSTORE PUSH1 0x0 SWAP1 PUSH20 0xA36085F69E2889C224210F603D836748E7DC0088 SWAP1 PUSH4 0x70A08231 SWAP1 PUSH1 0x24 ADD PUSH1 0x20 PUSH1 0x40 MLOAD DUP1 DUP4 SUB DUP2 DUP7 DUP1 EXTCODESIZE ISZERO DUP1 ISZERO PUSH2 0x208 JUMPI PUSH1 0x0 DUP1 REVERT JUMPDEST POP GAS STATICCALL ISZERO DUP1 ISZERO PUSH2 0x21C JUMPI RETURNDATASIZE PUSH1 0x0 DUP1 RETURNDATACOPY RETURNDATASIZE PUSH1 0x0 REVERT JUMPDEST POP POP POP POP PUSH1 0x40 MLOAD RETURNDATASIZE PUSH1 0x1F NOT PUSH1 0x1F DUP3 ADD AND DUP3 ADD DUP1 PUSH1 0x40 MSTORE POP DUP2 ADD SWAP1 PUSH2 0x240 SWAP2 SWAP1 PUSH2 0x937 JUMP JUMPDEST PUSH1 0x40 MLOAD PUSH4 0xA9059CBB PUSH1 0xE0 SHL DUP2 MSTORE CALLER PUSH1 0x4 DUP3 ADD MSTORE PUSH1 0x24 DUP2 ADD DUP3 SWAP1 MSTORE SWAP1 SWAP2 POP PUSH20 0xA36085F69E2889C224210F603D836748E7DC0088 SWAP1 PUSH4 0xA9059CBB SWAP1 PUSH1 0x44 ADD PUSH1 0x20 PUSH1 0x40 MLOAD DUP1 DUP4 SUB DUP2 PUSH1 0x0 DUP8 DUP1 EXTCODESIZE ISZERO DUP1 ISZERO PUSH2 0x296 JUMPI PUSH1 0x0 DUP1 REVERT JUMPDEST POP GAS CALL ISZERO DUP1 ISZERO PUSH2 0x2AA JUMPI RETURNDATASIZE PUSH1 0x0 DUP1 RETURNDATACOPY RETURNDATASIZE PUSH1 0x0 REVERT JUMPDEST POP POP POP POP PUSH1 0x40 MLOAD RETURNDATASIZE PUSH1 0x1F NOT PUSH1 0x1F DUP3 ADD AND DUP3 ADD DUP1 PUSH1 0x40 MSTORE POP DUP2 ADD SWAP1 PUSH2 0x2CE SWAP2 SWAP1 PUSH2 0x871 JUMP JUMPDEST POP POP JUMP JUMPDEST PUSH1 0x0 DUP3 DUP2 MSTORE PUSH1 0x5 PUSH1 0x20 MSTORE PUSH1 0x40 SWAP1 KECCAK256 SLOAD DUP3 SWAP1 PUSH1 0x1 PUSH1 0x1 PUSH1 0xA0 SHL SUB AND CALLER EQ PUSH2 0x350 JUMPI PUSH1 0x40 MLOAD PUSH3 0x461BCD PUSH1 0xE5 SHL DUP2 MSTORE PUSH1 0x20 PUSH1 0x4 DUP3 ADD MSTORE PUSH1 0x28 PUSH1 0x24 DUP3 ADD MSTORE PUSH32 0x536F75726365206D75737420626520746865206F7261636C65206F6620746865 PUSH1 0x44 DUP3 ADD MSTORE PUSH8 0x81C995C5D595CDD PUSH1 0xC2 SHL PUSH1 0x64 DUP3 ADD MSTORE PUSH1 0x84 ADD JUMPDEST PUSH1 0x40 MLOAD DUP1 SWAP2 SUB SWAP1 REVERT JUMPDEST PUSH1 0x0 DUP2 DUP2 MSTORE PUSH1 0x5 PUSH1 0x20 MSTORE PUSH1 0x40 DUP1 DUP3 KECCAK256 DUP1 SLOAD PUSH1 0x1 PUSH1 0x1 PUSH1 0xA0 SHL SUB NOT AND SWAP1 SSTORE MLOAD DUP3 SWAP2 PUSH32 0x7CC135E0CEBB02C3480AE5D74D377283180A2601F8F644EDF7987B009316C63A SWAP2 LOG2 POP POP POP JUMP JUMPDEST PUSH1 0x40 MLOAD PUSH4 0x70A08231 PUSH1 0xE0 SHL DUP2 MSTORE ADDRESS PUSH1 0x4 DUP3 ADD MSTORE PUSH32 0x3065656337653164643064323437366362316138373264666236363333663034 SWAP1 PUSH6 0x5AF3107A4000 SWAP1 DUP2 SWAP1 PUSH20 0xA36085F69E2889C224210F603D836748E7DC0088 SWAP1 PUSH4 0x70A08231 SWAP1 PUSH1 0x24 ADD PUSH1 0x20 PUSH1 0x40 MLOAD DUP1 DUP4 SUB DUP2 DUP7 DUP1 EXTCODESIZE ISZERO DUP1 ISZERO PUSH2 0x40E JUMPI PUSH1 0x0 DUP1 REVERT JUMPDEST POP GAS STATICCALL ISZERO DUP1 ISZERO PUSH2 0x422 JUMPI RETURNDATASIZE PUSH1 0x0 DUP1 RETURNDATACOPY RETURNDATASIZE PUSH1 0x0 REVERT JUMPDEST POP POP POP POP PUSH1 0x40 MLOAD RETURNDATASIZE PUSH1 0x1F NOT PUSH1 0x1F DUP3 ADD AND DUP3 ADD DUP1 PUSH1 0x40 MSTORE POP DUP2 ADD SWAP1 PUSH2 0x446 SWAP2 SWAP1 PUSH2 0x937 JUMP JUMPDEST LT ISZERO PUSH2 0x486 JUMPI PUSH1 0x40 MLOAD PUSH3 0x461BCD PUSH1 0xE5 SHL DUP2 MSTORE PUSH1 0x20 PUSH1 0x4 DUP3 ADD MSTORE PUSH1 0xF PUSH1 0x24 DUP3 ADD MSTORE PUSH15 0x4E6F7420656E6F756768206C696E6B PUSH1 0x88 SHL PUSH1 0x44 DUP3 ADD MSTORE PUSH1 0x64 ADD PUSH2 0x347 JUMP JUMPDEST PUSH1 0x0 PUSH2 0x49A DUP4 ADDRESS PUSH4 0xC2FB8523 PUSH1 0xE0 SHL PUSH2 0x4AD JUMP JUMPDEST SWAP1 POP PUSH2 0x4A6 DUP2 DUP4 PUSH2 0x4D2 JUMP JUMPDEST POP POP POP POP POP JUMP JUMPDEST PUSH2 0x4B5 PUSH2 0x7C0 JUMP JUMPDEST PUSH2 0x4BD PUSH2 0x7C0 JUMP JUMPDEST PUSH2 0x4C9 DUP2 DUP7 DUP7 DUP7 PUSH2 0x4F3 JUMP JUMPDEST SWAP6 SWAP5 POP POP POP POP POP JUMP JUMPDEST PUSH1 0x3 SLOAD PUSH1 0x0 SWAP1 PUSH2 0x4EC SWAP1 PUSH1 0x1 PUSH1 0x1 PUSH1 0xA0 SHL SUB AND DUP5 DUP5 PUSH2 0x530 JUMP JUMPDEST SWAP4 SWAP3 POP POP POP JUMP JUMPDEST PUSH2 0x4FB PUSH2 0x7C0 JUMP JUMPDEST PUSH2 0x50B DUP6 PUSH1 0x80 ADD MLOAD PUSH2 0x100 PUSH2 0x54F JUMP JUMPDEST POP POP SWAP2 DUP4 MSTORE PUSH1 0x1 PUSH1 0x1 PUSH1 0xA0 SHL SUB AND PUSH1 0x20 DUP4 ADD MSTORE PUSH1 0x1 PUSH1 0x1 PUSH1 0xE0 SHL SUB NOT AND PUSH1 0x40 DUP3 ADD MSTORE SWAP1 JUMP JUMPDEST PUSH1 0x0 PUSH2 0x547 DUP5 DUP5 DUP5 PUSH1 0x2 PUSH4 0x36F43CEB PUSH1 0xE1 SHL PUSH2 0x5B4 JUMP JUMPDEST SWAP5 SWAP4 POP POP POP POP JUMP JUMPDEST PUSH1 0x40 DUP1 MLOAD DUP1 DUP3 ADD SWAP1 SWAP2 MSTORE PUSH1 0x60 DUP2 MSTORE PUSH1 0x0 PUSH1 0x20 DUP3 ADD MSTORE PUSH2 0x56F PUSH1 0x20 DUP4 PUSH2 0xAA9 JUMP JUMPDEST ISZERO PUSH2 0x597 JUMPI PUSH2 0x57F PUSH1 0x20 DUP4 PUSH2 0xAA9 JUMP JUMPDEST PUSH2 0x58A SWAP1 PUSH1 0x20 PUSH2 0xA57 JUMP JUMPDEST PUSH2 0x594 SWAP1 DUP4 PUSH2 0xA3F JUMP JUMPDEST SWAP2 POP JUMPDEST POP PUSH1 0x20 DUP3 DUP2 ADD DUP3 SWAP1 MSTORE PUSH1 0x40 DUP1 MLOAD DUP1 DUP6 MSTORE PUSH1 0x0 DUP2 MSTORE SWAP1 SWAP3 ADD ADD SWAP1 MSTORE SWAP1 JUMP JUMPDEST PUSH1 0x4 SLOAD PUSH1 0x40 MLOAD PUSH12 0xFFFFFFFFFFFFFFFFFFFFFFFF NOT ADDRESS PUSH1 0x60 SHL AND PUSH1 0x20 DUP3 ADD MSTORE PUSH1 0x34 DUP2 ADD SWAP2 SWAP1 SWAP2 MSTORE PUSH1 0x0 SWAP1 PUSH1 0x54 ADD PUSH1 0x40 DUP1 MLOAD DUP1 DUP4 SUB PUSH1 0x1F NOT ADD DUP2 MSTORE SWAP2 DUP2 MSTORE DUP2 MLOAD PUSH1 0x20 SWAP3 DUP4 ADD KECCAK256 PUSH1 0x4 SLOAD PUSH1 0x60 DUP10 ADD MSTORE PUSH1 0x0 DUP2 DUP2 MSTORE PUSH1 0x5 SWAP1 SWAP4 MSTORE DUP2 DUP4 KECCAK256 DUP1 SLOAD PUSH1 0x1 PUSH1 0x1 PUSH1 0xA0 SHL SUB NOT AND PUSH1 0x1 PUSH1 0x1 PUSH1 0xA0 SHL SUB DUP12 AND OR SWAP1 SSTORE SWAP1 MLOAD SWAP1 SWAP3 POP DUP3 SWAP2 PUSH32 0xB5E6E01E79F91267DC17B4E6314D5D4D03593D2CEEE0FBB452B750BD70EA5AF9 SWAP2 LOG2 PUSH1 0x0 DUP3 PUSH1 0x0 DUP1 DUP9 PUSH1 0x0 ADD MLOAD DUP10 PUSH1 0x20 ADD MLOAD DUP11 PUSH1 0x40 ADD MLOAD DUP12 PUSH1 0x60 ADD MLOAD DUP11 DUP14 PUSH1 0x80 ADD MLOAD PUSH1 0x0 ADD MLOAD PUSH1 0x40 MLOAD PUSH1 0x24 ADD PUSH2 0x68B SWAP9 SWAP8 SWAP7 SWAP6 SWAP5 SWAP4 SWAP3 SWAP2 SWAP1 PUSH2 0x99D JUMP JUMPDEST PUSH1 0x40 DUP1 MLOAD PUSH1 0x1F NOT DUP2 DUP5 SUB ADD DUP2 MSTORE SWAP2 DUP2 MSTORE PUSH1 0x20 DUP3 ADD DUP1 MLOAD PUSH1 0x1 PUSH1 0x1 PUSH1 0xE0 SHL SUB AND PUSH1 0x1 PUSH1 0x1 PUSH1 0xE0 SHL SUB NOT SWAP1 SWAP5 AND SWAP4 SWAP1 SWAP4 OR SWAP1 SWAP3 MSTORE PUSH1 0x2 SLOAD SWAP2 MLOAD PUSH4 0x2000575 PUSH1 0xE5 SHL DUP2 MSTORE SWAP1 SWAP3 POP PUSH1 0x1 PUSH1 0x1 PUSH1 0xA0 SHL SUB SWAP1 SWAP2 AND SWAP1 PUSH4 0x4000AEA0 SWAP1 PUSH2 0x6F3 SWAP1 DUP11 SWAP1 DUP10 SWAP1 DUP7 SWAP1 PUSH1 0x4 ADD PUSH2 0xA05 JUMP JUMPDEST PUSH1 0x20 PUSH1 0x40 MLOAD DUP1 DUP4 SUB DUP2 PUSH1 0x0 DUP8 DUP1 EXTCODESIZE ISZERO DUP1 ISZERO PUSH2 0x70D JUMPI PUSH1 0x0 DUP1 REVERT JUMPDEST POP GAS CALL ISZERO DUP1 ISZERO PUSH2 0x721 JUMPI RETURNDATASIZE PUSH1 0x0 DUP1 RETURNDATACOPY RETURNDATASIZE PUSH1 0x0 REVERT JUMPDEST POP POP POP POP PUSH1 0x40 MLOAD RETURNDATASIZE PUSH1 0x1F NOT PUSH1 0x1F DUP3 ADD AND DUP3 ADD DUP1 PUSH1 0x40 MSTORE POP DUP2 ADD SWAP1 PUSH2 0x745 SWAP2 SWAP1 PUSH2 0x871 JUMP JUMPDEST PUSH2 0x79D JUMPI PUSH1 0x40 MLOAD PUSH3 0x461BCD PUSH1 0xE5 SHL DUP2 MSTORE PUSH1 0x20 PUSH1 0x4 DUP3 ADD MSTORE PUSH1 0x23 PUSH1 0x24 DUP3 ADD MSTORE PUSH32 0x756E61626C6520746F207472616E73666572416E6443616C6C20746F206F7261 PUSH1 0x44 DUP3 ADD MSTORE PUSH3 0x636C65 PUSH1 0xE8 SHL PUSH1 0x64 DUP3 ADD MSTORE PUSH1 0x84 ADD PUSH2 0x347 JUMP JUMPDEST PUSH1 0x1 PUSH1 0x4 PUSH1 0x0 DUP3 DUP3 SLOAD PUSH2 0x7B0 SWAP2 SWAP1 PUSH2 0xA3F JUMP JUMPDEST SWAP1 SWAP2 SSTORE POP SWAP2 SWAP8 SWAP7 POP POP POP POP POP POP POP JUMP JUMPDEST PUSH1 0x40 DUP1 MLOAD PUSH1 0xA0 DUP2 ADD DUP3 MSTORE PUSH1 0x0 DUP1 DUP3 MSTORE PUSH1 0x20 DUP1 DUP4 ADD DUP3 SWAP1 MSTORE DUP3 DUP5 ADD DUP3 SWAP1 MSTORE PUSH1 0x60 DUP1 DUP5 ADD DUP4 SWAP1 MSTORE DUP5 MLOAD DUP1 DUP7 ADD SWAP1 SWAP6 MSTORE DUP5 MSTORE DUP4 ADD MSTORE SWAP1 PUSH1 0x80 DUP3 ADD MSTORE SWAP1 JUMP JUMPDEST PUSH1 0x0 PUSH8 0xFFFFFFFFFFFFFFFF DUP1 DUP5 GT ISZERO PUSH2 0x816 JUMPI PUSH2 0x816 PUSH2 0xAE1 JUMP JUMPDEST PUSH1 0x40 MLOAD PUSH1 0x1F DUP6 ADD PUSH1 0x1F NOT SWAP1 DUP2 AND PUSH1 0x3F ADD AND DUP2 ADD SWAP1 DUP3 DUP3 GT DUP2 DUP4 LT OR ISZERO PUSH2 0x83E JUMPI PUSH2 0x83E PUSH2 0xAE1 JUMP JUMPDEST DUP2 PUSH1 0x40 MSTORE DUP1 SWAP4 POP DUP6 DUP2 MSTORE DUP7 DUP7 DUP7 ADD GT ISZERO PUSH2 0x857 JUMPI PUSH1 0x0 DUP1 REVERT JUMPDEST DUP6 DUP6 PUSH1 0x20 DUP4 ADD CALLDATACOPY PUSH1 0x0 PUSH1 0x20 DUP8 DUP4 ADD ADD MSTORE POP POP POP SWAP4 SWAP3 POP POP POP JUMP JUMPDEST PUSH1 0x0 PUSH1 0x20 DUP3 DUP5 SUB SLT ISZERO PUSH2 0x883 JUMPI PUSH1 0x0 DUP1 REVERT JUMPDEST DUP2 MLOAD DUP1 ISZERO ISZERO DUP2 EQ PUSH2 0x4EC JUMPI PUSH1 0x0 DUP1 REVERT JUMPDEST PUSH1 0x0 DUP1 PUSH1 0x40 DUP4 DUP6 SUB SLT ISZERO PUSH2 0x8A6 JUMPI PUSH1 0x0 DUP1 REVERT JUMPDEST DUP3 CALLDATALOAD SWAP2 POP PUSH1 0x20 DUP4 ADD CALLDATALOAD PUSH8 0xFFFFFFFFFFFFFFFF DUP2 GT ISZERO PUSH2 0x8C4 JUMPI PUSH1 0x0 DUP1 REVERT JUMPDEST DUP4 ADD PUSH1 0x1F DUP2 ADD DUP6 SGT PUSH2 0x8D5 JUMPI PUSH1 0x0 DUP1 REVERT JUMPDEST PUSH2 0x8E4 DUP6 DUP3 CALLDATALOAD PUSH1 0x20 DUP5 ADD PUSH2 0x7FB JUMP JUMPDEST SWAP2 POP POP SWAP3 POP SWAP3 SWAP1 POP JUMP JUMPDEST PUSH1 0x0 PUSH1 0x20 DUP3 DUP5 SUB SLT ISZERO PUSH2 0x900 JUMPI PUSH1 0x0 DUP1 REVERT JUMPDEST DUP2 CALLDATALOAD PUSH8 0xFFFFFFFFFFFFFFFF DUP2 GT ISZERO PUSH2 0x917 JUMPI PUSH1 0x0 DUP1 REVERT JUMPDEST DUP3 ADD PUSH1 0x1F DUP2 ADD DUP5 SGT PUSH2 0x928 JUMPI PUSH1 0x0 DUP1 REVERT JUMPDEST PUSH2 0x547 DUP5 DUP3 CALLDATALOAD PUSH1 0x20 DUP5 ADD PUSH2 0x7FB JUMP JUMPDEST PUSH1 0x0 PUSH1 0x20 DUP3 DUP5 SUB SLT ISZERO PUSH2 0x949 JUMPI PUSH1 0x0 DUP1 REVERT JUMPDEST POP MLOAD SWAP2 SWAP1 POP JUMP JUMPDEST PUSH1 0x0 DUP2 MLOAD DUP1 DUP5 MSTORE PUSH1 0x0 JUMPDEST DUP2 DUP2 LT ISZERO PUSH2 0x976 JUMPI PUSH1 0x20 DUP2 DUP6 ADD DUP2 ADD MLOAD DUP7 DUP4 ADD DUP3 ADD MSTORE ADD PUSH2 0x95A JUMP JUMPDEST DUP2 DUP2 GT ISZERO PUSH2 0x988 JUMPI PUSH1 0x0 PUSH1 0x20 DUP4 DUP8 ADD ADD MSTORE JUMPDEST POP PUSH1 0x1F ADD PUSH1 0x1F NOT AND SWAP3 SWAP1 SWAP3 ADD PUSH1 0x20 ADD SWAP3 SWAP2 POP POP JUMP JUMPDEST PUSH1 0x1 PUSH1 0x1 PUSH1 0xA0 SHL SUB DUP10 DUP2 AND DUP3 MSTORE PUSH1 0x20 DUP3 ADD DUP10 SWAP1 MSTORE PUSH1 0x40 DUP3 ADD DUP9 SWAP1 MSTORE DUP7 AND PUSH1 0x60 DUP3 ADD MSTORE PUSH1 0x1 PUSH1 0x1 PUSH1 0xE0 SHL SUB NOT DUP6 AND PUSH1 0x80 DUP3 ADD MSTORE PUSH1 0xA0 DUP2 ADD DUP5 SWAP1 MSTORE PUSH1 0xC0 DUP2 ADD DUP4 SWAP1 MSTORE PUSH2 0x100 PUSH1 0xE0 DUP3 ADD DUP2 SWAP1 MSTORE PUSH1 0x0 SWAP1 PUSH2 0x9F6 DUP4 DUP3 ADD DUP6 PUSH2 0x950 JUMP JUMPDEST SWAP12 SWAP11 POP POP POP POP POP POP POP POP POP POP POP JUMP JUMPDEST PUSH1 0x1 DUP1 PUSH1 0xA0 SHL SUB DUP5 AND DUP2 MSTORE DUP3 PUSH1 0x20 DUP3 ADD MSTORE PUSH1 0x60 PUSH1 0x40 DUP3 ADD MSTORE PUSH1 0x0 PUSH2 0x4C9 PUSH1 0x60 DUP4 ADD DUP5 PUSH2 0x950 JUMP JUMPDEST PUSH1 0x20 DUP2 MSTORE PUSH1 0x0 PUSH2 0x4EC PUSH1 0x20 DUP4 ADD DUP5 PUSH2 0x950 JUMP JUMPDEST PUSH1 0x0 DUP3 NOT DUP3 GT ISZERO PUSH2 0xA52 JUMPI PUSH2 0xA52 PUSH2 0xACB JUMP JUMPDEST POP ADD SWAP1 JUMP JUMPDEST PUSH1 0x0 DUP3 DUP3 LT ISZERO PUSH2 0xA69 JUMPI PUSH2 0xA69 PUSH2 0xACB JUMP JUMPDEST POP SUB SWAP1 JUMP JUMPDEST PUSH1 0x1 DUP2 DUP2 SHR SWAP1 DUP3 AND DUP1 PUSH2 0xA82 JUMPI PUSH1 0x7F DUP3 AND SWAP2 POP JUMPDEST PUSH1 0x20 DUP3 LT DUP2 EQ ISZERO PUSH2 0xAA3 JUMPI PUSH4 0x4E487B71 PUSH1 0xE0 SHL PUSH1 0x0 MSTORE PUSH1 0x22 PUSH1 0x4 MSTORE PUSH1 0x24 PUSH1 0x0 REVERT JUMPDEST POP SWAP2 SWAP1 POP JUMP JUMPDEST PUSH1 0x0 DUP3 PUSH2 0xAC6 JUMPI PUSH4 0x4E487B71 PUSH1 0xE0 SHL PUSH1 0x0 MSTORE PUSH1 0x12 PUSH1 0x4 MSTORE PUSH1 0x24 PUSH1 0x0 REVERT JUMPDEST POP MOD SWAP1 JUMP JUMPDEST PUSH4 0x4E487B71 PUSH1 0xE0 SHL PUSH1 0x0 MSTORE PUSH1 0x11 PUSH1 0x4 MSTORE PUSH1 0x24 PUSH1 0x0 REVERT JUMPDEST PUSH4 0x4E487B71 PUSH1 0xE0 SHL PUSH1 0x0 MSTORE PUSH1 0x41 PUSH1 0x4 MSTORE PUSH1 0x24 PUSH1 0x0 REVERT INVALID LOG2 PUSH5 0x6970667358 0x22 SLT KECCAK256 0xD3 SWAP1 ADD MOD 0x4F 0xF6 0xE 0xBB 0xC7 SHR SMOD 0xD1 BASEFEE 0xB4 0xC9 0xC3 STOP SELFDESTRUCT 0xBF PUSH12 0x577FFAD30515BC6F45D2631A PUSH5 0x736F6C6343 STOP ADDMOD SMOD STOP CALLER ","sha1":"0e68b07e8ae10b749d363182eab15d7de8d6272b","source":"//SPDX-License-Identifier: MIT\npragma solidity ^0.8.0;\n\nimport \"@chainlink/contracts/src/v0.8/ChainlinkClient.sol\";\nimport \"../interfaces/IERC20.sol\";\n/**\n * @notice DO NOT USE THIS CODE IN PRODUCTION. This is an example contract. \n */\ncontract Consumer is ChainlinkClient {\n  using Chainlink for Chainlink.Request;\n\n  // variable bytes returned in a signle oracle response\n  bytes public data;\n  string public response;\n  uint public fee = 1000;\n\n  /**\n   * @notice Initialize the link token and target oracle\n   * @dev The oracle address must be an Operator contract for multiword response\n   *\n   *\n   * Kovan Testnet details: \n   * Link Token: 0xa36085F69e2889c224210F603D836748e7dC0088\n   * Oracle: \n   */\n  constructor(\n  ) {\n    setChainlinkToken(0xa36085F69e2889c224210F603D836748e7dC0088);\n    setChainlinkOracle(0xe19D46ccdBdE706ca48E5ac3ec44AFf97Cace2a0);\n    \n  }\n  /**\n   * @notice Request variable bytes from the oracle\n   */\n  function requestBytes(string memory _prompt\n  )\n    public\n  {\n    // require(msg.value >= fee, \"Include fee in transaction\");\n    bytes32 specId = \"0eec7e1dd0d2476cb1a872dfb6633f04\";\n    uint256 payment = 100000000000000;\n    require(IERC20(0xa36085F69e2889c224210F603D836748e7dC0088).balanceOf(address(this)) >= payment, \"Not enough link\");\n    Chainlink.Request memory req = buildChainlinkRequest(specId, address(this), this.fulfillBytes.selector);\n    // req.add(\"prompt\", _prompt);\n    requestOracleData(req, payment);\n    \n  }\n\n  event RequestFulfilled(\n    bytes32 indexed requestId,\n    bytes indexed data\n  );\n\n  /**\n   * @notice Fulfillment function for variable bytes\n   * @dev This is called by the oracle. recordChainlinkFulfillment must be used.\n   */\n  // function fulfillBytes(\n  //   bytes32 requestId,\n  //   bytes memory bytesData\n  // )\n  //   public\n  //   recordChainlinkFulfillment(requestId)\n  // {\n  //   emit RequestFulfilled(requestId, bytesData);\n  //   data = bytesData;\n  //   response = string(data);\n  // }\n  function fulfillBytes(\n    bytes32 requestId,\n    bytes memory answer\n  )\n    public\n    recordChainlinkFulfillment(requestId){}\n  \n  function withdrawLink() public {\n    uint256 bal = IERC20(0xa36085F69e2889c224210F603D836748e7dC0088).balanceOf(address(this));\n    IERC20(0xa36085F69e2889c224210F603D836748e7dC0088).transfer(msg.sender, bal);\n  }\n  \n  receive() external payable {}\n\n}\n","sourcePath":"contracts/Consumer.sol","type":"contract","deployment":{"address":"0x8b219F52A925A6e086083Af246172c1552647046","chainid":"42","blockHeight":27405222}}