{"bytecode":"608060405260016004556103e8600955655af3107a4000600a557f6236316234643731396162303431393938383263366138616333633531383631600b5534801561004957600080fd5b50600280546001600160a01b03191673a36085f69e2889c224210f603d836748e7dc0088179055600380546001600160a01b0319167345fd8df7e9348b14afc145599f719dbe27977fd91790556110a9806100a56000396000f3fe6080604052600436106100745760003560e01c8063a9aa55841161004e578063a9aa5584146100e2578063b7e1cd86146100f7578063ddca3f431461010c578063f5094c9d1461013057600080fd5b806318fadf621461008057806360f6998b146100a25780638dc654a2146100cd57600080fd5b3661007b57005b600080fd5b34801561008c57600080fd5b506100a061009b366004610cd4565b610150565b005b3480156100ae57600080fd5b506100b7610287565b6040516100c49190610ea4565b60405180910390f35b3480156100d957600080fd5b506100a0610315565b3480156100ee57600080fd5b506100b761042c565b34801561010357600080fd5b506100b7610439565b34801561011857600080fd5b5061012260095481565b6040519081526020016100c4565b34801561013c57600080fd5b5061012261014b366004610d66565b610446565b60008481526005602052604090205484906001600160a01b031633146101ce5760405162461bcd60e51b815260206004820152602860248201527f536f75726365206d75737420626520746865206f7261636c65206f6620746865604482015267081c995c5d595cdd60c21b60648201526084015b60405180910390fd5b60008181526005602052604080822080546001600160a01b03191690555182917f7cc135e0cebb02c3480ae5d74d377283180a2601f8f644edf7987b009316c63a91a26040518581527f54836a2905a4c5bcfba367bf7fb2aa840da1503609eb6120754142dc098a16b39060200160405180910390a18351610257906006906020870190610b41565b50825161026b906007906020860190610b41565b50815161027f906008906020850190610b41565b505050505050565b6007805461029490610ff0565b80601f01602080910402602001604051908101604052809291908181526020018280546102c090610ff0565b801561030d5780601f106102e25761010080835404028352916020019161030d565b820191906000526020600020905b8154815290600101906020018083116102f057829003601f168201915b505050505081565b6040516370a0823160e01b815230600482015260009073a36085f69e2889c224210f603d836748e7dc0088906370a082319060240160206040518083038186803b15801561036257600080fd5b505afa158015610376573d6000803e3d6000fd5b505050506040513d601f19601f8201168201806040525081019061039a9190610daf565b60405163a9059cbb60e01b81523360048201526024810182905290915073a36085f69e2889c224210f603d836748e7dc00889063a9059cbb90604401602060405180830381600087803b1580156103f057600080fd5b505af1158015610404573d6000803e3d6000fd5b505050506040513d601f19601f820116820180604052508101906104289190610cab565b5050565b6008805461029490610ff0565b6006805461029490610ff0565b60008061045d600b54306318fadf6260e01b61049c565b6040805180820190915260068152651c1c9bdb5c1d60d21b6020820152909150610489908290856104c1565b61049581600a546104e4565b5050919050565b6104a4610bc5565b6104ac610bc5565b6104b881868686610507565b95945050505050565b60808301516104d09083610544565b60808301516104df9082610544565b505050565b6003546000906104fe906001600160a01b0316848461055b565b90505b92915050565b61050f610bc5565b61051f856080015161010061057a565b50509183526001600160a01b031660208301526001600160e01b031916604082015290565b61055182600383516105df565b6104df82826106b3565b600061057284848460026336f43ceb60e11b6106da565b949350505050565b60408051808201909152606081526000602082015261059a602083611025565b156105c2576105aa602083611025565b6105b5906020610fd9565b6105bf9083610eb7565b91505b506020828101829052604080518085526000815290920101905290565b60178111610600576105fa8360e0600585901b1683176108e6565b50505050565b60ff811161062a5761061d836018611fe0600586901b16176108e6565b506105fa8382600161090b565b61ffff811161065557610648836019611fe0600586901b16176108e6565b506105fa8382600261090b565b63ffffffff81116106825761067583601a611fe0600586901b16176108e6565b506105fa8382600461090b565b67ffffffffffffffff81116104df576106a683601b611fe0600586901b16176108e6565b506105fa8382600861090b565b6040805180820190915260608152600060208201526104fe83846000015151848551610931565b6004546040516bffffffffffffffffffffffff193060601b166020820152603481019190915260009060540160408051808303601f19018152918152815160209283012060045460608901526000818152600590935281832080546001600160a01b0319166001600160a01b038b16179055905190925082917fb5e6e01e79f91267dc17b4e6314d5d4d03593d2ceee0fbb452b750bd70ea5af991a2600082600080886000015189602001518a604001518b606001518a8d60800151600001516040516024016107b1989796959493929190610e15565b60408051601f198184030181529181526020820180516001600160e01b03166001600160e01b0319909416939093179092526002549151630200057560e51b81529092506001600160a01b0390911690634000aea090610819908a9089908690600401610e7d565b602060405180830381600087803b15801561083357600080fd5b505af1158015610847573d6000803e3d6000fd5b505050506040513d601f19601f8201168201806040525081019061086b9190610cab565b6108c35760405162461bcd60e51b815260206004820152602360248201527f756e61626c6520746f207472616e73666572416e6443616c6c20746f206f7261604482015262636c6560e81b60648201526084016101c5565b6001600460008282546108d69190610eb7565b9091555091979650505050505050565b6040805180820190915260608152600060208201526104fe8384600001515184610a36565b604080518082019091526060815260006020820152610572848560000151518585610a92565b604080518082019091526060815260006020820152825182111561095457600080fd5b60208501516109638386610eb7565b11156109965761099685610986876020015187866109819190610eb7565b610b13565b610991906002610fba565b610b2a565b6000808651805187602083010193508088870111156109b55787860182525b505050602084015b602084106109f557805182526109d4602083610eb7565b91506109e1602082610eb7565b90506109ee602085610fd9565b93506109bd565b60006001610a04866020610fd9565b610a1090610100610f12565b610a1a9190610fd9565b9151835183169219169190911790915250849050949350505050565b60408051808201909152606081526000602082015283602001518310610a6b57610a6b84856020015160026109919190610fba565b835180516020858301018481535080851415610a88576001810182525b5093949350505050565b6040805180820190915260608152600060208201526020850151610ab68584610eb7565b1115610aca57610aca856109868685610eb7565b60006001610ada84610100610f12565b610ae49190610fd9565b9050855183868201018583198251161781525080518487011115610b085783860181525b509495945050505050565b600081831115610b24575081610501565b50919050565b8151610b36838361057a565b506105fa83826106b3565b828054610b4d90610ff0565b90600052602060002090601f016020900481019282610b6f5760008555610bb5565b82601f10610b8857805160ff1916838001178555610bb5565b82800160010185558215610bb5579182015b82811115610bb5578251825591602001919060010190610b9a565b50610bc1929150610c00565b5090565b6040805160a0810182526000808252602080830182905282840182905260608084018390528451808601909552845283015290608082015290565b5b80821115610bc15760008155600101610c01565b600067ffffffffffffffff80841115610c3057610c3061105d565b604051601f8501601f19908116603f01168101908282118183101715610c5857610c5861105d565b81604052809350858152868686011115610c7157600080fd5b858560208301376000602087830101525050509392505050565b600082601f830112610c9c57600080fd5b6104fe83833560208501610c15565b600060208284031215610cbd57600080fd5b81518015158114610ccd57600080fd5b9392505050565b60008060008060808587031215610cea57600080fd5b84359350602085013567ffffffffffffffff80821115610d0957600080fd5b610d1588838901610c8b565b94506040870135915080821115610d2b57600080fd5b610d3788838901610c8b565b93506060870135915080821115610d4d57600080fd5b50610d5a87828801610c8b565b91505092959194509250565b600060208284031215610d7857600080fd5b813567ffffffffffffffff811115610d8f57600080fd5b8201601f81018413610da057600080fd5b61057284823560208401610c15565b600060208284031215610dc157600080fd5b5051919050565b6000815180845260005b81811015610dee57602081850181015186830182015201610dd2565b81811115610e00576000602083870101525b50601f01601f19169290920160200192915050565b6001600160a01b0389811682526020820189905260408201889052861660608201526001600160e01b03198516608082015260a0810184905260c0810183905261010060e08201819052600090610e6e83820185610dc8565b9b9a5050505050505050505050565b60018060a01b03841681528260208201526060604082015260006104b86060830184610dc8565b6020815260006104fe6020830184610dc8565b60008219821115610eca57610eca611047565b500190565b600181815b80851115610f0a578160001904821115610ef057610ef0611047565b80851615610efd57918102915b93841c9390800290610ed4565b509250929050565b60006104fe8383600082610f2857506001610501565b81610f3557506000610501565b8160018114610f4b5760028114610f5557610f71565b6001915050610501565b60ff841115610f6657610f66611047565b50506001821b610501565b5060208310610133831016604e8410600b8410161715610f94575081810a610501565b610f9e8383610ecf565b8060001904821115610fb257610fb2611047565b029392505050565b6000816000190483118215151615610fd457610fd4611047565b500290565b600082821015610feb57610feb611047565b500390565b600181811c9082168061100457607f821691505b60208210811415610b2457634e487b7160e01b600052602260045260246000fd5b60008261104257634e487b7160e01b600052601260045260246000fd5b500690565b634e487b7160e01b600052601160045260246000fd5b634e487b7160e01b600052604160045260246000fdfea2646970667358221220a10b1879fccc28dca77eafe066d8a180744fd1ed80259b260c82784827ffa04a64736f6c63430008070033","bytecodeSha1":"f8d415c5984aa5c29742f719e6154716f6d2f702","type":"contract","abi":[{"inputs":[],"stateMutability":"nonpayable","type":"constructor","name":"constructor"},{"anonymous":false,"inputs":[{"indexed":true,"internalType":"bytes32","name":"id","type":"bytes32"}],"name":"ChainlinkCancelled","type":"event"},{"anonymous":false,"inputs":[{"indexed":true,"internalType":"bytes32","name":"id","type":"bytes32"}],"name":"ChainlinkFulfilled","type":"event"},{"anonymous":false,"inputs":[{"indexed":true,"internalType":"bytes32","name":"id","type":"bytes32"}],"name":"ChainlinkRequested","type":"event"},{"anonymous":false,"inputs":[{"indexed":false,"internalType":"bytes32","name":"Id","type":"bytes32"}],"name":"doSomethingPLEASE","type":"event"},{"inputs":[],"name":"accessories","outputs":[{"internalType":"string","name":"","type":"string"}],"stateMutability":"view","type":"function"},{"inputs":[],"name":"attire","outputs":[{"internalType":"string","name":"","type":"string"}],"stateMutability":"view","type":"function"},{"inputs":[],"name":"fee","outputs":[{"internalType":"uint256","name":"","type":"uint256"}],"stateMutability":"view","type":"function"},{"inputs":[{"internalType":"bytes32","name":"requestId","type":"bytes32"},{"internalType":"bytes","name":"_weapons","type":"bytes"},{"internalType":"bytes","name":"_attire","type":"bytes"},{"internalType":"bytes","name":"_accessories","type":"bytes"}],"name":"fulfill","outputs":[],"stateMutability":"nonpayable","type":"function"},{"inputs":[{"internalType":"string","name":"_prompt","type":"string"}],"name":"requestBytes","outputs":[{"internalType":"bytes32","name":"","type":"bytes32"}],"stateMutability":"nonpayable","type":"function"},{"inputs":[],"name":"weapons","outputs":[{"internalType":"string","name":"","type":"string"}],"stateMutability":"view","type":"function"},{"inputs":[],"name":"withdrawLink","outputs":[],"stateMutability":"nonpayable","type":"function"},{"stateMutability":"payable","type":"receive"}],"compiler":{"version":"0.8.7+commit.e28d00a7","evm_version":"istanbul","optimizer":{"enabled":true,"runs":200}},"contractName":"Consumer","language":"Solidity","natspec":{"methods":{},"kind":"dev","version":1},"opcodes":"PUSH1 0x80 PUSH1 0x40 MSTORE PUSH1 0x4 CALLDATASIZE LT PUSH2 0x74 JUMPI PUSH1 0x0 CALLDATALOAD PUSH1 0xE0 SHR DUP1 PUSH4 0xA9AA5584 GT PUSH2 0x4E JUMPI DUP1 PUSH4 0xA9AA5584 EQ PUSH2 0xE2 JUMPI DUP1 PUSH4 0xB7E1CD86 EQ PUSH2 0xF7 JUMPI DUP1 PUSH4 0xDDCA3F43 EQ PUSH2 0x10C JUMPI DUP1 PUSH4 0xF5094C9D EQ PUSH2 0x130 JUMPI PUSH1 0x0 DUP1 REVERT JUMPDEST DUP1 PUSH4 0x18FADF62 EQ PUSH2 0x80 JUMPI DUP1 PUSH4 0x60F6998B EQ PUSH2 0xA2 JUMPI DUP1 PUSH4 0x8DC654A2 EQ PUSH2 0xCD JUMPI PUSH1 0x0 DUP1 REVERT JUMPDEST CALLDATASIZE PUSH2 0x7B JUMPI STOP JUMPDEST PUSH1 0x0 DUP1 REVERT JUMPDEST CALLVALUE DUP1 ISZERO PUSH2 0x8C JUMPI PUSH1 0x0 DUP1 REVERT JUMPDEST POP PUSH2 0xA0 PUSH2 0x9B CALLDATASIZE PUSH1 0x4 PUSH2 0xCD4 JUMP JUMPDEST PUSH2 0x150 JUMP JUMPDEST STOP JUMPDEST CALLVALUE DUP1 ISZERO PUSH2 0xAE JUMPI PUSH1 0x0 DUP1 REVERT JUMPDEST POP PUSH2 0xB7 PUSH2 0x287 JUMP JUMPDEST PUSH1 0x40 MLOAD PUSH2 0xC4 SWAP2 SWAP1 PUSH2 0xEA4 JUMP JUMPDEST PUSH1 0x40 MLOAD DUP1 SWAP2 SUB SWAP1 RETURN JUMPDEST CALLVALUE DUP1 ISZERO PUSH2 0xD9 JUMPI PUSH1 0x0 DUP1 REVERT JUMPDEST POP PUSH2 0xA0 PUSH2 0x315 JUMP JUMPDEST CALLVALUE DUP1 ISZERO PUSH2 0xEE JUMPI PUSH1 0x0 DUP1 REVERT JUMPDEST POP PUSH2 0xB7 PUSH2 0x42C JUMP JUMPDEST CALLVALUE DUP1 ISZERO PUSH2 0x103 JUMPI PUSH1 0x0 DUP1 REVERT JUMPDEST POP PUSH2 0xB7 PUSH2 0x439 JUMP JUMPDEST CALLVALUE DUP1 ISZERO PUSH2 0x118 JUMPI PUSH1 0x0 DUP1 REVERT JUMPDEST POP PUSH2 0x122 PUSH1 0x9 SLOAD DUP2 JUMP JUMPDEST PUSH1 0x40 MLOAD SWAP1 DUP2 MSTORE PUSH1 0x20 ADD PUSH2 0xC4 JUMP JUMPDEST CALLVALUE DUP1 ISZERO PUSH2 0x13C JUMPI PUSH1 0x0 DUP1 REVERT JUMPDEST POP PUSH2 0x122 PUSH2 0x14B CALLDATASIZE PUSH1 0x4 PUSH2 0xD66 JUMP JUMPDEST PUSH2 0x446 JUMP JUMPDEST PUSH1 0x0 DUP5 DUP2 MSTORE PUSH1 0x5 PUSH1 0x20 MSTORE PUSH1 0x40 SWAP1 KECCAK256 SLOAD DUP5 SWAP1 PUSH1 0x1 PUSH1 0x1 PUSH1 0xA0 SHL SUB AND CALLER EQ PUSH2 0x1CE JUMPI PUSH1 0x40 MLOAD PUSH3 0x461BCD PUSH1 0xE5 SHL DUP2 MSTORE PUSH1 0x20 PUSH1 0x4 DUP3 ADD MSTORE PUSH1 0x28 PUSH1 0x24 DUP3 ADD MSTORE PUSH32 0x536F75726365206D75737420626520746865206F7261636C65206F6620746865 PUSH1 0x44 DUP3 ADD MSTORE PUSH8 0x81C995C5D595CDD PUSH1 0xC2 SHL PUSH1 0x64 DUP3 ADD MSTORE PUSH1 0x84 ADD JUMPDEST PUSH1 0x40 MLOAD DUP1 SWAP2 SUB SWAP1 REVERT JUMPDEST PUSH1 0x0 DUP2 DUP2 MSTORE PUSH1 0x5 PUSH1 0x20 MSTORE PUSH1 0x40 DUP1 DUP3 KECCAK256 DUP1 SLOAD PUSH1 0x1 PUSH1 0x1 PUSH1 0xA0 SHL SUB NOT AND SWAP1 SSTORE MLOAD DUP3 SWAP2 PUSH32 0x7CC135E0CEBB02C3480AE5D74D377283180A2601F8F644EDF7987B009316C63A SWAP2 LOG2 PUSH1 0x40 MLOAD DUP6 DUP2 MSTORE PUSH32 0x54836A2905A4C5BCFBA367BF7FB2AA840DA1503609EB6120754142DC098A16B3 SWAP1 PUSH1 0x20 ADD PUSH1 0x40 MLOAD DUP1 SWAP2 SUB SWAP1 LOG1 DUP4 MLOAD PUSH2 0x257 SWAP1 PUSH1 0x6 SWAP1 PUSH1 0x20 DUP8 ADD SWAP1 PUSH2 0xB41 JUMP JUMPDEST POP DUP3 MLOAD PUSH2 0x26B SWAP1 PUSH1 0x7 SWAP1 PUSH1 0x20 DUP7 ADD SWAP1 PUSH2 0xB41 JUMP JUMPDEST POP DUP2 MLOAD PUSH2 0x27F SWAP1 PUSH1 0x8 SWAP1 PUSH1 0x20 DUP6 ADD SWAP1 PUSH2 0xB41 JUMP JUMPDEST POP POP POP POP POP POP JUMP JUMPDEST PUSH1 0x7 DUP1 SLOAD PUSH2 0x294 SWAP1 PUSH2 0xFF0 JUMP JUMPDEST DUP1 PUSH1 0x1F ADD PUSH1 0x20 DUP1 SWAP2 DIV MUL PUSH1 0x20 ADD PUSH1 0x40 MLOAD SWAP1 DUP2 ADD PUSH1 0x40 MSTORE DUP1 SWAP3 SWAP2 SWAP1 DUP2 DUP2 MSTORE PUSH1 0x20 ADD DUP3 DUP1 SLOAD PUSH2 0x2C0 SWAP1 PUSH2 0xFF0 JUMP JUMPDEST DUP1 ISZERO PUSH2 0x30D JUMPI DUP1 PUSH1 0x1F LT PUSH2 0x2E2 JUMPI PUSH2 0x100 DUP1 DUP4 SLOAD DIV MUL DUP4 MSTORE SWAP2 PUSH1 0x20 ADD SWAP2 PUSH2 0x30D JUMP JUMPDEST DUP3 ADD SWAP2 SWAP1 PUSH1 0x0 MSTORE PUSH1 0x20 PUSH1 0x0 KECCAK256 SWAP1 JUMPDEST DUP2 SLOAD DUP2 MSTORE SWAP1 PUSH1 0x1 ADD SWAP1 PUSH1 0x20 ADD DUP1 DUP4 GT PUSH2 0x2F0 JUMPI DUP3 SWAP1 SUB PUSH1 0x1F AND DUP3 ADD SWAP2 JUMPDEST POP POP POP POP POP DUP2 JUMP JUMPDEST PUSH1 0x40 MLOAD PUSH4 0x70A08231 PUSH1 0xE0 SHL DUP2 MSTORE ADDRESS PUSH1 0x4 DUP3 ADD MSTORE PUSH1 0x0 SWAP1 PUSH20 0xA36085F69E2889C224210F603D836748E7DC0088 SWAP1 PUSH4 0x70A08231 SWAP1 PUSH1 0x24 ADD PUSH1 0x20 PUSH1 0x40 MLOAD DUP1 DUP4 SUB DUP2 DUP7 DUP1 EXTCODESIZE ISZERO DUP1 ISZERO PUSH2 0x362 JUMPI PUSH1 0x0 DUP1 REVERT JUMPDEST POP GAS STATICCALL ISZERO DUP1 ISZERO PUSH2 0x376 JUMPI RETURNDATASIZE PUSH1 0x0 DUP1 RETURNDATACOPY RETURNDATASIZE PUSH1 0x0 REVERT JUMPDEST POP POP POP POP PUSH1 0x40 MLOAD RETURNDATASIZE PUSH1 0x1F NOT PUSH1 0x1F DUP3 ADD AND DUP3 ADD DUP1 PUSH1 0x40 MSTORE POP DUP2 ADD SWAP1 PUSH2 0x39A SWAP2 SWAP1 PUSH2 0xDAF JUMP JUMPDEST PUSH1 0x40 MLOAD PUSH4 0xA9059CBB PUSH1 0xE0 SHL DUP2 MSTORE CALLER PUSH1 0x4 DUP3 ADD MSTORE PUSH1 0x24 DUP2 ADD DUP3 SWAP1 MSTORE SWAP1 SWAP2 POP PUSH20 0xA36085F69E2889C224210F603D836748E7DC0088 SWAP1 PUSH4 0xA9059CBB SWAP1 PUSH1 0x44 ADD PUSH1 0x20 PUSH1 0x40 MLOAD DUP1 DUP4 SUB DUP2 PUSH1 0x0 DUP8 DUP1 EXTCODESIZE ISZERO DUP1 ISZERO PUSH2 0x3F0 JUMPI PUSH1 0x0 DUP1 REVERT JUMPDEST POP GAS CALL ISZERO DUP1 ISZERO PUSH2 0x404 JUMPI RETURNDATASIZE PUSH1 0x0 DUP1 RETURNDATACOPY RETURNDATASIZE PUSH1 0x0 REVERT JUMPDEST POP POP POP POP PUSH1 0x40 MLOAD RETURNDATASIZE PUSH1 0x1F NOT PUSH1 0x1F DUP3 ADD AND DUP3 ADD DUP1 PUSH1 0x40 MSTORE POP DUP2 ADD SWAP1 PUSH2 0x428 SWAP2 SWAP1 PUSH2 0xCAB JUMP JUMPDEST POP POP JUMP JUMPDEST PUSH1 0x8 DUP1 SLOAD PUSH2 0x294 SWAP1 PUSH2 0xFF0 JUMP JUMPDEST PUSH1 0x6 DUP1 SLOAD PUSH2 0x294 SWAP1 PUSH2 0xFF0 JUMP JUMPDEST PUSH1 0x0 DUP1 PUSH2 0x45D PUSH1 0xB SLOAD ADDRESS PUSH4 0x18FADF62 PUSH1 0xE0 SHL PUSH2 0x49C JUMP JUMPDEST PUSH1 0x40 DUP1 MLOAD DUP1 DUP3 ADD SWAP1 SWAP2 MSTORE PUSH1 0x6 DUP2 MSTORE PUSH6 0x1C1C9BDB5C1D PUSH1 0xD2 SHL PUSH1 0x20 DUP3 ADD MSTORE SWAP1 SWAP2 POP PUSH2 0x489 SWAP1 DUP3 SWAP1 DUP6 PUSH2 0x4C1 JUMP JUMPDEST PUSH2 0x495 DUP2 PUSH1 0xA SLOAD PUSH2 0x4E4 JUMP JUMPDEST POP POP SWAP2 SWAP1 POP JUMP JUMPDEST PUSH2 0x4A4 PUSH2 0xBC5 JUMP JUMPDEST PUSH2 0x4AC PUSH2 0xBC5 JUMP JUMPDEST PUSH2 0x4B8 DUP2 DUP7 DUP7 DUP7 PUSH2 0x507 JUMP JUMPDEST SWAP6 SWAP5 POP POP POP POP POP JUMP JUMPDEST PUSH1 0x80 DUP4 ADD MLOAD PUSH2 0x4D0 SWAP1 DUP4 PUSH2 0x544 JUMP JUMPDEST PUSH1 0x80 DUP4 ADD MLOAD PUSH2 0x4DF SWAP1 DUP3 PUSH2 0x544 JUMP JUMPDEST POP POP POP JUMP JUMPDEST PUSH1 0x3 SLOAD PUSH1 0x0 SWAP1 PUSH2 0x4FE SWAP1 PUSH1 0x1 PUSH1 0x1 PUSH1 0xA0 SHL SUB AND DUP5 DUP5 PUSH2 0x55B JUMP JUMPDEST SWAP1 POP JUMPDEST SWAP3 SWAP2 POP POP JUMP JUMPDEST PUSH2 0x50F PUSH2 0xBC5 JUMP JUMPDEST PUSH2 0x51F DUP6 PUSH1 0x80 ADD MLOAD PUSH2 0x100 PUSH2 0x57A JUMP JUMPDEST POP POP SWAP2 DUP4 MSTORE PUSH1 0x1 PUSH1 0x1 PUSH1 0xA0 SHL SUB AND PUSH1 0x20 DUP4 ADD MSTORE PUSH1 0x1 PUSH1 0x1 PUSH1 0xE0 SHL SUB NOT AND PUSH1 0x40 DUP3 ADD MSTORE SWAP1 JUMP JUMPDEST PUSH2 0x551 DUP3 PUSH1 0x3 DUP4 MLOAD PUSH2 0x5DF JUMP JUMPDEST PUSH2 0x4DF DUP3 DUP3 PUSH2 0x6B3 JUMP JUMPDEST PUSH1 0x0 PUSH2 0x572 DUP5 DUP5 DUP5 PUSH1 0x2 PUSH4 0x36F43CEB PUSH1 0xE1 SHL PUSH2 0x6DA JUMP JUMPDEST SWAP5 SWAP4 POP POP POP POP JUMP JUMPDEST PUSH1 0x40 DUP1 MLOAD DUP1 DUP3 ADD SWAP1 SWAP2 MSTORE PUSH1 0x60 DUP2 MSTORE PUSH1 0x0 PUSH1 0x20 DUP3 ADD MSTORE PUSH2 0x59A PUSH1 0x20 DUP4 PUSH2 0x1025 JUMP JUMPDEST ISZERO PUSH2 0x5C2 JUMPI PUSH2 0x5AA PUSH1 0x20 DUP4 PUSH2 0x1025 JUMP JUMPDEST PUSH2 0x5B5 SWAP1 PUSH1 0x20 PUSH2 0xFD9 JUMP JUMPDEST PUSH2 0x5BF SWAP1 DUP4 PUSH2 0xEB7 JUMP JUMPDEST SWAP2 POP JUMPDEST POP PUSH1 0x20 DUP3 DUP2 ADD DUP3 SWAP1 MSTORE PUSH1 0x40 DUP1 MLOAD DUP1 DUP6 MSTORE PUSH1 0x0 DUP2 MSTORE SWAP1 SWAP3 ADD ADD SWAP1 MSTORE SWAP1 JUMP JUMPDEST PUSH1 0x17 DUP2 GT PUSH2 0x600 JUMPI PUSH2 0x5FA DUP4 PUSH1 0xE0 PUSH1 0x5 DUP6 SWAP1 SHL AND DUP4 OR PUSH2 0x8E6 JUMP JUMPDEST POP POP POP POP JUMP JUMPDEST PUSH1 0xFF DUP2 GT PUSH2 0x62A JUMPI PUSH2 0x61D DUP4 PUSH1 0x18 PUSH2 0x1FE0 PUSH1 0x5 DUP7 SWAP1 SHL AND OR PUSH2 0x8E6 JUMP JUMPDEST POP PUSH2 0x5FA DUP4 DUP3 PUSH1 0x1 PUSH2 0x90B JUMP JUMPDEST PUSH2 0xFFFF DUP2 GT PUSH2 0x655 JUMPI PUSH2 0x648 DUP4 PUSH1 0x19 PUSH2 0x1FE0 PUSH1 0x5 DUP7 SWAP1 SHL AND OR PUSH2 0x8E6 JUMP JUMPDEST POP PUSH2 0x5FA DUP4 DUP3 PUSH1 0x2 PUSH2 0x90B JUMP JUMPDEST PUSH4 0xFFFFFFFF DUP2 GT PUSH2 0x682 JUMPI PUSH2 0x675 DUP4 PUSH1 0x1A PUSH2 0x1FE0 PUSH1 0x5 DUP7 SWAP1 SHL AND OR PUSH2 0x8E6 JUMP JUMPDEST POP PUSH2 0x5FA DUP4 DUP3 PUSH1 0x4 PUSH2 0x90B JUMP JUMPDEST PUSH8 0xFFFFFFFFFFFFFFFF DUP2 GT PUSH2 0x4DF JUMPI PUSH2 0x6A6 DUP4 PUSH1 0x1B PUSH2 0x1FE0 PUSH1 0x5 DUP7 SWAP1 SHL AND OR PUSH2 0x8E6 JUMP JUMPDEST POP PUSH2 0x5FA DUP4 DUP3 PUSH1 0x8 PUSH2 0x90B JUMP JUMPDEST PUSH1 0x40 DUP1 MLOAD DUP1 DUP3 ADD SWAP1 SWAP2 MSTORE PUSH1 0x60 DUP2 MSTORE PUSH1 0x0 PUSH1 0x20 DUP3 ADD MSTORE PUSH2 0x4FE DUP4 DUP5 PUSH1 0x0 ADD MLOAD MLOAD DUP5 DUP6 MLOAD PUSH2 0x931 JUMP JUMPDEST PUSH1 0x4 SLOAD PUSH1 0x40 MLOAD PUSH12 0xFFFFFFFFFFFFFFFFFFFFFFFF NOT ADDRESS PUSH1 0x60 SHL AND PUSH1 0x20 DUP3 ADD MSTORE PUSH1 0x34 DUP2 ADD SWAP2 SWAP1 SWAP2 MSTORE PUSH1 0x0 SWAP1 PUSH1 0x54 ADD PUSH1 0x40 DUP1 MLOAD DUP1 DUP4 SUB PUSH1 0x1F NOT ADD DUP2 MSTORE SWAP2 DUP2 MSTORE DUP2 MLOAD PUSH1 0x20 SWAP3 DUP4 ADD KECCAK256 PUSH1 0x4 SLOAD PUSH1 0x60 DUP10 ADD MSTORE PUSH1 0x0 DUP2 DUP2 MSTORE PUSH1 0x5 SWAP1 SWAP4 MSTORE DUP2 DUP4 KECCAK256 DUP1 SLOAD PUSH1 0x1 PUSH1 0x1 PUSH1 0xA0 SHL SUB NOT AND PUSH1 0x1 PUSH1 0x1 PUSH1 0xA0 SHL SUB DUP12 AND OR SWAP1 SSTORE SWAP1 MLOAD SWAP1 SWAP3 POP DUP3 SWAP2 PUSH32 0xB5E6E01E79F91267DC17B4E6314D5D4D03593D2CEEE0FBB452B750BD70EA5AF9 SWAP2 LOG2 PUSH1 0x0 DUP3 PUSH1 0x0 DUP1 DUP9 PUSH1 0x0 ADD MLOAD DUP10 PUSH1 0x20 ADD MLOAD DUP11 PUSH1 0x40 ADD MLOAD DUP12 PUSH1 0x60 ADD MLOAD DUP11 DUP14 PUSH1 0x80 ADD MLOAD PUSH1 0x0 ADD MLOAD PUSH1 0x40 MLOAD PUSH1 0x24 ADD PUSH2 0x7B1 SWAP9 SWAP8 SWAP7 SWAP6 SWAP5 SWAP4 SWAP3 SWAP2 SWAP1 PUSH2 0xE15 JUMP JUMPDEST PUSH1 0x40 DUP1 MLOAD PUSH1 0x1F NOT DUP2 DUP5 SUB ADD DUP2 MSTORE SWAP2 DUP2 MSTORE PUSH1 0x20 DUP3 ADD DUP1 MLOAD PUSH1 0x1 PUSH1 0x1 PUSH1 0xE0 SHL SUB AND PUSH1 0x1 PUSH1 0x1 PUSH1 0xE0 SHL SUB NOT SWAP1 SWAP5 AND SWAP4 SWAP1 SWAP4 OR SWAP1 SWAP3 MSTORE PUSH1 0x2 SLOAD SWAP2 MLOAD PUSH4 0x2000575 PUSH1 0xE5 SHL DUP2 MSTORE SWAP1 SWAP3 POP PUSH1 0x1 PUSH1 0x1 PUSH1 0xA0 SHL SUB SWAP1 SWAP2 AND SWAP1 PUSH4 0x4000AEA0 SWAP1 PUSH2 0x819 SWAP1 DUP11 SWAP1 DUP10 SWAP1 DUP7 SWAP1 PUSH1 0x4 ADD PUSH2 0xE7D JUMP JUMPDEST PUSH1 0x20 PUSH1 0x40 MLOAD DUP1 DUP4 SUB DUP2 PUSH1 0x0 DUP8 DUP1 EXTCODESIZE ISZERO DUP1 ISZERO PUSH2 0x833 JUMPI PUSH1 0x0 DUP1 REVERT JUMPDEST POP GAS CALL ISZERO DUP1 ISZERO PUSH2 0x847 JUMPI RETURNDATASIZE PUSH1 0x0 DUP1 RETURNDATACOPY RETURNDATASIZE PUSH1 0x0 REVERT JUMPDEST POP POP POP POP PUSH1 0x40 MLOAD RETURNDATASIZE PUSH1 0x1F NOT PUSH1 0x1F DUP3 ADD AND DUP3 ADD DUP1 PUSH1 0x40 MSTORE POP DUP2 ADD SWAP1 PUSH2 0x86B SWAP2 SWAP1 PUSH2 0xCAB JUMP JUMPDEST PUSH2 0x8C3 JUMPI PUSH1 0x40 MLOAD PUSH3 0x461BCD PUSH1 0xE5 SHL DUP2 MSTORE PUSH1 0x20 PUSH1 0x4 DUP3 ADD MSTORE PUSH1 0x23 PUSH1 0x24 DUP3 ADD MSTORE PUSH32 0x756E61626C6520746F207472616E73666572416E6443616C6C20746F206F7261 PUSH1 0x44 DUP3 ADD MSTORE PUSH3 0x636C65 PUSH1 0xE8 SHL PUSH1 0x64 DUP3 ADD MSTORE PUSH1 0x84 ADD PUSH2 0x1C5 JUMP JUMPDEST PUSH1 0x1 PUSH1 0x4 PUSH1 0x0 DUP3 DUP3 SLOAD PUSH2 0x8D6 SWAP2 SWAP1 PUSH2 0xEB7 JUMP JUMPDEST SWAP1 SWAP2 SSTORE POP SWAP2 SWAP8 SWAP7 POP POP POP POP POP POP POP JUMP JUMPDEST PUSH1 0x40 DUP1 MLOAD DUP1 DUP3 ADD SWAP1 SWAP2 MSTORE PUSH1 0x60 DUP2 MSTORE PUSH1 0x0 PUSH1 0x20 DUP3 ADD MSTORE PUSH2 0x4FE DUP4 DUP5 PUSH1 0x0 ADD MLOAD MLOAD DUP5 PUSH2 0xA36 JUMP JUMPDEST PUSH1 0x40 DUP1 MLOAD DUP1 DUP3 ADD SWAP1 SWAP2 MSTORE PUSH1 0x60 DUP2 MSTORE PUSH1 0x0 PUSH1 0x20 DUP3 ADD MSTORE PUSH2 0x572 DUP5 DUP6 PUSH1 0x0 ADD MLOAD MLOAD DUP6 DUP6 PUSH2 0xA92 JUMP JUMPDEST PUSH1 0x40 DUP1 MLOAD DUP1 DUP3 ADD SWAP1 SWAP2 MSTORE PUSH1 0x60 DUP2 MSTORE PUSH1 0x0 PUSH1 0x20 DUP3 ADD MSTORE DUP3 MLOAD DUP3 GT ISZERO PUSH2 0x954 JUMPI PUSH1 0x0 DUP1 REVERT JUMPDEST PUSH1 0x20 DUP6 ADD MLOAD PUSH2 0x963 DUP4 DUP7 PUSH2 0xEB7 JUMP JUMPDEST GT ISZERO PUSH2 0x996 JUMPI PUSH2 0x996 DUP6 PUSH2 0x986 DUP8 PUSH1 0x20 ADD MLOAD DUP8 DUP7 PUSH2 0x981 SWAP2 SWAP1 PUSH2 0xEB7 JUMP JUMPDEST PUSH2 0xB13 JUMP JUMPDEST PUSH2 0x991 SWAP1 PUSH1 0x2 PUSH2 0xFBA JUMP JUMPDEST PUSH2 0xB2A JUMP JUMPDEST PUSH1 0x0 DUP1 DUP7 MLOAD DUP1 MLOAD DUP8 PUSH1 0x20 DUP4 ADD ADD SWAP4 POP DUP1 DUP9 DUP8 ADD GT ISZERO PUSH2 0x9B5 JUMPI DUP8 DUP7 ADD DUP3 MSTORE JUMPDEST POP POP POP PUSH1 0x20 DUP5 ADD JUMPDEST PUSH1 0x20 DUP5 LT PUSH2 0x9F5 JUMPI DUP1 MLOAD DUP3 MSTORE PUSH2 0x9D4 PUSH1 0x20 DUP4 PUSH2 0xEB7 JUMP JUMPDEST SWAP2 POP PUSH2 0x9E1 PUSH1 0x20 DUP3 PUSH2 0xEB7 JUMP JUMPDEST SWAP1 POP PUSH2 0x9EE PUSH1 0x20 DUP6 PUSH2 0xFD9 JUMP JUMPDEST SWAP4 POP PUSH2 0x9BD JUMP JUMPDEST PUSH1 0x0 PUSH1 0x1 PUSH2 0xA04 DUP7 PUSH1 0x20 PUSH2 0xFD9 JUMP JUMPDEST PUSH2 0xA10 SWAP1 PUSH2 0x100 PUSH2 0xF12 JUMP JUMPDEST PUSH2 0xA1A SWAP2 SWAP1 PUSH2 0xFD9 JUMP JUMPDEST SWAP2 MLOAD DUP4 MLOAD DUP4 AND SWAP3 NOT AND SWAP2 SWAP1 SWAP2 OR SWAP1 SWAP2 MSTORE POP DUP5 SWAP1 POP SWAP5 SWAP4 POP POP POP POP JUMP JUMPDEST PUSH1 0x40 DUP1 MLOAD DUP1 DUP3 ADD SWAP1 SWAP2 MSTORE PUSH1 0x60 DUP2 MSTORE PUSH1 0x0 PUSH1 0x20 DUP3 ADD MSTORE DUP4 PUSH1 0x20 ADD MLOAD DUP4 LT PUSH2 0xA6B JUMPI PUSH2 0xA6B DUP5 DUP6 PUSH1 0x20 ADD MLOAD PUSH1 0x2 PUSH2 0x991 SWAP2 SWAP1 PUSH2 0xFBA JUMP JUMPDEST DUP4 MLOAD DUP1 MLOAD PUSH1 0x20 DUP6 DUP4 ADD ADD DUP5 DUP2 MSTORE8 POP DUP1 DUP6 EQ ISZERO PUSH2 0xA88 JUMPI PUSH1 0x1 DUP2 ADD DUP3 MSTORE JUMPDEST POP SWAP4 SWAP5 SWAP4 POP POP POP POP JUMP JUMPDEST PUSH1 0x40 DUP1 MLOAD DUP1 DUP3 ADD SWAP1 SWAP2 MSTORE PUSH1 0x60 DUP2 MSTORE PUSH1 0x0 PUSH1 0x20 DUP3 ADD MSTORE PUSH1 0x20 DUP6 ADD MLOAD PUSH2 0xAB6 DUP6 DUP5 PUSH2 0xEB7 JUMP JUMPDEST GT ISZERO PUSH2 0xACA JUMPI PUSH2 0xACA DUP6 PUSH2 0x986 DUP7 DUP6 PUSH2 0xEB7 JUMP JUMPDEST PUSH1 0x0 PUSH1 0x1 PUSH2 0xADA DUP5 PUSH2 0x100 PUSH2 0xF12 JUMP JUMPDEST PUSH2 0xAE4 SWAP2 SWAP1 PUSH2 0xFD9 JUMP JUMPDEST SWAP1 POP DUP6 MLOAD DUP4 DUP7 DUP3 ADD ADD DUP6 DUP4 NOT DUP3 MLOAD AND OR DUP2 MSTORE POP DUP1 MLOAD DUP5 DUP8 ADD GT ISZERO PUSH2 0xB08 JUMPI DUP4 DUP7 ADD DUP2 MSTORE JUMPDEST POP SWAP5 SWAP6 SWAP5 POP POP POP POP POP JUMP JUMPDEST PUSH1 0x0 DUP2 DUP4 GT ISZERO PUSH2 0xB24 JUMPI POP DUP2 PUSH2 0x501 JUMP JUMPDEST POP SWAP2 SWAP1 POP JUMP JUMPDEST DUP2 MLOAD PUSH2 0xB36 DUP4 DUP4 PUSH2 0x57A JUMP JUMPDEST POP PUSH2 0x5FA DUP4 DUP3 PUSH2 0x6B3 JUMP JUMPDEST DUP3 DUP1 SLOAD PUSH2 0xB4D SWAP1 PUSH2 0xFF0 JUMP JUMPDEST SWAP1 PUSH1 0x0 MSTORE PUSH1 0x20 PUSH1 0x0 KECCAK256 SWAP1 PUSH1 0x1F ADD PUSH1 0x20 SWAP1 DIV DUP2 ADD SWAP3 DUP3 PUSH2 0xB6F JUMPI PUSH1 0x0 DUP6 SSTORE PUSH2 0xBB5 JUMP JUMPDEST DUP3 PUSH1 0x1F LT PUSH2 0xB88 JUMPI DUP1 MLOAD PUSH1 0xFF NOT AND DUP4 DUP1 ADD OR DUP6 SSTORE PUSH2 0xBB5 JUMP JUMPDEST DUP3 DUP1 ADD PUSH1 0x1 ADD DUP6 SSTORE DUP3 ISZERO PUSH2 0xBB5 JUMPI SWAP2 DUP3 ADD JUMPDEST DUP3 DUP2 GT ISZERO PUSH2 0xBB5 JUMPI DUP3 MLOAD DUP3 SSTORE SWAP2 PUSH1 0x20 ADD SWAP2 SWAP1 PUSH1 0x1 ADD SWAP1 PUSH2 0xB9A JUMP JUMPDEST POP PUSH2 0xBC1 SWAP3 SWAP2 POP PUSH2 0xC00 JUMP JUMPDEST POP SWAP1 JUMP JUMPDEST PUSH1 0x40 DUP1 MLOAD PUSH1 0xA0 DUP2 ADD DUP3 MSTORE PUSH1 0x0 DUP1 DUP3 MSTORE PUSH1 0x20 DUP1 DUP4 ADD DUP3 SWAP1 MSTORE DUP3 DUP5 ADD DUP3 SWAP1 MSTORE PUSH1 0x60 DUP1 DUP5 ADD DUP4 SWAP1 MSTORE DUP5 MLOAD DUP1 DUP7 ADD SWAP1 SWAP6 MSTORE DUP5 MSTORE DUP4 ADD MSTORE SWAP1 PUSH1 0x80 DUP3 ADD MSTORE SWAP1 JUMP JUMPDEST JUMPDEST DUP1 DUP3 GT ISZERO PUSH2 0xBC1 JUMPI PUSH1 0x0 DUP2 SSTORE PUSH1 0x1 ADD PUSH2 0xC01 JUMP JUMPDEST PUSH1 0x0 PUSH8 0xFFFFFFFFFFFFFFFF DUP1 DUP5 GT ISZERO PUSH2 0xC30 JUMPI PUSH2 0xC30 PUSH2 0x105D JUMP JUMPDEST PUSH1 0x40 MLOAD PUSH1 0x1F DUP6 ADD PUSH1 0x1F NOT SWAP1 DUP2 AND PUSH1 0x3F ADD AND DUP2 ADD SWAP1 DUP3 DUP3 GT DUP2 DUP4 LT OR ISZERO PUSH2 0xC58 JUMPI PUSH2 0xC58 PUSH2 0x105D JUMP JUMPDEST DUP2 PUSH1 0x40 MSTORE DUP1 SWAP4 POP DUP6 DUP2 MSTORE DUP7 DUP7 DUP7 ADD GT ISZERO PUSH2 0xC71 JUMPI PUSH1 0x0 DUP1 REVERT JUMPDEST DUP6 DUP6 PUSH1 0x20 DUP4 ADD CALLDATACOPY PUSH1 0x0 PUSH1 0x20 DUP8 DUP4 ADD ADD MSTORE POP POP POP SWAP4 SWAP3 POP POP POP JUMP JUMPDEST PUSH1 0x0 DUP3 PUSH1 0x1F DUP4 ADD SLT PUSH2 0xC9C JUMPI PUSH1 0x0 DUP1 REVERT JUMPDEST PUSH2 0x4FE DUP4 DUP4 CALLDATALOAD PUSH1 0x20 DUP6 ADD PUSH2 0xC15 JUMP JUMPDEST PUSH1 0x0 PUSH1 0x20 DUP3 DUP5 SUB SLT ISZERO PUSH2 0xCBD JUMPI PUSH1 0x0 DUP1 REVERT JUMPDEST DUP2 MLOAD DUP1 ISZERO ISZERO DUP2 EQ PUSH2 0xCCD JUMPI PUSH1 0x0 DUP1 REVERT JUMPDEST SWAP4 SWAP3 POP POP POP JUMP JUMPDEST PUSH1 0x0 DUP1 PUSH1 0x0 DUP1 PUSH1 0x80 DUP6 DUP8 SUB SLT ISZERO PUSH2 0xCEA JUMPI PUSH1 0x0 DUP1 REVERT JUMPDEST DUP5 CALLDATALOAD SWAP4 POP PUSH1 0x20 DUP6 ADD CALLDATALOAD PUSH8 0xFFFFFFFFFFFFFFFF DUP1 DUP3 GT ISZERO PUSH2 0xD09 JUMPI PUSH1 0x0 DUP1 REVERT JUMPDEST PUSH2 0xD15 DUP9 DUP4 DUP10 ADD PUSH2 0xC8B JUMP JUMPDEST SWAP5 POP PUSH1 0x40 DUP8 ADD CALLDATALOAD SWAP2 POP DUP1 DUP3 GT ISZERO PUSH2 0xD2B JUMPI PUSH1 0x0 DUP1 REVERT JUMPDEST PUSH2 0xD37 DUP9 DUP4 DUP10 ADD PUSH2 0xC8B JUMP JUMPDEST SWAP4 POP PUSH1 0x60 DUP8 ADD CALLDATALOAD SWAP2 POP DUP1 DUP3 GT ISZERO PUSH2 0xD4D JUMPI PUSH1 0x0 DUP1 REVERT JUMPDEST POP PUSH2 0xD5A DUP8 DUP3 DUP9 ADD PUSH2 0xC8B JUMP JUMPDEST SWAP2 POP POP SWAP3 SWAP6 SWAP2 SWAP5 POP SWAP3 POP JUMP JUMPDEST PUSH1 0x0 PUSH1 0x20 DUP3 DUP5 SUB SLT ISZERO PUSH2 0xD78 JUMPI PUSH1 0x0 DUP1 REVERT JUMPDEST DUP2 CALLDATALOAD PUSH8 0xFFFFFFFFFFFFFFFF DUP2 GT ISZERO PUSH2 0xD8F JUMPI PUSH1 0x0 DUP1 REVERT JUMPDEST DUP3 ADD PUSH1 0x1F DUP2 ADD DUP5 SGT PUSH2 0xDA0 JUMPI PUSH1 0x0 DUP1 REVERT JUMPDEST PUSH2 0x572 DUP5 DUP3 CALLDATALOAD PUSH1 0x20 DUP5 ADD PUSH2 0xC15 JUMP JUMPDEST PUSH1 0x0 PUSH1 0x20 DUP3 DUP5 SUB SLT ISZERO PUSH2 0xDC1 JUMPI PUSH1 0x0 DUP1 REVERT JUMPDEST POP MLOAD SWAP2 SWAP1 POP JUMP JUMPDEST PUSH1 0x0 DUP2 MLOAD DUP1 DUP5 MSTORE PUSH1 0x0 JUMPDEST DUP2 DUP2 LT ISZERO PUSH2 0xDEE JUMPI PUSH1 0x20 DUP2 DUP6 ADD DUP2 ADD MLOAD DUP7 DUP4 ADD DUP3 ADD MSTORE ADD PUSH2 0xDD2 JUMP JUMPDEST DUP2 DUP2 GT ISZERO PUSH2 0xE00 JUMPI PUSH1 0x0 PUSH1 0x20 DUP4 DUP8 ADD ADD MSTORE JUMPDEST POP PUSH1 0x1F ADD PUSH1 0x1F NOT AND SWAP3 SWAP1 SWAP3 ADD PUSH1 0x20 ADD SWAP3 SWAP2 POP POP JUMP JUMPDEST PUSH1 0x1 PUSH1 0x1 PUSH1 0xA0 SHL SUB DUP10 DUP2 AND DUP3 MSTORE PUSH1 0x20 DUP3 ADD DUP10 SWAP1 MSTORE PUSH1 0x40 DUP3 ADD DUP9 SWAP1 MSTORE DUP7 AND PUSH1 0x60 DUP3 ADD MSTORE PUSH1 0x1 PUSH1 0x1 PUSH1 0xE0 SHL SUB NOT DUP6 AND PUSH1 0x80 DUP3 ADD MSTORE PUSH1 0xA0 DUP2 ADD DUP5 SWAP1 MSTORE PUSH1 0xC0 DUP2 ADD DUP4 SWAP1 MSTORE PUSH2 0x100 PUSH1 0xE0 DUP3 ADD DUP2 SWAP1 MSTORE PUSH1 0x0 SWAP1 PUSH2 0xE6E DUP4 DUP3 ADD DUP6 PUSH2 0xDC8 JUMP JUMPDEST SWAP12 SWAP11 POP POP POP POP POP POP POP POP POP POP POP JUMP JUMPDEST PUSH1 0x1 DUP1 PUSH1 0xA0 SHL SUB DUP5 AND DUP2 MSTORE DUP3 PUSH1 0x20 DUP3 ADD MSTORE PUSH1 0x60 PUSH1 0x40 DUP3 ADD MSTORE PUSH1 0x0 PUSH2 0x4B8 PUSH1 0x60 DUP4 ADD DUP5 PUSH2 0xDC8 JUMP JUMPDEST PUSH1 0x20 DUP2 MSTORE PUSH1 0x0 PUSH2 0x4FE PUSH1 0x20 DUP4 ADD DUP5 PUSH2 0xDC8 JUMP JUMPDEST PUSH1 0x0 DUP3 NOT DUP3 GT ISZERO PUSH2 0xECA JUMPI PUSH2 0xECA PUSH2 0x1047 JUMP JUMPDEST POP ADD SWAP1 JUMP JUMPDEST PUSH1 0x1 DUP2 DUP2 JUMPDEST DUP1 DUP6 GT ISZERO PUSH2 0xF0A JUMPI DUP2 PUSH1 0x0 NOT DIV DUP3 GT ISZERO PUSH2 0xEF0 JUMPI PUSH2 0xEF0 PUSH2 0x1047 JUMP JUMPDEST DUP1 DUP6 AND ISZERO PUSH2 0xEFD JUMPI SWAP2 DUP2 MUL SWAP2 JUMPDEST SWAP4 DUP5 SHR SWAP4 SWAP1 DUP1 MUL SWAP1 PUSH2 0xED4 JUMP JUMPDEST POP SWAP3 POP SWAP3 SWAP1 POP JUMP JUMPDEST PUSH1 0x0 PUSH2 0x4FE DUP4 DUP4 PUSH1 0x0 DUP3 PUSH2 0xF28 JUMPI POP PUSH1 0x1 PUSH2 0x501 JUMP JUMPDEST DUP2 PUSH2 0xF35 JUMPI POP PUSH1 0x0 PUSH2 0x501 JUMP JUMPDEST DUP2 PUSH1 0x1 DUP2 EQ PUSH2 0xF4B JUMPI PUSH1 0x2 DUP2 EQ PUSH2 0xF55 JUMPI PUSH2 0xF71 JUMP JUMPDEST PUSH1 0x1 SWAP2 POP POP PUSH2 0x501 JUMP JUMPDEST PUSH1 0xFF DUP5 GT ISZERO PUSH2 0xF66 JUMPI PUSH2 0xF66 PUSH2 0x1047 JUMP JUMPDEST POP POP PUSH1 0x1 DUP3 SHL PUSH2 0x501 JUMP JUMPDEST POP PUSH1 0x20 DUP4 LT PUSH2 0x133 DUP4 LT AND PUSH1 0x4E DUP5 LT PUSH1 0xB DUP5 LT AND OR ISZERO PUSH2 0xF94 JUMPI POP DUP2 DUP2 EXP PUSH2 0x501 JUMP JUMPDEST PUSH2 0xF9E DUP4 DUP4 PUSH2 0xECF JUMP JUMPDEST DUP1 PUSH1 0x0 NOT DIV DUP3 GT ISZERO PUSH2 0xFB2 JUMPI PUSH2 0xFB2 PUSH2 0x1047 JUMP JUMPDEST MUL SWAP4 SWAP3 POP POP POP JUMP JUMPDEST PUSH1 0x0 DUP2 PUSH1 0x0 NOT DIV DUP4 GT DUP3 ISZERO ISZERO AND ISZERO PUSH2 0xFD4 JUMPI PUSH2 0xFD4 PUSH2 0x1047 JUMP JUMPDEST POP MUL SWAP1 JUMP JUMPDEST PUSH1 0x0 DUP3 DUP3 LT ISZERO PUSH2 0xFEB JUMPI PUSH2 0xFEB PUSH2 0x1047 JUMP JUMPDEST POP SUB SWAP1 JUMP JUMPDEST PUSH1 0x1 DUP2 DUP2 SHR SWAP1 DUP3 AND DUP1 PUSH2 0x1004 JUMPI PUSH1 0x7F DUP3 AND SWAP2 POP JUMPDEST PUSH1 0x20 DUP3 LT DUP2 EQ ISZERO PUSH2 0xB24 JUMPI PUSH4 0x4E487B71 PUSH1 0xE0 SHL PUSH1 0x0 MSTORE PUSH1 0x22 PUSH1 0x4 MSTORE PUSH1 0x24 PUSH1 0x0 REVERT JUMPDEST PUSH1 0x0 DUP3 PUSH2 0x1042 JUMPI PUSH4 0x4E487B71 PUSH1 0xE0 SHL PUSH1 0x0 MSTORE PUSH1 0x12 PUSH1 0x4 MSTORE PUSH1 0x24 PUSH1 0x0 REVERT JUMPDEST POP MOD SWAP1 JUMP JUMPDEST PUSH4 0x4E487B71 PUSH1 0xE0 SHL PUSH1 0x0 MSTORE PUSH1 0x11 PUSH1 0x4 MSTORE PUSH1 0x24 PUSH1 0x0 REVERT JUMPDEST PUSH4 0x4E487B71 PUSH1 0xE0 SHL PUSH1 0x0 MSTORE PUSH1 0x41 PUSH1 0x4 MSTORE PUSH1 0x24 PUSH1 0x0 REVERT INVALID LOG2 PUSH5 0x6970667358 0x22 SLT KECCAK256 LOG1 SIGNEXTEND XOR PUSH26 0xFCCC28DCA77EAFE066D8A180744FD1ED80259B260C82784827FF LOG0 0x4A PUSH5 0x736F6C6343 STOP ADDMOD SMOD STOP CALLER ","sha1":"4ec9bf84fdeb3eabbfc8ce1fcb278bf66717f6ef","source":"//SPDX-License-Identifier: MIT\npragma solidity ^0.8.0;\n\nimport \"@chainlink/contracts/src/v0.8/ChainlinkClient.sol\";\nimport \"../interfaces/IERC20.sol\";\n\ncontract Consumer is ChainlinkClient {\n  using Chainlink for Chainlink.Request;\n\n  string public weapons;\n  string public attire;\n  string public accessories;\n  uint public fee = 1000;\n  // mapping  (bytes32 => address) public idToUser;\n  // mapping  (bytes32 => ItemSet) public idToItemSet;\n  // mapping (address => ItemSet) public userToItems;\n  uint256 payment = 100000000000000;\n  bytes32 specId = \"b61b4d719ab04199882c6a8ac3c51861\";\n\n  struct ItemSet {\n    string theme;\n    string weapons;\n    string armor;\n    string accessories;\n  }\n\n  constructor(\n  ) {\n    setChainlinkToken(0xa36085F69e2889c224210F603D836748e7dC0088);\n    setChainlinkOracle(0x45Fd8dF7E9348b14AfC145599F719DbE27977Fd9);\n    \n  }\n\n  function requestBytes(string memory _prompt\n  )\n    public\n    returns (bytes32)\n  {\n    // require(msg.value >= fee, \"Include fee in transaction\");\n    // require(IERC20(0xa36085F69e2889c224210F603D836748e7dC0088).balanceOf(address(this)) >= payment, \"Not enough link\");\n    Chainlink.Request memory req = buildChainlinkRequest(specId, address(this), this.fulfill.selector);\n    req.add(\"prompt\", _prompt);\n\n    // bytes32 reqId = sendChainlinkRequestTo(0x45Fd8dF7E9348b14AfC145599F719DbE27977Fd9, req, payment);\n    // idToUser[reqId] = msg.sender;\n    requestOracleData(req, payment);\n \n  }\n\n\n\n  event doSomethingPLEASE(bytes32 Id);\n\n  \n  function fulfill(\n    bytes32 requestId,\n    bytes memory _weapons,\n    bytes memory _attire,\n    bytes memory _accessories\n  )\n    public\n    recordChainlinkFulfillment(requestId)\n  {\n    emit doSomethingPLEASE(requestId);\n    weapons = string(_weapons);\n    attire = string(_attire);\n    accessories = string(_accessories);\n    // emit doSomethingPLEASE(requestId);\n    // ItemSet memory items;\n    // items.theme = \"\";\n    // emit doSomethingPLEASE(requestId);\n    // items.weapons = string(_weapons);\n    // items.armor = string(_attire);\n    // items.accessories = string(_accessories);\n    // address requester = idToUser[requestId];\n    // userToItems[requester] = items;\n    // emit doSomethingPLEASE(requestId);\n    // emit doSomethingPLEASE(requestId);\n\n  }\n \n  \n  function withdrawLink() public {\n    uint256 bal = IERC20(0xa36085F69e2889c224210F603D836748e7dC0088).balanceOf(address(this));\n    IERC20(0xa36085F69e2889c224210F603D836748e7dC0088).transfer(msg.sender, bal);\n  }\n  \n  receive() external payable {}\n\n}\n","sourcePath":"contracts/Consumer.sol","deployment":{"address":"0x97f58191539D8cc3Fc2DcA0cc69011535bB71f6B","chainid":"42","blockHeight":27485875}}