{"bytecode":"608060405260016004556103e8600955655af3107a4000600e557f6236316234643731396162303431393938383263366138616333633531383631600f5534801561004957600080fd5b50600280546001600160a01b03191673a36085f69e2889c224210f603d836748e7dc0088179055600380546001600160a01b0319167345fd8df7e9348b14afc145599f719dbe27977fd9179055611568806100a56000396000f3fe6080604052600436106100a05760003560e01c8063a9aa558411610064578063a9aa558414610175578063aacbd09e1461018a578063b7e1cd86146101d8578063caedd314146101ed578063ddca3f431461020d578063f5094c9d1461022357600080fd5b80630b4805d3146100ac57806318fadf62146100ec578063510a49721461010e57806360f6998b1461013e5780638dc654a21461016057600080fd5b366100a757005b600080fd5b3480156100b857600080fd5b506100d96100c73660046110d0565b600b6020526000908152604090205481565b6040519081526020015b60405180910390f35b3480156100f857600080fd5b5061010c61010736600461113b565b610243565b005b34801561011a57600080fd5b5061012e610129366004611122565b610418565b6040516100e3949392919061131e565b34801561014a57600080fd5b50610153610660565b6040516100e3919061130b565b34801561016c57600080fd5b5061010c6106ee565b34801561018157600080fd5b50610153610805565b34801561019657600080fd5b506101c06101a5366004611122565b600a602052600090815260409020546001600160a01b031681565b6040516001600160a01b0390911681526020016100e3565b3480156101e457600080fd5b50610153610812565b3480156101f957600080fd5b5061012e6102083660046110d0565b61081f565b34801561021957600080fd5b506100d960095481565b34801561022f57600080fd5b506100d961023e3660046111cd565b61083a565b60008481526005602052604090205484906001600160a01b031633146102c15760405162461bcd60e51b815260206004820152602860248201527f536f75726365206d75737420626520746865206f7261636c65206f6620746865604482015267081c995c5d595cdd60c21b60648201526084015b60405180910390fd5b60008181526005602052604080822080546001600160a01b03191690555182917f7cc135e0cebb02c3480ae5d74d377283180a2601f8f644edf7987b009316c63a91a26040518581527f54836a2905a4c5bcfba367bf7fb2aa840da1503609eb6120754142dc098a16b39060200160405180910390a16103626040518060800160405280606081526020016060815260200160608152602001606081525090565b6040805160208082018352600080835291845283810188905283830187905260608401869052888252600a8152828220546001600160a01b0316808352600d8252929091208351805185936103bb928492910190610f66565b5060208281015180516103d49260018501920190610f66565b50604082015180516103f0916002840191602090910190610f66565b506060820151805161040c916003840191602090910190610f66565b50505050505050505050565b600c60205260009081526040902080548190610433906114af565b80601f016020809104026020016040519081016040528092919081815260200182805461045f906114af565b80156104ac5780601f10610481576101008083540402835291602001916104ac565b820191906000526020600020905b81548152906001019060200180831161048f57829003601f168201915b5050505050908060010180546104c1906114af565b80601f01602080910402602001604051908101604052809291908181526020018280546104ed906114af565b801561053a5780601f1061050f5761010080835404028352916020019161053a565b820191906000526020600020905b81548152906001019060200180831161051d57829003601f168201915b50505050509080600201805461054f906114af565b80601f016020809104026020016040519081016040528092919081815260200182805461057b906114af565b80156105c85780601f1061059d576101008083540402835291602001916105c8565b820191906000526020600020905b8154815290600101906020018083116105ab57829003601f168201915b5050505050908060030180546105dd906114af565b80601f0160208091040260200160405190810160405280929190818152602001828054610609906114af565b80156106565780601f1061062b57610100808354040283529160200191610656565b820191906000526020600020905b81548152906001019060200180831161063957829003601f168201915b5050505050905084565b6007805461066d906114af565b80601f0160208091040260200160405190810160405280929190818152602001828054610699906114af565b80156106e65780601f106106bb576101008083540402835291602001916106e6565b820191906000526020600020905b8154815290600101906020018083116106c957829003601f168201915b505050505081565b6040516370a0823160e01b815230600482015260009073a36085f69e2889c224210f603d836748e7dc0088906370a082319060240160206040518083038186803b15801561073b57600080fd5b505afa15801561074f573d6000803e3d6000fd5b505050506040513d601f19601f820116820180604052508101906107739190611216565b60405163a9059cbb60e01b81523360048201526024810182905290915073a36085f69e2889c224210f603d836748e7dc00889063a9059cbb90604401602060405180830381600087803b1580156107c957600080fd5b505af11580156107dd573d6000803e3d6000fd5b505050506040513d601f19601f820116820180604052508101906108019190611100565b5050565b6008805461066d906114af565b6006805461066d906114af565b600d60205260009081526040902080548190610433906114af565b600080610851600f54306318fadf6260e01b6108c1565b6040805180820190915260068152651c1c9bdb5c1d60d21b602082015290915061087d908290856108e6565b600061088b82600e54610909565b6000818152600a6020908152604080832080546001600160a01b031916339081179091558352600b909152902055509092915050565b6108c9610fea565b6108d1610fea565b6108dd8186868661092c565b95945050505050565b60808301516108f59083610969565b60808301516109049082610969565b505050565b600354600090610923906001600160a01b03168484610980565b90505b92915050565b610934610fea565b610944856080015161010061099f565b50509183526001600160a01b031660208301526001600160e01b031916604082015290565b6109768260038351610a04565b6109048282610ad8565b600061099784848460026336f43ceb60e11b610aff565b949350505050565b6040805180820190915260608152600060208201526109bf6020836114e4565b156109e7576109cf6020836114e4565b6109da906020611498565b6109e49083611376565b91505b506020828101829052604080518085526000815290920101905290565b60178111610a2557610a1f8360e0600585901b168317610d0b565b50505050565b60ff8111610a4f57610a42836018611fe0600586901b1617610d0b565b50610a1f83826001610d30565b61ffff8111610a7a57610a6d836019611fe0600586901b1617610d0b565b50610a1f83826002610d30565b63ffffffff8111610aa757610a9a83601a611fe0600586901b1617610d0b565b50610a1f83826004610d30565b67ffffffffffffffff811161090457610acb83601b611fe0600586901b1617610d0b565b50610a1f83826008610d30565b60408051808201909152606081526000602082015261092383846000015151848551610d56565b6004546040516bffffffffffffffffffffffff193060601b166020820152603481019190915260009060540160408051808303601f19018152918152815160209283012060045460608901526000818152600590935281832080546001600160a01b0319166001600160a01b038b16179055905190925082917fb5e6e01e79f91267dc17b4e6314d5d4d03593d2ceee0fbb452b750bd70ea5af991a2600082600080886000015189602001518a604001518b606001518a8d6080015160000151604051602401610bd698979695949392919061127c565b60408051601f198184030181529181526020820180516001600160e01b03166001600160e01b0319909416939093179092526002549151630200057560e51b81529092506001600160a01b0390911690634000aea090610c3e908a90899086906004016112e4565b602060405180830381600087803b158015610c5857600080fd5b505af1158015610c6c573d6000803e3d6000fd5b505050506040513d601f19601f82011682018060405250810190610c909190611100565b610ce85760405162461bcd60e51b815260206004820152602360248201527f756e61626c6520746f207472616e73666572416e6443616c6c20746f206f7261604482015262636c6560e81b60648201526084016102b8565b600160046000828254610cfb9190611376565b9091555091979650505050505050565b6040805180820190915260608152600060208201526109238384600001515184610e5b565b604080518082019091526060815260006020820152610997848560000151518585610eb7565b6040805180820190915260608152600060208201528251821115610d7957600080fd5b6020850151610d888386611376565b1115610dbb57610dbb85610dab87602001518786610da69190611376565b610f38565b610db6906002611479565b610f4f565b600080865180518760208301019350808887011115610dda5787860182525b505050602084015b60208410610e1a5780518252610df9602083611376565b9150610e06602082611376565b9050610e13602085611498565b9350610de2565b60006001610e29866020611498565b610e35906101006113d1565b610e3f9190611498565b9151835183169219169190911790915250849050949350505050565b60408051808201909152606081526000602082015283602001518310610e9057610e908485602001516002610db69190611479565b835180516020858301018481535080851415610ead576001810182525b5093949350505050565b6040805180820190915260608152600060208201526020850151610edb8584611376565b1115610eef57610eef85610dab8685611376565b60006001610eff846101006113d1565b610f099190611498565b9050855183868201018583198251161781525080518487011115610f2d5783860181525b509495945050505050565b600081831115610f49575081610926565b50919050565b8151610f5b838361099f565b50610a1f8382610ad8565b828054610f72906114af565b90600052602060002090601f016020900481019282610f945760008555610fda565b82601f10610fad57805160ff1916838001178555610fda565b82800160010185558215610fda579182015b82811115610fda578251825591602001919060010190610fbf565b50610fe6929150611025565b5090565b6040805160a0810182526000808252602080830182905282840182905260608084018390528451808601909552845283015290608082015290565b5b80821115610fe65760008155600101611026565b600067ffffffffffffffff808411156110555761105561151c565b604051601f8501601f19908116603f0116810190828211818310171561107d5761107d61151c565b8160405280935085815286868601111561109657600080fd5b858560208301376000602087830101525050509392505050565b600082601f8301126110c157600080fd5b6109238383356020850161103a565b6000602082840312156110e257600080fd5b81356001600160a01b03811681146110f957600080fd5b9392505050565b60006020828403121561111257600080fd5b815180151581146110f957600080fd5b60006020828403121561113457600080fd5b5035919050565b6000806000806080858703121561115157600080fd5b84359350602085013567ffffffffffffffff8082111561117057600080fd5b61117c888389016110b0565b9450604087013591508082111561119257600080fd5b61119e888389016110b0565b935060608701359150808211156111b457600080fd5b506111c1878288016110b0565b91505092959194509250565b6000602082840312156111df57600080fd5b813567ffffffffffffffff8111156111f657600080fd5b8201601f8101841361120757600080fd5b6109978482356020840161103a565b60006020828403121561122857600080fd5b5051919050565b6000815180845260005b8181101561125557602081850181015186830182015201611239565b81811115611267576000602083870101525b50601f01601f19169290920160200192915050565b6001600160a01b0389811682526020820189905260408201889052861660608201526001600160e01b03198516608082015260a0810184905260c0810183905261010060e082018190526000906112d58382018561122f565b9b9a5050505050505050505050565b60018060a01b03841681528260208201526060604082015260006108dd606083018461122f565b602081526000610923602083018461122f565b608081526000611331608083018761122f565b8281036020840152611343818761122f565b90508281036040840152611357818661122f565b9050828103606084015261136b818561122f565b979650505050505050565b6000821982111561138957611389611506565b500190565b600181815b808511156113c95781600019048211156113af576113af611506565b808516156113bc57918102915b93841c9390800290611393565b509250929050565b600061092383836000826113e757506001610926565b816113f457506000610926565b816001811461140a576002811461141457611430565b6001915050610926565b60ff84111561142557611425611506565b50506001821b610926565b5060208310610133831016604e8410600b8410161715611453575081810a610926565b61145d838361138e565b806000190482111561147157611471611506565b029392505050565b600081600019048311821515161561149357611493611506565b500290565b6000828210156114aa576114aa611506565b500390565b600181811c908216806114c357607f821691505b60208210811415610f4957634e487b7160e01b600052602260045260246000fd5b60008261150157634e487b7160e01b600052601260045260246000fd5b500690565b634e487b7160e01b600052601160045260246000fd5b634e487b7160e01b600052604160045260246000fdfea264697066735822122094eec9978d558d5f646e53aa052b991784cfca2fe68d2577c5cb16b9bba6278c64736f6c63430008070033","bytecodeSha1":"6dfa36923833ba2b3d4248a217db9fcc3879f5ba","type":"contract","abi":[{"inputs":[],"stateMutability":"nonpayable","type":"constructor","name":"constructor"},{"anonymous":false,"inputs":[{"indexed":true,"internalType":"bytes32","name":"id","type":"bytes32"}],"name":"ChainlinkCancelled","type":"event"},{"anonymous":false,"inputs":[{"indexed":true,"internalType":"bytes32","name":"id","type":"bytes32"}],"name":"ChainlinkFulfilled","type":"event"},{"anonymous":false,"inputs":[{"indexed":true,"internalType":"bytes32","name":"id","type":"bytes32"}],"name":"ChainlinkRequested","type":"event"},{"anonymous":false,"inputs":[{"indexed":false,"internalType":"bytes32","name":"Id","type":"bytes32"}],"name":"doSomethingPLEASE","type":"event"},{"inputs":[],"name":"accessories","outputs":[{"internalType":"string","name":"","type":"string"}],"stateMutability":"view","type":"function"},{"inputs":[],"name":"attire","outputs":[{"internalType":"string","name":"","type":"string"}],"stateMutability":"view","type":"function"},{"inputs":[],"name":"fee","outputs":[{"internalType":"uint256","name":"","type":"uint256"}],"stateMutability":"view","type":"function"},{"inputs":[{"internalType":"bytes32","name":"requestId","type":"bytes32"},{"internalType":"bytes","name":"_weapons","type":"bytes"},{"internalType":"bytes","name":"_attire","type":"bytes"},{"internalType":"bytes","name":"_accessories","type":"bytes"}],"name":"fulfill","outputs":[],"stateMutability":"nonpayable","type":"function"},{"inputs":[{"internalType":"bytes32","name":"","type":"bytes32"}],"name":"idToItemSet","outputs":[{"internalType":"string","name":"theme","type":"string"},{"internalType":"string","name":"weapons","type":"string"},{"internalType":"string","name":"armor","type":"string"},{"internalType":"string","name":"accessories","type":"string"}],"stateMutability":"view","type":"function"},{"inputs":[{"internalType":"bytes32","name":"","type":"bytes32"}],"name":"idToUser","outputs":[{"internalType":"address","name":"","type":"address"}],"stateMutability":"view","type":"function"},{"inputs":[{"internalType":"string","name":"_prompt","type":"string"}],"name":"requestBytes","outputs":[{"internalType":"bytes32","name":"","type":"bytes32"}],"stateMutability":"nonpayable","type":"function"},{"inputs":[{"internalType":"address","name":"","type":"address"}],"name":"userToId","outputs":[{"internalType":"bytes32","name":"","type":"bytes32"}],"stateMutability":"view","type":"function"},{"inputs":[{"internalType":"address","name":"","type":"address"}],"name":"userToItems","outputs":[{"internalType":"string","name":"theme","type":"string"},{"internalType":"string","name":"weapons","type":"string"},{"internalType":"string","name":"armor","type":"string"},{"internalType":"string","name":"accessories","type":"string"}],"stateMutability":"view","type":"function"},{"inputs":[],"name":"weapons","outputs":[{"internalType":"string","name":"","type":"string"}],"stateMutability":"view","type":"function"},{"inputs":[],"name":"withdrawLink","outputs":[],"stateMutability":"nonpayable","type":"function"},{"stateMutability":"payable","type":"receive"}],"compiler":{"version":"0.8.7+commit.e28d00a7","evm_version":"istanbul","optimizer":{"enabled":true,"runs":200}},"contractName":"Consumer","language":"Solidity","natspec":{"methods":{},"kind":"dev","version":1},"opcodes":"PUSH1 0x80 PUSH1 0x40 MSTORE PUSH1 0x4 CALLDATASIZE LT PUSH2 0xA0 JUMPI PUSH1 0x0 CALLDATALOAD PUSH1 0xE0 SHR DUP1 PUSH4 0xA9AA5584 GT PUSH2 0x64 JUMPI DUP1 PUSH4 0xA9AA5584 EQ PUSH2 0x175 JUMPI DUP1 PUSH4 0xAACBD09E EQ PUSH2 0x18A JUMPI DUP1 PUSH4 0xB7E1CD86 EQ PUSH2 0x1D8 JUMPI DUP1 PUSH4 0xCAEDD314 EQ PUSH2 0x1ED JUMPI DUP1 PUSH4 0xDDCA3F43 EQ PUSH2 0x20D JUMPI DUP1 PUSH4 0xF5094C9D EQ PUSH2 0x223 JUMPI PUSH1 0x0 DUP1 REVERT JUMPDEST DUP1 PUSH4 0xB4805D3 EQ PUSH2 0xAC JUMPI DUP1 PUSH4 0x18FADF62 EQ PUSH2 0xEC JUMPI DUP1 PUSH4 0x510A4972 EQ PUSH2 0x10E JUMPI DUP1 PUSH4 0x60F6998B EQ PUSH2 0x13E JUMPI DUP1 PUSH4 0x8DC654A2 EQ PUSH2 0x160 JUMPI PUSH1 0x0 DUP1 REVERT JUMPDEST CALLDATASIZE PUSH2 0xA7 JUMPI STOP JUMPDEST PUSH1 0x0 DUP1 REVERT JUMPDEST CALLVALUE DUP1 ISZERO PUSH2 0xB8 JUMPI PUSH1 0x0 DUP1 REVERT JUMPDEST POP PUSH2 0xD9 PUSH2 0xC7 CALLDATASIZE PUSH1 0x4 PUSH2 0x10D0 JUMP JUMPDEST PUSH1 0xB PUSH1 0x20 MSTORE PUSH1 0x0 SWAP1 DUP2 MSTORE PUSH1 0x40 SWAP1 KECCAK256 SLOAD DUP2 JUMP JUMPDEST PUSH1 0x40 MLOAD SWAP1 DUP2 MSTORE PUSH1 0x20 ADD JUMPDEST PUSH1 0x40 MLOAD DUP1 SWAP2 SUB SWAP1 RETURN JUMPDEST CALLVALUE DUP1 ISZERO PUSH2 0xF8 JUMPI PUSH1 0x0 DUP1 REVERT JUMPDEST POP PUSH2 0x10C PUSH2 0x107 CALLDATASIZE PUSH1 0x4 PUSH2 0x113B JUMP JUMPDEST PUSH2 0x243 JUMP JUMPDEST STOP JUMPDEST CALLVALUE DUP1 ISZERO PUSH2 0x11A JUMPI PUSH1 0x0 DUP1 REVERT JUMPDEST POP PUSH2 0x12E PUSH2 0x129 CALLDATASIZE PUSH1 0x4 PUSH2 0x1122 JUMP JUMPDEST PUSH2 0x418 JUMP JUMPDEST PUSH1 0x40 MLOAD PUSH2 0xE3 SWAP5 SWAP4 SWAP3 SWAP2 SWAP1 PUSH2 0x131E JUMP JUMPDEST CALLVALUE DUP1 ISZERO PUSH2 0x14A JUMPI PUSH1 0x0 DUP1 REVERT JUMPDEST POP PUSH2 0x153 PUSH2 0x660 JUMP JUMPDEST PUSH1 0x40 MLOAD PUSH2 0xE3 SWAP2 SWAP1 PUSH2 0x130B JUMP JUMPDEST CALLVALUE DUP1 ISZERO PUSH2 0x16C JUMPI PUSH1 0x0 DUP1 REVERT JUMPDEST POP PUSH2 0x10C PUSH2 0x6EE JUMP JUMPDEST CALLVALUE DUP1 ISZERO PUSH2 0x181 JUMPI PUSH1 0x0 DUP1 REVERT JUMPDEST POP PUSH2 0x153 PUSH2 0x805 JUMP JUMPDEST CALLVALUE DUP1 ISZERO PUSH2 0x196 JUMPI PUSH1 0x0 DUP1 REVERT JUMPDEST POP PUSH2 0x1C0 PUSH2 0x1A5 CALLDATASIZE PUSH1 0x4 PUSH2 0x1122 JUMP JUMPDEST PUSH1 0xA PUSH1 0x20 MSTORE PUSH1 0x0 SWAP1 DUP2 MSTORE PUSH1 0x40 SWAP1 KECCAK256 SLOAD PUSH1 0x1 PUSH1 0x1 PUSH1 0xA0 SHL SUB AND DUP2 JUMP JUMPDEST PUSH1 0x40 MLOAD PUSH1 0x1 PUSH1 0x1 PUSH1 0xA0 SHL SUB SWAP1 SWAP2 AND DUP2 MSTORE PUSH1 0x20 ADD PUSH2 0xE3 JUMP JUMPDEST CALLVALUE DUP1 ISZERO PUSH2 0x1E4 JUMPI PUSH1 0x0 DUP1 REVERT JUMPDEST POP PUSH2 0x153 PUSH2 0x812 JUMP JUMPDEST CALLVALUE DUP1 ISZERO PUSH2 0x1F9 JUMPI PUSH1 0x0 DUP1 REVERT JUMPDEST POP PUSH2 0x12E PUSH2 0x208 CALLDATASIZE PUSH1 0x4 PUSH2 0x10D0 JUMP JUMPDEST PUSH2 0x81F JUMP JUMPDEST CALLVALUE DUP1 ISZERO PUSH2 0x219 JUMPI PUSH1 0x0 DUP1 REVERT JUMPDEST POP PUSH2 0xD9 PUSH1 0x9 SLOAD DUP2 JUMP JUMPDEST CALLVALUE DUP1 ISZERO PUSH2 0x22F JUMPI PUSH1 0x0 DUP1 REVERT JUMPDEST POP PUSH2 0xD9 PUSH2 0x23E CALLDATASIZE PUSH1 0x4 PUSH2 0x11CD JUMP JUMPDEST PUSH2 0x83A JUMP JUMPDEST PUSH1 0x0 DUP5 DUP2 MSTORE PUSH1 0x5 PUSH1 0x20 MSTORE PUSH1 0x40 SWAP1 KECCAK256 SLOAD DUP5 SWAP1 PUSH1 0x1 PUSH1 0x1 PUSH1 0xA0 SHL SUB AND CALLER EQ PUSH2 0x2C1 JUMPI PUSH1 0x40 MLOAD PUSH3 0x461BCD PUSH1 0xE5 SHL DUP2 MSTORE PUSH1 0x20 PUSH1 0x4 DUP3 ADD MSTORE PUSH1 0x28 PUSH1 0x24 DUP3 ADD MSTORE PUSH32 0x536F75726365206D75737420626520746865206F7261636C65206F6620746865 PUSH1 0x44 DUP3 ADD MSTORE PUSH8 0x81C995C5D595CDD PUSH1 0xC2 SHL PUSH1 0x64 DUP3 ADD MSTORE PUSH1 0x84 ADD JUMPDEST PUSH1 0x40 MLOAD DUP1 SWAP2 SUB SWAP1 REVERT JUMPDEST PUSH1 0x0 DUP2 DUP2 MSTORE PUSH1 0x5 PUSH1 0x20 MSTORE PUSH1 0x40 DUP1 DUP3 KECCAK256 DUP1 SLOAD PUSH1 0x1 PUSH1 0x1 PUSH1 0xA0 SHL SUB NOT AND SWAP1 SSTORE MLOAD DUP3 SWAP2 PUSH32 0x7CC135E0CEBB02C3480AE5D74D377283180A2601F8F644EDF7987B009316C63A SWAP2 LOG2 PUSH1 0x40 MLOAD DUP6 DUP2 MSTORE PUSH32 0x54836A2905A4C5BCFBA367BF7FB2AA840DA1503609EB6120754142DC098A16B3 SWAP1 PUSH1 0x20 ADD PUSH1 0x40 MLOAD DUP1 SWAP2 SUB SWAP1 LOG1 PUSH2 0x362 PUSH1 0x40 MLOAD DUP1 PUSH1 0x80 ADD PUSH1 0x40 MSTORE DUP1 PUSH1 0x60 DUP2 MSTORE PUSH1 0x20 ADD PUSH1 0x60 DUP2 MSTORE PUSH1 0x20 ADD PUSH1 0x60 DUP2 MSTORE PUSH1 0x20 ADD PUSH1 0x60 DUP2 MSTORE POP SWAP1 JUMP JUMPDEST PUSH1 0x40 DUP1 MLOAD PUSH1 0x20 DUP1 DUP3 ADD DUP4 MSTORE PUSH1 0x0 DUP1 DUP4 MSTORE SWAP2 DUP5 MSTORE DUP4 DUP2 ADD DUP9 SWAP1 MSTORE DUP4 DUP4 ADD DUP8 SWAP1 MSTORE PUSH1 0x60 DUP5 ADD DUP7 SWAP1 MSTORE DUP9 DUP3 MSTORE PUSH1 0xA DUP2 MSTORE DUP3 DUP3 KECCAK256 SLOAD PUSH1 0x1 PUSH1 0x1 PUSH1 0xA0 SHL SUB AND DUP1 DUP4 MSTORE PUSH1 0xD DUP3 MSTORE SWAP3 SWAP1 SWAP2 KECCAK256 DUP4 MLOAD DUP1 MLOAD DUP6 SWAP4 PUSH2 0x3BB SWAP3 DUP5 SWAP3 SWAP2 ADD SWAP1 PUSH2 0xF66 JUMP JUMPDEST POP PUSH1 0x20 DUP3 DUP2 ADD MLOAD DUP1 MLOAD PUSH2 0x3D4 SWAP3 PUSH1 0x1 DUP6 ADD SWAP3 ADD SWAP1 PUSH2 0xF66 JUMP JUMPDEST POP PUSH1 0x40 DUP3 ADD MLOAD DUP1 MLOAD PUSH2 0x3F0 SWAP2 PUSH1 0x2 DUP5 ADD SWAP2 PUSH1 0x20 SWAP1 SWAP2 ADD SWAP1 PUSH2 0xF66 JUMP JUMPDEST POP PUSH1 0x60 DUP3 ADD MLOAD DUP1 MLOAD PUSH2 0x40C SWAP2 PUSH1 0x3 DUP5 ADD SWAP2 PUSH1 0x20 SWAP1 SWAP2 ADD SWAP1 PUSH2 0xF66 JUMP JUMPDEST POP POP POP POP POP POP POP POP POP POP JUMP JUMPDEST PUSH1 0xC PUSH1 0x20 MSTORE PUSH1 0x0 SWAP1 DUP2 MSTORE PUSH1 0x40 SWAP1 KECCAK256 DUP1 SLOAD DUP2 SWAP1 PUSH2 0x433 SWAP1 PUSH2 0x14AF JUMP JUMPDEST DUP1 PUSH1 0x1F ADD PUSH1 0x20 DUP1 SWAP2 DIV MUL PUSH1 0x20 ADD PUSH1 0x40 MLOAD SWAP1 DUP2 ADD PUSH1 0x40 MSTORE DUP1 SWAP3 SWAP2 SWAP1 DUP2 DUP2 MSTORE PUSH1 0x20 ADD DUP3 DUP1 SLOAD PUSH2 0x45F SWAP1 PUSH2 0x14AF JUMP JUMPDEST DUP1 ISZERO PUSH2 0x4AC JUMPI DUP1 PUSH1 0x1F LT PUSH2 0x481 JUMPI PUSH2 0x100 DUP1 DUP4 SLOAD DIV MUL DUP4 MSTORE SWAP2 PUSH1 0x20 ADD SWAP2 PUSH2 0x4AC JUMP JUMPDEST DUP3 ADD SWAP2 SWAP1 PUSH1 0x0 MSTORE PUSH1 0x20 PUSH1 0x0 KECCAK256 SWAP1 JUMPDEST DUP2 SLOAD DUP2 MSTORE SWAP1 PUSH1 0x1 ADD SWAP1 PUSH1 0x20 ADD DUP1 DUP4 GT PUSH2 0x48F JUMPI DUP3 SWAP1 SUB PUSH1 0x1F AND DUP3 ADD SWAP2 JUMPDEST POP POP POP POP POP SWAP1 DUP1 PUSH1 0x1 ADD DUP1 SLOAD PUSH2 0x4C1 SWAP1 PUSH2 0x14AF JUMP JUMPDEST DUP1 PUSH1 0x1F ADD PUSH1 0x20 DUP1 SWAP2 DIV MUL PUSH1 0x20 ADD PUSH1 0x40 MLOAD SWAP1 DUP2 ADD PUSH1 0x40 MSTORE DUP1 SWAP3 SWAP2 SWAP1 DUP2 DUP2 MSTORE PUSH1 0x20 ADD DUP3 DUP1 SLOAD PUSH2 0x4ED SWAP1 PUSH2 0x14AF JUMP JUMPDEST DUP1 ISZERO PUSH2 0x53A JUMPI DUP1 PUSH1 0x1F LT PUSH2 0x50F JUMPI PUSH2 0x100 DUP1 DUP4 SLOAD DIV MUL DUP4 MSTORE SWAP2 PUSH1 0x20 ADD SWAP2 PUSH2 0x53A JUMP JUMPDEST DUP3 ADD SWAP2 SWAP1 PUSH1 0x0 MSTORE PUSH1 0x20 PUSH1 0x0 KECCAK256 SWAP1 JUMPDEST DUP2 SLOAD DUP2 MSTORE SWAP1 PUSH1 0x1 ADD SWAP1 PUSH1 0x20 ADD DUP1 DUP4 GT PUSH2 0x51D JUMPI DUP3 SWAP1 SUB PUSH1 0x1F AND DUP3 ADD SWAP2 JUMPDEST POP POP POP POP POP SWAP1 DUP1 PUSH1 0x2 ADD DUP1 SLOAD PUSH2 0x54F SWAP1 PUSH2 0x14AF JUMP JUMPDEST DUP1 PUSH1 0x1F ADD PUSH1 0x20 DUP1 SWAP2 DIV MUL PUSH1 0x20 ADD PUSH1 0x40 MLOAD SWAP1 DUP2 ADD PUSH1 0x40 MSTORE DUP1 SWAP3 SWAP2 SWAP1 DUP2 DUP2 MSTORE PUSH1 0x20 ADD DUP3 DUP1 SLOAD PUSH2 0x57B SWAP1 PUSH2 0x14AF JUMP JUMPDEST DUP1 ISZERO PUSH2 0x5C8 JUMPI DUP1 PUSH1 0x1F LT PUSH2 0x59D JUMPI PUSH2 0x100 DUP1 DUP4 SLOAD DIV MUL DUP4 MSTORE SWAP2 PUSH1 0x20 ADD SWAP2 PUSH2 0x5C8 JUMP JUMPDEST DUP3 ADD SWAP2 SWAP1 PUSH1 0x0 MSTORE PUSH1 0x20 PUSH1 0x0 KECCAK256 SWAP1 JUMPDEST DUP2 SLOAD DUP2 MSTORE SWAP1 PUSH1 0x1 ADD SWAP1 PUSH1 0x20 ADD DUP1 DUP4 GT PUSH2 0x5AB JUMPI DUP3 SWAP1 SUB PUSH1 0x1F AND DUP3 ADD SWAP2 JUMPDEST POP POP POP POP POP SWAP1 DUP1 PUSH1 0x3 ADD DUP1 SLOAD PUSH2 0x5DD SWAP1 PUSH2 0x14AF JUMP JUMPDEST DUP1 PUSH1 0x1F ADD PUSH1 0x20 DUP1 SWAP2 DIV MUL PUSH1 0x20 ADD PUSH1 0x40 MLOAD SWAP1 DUP2 ADD PUSH1 0x40 MSTORE DUP1 SWAP3 SWAP2 SWAP1 DUP2 DUP2 MSTORE PUSH1 0x20 ADD DUP3 DUP1 SLOAD PUSH2 0x609 SWAP1 PUSH2 0x14AF JUMP JUMPDEST DUP1 ISZERO PUSH2 0x656 JUMPI DUP1 PUSH1 0x1F LT PUSH2 0x62B JUMPI PUSH2 0x100 DUP1 DUP4 SLOAD DIV MUL DUP4 MSTORE SWAP2 PUSH1 0x20 ADD SWAP2 PUSH2 0x656 JUMP JUMPDEST DUP3 ADD SWAP2 SWAP1 PUSH1 0x0 MSTORE PUSH1 0x20 PUSH1 0x0 KECCAK256 SWAP1 JUMPDEST DUP2 SLOAD DUP2 MSTORE SWAP1 PUSH1 0x1 ADD SWAP1 PUSH1 0x20 ADD DUP1 DUP4 GT PUSH2 0x639 JUMPI DUP3 SWAP1 SUB PUSH1 0x1F AND DUP3 ADD SWAP2 JUMPDEST POP POP POP POP POP SWAP1 POP DUP5 JUMP JUMPDEST PUSH1 0x7 DUP1 SLOAD PUSH2 0x66D SWAP1 PUSH2 0x14AF JUMP JUMPDEST DUP1 PUSH1 0x1F ADD PUSH1 0x20 DUP1 SWAP2 DIV MUL PUSH1 0x20 ADD PUSH1 0x40 MLOAD SWAP1 DUP2 ADD PUSH1 0x40 MSTORE DUP1 SWAP3 SWAP2 SWAP1 DUP2 DUP2 MSTORE PUSH1 0x20 ADD DUP3 DUP1 SLOAD PUSH2 0x699 SWAP1 PUSH2 0x14AF JUMP JUMPDEST DUP1 ISZERO PUSH2 0x6E6 JUMPI DUP1 PUSH1 0x1F LT PUSH2 0x6BB JUMPI PUSH2 0x100 DUP1 DUP4 SLOAD DIV MUL DUP4 MSTORE SWAP2 PUSH1 0x20 ADD SWAP2 PUSH2 0x6E6 JUMP JUMPDEST DUP3 ADD SWAP2 SWAP1 PUSH1 0x0 MSTORE PUSH1 0x20 PUSH1 0x0 KECCAK256 SWAP1 JUMPDEST DUP2 SLOAD DUP2 MSTORE SWAP1 PUSH1 0x1 ADD SWAP1 PUSH1 0x20 ADD DUP1 DUP4 GT PUSH2 0x6C9 JUMPI DUP3 SWAP1 SUB PUSH1 0x1F AND DUP3 ADD SWAP2 JUMPDEST POP POP POP POP POP DUP2 JUMP JUMPDEST PUSH1 0x40 MLOAD PUSH4 0x70A08231 PUSH1 0xE0 SHL DUP2 MSTORE ADDRESS PUSH1 0x4 DUP3 ADD MSTORE PUSH1 0x0 SWAP1 PUSH20 0xA36085F69E2889C224210F603D836748E7DC0088 SWAP1 PUSH4 0x70A08231 SWAP1 PUSH1 0x24 ADD PUSH1 0x20 PUSH1 0x40 MLOAD DUP1 DUP4 SUB DUP2 DUP7 DUP1 EXTCODESIZE ISZERO DUP1 ISZERO PUSH2 0x73B JUMPI PUSH1 0x0 DUP1 REVERT JUMPDEST POP GAS STATICCALL ISZERO DUP1 ISZERO PUSH2 0x74F JUMPI RETURNDATASIZE PUSH1 0x0 DUP1 RETURNDATACOPY RETURNDATASIZE PUSH1 0x0 REVERT JUMPDEST POP POP POP POP PUSH1 0x40 MLOAD RETURNDATASIZE PUSH1 0x1F NOT PUSH1 0x1F DUP3 ADD AND DUP3 ADD DUP1 PUSH1 0x40 MSTORE POP DUP2 ADD SWAP1 PUSH2 0x773 SWAP2 SWAP1 PUSH2 0x1216 JUMP JUMPDEST PUSH1 0x40 MLOAD PUSH4 0xA9059CBB PUSH1 0xE0 SHL DUP2 MSTORE CALLER PUSH1 0x4 DUP3 ADD MSTORE PUSH1 0x24 DUP2 ADD DUP3 SWAP1 MSTORE SWAP1 SWAP2 POP PUSH20 0xA36085F69E2889C224210F603D836748E7DC0088 SWAP1 PUSH4 0xA9059CBB SWAP1 PUSH1 0x44 ADD PUSH1 0x20 PUSH1 0x40 MLOAD DUP1 DUP4 SUB DUP2 PUSH1 0x0 DUP8 DUP1 EXTCODESIZE ISZERO DUP1 ISZERO PUSH2 0x7C9 JUMPI PUSH1 0x0 DUP1 REVERT JUMPDEST POP GAS CALL ISZERO DUP1 ISZERO PUSH2 0x7DD JUMPI RETURNDATASIZE PUSH1 0x0 DUP1 RETURNDATACOPY RETURNDATASIZE PUSH1 0x0 REVERT JUMPDEST POP POP POP POP PUSH1 0x40 MLOAD RETURNDATASIZE PUSH1 0x1F NOT PUSH1 0x1F DUP3 ADD AND DUP3 ADD DUP1 PUSH1 0x40 MSTORE POP DUP2 ADD SWAP1 PUSH2 0x801 SWAP2 SWAP1 PUSH2 0x1100 JUMP JUMPDEST POP POP JUMP JUMPDEST PUSH1 0x8 DUP1 SLOAD PUSH2 0x66D SWAP1 PUSH2 0x14AF JUMP JUMPDEST PUSH1 0x6 DUP1 SLOAD PUSH2 0x66D SWAP1 PUSH2 0x14AF JUMP JUMPDEST PUSH1 0xD PUSH1 0x20 MSTORE PUSH1 0x0 SWAP1 DUP2 MSTORE PUSH1 0x40 SWAP1 KECCAK256 DUP1 SLOAD DUP2 SWAP1 PUSH2 0x433 SWAP1 PUSH2 0x14AF JUMP JUMPDEST PUSH1 0x0 DUP1 PUSH2 0x851 PUSH1 0xF SLOAD ADDRESS PUSH4 0x18FADF62 PUSH1 0xE0 SHL PUSH2 0x8C1 JUMP JUMPDEST PUSH1 0x40 DUP1 MLOAD DUP1 DUP3 ADD SWAP1 SWAP2 MSTORE PUSH1 0x6 DUP2 MSTORE PUSH6 0x1C1C9BDB5C1D PUSH1 0xD2 SHL PUSH1 0x20 DUP3 ADD MSTORE SWAP1 SWAP2 POP PUSH2 0x87D SWAP1 DUP3 SWAP1 DUP6 PUSH2 0x8E6 JUMP JUMPDEST PUSH1 0x0 PUSH2 0x88B DUP3 PUSH1 0xE SLOAD PUSH2 0x909 JUMP JUMPDEST PUSH1 0x0 DUP2 DUP2 MSTORE PUSH1 0xA PUSH1 0x20 SWAP1 DUP2 MSTORE PUSH1 0x40 DUP1 DUP4 KECCAK256 DUP1 SLOAD PUSH1 0x1 PUSH1 0x1 PUSH1 0xA0 SHL SUB NOT AND CALLER SWAP1 DUP2 OR SWAP1 SWAP2 SSTORE DUP4 MSTORE PUSH1 0xB SWAP1 SWAP2 MSTORE SWAP1 KECCAK256 SSTORE POP SWAP1 SWAP3 SWAP2 POP POP JUMP JUMPDEST PUSH2 0x8C9 PUSH2 0xFEA JUMP JUMPDEST PUSH2 0x8D1 PUSH2 0xFEA JUMP JUMPDEST PUSH2 0x8DD DUP2 DUP7 DUP7 DUP7 PUSH2 0x92C JUMP JUMPDEST SWAP6 SWAP5 POP POP POP POP POP JUMP JUMPDEST PUSH1 0x80 DUP4 ADD MLOAD PUSH2 0x8F5 SWAP1 DUP4 PUSH2 0x969 JUMP JUMPDEST PUSH1 0x80 DUP4 ADD MLOAD PUSH2 0x904 SWAP1 DUP3 PUSH2 0x969 JUMP JUMPDEST POP POP POP JUMP JUMPDEST PUSH1 0x3 SLOAD PUSH1 0x0 SWAP1 PUSH2 0x923 SWAP1 PUSH1 0x1 PUSH1 0x1 PUSH1 0xA0 SHL SUB AND DUP5 DUP5 PUSH2 0x980 JUMP JUMPDEST SWAP1 POP JUMPDEST SWAP3 SWAP2 POP POP JUMP JUMPDEST PUSH2 0x934 PUSH2 0xFEA JUMP JUMPDEST PUSH2 0x944 DUP6 PUSH1 0x80 ADD MLOAD PUSH2 0x100 PUSH2 0x99F JUMP JUMPDEST POP POP SWAP2 DUP4 MSTORE PUSH1 0x1 PUSH1 0x1 PUSH1 0xA0 SHL SUB AND PUSH1 0x20 DUP4 ADD MSTORE PUSH1 0x1 PUSH1 0x1 PUSH1 0xE0 SHL SUB NOT AND PUSH1 0x40 DUP3 ADD MSTORE SWAP1 JUMP JUMPDEST PUSH2 0x976 DUP3 PUSH1 0x3 DUP4 MLOAD PUSH2 0xA04 JUMP JUMPDEST PUSH2 0x904 DUP3 DUP3 PUSH2 0xAD8 JUMP JUMPDEST PUSH1 0x0 PUSH2 0x997 DUP5 DUP5 DUP5 PUSH1 0x2 PUSH4 0x36F43CEB PUSH1 0xE1 SHL PUSH2 0xAFF JUMP JUMPDEST SWAP5 SWAP4 POP POP POP POP JUMP JUMPDEST PUSH1 0x40 DUP1 MLOAD DUP1 DUP3 ADD SWAP1 SWAP2 MSTORE PUSH1 0x60 DUP2 MSTORE PUSH1 0x0 PUSH1 0x20 DUP3 ADD MSTORE PUSH2 0x9BF PUSH1 0x20 DUP4 PUSH2 0x14E4 JUMP JUMPDEST ISZERO PUSH2 0x9E7 JUMPI PUSH2 0x9CF PUSH1 0x20 DUP4 PUSH2 0x14E4 JUMP JUMPDEST PUSH2 0x9DA SWAP1 PUSH1 0x20 PUSH2 0x1498 JUMP JUMPDEST PUSH2 0x9E4 SWAP1 DUP4 PUSH2 0x1376 JUMP JUMPDEST SWAP2 POP JUMPDEST POP PUSH1 0x20 DUP3 DUP2 ADD DUP3 SWAP1 MSTORE PUSH1 0x40 DUP1 MLOAD DUP1 DUP6 MSTORE PUSH1 0x0 DUP2 MSTORE SWAP1 SWAP3 ADD ADD SWAP1 MSTORE SWAP1 JUMP JUMPDEST PUSH1 0x17 DUP2 GT PUSH2 0xA25 JUMPI PUSH2 0xA1F DUP4 PUSH1 0xE0 PUSH1 0x5 DUP6 SWAP1 SHL AND DUP4 OR PUSH2 0xD0B JUMP JUMPDEST POP POP POP POP JUMP JUMPDEST PUSH1 0xFF DUP2 GT PUSH2 0xA4F JUMPI PUSH2 0xA42 DUP4 PUSH1 0x18 PUSH2 0x1FE0 PUSH1 0x5 DUP7 SWAP1 SHL AND OR PUSH2 0xD0B JUMP JUMPDEST POP PUSH2 0xA1F DUP4 DUP3 PUSH1 0x1 PUSH2 0xD30 JUMP JUMPDEST PUSH2 0xFFFF DUP2 GT PUSH2 0xA7A JUMPI PUSH2 0xA6D DUP4 PUSH1 0x19 PUSH2 0x1FE0 PUSH1 0x5 DUP7 SWAP1 SHL AND OR PUSH2 0xD0B JUMP JUMPDEST POP PUSH2 0xA1F DUP4 DUP3 PUSH1 0x2 PUSH2 0xD30 JUMP JUMPDEST PUSH4 0xFFFFFFFF DUP2 GT PUSH2 0xAA7 JUMPI PUSH2 0xA9A DUP4 PUSH1 0x1A PUSH2 0x1FE0 PUSH1 0x5 DUP7 SWAP1 SHL AND OR PUSH2 0xD0B JUMP JUMPDEST POP PUSH2 0xA1F DUP4 DUP3 PUSH1 0x4 PUSH2 0xD30 JUMP JUMPDEST PUSH8 0xFFFFFFFFFFFFFFFF DUP2 GT PUSH2 0x904 JUMPI PUSH2 0xACB DUP4 PUSH1 0x1B PUSH2 0x1FE0 PUSH1 0x5 DUP7 SWAP1 SHL AND OR PUSH2 0xD0B JUMP JUMPDEST POP PUSH2 0xA1F DUP4 DUP3 PUSH1 0x8 PUSH2 0xD30 JUMP JUMPDEST PUSH1 0x40 DUP1 MLOAD DUP1 DUP3 ADD SWAP1 SWAP2 MSTORE PUSH1 0x60 DUP2 MSTORE PUSH1 0x0 PUSH1 0x20 DUP3 ADD MSTORE PUSH2 0x923 DUP4 DUP5 PUSH1 0x0 ADD MLOAD MLOAD DUP5 DUP6 MLOAD PUSH2 0xD56 JUMP JUMPDEST PUSH1 0x4 SLOAD PUSH1 0x40 MLOAD PUSH12 0xFFFFFFFFFFFFFFFFFFFFFFFF NOT ADDRESS PUSH1 0x60 SHL AND PUSH1 0x20 DUP3 ADD MSTORE PUSH1 0x34 DUP2 ADD SWAP2 SWAP1 SWAP2 MSTORE PUSH1 0x0 SWAP1 PUSH1 0x54 ADD PUSH1 0x40 DUP1 MLOAD DUP1 DUP4 SUB PUSH1 0x1F NOT ADD DUP2 MSTORE SWAP2 DUP2 MSTORE DUP2 MLOAD PUSH1 0x20 SWAP3 DUP4 ADD KECCAK256 PUSH1 0x4 SLOAD PUSH1 0x60 DUP10 ADD MSTORE PUSH1 0x0 DUP2 DUP2 MSTORE PUSH1 0x5 SWAP1 SWAP4 MSTORE DUP2 DUP4 KECCAK256 DUP1 SLOAD PUSH1 0x1 PUSH1 0x1 PUSH1 0xA0 SHL SUB NOT AND PUSH1 0x1 PUSH1 0x1 PUSH1 0xA0 SHL SUB DUP12 AND OR SWAP1 SSTORE SWAP1 MLOAD SWAP1 SWAP3 POP DUP3 SWAP2 PUSH32 0xB5E6E01E79F91267DC17B4E6314D5D4D03593D2CEEE0FBB452B750BD70EA5AF9 SWAP2 LOG2 PUSH1 0x0 DUP3 PUSH1 0x0 DUP1 DUP9 PUSH1 0x0 ADD MLOAD DUP10 PUSH1 0x20 ADD MLOAD DUP11 PUSH1 0x40 ADD MLOAD DUP12 PUSH1 0x60 ADD MLOAD DUP11 DUP14 PUSH1 0x80 ADD MLOAD PUSH1 0x0 ADD MLOAD PUSH1 0x40 MLOAD PUSH1 0x24 ADD PUSH2 0xBD6 SWAP9 SWAP8 SWAP7 SWAP6 SWAP5 SWAP4 SWAP3 SWAP2 SWAP1 PUSH2 0x127C JUMP JUMPDEST PUSH1 0x40 DUP1 MLOAD PUSH1 0x1F NOT DUP2 DUP5 SUB ADD DUP2 MSTORE SWAP2 DUP2 MSTORE PUSH1 0x20 DUP3 ADD DUP1 MLOAD PUSH1 0x1 PUSH1 0x1 PUSH1 0xE0 SHL SUB AND PUSH1 0x1 PUSH1 0x1 PUSH1 0xE0 SHL SUB NOT SWAP1 SWAP5 AND SWAP4 SWAP1 SWAP4 OR SWAP1 SWAP3 MSTORE PUSH1 0x2 SLOAD SWAP2 MLOAD PUSH4 0x2000575 PUSH1 0xE5 SHL DUP2 MSTORE SWAP1 SWAP3 POP PUSH1 0x1 PUSH1 0x1 PUSH1 0xA0 SHL SUB SWAP1 SWAP2 AND SWAP1 PUSH4 0x4000AEA0 SWAP1 PUSH2 0xC3E SWAP1 DUP11 SWAP1 DUP10 SWAP1 DUP7 SWAP1 PUSH1 0x4 ADD PUSH2 0x12E4 JUMP JUMPDEST PUSH1 0x20 PUSH1 0x40 MLOAD DUP1 DUP4 SUB DUP2 PUSH1 0x0 DUP8 DUP1 EXTCODESIZE ISZERO DUP1 ISZERO PUSH2 0xC58 JUMPI PUSH1 0x0 DUP1 REVERT JUMPDEST POP GAS CALL ISZERO DUP1 ISZERO PUSH2 0xC6C JUMPI RETURNDATASIZE PUSH1 0x0 DUP1 RETURNDATACOPY RETURNDATASIZE PUSH1 0x0 REVERT JUMPDEST POP POP POP POP PUSH1 0x40 MLOAD RETURNDATASIZE PUSH1 0x1F NOT PUSH1 0x1F DUP3 ADD AND DUP3 ADD DUP1 PUSH1 0x40 MSTORE POP DUP2 ADD SWAP1 PUSH2 0xC90 SWAP2 SWAP1 PUSH2 0x1100 JUMP JUMPDEST PUSH2 0xCE8 JUMPI PUSH1 0x40 MLOAD PUSH3 0x461BCD PUSH1 0xE5 SHL DUP2 MSTORE PUSH1 0x20 PUSH1 0x4 DUP3 ADD MSTORE PUSH1 0x23 PUSH1 0x24 DUP3 ADD MSTORE PUSH32 0x756E61626C6520746F207472616E73666572416E6443616C6C20746F206F7261 PUSH1 0x44 DUP3 ADD MSTORE PUSH3 0x636C65 PUSH1 0xE8 SHL PUSH1 0x64 DUP3 ADD MSTORE PUSH1 0x84 ADD PUSH2 0x2B8 JUMP JUMPDEST PUSH1 0x1 PUSH1 0x4 PUSH1 0x0 DUP3 DUP3 SLOAD PUSH2 0xCFB SWAP2 SWAP1 PUSH2 0x1376 JUMP JUMPDEST SWAP1 SWAP2 SSTORE POP SWAP2 SWAP8 SWAP7 POP POP POP POP POP POP POP JUMP JUMPDEST PUSH1 0x40 DUP1 MLOAD DUP1 DUP3 ADD SWAP1 SWAP2 MSTORE PUSH1 0x60 DUP2 MSTORE PUSH1 0x0 PUSH1 0x20 DUP3 ADD MSTORE PUSH2 0x923 DUP4 DUP5 PUSH1 0x0 ADD MLOAD MLOAD DUP5 PUSH2 0xE5B JUMP JUMPDEST PUSH1 0x40 DUP1 MLOAD DUP1 DUP3 ADD SWAP1 SWAP2 MSTORE PUSH1 0x60 DUP2 MSTORE PUSH1 0x0 PUSH1 0x20 DUP3 ADD MSTORE PUSH2 0x997 DUP5 DUP6 PUSH1 0x0 ADD MLOAD MLOAD DUP6 DUP6 PUSH2 0xEB7 JUMP JUMPDEST PUSH1 0x40 DUP1 MLOAD DUP1 DUP3 ADD SWAP1 SWAP2 MSTORE PUSH1 0x60 DUP2 MSTORE PUSH1 0x0 PUSH1 0x20 DUP3 ADD MSTORE DUP3 MLOAD DUP3 GT ISZERO PUSH2 0xD79 JUMPI PUSH1 0x0 DUP1 REVERT JUMPDEST PUSH1 0x20 DUP6 ADD MLOAD PUSH2 0xD88 DUP4 DUP7 PUSH2 0x1376 JUMP JUMPDEST GT ISZERO PUSH2 0xDBB JUMPI PUSH2 0xDBB DUP6 PUSH2 0xDAB DUP8 PUSH1 0x20 ADD MLOAD DUP8 DUP7 PUSH2 0xDA6 SWAP2 SWAP1 PUSH2 0x1376 JUMP JUMPDEST PUSH2 0xF38 JUMP JUMPDEST PUSH2 0xDB6 SWAP1 PUSH1 0x2 PUSH2 0x1479 JUMP JUMPDEST PUSH2 0xF4F JUMP JUMPDEST PUSH1 0x0 DUP1 DUP7 MLOAD DUP1 MLOAD DUP8 PUSH1 0x20 DUP4 ADD ADD SWAP4 POP DUP1 DUP9 DUP8 ADD GT ISZERO PUSH2 0xDDA JUMPI DUP8 DUP7 ADD DUP3 MSTORE JUMPDEST POP POP POP PUSH1 0x20 DUP5 ADD JUMPDEST PUSH1 0x20 DUP5 LT PUSH2 0xE1A JUMPI DUP1 MLOAD DUP3 MSTORE PUSH2 0xDF9 PUSH1 0x20 DUP4 PUSH2 0x1376 JUMP JUMPDEST SWAP2 POP PUSH2 0xE06 PUSH1 0x20 DUP3 PUSH2 0x1376 JUMP JUMPDEST SWAP1 POP PUSH2 0xE13 PUSH1 0x20 DUP6 PUSH2 0x1498 JUMP JUMPDEST SWAP4 POP PUSH2 0xDE2 JUMP JUMPDEST PUSH1 0x0 PUSH1 0x1 PUSH2 0xE29 DUP7 PUSH1 0x20 PUSH2 0x1498 JUMP JUMPDEST PUSH2 0xE35 SWAP1 PUSH2 0x100 PUSH2 0x13D1 JUMP JUMPDEST PUSH2 0xE3F SWAP2 SWAP1 PUSH2 0x1498 JUMP JUMPDEST SWAP2 MLOAD DUP4 MLOAD DUP4 AND SWAP3 NOT AND SWAP2 SWAP1 SWAP2 OR SWAP1 SWAP2 MSTORE POP DUP5 SWAP1 POP SWAP5 SWAP4 POP POP POP POP JUMP JUMPDEST PUSH1 0x40 DUP1 MLOAD DUP1 DUP3 ADD SWAP1 SWAP2 MSTORE PUSH1 0x60 DUP2 MSTORE PUSH1 0x0 PUSH1 0x20 DUP3 ADD MSTORE DUP4 PUSH1 0x20 ADD MLOAD DUP4 LT PUSH2 0xE90 JUMPI PUSH2 0xE90 DUP5 DUP6 PUSH1 0x20 ADD MLOAD PUSH1 0x2 PUSH2 0xDB6 SWAP2 SWAP1 PUSH2 0x1479 JUMP JUMPDEST DUP4 MLOAD DUP1 MLOAD PUSH1 0x20 DUP6 DUP4 ADD ADD DUP5 DUP2 MSTORE8 POP DUP1 DUP6 EQ ISZERO PUSH2 0xEAD JUMPI PUSH1 0x1 DUP2 ADD DUP3 MSTORE JUMPDEST POP SWAP4 SWAP5 SWAP4 POP POP POP POP JUMP JUMPDEST PUSH1 0x40 DUP1 MLOAD DUP1 DUP3 ADD SWAP1 SWAP2 MSTORE PUSH1 0x60 DUP2 MSTORE PUSH1 0x0 PUSH1 0x20 DUP3 ADD MSTORE PUSH1 0x20 DUP6 ADD MLOAD PUSH2 0xEDB DUP6 DUP5 PUSH2 0x1376 JUMP JUMPDEST GT ISZERO PUSH2 0xEEF JUMPI PUSH2 0xEEF DUP6 PUSH2 0xDAB DUP7 DUP6 PUSH2 0x1376 JUMP JUMPDEST PUSH1 0x0 PUSH1 0x1 PUSH2 0xEFF DUP5 PUSH2 0x100 PUSH2 0x13D1 JUMP JUMPDEST PUSH2 0xF09 SWAP2 SWAP1 PUSH2 0x1498 JUMP JUMPDEST SWAP1 POP DUP6 MLOAD DUP4 DUP7 DUP3 ADD ADD DUP6 DUP4 NOT DUP3 MLOAD AND OR DUP2 MSTORE POP DUP1 MLOAD DUP5 DUP8 ADD GT ISZERO PUSH2 0xF2D JUMPI DUP4 DUP7 ADD DUP2 MSTORE JUMPDEST POP SWAP5 SWAP6 SWAP5 POP POP POP POP POP JUMP JUMPDEST PUSH1 0x0 DUP2 DUP4 GT ISZERO PUSH2 0xF49 JUMPI POP DUP2 PUSH2 0x926 JUMP JUMPDEST POP SWAP2 SWAP1 POP JUMP JUMPDEST DUP2 MLOAD PUSH2 0xF5B DUP4 DUP4 PUSH2 0x99F JUMP JUMPDEST POP PUSH2 0xA1F DUP4 DUP3 PUSH2 0xAD8 JUMP JUMPDEST DUP3 DUP1 SLOAD PUSH2 0xF72 SWAP1 PUSH2 0x14AF JUMP JUMPDEST SWAP1 PUSH1 0x0 MSTORE PUSH1 0x20 PUSH1 0x0 KECCAK256 SWAP1 PUSH1 0x1F ADD PUSH1 0x20 SWAP1 DIV DUP2 ADD SWAP3 DUP3 PUSH2 0xF94 JUMPI PUSH1 0x0 DUP6 SSTORE PUSH2 0xFDA JUMP JUMPDEST DUP3 PUSH1 0x1F LT PUSH2 0xFAD JUMPI DUP1 MLOAD PUSH1 0xFF NOT AND DUP4 DUP1 ADD OR DUP6 SSTORE PUSH2 0xFDA JUMP JUMPDEST DUP3 DUP1 ADD PUSH1 0x1 ADD DUP6 SSTORE DUP3 ISZERO PUSH2 0xFDA JUMPI SWAP2 DUP3 ADD JUMPDEST DUP3 DUP2 GT ISZERO PUSH2 0xFDA JUMPI DUP3 MLOAD DUP3 SSTORE SWAP2 PUSH1 0x20 ADD SWAP2 SWAP1 PUSH1 0x1 ADD SWAP1 PUSH2 0xFBF JUMP JUMPDEST POP PUSH2 0xFE6 SWAP3 SWAP2 POP PUSH2 0x1025 JUMP JUMPDEST POP SWAP1 JUMP JUMPDEST PUSH1 0x40 DUP1 MLOAD PUSH1 0xA0 DUP2 ADD DUP3 MSTORE PUSH1 0x0 DUP1 DUP3 MSTORE PUSH1 0x20 DUP1 DUP4 ADD DUP3 SWAP1 MSTORE DUP3 DUP5 ADD DUP3 SWAP1 MSTORE PUSH1 0x60 DUP1 DUP5 ADD DUP4 SWAP1 MSTORE DUP5 MLOAD DUP1 DUP7 ADD SWAP1 SWAP6 MSTORE DUP5 MSTORE DUP4 ADD MSTORE SWAP1 PUSH1 0x80 DUP3 ADD MSTORE SWAP1 JUMP JUMPDEST JUMPDEST DUP1 DUP3 GT ISZERO PUSH2 0xFE6 JUMPI PUSH1 0x0 DUP2 SSTORE PUSH1 0x1 ADD PUSH2 0x1026 JUMP JUMPDEST PUSH1 0x0 PUSH8 0xFFFFFFFFFFFFFFFF DUP1 DUP5 GT ISZERO PUSH2 0x1055 JUMPI PUSH2 0x1055 PUSH2 0x151C JUMP JUMPDEST PUSH1 0x40 MLOAD PUSH1 0x1F DUP6 ADD PUSH1 0x1F NOT SWAP1 DUP2 AND PUSH1 0x3F ADD AND DUP2 ADD SWAP1 DUP3 DUP3 GT DUP2 DUP4 LT OR ISZERO PUSH2 0x107D JUMPI PUSH2 0x107D PUSH2 0x151C JUMP JUMPDEST DUP2 PUSH1 0x40 MSTORE DUP1 SWAP4 POP DUP6 DUP2 MSTORE DUP7 DUP7 DUP7 ADD GT ISZERO PUSH2 0x1096 JUMPI PUSH1 0x0 DUP1 REVERT JUMPDEST DUP6 DUP6 PUSH1 0x20 DUP4 ADD CALLDATACOPY PUSH1 0x0 PUSH1 0x20 DUP8 DUP4 ADD ADD MSTORE POP POP POP SWAP4 SWAP3 POP POP POP JUMP JUMPDEST PUSH1 0x0 DUP3 PUSH1 0x1F DUP4 ADD SLT PUSH2 0x10C1 JUMPI PUSH1 0x0 DUP1 REVERT JUMPDEST PUSH2 0x923 DUP4 DUP4 CALLDATALOAD PUSH1 0x20 DUP6 ADD PUSH2 0x103A JUMP JUMPDEST PUSH1 0x0 PUSH1 0x20 DUP3 DUP5 SUB SLT ISZERO PUSH2 0x10E2 JUMPI PUSH1 0x0 DUP1 REVERT JUMPDEST DUP2 CALLDATALOAD PUSH1 0x1 PUSH1 0x1 PUSH1 0xA0 SHL SUB DUP2 AND DUP2 EQ PUSH2 0x10F9 JUMPI PUSH1 0x0 DUP1 REVERT JUMPDEST SWAP4 SWAP3 POP POP POP JUMP JUMPDEST PUSH1 0x0 PUSH1 0x20 DUP3 DUP5 SUB SLT ISZERO PUSH2 0x1112 JUMPI PUSH1 0x0 DUP1 REVERT JUMPDEST DUP2 MLOAD DUP1 ISZERO ISZERO DUP2 EQ PUSH2 0x10F9 JUMPI PUSH1 0x0 DUP1 REVERT JUMPDEST PUSH1 0x0 PUSH1 0x20 DUP3 DUP5 SUB SLT ISZERO PUSH2 0x1134 JUMPI PUSH1 0x0 DUP1 REVERT JUMPDEST POP CALLDATALOAD SWAP2 SWAP1 POP JUMP JUMPDEST PUSH1 0x0 DUP1 PUSH1 0x0 DUP1 PUSH1 0x80 DUP6 DUP8 SUB SLT ISZERO PUSH2 0x1151 JUMPI PUSH1 0x0 DUP1 REVERT JUMPDEST DUP5 CALLDATALOAD SWAP4 POP PUSH1 0x20 DUP6 ADD CALLDATALOAD PUSH8 0xFFFFFFFFFFFFFFFF DUP1 DUP3 GT ISZERO PUSH2 0x1170 JUMPI PUSH1 0x0 DUP1 REVERT JUMPDEST PUSH2 0x117C DUP9 DUP4 DUP10 ADD PUSH2 0x10B0 JUMP JUMPDEST SWAP5 POP PUSH1 0x40 DUP8 ADD CALLDATALOAD SWAP2 POP DUP1 DUP3 GT ISZERO PUSH2 0x1192 JUMPI PUSH1 0x0 DUP1 REVERT JUMPDEST PUSH2 0x119E DUP9 DUP4 DUP10 ADD PUSH2 0x10B0 JUMP JUMPDEST SWAP4 POP PUSH1 0x60 DUP8 ADD CALLDATALOAD SWAP2 POP DUP1 DUP3 GT ISZERO PUSH2 0x11B4 JUMPI PUSH1 0x0 DUP1 REVERT JUMPDEST POP PUSH2 0x11C1 DUP8 DUP3 DUP9 ADD PUSH2 0x10B0 JUMP JUMPDEST SWAP2 POP POP SWAP3 SWAP6 SWAP2 SWAP5 POP SWAP3 POP JUMP JUMPDEST PUSH1 0x0 PUSH1 0x20 DUP3 DUP5 SUB SLT ISZERO PUSH2 0x11DF JUMPI PUSH1 0x0 DUP1 REVERT JUMPDEST DUP2 CALLDATALOAD PUSH8 0xFFFFFFFFFFFFFFFF DUP2 GT ISZERO PUSH2 0x11F6 JUMPI PUSH1 0x0 DUP1 REVERT JUMPDEST DUP3 ADD PUSH1 0x1F DUP2 ADD DUP5 SGT PUSH2 0x1207 JUMPI PUSH1 0x0 DUP1 REVERT JUMPDEST PUSH2 0x997 DUP5 DUP3 CALLDATALOAD PUSH1 0x20 DUP5 ADD PUSH2 0x103A JUMP JUMPDEST PUSH1 0x0 PUSH1 0x20 DUP3 DUP5 SUB SLT ISZERO PUSH2 0x1228 JUMPI PUSH1 0x0 DUP1 REVERT JUMPDEST POP MLOAD SWAP2 SWAP1 POP JUMP JUMPDEST PUSH1 0x0 DUP2 MLOAD DUP1 DUP5 MSTORE PUSH1 0x0 JUMPDEST DUP2 DUP2 LT ISZERO PUSH2 0x1255 JUMPI PUSH1 0x20 DUP2 DUP6 ADD DUP2 ADD MLOAD DUP7 DUP4 ADD DUP3 ADD MSTORE ADD PUSH2 0x1239 JUMP JUMPDEST DUP2 DUP2 GT ISZERO PUSH2 0x1267 JUMPI PUSH1 0x0 PUSH1 0x20 DUP4 DUP8 ADD ADD MSTORE JUMPDEST POP PUSH1 0x1F ADD PUSH1 0x1F NOT AND SWAP3 SWAP1 SWAP3 ADD PUSH1 0x20 ADD SWAP3 SWAP2 POP POP JUMP JUMPDEST PUSH1 0x1 PUSH1 0x1 PUSH1 0xA0 SHL SUB DUP10 DUP2 AND DUP3 MSTORE PUSH1 0x20 DUP3 ADD DUP10 SWAP1 MSTORE PUSH1 0x40 DUP3 ADD DUP9 SWAP1 MSTORE DUP7 AND PUSH1 0x60 DUP3 ADD MSTORE PUSH1 0x1 PUSH1 0x1 PUSH1 0xE0 SHL SUB NOT DUP6 AND PUSH1 0x80 DUP3 ADD MSTORE PUSH1 0xA0 DUP2 ADD DUP5 SWAP1 MSTORE PUSH1 0xC0 DUP2 ADD DUP4 SWAP1 MSTORE PUSH2 0x100 PUSH1 0xE0 DUP3 ADD DUP2 SWAP1 MSTORE PUSH1 0x0 SWAP1 PUSH2 0x12D5 DUP4 DUP3 ADD DUP6 PUSH2 0x122F JUMP JUMPDEST SWAP12 SWAP11 POP POP POP POP POP POP POP POP POP POP POP JUMP JUMPDEST PUSH1 0x1 DUP1 PUSH1 0xA0 SHL SUB DUP5 AND DUP2 MSTORE DUP3 PUSH1 0x20 DUP3 ADD MSTORE PUSH1 0x60 PUSH1 0x40 DUP3 ADD MSTORE PUSH1 0x0 PUSH2 0x8DD PUSH1 0x60 DUP4 ADD DUP5 PUSH2 0x122F JUMP JUMPDEST PUSH1 0x20 DUP2 MSTORE PUSH1 0x0 PUSH2 0x923 PUSH1 0x20 DUP4 ADD DUP5 PUSH2 0x122F JUMP JUMPDEST PUSH1 0x80 DUP2 MSTORE PUSH1 0x0 PUSH2 0x1331 PUSH1 0x80 DUP4 ADD DUP8 PUSH2 0x122F JUMP JUMPDEST DUP3 DUP2 SUB PUSH1 0x20 DUP5 ADD MSTORE PUSH2 0x1343 DUP2 DUP8 PUSH2 0x122F JUMP JUMPDEST SWAP1 POP DUP3 DUP2 SUB PUSH1 0x40 DUP5 ADD MSTORE PUSH2 0x1357 DUP2 DUP7 PUSH2 0x122F JUMP JUMPDEST SWAP1 POP DUP3 DUP2 SUB PUSH1 0x60 DUP5 ADD MSTORE PUSH2 0x136B DUP2 DUP6 PUSH2 0x122F JUMP JUMPDEST SWAP8 SWAP7 POP POP POP POP POP POP POP JUMP JUMPDEST PUSH1 0x0 DUP3 NOT DUP3 GT ISZERO PUSH2 0x1389 JUMPI PUSH2 0x1389 PUSH2 0x1506 JUMP JUMPDEST POP ADD SWAP1 JUMP JUMPDEST PUSH1 0x1 DUP2 DUP2 JUMPDEST DUP1 DUP6 GT ISZERO PUSH2 0x13C9 JUMPI DUP2 PUSH1 0x0 NOT DIV DUP3 GT ISZERO PUSH2 0x13AF JUMPI PUSH2 0x13AF PUSH2 0x1506 JUMP JUMPDEST DUP1 DUP6 AND ISZERO PUSH2 0x13BC JUMPI SWAP2 DUP2 MUL SWAP2 JUMPDEST SWAP4 DUP5 SHR SWAP4 SWAP1 DUP1 MUL SWAP1 PUSH2 0x1393 JUMP JUMPDEST POP SWAP3 POP SWAP3 SWAP1 POP JUMP JUMPDEST PUSH1 0x0 PUSH2 0x923 DUP4 DUP4 PUSH1 0x0 DUP3 PUSH2 0x13E7 JUMPI POP PUSH1 0x1 PUSH2 0x926 JUMP JUMPDEST DUP2 PUSH2 0x13F4 JUMPI POP PUSH1 0x0 PUSH2 0x926 JUMP JUMPDEST DUP2 PUSH1 0x1 DUP2 EQ PUSH2 0x140A JUMPI PUSH1 0x2 DUP2 EQ PUSH2 0x1414 JUMPI PUSH2 0x1430 JUMP JUMPDEST PUSH1 0x1 SWAP2 POP POP PUSH2 0x926 JUMP JUMPDEST PUSH1 0xFF DUP5 GT ISZERO PUSH2 0x1425 JUMPI PUSH2 0x1425 PUSH2 0x1506 JUMP JUMPDEST POP POP PUSH1 0x1 DUP3 SHL PUSH2 0x926 JUMP JUMPDEST POP PUSH1 0x20 DUP4 LT PUSH2 0x133 DUP4 LT AND PUSH1 0x4E DUP5 LT PUSH1 0xB DUP5 LT AND OR ISZERO PUSH2 0x1453 JUMPI POP DUP2 DUP2 EXP PUSH2 0x926 JUMP JUMPDEST PUSH2 0x145D DUP4 DUP4 PUSH2 0x138E JUMP JUMPDEST DUP1 PUSH1 0x0 NOT DIV DUP3 GT ISZERO PUSH2 0x1471 JUMPI PUSH2 0x1471 PUSH2 0x1506 JUMP JUMPDEST MUL SWAP4 SWAP3 POP POP POP JUMP JUMPDEST PUSH1 0x0 DUP2 PUSH1 0x0 NOT DIV DUP4 GT DUP3 ISZERO ISZERO AND ISZERO PUSH2 0x1493 JUMPI PUSH2 0x1493 PUSH2 0x1506 JUMP JUMPDEST POP MUL SWAP1 JUMP JUMPDEST PUSH1 0x0 DUP3 DUP3 LT ISZERO PUSH2 0x14AA JUMPI PUSH2 0x14AA PUSH2 0x1506 JUMP JUMPDEST POP SUB SWAP1 JUMP JUMPDEST PUSH1 0x1 DUP2 DUP2 SHR SWAP1 DUP3 AND DUP1 PUSH2 0x14C3 JUMPI PUSH1 0x7F DUP3 AND SWAP2 POP JUMPDEST PUSH1 0x20 DUP3 LT DUP2 EQ ISZERO PUSH2 0xF49 JUMPI PUSH4 0x4E487B71 PUSH1 0xE0 SHL PUSH1 0x0 MSTORE PUSH1 0x22 PUSH1 0x4 MSTORE PUSH1 0x24 PUSH1 0x0 REVERT JUMPDEST PUSH1 0x0 DUP3 PUSH2 0x1501 JUMPI PUSH4 0x4E487B71 PUSH1 0xE0 SHL PUSH1 0x0 MSTORE PUSH1 0x12 PUSH1 0x4 MSTORE PUSH1 0x24 PUSH1 0x0 REVERT JUMPDEST POP MOD SWAP1 JUMP JUMPDEST PUSH4 0x4E487B71 PUSH1 0xE0 SHL PUSH1 0x0 MSTORE PUSH1 0x11 PUSH1 0x4 MSTORE PUSH1 0x24 PUSH1 0x0 REVERT JUMPDEST PUSH4 0x4E487B71 PUSH1 0xE0 SHL PUSH1 0x0 MSTORE PUSH1 0x41 PUSH1 0x4 MSTORE PUSH1 0x24 PUSH1 0x0 REVERT INVALID LOG2 PUSH5 0x6970667358 0x22 SLT KECCAK256 SWAP5 0xEE 0xC9 SWAP8 DUP14 SSTORE DUP14 0x5F PUSH5 0x6E53AA052B SWAP10 OR DUP5 0xCF 0xCA 0x2F 0xE6 DUP14 0x25 PUSH24 0xC5CB16B9BBA6278C64736F6C634300080700330000000000 ","sha1":"bb4a7019d9042d4374001b633971e2c6314b0839","source":"//SPDX-License-Identifier: MIT\npragma solidity ^0.8.0;\n\nimport \"@chainlink/contracts/src/v0.8/ChainlinkClient.sol\";\nimport \"../interfaces/IERC20.sol\";\n\ncontract Consumer is ChainlinkClient {\n  using Chainlink for Chainlink.Request;\n\n  string public weapons;\n  string public attire;\n  string public accessories;\n  uint public fee = 1000;\n  mapping  (bytes32 => address) public idToUser;\n  mapping (address => bytes32) public userToId;\n  mapping  (bytes32 => ItemSet) public idToItemSet;\n  mapping (address => ItemSet) public userToItems;\n  uint256 payment = 100000000000000;\n  bytes32 specId = \"b61b4d719ab04199882c6a8ac3c51861\";\n\n  struct ItemSet {\n    string theme;\n    string weapons;\n    string armor;\n    string accessories;\n  }\n\n  constructor(\n  ) {\n    setChainlinkToken(0xa36085F69e2889c224210F603D836748e7dC0088);\n    setChainlinkOracle(0x45Fd8dF7E9348b14AfC145599F719DbE27977Fd9);\n    \n  }\n\n  function requestBytes(string memory _prompt\n  )\n    public\n    returns (bytes32)\n  {\n    // require(msg.value >= fee, \"Include fee in transaction\");\n    // require(IERC20(0xa36085F69e2889c224210F603D836748e7dC0088).balanceOf(address(this)) >= payment, \"Not enough link\");\n    Chainlink.Request memory req = buildChainlinkRequest(specId, address(this), this.fulfill.selector);\n    req.add(\"prompt\", _prompt);\n\n    // bytes32 reqId = sendChainlinkRequestTo(0x45Fd8dF7E9348b14AfC145599F719DbE27977Fd9, req, payment);\n    // idToUser[reqId] = msg.sender;\n    bytes32 id = requestOracleData(req, payment);\n    idToUser[id] = msg.sender;\n    userToId[msg.sender] = id;\n \n  }\n\n\n\n  event doSomethingPLEASE(bytes32 Id);\n\n  \n  function fulfill(\n    bytes32 requestId,\n    bytes memory _weapons,\n    bytes memory _attire,\n    bytes memory _accessories\n  )\n    public\n    recordChainlinkFulfillment(requestId)\n  {\n    emit doSomethingPLEASE(requestId);\n    // weapons = string(_weapons);\n    // attire = string(_attire);\n    // accessories = string(_accessories);\n    ItemSet memory items;\n    items.theme = \"\";\n    items.weapons = string(_weapons);\n    items.armor = string(_attire);\n    items.accessories = string(_accessories);\n    address requester = idToUser[requestId];\n    userToItems[requester] = items;\n    // emit doSomethingPLEASE(requestId);\n    // emit doSomethingPLEASE(requestId);\n\n  }\n \n  \n  function withdrawLink() public {\n    uint256 bal = IERC20(0xa36085F69e2889c224210F603D836748e7dC0088).balanceOf(address(this));\n    IERC20(0xa36085F69e2889c224210F603D836748e7dC0088).transfer(msg.sender, bal);\n  }\n  \n  receive() external payable {}\n\n}\n","sourcePath":"contracts/Consumer.sol","deployment":{"address":"0xc0055849ae9997D37D7F8b80d08828f69a1bf527","chainid":"42","blockHeight":27486104}}