{"bytecode":"608060405260016004556103e8600955655af3107a4000600d557f6236316234643731396162303431393938383263366138616333633531383631600e5534801561004957600080fd5b50600280546001600160a01b03191673a36085f69e2889c224210f603d836748e7dc0088179055600380546001600160a01b0319167345fd8df7e9348b14afc145599f719dbe27977fd9179055611604806100a56000396000f3fe6080604052600436106100955760003560e01c8063aacbd09e11610059578063aacbd09e14610148578063b7e1cd8614610196578063caedd314146101ab578063ddca3f43146101cb578063f5094c9d146101ef57600080fd5b806318fadf62146100a1578063510a4972146100c357806360f6998b146100fc5780638dc654a21461011e578063a9aa55841461013357600080fd5b3661009c57005b600080fd5b3480156100ad57600080fd5b506100c16100bc3660046111b7565b61020f565b005b3480156100cf57600080fd5b506100e36100de36600461119e565b6104c5565b6040516100f3949392919061139a565b60405180910390f35b34801561010857600080fd5b5061011161070d565b6040516100f39190611387565b34801561012a57600080fd5b506100c161079b565b34801561013f57600080fd5b506101116108b2565b34801561015457600080fd5b5061017e61016336600461119e565b600a602052600090815260409020546001600160a01b031681565b6040516001600160a01b0390911681526020016100f3565b3480156101a257600080fd5b506101116108bf565b3480156101b757600080fd5b506100e36101c636600461114c565b6108cc565b3480156101d757600080fd5b506101e160095481565b6040519081526020016100f3565b3480156101fb57600080fd5b506101e161020a366004611249565b6108e7565b60008481526005602052604090205484906001600160a01b0316331461028d5760405162461bcd60e51b815260206004820152602860248201527f536f75726365206d75737420626520746865206f7261636c65206f6620746865604482015267081c995c5d595cdd60c21b60648201526084015b60405180910390fd5b60008181526005602052604080822080546001600160a01b03191690555182917f7cc135e0cebb02c3480ae5d74d377283180a2601f8f644edf7987b009316c63a91a260405185907f7cc135e0cebb02c3480ae5d74d377283180a2601f8f644edf7987b009316c63a90600090a26040518581526000805160206115af8339815191529060200160405180910390a1835161032f906006906020870190610fe2565b508251610343906007906020860190610fe2565b508151610357906008906020850190610fe2565b506040518581526000805160206115af8339815191529060200160405180910390a16103a46040518060800160405280606081526020016060815260200160608152602001606081525090565b60408051602081018252600081528252516000805160206115af833981519152906103d29088815260200190565b60405180910390a160208082018690526040808301869052606083018590526000888152600a8352818120546001600160a01b0316808252600c845291902083518051929385936104269284920190610fe2565b50602082810151805161043f9260018501920190610fe2565b506040820151805161045b916002840191602090910190610fe2565b5060608201518051610477916003840191602090910190610fe2565b50506040518881526000805160206115af833981519152915060200160405180910390a16040518781526000805160206115af8339815191529060200160405180910390a150505050505050565b600b602052600090815260409020805481906104e09061152b565b80601f016020809104026020016040519081016040528092919081815260200182805461050c9061152b565b80156105595780601f1061052e57610100808354040283529160200191610559565b820191906000526020600020905b81548152906001019060200180831161053c57829003601f168201915b50505050509080600101805461056e9061152b565b80601f016020809104026020016040519081016040528092919081815260200182805461059a9061152b565b80156105e75780601f106105bc576101008083540402835291602001916105e7565b820191906000526020600020905b8154815290600101906020018083116105ca57829003601f168201915b5050505050908060020180546105fc9061152b565b80601f01602080910402602001604051908101604052809291908181526020018280546106289061152b565b80156106755780601f1061064a57610100808354040283529160200191610675565b820191906000526020600020905b81548152906001019060200180831161065857829003601f168201915b50505050509080600301805461068a9061152b565b80601f01602080910402602001604051908101604052809291908181526020018280546106b69061152b565b80156107035780601f106106d857610100808354040283529160200191610703565b820191906000526020600020905b8154815290600101906020018083116106e657829003601f168201915b5050505050905084565b6007805461071a9061152b565b80601f01602080910402602001604051908101604052809291908181526020018280546107469061152b565b80156107935780601f1061076857610100808354040283529160200191610793565b820191906000526020600020905b81548152906001019060200180831161077657829003601f168201915b505050505081565b6040516370a0823160e01b815230600482015260009073a36085f69e2889c224210f603d836748e7dc0088906370a082319060240160206040518083038186803b1580156107e857600080fd5b505afa1580156107fc573d6000803e3d6000fd5b505050506040513d601f19601f820116820180604052508101906108209190611292565b60405163a9059cbb60e01b81523360048201526024810182905290915073a36085f69e2889c224210f603d836748e7dc00889063a9059cbb90604401602060405180830381600087803b15801561087657600080fd5b505af115801561088a573d6000803e3d6000fd5b505050506040513d601f19601f820116820180604052508101906108ae919061117c565b5050565b6008805461071a9061152b565b6006805461071a9061152b565b600c602052600090815260409020805481906104e09061152b565b6000806108fe600e54306318fadf6260e01b61093d565b6040805180820190915260068152651c1c9bdb5c1d60d21b602082015290915061092a90829085610962565b61093681600d54610985565b5050919050565b610945611066565b61094d611066565b610959818686866109a8565b95945050505050565b608083015161097190836109e5565b608083015161098090826109e5565b505050565b60035460009061099f906001600160a01b031684846109fc565b90505b92915050565b6109b0611066565b6109c08560800151610100610a1b565b50509183526001600160a01b031660208301526001600160e01b031916604082015290565b6109f28260038351610a80565b6109808282610b54565b6000610a1384848460026336f43ceb60e11b610b7b565b949350505050565b604080518082019091526060815260006020820152610a3b602083611560565b15610a6357610a4b602083611560565b610a56906020611514565b610a6090836113f2565b91505b506020828101829052604080518085526000815290920101905290565b60178111610aa157610a9b8360e0600585901b168317610d87565b50505050565b60ff8111610acb57610abe836018611fe0600586901b1617610d87565b50610a9b83826001610dac565b61ffff8111610af657610ae9836019611fe0600586901b1617610d87565b50610a9b83826002610dac565b63ffffffff8111610b2357610b1683601a611fe0600586901b1617610d87565b50610a9b83826004610dac565b67ffffffffffffffff811161098057610b4783601b611fe0600586901b1617610d87565b50610a9b83826008610dac565b60408051808201909152606081526000602082015261099f83846000015151848551610dd2565b6004546040516bffffffffffffffffffffffff193060601b166020820152603481019190915260009060540160408051808303601f19018152918152815160209283012060045460608901526000818152600590935281832080546001600160a01b0319166001600160a01b038b16179055905190925082917fb5e6e01e79f91267dc17b4e6314d5d4d03593d2ceee0fbb452b750bd70ea5af991a2600082600080886000015189602001518a604001518b606001518a8d6080015160000151604051602401610c529897969594939291906112f8565b60408051601f198184030181529181526020820180516001600160e01b03166001600160e01b0319909416939093179092526002549151630200057560e51b81529092506001600160a01b0390911690634000aea090610cba908a9089908690600401611360565b602060405180830381600087803b158015610cd457600080fd5b505af1158015610ce8573d6000803e3d6000fd5b505050506040513d601f19601f82011682018060405250810190610d0c919061117c565b610d645760405162461bcd60e51b815260206004820152602360248201527f756e61626c6520746f207472616e73666572416e6443616c6c20746f206f7261604482015262636c6560e81b6064820152608401610284565b600160046000828254610d7791906113f2565b9091555091979650505050505050565b60408051808201909152606081526000602082015261099f8384600001515184610ed7565b604080518082019091526060815260006020820152610a13848560000151518585610f33565b6040805180820190915260608152600060208201528251821115610df557600080fd5b6020850151610e0483866113f2565b1115610e3757610e3785610e2787602001518786610e2291906113f2565b610fb4565b610e329060026114f5565b610fcb565b600080865180518760208301019350808887011115610e565787860182525b505050602084015b60208410610e965780518252610e756020836113f2565b9150610e826020826113f2565b9050610e8f602085611514565b9350610e5e565b60006001610ea5866020611514565b610eb19061010061144d565b610ebb9190611514565b9151835183169219169190911790915250849050949350505050565b60408051808201909152606081526000602082015283602001518310610f0c57610f0c8485602001516002610e3291906114f5565b835180516020858301018481535080851415610f29576001810182525b5093949350505050565b6040805180820190915260608152600060208201526020850151610f5785846113f2565b1115610f6b57610f6b85610e2786856113f2565b60006001610f7b8461010061144d565b610f859190611514565b9050855183868201018583198251161781525080518487011115610fa95783860181525b509495945050505050565b600081831115610fc55750816109a2565b50919050565b8151610fd78383610a1b565b50610a9b8382610b54565b828054610fee9061152b565b90600052602060002090601f0160209004810192826110105760008555611056565b82601f1061102957805160ff1916838001178555611056565b82800160010185558215611056579182015b8281111561105657825182559160200191906001019061103b565b506110629291506110a1565b5090565b6040805160a0810182526000808252602080830182905282840182905260608084018390528451808601909552845283015290608082015290565b5b8082111561106257600081556001016110a2565b600067ffffffffffffffff808411156110d1576110d1611598565b604051601f8501601f19908116603f011681019082821181831017156110f9576110f9611598565b8160405280935085815286868601111561111257600080fd5b858560208301376000602087830101525050509392505050565b600082601f83011261113d57600080fd5b61099f838335602085016110b6565b60006020828403121561115e57600080fd5b81356001600160a01b038116811461117557600080fd5b9392505050565b60006020828403121561118e57600080fd5b8151801515811461117557600080fd5b6000602082840312156111b057600080fd5b5035919050565b600080600080608085870312156111cd57600080fd5b84359350602085013567ffffffffffffffff808211156111ec57600080fd5b6111f88883890161112c565b9450604087013591508082111561120e57600080fd5b61121a8883890161112c565b9350606087013591508082111561123057600080fd5b5061123d8782880161112c565b91505092959194509250565b60006020828403121561125b57600080fd5b813567ffffffffffffffff81111561127257600080fd5b8201601f8101841361128357600080fd5b610a13848235602084016110b6565b6000602082840312156112a457600080fd5b5051919050565b6000815180845260005b818110156112d1576020818501810151868301820152016112b5565b818111156112e3576000602083870101525b50601f01601f19169290920160200192915050565b6001600160a01b0389811682526020820189905260408201889052861660608201526001600160e01b03198516608082015260a0810184905260c0810183905261010060e08201819052600090611351838201856112ab565b9b9a5050505050505050505050565b60018060a01b038416815282602082015260606040820152600061095960608301846112ab565b60208152600061099f60208301846112ab565b6080815260006113ad60808301876112ab565b82810360208401526113bf81876112ab565b905082810360408401526113d381866112ab565b905082810360608401526113e781856112ab565b979650505050505050565b6000821982111561140557611405611582565b500190565b600181815b8085111561144557816000190482111561142b5761142b611582565b8085161561143857918102915b93841c939080029061140f565b509250929050565b600061099f8383600082611463575060016109a2565b81611470575060006109a2565b81600181146114865760028114611490576114ac565b60019150506109a2565b60ff8411156114a1576114a1611582565b50506001821b6109a2565b5060208310610133831016604e8410600b84101617156114cf575081810a6109a2565b6114d9838361140a565b80600019048211156114ed576114ed611582565b029392505050565b600081600019048311821515161561150f5761150f611582565b500290565b60008282101561152657611526611582565b500390565b600181811c9082168061153f57607f821691505b60208210811415610fc557634e487b7160e01b600052602260045260246000fd5b60008261157d57634e487b7160e01b600052601260045260246000fd5b500690565b634e487b7160e01b600052601160045260246000fd5b634e487b7160e01b600052604160045260246000fdfe54836a2905a4c5bcfba367bf7fb2aa840da1503609eb6120754142dc098a16b3a264697066735822122050ad214cb032f670cf23307a1a12f943991e749dcfab677d3d0def0c8487780164736f6c63430008070033","bytecodeSha1":"b57669d1b7a9e0dea1feae05e5701e03050272aa","type":"contract","abi":[{"inputs":[],"stateMutability":"nonpayable","type":"constructor","name":"constructor"},{"anonymous":false,"inputs":[{"indexed":true,"internalType":"bytes32","name":"id","type":"bytes32"}],"name":"ChainlinkCancelled","type":"event"},{"anonymous":false,"inputs":[{"indexed":true,"internalType":"bytes32","name":"id","type":"bytes32"}],"name":"ChainlinkFulfilled","type":"event"},{"anonymous":false,"inputs":[{"indexed":true,"internalType":"bytes32","name":"id","type":"bytes32"}],"name":"ChainlinkRequested","type":"event"},{"anonymous":false,"inputs":[{"indexed":false,"internalType":"bytes32","name":"Id","type":"bytes32"}],"name":"doSomethingPLEASE","type":"event"},{"inputs":[],"name":"accessories","outputs":[{"internalType":"string","name":"","type":"string"}],"stateMutability":"view","type":"function"},{"inputs":[],"name":"attire","outputs":[{"internalType":"string","name":"","type":"string"}],"stateMutability":"view","type":"function"},{"inputs":[],"name":"fee","outputs":[{"internalType":"uint256","name":"","type":"uint256"}],"stateMutability":"view","type":"function"},{"inputs":[{"internalType":"bytes32","name":"requestId","type":"bytes32"},{"internalType":"bytes","name":"_weapons","type":"bytes"},{"internalType":"bytes","name":"_attire","type":"bytes"},{"internalType":"bytes","name":"_accessories","type":"bytes"}],"name":"fulfill","outputs":[],"stateMutability":"nonpayable","type":"function"},{"inputs":[{"internalType":"bytes32","name":"","type":"bytes32"}],"name":"idToItemSet","outputs":[{"internalType":"string","name":"theme","type":"string"},{"internalType":"string","name":"weapons","type":"string"},{"internalType":"string","name":"armor","type":"string"},{"internalType":"string","name":"accessories","type":"string"}],"stateMutability":"view","type":"function"},{"inputs":[{"internalType":"bytes32","name":"","type":"bytes32"}],"name":"idToUser","outputs":[{"internalType":"address","name":"","type":"address"}],"stateMutability":"view","type":"function"},{"inputs":[{"internalType":"string","name":"_prompt","type":"string"}],"name":"requestBytes","outputs":[{"internalType":"bytes32","name":"","type":"bytes32"}],"stateMutability":"nonpayable","type":"function"},{"inputs":[{"internalType":"address","name":"","type":"address"}],"name":"userToItems","outputs":[{"internalType":"string","name":"theme","type":"string"},{"internalType":"string","name":"weapons","type":"string"},{"internalType":"string","name":"armor","type":"string"},{"internalType":"string","name":"accessories","type":"string"}],"stateMutability":"view","type":"function"},{"inputs":[],"name":"weapons","outputs":[{"internalType":"string","name":"","type":"string"}],"stateMutability":"view","type":"function"},{"inputs":[],"name":"withdrawLink","outputs":[],"stateMutability":"nonpayable","type":"function"},{"stateMutability":"payable","type":"receive"}],"compiler":{"version":"0.8.7+commit.e28d00a7","evm_version":"istanbul","optimizer":{"enabled":true,"runs":200}},"contractName":"Consumer","language":"Solidity","natspec":{"methods":{},"kind":"dev","version":1},"opcodes":"PUSH1 0x80 PUSH1 0x40 MSTORE PUSH1 0x4 CALLDATASIZE LT PUSH2 0x95 JUMPI PUSH1 0x0 CALLDATALOAD PUSH1 0xE0 SHR DUP1 PUSH4 0xAACBD09E GT PUSH2 0x59 JUMPI DUP1 PUSH4 0xAACBD09E EQ PUSH2 0x148 JUMPI DUP1 PUSH4 0xB7E1CD86 EQ PUSH2 0x196 JUMPI DUP1 PUSH4 0xCAEDD314 EQ PUSH2 0x1AB JUMPI DUP1 PUSH4 0xDDCA3F43 EQ PUSH2 0x1CB JUMPI DUP1 PUSH4 0xF5094C9D EQ PUSH2 0x1EF JUMPI PUSH1 0x0 DUP1 REVERT JUMPDEST DUP1 PUSH4 0x18FADF62 EQ PUSH2 0xA1 JUMPI DUP1 PUSH4 0x510A4972 EQ PUSH2 0xC3 JUMPI DUP1 PUSH4 0x60F6998B EQ PUSH2 0xFC JUMPI DUP1 PUSH4 0x8DC654A2 EQ PUSH2 0x11E JUMPI DUP1 PUSH4 0xA9AA5584 EQ PUSH2 0x133 JUMPI PUSH1 0x0 DUP1 REVERT JUMPDEST CALLDATASIZE PUSH2 0x9C JUMPI STOP JUMPDEST PUSH1 0x0 DUP1 REVERT JUMPDEST CALLVALUE DUP1 ISZERO PUSH2 0xAD JUMPI PUSH1 0x0 DUP1 REVERT JUMPDEST POP PUSH2 0xC1 PUSH2 0xBC CALLDATASIZE PUSH1 0x4 PUSH2 0x11B7 JUMP JUMPDEST PUSH2 0x20F JUMP JUMPDEST STOP JUMPDEST CALLVALUE DUP1 ISZERO PUSH2 0xCF JUMPI PUSH1 0x0 DUP1 REVERT JUMPDEST POP PUSH2 0xE3 PUSH2 0xDE CALLDATASIZE PUSH1 0x4 PUSH2 0x119E JUMP JUMPDEST PUSH2 0x4C5 JUMP JUMPDEST PUSH1 0x40 MLOAD PUSH2 0xF3 SWAP5 SWAP4 SWAP3 SWAP2 SWAP1 PUSH2 0x139A JUMP JUMPDEST PUSH1 0x40 MLOAD DUP1 SWAP2 SUB SWAP1 RETURN JUMPDEST CALLVALUE DUP1 ISZERO PUSH2 0x108 JUMPI PUSH1 0x0 DUP1 REVERT JUMPDEST POP PUSH2 0x111 PUSH2 0x70D JUMP JUMPDEST PUSH1 0x40 MLOAD PUSH2 0xF3 SWAP2 SWAP1 PUSH2 0x1387 JUMP JUMPDEST CALLVALUE DUP1 ISZERO PUSH2 0x12A JUMPI PUSH1 0x0 DUP1 REVERT JUMPDEST POP PUSH2 0xC1 PUSH2 0x79B JUMP JUMPDEST CALLVALUE DUP1 ISZERO PUSH2 0x13F JUMPI PUSH1 0x0 DUP1 REVERT JUMPDEST POP PUSH2 0x111 PUSH2 0x8B2 JUMP JUMPDEST CALLVALUE DUP1 ISZERO PUSH2 0x154 JUMPI PUSH1 0x0 DUP1 REVERT JUMPDEST POP PUSH2 0x17E PUSH2 0x163 CALLDATASIZE PUSH1 0x4 PUSH2 0x119E JUMP JUMPDEST PUSH1 0xA PUSH1 0x20 MSTORE PUSH1 0x0 SWAP1 DUP2 MSTORE PUSH1 0x40 SWAP1 KECCAK256 SLOAD PUSH1 0x1 PUSH1 0x1 PUSH1 0xA0 SHL SUB AND DUP2 JUMP JUMPDEST PUSH1 0x40 MLOAD PUSH1 0x1 PUSH1 0x1 PUSH1 0xA0 SHL SUB SWAP1 SWAP2 AND DUP2 MSTORE PUSH1 0x20 ADD PUSH2 0xF3 JUMP JUMPDEST CALLVALUE DUP1 ISZERO PUSH2 0x1A2 JUMPI PUSH1 0x0 DUP1 REVERT JUMPDEST POP PUSH2 0x111 PUSH2 0x8BF JUMP JUMPDEST CALLVALUE DUP1 ISZERO PUSH2 0x1B7 JUMPI PUSH1 0x0 DUP1 REVERT JUMPDEST POP PUSH2 0xE3 PUSH2 0x1C6 CALLDATASIZE PUSH1 0x4 PUSH2 0x114C JUMP JUMPDEST PUSH2 0x8CC JUMP JUMPDEST CALLVALUE DUP1 ISZERO PUSH2 0x1D7 JUMPI PUSH1 0x0 DUP1 REVERT JUMPDEST POP PUSH2 0x1E1 PUSH1 0x9 SLOAD DUP2 JUMP JUMPDEST PUSH1 0x40 MLOAD SWAP1 DUP2 MSTORE PUSH1 0x20 ADD PUSH2 0xF3 JUMP JUMPDEST CALLVALUE DUP1 ISZERO PUSH2 0x1FB JUMPI PUSH1 0x0 DUP1 REVERT JUMPDEST POP PUSH2 0x1E1 PUSH2 0x20A CALLDATASIZE PUSH1 0x4 PUSH2 0x1249 JUMP JUMPDEST PUSH2 0x8E7 JUMP JUMPDEST PUSH1 0x0 DUP5 DUP2 MSTORE PUSH1 0x5 PUSH1 0x20 MSTORE PUSH1 0x40 SWAP1 KECCAK256 SLOAD DUP5 SWAP1 PUSH1 0x1 PUSH1 0x1 PUSH1 0xA0 SHL SUB AND CALLER EQ PUSH2 0x28D JUMPI PUSH1 0x40 MLOAD PUSH3 0x461BCD PUSH1 0xE5 SHL DUP2 MSTORE PUSH1 0x20 PUSH1 0x4 DUP3 ADD MSTORE PUSH1 0x28 PUSH1 0x24 DUP3 ADD MSTORE PUSH32 0x536F75726365206D75737420626520746865206F7261636C65206F6620746865 PUSH1 0x44 DUP3 ADD MSTORE PUSH8 0x81C995C5D595CDD PUSH1 0xC2 SHL PUSH1 0x64 DUP3 ADD MSTORE PUSH1 0x84 ADD JUMPDEST PUSH1 0x40 MLOAD DUP1 SWAP2 SUB SWAP1 REVERT JUMPDEST PUSH1 0x0 DUP2 DUP2 MSTORE PUSH1 0x5 PUSH1 0x20 MSTORE PUSH1 0x40 DUP1 DUP3 KECCAK256 DUP1 SLOAD PUSH1 0x1 PUSH1 0x1 PUSH1 0xA0 SHL SUB NOT AND SWAP1 SSTORE MLOAD DUP3 SWAP2 PUSH32 0x7CC135E0CEBB02C3480AE5D74D377283180A2601F8F644EDF7987B009316C63A SWAP2 LOG2 PUSH1 0x40 MLOAD DUP6 SWAP1 PUSH32 0x7CC135E0CEBB02C3480AE5D74D377283180A2601F8F644EDF7987B009316C63A SWAP1 PUSH1 0x0 SWAP1 LOG2 PUSH1 0x40 MLOAD DUP6 DUP2 MSTORE PUSH1 0x0 DUP1 MLOAD PUSH1 0x20 PUSH2 0x15AF DUP4 CODECOPY DUP2 MLOAD SWAP2 MSTORE SWAP1 PUSH1 0x20 ADD PUSH1 0x40 MLOAD DUP1 SWAP2 SUB SWAP1 LOG1 DUP4 MLOAD PUSH2 0x32F SWAP1 PUSH1 0x6 SWAP1 PUSH1 0x20 DUP8 ADD SWAP1 PUSH2 0xFE2 JUMP JUMPDEST POP DUP3 MLOAD PUSH2 0x343 SWAP1 PUSH1 0x7 SWAP1 PUSH1 0x20 DUP7 ADD SWAP1 PUSH2 0xFE2 JUMP JUMPDEST POP DUP2 MLOAD PUSH2 0x357 SWAP1 PUSH1 0x8 SWAP1 PUSH1 0x20 DUP6 ADD SWAP1 PUSH2 0xFE2 JUMP JUMPDEST POP PUSH1 0x40 MLOAD DUP6 DUP2 MSTORE PUSH1 0x0 DUP1 MLOAD PUSH1 0x20 PUSH2 0x15AF DUP4 CODECOPY DUP2 MLOAD SWAP2 MSTORE SWAP1 PUSH1 0x20 ADD PUSH1 0x40 MLOAD DUP1 SWAP2 SUB SWAP1 LOG1 PUSH2 0x3A4 PUSH1 0x40 MLOAD DUP1 PUSH1 0x80 ADD PUSH1 0x40 MSTORE DUP1 PUSH1 0x60 DUP2 MSTORE PUSH1 0x20 ADD PUSH1 0x60 DUP2 MSTORE PUSH1 0x20 ADD PUSH1 0x60 DUP2 MSTORE PUSH1 0x20 ADD PUSH1 0x60 DUP2 MSTORE POP SWAP1 JUMP JUMPDEST PUSH1 0x40 DUP1 MLOAD PUSH1 0x20 DUP2 ADD DUP3 MSTORE PUSH1 0x0 DUP2 MSTORE DUP3 MSTORE MLOAD PUSH1 0x0 DUP1 MLOAD PUSH1 0x20 PUSH2 0x15AF DUP4 CODECOPY DUP2 MLOAD SWAP2 MSTORE SWAP1 PUSH2 0x3D2 SWAP1 DUP9 DUP2 MSTORE PUSH1 0x20 ADD SWAP1 JUMP JUMPDEST PUSH1 0x40 MLOAD DUP1 SWAP2 SUB SWAP1 LOG1 PUSH1 0x20 DUP1 DUP3 ADD DUP7 SWAP1 MSTORE PUSH1 0x40 DUP1 DUP4 ADD DUP7 SWAP1 MSTORE PUSH1 0x60 DUP4 ADD DUP6 SWAP1 MSTORE PUSH1 0x0 DUP9 DUP2 MSTORE PUSH1 0xA DUP4 MSTORE DUP2 DUP2 KECCAK256 SLOAD PUSH1 0x1 PUSH1 0x1 PUSH1 0xA0 SHL SUB AND DUP1 DUP3 MSTORE PUSH1 0xC DUP5 MSTORE SWAP2 SWAP1 KECCAK256 DUP4 MLOAD DUP1 MLOAD SWAP3 SWAP4 DUP6 SWAP4 PUSH2 0x426 SWAP3 DUP5 SWAP3 ADD SWAP1 PUSH2 0xFE2 JUMP JUMPDEST POP PUSH1 0x20 DUP3 DUP2 ADD MLOAD DUP1 MLOAD PUSH2 0x43F SWAP3 PUSH1 0x1 DUP6 ADD SWAP3 ADD SWAP1 PUSH2 0xFE2 JUMP JUMPDEST POP PUSH1 0x40 DUP3 ADD MLOAD DUP1 MLOAD PUSH2 0x45B SWAP2 PUSH1 0x2 DUP5 ADD SWAP2 PUSH1 0x20 SWAP1 SWAP2 ADD SWAP1 PUSH2 0xFE2 JUMP JUMPDEST POP PUSH1 0x60 DUP3 ADD MLOAD DUP1 MLOAD PUSH2 0x477 SWAP2 PUSH1 0x3 DUP5 ADD SWAP2 PUSH1 0x20 SWAP1 SWAP2 ADD SWAP1 PUSH2 0xFE2 JUMP JUMPDEST POP POP PUSH1 0x40 MLOAD DUP9 DUP2 MSTORE PUSH1 0x0 DUP1 MLOAD PUSH1 0x20 PUSH2 0x15AF DUP4 CODECOPY DUP2 MLOAD SWAP2 MSTORE SWAP2 POP PUSH1 0x20 ADD PUSH1 0x40 MLOAD DUP1 SWAP2 SUB SWAP1 LOG1 PUSH1 0x40 MLOAD DUP8 DUP2 MSTORE PUSH1 0x0 DUP1 MLOAD PUSH1 0x20 PUSH2 0x15AF DUP4 CODECOPY DUP2 MLOAD SWAP2 MSTORE SWAP1 PUSH1 0x20 ADD PUSH1 0x40 MLOAD DUP1 SWAP2 SUB SWAP1 LOG1 POP POP POP POP POP POP POP JUMP JUMPDEST PUSH1 0xB PUSH1 0x20 MSTORE PUSH1 0x0 SWAP1 DUP2 MSTORE PUSH1 0x40 SWAP1 KECCAK256 DUP1 SLOAD DUP2 SWAP1 PUSH2 0x4E0 SWAP1 PUSH2 0x152B JUMP JUMPDEST DUP1 PUSH1 0x1F ADD PUSH1 0x20 DUP1 SWAP2 DIV MUL PUSH1 0x20 ADD PUSH1 0x40 MLOAD SWAP1 DUP2 ADD PUSH1 0x40 MSTORE DUP1 SWAP3 SWAP2 SWAP1 DUP2 DUP2 MSTORE PUSH1 0x20 ADD DUP3 DUP1 SLOAD PUSH2 0x50C SWAP1 PUSH2 0x152B JUMP JUMPDEST DUP1 ISZERO PUSH2 0x559 JUMPI DUP1 PUSH1 0x1F LT PUSH2 0x52E JUMPI PUSH2 0x100 DUP1 DUP4 SLOAD DIV MUL DUP4 MSTORE SWAP2 PUSH1 0x20 ADD SWAP2 PUSH2 0x559 JUMP JUMPDEST DUP3 ADD SWAP2 SWAP1 PUSH1 0x0 MSTORE PUSH1 0x20 PUSH1 0x0 KECCAK256 SWAP1 JUMPDEST DUP2 SLOAD DUP2 MSTORE SWAP1 PUSH1 0x1 ADD SWAP1 PUSH1 0x20 ADD DUP1 DUP4 GT PUSH2 0x53C JUMPI DUP3 SWAP1 SUB PUSH1 0x1F AND DUP3 ADD SWAP2 JUMPDEST POP POP POP POP POP SWAP1 DUP1 PUSH1 0x1 ADD DUP1 SLOAD PUSH2 0x56E SWAP1 PUSH2 0x152B JUMP JUMPDEST DUP1 PUSH1 0x1F ADD PUSH1 0x20 DUP1 SWAP2 DIV MUL PUSH1 0x20 ADD PUSH1 0x40 MLOAD SWAP1 DUP2 ADD PUSH1 0x40 MSTORE DUP1 SWAP3 SWAP2 SWAP1 DUP2 DUP2 MSTORE PUSH1 0x20 ADD DUP3 DUP1 SLOAD PUSH2 0x59A SWAP1 PUSH2 0x152B JUMP JUMPDEST DUP1 ISZERO PUSH2 0x5E7 JUMPI DUP1 PUSH1 0x1F LT PUSH2 0x5BC JUMPI PUSH2 0x100 DUP1 DUP4 SLOAD DIV MUL DUP4 MSTORE SWAP2 PUSH1 0x20 ADD SWAP2 PUSH2 0x5E7 JUMP JUMPDEST DUP3 ADD SWAP2 SWAP1 PUSH1 0x0 MSTORE PUSH1 0x20 PUSH1 0x0 KECCAK256 SWAP1 JUMPDEST DUP2 SLOAD DUP2 MSTORE SWAP1 PUSH1 0x1 ADD SWAP1 PUSH1 0x20 ADD DUP1 DUP4 GT PUSH2 0x5CA JUMPI DUP3 SWAP1 SUB PUSH1 0x1F AND DUP3 ADD SWAP2 JUMPDEST POP POP POP POP POP SWAP1 DUP1 PUSH1 0x2 ADD DUP1 SLOAD PUSH2 0x5FC SWAP1 PUSH2 0x152B JUMP JUMPDEST DUP1 PUSH1 0x1F ADD PUSH1 0x20 DUP1 SWAP2 DIV MUL PUSH1 0x20 ADD PUSH1 0x40 MLOAD SWAP1 DUP2 ADD PUSH1 0x40 MSTORE DUP1 SWAP3 SWAP2 SWAP1 DUP2 DUP2 MSTORE PUSH1 0x20 ADD DUP3 DUP1 SLOAD PUSH2 0x628 SWAP1 PUSH2 0x152B JUMP JUMPDEST DUP1 ISZERO PUSH2 0x675 JUMPI DUP1 PUSH1 0x1F LT PUSH2 0x64A JUMPI PUSH2 0x100 DUP1 DUP4 SLOAD DIV MUL DUP4 MSTORE SWAP2 PUSH1 0x20 ADD SWAP2 PUSH2 0x675 JUMP JUMPDEST DUP3 ADD SWAP2 SWAP1 PUSH1 0x0 MSTORE PUSH1 0x20 PUSH1 0x0 KECCAK256 SWAP1 JUMPDEST DUP2 SLOAD DUP2 MSTORE SWAP1 PUSH1 0x1 ADD SWAP1 PUSH1 0x20 ADD DUP1 DUP4 GT PUSH2 0x658 JUMPI DUP3 SWAP1 SUB PUSH1 0x1F AND DUP3 ADD SWAP2 JUMPDEST POP POP POP POP POP SWAP1 DUP1 PUSH1 0x3 ADD DUP1 SLOAD PUSH2 0x68A SWAP1 PUSH2 0x152B JUMP JUMPDEST DUP1 PUSH1 0x1F ADD PUSH1 0x20 DUP1 SWAP2 DIV MUL PUSH1 0x20 ADD PUSH1 0x40 MLOAD SWAP1 DUP2 ADD PUSH1 0x40 MSTORE DUP1 SWAP3 SWAP2 SWAP1 DUP2 DUP2 MSTORE PUSH1 0x20 ADD DUP3 DUP1 SLOAD PUSH2 0x6B6 SWAP1 PUSH2 0x152B JUMP JUMPDEST DUP1 ISZERO PUSH2 0x703 JUMPI DUP1 PUSH1 0x1F LT PUSH2 0x6D8 JUMPI PUSH2 0x100 DUP1 DUP4 SLOAD DIV MUL DUP4 MSTORE SWAP2 PUSH1 0x20 ADD SWAP2 PUSH2 0x703 JUMP JUMPDEST DUP3 ADD SWAP2 SWAP1 PUSH1 0x0 MSTORE PUSH1 0x20 PUSH1 0x0 KECCAK256 SWAP1 JUMPDEST DUP2 SLOAD DUP2 MSTORE SWAP1 PUSH1 0x1 ADD SWAP1 PUSH1 0x20 ADD DUP1 DUP4 GT PUSH2 0x6E6 JUMPI DUP3 SWAP1 SUB PUSH1 0x1F AND DUP3 ADD SWAP2 JUMPDEST POP POP POP POP POP SWAP1 POP DUP5 JUMP JUMPDEST PUSH1 0x7 DUP1 SLOAD PUSH2 0x71A SWAP1 PUSH2 0x152B JUMP JUMPDEST DUP1 PUSH1 0x1F ADD PUSH1 0x20 DUP1 SWAP2 DIV MUL PUSH1 0x20 ADD PUSH1 0x40 MLOAD SWAP1 DUP2 ADD PUSH1 0x40 MSTORE DUP1 SWAP3 SWAP2 SWAP1 DUP2 DUP2 MSTORE PUSH1 0x20 ADD DUP3 DUP1 SLOAD PUSH2 0x746 SWAP1 PUSH2 0x152B JUMP JUMPDEST DUP1 ISZERO PUSH2 0x793 JUMPI DUP1 PUSH1 0x1F LT PUSH2 0x768 JUMPI PUSH2 0x100 DUP1 DUP4 SLOAD DIV MUL DUP4 MSTORE SWAP2 PUSH1 0x20 ADD SWAP2 PUSH2 0x793 JUMP JUMPDEST DUP3 ADD SWAP2 SWAP1 PUSH1 0x0 MSTORE PUSH1 0x20 PUSH1 0x0 KECCAK256 SWAP1 JUMPDEST DUP2 SLOAD DUP2 MSTORE SWAP1 PUSH1 0x1 ADD SWAP1 PUSH1 0x20 ADD DUP1 DUP4 GT PUSH2 0x776 JUMPI DUP3 SWAP1 SUB PUSH1 0x1F AND DUP3 ADD SWAP2 JUMPDEST POP POP POP POP POP DUP2 JUMP JUMPDEST PUSH1 0x40 MLOAD PUSH4 0x70A08231 PUSH1 0xE0 SHL DUP2 MSTORE ADDRESS PUSH1 0x4 DUP3 ADD MSTORE PUSH1 0x0 SWAP1 PUSH20 0xA36085F69E2889C224210F603D836748E7DC0088 SWAP1 PUSH4 0x70A08231 SWAP1 PUSH1 0x24 ADD PUSH1 0x20 PUSH1 0x40 MLOAD DUP1 DUP4 SUB DUP2 DUP7 DUP1 EXTCODESIZE ISZERO DUP1 ISZERO PUSH2 0x7E8 JUMPI PUSH1 0x0 DUP1 REVERT JUMPDEST POP GAS STATICCALL ISZERO DUP1 ISZERO PUSH2 0x7FC JUMPI RETURNDATASIZE PUSH1 0x0 DUP1 RETURNDATACOPY RETURNDATASIZE PUSH1 0x0 REVERT JUMPDEST POP POP POP POP PUSH1 0x40 MLOAD RETURNDATASIZE PUSH1 0x1F NOT PUSH1 0x1F DUP3 ADD AND DUP3 ADD DUP1 PUSH1 0x40 MSTORE POP DUP2 ADD SWAP1 PUSH2 0x820 SWAP2 SWAP1 PUSH2 0x1292 JUMP JUMPDEST PUSH1 0x40 MLOAD PUSH4 0xA9059CBB PUSH1 0xE0 SHL DUP2 MSTORE CALLER PUSH1 0x4 DUP3 ADD MSTORE PUSH1 0x24 DUP2 ADD DUP3 SWAP1 MSTORE SWAP1 SWAP2 POP PUSH20 0xA36085F69E2889C224210F603D836748E7DC0088 SWAP1 PUSH4 0xA9059CBB SWAP1 PUSH1 0x44 ADD PUSH1 0x20 PUSH1 0x40 MLOAD DUP1 DUP4 SUB DUP2 PUSH1 0x0 DUP8 DUP1 EXTCODESIZE ISZERO DUP1 ISZERO PUSH2 0x876 JUMPI PUSH1 0x0 DUP1 REVERT JUMPDEST POP GAS CALL ISZERO DUP1 ISZERO PUSH2 0x88A JUMPI RETURNDATASIZE PUSH1 0x0 DUP1 RETURNDATACOPY RETURNDATASIZE PUSH1 0x0 REVERT JUMPDEST POP POP POP POP PUSH1 0x40 MLOAD RETURNDATASIZE PUSH1 0x1F NOT PUSH1 0x1F DUP3 ADD AND DUP3 ADD DUP1 PUSH1 0x40 MSTORE POP DUP2 ADD SWAP1 PUSH2 0x8AE SWAP2 SWAP1 PUSH2 0x117C JUMP JUMPDEST POP POP JUMP JUMPDEST PUSH1 0x8 DUP1 SLOAD PUSH2 0x71A SWAP1 PUSH2 0x152B JUMP JUMPDEST PUSH1 0x6 DUP1 SLOAD PUSH2 0x71A SWAP1 PUSH2 0x152B JUMP JUMPDEST PUSH1 0xC PUSH1 0x20 MSTORE PUSH1 0x0 SWAP1 DUP2 MSTORE PUSH1 0x40 SWAP1 KECCAK256 DUP1 SLOAD DUP2 SWAP1 PUSH2 0x4E0 SWAP1 PUSH2 0x152B JUMP JUMPDEST PUSH1 0x0 DUP1 PUSH2 0x8FE PUSH1 0xE SLOAD ADDRESS PUSH4 0x18FADF62 PUSH1 0xE0 SHL PUSH2 0x93D JUMP JUMPDEST PUSH1 0x40 DUP1 MLOAD DUP1 DUP3 ADD SWAP1 SWAP2 MSTORE PUSH1 0x6 DUP2 MSTORE PUSH6 0x1C1C9BDB5C1D PUSH1 0xD2 SHL PUSH1 0x20 DUP3 ADD MSTORE SWAP1 SWAP2 POP PUSH2 0x92A SWAP1 DUP3 SWAP1 DUP6 PUSH2 0x962 JUMP JUMPDEST PUSH2 0x936 DUP2 PUSH1 0xD SLOAD PUSH2 0x985 JUMP JUMPDEST POP POP SWAP2 SWAP1 POP JUMP JUMPDEST PUSH2 0x945 PUSH2 0x1066 JUMP JUMPDEST PUSH2 0x94D PUSH2 0x1066 JUMP JUMPDEST PUSH2 0x959 DUP2 DUP7 DUP7 DUP7 PUSH2 0x9A8 JUMP JUMPDEST SWAP6 SWAP5 POP POP POP POP POP JUMP JUMPDEST PUSH1 0x80 DUP4 ADD MLOAD PUSH2 0x971 SWAP1 DUP4 PUSH2 0x9E5 JUMP JUMPDEST PUSH1 0x80 DUP4 ADD MLOAD PUSH2 0x980 SWAP1 DUP3 PUSH2 0x9E5 JUMP JUMPDEST POP POP POP JUMP JUMPDEST PUSH1 0x3 SLOAD PUSH1 0x0 SWAP1 PUSH2 0x99F SWAP1 PUSH1 0x1 PUSH1 0x1 PUSH1 0xA0 SHL SUB AND DUP5 DUP5 PUSH2 0x9FC JUMP JUMPDEST SWAP1 POP JUMPDEST SWAP3 SWAP2 POP POP JUMP JUMPDEST PUSH2 0x9B0 PUSH2 0x1066 JUMP JUMPDEST PUSH2 0x9C0 DUP6 PUSH1 0x80 ADD MLOAD PUSH2 0x100 PUSH2 0xA1B JUMP JUMPDEST POP POP SWAP2 DUP4 MSTORE PUSH1 0x1 PUSH1 0x1 PUSH1 0xA0 SHL SUB AND PUSH1 0x20 DUP4 ADD MSTORE PUSH1 0x1 PUSH1 0x1 PUSH1 0xE0 SHL SUB NOT AND PUSH1 0x40 DUP3 ADD MSTORE SWAP1 JUMP JUMPDEST PUSH2 0x9F2 DUP3 PUSH1 0x3 DUP4 MLOAD PUSH2 0xA80 JUMP JUMPDEST PUSH2 0x980 DUP3 DUP3 PUSH2 0xB54 JUMP JUMPDEST PUSH1 0x0 PUSH2 0xA13 DUP5 DUP5 DUP5 PUSH1 0x2 PUSH4 0x36F43CEB PUSH1 0xE1 SHL PUSH2 0xB7B JUMP JUMPDEST SWAP5 SWAP4 POP POP POP POP JUMP JUMPDEST PUSH1 0x40 DUP1 MLOAD DUP1 DUP3 ADD SWAP1 SWAP2 MSTORE PUSH1 0x60 DUP2 MSTORE PUSH1 0x0 PUSH1 0x20 DUP3 ADD MSTORE PUSH2 0xA3B PUSH1 0x20 DUP4 PUSH2 0x1560 JUMP JUMPDEST ISZERO PUSH2 0xA63 JUMPI PUSH2 0xA4B PUSH1 0x20 DUP4 PUSH2 0x1560 JUMP JUMPDEST PUSH2 0xA56 SWAP1 PUSH1 0x20 PUSH2 0x1514 JUMP JUMPDEST PUSH2 0xA60 SWAP1 DUP4 PUSH2 0x13F2 JUMP JUMPDEST SWAP2 POP JUMPDEST POP PUSH1 0x20 DUP3 DUP2 ADD DUP3 SWAP1 MSTORE PUSH1 0x40 DUP1 MLOAD DUP1 DUP6 MSTORE PUSH1 0x0 DUP2 MSTORE SWAP1 SWAP3 ADD ADD SWAP1 MSTORE SWAP1 JUMP JUMPDEST PUSH1 0x17 DUP2 GT PUSH2 0xAA1 JUMPI PUSH2 0xA9B DUP4 PUSH1 0xE0 PUSH1 0x5 DUP6 SWAP1 SHL AND DUP4 OR PUSH2 0xD87 JUMP JUMPDEST POP POP POP POP JUMP JUMPDEST PUSH1 0xFF DUP2 GT PUSH2 0xACB JUMPI PUSH2 0xABE DUP4 PUSH1 0x18 PUSH2 0x1FE0 PUSH1 0x5 DUP7 SWAP1 SHL AND OR PUSH2 0xD87 JUMP JUMPDEST POP PUSH2 0xA9B DUP4 DUP3 PUSH1 0x1 PUSH2 0xDAC JUMP JUMPDEST PUSH2 0xFFFF DUP2 GT PUSH2 0xAF6 JUMPI PUSH2 0xAE9 DUP4 PUSH1 0x19 PUSH2 0x1FE0 PUSH1 0x5 DUP7 SWAP1 SHL AND OR PUSH2 0xD87 JUMP JUMPDEST POP PUSH2 0xA9B DUP4 DUP3 PUSH1 0x2 PUSH2 0xDAC JUMP JUMPDEST PUSH4 0xFFFFFFFF DUP2 GT PUSH2 0xB23 JUMPI PUSH2 0xB16 DUP4 PUSH1 0x1A PUSH2 0x1FE0 PUSH1 0x5 DUP7 SWAP1 SHL AND OR PUSH2 0xD87 JUMP JUMPDEST POP PUSH2 0xA9B DUP4 DUP3 PUSH1 0x4 PUSH2 0xDAC JUMP JUMPDEST PUSH8 0xFFFFFFFFFFFFFFFF DUP2 GT PUSH2 0x980 JUMPI PUSH2 0xB47 DUP4 PUSH1 0x1B PUSH2 0x1FE0 PUSH1 0x5 DUP7 SWAP1 SHL AND OR PUSH2 0xD87 JUMP JUMPDEST POP PUSH2 0xA9B DUP4 DUP3 PUSH1 0x8 PUSH2 0xDAC JUMP JUMPDEST PUSH1 0x40 DUP1 MLOAD DUP1 DUP3 ADD SWAP1 SWAP2 MSTORE PUSH1 0x60 DUP2 MSTORE PUSH1 0x0 PUSH1 0x20 DUP3 ADD MSTORE PUSH2 0x99F DUP4 DUP5 PUSH1 0x0 ADD MLOAD MLOAD DUP5 DUP6 MLOAD PUSH2 0xDD2 JUMP JUMPDEST PUSH1 0x4 SLOAD PUSH1 0x40 MLOAD PUSH12 0xFFFFFFFFFFFFFFFFFFFFFFFF NOT ADDRESS PUSH1 0x60 SHL AND PUSH1 0x20 DUP3 ADD MSTORE PUSH1 0x34 DUP2 ADD SWAP2 SWAP1 SWAP2 MSTORE PUSH1 0x0 SWAP1 PUSH1 0x54 ADD PUSH1 0x40 DUP1 MLOAD DUP1 DUP4 SUB PUSH1 0x1F NOT ADD DUP2 MSTORE SWAP2 DUP2 MSTORE DUP2 MLOAD PUSH1 0x20 SWAP3 DUP4 ADD KECCAK256 PUSH1 0x4 SLOAD PUSH1 0x60 DUP10 ADD MSTORE PUSH1 0x0 DUP2 DUP2 MSTORE PUSH1 0x5 SWAP1 SWAP4 MSTORE DUP2 DUP4 KECCAK256 DUP1 SLOAD PUSH1 0x1 PUSH1 0x1 PUSH1 0xA0 SHL SUB NOT AND PUSH1 0x1 PUSH1 0x1 PUSH1 0xA0 SHL SUB DUP12 AND OR SWAP1 SSTORE SWAP1 MLOAD SWAP1 SWAP3 POP DUP3 SWAP2 PUSH32 0xB5E6E01E79F91267DC17B4E6314D5D4D03593D2CEEE0FBB452B750BD70EA5AF9 SWAP2 LOG2 PUSH1 0x0 DUP3 PUSH1 0x0 DUP1 DUP9 PUSH1 0x0 ADD MLOAD DUP10 PUSH1 0x20 ADD MLOAD DUP11 PUSH1 0x40 ADD MLOAD DUP12 PUSH1 0x60 ADD MLOAD DUP11 DUP14 PUSH1 0x80 ADD MLOAD PUSH1 0x0 ADD MLOAD PUSH1 0x40 MLOAD PUSH1 0x24 ADD PUSH2 0xC52 SWAP9 SWAP8 SWAP7 SWAP6 SWAP5 SWAP4 SWAP3 SWAP2 SWAP1 PUSH2 0x12F8 JUMP JUMPDEST PUSH1 0x40 DUP1 MLOAD PUSH1 0x1F NOT DUP2 DUP5 SUB ADD DUP2 MSTORE SWAP2 DUP2 MSTORE PUSH1 0x20 DUP3 ADD DUP1 MLOAD PUSH1 0x1 PUSH1 0x1 PUSH1 0xE0 SHL SUB AND PUSH1 0x1 PUSH1 0x1 PUSH1 0xE0 SHL SUB NOT SWAP1 SWAP5 AND SWAP4 SWAP1 SWAP4 OR SWAP1 SWAP3 MSTORE PUSH1 0x2 SLOAD SWAP2 MLOAD PUSH4 0x2000575 PUSH1 0xE5 SHL DUP2 MSTORE SWAP1 SWAP3 POP PUSH1 0x1 PUSH1 0x1 PUSH1 0xA0 SHL SUB SWAP1 SWAP2 AND SWAP1 PUSH4 0x4000AEA0 SWAP1 PUSH2 0xCBA SWAP1 DUP11 SWAP1 DUP10 SWAP1 DUP7 SWAP1 PUSH1 0x4 ADD PUSH2 0x1360 JUMP JUMPDEST PUSH1 0x20 PUSH1 0x40 MLOAD DUP1 DUP4 SUB DUP2 PUSH1 0x0 DUP8 DUP1 EXTCODESIZE ISZERO DUP1 ISZERO PUSH2 0xCD4 JUMPI PUSH1 0x0 DUP1 REVERT JUMPDEST POP GAS CALL ISZERO DUP1 ISZERO PUSH2 0xCE8 JUMPI RETURNDATASIZE PUSH1 0x0 DUP1 RETURNDATACOPY RETURNDATASIZE PUSH1 0x0 REVERT JUMPDEST POP POP POP POP PUSH1 0x40 MLOAD RETURNDATASIZE PUSH1 0x1F NOT PUSH1 0x1F DUP3 ADD AND DUP3 ADD DUP1 PUSH1 0x40 MSTORE POP DUP2 ADD SWAP1 PUSH2 0xD0C SWAP2 SWAP1 PUSH2 0x117C JUMP JUMPDEST PUSH2 0xD64 JUMPI PUSH1 0x40 MLOAD PUSH3 0x461BCD PUSH1 0xE5 SHL DUP2 MSTORE PUSH1 0x20 PUSH1 0x4 DUP3 ADD MSTORE PUSH1 0x23 PUSH1 0x24 DUP3 ADD MSTORE PUSH32 0x756E61626C6520746F207472616E73666572416E6443616C6C20746F206F7261 PUSH1 0x44 DUP3 ADD MSTORE PUSH3 0x636C65 PUSH1 0xE8 SHL PUSH1 0x64 DUP3 ADD MSTORE PUSH1 0x84 ADD PUSH2 0x284 JUMP JUMPDEST PUSH1 0x1 PUSH1 0x4 PUSH1 0x0 DUP3 DUP3 SLOAD PUSH2 0xD77 SWAP2 SWAP1 PUSH2 0x13F2 JUMP JUMPDEST SWAP1 SWAP2 SSTORE POP SWAP2 SWAP8 SWAP7 POP POP POP POP POP POP POP JUMP JUMPDEST PUSH1 0x40 DUP1 MLOAD DUP1 DUP3 ADD SWAP1 SWAP2 MSTORE PUSH1 0x60 DUP2 MSTORE PUSH1 0x0 PUSH1 0x20 DUP3 ADD MSTORE PUSH2 0x99F DUP4 DUP5 PUSH1 0x0 ADD MLOAD MLOAD DUP5 PUSH2 0xED7 JUMP JUMPDEST PUSH1 0x40 DUP1 MLOAD DUP1 DUP3 ADD SWAP1 SWAP2 MSTORE PUSH1 0x60 DUP2 MSTORE PUSH1 0x0 PUSH1 0x20 DUP3 ADD MSTORE PUSH2 0xA13 DUP5 DUP6 PUSH1 0x0 ADD MLOAD MLOAD DUP6 DUP6 PUSH2 0xF33 JUMP JUMPDEST PUSH1 0x40 DUP1 MLOAD DUP1 DUP3 ADD SWAP1 SWAP2 MSTORE PUSH1 0x60 DUP2 MSTORE PUSH1 0x0 PUSH1 0x20 DUP3 ADD MSTORE DUP3 MLOAD DUP3 GT ISZERO PUSH2 0xDF5 JUMPI PUSH1 0x0 DUP1 REVERT JUMPDEST PUSH1 0x20 DUP6 ADD MLOAD PUSH2 0xE04 DUP4 DUP7 PUSH2 0x13F2 JUMP JUMPDEST GT ISZERO PUSH2 0xE37 JUMPI PUSH2 0xE37 DUP6 PUSH2 0xE27 DUP8 PUSH1 0x20 ADD MLOAD DUP8 DUP7 PUSH2 0xE22 SWAP2 SWAP1 PUSH2 0x13F2 JUMP JUMPDEST PUSH2 0xFB4 JUMP JUMPDEST PUSH2 0xE32 SWAP1 PUSH1 0x2 PUSH2 0x14F5 JUMP JUMPDEST PUSH2 0xFCB JUMP JUMPDEST PUSH1 0x0 DUP1 DUP7 MLOAD DUP1 MLOAD DUP8 PUSH1 0x20 DUP4 ADD ADD SWAP4 POP DUP1 DUP9 DUP8 ADD GT ISZERO PUSH2 0xE56 JUMPI DUP8 DUP7 ADD DUP3 MSTORE JUMPDEST POP POP POP PUSH1 0x20 DUP5 ADD JUMPDEST PUSH1 0x20 DUP5 LT PUSH2 0xE96 JUMPI DUP1 MLOAD DUP3 MSTORE PUSH2 0xE75 PUSH1 0x20 DUP4 PUSH2 0x13F2 JUMP JUMPDEST SWAP2 POP PUSH2 0xE82 PUSH1 0x20 DUP3 PUSH2 0x13F2 JUMP JUMPDEST SWAP1 POP PUSH2 0xE8F PUSH1 0x20 DUP6 PUSH2 0x1514 JUMP JUMPDEST SWAP4 POP PUSH2 0xE5E JUMP JUMPDEST PUSH1 0x0 PUSH1 0x1 PUSH2 0xEA5 DUP7 PUSH1 0x20 PUSH2 0x1514 JUMP JUMPDEST PUSH2 0xEB1 SWAP1 PUSH2 0x100 PUSH2 0x144D JUMP JUMPDEST PUSH2 0xEBB SWAP2 SWAP1 PUSH2 0x1514 JUMP JUMPDEST SWAP2 MLOAD DUP4 MLOAD DUP4 AND SWAP3 NOT AND SWAP2 SWAP1 SWAP2 OR SWAP1 SWAP2 MSTORE POP DUP5 SWAP1 POP SWAP5 SWAP4 POP POP POP POP JUMP JUMPDEST PUSH1 0x40 DUP1 MLOAD DUP1 DUP3 ADD SWAP1 SWAP2 MSTORE PUSH1 0x60 DUP2 MSTORE PUSH1 0x0 PUSH1 0x20 DUP3 ADD MSTORE DUP4 PUSH1 0x20 ADD MLOAD DUP4 LT PUSH2 0xF0C JUMPI PUSH2 0xF0C DUP5 DUP6 PUSH1 0x20 ADD MLOAD PUSH1 0x2 PUSH2 0xE32 SWAP2 SWAP1 PUSH2 0x14F5 JUMP JUMPDEST DUP4 MLOAD DUP1 MLOAD PUSH1 0x20 DUP6 DUP4 ADD ADD DUP5 DUP2 MSTORE8 POP DUP1 DUP6 EQ ISZERO PUSH2 0xF29 JUMPI PUSH1 0x1 DUP2 ADD DUP3 MSTORE JUMPDEST POP SWAP4 SWAP5 SWAP4 POP POP POP POP JUMP JUMPDEST PUSH1 0x40 DUP1 MLOAD DUP1 DUP3 ADD SWAP1 SWAP2 MSTORE PUSH1 0x60 DUP2 MSTORE PUSH1 0x0 PUSH1 0x20 DUP3 ADD MSTORE PUSH1 0x20 DUP6 ADD MLOAD PUSH2 0xF57 DUP6 DUP5 PUSH2 0x13F2 JUMP JUMPDEST GT ISZERO PUSH2 0xF6B JUMPI PUSH2 0xF6B DUP6 PUSH2 0xE27 DUP7 DUP6 PUSH2 0x13F2 JUMP JUMPDEST PUSH1 0x0 PUSH1 0x1 PUSH2 0xF7B DUP5 PUSH2 0x100 PUSH2 0x144D JUMP JUMPDEST PUSH2 0xF85 SWAP2 SWAP1 PUSH2 0x1514 JUMP JUMPDEST SWAP1 POP DUP6 MLOAD DUP4 DUP7 DUP3 ADD ADD DUP6 DUP4 NOT DUP3 MLOAD AND OR DUP2 MSTORE POP DUP1 MLOAD DUP5 DUP8 ADD GT ISZERO PUSH2 0xFA9 JUMPI DUP4 DUP7 ADD DUP2 MSTORE JUMPDEST POP SWAP5 SWAP6 SWAP5 POP POP POP POP POP JUMP JUMPDEST PUSH1 0x0 DUP2 DUP4 GT ISZERO PUSH2 0xFC5 JUMPI POP DUP2 PUSH2 0x9A2 JUMP JUMPDEST POP SWAP2 SWAP1 POP JUMP JUMPDEST DUP2 MLOAD PUSH2 0xFD7 DUP4 DUP4 PUSH2 0xA1B JUMP JUMPDEST POP PUSH2 0xA9B DUP4 DUP3 PUSH2 0xB54 JUMP JUMPDEST DUP3 DUP1 SLOAD PUSH2 0xFEE SWAP1 PUSH2 0x152B JUMP JUMPDEST SWAP1 PUSH1 0x0 MSTORE PUSH1 0x20 PUSH1 0x0 KECCAK256 SWAP1 PUSH1 0x1F ADD PUSH1 0x20 SWAP1 DIV DUP2 ADD SWAP3 DUP3 PUSH2 0x1010 JUMPI PUSH1 0x0 DUP6 SSTORE PUSH2 0x1056 JUMP JUMPDEST DUP3 PUSH1 0x1F LT PUSH2 0x1029 JUMPI DUP1 MLOAD PUSH1 0xFF NOT AND DUP4 DUP1 ADD OR DUP6 SSTORE PUSH2 0x1056 JUMP JUMPDEST DUP3 DUP1 ADD PUSH1 0x1 ADD DUP6 SSTORE DUP3 ISZERO PUSH2 0x1056 JUMPI SWAP2 DUP3 ADD JUMPDEST DUP3 DUP2 GT ISZERO PUSH2 0x1056 JUMPI DUP3 MLOAD DUP3 SSTORE SWAP2 PUSH1 0x20 ADD SWAP2 SWAP1 PUSH1 0x1 ADD SWAP1 PUSH2 0x103B JUMP JUMPDEST POP PUSH2 0x1062 SWAP3 SWAP2 POP PUSH2 0x10A1 JUMP JUMPDEST POP SWAP1 JUMP JUMPDEST PUSH1 0x40 DUP1 MLOAD PUSH1 0xA0 DUP2 ADD DUP3 MSTORE PUSH1 0x0 DUP1 DUP3 MSTORE PUSH1 0x20 DUP1 DUP4 ADD DUP3 SWAP1 MSTORE DUP3 DUP5 ADD DUP3 SWAP1 MSTORE PUSH1 0x60 DUP1 DUP5 ADD DUP4 SWAP1 MSTORE DUP5 MLOAD DUP1 DUP7 ADD SWAP1 SWAP6 MSTORE DUP5 MSTORE DUP4 ADD MSTORE SWAP1 PUSH1 0x80 DUP3 ADD MSTORE SWAP1 JUMP JUMPDEST JUMPDEST DUP1 DUP3 GT ISZERO PUSH2 0x1062 JUMPI PUSH1 0x0 DUP2 SSTORE PUSH1 0x1 ADD PUSH2 0x10A2 JUMP JUMPDEST PUSH1 0x0 PUSH8 0xFFFFFFFFFFFFFFFF DUP1 DUP5 GT ISZERO PUSH2 0x10D1 JUMPI PUSH2 0x10D1 PUSH2 0x1598 JUMP JUMPDEST PUSH1 0x40 MLOAD PUSH1 0x1F DUP6 ADD PUSH1 0x1F NOT SWAP1 DUP2 AND PUSH1 0x3F ADD AND DUP2 ADD SWAP1 DUP3 DUP3 GT DUP2 DUP4 LT OR ISZERO PUSH2 0x10F9 JUMPI PUSH2 0x10F9 PUSH2 0x1598 JUMP JUMPDEST DUP2 PUSH1 0x40 MSTORE DUP1 SWAP4 POP DUP6 DUP2 MSTORE DUP7 DUP7 DUP7 ADD GT ISZERO PUSH2 0x1112 JUMPI PUSH1 0x0 DUP1 REVERT JUMPDEST DUP6 DUP6 PUSH1 0x20 DUP4 ADD CALLDATACOPY PUSH1 0x0 PUSH1 0x20 DUP8 DUP4 ADD ADD MSTORE POP POP POP SWAP4 SWAP3 POP POP POP JUMP JUMPDEST PUSH1 0x0 DUP3 PUSH1 0x1F DUP4 ADD SLT PUSH2 0x113D JUMPI PUSH1 0x0 DUP1 REVERT JUMPDEST PUSH2 0x99F DUP4 DUP4 CALLDATALOAD PUSH1 0x20 DUP6 ADD PUSH2 0x10B6 JUMP JUMPDEST PUSH1 0x0 PUSH1 0x20 DUP3 DUP5 SUB SLT ISZERO PUSH2 0x115E JUMPI PUSH1 0x0 DUP1 REVERT JUMPDEST DUP2 CALLDATALOAD PUSH1 0x1 PUSH1 0x1 PUSH1 0xA0 SHL SUB DUP2 AND DUP2 EQ PUSH2 0x1175 JUMPI PUSH1 0x0 DUP1 REVERT JUMPDEST SWAP4 SWAP3 POP POP POP JUMP JUMPDEST PUSH1 0x0 PUSH1 0x20 DUP3 DUP5 SUB SLT ISZERO PUSH2 0x118E JUMPI PUSH1 0x0 DUP1 REVERT JUMPDEST DUP2 MLOAD DUP1 ISZERO ISZERO DUP2 EQ PUSH2 0x1175 JUMPI PUSH1 0x0 DUP1 REVERT JUMPDEST PUSH1 0x0 PUSH1 0x20 DUP3 DUP5 SUB SLT ISZERO PUSH2 0x11B0 JUMPI PUSH1 0x0 DUP1 REVERT JUMPDEST POP CALLDATALOAD SWAP2 SWAP1 POP JUMP JUMPDEST PUSH1 0x0 DUP1 PUSH1 0x0 DUP1 PUSH1 0x80 DUP6 DUP8 SUB SLT ISZERO PUSH2 0x11CD JUMPI PUSH1 0x0 DUP1 REVERT JUMPDEST DUP5 CALLDATALOAD SWAP4 POP PUSH1 0x20 DUP6 ADD CALLDATALOAD PUSH8 0xFFFFFFFFFFFFFFFF DUP1 DUP3 GT ISZERO PUSH2 0x11EC JUMPI PUSH1 0x0 DUP1 REVERT JUMPDEST PUSH2 0x11F8 DUP9 DUP4 DUP10 ADD PUSH2 0x112C JUMP JUMPDEST SWAP5 POP PUSH1 0x40 DUP8 ADD CALLDATALOAD SWAP2 POP DUP1 DUP3 GT ISZERO PUSH2 0x120E JUMPI PUSH1 0x0 DUP1 REVERT JUMPDEST PUSH2 0x121A DUP9 DUP4 DUP10 ADD PUSH2 0x112C JUMP JUMPDEST SWAP4 POP PUSH1 0x60 DUP8 ADD CALLDATALOAD SWAP2 POP DUP1 DUP3 GT ISZERO PUSH2 0x1230 JUMPI PUSH1 0x0 DUP1 REVERT JUMPDEST POP PUSH2 0x123D DUP8 DUP3 DUP9 ADD PUSH2 0x112C JUMP JUMPDEST SWAP2 POP POP SWAP3 SWAP6 SWAP2 SWAP5 POP SWAP3 POP JUMP JUMPDEST PUSH1 0x0 PUSH1 0x20 DUP3 DUP5 SUB SLT ISZERO PUSH2 0x125B JUMPI PUSH1 0x0 DUP1 REVERT JUMPDEST DUP2 CALLDATALOAD PUSH8 0xFFFFFFFFFFFFFFFF DUP2 GT ISZERO PUSH2 0x1272 JUMPI PUSH1 0x0 DUP1 REVERT JUMPDEST DUP3 ADD PUSH1 0x1F DUP2 ADD DUP5 SGT PUSH2 0x1283 JUMPI PUSH1 0x0 DUP1 REVERT JUMPDEST PUSH2 0xA13 DUP5 DUP3 CALLDATALOAD PUSH1 0x20 DUP5 ADD PUSH2 0x10B6 JUMP JUMPDEST PUSH1 0x0 PUSH1 0x20 DUP3 DUP5 SUB SLT ISZERO PUSH2 0x12A4 JUMPI PUSH1 0x0 DUP1 REVERT JUMPDEST POP MLOAD SWAP2 SWAP1 POP JUMP JUMPDEST PUSH1 0x0 DUP2 MLOAD DUP1 DUP5 MSTORE PUSH1 0x0 JUMPDEST DUP2 DUP2 LT ISZERO PUSH2 0x12D1 JUMPI PUSH1 0x20 DUP2 DUP6 ADD DUP2 ADD MLOAD DUP7 DUP4 ADD DUP3 ADD MSTORE ADD PUSH2 0x12B5 JUMP JUMPDEST DUP2 DUP2 GT ISZERO PUSH2 0x12E3 JUMPI PUSH1 0x0 PUSH1 0x20 DUP4 DUP8 ADD ADD MSTORE JUMPDEST POP PUSH1 0x1F ADD PUSH1 0x1F NOT AND SWAP3 SWAP1 SWAP3 ADD PUSH1 0x20 ADD SWAP3 SWAP2 POP POP JUMP JUMPDEST PUSH1 0x1 PUSH1 0x1 PUSH1 0xA0 SHL SUB DUP10 DUP2 AND DUP3 MSTORE PUSH1 0x20 DUP3 ADD DUP10 SWAP1 MSTORE PUSH1 0x40 DUP3 ADD DUP9 SWAP1 MSTORE DUP7 AND PUSH1 0x60 DUP3 ADD MSTORE PUSH1 0x1 PUSH1 0x1 PUSH1 0xE0 SHL SUB NOT DUP6 AND PUSH1 0x80 DUP3 ADD MSTORE PUSH1 0xA0 DUP2 ADD DUP5 SWAP1 MSTORE PUSH1 0xC0 DUP2 ADD DUP4 SWAP1 MSTORE PUSH2 0x100 PUSH1 0xE0 DUP3 ADD DUP2 SWAP1 MSTORE PUSH1 0x0 SWAP1 PUSH2 0x1351 DUP4 DUP3 ADD DUP6 PUSH2 0x12AB JUMP JUMPDEST SWAP12 SWAP11 POP POP POP POP POP POP POP POP POP POP POP JUMP JUMPDEST PUSH1 0x1 DUP1 PUSH1 0xA0 SHL SUB DUP5 AND DUP2 MSTORE DUP3 PUSH1 0x20 DUP3 ADD MSTORE PUSH1 0x60 PUSH1 0x40 DUP3 ADD MSTORE PUSH1 0x0 PUSH2 0x959 PUSH1 0x60 DUP4 ADD DUP5 PUSH2 0x12AB JUMP JUMPDEST PUSH1 0x20 DUP2 MSTORE PUSH1 0x0 PUSH2 0x99F PUSH1 0x20 DUP4 ADD DUP5 PUSH2 0x12AB JUMP JUMPDEST PUSH1 0x80 DUP2 MSTORE PUSH1 0x0 PUSH2 0x13AD PUSH1 0x80 DUP4 ADD DUP8 PUSH2 0x12AB JUMP JUMPDEST DUP3 DUP2 SUB PUSH1 0x20 DUP5 ADD MSTORE PUSH2 0x13BF DUP2 DUP8 PUSH2 0x12AB JUMP JUMPDEST SWAP1 POP DUP3 DUP2 SUB PUSH1 0x40 DUP5 ADD MSTORE PUSH2 0x13D3 DUP2 DUP7 PUSH2 0x12AB JUMP JUMPDEST SWAP1 POP DUP3 DUP2 SUB PUSH1 0x60 DUP5 ADD MSTORE PUSH2 0x13E7 DUP2 DUP6 PUSH2 0x12AB JUMP JUMPDEST SWAP8 SWAP7 POP POP POP POP POP POP POP JUMP JUMPDEST PUSH1 0x0 DUP3 NOT DUP3 GT ISZERO PUSH2 0x1405 JUMPI PUSH2 0x1405 PUSH2 0x1582 JUMP JUMPDEST POP ADD SWAP1 JUMP JUMPDEST PUSH1 0x1 DUP2 DUP2 JUMPDEST DUP1 DUP6 GT ISZERO PUSH2 0x1445 JUMPI DUP2 PUSH1 0x0 NOT DIV DUP3 GT ISZERO PUSH2 0x142B JUMPI PUSH2 0x142B PUSH2 0x1582 JUMP JUMPDEST DUP1 DUP6 AND ISZERO PUSH2 0x1438 JUMPI SWAP2 DUP2 MUL SWAP2 JUMPDEST SWAP4 DUP5 SHR SWAP4 SWAP1 DUP1 MUL SWAP1 PUSH2 0x140F JUMP JUMPDEST POP SWAP3 POP SWAP3 SWAP1 POP JUMP JUMPDEST PUSH1 0x0 PUSH2 0x99F DUP4 DUP4 PUSH1 0x0 DUP3 PUSH2 0x1463 JUMPI POP PUSH1 0x1 PUSH2 0x9A2 JUMP JUMPDEST DUP2 PUSH2 0x1470 JUMPI POP PUSH1 0x0 PUSH2 0x9A2 JUMP JUMPDEST DUP2 PUSH1 0x1 DUP2 EQ PUSH2 0x1486 JUMPI PUSH1 0x2 DUP2 EQ PUSH2 0x1490 JUMPI PUSH2 0x14AC JUMP JUMPDEST PUSH1 0x1 SWAP2 POP POP PUSH2 0x9A2 JUMP JUMPDEST PUSH1 0xFF DUP5 GT ISZERO PUSH2 0x14A1 JUMPI PUSH2 0x14A1 PUSH2 0x1582 JUMP JUMPDEST POP POP PUSH1 0x1 DUP3 SHL PUSH2 0x9A2 JUMP JUMPDEST POP PUSH1 0x20 DUP4 LT PUSH2 0x133 DUP4 LT AND PUSH1 0x4E DUP5 LT PUSH1 0xB DUP5 LT AND OR ISZERO PUSH2 0x14CF JUMPI POP DUP2 DUP2 EXP PUSH2 0x9A2 JUMP JUMPDEST PUSH2 0x14D9 DUP4 DUP4 PUSH2 0x140A JUMP JUMPDEST DUP1 PUSH1 0x0 NOT DIV DUP3 GT ISZERO PUSH2 0x14ED JUMPI PUSH2 0x14ED PUSH2 0x1582 JUMP JUMPDEST MUL SWAP4 SWAP3 POP POP POP JUMP JUMPDEST PUSH1 0x0 DUP2 PUSH1 0x0 NOT DIV DUP4 GT DUP3 ISZERO ISZERO AND ISZERO PUSH2 0x150F JUMPI PUSH2 0x150F PUSH2 0x1582 JUMP JUMPDEST POP MUL SWAP1 JUMP JUMPDEST PUSH1 0x0 DUP3 DUP3 LT ISZERO PUSH2 0x1526 JUMPI PUSH2 0x1526 PUSH2 0x1582 JUMP JUMPDEST POP SUB SWAP1 JUMP JUMPDEST PUSH1 0x1 DUP2 DUP2 SHR SWAP1 DUP3 AND DUP1 PUSH2 0x153F JUMPI PUSH1 0x7F DUP3 AND SWAP2 POP JUMPDEST PUSH1 0x20 DUP3 LT DUP2 EQ ISZERO PUSH2 0xFC5 JUMPI PUSH4 0x4E487B71 PUSH1 0xE0 SHL PUSH1 0x0 MSTORE PUSH1 0x22 PUSH1 0x4 MSTORE PUSH1 0x24 PUSH1 0x0 REVERT JUMPDEST PUSH1 0x0 DUP3 PUSH2 0x157D JUMPI PUSH4 0x4E487B71 PUSH1 0xE0 SHL PUSH1 0x0 MSTORE PUSH1 0x12 PUSH1 0x4 MSTORE PUSH1 0x24 PUSH1 0x0 REVERT JUMPDEST POP MOD SWAP1 JUMP JUMPDEST PUSH4 0x4E487B71 PUSH1 0xE0 SHL PUSH1 0x0 MSTORE PUSH1 0x11 PUSH1 0x4 MSTORE PUSH1 0x24 PUSH1 0x0 REVERT JUMPDEST PUSH4 0x4E487B71 PUSH1 0xE0 SHL PUSH1 0x0 MSTORE PUSH1 0x41 PUSH1 0x4 MSTORE PUSH1 0x24 PUSH1 0x0 REVERT INVALID SLOAD DUP4 PUSH11 0x2905A4C5BCFBA367BF7FB2 0xAA DUP5 0xD LOG1 POP CALLDATASIZE MULMOD 0xEB PUSH2 0x2075 COINBASE TIMESTAMP 0xDC MULMOD DUP11 AND 0xB3 LOG2 PUSH5 0x6970667358 0x22 SLT KECCAK256 POP 0xAD 0x21 0x4C 0xB0 ORIGIN 0xF6 PUSH17 0xCF23307A1A12F943991E749DCFAB677D3D 0xD 0xEF 0xC DUP5 DUP8 PUSH25 0x164736F6C6343000807003300000000000000000000000000 ","sha1":"718f4a12e1d051137c01e7f617a79d80f03f0b5b","source":"//SPDX-License-Identifier: MIT\npragma solidity ^0.8.0;\n\nimport \"@chainlink/contracts/src/v0.8/ChainlinkClient.sol\";\nimport \"../interfaces/IERC20.sol\";\n\ncontract Consumer is ChainlinkClient {\n  using Chainlink for Chainlink.Request;\n\n  string public weapons;\n  string public attire;\n  string public accessories;\n  uint public fee = 1000;\n  mapping  (bytes32 => address) public idToUser;\n  mapping  (bytes32 => ItemSet) public idToItemSet;\n  mapping (address => ItemSet) public userToItems;\n  uint256 payment = 100000000000000;\n  bytes32 specId = \"b61b4d719ab04199882c6a8ac3c51861\";\n\n  struct ItemSet {\n    string theme;\n    string weapons;\n    string armor;\n    string accessories;\n  }\n\n  constructor(\n  ) {\n    setChainlinkToken(0xa36085F69e2889c224210F603D836748e7dC0088);\n    setChainlinkOracle(0x45Fd8dF7E9348b14AfC145599F719DbE27977Fd9);\n    \n  }\n\n  function requestBytes(string memory _prompt\n  )\n    public\n    returns (bytes32)\n  {\n    // require(msg.value >= fee, \"Include fee in transaction\");\n    // require(IERC20(0xa36085F69e2889c224210F603D836748e7dC0088).balanceOf(address(this)) >= payment, \"Not enough link\");\n    Chainlink.Request memory req = buildChainlinkRequest(specId, address(this), this.fulfill.selector);\n    req.add(\"prompt\", _prompt);\n\n    // bytes32 reqId = sendChainlinkRequestTo(0x45Fd8dF7E9348b14AfC145599F719DbE27977Fd9, req, payment);\n    // idToUser[reqId] = msg.sender;\n    requestOracleData(req, payment);\n \n  }\n\n\n\n  event doSomethingPLEASE(bytes32 Id);\n\n  \n  function fulfill(\n    bytes32 requestId,\n    bytes memory _weapons,\n    bytes memory _attire,\n    bytes memory _accessories\n  )\n    public\n    recordChainlinkFulfillment(requestId)\n  {\n    emit ChainlinkFulfilled(requestId);\n    emit doSomethingPLEASE(requestId);\n    weapons = string(_weapons);\n    attire = string(_attire);\n    accessories = string(_accessories);\n    emit doSomethingPLEASE(requestId);\n    ItemSet memory items;\n    items.theme = \"\";\n    emit doSomethingPLEASE(requestId);\n    items.weapons = string(_weapons);\n    items.armor = string(_attire);\n    items.accessories = string(_accessories);\n    address requester = idToUser[requestId];\n    userToItems[requester] = items;\n    emit doSomethingPLEASE(requestId);\n    emit doSomethingPLEASE(requestId);\n\n  }\n \n  \n  function withdrawLink() public {\n    uint256 bal = IERC20(0xa36085F69e2889c224210F603D836748e7dC0088).balanceOf(address(this));\n    IERC20(0xa36085F69e2889c224210F603D836748e7dC0088).transfer(msg.sender, bal);\n  }\n  \n  receive() external payable {}\n\n}\n","sourcePath":"contracts/Consumer.sol","deployment":{"address":"0xcF05583a53F4e1083f255cD2DfC95523b3BA83e4","chainid":"42","blockHeight":27485714}}