{"bytecode":"608060405260016004556103e8600955655af3107a4000600d557f6236316234643731396162303431393938383263366138616333633531383631600e5534801561004957600080fd5b50600280546001600160a01b03191673a36085f69e2889c224210f603d836748e7dc0088179055600380546001600160a01b0319167345fd8df7e9348b14afc145599f719dbe27977fd9179055611408806100a56000396000f3fe6080604052600436106100955760003560e01c8063aacbd09e11610059578063aacbd09e14610148578063b7e1cd8614610196578063caedd314146101ab578063ddca3f43146101cb578063f5094c9d146101ef57600080fd5b806318fadf62146100a1578063510a4972146100c357806360f6998b146100fc5780638dc654a21461011e578063a9aa55841461013357600080fd5b3661009c57005b600080fd5b3480156100ad57600080fd5b506100c16100bc366004610fdb565b61020f565b005b3480156100cf57600080fd5b506100e36100de366004610fc2565b610361565b6040516100f394939291906111be565b60405180910390f35b34801561010857600080fd5b506101116105a9565b6040516100f391906111ab565b34801561012a57600080fd5b506100c1610637565b34801561013f57600080fd5b5061011161074e565b34801561015457600080fd5b5061017e610163366004610fc2565b600a602052600090815260409020546001600160a01b031681565b6040516001600160a01b0390911681526020016100f3565b3480156101a257600080fd5b5061011161075b565b3480156101b757600080fd5b506100e36101c6366004610f70565b610768565b3480156101d757600080fd5b506101e160095481565b6040519081526020016100f3565b3480156101fb57600080fd5b506101e161020a36600461106d565b610783565b60008481526005602052604090205484906001600160a01b0316331461028d5760405162461bcd60e51b815260206004820152602860248201527f536f75726365206d75737420626520746865206f7261636c65206f6620746865604482015267081c995c5d595cdd60c21b60648201526084015b60405180910390fd5b60008181526005602052604080822080546001600160a01b03191690555182917f7cc135e0cebb02c3480ae5d74d377283180a2601f8f644edf7987b009316c63a91a26040518581527f54836a2905a4c5bcfba367bf7fb2aa840da1503609eb6120754142dc098a16b39060200160405180910390a161032e6040518060800160405280606081526020016060815260200160608152602001606081525090565b604080516020808201835260008083529184528381019790975290820194909452606001919091525091909152600a9052565b600b6020526000908152604090208054819061037c9061134f565b80601f01602080910402602001604051908101604052809291908181526020018280546103a89061134f565b80156103f55780601f106103ca576101008083540402835291602001916103f5565b820191906000526020600020905b8154815290600101906020018083116103d857829003601f168201915b50505050509080600101805461040a9061134f565b80601f01602080910402602001604051908101604052809291908181526020018280546104369061134f565b80156104835780601f1061045857610100808354040283529160200191610483565b820191906000526020600020905b81548152906001019060200180831161046657829003601f168201915b5050505050908060020180546104989061134f565b80601f01602080910402602001604051908101604052809291908181526020018280546104c49061134f565b80156105115780601f106104e657610100808354040283529160200191610511565b820191906000526020600020905b8154815290600101906020018083116104f457829003601f168201915b5050505050908060030180546105269061134f565b80601f01602080910402602001604051908101604052809291908181526020018280546105529061134f565b801561059f5780601f106105745761010080835404028352916020019161059f565b820191906000526020600020905b81548152906001019060200180831161058257829003601f168201915b5050505050905084565b600780546105b69061134f565b80601f01602080910402602001604051908101604052809291908181526020018280546105e29061134f565b801561062f5780601f106106045761010080835404028352916020019161062f565b820191906000526020600020905b81548152906001019060200180831161061257829003601f168201915b505050505081565b6040516370a0823160e01b815230600482015260009073a36085f69e2889c224210f603d836748e7dc0088906370a082319060240160206040518083038186803b15801561068457600080fd5b505afa158015610698573d6000803e3d6000fd5b505050506040513d601f19601f820116820180604052508101906106bc91906110b6565b60405163a9059cbb60e01b81523360048201526024810182905290915073a36085f69e2889c224210f603d836748e7dc00889063a9059cbb90604401602060405180830381600087803b15801561071257600080fd5b505af1158015610726573d6000803e3d6000fd5b505050506040513d601f19601f8201168201806040525081019061074a9190610fa0565b5050565b600880546105b69061134f565b600680546105b69061134f565b600c6020526000908152604090208054819061037c9061134f565b60008061079a600e54306318fadf6260e01b6107fa565b6040805180820190915260068152651c1c9bdb5c1d60d21b60208201529091506107c69082908561081f565b60006107d482600d54610842565b6000908152600a6020526040902080546001600160a01b03191633179055509092915050565b610802610e9f565b61080a610e9f565b61081681868686610865565b95945050505050565b608083015161082e90836108a2565b608083015161083d90826108a2565b505050565b60035460009061085c906001600160a01b031684846108b9565b90505b92915050565b61086d610e9f565b61087d85608001516101006108d8565b50509183526001600160a01b031660208301526001600160e01b031916604082015290565b6108af826003835161093d565b61083d8282610a11565b60006108d084848460026336f43ceb60e11b610a38565b949350505050565b6040805180820190915260608152600060208201526108f8602083611384565b1561092057610908602083611384565b610913906020611338565b61091d9083611216565b91505b506020828101829052604080518085526000815290920101905290565b6017811161095e576109588360e0600585901b168317610c44565b50505050565b60ff81116109885761097b836018611fe0600586901b1617610c44565b5061095883826001610c69565b61ffff81116109b3576109a6836019611fe0600586901b1617610c44565b5061095883826002610c69565b63ffffffff81116109e0576109d383601a611fe0600586901b1617610c44565b5061095883826004610c69565b67ffffffffffffffff811161083d57610a0483601b611fe0600586901b1617610c44565b5061095883826008610c69565b60408051808201909152606081526000602082015261085c83846000015151848551610c8f565b6004546040516bffffffffffffffffffffffff193060601b166020820152603481019190915260009060540160408051808303601f19018152918152815160209283012060045460608901526000818152600590935281832080546001600160a01b0319166001600160a01b038b16179055905190925082917fb5e6e01e79f91267dc17b4e6314d5d4d03593d2ceee0fbb452b750bd70ea5af991a2600082600080886000015189602001518a604001518b606001518a8d6080015160000151604051602401610b0f98979695949392919061111c565b60408051601f198184030181529181526020820180516001600160e01b03166001600160e01b0319909416939093179092526002549151630200057560e51b81529092506001600160a01b0390911690634000aea090610b77908a9089908690600401611184565b602060405180830381600087803b158015610b9157600080fd5b505af1158015610ba5573d6000803e3d6000fd5b505050506040513d601f19601f82011682018060405250810190610bc99190610fa0565b610c215760405162461bcd60e51b815260206004820152602360248201527f756e61626c6520746f207472616e73666572416e6443616c6c20746f206f7261604482015262636c6560e81b6064820152608401610284565b600160046000828254610c349190611216565b9091555091979650505050505050565b60408051808201909152606081526000602082015261085c8384600001515184610d94565b6040805180820190915260608152600060208201526108d0848560000151518585610df0565b6040805180820190915260608152600060208201528251821115610cb257600080fd5b6020850151610cc18386611216565b1115610cf457610cf485610ce487602001518786610cdf9190611216565b610e71565b610cef906002611319565b610e88565b600080865180518760208301019350808887011115610d135787860182525b505050602084015b60208410610d535780518252610d32602083611216565b9150610d3f602082611216565b9050610d4c602085611338565b9350610d1b565b60006001610d62866020611338565b610d6e90610100611271565b610d789190611338565b9151835183169219169190911790915250849050949350505050565b60408051808201909152606081526000602082015283602001518310610dc957610dc98485602001516002610cef9190611319565b835180516020858301018481535080851415610de6576001810182525b5093949350505050565b6040805180820190915260608152600060208201526020850151610e148584611216565b1115610e2857610e2885610ce48685611216565b60006001610e3884610100611271565b610e429190611338565b9050855183868201018583198251161781525080518487011115610e665783860181525b509495945050505050565b600081831115610e8257508161085f565b50919050565b8151610e9483836108d8565b506109588382610a11565b6040805160a0810182526000808252602080830182905282840182905260608084018390528451808601909552845283015290608082015290565b600067ffffffffffffffff80841115610ef557610ef56113bc565b604051601f8501601f19908116603f01168101908282118183101715610f1d57610f1d6113bc565b81604052809350858152868686011115610f3657600080fd5b858560208301376000602087830101525050509392505050565b600082601f830112610f6157600080fd5b61085c83833560208501610eda565b600060208284031215610f8257600080fd5b81356001600160a01b0381168114610f9957600080fd5b9392505050565b600060208284031215610fb257600080fd5b81518015158114610f9957600080fd5b600060208284031215610fd457600080fd5b5035919050565b60008060008060808587031215610ff157600080fd5b84359350602085013567ffffffffffffffff8082111561101057600080fd5b61101c88838901610f50565b9450604087013591508082111561103257600080fd5b61103e88838901610f50565b9350606087013591508082111561105457600080fd5b5061106187828801610f50565b91505092959194509250565b60006020828403121561107f57600080fd5b813567ffffffffffffffff81111561109657600080fd5b8201601f810184136110a757600080fd5b6108d084823560208401610eda565b6000602082840312156110c857600080fd5b5051919050565b6000815180845260005b818110156110f5576020818501810151868301820152016110d9565b81811115611107576000602083870101525b50601f01601f19169290920160200192915050565b6001600160a01b0389811682526020820189905260408201889052861660608201526001600160e01b03198516608082015260a0810184905260c0810183905261010060e08201819052600090611175838201856110cf565b9b9a5050505050505050505050565b60018060a01b038416815282602082015260606040820152600061081660608301846110cf565b60208152600061085c60208301846110cf565b6080815260006111d160808301876110cf565b82810360208401526111e381876110cf565b905082810360408401526111f781866110cf565b9050828103606084015261120b81856110cf565b979650505050505050565b60008219821115611229576112296113a6565b500190565b600181815b8085111561126957816000190482111561124f5761124f6113a6565b8085161561125c57918102915b93841c9390800290611233565b509250929050565b600061085c83836000826112875750600161085f565b816112945750600061085f565b81600181146112aa57600281146112b4576112d0565b600191505061085f565b60ff8411156112c5576112c56113a6565b50506001821b61085f565b5060208310610133831016604e8410600b84101617156112f3575081810a61085f565b6112fd838361122e565b8060001904821115611311576113116113a6565b029392505050565b6000816000190483118215151615611333576113336113a6565b500290565b60008282101561134a5761134a6113a6565b500390565b600181811c9082168061136357607f821691505b60208210811415610e8257634e487b7160e01b600052602260045260246000fd5b6000826113a157634e487b7160e01b600052601260045260246000fd5b500690565b634e487b7160e01b600052601160045260246000fd5b634e487b7160e01b600052604160045260246000fdfea2646970667358221220ce7032bdf4f601ba996e894d24123d3ff8384e5a52b8f78e46f3f7cdbbf7ee3764736f6c63430008070033","bytecodeSha1":"b3bee9519195ca535345220d44238d62041f0cb9","type":"contract","abi":[{"inputs":[],"stateMutability":"nonpayable","type":"constructor","name":"constructor"},{"anonymous":false,"inputs":[{"indexed":true,"internalType":"bytes32","name":"id","type":"bytes32"}],"name":"ChainlinkCancelled","type":"event"},{"anonymous":false,"inputs":[{"indexed":true,"internalType":"bytes32","name":"id","type":"bytes32"}],"name":"ChainlinkFulfilled","type":"event"},{"anonymous":false,"inputs":[{"indexed":true,"internalType":"bytes32","name":"id","type":"bytes32"}],"name":"ChainlinkRequested","type":"event"},{"anonymous":false,"inputs":[{"indexed":false,"internalType":"bytes32","name":"Id","type":"bytes32"}],"name":"doSomethingPLEASE","type":"event"},{"inputs":[],"name":"accessories","outputs":[{"internalType":"string","name":"","type":"string"}],"stateMutability":"view","type":"function"},{"inputs":[],"name":"attire","outputs":[{"internalType":"string","name":"","type":"string"}],"stateMutability":"view","type":"function"},{"inputs":[],"name":"fee","outputs":[{"internalType":"uint256","name":"","type":"uint256"}],"stateMutability":"view","type":"function"},{"inputs":[{"internalType":"bytes32","name":"requestId","type":"bytes32"},{"internalType":"bytes","name":"_weapons","type":"bytes"},{"internalType":"bytes","name":"_attire","type":"bytes"},{"internalType":"bytes","name":"_accessories","type":"bytes"}],"name":"fulfill","outputs":[],"stateMutability":"nonpayable","type":"function"},{"inputs":[{"internalType":"bytes32","name":"","type":"bytes32"}],"name":"idToItemSet","outputs":[{"internalType":"string","name":"theme","type":"string"},{"internalType":"string","name":"weapons","type":"string"},{"internalType":"string","name":"armor","type":"string"},{"internalType":"string","name":"accessories","type":"string"}],"stateMutability":"view","type":"function"},{"inputs":[{"internalType":"bytes32","name":"","type":"bytes32"}],"name":"idToUser","outputs":[{"internalType":"address","name":"","type":"address"}],"stateMutability":"view","type":"function"},{"inputs":[{"internalType":"string","name":"_prompt","type":"string"}],"name":"requestBytes","outputs":[{"internalType":"bytes32","name":"","type":"bytes32"}],"stateMutability":"nonpayable","type":"function"},{"inputs":[{"internalType":"address","name":"","type":"address"}],"name":"userToItems","outputs":[{"internalType":"string","name":"theme","type":"string"},{"internalType":"string","name":"weapons","type":"string"},{"internalType":"string","name":"armor","type":"string"},{"internalType":"string","name":"accessories","type":"string"}],"stateMutability":"view","type":"function"},{"inputs":[],"name":"weapons","outputs":[{"internalType":"string","name":"","type":"string"}],"stateMutability":"view","type":"function"},{"inputs":[],"name":"withdrawLink","outputs":[],"stateMutability":"nonpayable","type":"function"},{"stateMutability":"payable","type":"receive"}],"compiler":{"version":"0.8.7+commit.e28d00a7","evm_version":"istanbul","optimizer":{"enabled":true,"runs":200}},"contractName":"Consumer","language":"Solidity","natspec":{"methods":{},"kind":"dev","version":1},"opcodes":"PUSH1 0x80 PUSH1 0x40 MSTORE PUSH1 0x4 CALLDATASIZE LT PUSH2 0x95 JUMPI PUSH1 0x0 CALLDATALOAD PUSH1 0xE0 SHR DUP1 PUSH4 0xAACBD09E GT PUSH2 0x59 JUMPI DUP1 PUSH4 0xAACBD09E EQ PUSH2 0x148 JUMPI DUP1 PUSH4 0xB7E1CD86 EQ PUSH2 0x196 JUMPI DUP1 PUSH4 0xCAEDD314 EQ PUSH2 0x1AB JUMPI DUP1 PUSH4 0xDDCA3F43 EQ PUSH2 0x1CB JUMPI DUP1 PUSH4 0xF5094C9D EQ PUSH2 0x1EF JUMPI PUSH1 0x0 DUP1 REVERT JUMPDEST DUP1 PUSH4 0x18FADF62 EQ PUSH2 0xA1 JUMPI DUP1 PUSH4 0x510A4972 EQ PUSH2 0xC3 JUMPI DUP1 PUSH4 0x60F6998B EQ PUSH2 0xFC JUMPI DUP1 PUSH4 0x8DC654A2 EQ PUSH2 0x11E JUMPI DUP1 PUSH4 0xA9AA5584 EQ PUSH2 0x133 JUMPI PUSH1 0x0 DUP1 REVERT JUMPDEST CALLDATASIZE PUSH2 0x9C JUMPI STOP JUMPDEST PUSH1 0x0 DUP1 REVERT JUMPDEST CALLVALUE DUP1 ISZERO PUSH2 0xAD JUMPI PUSH1 0x0 DUP1 REVERT JUMPDEST POP PUSH2 0xC1 PUSH2 0xBC CALLDATASIZE PUSH1 0x4 PUSH2 0xFDB JUMP JUMPDEST PUSH2 0x20F JUMP JUMPDEST STOP JUMPDEST CALLVALUE DUP1 ISZERO PUSH2 0xCF JUMPI PUSH1 0x0 DUP1 REVERT JUMPDEST POP PUSH2 0xE3 PUSH2 0xDE CALLDATASIZE PUSH1 0x4 PUSH2 0xFC2 JUMP JUMPDEST PUSH2 0x361 JUMP JUMPDEST PUSH1 0x40 MLOAD PUSH2 0xF3 SWAP5 SWAP4 SWAP3 SWAP2 SWAP1 PUSH2 0x11BE JUMP JUMPDEST PUSH1 0x40 MLOAD DUP1 SWAP2 SUB SWAP1 RETURN JUMPDEST CALLVALUE DUP1 ISZERO PUSH2 0x108 JUMPI PUSH1 0x0 DUP1 REVERT JUMPDEST POP PUSH2 0x111 PUSH2 0x5A9 JUMP JUMPDEST PUSH1 0x40 MLOAD PUSH2 0xF3 SWAP2 SWAP1 PUSH2 0x11AB JUMP JUMPDEST CALLVALUE DUP1 ISZERO PUSH2 0x12A JUMPI PUSH1 0x0 DUP1 REVERT JUMPDEST POP PUSH2 0xC1 PUSH2 0x637 JUMP JUMPDEST CALLVALUE DUP1 ISZERO PUSH2 0x13F JUMPI PUSH1 0x0 DUP1 REVERT JUMPDEST POP PUSH2 0x111 PUSH2 0x74E JUMP JUMPDEST CALLVALUE DUP1 ISZERO PUSH2 0x154 JUMPI PUSH1 0x0 DUP1 REVERT JUMPDEST POP PUSH2 0x17E PUSH2 0x163 CALLDATASIZE PUSH1 0x4 PUSH2 0xFC2 JUMP JUMPDEST PUSH1 0xA PUSH1 0x20 MSTORE PUSH1 0x0 SWAP1 DUP2 MSTORE PUSH1 0x40 SWAP1 KECCAK256 SLOAD PUSH1 0x1 PUSH1 0x1 PUSH1 0xA0 SHL SUB AND DUP2 JUMP JUMPDEST PUSH1 0x40 MLOAD PUSH1 0x1 PUSH1 0x1 PUSH1 0xA0 SHL SUB SWAP1 SWAP2 AND DUP2 MSTORE PUSH1 0x20 ADD PUSH2 0xF3 JUMP JUMPDEST CALLVALUE DUP1 ISZERO PUSH2 0x1A2 JUMPI PUSH1 0x0 DUP1 REVERT JUMPDEST POP PUSH2 0x111 PUSH2 0x75B JUMP JUMPDEST CALLVALUE DUP1 ISZERO PUSH2 0x1B7 JUMPI PUSH1 0x0 DUP1 REVERT JUMPDEST POP PUSH2 0xE3 PUSH2 0x1C6 CALLDATASIZE PUSH1 0x4 PUSH2 0xF70 JUMP JUMPDEST PUSH2 0x768 JUMP JUMPDEST CALLVALUE DUP1 ISZERO PUSH2 0x1D7 JUMPI PUSH1 0x0 DUP1 REVERT JUMPDEST POP PUSH2 0x1E1 PUSH1 0x9 SLOAD DUP2 JUMP JUMPDEST PUSH1 0x40 MLOAD SWAP1 DUP2 MSTORE PUSH1 0x20 ADD PUSH2 0xF3 JUMP JUMPDEST CALLVALUE DUP1 ISZERO PUSH2 0x1FB JUMPI PUSH1 0x0 DUP1 REVERT JUMPDEST POP PUSH2 0x1E1 PUSH2 0x20A CALLDATASIZE PUSH1 0x4 PUSH2 0x106D JUMP JUMPDEST PUSH2 0x783 JUMP JUMPDEST PUSH1 0x0 DUP5 DUP2 MSTORE PUSH1 0x5 PUSH1 0x20 MSTORE PUSH1 0x40 SWAP1 KECCAK256 SLOAD DUP5 SWAP1 PUSH1 0x1 PUSH1 0x1 PUSH1 0xA0 SHL SUB AND CALLER EQ PUSH2 0x28D JUMPI PUSH1 0x40 MLOAD PUSH3 0x461BCD PUSH1 0xE5 SHL DUP2 MSTORE PUSH1 0x20 PUSH1 0x4 DUP3 ADD MSTORE PUSH1 0x28 PUSH1 0x24 DUP3 ADD MSTORE PUSH32 0x536F75726365206D75737420626520746865206F7261636C65206F6620746865 PUSH1 0x44 DUP3 ADD MSTORE PUSH8 0x81C995C5D595CDD PUSH1 0xC2 SHL PUSH1 0x64 DUP3 ADD MSTORE PUSH1 0x84 ADD JUMPDEST PUSH1 0x40 MLOAD DUP1 SWAP2 SUB SWAP1 REVERT JUMPDEST PUSH1 0x0 DUP2 DUP2 MSTORE PUSH1 0x5 PUSH1 0x20 MSTORE PUSH1 0x40 DUP1 DUP3 KECCAK256 DUP1 SLOAD PUSH1 0x1 PUSH1 0x1 PUSH1 0xA0 SHL SUB NOT AND SWAP1 SSTORE MLOAD DUP3 SWAP2 PUSH32 0x7CC135E0CEBB02C3480AE5D74D377283180A2601F8F644EDF7987B009316C63A SWAP2 LOG2 PUSH1 0x40 MLOAD DUP6 DUP2 MSTORE PUSH32 0x54836A2905A4C5BCFBA367BF7FB2AA840DA1503609EB6120754142DC098A16B3 SWAP1 PUSH1 0x20 ADD PUSH1 0x40 MLOAD DUP1 SWAP2 SUB SWAP1 LOG1 PUSH2 0x32E PUSH1 0x40 MLOAD DUP1 PUSH1 0x80 ADD PUSH1 0x40 MSTORE DUP1 PUSH1 0x60 DUP2 MSTORE PUSH1 0x20 ADD PUSH1 0x60 DUP2 MSTORE PUSH1 0x20 ADD PUSH1 0x60 DUP2 MSTORE PUSH1 0x20 ADD PUSH1 0x60 DUP2 MSTORE POP SWAP1 JUMP JUMPDEST PUSH1 0x40 DUP1 MLOAD PUSH1 0x20 DUP1 DUP3 ADD DUP4 MSTORE PUSH1 0x0 DUP1 DUP4 MSTORE SWAP2 DUP5 MSTORE DUP4 DUP2 ADD SWAP8 SWAP1 SWAP8 MSTORE SWAP1 DUP3 ADD SWAP5 SWAP1 SWAP5 MSTORE PUSH1 0x60 ADD SWAP2 SWAP1 SWAP2 MSTORE POP SWAP2 SWAP1 SWAP2 MSTORE PUSH1 0xA SWAP1 MSTORE JUMP JUMPDEST PUSH1 0xB PUSH1 0x20 MSTORE PUSH1 0x0 SWAP1 DUP2 MSTORE PUSH1 0x40 SWAP1 KECCAK256 DUP1 SLOAD DUP2 SWAP1 PUSH2 0x37C SWAP1 PUSH2 0x134F JUMP JUMPDEST DUP1 PUSH1 0x1F ADD PUSH1 0x20 DUP1 SWAP2 DIV MUL PUSH1 0x20 ADD PUSH1 0x40 MLOAD SWAP1 DUP2 ADD PUSH1 0x40 MSTORE DUP1 SWAP3 SWAP2 SWAP1 DUP2 DUP2 MSTORE PUSH1 0x20 ADD DUP3 DUP1 SLOAD PUSH2 0x3A8 SWAP1 PUSH2 0x134F JUMP JUMPDEST DUP1 ISZERO PUSH2 0x3F5 JUMPI DUP1 PUSH1 0x1F LT PUSH2 0x3CA JUMPI PUSH2 0x100 DUP1 DUP4 SLOAD DIV MUL DUP4 MSTORE SWAP2 PUSH1 0x20 ADD SWAP2 PUSH2 0x3F5 JUMP JUMPDEST DUP3 ADD SWAP2 SWAP1 PUSH1 0x0 MSTORE PUSH1 0x20 PUSH1 0x0 KECCAK256 SWAP1 JUMPDEST DUP2 SLOAD DUP2 MSTORE SWAP1 PUSH1 0x1 ADD SWAP1 PUSH1 0x20 ADD DUP1 DUP4 GT PUSH2 0x3D8 JUMPI DUP3 SWAP1 SUB PUSH1 0x1F AND DUP3 ADD SWAP2 JUMPDEST POP POP POP POP POP SWAP1 DUP1 PUSH1 0x1 ADD DUP1 SLOAD PUSH2 0x40A SWAP1 PUSH2 0x134F JUMP JUMPDEST DUP1 PUSH1 0x1F ADD PUSH1 0x20 DUP1 SWAP2 DIV MUL PUSH1 0x20 ADD PUSH1 0x40 MLOAD SWAP1 DUP2 ADD PUSH1 0x40 MSTORE DUP1 SWAP3 SWAP2 SWAP1 DUP2 DUP2 MSTORE PUSH1 0x20 ADD DUP3 DUP1 SLOAD PUSH2 0x436 SWAP1 PUSH2 0x134F JUMP JUMPDEST DUP1 ISZERO PUSH2 0x483 JUMPI DUP1 PUSH1 0x1F LT PUSH2 0x458 JUMPI PUSH2 0x100 DUP1 DUP4 SLOAD DIV MUL DUP4 MSTORE SWAP2 PUSH1 0x20 ADD SWAP2 PUSH2 0x483 JUMP JUMPDEST DUP3 ADD SWAP2 SWAP1 PUSH1 0x0 MSTORE PUSH1 0x20 PUSH1 0x0 KECCAK256 SWAP1 JUMPDEST DUP2 SLOAD DUP2 MSTORE SWAP1 PUSH1 0x1 ADD SWAP1 PUSH1 0x20 ADD DUP1 DUP4 GT PUSH2 0x466 JUMPI DUP3 SWAP1 SUB PUSH1 0x1F AND DUP3 ADD SWAP2 JUMPDEST POP POP POP POP POP SWAP1 DUP1 PUSH1 0x2 ADD DUP1 SLOAD PUSH2 0x498 SWAP1 PUSH2 0x134F JUMP JUMPDEST DUP1 PUSH1 0x1F ADD PUSH1 0x20 DUP1 SWAP2 DIV MUL PUSH1 0x20 ADD PUSH1 0x40 MLOAD SWAP1 DUP2 ADD PUSH1 0x40 MSTORE DUP1 SWAP3 SWAP2 SWAP1 DUP2 DUP2 MSTORE PUSH1 0x20 ADD DUP3 DUP1 SLOAD PUSH2 0x4C4 SWAP1 PUSH2 0x134F JUMP JUMPDEST DUP1 ISZERO PUSH2 0x511 JUMPI DUP1 PUSH1 0x1F LT PUSH2 0x4E6 JUMPI PUSH2 0x100 DUP1 DUP4 SLOAD DIV MUL DUP4 MSTORE SWAP2 PUSH1 0x20 ADD SWAP2 PUSH2 0x511 JUMP JUMPDEST DUP3 ADD SWAP2 SWAP1 PUSH1 0x0 MSTORE PUSH1 0x20 PUSH1 0x0 KECCAK256 SWAP1 JUMPDEST DUP2 SLOAD DUP2 MSTORE SWAP1 PUSH1 0x1 ADD SWAP1 PUSH1 0x20 ADD DUP1 DUP4 GT PUSH2 0x4F4 JUMPI DUP3 SWAP1 SUB PUSH1 0x1F AND DUP3 ADD SWAP2 JUMPDEST POP POP POP POP POP SWAP1 DUP1 PUSH1 0x3 ADD DUP1 SLOAD PUSH2 0x526 SWAP1 PUSH2 0x134F JUMP JUMPDEST DUP1 PUSH1 0x1F ADD PUSH1 0x20 DUP1 SWAP2 DIV MUL PUSH1 0x20 ADD PUSH1 0x40 MLOAD SWAP1 DUP2 ADD PUSH1 0x40 MSTORE DUP1 SWAP3 SWAP2 SWAP1 DUP2 DUP2 MSTORE PUSH1 0x20 ADD DUP3 DUP1 SLOAD PUSH2 0x552 SWAP1 PUSH2 0x134F JUMP JUMPDEST DUP1 ISZERO PUSH2 0x59F JUMPI DUP1 PUSH1 0x1F LT PUSH2 0x574 JUMPI PUSH2 0x100 DUP1 DUP4 SLOAD DIV MUL DUP4 MSTORE SWAP2 PUSH1 0x20 ADD SWAP2 PUSH2 0x59F JUMP JUMPDEST DUP3 ADD SWAP2 SWAP1 PUSH1 0x0 MSTORE PUSH1 0x20 PUSH1 0x0 KECCAK256 SWAP1 JUMPDEST DUP2 SLOAD DUP2 MSTORE SWAP1 PUSH1 0x1 ADD SWAP1 PUSH1 0x20 ADD DUP1 DUP4 GT PUSH2 0x582 JUMPI DUP3 SWAP1 SUB PUSH1 0x1F AND DUP3 ADD SWAP2 JUMPDEST POP POP POP POP POP SWAP1 POP DUP5 JUMP JUMPDEST PUSH1 0x7 DUP1 SLOAD PUSH2 0x5B6 SWAP1 PUSH2 0x134F JUMP JUMPDEST DUP1 PUSH1 0x1F ADD PUSH1 0x20 DUP1 SWAP2 DIV MUL PUSH1 0x20 ADD PUSH1 0x40 MLOAD SWAP1 DUP2 ADD PUSH1 0x40 MSTORE DUP1 SWAP3 SWAP2 SWAP1 DUP2 DUP2 MSTORE PUSH1 0x20 ADD DUP3 DUP1 SLOAD PUSH2 0x5E2 SWAP1 PUSH2 0x134F JUMP JUMPDEST DUP1 ISZERO PUSH2 0x62F JUMPI DUP1 PUSH1 0x1F LT PUSH2 0x604 JUMPI PUSH2 0x100 DUP1 DUP4 SLOAD DIV MUL DUP4 MSTORE SWAP2 PUSH1 0x20 ADD SWAP2 PUSH2 0x62F JUMP JUMPDEST DUP3 ADD SWAP2 SWAP1 PUSH1 0x0 MSTORE PUSH1 0x20 PUSH1 0x0 KECCAK256 SWAP1 JUMPDEST DUP2 SLOAD DUP2 MSTORE SWAP1 PUSH1 0x1 ADD SWAP1 PUSH1 0x20 ADD DUP1 DUP4 GT PUSH2 0x612 JUMPI DUP3 SWAP1 SUB PUSH1 0x1F AND DUP3 ADD SWAP2 JUMPDEST POP POP POP POP POP DUP2 JUMP JUMPDEST PUSH1 0x40 MLOAD PUSH4 0x70A08231 PUSH1 0xE0 SHL DUP2 MSTORE ADDRESS PUSH1 0x4 DUP3 ADD MSTORE PUSH1 0x0 SWAP1 PUSH20 0xA36085F69E2889C224210F603D836748E7DC0088 SWAP1 PUSH4 0x70A08231 SWAP1 PUSH1 0x24 ADD PUSH1 0x20 PUSH1 0x40 MLOAD DUP1 DUP4 SUB DUP2 DUP7 DUP1 EXTCODESIZE ISZERO DUP1 ISZERO PUSH2 0x684 JUMPI PUSH1 0x0 DUP1 REVERT JUMPDEST POP GAS STATICCALL ISZERO DUP1 ISZERO PUSH2 0x698 JUMPI RETURNDATASIZE PUSH1 0x0 DUP1 RETURNDATACOPY RETURNDATASIZE PUSH1 0x0 REVERT JUMPDEST POP POP POP POP PUSH1 0x40 MLOAD RETURNDATASIZE PUSH1 0x1F NOT PUSH1 0x1F DUP3 ADD AND DUP3 ADD DUP1 PUSH1 0x40 MSTORE POP DUP2 ADD SWAP1 PUSH2 0x6BC SWAP2 SWAP1 PUSH2 0x10B6 JUMP JUMPDEST PUSH1 0x40 MLOAD PUSH4 0xA9059CBB PUSH1 0xE0 SHL DUP2 MSTORE CALLER PUSH1 0x4 DUP3 ADD MSTORE PUSH1 0x24 DUP2 ADD DUP3 SWAP1 MSTORE SWAP1 SWAP2 POP PUSH20 0xA36085F69E2889C224210F603D836748E7DC0088 SWAP1 PUSH4 0xA9059CBB SWAP1 PUSH1 0x44 ADD PUSH1 0x20 PUSH1 0x40 MLOAD DUP1 DUP4 SUB DUP2 PUSH1 0x0 DUP8 DUP1 EXTCODESIZE ISZERO DUP1 ISZERO PUSH2 0x712 JUMPI PUSH1 0x0 DUP1 REVERT JUMPDEST POP GAS CALL ISZERO DUP1 ISZERO PUSH2 0x726 JUMPI RETURNDATASIZE PUSH1 0x0 DUP1 RETURNDATACOPY RETURNDATASIZE PUSH1 0x0 REVERT JUMPDEST POP POP POP POP PUSH1 0x40 MLOAD RETURNDATASIZE PUSH1 0x1F NOT PUSH1 0x1F DUP3 ADD AND DUP3 ADD DUP1 PUSH1 0x40 MSTORE POP DUP2 ADD SWAP1 PUSH2 0x74A SWAP2 SWAP1 PUSH2 0xFA0 JUMP JUMPDEST POP POP JUMP JUMPDEST PUSH1 0x8 DUP1 SLOAD PUSH2 0x5B6 SWAP1 PUSH2 0x134F JUMP JUMPDEST PUSH1 0x6 DUP1 SLOAD PUSH2 0x5B6 SWAP1 PUSH2 0x134F JUMP JUMPDEST PUSH1 0xC PUSH1 0x20 MSTORE PUSH1 0x0 SWAP1 DUP2 MSTORE PUSH1 0x40 SWAP1 KECCAK256 DUP1 SLOAD DUP2 SWAP1 PUSH2 0x37C SWAP1 PUSH2 0x134F JUMP JUMPDEST PUSH1 0x0 DUP1 PUSH2 0x79A PUSH1 0xE SLOAD ADDRESS PUSH4 0x18FADF62 PUSH1 0xE0 SHL PUSH2 0x7FA JUMP JUMPDEST PUSH1 0x40 DUP1 MLOAD DUP1 DUP3 ADD SWAP1 SWAP2 MSTORE PUSH1 0x6 DUP2 MSTORE PUSH6 0x1C1C9BDB5C1D PUSH1 0xD2 SHL PUSH1 0x20 DUP3 ADD MSTORE SWAP1 SWAP2 POP PUSH2 0x7C6 SWAP1 DUP3 SWAP1 DUP6 PUSH2 0x81F JUMP JUMPDEST PUSH1 0x0 PUSH2 0x7D4 DUP3 PUSH1 0xD SLOAD PUSH2 0x842 JUMP JUMPDEST PUSH1 0x0 SWAP1 DUP2 MSTORE PUSH1 0xA PUSH1 0x20 MSTORE PUSH1 0x40 SWAP1 KECCAK256 DUP1 SLOAD PUSH1 0x1 PUSH1 0x1 PUSH1 0xA0 SHL SUB NOT AND CALLER OR SWAP1 SSTORE POP SWAP1 SWAP3 SWAP2 POP POP JUMP JUMPDEST PUSH2 0x802 PUSH2 0xE9F JUMP JUMPDEST PUSH2 0x80A PUSH2 0xE9F JUMP JUMPDEST PUSH2 0x816 DUP2 DUP7 DUP7 DUP7 PUSH2 0x865 JUMP JUMPDEST SWAP6 SWAP5 POP POP POP POP POP JUMP JUMPDEST PUSH1 0x80 DUP4 ADD MLOAD PUSH2 0x82E SWAP1 DUP4 PUSH2 0x8A2 JUMP JUMPDEST PUSH1 0x80 DUP4 ADD MLOAD PUSH2 0x83D SWAP1 DUP3 PUSH2 0x8A2 JUMP JUMPDEST POP POP POP JUMP JUMPDEST PUSH1 0x3 SLOAD PUSH1 0x0 SWAP1 PUSH2 0x85C SWAP1 PUSH1 0x1 PUSH1 0x1 PUSH1 0xA0 SHL SUB AND DUP5 DUP5 PUSH2 0x8B9 JUMP JUMPDEST SWAP1 POP JUMPDEST SWAP3 SWAP2 POP POP JUMP JUMPDEST PUSH2 0x86D PUSH2 0xE9F JUMP JUMPDEST PUSH2 0x87D DUP6 PUSH1 0x80 ADD MLOAD PUSH2 0x100 PUSH2 0x8D8 JUMP JUMPDEST POP POP SWAP2 DUP4 MSTORE PUSH1 0x1 PUSH1 0x1 PUSH1 0xA0 SHL SUB AND PUSH1 0x20 DUP4 ADD MSTORE PUSH1 0x1 PUSH1 0x1 PUSH1 0xE0 SHL SUB NOT AND PUSH1 0x40 DUP3 ADD MSTORE SWAP1 JUMP JUMPDEST PUSH2 0x8AF DUP3 PUSH1 0x3 DUP4 MLOAD PUSH2 0x93D JUMP JUMPDEST PUSH2 0x83D DUP3 DUP3 PUSH2 0xA11 JUMP JUMPDEST PUSH1 0x0 PUSH2 0x8D0 DUP5 DUP5 DUP5 PUSH1 0x2 PUSH4 0x36F43CEB PUSH1 0xE1 SHL PUSH2 0xA38 JUMP JUMPDEST SWAP5 SWAP4 POP POP POP POP JUMP JUMPDEST PUSH1 0x40 DUP1 MLOAD DUP1 DUP3 ADD SWAP1 SWAP2 MSTORE PUSH1 0x60 DUP2 MSTORE PUSH1 0x0 PUSH1 0x20 DUP3 ADD MSTORE PUSH2 0x8F8 PUSH1 0x20 DUP4 PUSH2 0x1384 JUMP JUMPDEST ISZERO PUSH2 0x920 JUMPI PUSH2 0x908 PUSH1 0x20 DUP4 PUSH2 0x1384 JUMP JUMPDEST PUSH2 0x913 SWAP1 PUSH1 0x20 PUSH2 0x1338 JUMP JUMPDEST PUSH2 0x91D SWAP1 DUP4 PUSH2 0x1216 JUMP JUMPDEST SWAP2 POP JUMPDEST POP PUSH1 0x20 DUP3 DUP2 ADD DUP3 SWAP1 MSTORE PUSH1 0x40 DUP1 MLOAD DUP1 DUP6 MSTORE PUSH1 0x0 DUP2 MSTORE SWAP1 SWAP3 ADD ADD SWAP1 MSTORE SWAP1 JUMP JUMPDEST PUSH1 0x17 DUP2 GT PUSH2 0x95E JUMPI PUSH2 0x958 DUP4 PUSH1 0xE0 PUSH1 0x5 DUP6 SWAP1 SHL AND DUP4 OR PUSH2 0xC44 JUMP JUMPDEST POP POP POP POP JUMP JUMPDEST PUSH1 0xFF DUP2 GT PUSH2 0x988 JUMPI PUSH2 0x97B DUP4 PUSH1 0x18 PUSH2 0x1FE0 PUSH1 0x5 DUP7 SWAP1 SHL AND OR PUSH2 0xC44 JUMP JUMPDEST POP PUSH2 0x958 DUP4 DUP3 PUSH1 0x1 PUSH2 0xC69 JUMP JUMPDEST PUSH2 0xFFFF DUP2 GT PUSH2 0x9B3 JUMPI PUSH2 0x9A6 DUP4 PUSH1 0x19 PUSH2 0x1FE0 PUSH1 0x5 DUP7 SWAP1 SHL AND OR PUSH2 0xC44 JUMP JUMPDEST POP PUSH2 0x958 DUP4 DUP3 PUSH1 0x2 PUSH2 0xC69 JUMP JUMPDEST PUSH4 0xFFFFFFFF DUP2 GT PUSH2 0x9E0 JUMPI PUSH2 0x9D3 DUP4 PUSH1 0x1A PUSH2 0x1FE0 PUSH1 0x5 DUP7 SWAP1 SHL AND OR PUSH2 0xC44 JUMP JUMPDEST POP PUSH2 0x958 DUP4 DUP3 PUSH1 0x4 PUSH2 0xC69 JUMP JUMPDEST PUSH8 0xFFFFFFFFFFFFFFFF DUP2 GT PUSH2 0x83D JUMPI PUSH2 0xA04 DUP4 PUSH1 0x1B PUSH2 0x1FE0 PUSH1 0x5 DUP7 SWAP1 SHL AND OR PUSH2 0xC44 JUMP JUMPDEST POP PUSH2 0x958 DUP4 DUP3 PUSH1 0x8 PUSH2 0xC69 JUMP JUMPDEST PUSH1 0x40 DUP1 MLOAD DUP1 DUP3 ADD SWAP1 SWAP2 MSTORE PUSH1 0x60 DUP2 MSTORE PUSH1 0x0 PUSH1 0x20 DUP3 ADD MSTORE PUSH2 0x85C DUP4 DUP5 PUSH1 0x0 ADD MLOAD MLOAD DUP5 DUP6 MLOAD PUSH2 0xC8F JUMP JUMPDEST PUSH1 0x4 SLOAD PUSH1 0x40 MLOAD PUSH12 0xFFFFFFFFFFFFFFFFFFFFFFFF NOT ADDRESS PUSH1 0x60 SHL AND PUSH1 0x20 DUP3 ADD MSTORE PUSH1 0x34 DUP2 ADD SWAP2 SWAP1 SWAP2 MSTORE PUSH1 0x0 SWAP1 PUSH1 0x54 ADD PUSH1 0x40 DUP1 MLOAD DUP1 DUP4 SUB PUSH1 0x1F NOT ADD DUP2 MSTORE SWAP2 DUP2 MSTORE DUP2 MLOAD PUSH1 0x20 SWAP3 DUP4 ADD KECCAK256 PUSH1 0x4 SLOAD PUSH1 0x60 DUP10 ADD MSTORE PUSH1 0x0 DUP2 DUP2 MSTORE PUSH1 0x5 SWAP1 SWAP4 MSTORE DUP2 DUP4 KECCAK256 DUP1 SLOAD PUSH1 0x1 PUSH1 0x1 PUSH1 0xA0 SHL SUB NOT AND PUSH1 0x1 PUSH1 0x1 PUSH1 0xA0 SHL SUB DUP12 AND OR SWAP1 SSTORE SWAP1 MLOAD SWAP1 SWAP3 POP DUP3 SWAP2 PUSH32 0xB5E6E01E79F91267DC17B4E6314D5D4D03593D2CEEE0FBB452B750BD70EA5AF9 SWAP2 LOG2 PUSH1 0x0 DUP3 PUSH1 0x0 DUP1 DUP9 PUSH1 0x0 ADD MLOAD DUP10 PUSH1 0x20 ADD MLOAD DUP11 PUSH1 0x40 ADD MLOAD DUP12 PUSH1 0x60 ADD MLOAD DUP11 DUP14 PUSH1 0x80 ADD MLOAD PUSH1 0x0 ADD MLOAD PUSH1 0x40 MLOAD PUSH1 0x24 ADD PUSH2 0xB0F SWAP9 SWAP8 SWAP7 SWAP6 SWAP5 SWAP4 SWAP3 SWAP2 SWAP1 PUSH2 0x111C JUMP JUMPDEST PUSH1 0x40 DUP1 MLOAD PUSH1 0x1F NOT DUP2 DUP5 SUB ADD DUP2 MSTORE SWAP2 DUP2 MSTORE PUSH1 0x20 DUP3 ADD DUP1 MLOAD PUSH1 0x1 PUSH1 0x1 PUSH1 0xE0 SHL SUB AND PUSH1 0x1 PUSH1 0x1 PUSH1 0xE0 SHL SUB NOT SWAP1 SWAP5 AND SWAP4 SWAP1 SWAP4 OR SWAP1 SWAP3 MSTORE PUSH1 0x2 SLOAD SWAP2 MLOAD PUSH4 0x2000575 PUSH1 0xE5 SHL DUP2 MSTORE SWAP1 SWAP3 POP PUSH1 0x1 PUSH1 0x1 PUSH1 0xA0 SHL SUB SWAP1 SWAP2 AND SWAP1 PUSH4 0x4000AEA0 SWAP1 PUSH2 0xB77 SWAP1 DUP11 SWAP1 DUP10 SWAP1 DUP7 SWAP1 PUSH1 0x4 ADD PUSH2 0x1184 JUMP JUMPDEST PUSH1 0x20 PUSH1 0x40 MLOAD DUP1 DUP4 SUB DUP2 PUSH1 0x0 DUP8 DUP1 EXTCODESIZE ISZERO DUP1 ISZERO PUSH2 0xB91 JUMPI PUSH1 0x0 DUP1 REVERT JUMPDEST POP GAS CALL ISZERO DUP1 ISZERO PUSH2 0xBA5 JUMPI RETURNDATASIZE PUSH1 0x0 DUP1 RETURNDATACOPY RETURNDATASIZE PUSH1 0x0 REVERT JUMPDEST POP POP POP POP PUSH1 0x40 MLOAD RETURNDATASIZE PUSH1 0x1F NOT PUSH1 0x1F DUP3 ADD AND DUP3 ADD DUP1 PUSH1 0x40 MSTORE POP DUP2 ADD SWAP1 PUSH2 0xBC9 SWAP2 SWAP1 PUSH2 0xFA0 JUMP JUMPDEST PUSH2 0xC21 JUMPI PUSH1 0x40 MLOAD PUSH3 0x461BCD PUSH1 0xE5 SHL DUP2 MSTORE PUSH1 0x20 PUSH1 0x4 DUP3 ADD MSTORE PUSH1 0x23 PUSH1 0x24 DUP3 ADD MSTORE PUSH32 0x756E61626C6520746F207472616E73666572416E6443616C6C20746F206F7261 PUSH1 0x44 DUP3 ADD MSTORE PUSH3 0x636C65 PUSH1 0xE8 SHL PUSH1 0x64 DUP3 ADD MSTORE PUSH1 0x84 ADD PUSH2 0x284 JUMP JUMPDEST PUSH1 0x1 PUSH1 0x4 PUSH1 0x0 DUP3 DUP3 SLOAD PUSH2 0xC34 SWAP2 SWAP1 PUSH2 0x1216 JUMP JUMPDEST SWAP1 SWAP2 SSTORE POP SWAP2 SWAP8 SWAP7 POP POP POP POP POP POP POP JUMP JUMPDEST PUSH1 0x40 DUP1 MLOAD DUP1 DUP3 ADD SWAP1 SWAP2 MSTORE PUSH1 0x60 DUP2 MSTORE PUSH1 0x0 PUSH1 0x20 DUP3 ADD MSTORE PUSH2 0x85C DUP4 DUP5 PUSH1 0x0 ADD MLOAD MLOAD DUP5 PUSH2 0xD94 JUMP JUMPDEST PUSH1 0x40 DUP1 MLOAD DUP1 DUP3 ADD SWAP1 SWAP2 MSTORE PUSH1 0x60 DUP2 MSTORE PUSH1 0x0 PUSH1 0x20 DUP3 ADD MSTORE PUSH2 0x8D0 DUP5 DUP6 PUSH1 0x0 ADD MLOAD MLOAD DUP6 DUP6 PUSH2 0xDF0 JUMP JUMPDEST PUSH1 0x40 DUP1 MLOAD DUP1 DUP3 ADD SWAP1 SWAP2 MSTORE PUSH1 0x60 DUP2 MSTORE PUSH1 0x0 PUSH1 0x20 DUP3 ADD MSTORE DUP3 MLOAD DUP3 GT ISZERO PUSH2 0xCB2 JUMPI PUSH1 0x0 DUP1 REVERT JUMPDEST PUSH1 0x20 DUP6 ADD MLOAD PUSH2 0xCC1 DUP4 DUP7 PUSH2 0x1216 JUMP JUMPDEST GT ISZERO PUSH2 0xCF4 JUMPI PUSH2 0xCF4 DUP6 PUSH2 0xCE4 DUP8 PUSH1 0x20 ADD MLOAD DUP8 DUP7 PUSH2 0xCDF SWAP2 SWAP1 PUSH2 0x1216 JUMP JUMPDEST PUSH2 0xE71 JUMP JUMPDEST PUSH2 0xCEF SWAP1 PUSH1 0x2 PUSH2 0x1319 JUMP JUMPDEST PUSH2 0xE88 JUMP JUMPDEST PUSH1 0x0 DUP1 DUP7 MLOAD DUP1 MLOAD DUP8 PUSH1 0x20 DUP4 ADD ADD SWAP4 POP DUP1 DUP9 DUP8 ADD GT ISZERO PUSH2 0xD13 JUMPI DUP8 DUP7 ADD DUP3 MSTORE JUMPDEST POP POP POP PUSH1 0x20 DUP5 ADD JUMPDEST PUSH1 0x20 DUP5 LT PUSH2 0xD53 JUMPI DUP1 MLOAD DUP3 MSTORE PUSH2 0xD32 PUSH1 0x20 DUP4 PUSH2 0x1216 JUMP JUMPDEST SWAP2 POP PUSH2 0xD3F PUSH1 0x20 DUP3 PUSH2 0x1216 JUMP JUMPDEST SWAP1 POP PUSH2 0xD4C PUSH1 0x20 DUP6 PUSH2 0x1338 JUMP JUMPDEST SWAP4 POP PUSH2 0xD1B JUMP JUMPDEST PUSH1 0x0 PUSH1 0x1 PUSH2 0xD62 DUP7 PUSH1 0x20 PUSH2 0x1338 JUMP JUMPDEST PUSH2 0xD6E SWAP1 PUSH2 0x100 PUSH2 0x1271 JUMP JUMPDEST PUSH2 0xD78 SWAP2 SWAP1 PUSH2 0x1338 JUMP JUMPDEST SWAP2 MLOAD DUP4 MLOAD DUP4 AND SWAP3 NOT AND SWAP2 SWAP1 SWAP2 OR SWAP1 SWAP2 MSTORE POP DUP5 SWAP1 POP SWAP5 SWAP4 POP POP POP POP JUMP JUMPDEST PUSH1 0x40 DUP1 MLOAD DUP1 DUP3 ADD SWAP1 SWAP2 MSTORE PUSH1 0x60 DUP2 MSTORE PUSH1 0x0 PUSH1 0x20 DUP3 ADD MSTORE DUP4 PUSH1 0x20 ADD MLOAD DUP4 LT PUSH2 0xDC9 JUMPI PUSH2 0xDC9 DUP5 DUP6 PUSH1 0x20 ADD MLOAD PUSH1 0x2 PUSH2 0xCEF SWAP2 SWAP1 PUSH2 0x1319 JUMP JUMPDEST DUP4 MLOAD DUP1 MLOAD PUSH1 0x20 DUP6 DUP4 ADD ADD DUP5 DUP2 MSTORE8 POP DUP1 DUP6 EQ ISZERO PUSH2 0xDE6 JUMPI PUSH1 0x1 DUP2 ADD DUP3 MSTORE JUMPDEST POP SWAP4 SWAP5 SWAP4 POP POP POP POP JUMP JUMPDEST PUSH1 0x40 DUP1 MLOAD DUP1 DUP3 ADD SWAP1 SWAP2 MSTORE PUSH1 0x60 DUP2 MSTORE PUSH1 0x0 PUSH1 0x20 DUP3 ADD MSTORE PUSH1 0x20 DUP6 ADD MLOAD PUSH2 0xE14 DUP6 DUP5 PUSH2 0x1216 JUMP JUMPDEST GT ISZERO PUSH2 0xE28 JUMPI PUSH2 0xE28 DUP6 PUSH2 0xCE4 DUP7 DUP6 PUSH2 0x1216 JUMP JUMPDEST PUSH1 0x0 PUSH1 0x1 PUSH2 0xE38 DUP5 PUSH2 0x100 PUSH2 0x1271 JUMP JUMPDEST PUSH2 0xE42 SWAP2 SWAP1 PUSH2 0x1338 JUMP JUMPDEST SWAP1 POP DUP6 MLOAD DUP4 DUP7 DUP3 ADD ADD DUP6 DUP4 NOT DUP3 MLOAD AND OR DUP2 MSTORE POP DUP1 MLOAD DUP5 DUP8 ADD GT ISZERO PUSH2 0xE66 JUMPI DUP4 DUP7 ADD DUP2 MSTORE JUMPDEST POP SWAP5 SWAP6 SWAP5 POP POP POP POP POP JUMP JUMPDEST PUSH1 0x0 DUP2 DUP4 GT ISZERO PUSH2 0xE82 JUMPI POP DUP2 PUSH2 0x85F JUMP JUMPDEST POP SWAP2 SWAP1 POP JUMP JUMPDEST DUP2 MLOAD PUSH2 0xE94 DUP4 DUP4 PUSH2 0x8D8 JUMP JUMPDEST POP PUSH2 0x958 DUP4 DUP3 PUSH2 0xA11 JUMP JUMPDEST PUSH1 0x40 DUP1 MLOAD PUSH1 0xA0 DUP2 ADD DUP3 MSTORE PUSH1 0x0 DUP1 DUP3 MSTORE PUSH1 0x20 DUP1 DUP4 ADD DUP3 SWAP1 MSTORE DUP3 DUP5 ADD DUP3 SWAP1 MSTORE PUSH1 0x60 DUP1 DUP5 ADD DUP4 SWAP1 MSTORE DUP5 MLOAD DUP1 DUP7 ADD SWAP1 SWAP6 MSTORE DUP5 MSTORE DUP4 ADD MSTORE SWAP1 PUSH1 0x80 DUP3 ADD MSTORE SWAP1 JUMP JUMPDEST PUSH1 0x0 PUSH8 0xFFFFFFFFFFFFFFFF DUP1 DUP5 GT ISZERO PUSH2 0xEF5 JUMPI PUSH2 0xEF5 PUSH2 0x13BC JUMP JUMPDEST PUSH1 0x40 MLOAD PUSH1 0x1F DUP6 ADD PUSH1 0x1F NOT SWAP1 DUP2 AND PUSH1 0x3F ADD AND DUP2 ADD SWAP1 DUP3 DUP3 GT DUP2 DUP4 LT OR ISZERO PUSH2 0xF1D JUMPI PUSH2 0xF1D PUSH2 0x13BC JUMP JUMPDEST DUP2 PUSH1 0x40 MSTORE DUP1 SWAP4 POP DUP6 DUP2 MSTORE DUP7 DUP7 DUP7 ADD GT ISZERO PUSH2 0xF36 JUMPI PUSH1 0x0 DUP1 REVERT JUMPDEST DUP6 DUP6 PUSH1 0x20 DUP4 ADD CALLDATACOPY PUSH1 0x0 PUSH1 0x20 DUP8 DUP4 ADD ADD MSTORE POP POP POP SWAP4 SWAP3 POP POP POP JUMP JUMPDEST PUSH1 0x0 DUP3 PUSH1 0x1F DUP4 ADD SLT PUSH2 0xF61 JUMPI PUSH1 0x0 DUP1 REVERT JUMPDEST PUSH2 0x85C DUP4 DUP4 CALLDATALOAD PUSH1 0x20 DUP6 ADD PUSH2 0xEDA JUMP JUMPDEST PUSH1 0x0 PUSH1 0x20 DUP3 DUP5 SUB SLT ISZERO PUSH2 0xF82 JUMPI PUSH1 0x0 DUP1 REVERT JUMPDEST DUP2 CALLDATALOAD PUSH1 0x1 PUSH1 0x1 PUSH1 0xA0 SHL SUB DUP2 AND DUP2 EQ PUSH2 0xF99 JUMPI PUSH1 0x0 DUP1 REVERT JUMPDEST SWAP4 SWAP3 POP POP POP JUMP JUMPDEST PUSH1 0x0 PUSH1 0x20 DUP3 DUP5 SUB SLT ISZERO PUSH2 0xFB2 JUMPI PUSH1 0x0 DUP1 REVERT JUMPDEST DUP2 MLOAD DUP1 ISZERO ISZERO DUP2 EQ PUSH2 0xF99 JUMPI PUSH1 0x0 DUP1 REVERT JUMPDEST PUSH1 0x0 PUSH1 0x20 DUP3 DUP5 SUB SLT ISZERO PUSH2 0xFD4 JUMPI PUSH1 0x0 DUP1 REVERT JUMPDEST POP CALLDATALOAD SWAP2 SWAP1 POP JUMP JUMPDEST PUSH1 0x0 DUP1 PUSH1 0x0 DUP1 PUSH1 0x80 DUP6 DUP8 SUB SLT ISZERO PUSH2 0xFF1 JUMPI PUSH1 0x0 DUP1 REVERT JUMPDEST DUP5 CALLDATALOAD SWAP4 POP PUSH1 0x20 DUP6 ADD CALLDATALOAD PUSH8 0xFFFFFFFFFFFFFFFF DUP1 DUP3 GT ISZERO PUSH2 0x1010 JUMPI PUSH1 0x0 DUP1 REVERT JUMPDEST PUSH2 0x101C DUP9 DUP4 DUP10 ADD PUSH2 0xF50 JUMP JUMPDEST SWAP5 POP PUSH1 0x40 DUP8 ADD CALLDATALOAD SWAP2 POP DUP1 DUP3 GT ISZERO PUSH2 0x1032 JUMPI PUSH1 0x0 DUP1 REVERT JUMPDEST PUSH2 0x103E DUP9 DUP4 DUP10 ADD PUSH2 0xF50 JUMP JUMPDEST SWAP4 POP PUSH1 0x60 DUP8 ADD CALLDATALOAD SWAP2 POP DUP1 DUP3 GT ISZERO PUSH2 0x1054 JUMPI PUSH1 0x0 DUP1 REVERT JUMPDEST POP PUSH2 0x1061 DUP8 DUP3 DUP9 ADD PUSH2 0xF50 JUMP JUMPDEST SWAP2 POP POP SWAP3 SWAP6 SWAP2 SWAP5 POP SWAP3 POP JUMP JUMPDEST PUSH1 0x0 PUSH1 0x20 DUP3 DUP5 SUB SLT ISZERO PUSH2 0x107F JUMPI PUSH1 0x0 DUP1 REVERT JUMPDEST DUP2 CALLDATALOAD PUSH8 0xFFFFFFFFFFFFFFFF DUP2 GT ISZERO PUSH2 0x1096 JUMPI PUSH1 0x0 DUP1 REVERT JUMPDEST DUP3 ADD PUSH1 0x1F DUP2 ADD DUP5 SGT PUSH2 0x10A7 JUMPI PUSH1 0x0 DUP1 REVERT JUMPDEST PUSH2 0x8D0 DUP5 DUP3 CALLDATALOAD PUSH1 0x20 DUP5 ADD PUSH2 0xEDA JUMP JUMPDEST PUSH1 0x0 PUSH1 0x20 DUP3 DUP5 SUB SLT ISZERO PUSH2 0x10C8 JUMPI PUSH1 0x0 DUP1 REVERT JUMPDEST POP MLOAD SWAP2 SWAP1 POP JUMP JUMPDEST PUSH1 0x0 DUP2 MLOAD DUP1 DUP5 MSTORE PUSH1 0x0 JUMPDEST DUP2 DUP2 LT ISZERO PUSH2 0x10F5 JUMPI PUSH1 0x20 DUP2 DUP6 ADD DUP2 ADD MLOAD DUP7 DUP4 ADD DUP3 ADD MSTORE ADD PUSH2 0x10D9 JUMP JUMPDEST DUP2 DUP2 GT ISZERO PUSH2 0x1107 JUMPI PUSH1 0x0 PUSH1 0x20 DUP4 DUP8 ADD ADD MSTORE JUMPDEST POP PUSH1 0x1F ADD PUSH1 0x1F NOT AND SWAP3 SWAP1 SWAP3 ADD PUSH1 0x20 ADD SWAP3 SWAP2 POP POP JUMP JUMPDEST PUSH1 0x1 PUSH1 0x1 PUSH1 0xA0 SHL SUB DUP10 DUP2 AND DUP3 MSTORE PUSH1 0x20 DUP3 ADD DUP10 SWAP1 MSTORE PUSH1 0x40 DUP3 ADD DUP9 SWAP1 MSTORE DUP7 AND PUSH1 0x60 DUP3 ADD MSTORE PUSH1 0x1 PUSH1 0x1 PUSH1 0xE0 SHL SUB NOT DUP6 AND PUSH1 0x80 DUP3 ADD MSTORE PUSH1 0xA0 DUP2 ADD DUP5 SWAP1 MSTORE PUSH1 0xC0 DUP2 ADD DUP4 SWAP1 MSTORE PUSH2 0x100 PUSH1 0xE0 DUP3 ADD DUP2 SWAP1 MSTORE PUSH1 0x0 SWAP1 PUSH2 0x1175 DUP4 DUP3 ADD DUP6 PUSH2 0x10CF JUMP JUMPDEST SWAP12 SWAP11 POP POP POP POP POP POP POP POP POP POP POP JUMP JUMPDEST PUSH1 0x1 DUP1 PUSH1 0xA0 SHL SUB DUP5 AND DUP2 MSTORE DUP3 PUSH1 0x20 DUP3 ADD MSTORE PUSH1 0x60 PUSH1 0x40 DUP3 ADD MSTORE PUSH1 0x0 PUSH2 0x816 PUSH1 0x60 DUP4 ADD DUP5 PUSH2 0x10CF JUMP JUMPDEST PUSH1 0x20 DUP2 MSTORE PUSH1 0x0 PUSH2 0x85C PUSH1 0x20 DUP4 ADD DUP5 PUSH2 0x10CF JUMP JUMPDEST PUSH1 0x80 DUP2 MSTORE PUSH1 0x0 PUSH2 0x11D1 PUSH1 0x80 DUP4 ADD DUP8 PUSH2 0x10CF JUMP JUMPDEST DUP3 DUP2 SUB PUSH1 0x20 DUP5 ADD MSTORE PUSH2 0x11E3 DUP2 DUP8 PUSH2 0x10CF JUMP JUMPDEST SWAP1 POP DUP3 DUP2 SUB PUSH1 0x40 DUP5 ADD MSTORE PUSH2 0x11F7 DUP2 DUP7 PUSH2 0x10CF JUMP JUMPDEST SWAP1 POP DUP3 DUP2 SUB PUSH1 0x60 DUP5 ADD MSTORE PUSH2 0x120B DUP2 DUP6 PUSH2 0x10CF JUMP JUMPDEST SWAP8 SWAP7 POP POP POP POP POP POP POP JUMP JUMPDEST PUSH1 0x0 DUP3 NOT DUP3 GT ISZERO PUSH2 0x1229 JUMPI PUSH2 0x1229 PUSH2 0x13A6 JUMP JUMPDEST POP ADD SWAP1 JUMP JUMPDEST PUSH1 0x1 DUP2 DUP2 JUMPDEST DUP1 DUP6 GT ISZERO PUSH2 0x1269 JUMPI DUP2 PUSH1 0x0 NOT DIV DUP3 GT ISZERO PUSH2 0x124F JUMPI PUSH2 0x124F PUSH2 0x13A6 JUMP JUMPDEST DUP1 DUP6 AND ISZERO PUSH2 0x125C JUMPI SWAP2 DUP2 MUL SWAP2 JUMPDEST SWAP4 DUP5 SHR SWAP4 SWAP1 DUP1 MUL SWAP1 PUSH2 0x1233 JUMP JUMPDEST POP SWAP3 POP SWAP3 SWAP1 POP JUMP JUMPDEST PUSH1 0x0 PUSH2 0x85C DUP4 DUP4 PUSH1 0x0 DUP3 PUSH2 0x1287 JUMPI POP PUSH1 0x1 PUSH2 0x85F JUMP JUMPDEST DUP2 PUSH2 0x1294 JUMPI POP PUSH1 0x0 PUSH2 0x85F JUMP JUMPDEST DUP2 PUSH1 0x1 DUP2 EQ PUSH2 0x12AA JUMPI PUSH1 0x2 DUP2 EQ PUSH2 0x12B4 JUMPI PUSH2 0x12D0 JUMP JUMPDEST PUSH1 0x1 SWAP2 POP POP PUSH2 0x85F JUMP JUMPDEST PUSH1 0xFF DUP5 GT ISZERO PUSH2 0x12C5 JUMPI PUSH2 0x12C5 PUSH2 0x13A6 JUMP JUMPDEST POP POP PUSH1 0x1 DUP3 SHL PUSH2 0x85F JUMP JUMPDEST POP PUSH1 0x20 DUP4 LT PUSH2 0x133 DUP4 LT AND PUSH1 0x4E DUP5 LT PUSH1 0xB DUP5 LT AND OR ISZERO PUSH2 0x12F3 JUMPI POP DUP2 DUP2 EXP PUSH2 0x85F JUMP JUMPDEST PUSH2 0x12FD DUP4 DUP4 PUSH2 0x122E JUMP JUMPDEST DUP1 PUSH1 0x0 NOT DIV DUP3 GT ISZERO PUSH2 0x1311 JUMPI PUSH2 0x1311 PUSH2 0x13A6 JUMP JUMPDEST MUL SWAP4 SWAP3 POP POP POP JUMP JUMPDEST PUSH1 0x0 DUP2 PUSH1 0x0 NOT DIV DUP4 GT DUP3 ISZERO ISZERO AND ISZERO PUSH2 0x1333 JUMPI PUSH2 0x1333 PUSH2 0x13A6 JUMP JUMPDEST POP MUL SWAP1 JUMP JUMPDEST PUSH1 0x0 DUP3 DUP3 LT ISZERO PUSH2 0x134A JUMPI PUSH2 0x134A PUSH2 0x13A6 JUMP JUMPDEST POP SUB SWAP1 JUMP JUMPDEST PUSH1 0x1 DUP2 DUP2 SHR SWAP1 DUP3 AND DUP1 PUSH2 0x1363 JUMPI PUSH1 0x7F DUP3 AND SWAP2 POP JUMPDEST PUSH1 0x20 DUP3 LT DUP2 EQ ISZERO PUSH2 0xE82 JUMPI PUSH4 0x4E487B71 PUSH1 0xE0 SHL PUSH1 0x0 MSTORE PUSH1 0x22 PUSH1 0x4 MSTORE PUSH1 0x24 PUSH1 0x0 REVERT JUMPDEST PUSH1 0x0 DUP3 PUSH2 0x13A1 JUMPI PUSH4 0x4E487B71 PUSH1 0xE0 SHL PUSH1 0x0 MSTORE PUSH1 0x12 PUSH1 0x4 MSTORE PUSH1 0x24 PUSH1 0x0 REVERT JUMPDEST POP MOD SWAP1 JUMP JUMPDEST PUSH4 0x4E487B71 PUSH1 0xE0 SHL PUSH1 0x0 MSTORE PUSH1 0x11 PUSH1 0x4 MSTORE PUSH1 0x24 PUSH1 0x0 REVERT JUMPDEST PUSH4 0x4E487B71 PUSH1 0xE0 SHL PUSH1 0x0 MSTORE PUSH1 0x41 PUSH1 0x4 MSTORE PUSH1 0x24 PUSH1 0x0 REVERT INVALID LOG2 PUSH5 0x6970667358 0x22 SLT KECCAK256 0xCE PUSH17 0x32BDF4F601BA996E894D24123D3FF8384E GAS MSTORE 0xB8 0xF7 DUP15 CHAINID RETURN 0xF7 0xCD 0xBB 0xF7 0xEE CALLDATACOPY PUSH5 0x736F6C6343 STOP ADDMOD SMOD STOP CALLER ","sha1":"119fcc38dad0602b4de21af46743242265da6bc7","source":"//SPDX-License-Identifier: MIT\npragma solidity ^0.8.0;\n\nimport \"@chainlink/contracts/src/v0.8/ChainlinkClient.sol\";\nimport \"../interfaces/IERC20.sol\";\n\ncontract Consumer is ChainlinkClient {\n  using Chainlink for Chainlink.Request;\n\n  string public weapons;\n  string public attire;\n  string public accessories;\n  uint public fee = 1000;\n  mapping  (bytes32 => address) public idToUser;\n  mapping  (bytes32 => ItemSet) public idToItemSet;\n  mapping (address => ItemSet) public userToItems;\n  uint256 payment = 100000000000000;\n  bytes32 specId = \"b61b4d719ab04199882c6a8ac3c51861\";\n\n  struct ItemSet {\n    string theme;\n    string weapons;\n    string armor;\n    string accessories;\n  }\n\n  constructor(\n  ) {\n    setChainlinkToken(0xa36085F69e2889c224210F603D836748e7dC0088);\n    setChainlinkOracle(0x45Fd8dF7E9348b14AfC145599F719DbE27977Fd9);\n    \n  }\n\n  function requestBytes(string memory _prompt\n  )\n    public\n    returns (bytes32)\n  {\n    // require(msg.value >= fee, \"Include fee in transaction\");\n    // require(IERC20(0xa36085F69e2889c224210F603D836748e7dC0088).balanceOf(address(this)) >= payment, \"Not enough link\");\n    Chainlink.Request memory req = buildChainlinkRequest(specId, address(this), this.fulfill.selector);\n    req.add(\"prompt\", _prompt);\n\n    // bytes32 reqId = sendChainlinkRequestTo(0x45Fd8dF7E9348b14AfC145599F719DbE27977Fd9, req, payment);\n    // idToUser[reqId] = msg.sender;\n    bytes32 id = requestOracleData(req, payment);\n    idToUser[id] = msg.sender;\n \n  }\n\n\n\n  event doSomethingPLEASE(bytes32 Id);\n\n  \n  function fulfill(\n    bytes32 requestId,\n    bytes memory _weapons,\n    bytes memory _attire,\n    bytes memory _accessories\n  )\n    public\n    recordChainlinkFulfillment(requestId)\n  {\n    emit doSomethingPLEASE(requestId);\n    // weapons = string(_weapons);\n    // attire = string(_attire);\n    // accessories = string(_accessories);\n    ItemSet memory items;\n    items.theme = \"\";\n    items.weapons = string(_weapons);\n    items.armor = string(_attire);\n    items.accessories = string(_accessories);\n    address requester = idToUser[requestId];\n    // userToItems[requester] = items;\n    // emit doSomethingPLEASE(requestId);\n    // emit doSomethingPLEASE(requestId);\n\n  }\n \n  \n  function withdrawLink() public {\n    uint256 bal = IERC20(0xa36085F69e2889c224210F603D836748e7dC0088).balanceOf(address(this));\n    IERC20(0xa36085F69e2889c224210F603D836748e7dC0088).transfer(msg.sender, bal);\n  }\n  \n  receive() external payable {}\n\n}\n","sourcePath":"contracts/Consumer.sol","deployment":{"address":"0xD29d5201BcDc196f3257C69548B60157061090d8","chainid":"42","blockHeight":27486003}}