{"bytecode":"60806040526001600455670de0b6b3a764000060085534801561002157600080fd5b50600280546001600160a01b03191673a36085f69e2889c224210f603d836748e7dc0088179055600380546001600160a01b031916731ffc49dd5c2dd374ff2967f0ffd90607b0c04da5179055610f878061007d6000396000f3fe60806040526004361061004e5760003560e01c806373d4a13a1461005a5780637a7f01a714610085578063c2fb85231461009a578063ddca3f43146100bc578063f5094c9d146100e057600080fd5b3661005557005b600080fd5b34801561006657600080fd5b5061006f6100f3565b60405161007c9190610d56565b60405180910390f35b34801561009157600080fd5b5061006f610181565b3480156100a657600080fd5b506100ba6100b5366004610bdb565b61018e565b005b3480156100c857600080fd5b506100d260085481565b60405190815260200161007c565b6100ba6100ee366004610c36565b6102c4565b6006805461010090610ece565b80601f016020809104026020016040519081016040528092919081815260200182805461012c90610ece565b80156101795780601f1061014e57610100808354040283529160200191610179565b820191906000526020600020905b81548152906001019060200180831161015c57829003601f168201915b505050505081565b6007805461010090610ece565b60008281526005602052604090205482906001600160a01b0316331461020c5760405162461bcd60e51b815260206004820152602860248201527f536f75726365206d75737420626520746865206f7261636c65206f6620746865604482015267081c995c5d595cdd60c21b60648201526084015b60405180910390fd5b60008181526005602052604080822080546001600160a01b03191690555182917f7cc135e0cebb02c3480ae5d74d377283180a2601f8f644edf7987b009316c63a91a28160405161025d9190610cab565b6040519081900381209084907f1a111c5dcf9a71088bd5e1797fdfaf399fec2afbb24aca247e4e3e9f4b61df9190600090a381516102a29060069060208501906109ed565b50600660079080546102b390610ece565b6102be929190610a71565b50505050565b6008543410156102d357600080fd5b7f3332363064336561623464343462383662646361643039613936343637343361670de0b6b3a76400006000610311833063c2fb852360e01b61034e565b6040805180820190915260068152651c1c9bdb5c1d60d21b602082015290915061033d90829086610373565b6103478183610396565b5050505050565b610356610aec565b61035e610aec565b61036a818686866103b9565b95945050505050565b608083015161038290836103f6565b608083015161039190826103f6565b505050565b6003546000906103b0906001600160a01b0316848461040d565b90505b92915050565b6103c1610aec565b6103d1856080015161010061042c565b50509183526001600160a01b031660208301526001600160e01b031916604082015290565b6104038260038351610491565b610391828261055f565b600061042484848460026336f43ceb60e11b610586565b949350505050565b60408051808201909152606081526000602082015261044c602083610f03565b156104745761045c602083610f03565b610467906020610e8b565b6104719083610d69565b91505b506020828101829052604080518085526000815290920101905290565b601781116104ac576102be8360e0600585901b168317610792565b60ff81116104d6576104c9836018611fe0600586901b1617610792565b506102be838260016107b7565b61ffff8111610501576104f4836019611fe0600586901b1617610792565b506102be838260026107b7565b63ffffffff811161052e5761052183601a611fe0600586901b1617610792565b506102be838260046107b7565b67ffffffffffffffff81116103915761055283601b611fe0600586901b1617610792565b506102be838260086107b7565b6040805180820190915260608152600060208201526103b0838460000151518485516107dd565b6004546040516bffffffffffffffffffffffff193060601b166020820152603481019190915260009060540160408051808303601f19018152918152815160209283012060045460608901526000818152600590935281832080546001600160a01b0319166001600160a01b038b16179055905190925082917fb5e6e01e79f91267dc17b4e6314d5d4d03593d2ceee0fbb452b750bd70ea5af991a2600082600080886000015189602001518a604001518b606001518a8d608001516000015160405160240161065d989796959493929190610cc7565b60408051601f198184030181529181526020820180516001600160e01b03166001600160e01b0319909416939093179092526002549151630200057560e51b81529092506001600160a01b0390911690634000aea0906106c5908a9089908690600401610d2f565b602060405180830381600087803b1580156106df57600080fd5b505af11580156106f3573d6000803e3d6000fd5b505050506040513d601f19601f820116820180604052508101906107179190610bb2565b61076f5760405162461bcd60e51b815260206004820152602360248201527f756e61626c6520746f207472616e73666572416e6443616c6c20746f206f7261604482015262636c6560e81b6064820152608401610203565b6001600460008282546107829190610d69565b9091555091979650505050505050565b6040805180820190915260608152600060208201526103b083846000015151846108e2565b60408051808201909152606081526000602082015261042484856000015151858561093e565b604080518082019091526060815260006020820152825182111561080057600080fd5b602085015161080f8386610d69565b111561084257610842856108328760200151878661082d9190610d69565b6109bf565b61083d906002610e6c565b6109d6565b6000808651805187602083010193508088870111156108615787860182525b505050602084015b602084106108a15780518252610880602083610d69565b915061088d602082610d69565b905061089a602085610e8b565b9350610869565b600060016108b0866020610e8b565b6108bc90610100610dc4565b6108c69190610e8b565b9151835183169219169190911790915250849050949350505050565b6040805180820190915260608152600060208201528360200151831061091757610917848560200151600261083d9190610e6c565b835180516020858301018481535080851415610934576001810182525b5093949350505050565b60408051808201909152606081526000602082015260208501516109628584610d69565b111561097657610976856108328685610d69565b6000600161098684610100610dc4565b6109909190610e8b565b90508551838682010185831982511617815250805184870111156109b45783860181525b509495945050505050565b6000818311156109d05750816103b3565b50919050565b81516109e2838361042c565b506102be838261055f565b8280546109f990610ece565b90600052602060002090601f016020900481019282610a1b5760008555610a61565b82601f10610a3457805160ff1916838001178555610a61565b82800160010185558215610a61579182015b82811115610a61578251825591602001919060010190610a46565b50610a6d929150610b27565b5090565b828054610a7d90610ece565b90600052602060002090601f016020900481019282610a9f5760008555610a61565b82601f10610ab05780548555610a61565b82800160010185558215610a6157600052602060002091601f016020900482015b82811115610a61578254825591600101919060010190610ad1565b6040805160a0810182526000808252602080830182905282840182905260608084018390528451808601909552845283015290608082015290565b5b80821115610a6d5760008155600101610b28565b600067ffffffffffffffff80841115610b5757610b57610f3b565b604051601f8501601f19908116603f01168101908282118183101715610b7f57610b7f610f3b565b81604052809350858152868686011115610b9857600080fd5b858560208301376000602087830101525050509392505050565b600060208284031215610bc457600080fd5b81518015158114610bd457600080fd5b9392505050565b60008060408385031215610bee57600080fd5b82359150602083013567ffffffffffffffff811115610c0c57600080fd5b8301601f81018513610c1d57600080fd5b610c2c85823560208401610b3c565b9150509250929050565b600060208284031215610c4857600080fd5b813567ffffffffffffffff811115610c5f57600080fd5b8201601f81018413610c7057600080fd5b61042484823560208401610b3c565b60008151808452610c97816020860160208601610ea2565b601f01601f19169290920160200192915050565b60008251610cbd818460208701610ea2565b9190910192915050565b6001600160a01b0389811682526020820189905260408201889052861660608201526001600160e01b03198516608082015260a0810184905260c0810183905261010060e08201819052600090610d2083820185610c7f565b9b9a5050505050505050505050565b60018060a01b038416815282602082015260606040820152600061036a6060830184610c7f565b6020815260006103b06020830184610c7f565b60008219821115610d7c57610d7c610f25565b500190565b600181815b80851115610dbc578160001904821115610da257610da2610f25565b80851615610daf57918102915b93841c9390800290610d86565b509250929050565b60006103b08383600082610dda575060016103b3565b81610de7575060006103b3565b8160018114610dfd5760028114610e0757610e23565b60019150506103b3565b60ff841115610e1857610e18610f25565b50506001821b6103b3565b5060208310610133831016604e8410600b8410161715610e46575081810a6103b3565b610e508383610d81565b8060001904821115610e6457610e64610f25565b029392505050565b6000816000190483118215151615610e8657610e86610f25565b500290565b600082821015610e9d57610e9d610f25565b500390565b60005b83811015610ebd578181015183820152602001610ea5565b838111156102be5750506000910152565b600181811c90821680610ee257607f821691505b602082108114156109d057634e487b7160e01b600052602260045260246000fd5b600082610f2057634e487b7160e01b600052601260045260246000fd5b500690565b634e487b7160e01b600052601160045260246000fd5b634e487b7160e01b600052604160045260246000fdfea26469706673582212204a31302929bde3567d1834d7011f401c40a06a235b995a2b9f4c91e42a62e4c964736f6c63430008070033","bytecodeSha1":"c609bc6ac0a4398b6cf3bfcf488d9cbb646e0195","type":"contract","abi":[{"inputs":[],"stateMutability":"nonpayable","type":"constructor","name":"constructor"},{"anonymous":false,"inputs":[{"indexed":true,"internalType":"bytes32","name":"id","type":"bytes32"}],"name":"ChainlinkCancelled","type":"event"},{"anonymous":false,"inputs":[{"indexed":true,"internalType":"bytes32","name":"id","type":"bytes32"}],"name":"ChainlinkFulfilled","type":"event"},{"anonymous":false,"inputs":[{"indexed":true,"internalType":"bytes32","name":"id","type":"bytes32"}],"name":"ChainlinkRequested","type":"event"},{"anonymous":false,"inputs":[{"indexed":true,"internalType":"bytes32","name":"requestId","type":"bytes32"},{"indexed":true,"internalType":"bytes","name":"data","type":"bytes"}],"name":"RequestFulfilled","type":"event"},{"inputs":[],"name":"data","outputs":[{"internalType":"bytes","name":"","type":"bytes"}],"stateMutability":"view","type":"function"},{"inputs":[],"name":"fee","outputs":[{"internalType":"uint256","name":"","type":"uint256"}],"stateMutability":"view","type":"function"},{"inputs":[{"internalType":"bytes32","name":"requestId","type":"bytes32"},{"internalType":"bytes","name":"bytesData","type":"bytes"}],"name":"fulfillBytes","outputs":[],"stateMutability":"nonpayable","type":"function"},{"inputs":[{"internalType":"string","name":"_prompt","type":"string"}],"name":"requestBytes","outputs":[],"stateMutability":"payable","type":"function"},{"inputs":[],"name":"response","outputs":[{"internalType":"string","name":"","type":"string"}],"stateMutability":"view","type":"function"},{"stateMutability":"payable","type":"receive"}],"compiler":{"version":"0.8.7+commit.e28d00a7","evm_version":"istanbul","optimizer":{"enabled":true,"runs":200}},"contractName":"Consumer","language":"Solidity","natspec":{"methods":{"constructor":{"notice":"Initialize the link token and target oracle","details":"The oracle address must be an Operator contract for multiword response Kovan Testnet details:  Link Token: 0xa36085F69e2889c224210F603D836748e7dC0088 Oracle: "},"fulfillBytes(bytes32,bytes)":{"notice":"Fulfillment function for variable bytes","details":"This is called by the oracle. recordChainlinkFulfillment must be used."},"requestBytes(string)":{"notice":"Request variable bytes from the oracle"}},"kind":"dev","notice":"DO NOT USE THIS CODE IN PRODUCTION. This is an example contract. ","version":1},"opcodes":"PUSH1 0x80 PUSH1 0x40 MSTORE PUSH1 0x4 CALLDATASIZE LT PUSH2 0x4E JUMPI PUSH1 0x0 CALLDATALOAD PUSH1 0xE0 SHR DUP1 PUSH4 0x73D4A13A EQ PUSH2 0x5A JUMPI DUP1 PUSH4 0x7A7F01A7 EQ PUSH2 0x85 JUMPI DUP1 PUSH4 0xC2FB8523 EQ PUSH2 0x9A JUMPI DUP1 PUSH4 0xDDCA3F43 EQ PUSH2 0xBC JUMPI DUP1 PUSH4 0xF5094C9D EQ PUSH2 0xE0 JUMPI PUSH1 0x0 DUP1 REVERT JUMPDEST CALLDATASIZE PUSH2 0x55 JUMPI STOP JUMPDEST PUSH1 0x0 DUP1 REVERT JUMPDEST CALLVALUE DUP1 ISZERO PUSH2 0x66 JUMPI PUSH1 0x0 DUP1 REVERT JUMPDEST POP PUSH2 0x6F PUSH2 0xF3 JUMP JUMPDEST PUSH1 0x40 MLOAD PUSH2 0x7C SWAP2 SWAP1 PUSH2 0xD56 JUMP JUMPDEST PUSH1 0x40 MLOAD DUP1 SWAP2 SUB SWAP1 RETURN JUMPDEST CALLVALUE DUP1 ISZERO PUSH2 0x91 JUMPI PUSH1 0x0 DUP1 REVERT JUMPDEST POP PUSH2 0x6F PUSH2 0x181 JUMP JUMPDEST CALLVALUE DUP1 ISZERO PUSH2 0xA6 JUMPI PUSH1 0x0 DUP1 REVERT JUMPDEST POP PUSH2 0xBA PUSH2 0xB5 CALLDATASIZE PUSH1 0x4 PUSH2 0xBDB JUMP JUMPDEST PUSH2 0x18E JUMP JUMPDEST STOP JUMPDEST CALLVALUE DUP1 ISZERO PUSH2 0xC8 JUMPI PUSH1 0x0 DUP1 REVERT JUMPDEST POP PUSH2 0xD2 PUSH1 0x8 SLOAD DUP2 JUMP JUMPDEST PUSH1 0x40 MLOAD SWAP1 DUP2 MSTORE PUSH1 0x20 ADD PUSH2 0x7C JUMP JUMPDEST PUSH2 0xBA PUSH2 0xEE CALLDATASIZE PUSH1 0x4 PUSH2 0xC36 JUMP JUMPDEST PUSH2 0x2C4 JUMP JUMPDEST PUSH1 0x6 DUP1 SLOAD PUSH2 0x100 SWAP1 PUSH2 0xECE JUMP JUMPDEST DUP1 PUSH1 0x1F ADD PUSH1 0x20 DUP1 SWAP2 DIV MUL PUSH1 0x20 ADD PUSH1 0x40 MLOAD SWAP1 DUP2 ADD PUSH1 0x40 MSTORE DUP1 SWAP3 SWAP2 SWAP1 DUP2 DUP2 MSTORE PUSH1 0x20 ADD DUP3 DUP1 SLOAD PUSH2 0x12C SWAP1 PUSH2 0xECE JUMP JUMPDEST DUP1 ISZERO PUSH2 0x179 JUMPI DUP1 PUSH1 0x1F LT PUSH2 0x14E JUMPI PUSH2 0x100 DUP1 DUP4 SLOAD DIV MUL DUP4 MSTORE SWAP2 PUSH1 0x20 ADD SWAP2 PUSH2 0x179 JUMP JUMPDEST DUP3 ADD SWAP2 SWAP1 PUSH1 0x0 MSTORE PUSH1 0x20 PUSH1 0x0 KECCAK256 SWAP1 JUMPDEST DUP2 SLOAD DUP2 MSTORE SWAP1 PUSH1 0x1 ADD SWAP1 PUSH1 0x20 ADD DUP1 DUP4 GT PUSH2 0x15C JUMPI DUP3 SWAP1 SUB PUSH1 0x1F AND DUP3 ADD SWAP2 JUMPDEST POP POP POP POP POP DUP2 JUMP JUMPDEST PUSH1 0x7 DUP1 SLOAD PUSH2 0x100 SWAP1 PUSH2 0xECE JUMP JUMPDEST PUSH1 0x0 DUP3 DUP2 MSTORE PUSH1 0x5 PUSH1 0x20 MSTORE PUSH1 0x40 SWAP1 KECCAK256 SLOAD DUP3 SWAP1 PUSH1 0x1 PUSH1 0x1 PUSH1 0xA0 SHL SUB AND CALLER EQ PUSH2 0x20C JUMPI PUSH1 0x40 MLOAD PUSH3 0x461BCD PUSH1 0xE5 SHL DUP2 MSTORE PUSH1 0x20 PUSH1 0x4 DUP3 ADD MSTORE PUSH1 0x28 PUSH1 0x24 DUP3 ADD MSTORE PUSH32 0x536F75726365206D75737420626520746865206F7261636C65206F6620746865 PUSH1 0x44 DUP3 ADD MSTORE PUSH8 0x81C995C5D595CDD PUSH1 0xC2 SHL PUSH1 0x64 DUP3 ADD MSTORE PUSH1 0x84 ADD JUMPDEST PUSH1 0x40 MLOAD DUP1 SWAP2 SUB SWAP1 REVERT JUMPDEST PUSH1 0x0 DUP2 DUP2 MSTORE PUSH1 0x5 PUSH1 0x20 MSTORE PUSH1 0x40 DUP1 DUP3 KECCAK256 DUP1 SLOAD PUSH1 0x1 PUSH1 0x1 PUSH1 0xA0 SHL SUB NOT AND SWAP1 SSTORE MLOAD DUP3 SWAP2 PUSH32 0x7CC135E0CEBB02C3480AE5D74D377283180A2601F8F644EDF7987B009316C63A SWAP2 LOG2 DUP2 PUSH1 0x40 MLOAD PUSH2 0x25D SWAP2 SWAP1 PUSH2 0xCAB JUMP JUMPDEST PUSH1 0x40 MLOAD SWAP1 DUP2 SWAP1 SUB DUP2 KECCAK256 SWAP1 DUP5 SWAP1 PUSH32 0x1A111C5DCF9A71088BD5E1797FDFAF399FEC2AFBB24ACA247E4E3E9F4B61DF91 SWAP1 PUSH1 0x0 SWAP1 LOG3 DUP2 MLOAD PUSH2 0x2A2 SWAP1 PUSH1 0x6 SWAP1 PUSH1 0x20 DUP6 ADD SWAP1 PUSH2 0x9ED JUMP JUMPDEST POP PUSH1 0x6 PUSH1 0x7 SWAP1 DUP1 SLOAD PUSH2 0x2B3 SWAP1 PUSH2 0xECE JUMP JUMPDEST PUSH2 0x2BE SWAP3 SWAP2 SWAP1 PUSH2 0xA71 JUMP JUMPDEST POP POP POP POP JUMP JUMPDEST PUSH1 0x8 SLOAD CALLVALUE LT ISZERO PUSH2 0x2D3 JUMPI PUSH1 0x0 DUP1 REVERT JUMPDEST PUSH32 0x3332363064336561623464343462383662646361643039613936343637343361 PUSH8 0xDE0B6B3A7640000 PUSH1 0x0 PUSH2 0x311 DUP4 ADDRESS PUSH4 0xC2FB8523 PUSH1 0xE0 SHL PUSH2 0x34E JUMP JUMPDEST PUSH1 0x40 DUP1 MLOAD DUP1 DUP3 ADD SWAP1 SWAP2 MSTORE PUSH1 0x6 DUP2 MSTORE PUSH6 0x1C1C9BDB5C1D PUSH1 0xD2 SHL PUSH1 0x20 DUP3 ADD MSTORE SWAP1 SWAP2 POP PUSH2 0x33D SWAP1 DUP3 SWAP1 DUP7 PUSH2 0x373 JUMP JUMPDEST PUSH2 0x347 DUP2 DUP4 PUSH2 0x396 JUMP JUMPDEST POP POP POP POP POP JUMP JUMPDEST PUSH2 0x356 PUSH2 0xAEC JUMP JUMPDEST PUSH2 0x35E PUSH2 0xAEC JUMP JUMPDEST PUSH2 0x36A DUP2 DUP7 DUP7 DUP7 PUSH2 0x3B9 JUMP JUMPDEST SWAP6 SWAP5 POP POP POP POP POP JUMP JUMPDEST PUSH1 0x80 DUP4 ADD MLOAD PUSH2 0x382 SWAP1 DUP4 PUSH2 0x3F6 JUMP JUMPDEST PUSH1 0x80 DUP4 ADD MLOAD PUSH2 0x391 SWAP1 DUP3 PUSH2 0x3F6 JUMP JUMPDEST POP POP POP JUMP JUMPDEST PUSH1 0x3 SLOAD PUSH1 0x0 SWAP1 PUSH2 0x3B0 SWAP1 PUSH1 0x1 PUSH1 0x1 PUSH1 0xA0 SHL SUB AND DUP5 DUP5 PUSH2 0x40D JUMP JUMPDEST SWAP1 POP JUMPDEST SWAP3 SWAP2 POP POP JUMP JUMPDEST PUSH2 0x3C1 PUSH2 0xAEC JUMP JUMPDEST PUSH2 0x3D1 DUP6 PUSH1 0x80 ADD MLOAD PUSH2 0x100 PUSH2 0x42C JUMP JUMPDEST POP POP SWAP2 DUP4 MSTORE PUSH1 0x1 PUSH1 0x1 PUSH1 0xA0 SHL SUB AND PUSH1 0x20 DUP4 ADD MSTORE PUSH1 0x1 PUSH1 0x1 PUSH1 0xE0 SHL SUB NOT AND PUSH1 0x40 DUP3 ADD MSTORE SWAP1 JUMP JUMPDEST PUSH2 0x403 DUP3 PUSH1 0x3 DUP4 MLOAD PUSH2 0x491 JUMP JUMPDEST PUSH2 0x391 DUP3 DUP3 PUSH2 0x55F JUMP JUMPDEST PUSH1 0x0 PUSH2 0x424 DUP5 DUP5 DUP5 PUSH1 0x2 PUSH4 0x36F43CEB PUSH1 0xE1 SHL PUSH2 0x586 JUMP JUMPDEST SWAP5 SWAP4 POP POP POP POP JUMP JUMPDEST PUSH1 0x40 DUP1 MLOAD DUP1 DUP3 ADD SWAP1 SWAP2 MSTORE PUSH1 0x60 DUP2 MSTORE PUSH1 0x0 PUSH1 0x20 DUP3 ADD MSTORE PUSH2 0x44C PUSH1 0x20 DUP4 PUSH2 0xF03 JUMP JUMPDEST ISZERO PUSH2 0x474 JUMPI PUSH2 0x45C PUSH1 0x20 DUP4 PUSH2 0xF03 JUMP JUMPDEST PUSH2 0x467 SWAP1 PUSH1 0x20 PUSH2 0xE8B JUMP JUMPDEST PUSH2 0x471 SWAP1 DUP4 PUSH2 0xD69 JUMP JUMPDEST SWAP2 POP JUMPDEST POP PUSH1 0x20 DUP3 DUP2 ADD DUP3 SWAP1 MSTORE PUSH1 0x40 DUP1 MLOAD DUP1 DUP6 MSTORE PUSH1 0x0 DUP2 MSTORE SWAP1 SWAP3 ADD ADD SWAP1 MSTORE SWAP1 JUMP JUMPDEST PUSH1 0x17 DUP2 GT PUSH2 0x4AC JUMPI PUSH2 0x2BE DUP4 PUSH1 0xE0 PUSH1 0x5 DUP6 SWAP1 SHL AND DUP4 OR PUSH2 0x792 JUMP JUMPDEST PUSH1 0xFF DUP2 GT PUSH2 0x4D6 JUMPI PUSH2 0x4C9 DUP4 PUSH1 0x18 PUSH2 0x1FE0 PUSH1 0x5 DUP7 SWAP1 SHL AND OR PUSH2 0x792 JUMP JUMPDEST POP PUSH2 0x2BE DUP4 DUP3 PUSH1 0x1 PUSH2 0x7B7 JUMP JUMPDEST PUSH2 0xFFFF DUP2 GT PUSH2 0x501 JUMPI PUSH2 0x4F4 DUP4 PUSH1 0x19 PUSH2 0x1FE0 PUSH1 0x5 DUP7 SWAP1 SHL AND OR PUSH2 0x792 JUMP JUMPDEST POP PUSH2 0x2BE DUP4 DUP3 PUSH1 0x2 PUSH2 0x7B7 JUMP JUMPDEST PUSH4 0xFFFFFFFF DUP2 GT PUSH2 0x52E JUMPI PUSH2 0x521 DUP4 PUSH1 0x1A PUSH2 0x1FE0 PUSH1 0x5 DUP7 SWAP1 SHL AND OR PUSH2 0x792 JUMP JUMPDEST POP PUSH2 0x2BE DUP4 DUP3 PUSH1 0x4 PUSH2 0x7B7 JUMP JUMPDEST PUSH8 0xFFFFFFFFFFFFFFFF DUP2 GT PUSH2 0x391 JUMPI PUSH2 0x552 DUP4 PUSH1 0x1B PUSH2 0x1FE0 PUSH1 0x5 DUP7 SWAP1 SHL AND OR PUSH2 0x792 JUMP JUMPDEST POP PUSH2 0x2BE DUP4 DUP3 PUSH1 0x8 PUSH2 0x7B7 JUMP JUMPDEST PUSH1 0x40 DUP1 MLOAD DUP1 DUP3 ADD SWAP1 SWAP2 MSTORE PUSH1 0x60 DUP2 MSTORE PUSH1 0x0 PUSH1 0x20 DUP3 ADD MSTORE PUSH2 0x3B0 DUP4 DUP5 PUSH1 0x0 ADD MLOAD MLOAD DUP5 DUP6 MLOAD PUSH2 0x7DD JUMP JUMPDEST PUSH1 0x4 SLOAD PUSH1 0x40 MLOAD PUSH12 0xFFFFFFFFFFFFFFFFFFFFFFFF NOT ADDRESS PUSH1 0x60 SHL AND PUSH1 0x20 DUP3 ADD MSTORE PUSH1 0x34 DUP2 ADD SWAP2 SWAP1 SWAP2 MSTORE PUSH1 0x0 SWAP1 PUSH1 0x54 ADD PUSH1 0x40 DUP1 MLOAD DUP1 DUP4 SUB PUSH1 0x1F NOT ADD DUP2 MSTORE SWAP2 DUP2 MSTORE DUP2 MLOAD PUSH1 0x20 SWAP3 DUP4 ADD KECCAK256 PUSH1 0x4 SLOAD PUSH1 0x60 DUP10 ADD MSTORE PUSH1 0x0 DUP2 DUP2 MSTORE PUSH1 0x5 SWAP1 SWAP4 MSTORE DUP2 DUP4 KECCAK256 DUP1 SLOAD PUSH1 0x1 PUSH1 0x1 PUSH1 0xA0 SHL SUB NOT AND PUSH1 0x1 PUSH1 0x1 PUSH1 0xA0 SHL SUB DUP12 AND OR SWAP1 SSTORE SWAP1 MLOAD SWAP1 SWAP3 POP DUP3 SWAP2 PUSH32 0xB5E6E01E79F91267DC17B4E6314D5D4D03593D2CEEE0FBB452B750BD70EA5AF9 SWAP2 LOG2 PUSH1 0x0 DUP3 PUSH1 0x0 DUP1 DUP9 PUSH1 0x0 ADD MLOAD DUP10 PUSH1 0x20 ADD MLOAD DUP11 PUSH1 0x40 ADD MLOAD DUP12 PUSH1 0x60 ADD MLOAD DUP11 DUP14 PUSH1 0x80 ADD MLOAD PUSH1 0x0 ADD MLOAD PUSH1 0x40 MLOAD PUSH1 0x24 ADD PUSH2 0x65D SWAP9 SWAP8 SWAP7 SWAP6 SWAP5 SWAP4 SWAP3 SWAP2 SWAP1 PUSH2 0xCC7 JUMP JUMPDEST PUSH1 0x40 DUP1 MLOAD PUSH1 0x1F NOT DUP2 DUP5 SUB ADD DUP2 MSTORE SWAP2 DUP2 MSTORE PUSH1 0x20 DUP3 ADD DUP1 MLOAD PUSH1 0x1 PUSH1 0x1 PUSH1 0xE0 SHL SUB AND PUSH1 0x1 PUSH1 0x1 PUSH1 0xE0 SHL SUB NOT SWAP1 SWAP5 AND SWAP4 SWAP1 SWAP4 OR SWAP1 SWAP3 MSTORE PUSH1 0x2 SLOAD SWAP2 MLOAD PUSH4 0x2000575 PUSH1 0xE5 SHL DUP2 MSTORE SWAP1 SWAP3 POP PUSH1 0x1 PUSH1 0x1 PUSH1 0xA0 SHL SUB SWAP1 SWAP2 AND SWAP1 PUSH4 0x4000AEA0 SWAP1 PUSH2 0x6C5 SWAP1 DUP11 SWAP1 DUP10 SWAP1 DUP7 SWAP1 PUSH1 0x4 ADD PUSH2 0xD2F JUMP JUMPDEST PUSH1 0x20 PUSH1 0x40 MLOAD DUP1 DUP4 SUB DUP2 PUSH1 0x0 DUP8 DUP1 EXTCODESIZE ISZERO DUP1 ISZERO PUSH2 0x6DF JUMPI PUSH1 0x0 DUP1 REVERT JUMPDEST POP GAS CALL ISZERO DUP1 ISZERO PUSH2 0x6F3 JUMPI RETURNDATASIZE PUSH1 0x0 DUP1 RETURNDATACOPY RETURNDATASIZE PUSH1 0x0 REVERT JUMPDEST POP POP POP POP PUSH1 0x40 MLOAD RETURNDATASIZE PUSH1 0x1F NOT PUSH1 0x1F DUP3 ADD AND DUP3 ADD DUP1 PUSH1 0x40 MSTORE POP DUP2 ADD SWAP1 PUSH2 0x717 SWAP2 SWAP1 PUSH2 0xBB2 JUMP JUMPDEST PUSH2 0x76F JUMPI PUSH1 0x40 MLOAD PUSH3 0x461BCD PUSH1 0xE5 SHL DUP2 MSTORE PUSH1 0x20 PUSH1 0x4 DUP3 ADD MSTORE PUSH1 0x23 PUSH1 0x24 DUP3 ADD MSTORE PUSH32 0x756E61626C6520746F207472616E73666572416E6443616C6C20746F206F7261 PUSH1 0x44 DUP3 ADD MSTORE PUSH3 0x636C65 PUSH1 0xE8 SHL PUSH1 0x64 DUP3 ADD MSTORE PUSH1 0x84 ADD PUSH2 0x203 JUMP JUMPDEST PUSH1 0x1 PUSH1 0x4 PUSH1 0x0 DUP3 DUP3 SLOAD PUSH2 0x782 SWAP2 SWAP1 PUSH2 0xD69 JUMP JUMPDEST SWAP1 SWAP2 SSTORE POP SWAP2 SWAP8 SWAP7 POP POP POP POP POP POP POP JUMP JUMPDEST PUSH1 0x40 DUP1 MLOAD DUP1 DUP3 ADD SWAP1 SWAP2 MSTORE PUSH1 0x60 DUP2 MSTORE PUSH1 0x0 PUSH1 0x20 DUP3 ADD MSTORE PUSH2 0x3B0 DUP4 DUP5 PUSH1 0x0 ADD MLOAD MLOAD DUP5 PUSH2 0x8E2 JUMP JUMPDEST PUSH1 0x40 DUP1 MLOAD DUP1 DUP3 ADD SWAP1 SWAP2 MSTORE PUSH1 0x60 DUP2 MSTORE PUSH1 0x0 PUSH1 0x20 DUP3 ADD MSTORE PUSH2 0x424 DUP5 DUP6 PUSH1 0x0 ADD MLOAD MLOAD DUP6 DUP6 PUSH2 0x93E JUMP JUMPDEST PUSH1 0x40 DUP1 MLOAD DUP1 DUP3 ADD SWAP1 SWAP2 MSTORE PUSH1 0x60 DUP2 MSTORE PUSH1 0x0 PUSH1 0x20 DUP3 ADD MSTORE DUP3 MLOAD DUP3 GT ISZERO PUSH2 0x800 JUMPI PUSH1 0x0 DUP1 REVERT JUMPDEST PUSH1 0x20 DUP6 ADD MLOAD PUSH2 0x80F DUP4 DUP7 PUSH2 0xD69 JUMP JUMPDEST GT ISZERO PUSH2 0x842 JUMPI PUSH2 0x842 DUP6 PUSH2 0x832 DUP8 PUSH1 0x20 ADD MLOAD DUP8 DUP7 PUSH2 0x82D SWAP2 SWAP1 PUSH2 0xD69 JUMP JUMPDEST PUSH2 0x9BF JUMP JUMPDEST PUSH2 0x83D SWAP1 PUSH1 0x2 PUSH2 0xE6C JUMP JUMPDEST PUSH2 0x9D6 JUMP JUMPDEST PUSH1 0x0 DUP1 DUP7 MLOAD DUP1 MLOAD DUP8 PUSH1 0x20 DUP4 ADD ADD SWAP4 POP DUP1 DUP9 DUP8 ADD GT ISZERO PUSH2 0x861 JUMPI DUP8 DUP7 ADD DUP3 MSTORE JUMPDEST POP POP POP PUSH1 0x20 DUP5 ADD JUMPDEST PUSH1 0x20 DUP5 LT PUSH2 0x8A1 JUMPI DUP1 MLOAD DUP3 MSTORE PUSH2 0x880 PUSH1 0x20 DUP4 PUSH2 0xD69 JUMP JUMPDEST SWAP2 POP PUSH2 0x88D PUSH1 0x20 DUP3 PUSH2 0xD69 JUMP JUMPDEST SWAP1 POP PUSH2 0x89A PUSH1 0x20 DUP6 PUSH2 0xE8B JUMP JUMPDEST SWAP4 POP PUSH2 0x869 JUMP JUMPDEST PUSH1 0x0 PUSH1 0x1 PUSH2 0x8B0 DUP7 PUSH1 0x20 PUSH2 0xE8B JUMP JUMPDEST PUSH2 0x8BC SWAP1 PUSH2 0x100 PUSH2 0xDC4 JUMP JUMPDEST PUSH2 0x8C6 SWAP2 SWAP1 PUSH2 0xE8B JUMP JUMPDEST SWAP2 MLOAD DUP4 MLOAD DUP4 AND SWAP3 NOT AND SWAP2 SWAP1 SWAP2 OR SWAP1 SWAP2 MSTORE POP DUP5 SWAP1 POP SWAP5 SWAP4 POP POP POP POP JUMP JUMPDEST PUSH1 0x40 DUP1 MLOAD DUP1 DUP3 ADD SWAP1 SWAP2 MSTORE PUSH1 0x60 DUP2 MSTORE PUSH1 0x0 PUSH1 0x20 DUP3 ADD MSTORE DUP4 PUSH1 0x20 ADD MLOAD DUP4 LT PUSH2 0x917 JUMPI PUSH2 0x917 DUP5 DUP6 PUSH1 0x20 ADD MLOAD PUSH1 0x2 PUSH2 0x83D SWAP2 SWAP1 PUSH2 0xE6C JUMP JUMPDEST DUP4 MLOAD DUP1 MLOAD PUSH1 0x20 DUP6 DUP4 ADD ADD DUP5 DUP2 MSTORE8 POP DUP1 DUP6 EQ ISZERO PUSH2 0x934 JUMPI PUSH1 0x1 DUP2 ADD DUP3 MSTORE JUMPDEST POP SWAP4 SWAP5 SWAP4 POP POP POP POP JUMP JUMPDEST PUSH1 0x40 DUP1 MLOAD DUP1 DUP3 ADD SWAP1 SWAP2 MSTORE PUSH1 0x60 DUP2 MSTORE PUSH1 0x0 PUSH1 0x20 DUP3 ADD MSTORE PUSH1 0x20 DUP6 ADD MLOAD PUSH2 0x962 DUP6 DUP5 PUSH2 0xD69 JUMP JUMPDEST GT ISZERO PUSH2 0x976 JUMPI PUSH2 0x976 DUP6 PUSH2 0x832 DUP7 DUP6 PUSH2 0xD69 JUMP JUMPDEST PUSH1 0x0 PUSH1 0x1 PUSH2 0x986 DUP5 PUSH2 0x100 PUSH2 0xDC4 JUMP JUMPDEST PUSH2 0x990 SWAP2 SWAP1 PUSH2 0xE8B JUMP JUMPDEST SWAP1 POP DUP6 MLOAD DUP4 DUP7 DUP3 ADD ADD DUP6 DUP4 NOT DUP3 MLOAD AND OR DUP2 MSTORE POP DUP1 MLOAD DUP5 DUP8 ADD GT ISZERO PUSH2 0x9B4 JUMPI DUP4 DUP7 ADD DUP2 MSTORE JUMPDEST POP SWAP5 SWAP6 SWAP5 POP POP POP POP POP JUMP JUMPDEST PUSH1 0x0 DUP2 DUP4 GT ISZERO PUSH2 0x9D0 JUMPI POP DUP2 PUSH2 0x3B3 JUMP JUMPDEST POP SWAP2 SWAP1 POP JUMP JUMPDEST DUP2 MLOAD PUSH2 0x9E2 DUP4 DUP4 PUSH2 0x42C JUMP JUMPDEST POP PUSH2 0x2BE DUP4 DUP3 PUSH2 0x55F JUMP JUMPDEST DUP3 DUP1 SLOAD PUSH2 0x9F9 SWAP1 PUSH2 0xECE JUMP JUMPDEST SWAP1 PUSH1 0x0 MSTORE PUSH1 0x20 PUSH1 0x0 KECCAK256 SWAP1 PUSH1 0x1F ADD PUSH1 0x20 SWAP1 DIV DUP2 ADD SWAP3 DUP3 PUSH2 0xA1B JUMPI PUSH1 0x0 DUP6 SSTORE PUSH2 0xA61 JUMP JUMPDEST DUP3 PUSH1 0x1F LT PUSH2 0xA34 JUMPI DUP1 MLOAD PUSH1 0xFF NOT AND DUP4 DUP1 ADD OR DUP6 SSTORE PUSH2 0xA61 JUMP JUMPDEST DUP3 DUP1 ADD PUSH1 0x1 ADD DUP6 SSTORE DUP3 ISZERO PUSH2 0xA61 JUMPI SWAP2 DUP3 ADD JUMPDEST DUP3 DUP2 GT ISZERO PUSH2 0xA61 JUMPI DUP3 MLOAD DUP3 SSTORE SWAP2 PUSH1 0x20 ADD SWAP2 SWAP1 PUSH1 0x1 ADD SWAP1 PUSH2 0xA46 JUMP JUMPDEST POP PUSH2 0xA6D SWAP3 SWAP2 POP PUSH2 0xB27 JUMP JUMPDEST POP SWAP1 JUMP JUMPDEST DUP3 DUP1 SLOAD PUSH2 0xA7D SWAP1 PUSH2 0xECE JUMP JUMPDEST SWAP1 PUSH1 0x0 MSTORE PUSH1 0x20 PUSH1 0x0 KECCAK256 SWAP1 PUSH1 0x1F ADD PUSH1 0x20 SWAP1 DIV DUP2 ADD SWAP3 DUP3 PUSH2 0xA9F JUMPI PUSH1 0x0 DUP6 SSTORE PUSH2 0xA61 JUMP JUMPDEST DUP3 PUSH1 0x1F LT PUSH2 0xAB0 JUMPI DUP1 SLOAD DUP6 SSTORE PUSH2 0xA61 JUMP JUMPDEST DUP3 DUP1 ADD PUSH1 0x1 ADD DUP6 SSTORE DUP3 ISZERO PUSH2 0xA61 JUMPI PUSH1 0x0 MSTORE PUSH1 0x20 PUSH1 0x0 KECCAK256 SWAP2 PUSH1 0x1F ADD PUSH1 0x20 SWAP1 DIV DUP3 ADD JUMPDEST DUP3 DUP2 GT ISZERO PUSH2 0xA61 JUMPI DUP3 SLOAD DUP3 SSTORE SWAP2 PUSH1 0x1 ADD SWAP2 SWAP1 PUSH1 0x1 ADD SWAP1 PUSH2 0xAD1 JUMP JUMPDEST PUSH1 0x40 DUP1 MLOAD PUSH1 0xA0 DUP2 ADD DUP3 MSTORE PUSH1 0x0 DUP1 DUP3 MSTORE PUSH1 0x20 DUP1 DUP4 ADD DUP3 SWAP1 MSTORE DUP3 DUP5 ADD DUP3 SWAP1 MSTORE PUSH1 0x60 DUP1 DUP5 ADD DUP4 SWAP1 MSTORE DUP5 MLOAD DUP1 DUP7 ADD SWAP1 SWAP6 MSTORE DUP5 MSTORE DUP4 ADD MSTORE SWAP1 PUSH1 0x80 DUP3 ADD MSTORE SWAP1 JUMP JUMPDEST JUMPDEST DUP1 DUP3 GT ISZERO PUSH2 0xA6D JUMPI PUSH1 0x0 DUP2 SSTORE PUSH1 0x1 ADD PUSH2 0xB28 JUMP JUMPDEST PUSH1 0x0 PUSH8 0xFFFFFFFFFFFFFFFF DUP1 DUP5 GT ISZERO PUSH2 0xB57 JUMPI PUSH2 0xB57 PUSH2 0xF3B JUMP JUMPDEST PUSH1 0x40 MLOAD PUSH1 0x1F DUP6 ADD PUSH1 0x1F NOT SWAP1 DUP2 AND PUSH1 0x3F ADD AND DUP2 ADD SWAP1 DUP3 DUP3 GT DUP2 DUP4 LT OR ISZERO PUSH2 0xB7F JUMPI PUSH2 0xB7F PUSH2 0xF3B JUMP JUMPDEST DUP2 PUSH1 0x40 MSTORE DUP1 SWAP4 POP DUP6 DUP2 MSTORE DUP7 DUP7 DUP7 ADD GT ISZERO PUSH2 0xB98 JUMPI PUSH1 0x0 DUP1 REVERT JUMPDEST DUP6 DUP6 PUSH1 0x20 DUP4 ADD CALLDATACOPY PUSH1 0x0 PUSH1 0x20 DUP8 DUP4 ADD ADD MSTORE POP POP POP SWAP4 SWAP3 POP POP POP JUMP JUMPDEST PUSH1 0x0 PUSH1 0x20 DUP3 DUP5 SUB SLT ISZERO PUSH2 0xBC4 JUMPI PUSH1 0x0 DUP1 REVERT JUMPDEST DUP2 MLOAD DUP1 ISZERO ISZERO DUP2 EQ PUSH2 0xBD4 JUMPI PUSH1 0x0 DUP1 REVERT JUMPDEST SWAP4 SWAP3 POP POP POP JUMP JUMPDEST PUSH1 0x0 DUP1 PUSH1 0x40 DUP4 DUP6 SUB SLT ISZERO PUSH2 0xBEE JUMPI PUSH1 0x0 DUP1 REVERT JUMPDEST DUP3 CALLDATALOAD SWAP2 POP PUSH1 0x20 DUP4 ADD CALLDATALOAD PUSH8 0xFFFFFFFFFFFFFFFF DUP2 GT ISZERO PUSH2 0xC0C JUMPI PUSH1 0x0 DUP1 REVERT JUMPDEST DUP4 ADD PUSH1 0x1F DUP2 ADD DUP6 SGT PUSH2 0xC1D JUMPI PUSH1 0x0 DUP1 REVERT JUMPDEST PUSH2 0xC2C DUP6 DUP3 CALLDATALOAD PUSH1 0x20 DUP5 ADD PUSH2 0xB3C JUMP JUMPDEST SWAP2 POP POP SWAP3 POP SWAP3 SWAP1 POP JUMP JUMPDEST PUSH1 0x0 PUSH1 0x20 DUP3 DUP5 SUB SLT ISZERO PUSH2 0xC48 JUMPI PUSH1 0x0 DUP1 REVERT JUMPDEST DUP2 CALLDATALOAD PUSH8 0xFFFFFFFFFFFFFFFF DUP2 GT ISZERO PUSH2 0xC5F JUMPI PUSH1 0x0 DUP1 REVERT JUMPDEST DUP3 ADD PUSH1 0x1F DUP2 ADD DUP5 SGT PUSH2 0xC70 JUMPI PUSH1 0x0 DUP1 REVERT JUMPDEST PUSH2 0x424 DUP5 DUP3 CALLDATALOAD PUSH1 0x20 DUP5 ADD PUSH2 0xB3C JUMP JUMPDEST PUSH1 0x0 DUP2 MLOAD DUP1 DUP5 MSTORE PUSH2 0xC97 DUP2 PUSH1 0x20 DUP7 ADD PUSH1 0x20 DUP7 ADD PUSH2 0xEA2 JUMP JUMPDEST PUSH1 0x1F ADD PUSH1 0x1F NOT AND SWAP3 SWAP1 SWAP3 ADD PUSH1 0x20 ADD SWAP3 SWAP2 POP POP JUMP JUMPDEST PUSH1 0x0 DUP3 MLOAD PUSH2 0xCBD DUP2 DUP5 PUSH1 0x20 DUP8 ADD PUSH2 0xEA2 JUMP JUMPDEST SWAP2 SWAP1 SWAP2 ADD SWAP3 SWAP2 POP POP JUMP JUMPDEST PUSH1 0x1 PUSH1 0x1 PUSH1 0xA0 SHL SUB DUP10 DUP2 AND DUP3 MSTORE PUSH1 0x20 DUP3 ADD DUP10 SWAP1 MSTORE PUSH1 0x40 DUP3 ADD DUP9 SWAP1 MSTORE DUP7 AND PUSH1 0x60 DUP3 ADD MSTORE PUSH1 0x1 PUSH1 0x1 PUSH1 0xE0 SHL SUB NOT DUP6 AND PUSH1 0x80 DUP3 ADD MSTORE PUSH1 0xA0 DUP2 ADD DUP5 SWAP1 MSTORE PUSH1 0xC0 DUP2 ADD DUP4 SWAP1 MSTORE PUSH2 0x100 PUSH1 0xE0 DUP3 ADD DUP2 SWAP1 MSTORE PUSH1 0x0 SWAP1 PUSH2 0xD20 DUP4 DUP3 ADD DUP6 PUSH2 0xC7F JUMP JUMPDEST SWAP12 SWAP11 POP POP POP POP POP POP POP POP POP POP POP JUMP JUMPDEST PUSH1 0x1 DUP1 PUSH1 0xA0 SHL SUB DUP5 AND DUP2 MSTORE DUP3 PUSH1 0x20 DUP3 ADD MSTORE PUSH1 0x60 PUSH1 0x40 DUP3 ADD MSTORE PUSH1 0x0 PUSH2 0x36A PUSH1 0x60 DUP4 ADD DUP5 PUSH2 0xC7F JUMP JUMPDEST PUSH1 0x20 DUP2 MSTORE PUSH1 0x0 PUSH2 0x3B0 PUSH1 0x20 DUP4 ADD DUP5 PUSH2 0xC7F JUMP JUMPDEST PUSH1 0x0 DUP3 NOT DUP3 GT ISZERO PUSH2 0xD7C JUMPI PUSH2 0xD7C PUSH2 0xF25 JUMP JUMPDEST POP ADD SWAP1 JUMP JUMPDEST PUSH1 0x1 DUP2 DUP2 JUMPDEST DUP1 DUP6 GT ISZERO PUSH2 0xDBC JUMPI DUP2 PUSH1 0x0 NOT DIV DUP3 GT ISZERO PUSH2 0xDA2 JUMPI PUSH2 0xDA2 PUSH2 0xF25 JUMP JUMPDEST DUP1 DUP6 AND ISZERO PUSH2 0xDAF JUMPI SWAP2 DUP2 MUL SWAP2 JUMPDEST SWAP4 DUP5 SHR SWAP4 SWAP1 DUP1 MUL SWAP1 PUSH2 0xD86 JUMP JUMPDEST POP SWAP3 POP SWAP3 SWAP1 POP JUMP JUMPDEST PUSH1 0x0 PUSH2 0x3B0 DUP4 DUP4 PUSH1 0x0 DUP3 PUSH2 0xDDA JUMPI POP PUSH1 0x1 PUSH2 0x3B3 JUMP JUMPDEST DUP2 PUSH2 0xDE7 JUMPI POP PUSH1 0x0 PUSH2 0x3B3 JUMP JUMPDEST DUP2 PUSH1 0x1 DUP2 EQ PUSH2 0xDFD JUMPI PUSH1 0x2 DUP2 EQ PUSH2 0xE07 JUMPI PUSH2 0xE23 JUMP JUMPDEST PUSH1 0x1 SWAP2 POP POP PUSH2 0x3B3 JUMP JUMPDEST PUSH1 0xFF DUP5 GT ISZERO PUSH2 0xE18 JUMPI PUSH2 0xE18 PUSH2 0xF25 JUMP JUMPDEST POP POP PUSH1 0x1 DUP3 SHL PUSH2 0x3B3 JUMP JUMPDEST POP PUSH1 0x20 DUP4 LT PUSH2 0x133 DUP4 LT AND PUSH1 0x4E DUP5 LT PUSH1 0xB DUP5 LT AND OR ISZERO PUSH2 0xE46 JUMPI POP DUP2 DUP2 EXP PUSH2 0x3B3 JUMP JUMPDEST PUSH2 0xE50 DUP4 DUP4 PUSH2 0xD81 JUMP JUMPDEST DUP1 PUSH1 0x0 NOT DIV DUP3 GT ISZERO PUSH2 0xE64 JUMPI PUSH2 0xE64 PUSH2 0xF25 JUMP JUMPDEST MUL SWAP4 SWAP3 POP POP POP JUMP JUMPDEST PUSH1 0x0 DUP2 PUSH1 0x0 NOT DIV DUP4 GT DUP3 ISZERO ISZERO AND ISZERO PUSH2 0xE86 JUMPI PUSH2 0xE86 PUSH2 0xF25 JUMP JUMPDEST POP MUL SWAP1 JUMP JUMPDEST PUSH1 0x0 DUP3 DUP3 LT ISZERO PUSH2 0xE9D JUMPI PUSH2 0xE9D PUSH2 0xF25 JUMP JUMPDEST POP SUB SWAP1 JUMP JUMPDEST PUSH1 0x0 JUMPDEST DUP4 DUP2 LT ISZERO PUSH2 0xEBD JUMPI DUP2 DUP2 ADD MLOAD DUP4 DUP3 ADD MSTORE PUSH1 0x20 ADD PUSH2 0xEA5 JUMP JUMPDEST DUP4 DUP2 GT ISZERO PUSH2 0x2BE JUMPI POP POP PUSH1 0x0 SWAP2 ADD MSTORE JUMP JUMPDEST PUSH1 0x1 DUP2 DUP2 SHR SWAP1 DUP3 AND DUP1 PUSH2 0xEE2 JUMPI PUSH1 0x7F DUP3 AND SWAP2 POP JUMPDEST PUSH1 0x20 DUP3 LT DUP2 EQ ISZERO PUSH2 0x9D0 JUMPI PUSH4 0x4E487B71 PUSH1 0xE0 SHL PUSH1 0x0 MSTORE PUSH1 0x22 PUSH1 0x4 MSTORE PUSH1 0x24 PUSH1 0x0 REVERT JUMPDEST PUSH1 0x0 DUP3 PUSH2 0xF20 JUMPI PUSH4 0x4E487B71 PUSH1 0xE0 SHL PUSH1 0x0 MSTORE PUSH1 0x12 PUSH1 0x4 MSTORE PUSH1 0x24 PUSH1 0x0 REVERT JUMPDEST POP MOD SWAP1 JUMP JUMPDEST PUSH4 0x4E487B71 PUSH1 0xE0 SHL PUSH1 0x0 MSTORE PUSH1 0x11 PUSH1 0x4 MSTORE PUSH1 0x24 PUSH1 0x0 REVERT JUMPDEST PUSH4 0x4E487B71 PUSH1 0xE0 SHL PUSH1 0x0 MSTORE PUSH1 0x41 PUSH1 0x4 MSTORE PUSH1 0x24 PUSH1 0x0 REVERT INVALID LOG2 PUSH5 0x6970667358 0x22 SLT KECCAK256 0x4A BALANCE ADDRESS 0x29 0x29 0xBD 0xE3 JUMP PUSH30 0x1834D7011F401C40A06A235B995A2B9F4C91E42A62E4C964736F6C634300 ADDMOD SMOD STOP CALLER ","sha1":"333bcda9d4a0fcba4fd01f49921f25429b84ddb4","source":"//SPDX-License-Identifier: MIT\npragma solidity ^0.8.0;\n\nimport \"@chainlink/contracts/src/v0.8/ChainlinkClient.sol\";\n\n/**\n * @notice DO NOT USE THIS CODE IN PRODUCTION. This is an example contract. \n */\ncontract Consumer is ChainlinkClient {\n  using Chainlink for Chainlink.Request;\n\n  // variable bytes returned in a signle oracle response\n  bytes public data;\n  string public response;\n  uint public fee = 1000000000000000000;\n\n  /**\n   * @notice Initialize the link token and target oracle\n   * @dev The oracle address must be an Operator contract for multiword response\n   *\n   *\n   * Kovan Testnet details: \n   * Link Token: 0xa36085F69e2889c224210F603D836748e7dC0088\n   * Oracle: \n   */\n  constructor(\n  ) {\n    setChainlinkToken(0xa36085F69e2889c224210F603D836748e7dC0088);\n    setChainlinkOracle(0x1FFC49dd5C2DD374Ff2967F0fFD90607b0C04Da5);\n  }\n\n  /**\n   * @notice Request variable bytes from the oracle\n   */\n  function requestBytes(string memory _prompt\n  )\n    public payable\n  {\n    require(msg.value >= fee);\n    bytes32 specId = \"3260d3eab4d44b86bdcad09a9646743a\";\n    uint256 payment = 1000000000000000000;\n    Chainlink.Request memory req = buildChainlinkRequest(specId, address(this), this.fulfillBytes.selector);\n    req.add(\"prompt\", _prompt);\n    requestOracleData(req, payment);\n    \n  }\n\n  event RequestFulfilled(\n    bytes32 indexed requestId,\n    bytes indexed data\n  );\n\n  /**\n   * @notice Fulfillment function for variable bytes\n   * @dev This is called by the oracle. recordChainlinkFulfillment must be used.\n   */\n  function fulfillBytes(\n    bytes32 requestId,\n    bytes memory bytesData\n  )\n    public\n    recordChainlinkFulfillment(requestId)\n  {\n    emit RequestFulfilled(requestId, bytesData);\n    data = bytesData;\n    response = string(data);\n  }\n  receive() external payable {}\n\n}\n","sourcePath":"contracts/Consumer.sol","deployment":{"address":"0x80B963d174BdAFD1b54256DDcC55Db73DDc71B9f","chainid":"4","blockHeight":9373266}}